{
	"Arbitrage_youtube.sol": {
		"SimpleFlashLoan": {
			"abi": [
				{
					"inputs": [
						{
							"internalType": "contract IPoolAddressesProvider",
							"name": "provider",
							"type": "address"
						}
					],
					"stateMutability": "nonpayable",
					"type": "constructor"
				},
				{
					"anonymous": false,
					"inputs": [
						{
							"indexed": false,
							"internalType": "uint256",
							"name": "amountOut",
							"type": "uint256"
						}
					],
					"name": "ArbitrageResult",
					"type": "event"
				},
				{
					"anonymous": false,
					"inputs": [
						{
							"indexed": false,
							"internalType": "address",
							"name": "asset",
							"type": "address"
						},
						{
							"indexed": false,
							"internalType": "uint256",
							"name": "val",
							"type": "uint256"
						}
					],
					"name": "Log",
					"type": "event"
				},
				{
					"inputs": [],
					"name": "ADDRESSES_PROVIDER",
					"outputs": [
						{
							"internalType": "contract IPoolAddressesProvider",
							"name": "",
							"type": "address"
						}
					],
					"stateMutability": "view",
					"type": "function"
				},
				{
					"inputs": [],
					"name": "POOL",
					"outputs": [
						{
							"internalType": "contract IPool",
							"name": "",
							"type": "address"
						}
					],
					"stateMutability": "view",
					"type": "function"
				},
				{
					"inputs": [],
					"name": "UETH",
					"outputs": [
						{
							"internalType": "address",
							"name": "",
							"type": "address"
						}
					],
					"stateMutability": "view",
					"type": "function"
				},
				{
					"inputs": [
						{
							"internalType": "address",
							"name": "asset",
							"type": "address"
						},
						{
							"internalType": "uint256",
							"name": "amount",
							"type": "uint256"
						}
					],
					"name": "createFlashLoan",
					"outputs": [],
					"stateMutability": "nonpayable",
					"type": "function"
				},
				{
					"inputs": [
						{
							"internalType": "uint256",
							"name": "amountIn",
							"type": "uint256"
						}
					],
					"name": "doArbitrage",
					"outputs": [
						{
							"internalType": "uint256",
							"name": "amountOut",
							"type": "uint256"
						}
					],
					"stateMutability": "nonpayable",
					"type": "function"
				},
				{
					"inputs": [
						{
							"internalType": "address",
							"name": "asset",
							"type": "address"
						},
						{
							"internalType": "uint256",
							"name": "amount",
							"type": "uint256"
						},
						{
							"internalType": "uint256",
							"name": "premium",
							"type": "uint256"
						},
						{
							"internalType": "address",
							"name": "initiator",
							"type": "address"
						},
						{
							"internalType": "bytes",
							"name": "params",
							"type": "bytes"
						}
					],
					"name": "executeOperation",
					"outputs": [
						{
							"internalType": "bool",
							"name": "",
							"type": "bool"
						}
					],
					"stateMutability": "nonpayable",
					"type": "function"
				},
				{
					"inputs": [],
					"name": "swapRouter",
					"outputs": [
						{
							"internalType": "contract IV3SwapRouter",
							"name": "",
							"type": "address"
						}
					],
					"stateMutability": "view",
					"type": "function"
				}
			],
			"devdoc": {
				"kind": "dev",
				"methods": {
					"executeOperation(address,uint256,uint256,address,bytes)": {
						"details": "Ensure that the contract can return the debt + premium, e.g., has      enough funds to repay and has approved the Pool to pull the total amount",
						"params": {
							"amount": "The amount of the flash-borrowed asset",
							"asset": "The address of the flash-borrowed asset",
							"initiator": "The address of the flashloan initiator",
							"params": "The byte-encoded params passed when initiating the flashloan",
							"premium": "The fee of the flash-borrowed asset"
						},
						"returns": {
							"_0": "True if the execution of the operation succeeds, false otherwise"
						}
					}
				},
				"version": 1
			},
			"evm": {
				"assembly": "    /* \"Arbitrage_youtube.sol\":431:3355  contract SimpleFlashLoan is FlashLoanSimpleReceiverBase {... */\n  mstore(0x40, 0xe0)\n    /* \"Arbitrage_youtube.sol\":585:627  0x3bFA4769FB09eefC5a80d6E87c3B9C650f7Ae48E */\n  0x3bfa4769fb09eefc5a80d6e87c3b9c650f7ae48e\n    /* \"Arbitrage_youtube.sol\":794:864  IV3SwapRouter public immutable swapRouter = IV3SwapRouter(SWAP_ROUTER) */\n  0xffffffffffffffffffffffffffffffffffffffff\n  and\n  0xc0\n  swap1\n  0xffffffffffffffffffffffffffffffffffffffff\n  and\n  dup2\n  mstore\n  pop\n    /* \"Arbitrage_youtube.sol\":994:1091  constructor(IPoolAddressesProvider provider)... */\n  callvalue\n  dup1\n  iszero\n  tag_1\n  jumpi\n  0x00\n  dup1\n  revert\ntag_1:\n  pop\n  mload(0x40)\n  sub(codesize, bytecodeSize)\n  dup1\n  bytecodeSize\n  dup4\n  codecopy\n  dup2\n  dup2\n  add\n  0x40\n  mstore\n  dup2\n  add\n  swap1\n  tag_2\n  swap2\n  swap1\n  tag_3\n  jump\t// in\ntag_2:\n    /* \"Arbitrage_youtube.sol\":1075:1083  provider */\n  dup1\n    /* \"https://github.com/aave/aave-v3-core/blob/master/contracts/flashloan/base/FlashLoanSimpleReceiverBase.sol\":673:681  provider */\n  dup1\n    /* \"https://github.com/aave/aave-v3-core/blob/master/contracts/flashloan/base/FlashLoanSimpleReceiverBase.sol\":652:681  ADDRESSES_PROVIDER = provider */\n  0xffffffffffffffffffffffffffffffffffffffff\n  and\n  0x80\n  dup2\n  0xffffffffffffffffffffffffffffffffffffffff\n  and\n  dup2\n  mstore\n  pop\n  pop\n    /* \"https://github.com/aave/aave-v3-core/blob/master/contracts/flashloan/base/FlashLoanSimpleReceiverBase.sol\":700:708  provider */\n  dup1\n    /* \"https://github.com/aave/aave-v3-core/blob/master/contracts/flashloan/base/FlashLoanSimpleReceiverBase.sol\":700:716  provider.getPool */\n  0xffffffffffffffffffffffffffffffffffffffff\n  and\n  0x026b1d5f\n    /* \"https://github.com/aave/aave-v3-core/blob/master/contracts/flashloan/base/FlashLoanSimpleReceiverBase.sol\":700:718  provider.getPool() */\n  mload(0x40)\n  dup2\n  0xffffffff\n  and\n  0xe0\n  shl\n  dup2\n  mstore\n  0x04\n  add\n  0x20\n  mload(0x40)\n  dup1\n  dup4\n  sub\n  dup2\n  dup7\n  gas\n  staticcall\n  iszero\n  dup1\n  iszero\n  tag_8\n  jumpi\n  returndatasize\n  0x00\n  dup1\n  returndatacopy\n  revert(0x00, returndatasize)\ntag_8:\n  pop\n  pop\n  pop\n  pop\n  mload(0x40)\n  returndatasize\n  not(0x1f)\n  0x1f\n  dup3\n  add\n  and\n  dup3\n  add\n  dup1\n  0x40\n  mstore\n  pop\n  dup2\n  add\n  swap1\n  tag_9\n  swap2\n  swap1\n  tag_10\n  jump\t// in\ntag_9:\n    /* \"https://github.com/aave/aave-v3-core/blob/master/contracts/flashloan/base/FlashLoanSimpleReceiverBase.sol\":687:719  POOL = IPool(provider.getPool()) */\n  0xffffffffffffffffffffffffffffffffffffffff\n  and\n  0xa0\n  dup2\n  0xffffffffffffffffffffffffffffffffffffffff\n  and\n  dup2\n  mstore\n  pop\n  pop\n    /* \"https://github.com/aave/aave-v3-core/blob/master/contracts/flashloan/base/FlashLoanSimpleReceiverBase.sol\":601:724  constructor(IPoolAddressesProvider provider) {... */\n  pop\n    /* \"Arbitrage_youtube.sol\":994:1091  constructor(IPoolAddressesProvider provider)... */\n  pop\n    /* \"Arbitrage_youtube.sol\":431:3355  contract SimpleFlashLoan is FlashLoanSimpleReceiverBase {... */\n  jump(tag_12)\n    /* \"#utility.yul\":88:205   */\ntag_14:\n    /* \"#utility.yul\":197:198   */\n  0x00\n    /* \"#utility.yul\":194:195   */\n  dup1\n    /* \"#utility.yul\":187:199   */\n  revert\n    /* \"#utility.yul\":334:460   */\ntag_16:\n    /* \"#utility.yul\":371:378   */\n  0x00\n    /* \"#utility.yul\":411:453   */\n  0xffffffffffffffffffffffffffffffffffffffff\n    /* \"#utility.yul\":404:409   */\n  dup3\n    /* \"#utility.yul\":400:454   */\n  and\n    /* \"#utility.yul\":389:454   */\n  swap1\n  pop\n    /* \"#utility.yul\":334:460   */\n  swap2\n  swap1\n  pop\n  jump\t// out\n    /* \"#utility.yul\":466:562   */\ntag_17:\n    /* \"#utility.yul\":503:510   */\n  0x00\n    /* \"#utility.yul\":532:556   */\n  tag_29\n    /* \"#utility.yul\":550:555   */\n  dup3\n    /* \"#utility.yul\":532:556   */\n  tag_16\n  jump\t// in\ntag_29:\n    /* \"#utility.yul\":521:556   */\n  swap1\n  pop\n    /* \"#utility.yul\":466:562   */\n  swap2\n  swap1\n  pop\n  jump\t// out\n    /* \"#utility.yul\":568:695   */\ntag_18:\n    /* \"#utility.yul\":636:643   */\n  0x00\n    /* \"#utility.yul\":665:689   */\n  tag_31\n    /* \"#utility.yul\":683:688   */\n  dup3\n    /* \"#utility.yul\":665:689   */\n  tag_17\n  jump\t// in\ntag_31:\n    /* \"#utility.yul\":654:689   */\n  swap1\n  pop\n    /* \"#utility.yul\":568:695   */\n  swap2\n  swap1\n  pop\n  jump\t// out\n    /* \"#utility.yul\":701:885   */\ntag_19:\n    /* \"#utility.yul\":805:860   */\n  tag_33\n    /* \"#utility.yul\":854:859   */\n  dup2\n    /* \"#utility.yul\":805:860   */\n  tag_18\n  jump\t// in\ntag_33:\n    /* \"#utility.yul\":798:803   */\n  dup2\n    /* \"#utility.yul\":795:861   */\n  eq\n    /* \"#utility.yul\":785:879   */\n  tag_34\n  jumpi\n    /* \"#utility.yul\":875:876   */\n  0x00\n    /* \"#utility.yul\":872:873   */\n  dup1\n    /* \"#utility.yul\":865:877   */\n  revert\n    /* \"#utility.yul\":785:879   */\ntag_34:\n    /* \"#utility.yul\":701:885   */\n  pop\n  jump\t// out\n    /* \"#utility.yul\":891:1096   */\ntag_20:\n    /* \"#utility.yul\":979:984   */\n  0x00\n    /* \"#utility.yul\":1010:1016   */\n  dup2\n    /* \"#utility.yul\":1004:1017   */\n  mload\n    /* \"#utility.yul\":995:1017   */\n  swap1\n  pop\n    /* \"#utility.yul\":1026:1090   */\n  tag_36\n    /* \"#utility.yul\":1084:1089   */\n  dup2\n    /* \"#utility.yul\":1026:1090   */\n  tag_19\n  jump\t// in\ntag_36:\n    /* \"#utility.yul\":891:1096   */\n  swap3\n  swap2\n  pop\n  pop\n  jump\t// out\n    /* \"#utility.yul\":1102:1515   */\ntag_3:\n    /* \"#utility.yul\":1203:1209   */\n  0x00\n    /* \"#utility.yul\":1252:1254   */\n  0x20\n    /* \"#utility.yul\":1240:1249   */\n  dup3\n    /* \"#utility.yul\":1231:1238   */\n  dup5\n    /* \"#utility.yul\":1227:1250   */\n  sub\n    /* \"#utility.yul\":1223:1255   */\n  slt\n    /* \"#utility.yul\":1220:1339   */\n  iszero\n  tag_38\n  jumpi\n    /* \"#utility.yul\":1258:1337   */\n  tag_39\n  tag_14\n  jump\t// in\ntag_39:\n    /* \"#utility.yul\":1220:1339   */\ntag_38:\n    /* \"#utility.yul\":1378:1379   */\n  0x00\n    /* \"#utility.yul\":1403:1498   */\n  tag_40\n    /* \"#utility.yul\":1490:1497   */\n  dup5\n    /* \"#utility.yul\":1481:1487   */\n  dup3\n    /* \"#utility.yul\":1470:1479   */\n  dup6\n    /* \"#utility.yul\":1466:1488   */\n  add\n    /* \"#utility.yul\":1403:1498   */\n  tag_20\n  jump\t// in\ntag_40:\n    /* \"#utility.yul\":1393:1498   */\n  swap2\n  pop\n    /* \"#utility.yul\":1349:1508   */\n  pop\n    /* \"#utility.yul\":1102:1515   */\n  swap3\n  swap2\n  pop\n  pop\n  jump\t// out\n    /* \"#utility.yul\":1521:1643   */\ntag_21:\n    /* \"#utility.yul\":1594:1618   */\n  tag_42\n    /* \"#utility.yul\":1612:1617   */\n  dup2\n    /* \"#utility.yul\":1594:1618   */\n  tag_17\n  jump\t// in\ntag_42:\n    /* \"#utility.yul\":1587:1592   */\n  dup2\n    /* \"#utility.yul\":1584:1619   */\n  eq\n    /* \"#utility.yul\":1574:1637   */\n  tag_43\n  jumpi\n    /* \"#utility.yul\":1633:1634   */\n  0x00\n    /* \"#utility.yul\":1630:1631   */\n  dup1\n    /* \"#utility.yul\":1623:1635   */\n  revert\n    /* \"#utility.yul\":1574:1637   */\ntag_43:\n    /* \"#utility.yul\":1521:1643   */\n  pop\n  jump\t// out\n    /* \"#utility.yul\":1649:1792   */\ntag_22:\n    /* \"#utility.yul\":1706:1711   */\n  0x00\n    /* \"#utility.yul\":1737:1743   */\n  dup2\n    /* \"#utility.yul\":1731:1744   */\n  mload\n    /* \"#utility.yul\":1722:1744   */\n  swap1\n  pop\n    /* \"#utility.yul\":1753:1786   */\n  tag_45\n    /* \"#utility.yul\":1780:1785   */\n  dup2\n    /* \"#utility.yul\":1753:1786   */\n  tag_21\n  jump\t// in\ntag_45:\n    /* \"#utility.yul\":1649:1792   */\n  swap3\n  swap2\n  pop\n  pop\n  jump\t// out\n    /* \"#utility.yul\":1798:2149   */\ntag_10:\n    /* \"#utility.yul\":1868:1874   */\n  0x00\n    /* \"#utility.yul\":1917:1919   */\n  0x20\n    /* \"#utility.yul\":1905:1914   */\n  dup3\n    /* \"#utility.yul\":1896:1903   */\n  dup5\n    /* \"#utility.yul\":1892:1915   */\n  sub\n    /* \"#utility.yul\":1888:1920   */\n  slt\n    /* \"#utility.yul\":1885:2004   */\n  iszero\n  tag_47\n  jumpi\n    /* \"#utility.yul\":1923:2002   */\n  tag_48\n  tag_14\n  jump\t// in\ntag_48:\n    /* \"#utility.yul\":1885:2004   */\ntag_47:\n    /* \"#utility.yul\":2043:2044   */\n  0x00\n    /* \"#utility.yul\":2068:2132   */\n  tag_49\n    /* \"#utility.yul\":2124:2131   */\n  dup5\n    /* \"#utility.yul\":2115:2121   */\n  dup3\n    /* \"#utility.yul\":2104:2113   */\n  dup6\n    /* \"#utility.yul\":2100:2122   */\n  add\n    /* \"#utility.yul\":2068:2132   */\n  tag_22\n  jump\t// in\ntag_49:\n    /* \"#utility.yul\":2058:2132   */\n  swap2\n  pop\n    /* \"#utility.yul\":2014:2142   */\n  pop\n    /* \"#utility.yul\":1798:2149   */\n  swap3\n  swap2\n  pop\n  pop\n  jump\t// out\n    /* \"Arbitrage_youtube.sol\":431:3355  contract SimpleFlashLoan is FlashLoanSimpleReceiverBase {... */\ntag_12:\n  mload(0x80)\n  mload(0xa0)\n  mload(0xc0)\n  codecopy(0x00, dataOffset(sub_0), dataSize(sub_0))\n  0x00\n  assignImmutable(\"0xcab8721890c4a0282eedf7457a9eef71e0286aef15a4e0cdc4e5d20a5c38ddc9\")\n  0x00\n  assignImmutable(\"0x32dc42f894e5a4d4b23942d0616a19a04bbfd803207f066ba76d13d1733bb4d4\")\n  0x00\n  assignImmutable(\"0x7705a66c05de96d79dddf8024a7669ad29d5b174f4aa496e3ca7c392f0ca18e1\")\n  return(0x00, dataSize(sub_0))\nstop\n\nsub_0: assembly {\n        /* \"Arbitrage_youtube.sol\":431:3355  contract SimpleFlashLoan is FlashLoanSimpleReceiverBase {... */\n      mstore(0x40, 0x80)\n      callvalue\n      dup1\n      iszero\n      tag_1\n      jumpi\n      0x00\n      dup1\n      revert\n    tag_1:\n      pop\n      jumpi(tag_2, lt(calldatasize, 0x04))\n      shr(0xe0, calldataload(0x00))\n      dup1\n      0x7535d246\n      gt\n      tag_10\n      jumpi\n      dup1\n      0x7535d246\n      eq\n      tag_6\n      jumpi\n      dup1\n      0x82d2dcfb\n      eq\n      tag_7\n      jumpi\n      dup1\n      0xa048600d\n      eq\n      tag_8\n      jumpi\n      dup1\n      0xc31c9c07\n      eq\n      tag_9\n      jumpi\n      jump(tag_2)\n    tag_10:\n      dup1\n      0x0542975c\n      eq\n      tag_3\n      jumpi\n      dup1\n      0x0a6095da\n      eq\n      tag_4\n      jumpi\n      dup1\n      0x1b11d0ff\n      eq\n      tag_5\n      jumpi\n    tag_2:\n      0x00\n      dup1\n      revert\n        /* \"https://github.com/aave/aave-v3-core/blob/master/contracts/flashloan/base/FlashLoanSimpleReceiverBase.sol\":489:556  IPoolAddressesProvider public immutable override ADDRESSES_PROVIDER */\n    tag_3:\n      tag_11\n      tag_12\n      jump\t// in\n    tag_11:\n      mload(0x40)\n      tag_13\n      swap2\n      swap1\n      tag_14\n      jump\t// in\n    tag_13:\n      mload(0x40)\n      dup1\n      swap2\n      sub\n      swap1\n      return\n        /* \"Arbitrage_youtube.sol\":1097:1422  function createFlashLoan(address asset, uint256 amount) external {... */\n    tag_4:\n      tag_15\n      0x04\n      dup1\n      calldatasize\n      sub\n      dup2\n      add\n      swap1\n      tag_16\n      swap2\n      swap1\n      tag_17\n      jump\t// in\n    tag_16:\n      tag_18\n      jump\t// in\n    tag_15:\n      stop\n        /* \"Arbitrage_youtube.sol\":1428:1945  function executeOperation(... */\n    tag_5:\n      tag_19\n      0x04\n      dup1\n      calldatasize\n      sub\n      dup2\n      add\n      swap1\n      tag_20\n      swap2\n      swap1\n      tag_21\n      jump\t// in\n    tag_20:\n      tag_22\n      jump\t// in\n    tag_19:\n      mload(0x40)\n      tag_23\n      swap2\n      swap1\n      tag_24\n      jump\t// in\n    tag_23:\n      mload(0x40)\n      dup1\n      swap2\n      sub\n      swap1\n      return\n        /* \"https://github.com/aave/aave-v3-core/blob/master/contracts/flashloan/base/FlashLoanSimpleReceiverBase.sol\":560:596  IPool public immutable override POOL */\n    tag_6:\n      tag_25\n      tag_26\n      jump\t// in\n    tag_25:\n      mload(0x40)\n      tag_27\n      swap2\n      swap1\n      tag_28\n      jump\t// in\n    tag_27:\n      mload(0x40)\n      dup1\n      swap2\n      sub\n      swap1\n      return\n        /* \"Arbitrage_youtube.sol\":714:787  address public constant UETH = 0xd10A9Ec6E827B13cF399fCC7E6424f233E99562a */\n    tag_7:\n      tag_29\n      tag_30\n      jump\t// in\n    tag_29:\n      mload(0x40)\n      tag_31\n      swap2\n      swap1\n      tag_32\n      jump\t// in\n    tag_31:\n      mload(0x40)\n      dup1\n      swap2\n      sub\n      swap1\n      return\n        /* \"Arbitrage_youtube.sol\":1951:3353  function doArbitrage(uint256 amountIn)... */\n    tag_8:\n      tag_33\n      0x04\n      dup1\n      calldatasize\n      sub\n      dup2\n      add\n      swap1\n      tag_34\n      swap2\n      swap1\n      tag_35\n      jump\t// in\n    tag_34:\n      tag_36\n      jump\t// in\n    tag_33:\n      mload(0x40)\n      tag_37\n      swap2\n      swap1\n      tag_38\n      jump\t// in\n    tag_37:\n      mload(0x40)\n      dup1\n      swap2\n      sub\n      swap1\n      return\n        /* \"Arbitrage_youtube.sol\":794:864  IV3SwapRouter public immutable swapRouter = IV3SwapRouter(SWAP_ROUTER) */\n    tag_9:\n      tag_39\n      tag_40\n      jump\t// in\n    tag_39:\n      mload(0x40)\n      tag_41\n      swap2\n      swap1\n      tag_42\n      jump\t// in\n    tag_41:\n      mload(0x40)\n      dup1\n      swap2\n      sub\n      swap1\n      return\n        /* \"https://github.com/aave/aave-v3-core/blob/master/contracts/flashloan/base/FlashLoanSimpleReceiverBase.sol\":489:556  IPoolAddressesProvider public immutable override ADDRESSES_PROVIDER */\n    tag_12:\n      immutable(\"0x7705a66c05de96d79dddf8024a7669ad29d5b174f4aa496e3ca7c392f0ca18e1\")\n      dup2\n      jump\t// out\n        /* \"Arbitrage_youtube.sol\":1097:1422  function createFlashLoan(address asset, uint256 amount) external {... */\n    tag_18:\n        /* \"Arbitrage_youtube.sol\":1172:1188  address receiver */\n      0x00\n        /* \"Arbitrage_youtube.sol\":1199:1203  this */\n      address\n        /* \"Arbitrage_youtube.sol\":1172:1204  address receiver = address(this) */\n      swap1\n      pop\n        /* \"Arbitrage_youtube.sol\":1214:1233  bytes memory params */\n      0x00\n        /* \"Arbitrage_youtube.sol\":1214:1238  bytes memory params = \"\" */\n      mload(0x40)\n      dup1\n      0x20\n      add\n      0x40\n      mstore\n      dup1\n      0x00\n      dup2\n      mstore\n      pop\n      swap1\n      pop\n        /* \"Arbitrage_youtube.sol\":1248:1267  uint16 referralCode */\n      0x00\n        /* \"Arbitrage_youtube.sol\":1287:1337  Log(asset, IERC20(asset).balanceOf(address(this))) */\n      0xf950957d2407bed19dc99b718b46b4ce6090c05589006dfb86fd22c34865b23e\n        /* \"Arbitrage_youtube.sol\":1291:1296  asset */\n      dup6\n        /* \"Arbitrage_youtube.sol\":1305:1310  asset */\n      dup7\n        /* \"Arbitrage_youtube.sol\":1298:1321  IERC20(asset).balanceOf */\n      0xffffffffffffffffffffffffffffffffffffffff\n      and\n      0x70a08231\n        /* \"Arbitrage_youtube.sol\":1330:1334  this */\n      address\n        /* \"Arbitrage_youtube.sol\":1298:1336  IERC20(asset).balanceOf(address(this)) */\n      mload(0x40)\n      dup3\n      0xffffffff\n      and\n      0xe0\n      shl\n      dup2\n      mstore\n      0x04\n      add\n      tag_44\n      swap2\n      swap1\n      tag_32\n      jump\t// in\n    tag_44:\n      0x20\n      mload(0x40)\n      dup1\n      dup4\n      sub\n      dup2\n      dup7\n      gas\n      staticcall\n      iszero\n      dup1\n      iszero\n      tag_46\n      jumpi\n      returndatasize\n      0x00\n      dup1\n      returndatacopy\n      revert(0x00, returndatasize)\n    tag_46:\n      pop\n      pop\n      pop\n      pop\n      mload(0x40)\n      returndatasize\n      not(0x1f)\n      0x1f\n      dup3\n      add\n      and\n      dup3\n      add\n      dup1\n      0x40\n      mstore\n      pop\n      dup2\n      add\n      swap1\n      tag_47\n      swap2\n      swap1\n      tag_48\n      jump\t// in\n    tag_47:\n        /* \"Arbitrage_youtube.sol\":1287:1337  Log(asset, IERC20(asset).balanceOf(address(this))) */\n      mload(0x40)\n      tag_49\n      swap3\n      swap2\n      swap1\n      tag_50\n      jump\t// in\n    tag_49:\n      mload(0x40)\n      dup1\n      swap2\n      sub\n      swap1\n      log1\n        /* \"Arbitrage_youtube.sol\":1348:1352  POOL */\n      immutable(\"0x32dc42f894e5a4d4b23942d0616a19a04bbfd803207f066ba76d13d1733bb4d4\")\n        /* \"Arbitrage_youtube.sol\":1348:1368  POOL.flashLoanSimple */\n      0xffffffffffffffffffffffffffffffffffffffff\n      and\n      0x42b0b77c\n        /* \"Arbitrage_youtube.sol\":1369:1377  receiver */\n      dup5\n        /* \"Arbitrage_youtube.sol\":1379:1384  asset */\n      dup8\n        /* \"Arbitrage_youtube.sol\":1386:1392  amount */\n      dup8\n        /* \"Arbitrage_youtube.sol\":1394:1400  params */\n      dup7\n        /* \"Arbitrage_youtube.sol\":1402:1414  referralCode */\n      dup7\n        /* \"Arbitrage_youtube.sol\":1348:1415  POOL.flashLoanSimple(receiver, asset, amount, params, referralCode) */\n      mload(0x40)\n      dup7\n      0xffffffff\n      and\n      0xe0\n      shl\n      dup2\n      mstore\n      0x04\n      add\n      tag_51\n      swap6\n      swap5\n      swap4\n      swap3\n      swap2\n      swap1\n      tag_52\n      jump\t// in\n    tag_51:\n      0x00\n      mload(0x40)\n      dup1\n      dup4\n      sub\n      dup2\n      0x00\n      dup8\n      dup1\n      extcodesize\n      iszero\n      dup1\n      iszero\n      tag_53\n      jumpi\n      0x00\n      dup1\n      revert\n    tag_53:\n      pop\n      gas\n      call\n      iszero\n      dup1\n      iszero\n      tag_55\n      jumpi\n      returndatasize\n      0x00\n      dup1\n      returndatacopy\n      revert(0x00, returndatasize)\n    tag_55:\n      pop\n      pop\n      pop\n      pop\n        /* \"Arbitrage_youtube.sol\":1162:1422  {... */\n      pop\n      pop\n      pop\n        /* \"Arbitrage_youtube.sol\":1097:1422  function createFlashLoan(address asset, uint256 amount) external {... */\n      pop\n      pop\n      jump\t// out\n        /* \"Arbitrage_youtube.sol\":1428:1945  function executeOperation(... */\n    tag_22:\n        /* \"Arbitrage_youtube.sol\":1608:1612  bool */\n      0x00\n        /* \"Arbitrage_youtube.sol\":1717:1721  this */\n      address\n        /* \"Arbitrage_youtube.sol\":1717:1733  this.doArbitrage */\n      0xffffffffffffffffffffffffffffffffffffffff\n      and\n      0xa048600d\n        /* \"Arbitrage_youtube.sol\":1734:1740  100000 */\n      0x0186a0\n        /* \"Arbitrage_youtube.sol\":1717:1741  this.doArbitrage(100000) */\n      mload(0x40)\n      dup3\n      0xffffffff\n      and\n      0xe0\n      shl\n      dup2\n      mstore\n      0x04\n      add\n      tag_57\n      swap2\n      swap1\n      tag_58\n      jump\t// in\n    tag_57:\n      0x20\n      mload(0x40)\n      dup1\n      dup4\n      sub\n      dup2\n      0x00\n      dup8\n      gas\n      call\n      iszero\n      dup1\n      iszero\n      tag_60\n      jumpi\n      returndatasize\n      0x00\n      dup1\n      returndatacopy\n      revert(0x00, returndatasize)\n    tag_60:\n      pop\n      pop\n      pop\n      pop\n      mload(0x40)\n      returndatasize\n      not(0x1f)\n      0x1f\n      dup3\n      add\n      and\n      dup3\n      add\n      dup1\n      0x40\n      mstore\n      pop\n      dup2\n      add\n      swap1\n      tag_61\n      swap2\n      swap1\n      tag_48\n      jump\t// in\n    tag_61:\n      pop\n        /* \"Arbitrage_youtube.sol\":1756:1806  Log(asset, IERC20(asset).balanceOf(address(this))) */\n      0xf950957d2407bed19dc99b718b46b4ce6090c05589006dfb86fd22c34865b23e\n        /* \"Arbitrage_youtube.sol\":1760:1765  asset */\n      dup8\n        /* \"Arbitrage_youtube.sol\":1774:1779  asset */\n      dup9\n        /* \"Arbitrage_youtube.sol\":1767:1790  IERC20(asset).balanceOf */\n      0xffffffffffffffffffffffffffffffffffffffff\n      and\n      0x70a08231\n        /* \"Arbitrage_youtube.sol\":1799:1803  this */\n      address\n        /* \"Arbitrage_youtube.sol\":1767:1805  IERC20(asset).balanceOf(address(this)) */\n      mload(0x40)\n      dup3\n      0xffffffff\n      and\n      0xe0\n      shl\n      dup2\n      mstore\n      0x04\n      add\n      tag_62\n      swap2\n      swap1\n      tag_32\n      jump\t// in\n    tag_62:\n      0x20\n      mload(0x40)\n      dup1\n      dup4\n      sub\n      dup2\n      dup7\n      gas\n      staticcall\n      iszero\n      dup1\n      iszero\n      tag_64\n      jumpi\n      returndatasize\n      0x00\n      dup1\n      returndatacopy\n      revert(0x00, returndatasize)\n    tag_64:\n      pop\n      pop\n      pop\n      pop\n      mload(0x40)\n      returndatasize\n      not(0x1f)\n      0x1f\n      dup3\n      add\n      and\n      dup3\n      add\n      dup1\n      0x40\n      mstore\n      pop\n      dup2\n      add\n      swap1\n      tag_65\n      swap2\n      swap1\n      tag_48\n      jump\t// in\n    tag_65:\n        /* \"Arbitrage_youtube.sol\":1756:1806  Log(asset, IERC20(asset).balanceOf(address(this))) */\n      mload(0x40)\n      tag_66\n      swap3\n      swap2\n      swap1\n      tag_50\n      jump\t// in\n    tag_66:\n      mload(0x40)\n      dup1\n      swap2\n      sub\n      swap1\n      log1\n        /* \"Arbitrage_youtube.sol\":1816:1835  uint256 amountOwing */\n      0x00\n        /* \"Arbitrage_youtube.sol\":1838:1857  amount.add(premium) */\n      tag_67\n        /* \"Arbitrage_youtube.sol\":1849:1856  premium */\n      dup7\n        /* \"Arbitrage_youtube.sol\":1838:1844  amount */\n      dup9\n        /* \"Arbitrage_youtube.sol\":1838:1848  amount.add */\n      tag_68\n      swap1\n        /* \"Arbitrage_youtube.sol\":1838:1857  amount.add(premium) */\n      swap2\n      swap1\n      0xffffffff\n      and\n      jump\t// in\n    tag_67:\n        /* \"Arbitrage_youtube.sol\":1816:1857  uint256 amountOwing = amount.add(premium) */\n      swap1\n      pop\n        /* \"Arbitrage_youtube.sol\":1874:1879  asset */\n      dup8\n        /* \"Arbitrage_youtube.sol\":1867:1888  IERC20(asset).approve */\n      0xffffffffffffffffffffffffffffffffffffffff\n      and\n      0x095ea7b3\n        /* \"Arbitrage_youtube.sol\":1897:1901  POOL */\n      immutable(\"0x32dc42f894e5a4d4b23942d0616a19a04bbfd803207f066ba76d13d1733bb4d4\")\n        /* \"Arbitrage_youtube.sol\":1904:1915  amountOwing */\n      dup4\n        /* \"Arbitrage_youtube.sol\":1867:1916  IERC20(asset).approve(address(POOL), amountOwing) */\n      mload(0x40)\n      dup4\n      0xffffffff\n      and\n      0xe0\n      shl\n      dup2\n      mstore\n      0x04\n      add\n      tag_69\n      swap3\n      swap2\n      swap1\n      tag_50\n      jump\t// in\n    tag_69:\n      0x20\n      mload(0x40)\n      dup1\n      dup4\n      sub\n      dup2\n      0x00\n      dup8\n      gas\n      call\n      iszero\n      dup1\n      iszero\n      tag_71\n      jumpi\n      returndatasize\n      0x00\n      dup1\n      returndatacopy\n      revert(0x00, returndatasize)\n    tag_71:\n      pop\n      pop\n      pop\n      pop\n      mload(0x40)\n      returndatasize\n      not(0x1f)\n      0x1f\n      dup3\n      add\n      and\n      dup3\n      add\n      dup1\n      0x40\n      mstore\n      pop\n      dup2\n      add\n      swap1\n      tag_72\n      swap2\n      swap1\n      tag_73\n      jump\t// in\n    tag_72:\n      pop\n        /* \"Arbitrage_youtube.sol\":1934:1938  true */\n      0x01\n        /* \"Arbitrage_youtube.sol\":1927:1938  return true */\n      swap2\n      pop\n      pop\n        /* \"Arbitrage_youtube.sol\":1428:1945  function executeOperation(... */\n      swap7\n      swap6\n      pop\n      pop\n      pop\n      pop\n      pop\n      pop\n      jump\t// out\n        /* \"https://github.com/aave/aave-v3-core/blob/master/contracts/flashloan/base/FlashLoanSimpleReceiverBase.sol\":560:596  IPool public immutable override POOL */\n    tag_26:\n      immutable(\"0x32dc42f894e5a4d4b23942d0616a19a04bbfd803207f066ba76d13d1733bb4d4\")\n      dup2\n      jump\t// out\n        /* \"Arbitrage_youtube.sol\":714:787  address public constant UETH = 0xd10A9Ec6E827B13cF399fCC7E6424f233E99562a */\n    tag_30:\n        /* \"Arbitrage_youtube.sol\":745:787  0xd10A9Ec6E827B13cF399fCC7E6424f233E99562a */\n      0xd10a9ec6e827b13cf399fcc7e6424f233e99562a\n        /* \"Arbitrage_youtube.sol\":714:787  address public constant UETH = 0xd10A9Ec6E827B13cF399fCC7E6424f233E99562a */\n      dup2\n      jump\t// out\n        /* \"Arbitrage_youtube.sol\":1951:3353  function doArbitrage(uint256 amountIn)... */\n    tag_36:\n        /* \"Arbitrage_youtube.sol\":2024:2041  uint256 amountOut */\n      0x00\n        /* \"Arbitrage_youtube.sol\":2057:2189  TransferHelper.safeTransferFrom(... */\n      tag_75\n        /* \"Arbitrage_youtube.sol\":666:708  0x64B6f44862E8800EBd63Cd7f1319C8BF0BC1bb99 */\n      0x64b6f44862e8800ebd63cd7f1319c8bf0bc1bb99\n        /* \"Arbitrage_youtube.sol\":2120:2130  msg.sender */\n      caller\n        /* \"Arbitrage_youtube.sol\":2152:2156  this */\n      address\n        /* \"Arbitrage_youtube.sol\":2171:2179  amountIn */\n      dup6\n        /* \"Arbitrage_youtube.sol\":2057:2088  TransferHelper.safeTransferFrom */\n      tag_76\n        /* \"Arbitrage_youtube.sol\":2057:2189  TransferHelper.safeTransferFrom(... */\n      jump\t// in\n    tag_75:\n        /* \"Arbitrage_youtube.sol\":2200:2263  TransferHelper.safeApprove(UHKD, address(swapRouter), amountIn) */\n      tag_77\n        /* \"Arbitrage_youtube.sol\":666:708  0x64B6f44862E8800EBd63Cd7f1319C8BF0BC1bb99 */\n      0x64b6f44862e8800ebd63cd7f1319c8bf0bc1bb99\n        /* \"Arbitrage_youtube.sol\":2241:2251  swapRouter */\n      immutable(\"0xcab8721890c4a0282eedf7457a9eef71e0286aef15a4e0cdc4e5d20a5c38ddc9\")\n        /* \"Arbitrage_youtube.sol\":2254:2262  amountIn */\n      dup5\n        /* \"Arbitrage_youtube.sol\":2200:2226  TransferHelper.safeApprove */\n      tag_78\n        /* \"Arbitrage_youtube.sol\":2200:2263  TransferHelper.safeApprove(UHKD, address(swapRouter), amountIn) */\n      jump\t// in\n    tag_77:\n        /* \"Arbitrage_youtube.sol\":2274:2324  IV3SwapRouter.ExactInputSingleParams memory params */\n      0x00\n        /* \"Arbitrage_youtube.sol\":2327:2670  IV3SwapRouter... */\n      mload(0x40)\n      dup1\n      0xe0\n      add\n      0x40\n      mstore\n      dup1\n        /* \"Arbitrage_youtube.sol\":666:708  0x64B6f44862E8800EBd63Cd7f1319C8BF0BC1bb99 */\n      0x64b6f44862e8800ebd63cd7f1319c8bf0bc1bb99\n        /* \"Arbitrage_youtube.sol\":2327:2670  IV3SwapRouter... */\n      0xffffffffffffffffffffffffffffffffffffffff\n      and\n      dup2\n      mstore\n      0x20\n      add\n        /* \"Arbitrage_youtube.sol\":745:787  0xd10A9Ec6E827B13cF399fCC7E6424f233E99562a */\n      0xd10a9ec6e827b13cf399fcc7e6424f233e99562a\n        /* \"Arbitrage_youtube.sol\":2327:2670  IV3SwapRouter... */\n      0xffffffffffffffffffffffffffffffffffffffff\n      and\n      dup2\n      mstore\n      0x20\n      add\n        /* \"Arbitrage_youtube.sol\":2463:2466  500 */\n      0x01f4\n        /* \"Arbitrage_youtube.sol\":2327:2670  IV3SwapRouter... */\n      0xffffff\n      and\n      dup2\n      mstore\n      0x20\n      add\n        /* \"Arbitrage_youtube.sol\":2539:2543  this */\n      address\n        /* \"Arbitrage_youtube.sol\":2327:2670  IV3SwapRouter... */\n      0xffffffffffffffffffffffffffffffffffffffff\n      and\n      dup2\n      mstore\n      0x20\n      add\n        /* \"Arbitrage_youtube.sol\":2572:2580  amountIn */\n      dup5\n        /* \"Arbitrage_youtube.sol\":2327:2670  IV3SwapRouter... */\n      dup2\n      mstore\n      0x20\n      add\n        /* \"Arbitrage_youtube.sol\":2616:2617  0 */\n      0x00\n        /* \"Arbitrage_youtube.sol\":2327:2670  IV3SwapRouter... */\n      dup2\n      mstore\n      0x20\n      add\n        /* \"Arbitrage_youtube.sol\":2654:2655  0 */\n      0x00\n        /* \"Arbitrage_youtube.sol\":2327:2670  IV3SwapRouter... */\n      0xffffffffffffffffffffffffffffffffffffffff\n      and\n      dup2\n      mstore\n      pop\n        /* \"Arbitrage_youtube.sol\":2274:2670  IV3SwapRouter.ExactInputSingleParams memory params = IV3SwapRouter... */\n      swap1\n      pop\n        /* \"Arbitrage_youtube.sol\":2681:2699  uint256 amountOut1 */\n      0x00\n        /* \"Arbitrage_youtube.sol\":2702:2712  swapRouter */\n      immutable(\"0xcab8721890c4a0282eedf7457a9eef71e0286aef15a4e0cdc4e5d20a5c38ddc9\")\n        /* \"Arbitrage_youtube.sol\":2702:2729  swapRouter.exactInputSingle */\n      0xffffffffffffffffffffffffffffffffffffffff\n      and\n      0x04e45aaf\n        /* \"Arbitrage_youtube.sol\":2730:2736  params */\n      dup4\n        /* \"Arbitrage_youtube.sol\":2702:2737  swapRouter.exactInputSingle(params) */\n      mload(0x40)\n      dup3\n      0xffffffff\n      and\n      0xe0\n      shl\n      dup2\n      mstore\n      0x04\n      add\n      tag_79\n      swap2\n      swap1\n      tag_80\n      jump\t// in\n    tag_79:\n      0x20\n      mload(0x40)\n      dup1\n      dup4\n      sub\n      dup2\n      0x00\n      dup8\n      gas\n      call\n      iszero\n      dup1\n      iszero\n      tag_82\n      jumpi\n      returndatasize\n      0x00\n      dup1\n      returndatacopy\n      revert(0x00, returndatasize)\n    tag_82:\n      pop\n      pop\n      pop\n      pop\n      mload(0x40)\n      returndatasize\n      not(0x1f)\n      0x1f\n      dup3\n      add\n      and\n      dup3\n      add\n      dup1\n      0x40\n      mstore\n      pop\n      dup2\n      add\n      swap1\n      tag_83\n      swap2\n      swap1\n      tag_48\n      jump\t// in\n    tag_83:\n        /* \"Arbitrage_youtube.sol\":2681:2737  uint256 amountOut1 = swapRouter.exactInputSingle(params) */\n      swap1\n      pop\n        /* \"Arbitrage_youtube.sol\":2748:2811  TransferHelper.safeApprove(UETH, address(swapRouter), MAX_UINT) */\n      tag_84\n        /* \"Arbitrage_youtube.sol\":745:787  0xd10A9Ec6E827B13cF399fCC7E6424f233E99562a */\n      0xd10a9ec6e827b13cf399fcc7e6424f233e99562a\n        /* \"Arbitrage_youtube.sol\":2789:2799  swapRouter */\n      immutable(\"0xcab8721890c4a0282eedf7457a9eef71e0286aef15a4e0cdc4e5d20a5c38ddc9\")\n        /* \"Arbitrage_youtube.sol\":521:531  2**256 - 1 */\n      0xffffffffffffffffffffffffffffffffffffffffffffffffffffffffffffffff\n        /* \"Arbitrage_youtube.sol\":2748:2774  TransferHelper.safeApprove */\n      tag_78\n        /* \"Arbitrage_youtube.sol\":2748:2811  TransferHelper.safeApprove(UETH, address(swapRouter), MAX_UINT) */\n      jump\t// in\n    tag_84:\n        /* \"Arbitrage_youtube.sol\":2822:2873  IV3SwapRouter.ExactInputSingleParams memory params2 */\n      0x00\n        /* \"Arbitrage_youtube.sol\":2876:3219  IV3SwapRouter... */\n      mload(0x40)\n      dup1\n      0xe0\n      add\n      0x40\n      mstore\n      dup1\n        /* \"Arbitrage_youtube.sol\":745:787  0xd10A9Ec6E827B13cF399fCC7E6424f233E99562a */\n      0xd10a9ec6e827b13cf399fcc7e6424f233e99562a\n        /* \"Arbitrage_youtube.sol\":2876:3219  IV3SwapRouter... */\n      0xffffffffffffffffffffffffffffffffffffffff\n      and\n      dup2\n      mstore\n      0x20\n      add\n        /* \"Arbitrage_youtube.sol\":666:708  0x64B6f44862E8800EBd63Cd7f1319C8BF0BC1bb99 */\n      0x64b6f44862e8800ebd63cd7f1319c8bf0bc1bb99\n        /* \"Arbitrage_youtube.sol\":2876:3219  IV3SwapRouter... */\n      0xffffffffffffffffffffffffffffffffffffffff\n      and\n      dup2\n      mstore\n      0x20\n      add\n        /* \"Arbitrage_youtube.sol\":3012:3016  3000 */\n      0x0bb8\n        /* \"Arbitrage_youtube.sol\":2876:3219  IV3SwapRouter... */\n      0xffffff\n      and\n      dup2\n      mstore\n      0x20\n      add\n        /* \"Arbitrage_youtube.sol\":3081:3091  msg.sender */\n      caller\n        /* \"Arbitrage_youtube.sol\":2876:3219  IV3SwapRouter... */\n      0xffffffffffffffffffffffffffffffffffffffff\n      and\n      dup2\n      mstore\n      0x20\n      add\n        /* \"Arbitrage_youtube.sol\":3119:3129  amountOut1 */\n      dup4\n        /* \"Arbitrage_youtube.sol\":2876:3219  IV3SwapRouter... */\n      dup2\n      mstore\n      0x20\n      add\n        /* \"Arbitrage_youtube.sol\":3165:3166  0 */\n      0x00\n        /* \"Arbitrage_youtube.sol\":2876:3219  IV3SwapRouter... */\n      dup2\n      mstore\n      0x20\n      add\n        /* \"Arbitrage_youtube.sol\":3203:3204  0 */\n      0x00\n        /* \"Arbitrage_youtube.sol\":2876:3219  IV3SwapRouter... */\n      0xffffffffffffffffffffffffffffffffffffffff\n      and\n      dup2\n      mstore\n      pop\n        /* \"Arbitrage_youtube.sol\":2822:3219  IV3SwapRouter.ExactInputSingleParams memory params2 = IV3SwapRouter... */\n      swap1\n      pop\n        /* \"Arbitrage_youtube.sol\":3242:3252  swapRouter */\n      immutable(\"0xcab8721890c4a0282eedf7457a9eef71e0286aef15a4e0cdc4e5d20a5c38ddc9\")\n        /* \"Arbitrage_youtube.sol\":3242:3269  swapRouter.exactInputSingle */\n      0xffffffffffffffffffffffffffffffffffffffff\n      and\n      0x04e45aaf\n        /* \"Arbitrage_youtube.sol\":3270:3277  params2 */\n      dup3\n        /* \"Arbitrage_youtube.sol\":3242:3278  swapRouter.exactInputSingle(params2) */\n      mload(0x40)\n      dup3\n      0xffffffff\n      and\n      0xe0\n      shl\n      dup2\n      mstore\n      0x04\n      add\n      tag_85\n      swap2\n      swap1\n      tag_80\n      jump\t// in\n    tag_85:\n      0x20\n      mload(0x40)\n      dup1\n      dup4\n      sub\n      dup2\n      0x00\n      dup8\n      gas\n      call\n      iszero\n      dup1\n      iszero\n      tag_87\n      jumpi\n      returndatasize\n      0x00\n      dup1\n      returndatacopy\n      revert(0x00, returndatasize)\n    tag_87:\n      pop\n      pop\n      pop\n      pop\n      mload(0x40)\n      returndatasize\n      not(0x1f)\n      0x1f\n      dup3\n      add\n      and\n      dup3\n      add\n      dup1\n      0x40\n      mstore\n      pop\n      dup2\n      add\n      swap1\n      tag_88\n      swap2\n      swap1\n      tag_48\n      jump\t// in\n    tag_88:\n        /* \"Arbitrage_youtube.sol\":3230:3278  amountOut = swapRouter.exactInputSingle(params2) */\n      swap4\n      pop\n        /* \"Arbitrage_youtube.sol\":3294:3320  ArbitrageResult(amountOut) */\n      0x3bb2ef743367d6bf518e353ce6f97647577a7ba1b971feecabd1bf42be1b55a3\n        /* \"Arbitrage_youtube.sol\":3310:3319  amountOut */\n      dup5\n        /* \"Arbitrage_youtube.sol\":3294:3320  ArbitrageResult(amountOut) */\n      mload(0x40)\n      tag_89\n      swap2\n      swap1\n      tag_38\n      jump\t// in\n    tag_89:\n      mload(0x40)\n      dup1\n      swap2\n      sub\n      swap1\n      log1\n        /* \"Arbitrage_youtube.sol\":3330:3346  return amountOut */\n      pop\n      pop\n      pop\n        /* \"Arbitrage_youtube.sol\":1951:3353  function doArbitrage(uint256 amountIn)... */\n      swap2\n      swap1\n      pop\n      jump\t// out\n        /* \"Arbitrage_youtube.sol\":794:864  IV3SwapRouter public immutable swapRouter = IV3SwapRouter(SWAP_ROUTER) */\n    tag_40:\n      immutable(\"0xcab8721890c4a0282eedf7457a9eef71e0286aef15a4e0cdc4e5d20a5c38ddc9\")\n      dup2\n      jump\t// out\n        /* \"@openzeppelin/contracts/utils/math/SafeMath.sol\":2755:2851  function add(uint256 a, uint256 b) internal pure returns (uint256) {... */\n    tag_68:\n        /* \"@openzeppelin/contracts/utils/math/SafeMath.sol\":2813:2820  uint256 */\n      0x00\n        /* \"@openzeppelin/contracts/utils/math/SafeMath.sol\":2843:2844  b */\n      dup2\n        /* \"@openzeppelin/contracts/utils/math/SafeMath.sol\":2839:2840  a */\n      dup4\n        /* \"@openzeppelin/contracts/utils/math/SafeMath.sol\":2839:2844  a + b */\n      tag_91\n      swap2\n      swap1\n      tag_92\n      jump\t// in\n    tag_91:\n        /* \"@openzeppelin/contracts/utils/math/SafeMath.sol\":2832:2844  return a + b */\n      swap1\n      pop\n        /* \"@openzeppelin/contracts/utils/math/SafeMath.sol\":2755:2851  function add(uint256 a, uint256 b) internal pure returns (uint256) {... */\n      swap3\n      swap2\n      pop\n      pop\n      jump\t// out\n        /* \"@uniswap/lib/contracts/libraries/TransferHelper.sol\":1096:1582  function safeTransferFrom(... */\n    tag_76:\n        /* \"@uniswap/lib/contracts/libraries/TransferHelper.sol\":1314:1326  bool success */\n      0x00\n        /* \"@uniswap/lib/contracts/libraries/TransferHelper.sol\":1328:1345  bytes memory data */\n      dup1\n        /* \"@uniswap/lib/contracts/libraries/TransferHelper.sol\":1349:1354  token */\n      dup6\n        /* \"@uniswap/lib/contracts/libraries/TransferHelper.sol\":1349:1359  token.call */\n      0xffffffffffffffffffffffffffffffffffffffff\n      and\n        /* \"@uniswap/lib/contracts/libraries/TransferHelper.sol\":1383:1393  0x23b872dd */\n      0x23b872dd\n        /* \"@uniswap/lib/contracts/libraries/TransferHelper.sol\":1395:1399  from */\n      dup7\n        /* \"@uniswap/lib/contracts/libraries/TransferHelper.sol\":1401:1403  to */\n      dup7\n        /* \"@uniswap/lib/contracts/libraries/TransferHelper.sol\":1405:1410  value */\n      dup7\n        /* \"@uniswap/lib/contracts/libraries/TransferHelper.sol\":1360:1411  abi.encodeWithSelector(0x23b872dd, from, to, value) */\n      add(0x24, mload(0x40))\n      tag_94\n      swap4\n      swap3\n      swap2\n      swap1\n      tag_95\n      jump\t// in\n    tag_94:\n      mload(0x40)\n      0x20\n      dup2\n      dup4\n      sub\n      sub\n      dup2\n      mstore\n      swap1\n      0x40\n      mstore\n      swap1\n      0xe0\n      shl\n      0x20\n      dup3\n      add\n      dup1\n      mload\n      0xffffffffffffffffffffffffffffffffffffffffffffffffffffffff\n      dup4\n      dup2\n      dup4\n      and\n      or\n      dup4\n      mstore\n      pop\n      pop\n      pop\n      pop\n        /* \"@uniswap/lib/contracts/libraries/TransferHelper.sol\":1349:1412  token.call(abi.encodeWithSelector(0x23b872dd, from, to, value)) */\n      mload(0x40)\n      tag_96\n      swap2\n      swap1\n      tag_97\n      jump\t// in\n    tag_96:\n      0x00\n      mload(0x40)\n      dup1\n      dup4\n      sub\n      dup2\n      0x00\n      dup7\n      gas\n      call\n      swap2\n      pop\n      pop\n      returndatasize\n      dup1\n      0x00\n      dup2\n      eq\n      tag_100\n      jumpi\n      mload(0x40)\n      swap2\n      pop\n      and(add(returndatasize, 0x3f), not(0x1f))\n      dup3\n      add\n      0x40\n      mstore\n      returndatasize\n      dup3\n      mstore\n      returndatasize\n      0x00\n      0x20\n      dup5\n      add\n      returndatacopy\n      jump(tag_99)\n    tag_100:\n      0x60\n      swap2\n      pop\n    tag_99:\n      pop\n        /* \"@uniswap/lib/contracts/libraries/TransferHelper.sol\":1313:1412  (bool success, bytes memory data) = token.call(abi.encodeWithSelector(0x23b872dd, from, to, value)) */\n      swap2\n      pop\n      swap2\n      pop\n        /* \"@uniswap/lib/contracts/libraries/TransferHelper.sol\":1443:1450  success */\n      dup2\n        /* \"@uniswap/lib/contracts/libraries/TransferHelper.sol\":1443:1500  success && (data.length == 0 || abi.decode(data, (bool))) */\n      dup1\n      iszero\n      tag_101\n      jumpi\n      pop\n        /* \"@uniswap/lib/contracts/libraries/TransferHelper.sol\":1470:1471  0 */\n      0x00\n        /* \"@uniswap/lib/contracts/libraries/TransferHelper.sol\":1455:1459  data */\n      dup2\n        /* \"@uniswap/lib/contracts/libraries/TransferHelper.sol\":1455:1466  data.length */\n      mload\n        /* \"@uniswap/lib/contracts/libraries/TransferHelper.sol\":1455:1471  data.length == 0 */\n      eq\n        /* \"@uniswap/lib/contracts/libraries/TransferHelper.sol\":1455:1499  data.length == 0 || abi.decode(data, (bool)) */\n      dup1\n      tag_102\n      jumpi\n      pop\n        /* \"@uniswap/lib/contracts/libraries/TransferHelper.sol\":1486:1490  data */\n      dup1\n        /* \"@uniswap/lib/contracts/libraries/TransferHelper.sol\":1475:1499  abi.decode(data, (bool)) */\n      dup1\n      0x20\n      add\n      swap1\n      mload\n      dup2\n      add\n      swap1\n      tag_103\n      swap2\n      swap1\n      tag_73\n      jump\t// in\n    tag_103:\n        /* \"@uniswap/lib/contracts/libraries/TransferHelper.sol\":1455:1499  data.length == 0 || abi.decode(data, (bool)) */\n    tag_102:\n        /* \"@uniswap/lib/contracts/libraries/TransferHelper.sol\":1443:1500  success && (data.length == 0 || abi.decode(data, (bool))) */\n    tag_101:\n        /* \"@uniswap/lib/contracts/libraries/TransferHelper.sol\":1422:1575  require(... */\n      tag_104\n      jumpi\n      mload(0x40)\n      0x08c379a000000000000000000000000000000000000000000000000000000000\n      dup2\n      mstore\n      0x04\n      add\n      tag_105\n      swap1\n      tag_106\n      jump\t// in\n    tag_105:\n      mload(0x40)\n      dup1\n      swap2\n      sub\n      swap1\n      revert\n    tag_104:\n        /* \"@uniswap/lib/contracts/libraries/TransferHelper.sol\":1225:1582  {... */\n      pop\n      pop\n        /* \"@uniswap/lib/contracts/libraries/TransferHelper.sol\":1096:1582  function safeTransferFrom(... */\n      pop\n      pop\n      pop\n      pop\n      jump\t// out\n        /* \"@uniswap/lib/contracts/libraries/TransferHelper.sol\":212:646  function safeApprove(... */\n    tag_78:\n        /* \"@uniswap/lib/contracts/libraries/TransferHelper.sol\":390:402  bool success */\n      0x00\n        /* \"@uniswap/lib/contracts/libraries/TransferHelper.sol\":404:421  bytes memory data */\n      dup1\n        /* \"@uniswap/lib/contracts/libraries/TransferHelper.sol\":425:430  token */\n      dup5\n        /* \"@uniswap/lib/contracts/libraries/TransferHelper.sol\":425:435  token.call */\n      0xffffffffffffffffffffffffffffffffffffffff\n      and\n        /* \"@uniswap/lib/contracts/libraries/TransferHelper.sol\":459:469  0x095ea7b3 */\n      0x095ea7b3\n        /* \"@uniswap/lib/contracts/libraries/TransferHelper.sol\":471:473  to */\n      dup6\n        /* \"@uniswap/lib/contracts/libraries/TransferHelper.sol\":475:480  value */\n      dup6\n        /* \"@uniswap/lib/contracts/libraries/TransferHelper.sol\":436:481  abi.encodeWithSelector(0x095ea7b3, to, value) */\n      add(0x24, mload(0x40))\n      tag_108\n      swap3\n      swap2\n      swap1\n      tag_50\n      jump\t// in\n    tag_108:\n      mload(0x40)\n      0x20\n      dup2\n      dup4\n      sub\n      sub\n      dup2\n      mstore\n      swap1\n      0x40\n      mstore\n      swap1\n      0xe0\n      shl\n      0x20\n      dup3\n      add\n      dup1\n      mload\n      0xffffffffffffffffffffffffffffffffffffffffffffffffffffffff\n      dup4\n      dup2\n      dup4\n      and\n      or\n      dup4\n      mstore\n      pop\n      pop\n      pop\n      pop\n        /* \"@uniswap/lib/contracts/libraries/TransferHelper.sol\":425:482  token.call(abi.encodeWithSelector(0x095ea7b3, to, value)) */\n      mload(0x40)\n      tag_109\n      swap2\n      swap1\n      tag_97\n      jump\t// in\n    tag_109:\n      0x00\n      mload(0x40)\n      dup1\n      dup4\n      sub\n      dup2\n      0x00\n      dup7\n      gas\n      call\n      swap2\n      pop\n      pop\n      returndatasize\n      dup1\n      0x00\n      dup2\n      eq\n      tag_112\n      jumpi\n      mload(0x40)\n      swap2\n      pop\n      and(add(returndatasize, 0x3f), not(0x1f))\n      dup3\n      add\n      0x40\n      mstore\n      returndatasize\n      dup3\n      mstore\n      returndatasize\n      0x00\n      0x20\n      dup5\n      add\n      returndatacopy\n      jump(tag_111)\n    tag_112:\n      0x60\n      swap2\n      pop\n    tag_111:\n      pop\n        /* \"@uniswap/lib/contracts/libraries/TransferHelper.sol\":389:482  (bool success, bytes memory data) = token.call(abi.encodeWithSelector(0x095ea7b3, to, value)) */\n      swap2\n      pop\n      swap2\n      pop\n        /* \"@uniswap/lib/contracts/libraries/TransferHelper.sol\":513:520  success */\n      dup2\n        /* \"@uniswap/lib/contracts/libraries/TransferHelper.sol\":513:570  success && (data.length == 0 || abi.decode(data, (bool))) */\n      dup1\n      iszero\n      tag_113\n      jumpi\n      pop\n        /* \"@uniswap/lib/contracts/libraries/TransferHelper.sol\":540:541  0 */\n      0x00\n        /* \"@uniswap/lib/contracts/libraries/TransferHelper.sol\":525:529  data */\n      dup2\n        /* \"@uniswap/lib/contracts/libraries/TransferHelper.sol\":525:536  data.length */\n      mload\n        /* \"@uniswap/lib/contracts/libraries/TransferHelper.sol\":525:541  data.length == 0 */\n      eq\n        /* \"@uniswap/lib/contracts/libraries/TransferHelper.sol\":525:569  data.length == 0 || abi.decode(data, (bool)) */\n      dup1\n      tag_114\n      jumpi\n      pop\n        /* \"@uniswap/lib/contracts/libraries/TransferHelper.sol\":556:560  data */\n      dup1\n        /* \"@uniswap/lib/contracts/libraries/TransferHelper.sol\":545:569  abi.decode(data, (bool)) */\n      dup1\n      0x20\n      add\n      swap1\n      mload\n      dup2\n      add\n      swap1\n      tag_115\n      swap2\n      swap1\n      tag_73\n      jump\t// in\n    tag_115:\n        /* \"@uniswap/lib/contracts/libraries/TransferHelper.sol\":525:569  data.length == 0 || abi.decode(data, (bool)) */\n    tag_114:\n        /* \"@uniswap/lib/contracts/libraries/TransferHelper.sol\":513:570  success && (data.length == 0 || abi.decode(data, (bool))) */\n    tag_113:\n        /* \"@uniswap/lib/contracts/libraries/TransferHelper.sol\":492:639  require(... */\n      tag_116\n      jumpi\n      mload(0x40)\n      0x08c379a000000000000000000000000000000000000000000000000000000000\n      dup2\n      mstore\n      0x04\n      add\n      tag_117\n      swap1\n      tag_118\n      jump\t// in\n    tag_117:\n      mload(0x40)\n      dup1\n      swap2\n      sub\n      swap1\n      revert\n    tag_116:\n        /* \"@uniswap/lib/contracts/libraries/TransferHelper.sol\":314:646  {... */\n      pop\n      pop\n        /* \"@uniswap/lib/contracts/libraries/TransferHelper.sol\":212:646  function safeApprove(... */\n      pop\n      pop\n      pop\n      jump\t// out\n        /* \"#utility.yul\":7:133   */\n    tag_119:\n        /* \"#utility.yul\":44:51   */\n      0x00\n        /* \"#utility.yul\":84:126   */\n      0xffffffffffffffffffffffffffffffffffffffff\n        /* \"#utility.yul\":77:82   */\n      dup3\n        /* \"#utility.yul\":73:127   */\n      and\n        /* \"#utility.yul\":62:127   */\n      swap1\n      pop\n        /* \"#utility.yul\":7:133   */\n      swap2\n      swap1\n      pop\n      jump\t// out\n        /* \"#utility.yul\":139:199   */\n    tag_120:\n        /* \"#utility.yul\":167:170   */\n      0x00\n        /* \"#utility.yul\":188:193   */\n      dup2\n        /* \"#utility.yul\":181:193   */\n      swap1\n      pop\n        /* \"#utility.yul\":139:199   */\n      swap2\n      swap1\n      pop\n      jump\t// out\n        /* \"#utility.yul\":205:347   */\n    tag_121:\n        /* \"#utility.yul\":255:264   */\n      0x00\n        /* \"#utility.yul\":288:341   */\n      tag_177\n        /* \"#utility.yul\":306:340   */\n      tag_178\n        /* \"#utility.yul\":315:339   */\n      tag_179\n        /* \"#utility.yul\":333:338   */\n      dup5\n        /* \"#utility.yul\":315:339   */\n      tag_119\n      jump\t// in\n    tag_179:\n        /* \"#utility.yul\":306:340   */\n      tag_120\n      jump\t// in\n    tag_178:\n        /* \"#utility.yul\":288:341   */\n      tag_119\n      jump\t// in\n    tag_177:\n        /* \"#utility.yul\":275:341   */\n      swap1\n      pop\n        /* \"#utility.yul\":205:347   */\n      swap2\n      swap1\n      pop\n      jump\t// out\n        /* \"#utility.yul\":353:479   */\n    tag_122:\n        /* \"#utility.yul\":403:412   */\n      0x00\n        /* \"#utility.yul\":436:473   */\n      tag_181\n        /* \"#utility.yul\":467:472   */\n      dup3\n        /* \"#utility.yul\":436:473   */\n      tag_121\n      jump\t// in\n    tag_181:\n        /* \"#utility.yul\":423:473   */\n      swap1\n      pop\n        /* \"#utility.yul\":353:479   */\n      swap2\n      swap1\n      pop\n      jump\t// out\n        /* \"#utility.yul\":485:642   */\n    tag_123:\n        /* \"#utility.yul\":566:575   */\n      0x00\n        /* \"#utility.yul\":599:636   */\n      tag_183\n        /* \"#utility.yul\":630:635   */\n      dup3\n        /* \"#utility.yul\":599:636   */\n      tag_122\n      jump\t// in\n    tag_183:\n        /* \"#utility.yul\":586:636   */\n      swap1\n      pop\n        /* \"#utility.yul\":485:642   */\n      swap2\n      swap1\n      pop\n      jump\t// out\n        /* \"#utility.yul\":648:841   */\n    tag_124:\n        /* \"#utility.yul\":766:834   */\n      tag_185\n        /* \"#utility.yul\":828:833   */\n      dup2\n        /* \"#utility.yul\":766:834   */\n      tag_123\n      jump\t// in\n    tag_185:\n        /* \"#utility.yul\":761:764   */\n      dup3\n        /* \"#utility.yul\":754:835   */\n      mstore\n        /* \"#utility.yul\":648:841   */\n      pop\n      pop\n      jump\t// out\n        /* \"#utility.yul\":847:1131   */\n    tag_14:\n        /* \"#utility.yul\":971:975   */\n      0x00\n        /* \"#utility.yul\":1009:1011   */\n      0x20\n        /* \"#utility.yul\":998:1007   */\n      dup3\n        /* \"#utility.yul\":994:1012   */\n      add\n        /* \"#utility.yul\":986:1012   */\n      swap1\n      pop\n        /* \"#utility.yul\":1022:1124   */\n      tag_187\n        /* \"#utility.yul\":1121:1122   */\n      0x00\n        /* \"#utility.yul\":1110:1119   */\n      dup4\n        /* \"#utility.yul\":1106:1123   */\n      add\n        /* \"#utility.yul\":1097:1103   */\n      dup5\n        /* \"#utility.yul\":1022:1124   */\n      tag_124\n      jump\t// in\n    tag_187:\n        /* \"#utility.yul\":847:1131   */\n      swap3\n      swap2\n      pop\n      pop\n      jump\t// out\n        /* \"#utility.yul\":1218:1335   */\n    tag_126:\n        /* \"#utility.yul\":1327:1328   */\n      0x00\n        /* \"#utility.yul\":1324:1325   */\n      dup1\n        /* \"#utility.yul\":1317:1329   */\n      revert\n        /* \"#utility.yul\":1341:1458   */\n    tag_127:\n        /* \"#utility.yul\":1450:1451   */\n      0x00\n        /* \"#utility.yul\":1447:1448   */\n      dup1\n        /* \"#utility.yul\":1440:1452   */\n      revert\n        /* \"#utility.yul\":1464:1560   */\n    tag_128:\n        /* \"#utility.yul\":1501:1508   */\n      0x00\n        /* \"#utility.yul\":1530:1554   */\n      tag_192\n        /* \"#utility.yul\":1548:1553   */\n      dup3\n        /* \"#utility.yul\":1530:1554   */\n      tag_119\n      jump\t// in\n    tag_192:\n        /* \"#utility.yul\":1519:1554   */\n      swap1\n      pop\n        /* \"#utility.yul\":1464:1560   */\n      swap2\n      swap1\n      pop\n      jump\t// out\n        /* \"#utility.yul\":1566:1688   */\n    tag_129:\n        /* \"#utility.yul\":1639:1663   */\n      tag_194\n        /* \"#utility.yul\":1657:1662   */\n      dup2\n        /* \"#utility.yul\":1639:1663   */\n      tag_128\n      jump\t// in\n    tag_194:\n        /* \"#utility.yul\":1632:1637   */\n      dup2\n        /* \"#utility.yul\":1629:1664   */\n      eq\n        /* \"#utility.yul\":1619:1682   */\n      tag_195\n      jumpi\n        /* \"#utility.yul\":1678:1679   */\n      0x00\n        /* \"#utility.yul\":1675:1676   */\n      dup1\n        /* \"#utility.yul\":1668:1680   */\n      revert\n        /* \"#utility.yul\":1619:1682   */\n    tag_195:\n        /* \"#utility.yul\":1566:1688   */\n      pop\n      jump\t// out\n        /* \"#utility.yul\":1694:1833   */\n    tag_130:\n        /* \"#utility.yul\":1740:1745   */\n      0x00\n        /* \"#utility.yul\":1778:1784   */\n      dup2\n        /* \"#utility.yul\":1765:1785   */\n      calldataload\n        /* \"#utility.yul\":1756:1785   */\n      swap1\n      pop\n        /* \"#utility.yul\":1794:1827   */\n      tag_197\n        /* \"#utility.yul\":1821:1826   */\n      dup2\n        /* \"#utility.yul\":1794:1827   */\n      tag_129\n      jump\t// in\n    tag_197:\n        /* \"#utility.yul\":1694:1833   */\n      swap3\n      swap2\n      pop\n      pop\n      jump\t// out\n        /* \"#utility.yul\":1839:1916   */\n    tag_131:\n        /* \"#utility.yul\":1876:1883   */\n      0x00\n        /* \"#utility.yul\":1905:1910   */\n      dup2\n        /* \"#utility.yul\":1894:1910   */\n      swap1\n      pop\n        /* \"#utility.yul\":1839:1916   */\n      swap2\n      swap1\n      pop\n      jump\t// out\n        /* \"#utility.yul\":1922:2044   */\n    tag_132:\n        /* \"#utility.yul\":1995:2019   */\n      tag_200\n        /* \"#utility.yul\":2013:2018   */\n      dup2\n        /* \"#utility.yul\":1995:2019   */\n      tag_131\n      jump\t// in\n    tag_200:\n        /* \"#utility.yul\":1988:1993   */\n      dup2\n        /* \"#utility.yul\":1985:2020   */\n      eq\n        /* \"#utility.yul\":1975:2038   */\n      tag_201\n      jumpi\n        /* \"#utility.yul\":2034:2035   */\n      0x00\n        /* \"#utility.yul\":2031:2032   */\n      dup1\n        /* \"#utility.yul\":2024:2036   */\n      revert\n        /* \"#utility.yul\":1975:2038   */\n    tag_201:\n        /* \"#utility.yul\":1922:2044   */\n      pop\n      jump\t// out\n        /* \"#utility.yul\":2050:2189   */\n    tag_133:\n        /* \"#utility.yul\":2096:2101   */\n      0x00\n        /* \"#utility.yul\":2134:2140   */\n      dup2\n        /* \"#utility.yul\":2121:2141   */\n      calldataload\n        /* \"#utility.yul\":2112:2141   */\n      swap1\n      pop\n        /* \"#utility.yul\":2150:2183   */\n      tag_203\n        /* \"#utility.yul\":2177:2182   */\n      dup2\n        /* \"#utility.yul\":2150:2183   */\n      tag_132\n      jump\t// in\n    tag_203:\n        /* \"#utility.yul\":2050:2189   */\n      swap3\n      swap2\n      pop\n      pop\n      jump\t// out\n        /* \"#utility.yul\":2195:2669   */\n    tag_17:\n        /* \"#utility.yul\":2263:2269   */\n      0x00\n        /* \"#utility.yul\":2271:2277   */\n      dup1\n        /* \"#utility.yul\":2320:2322   */\n      0x40\n        /* \"#utility.yul\":2308:2317   */\n      dup4\n        /* \"#utility.yul\":2299:2306   */\n      dup6\n        /* \"#utility.yul\":2295:2318   */\n      sub\n        /* \"#utility.yul\":2291:2323   */\n      slt\n        /* \"#utility.yul\":2288:2407   */\n      iszero\n      tag_205\n      jumpi\n        /* \"#utility.yul\":2326:2405   */\n      tag_206\n      tag_126\n      jump\t// in\n    tag_206:\n        /* \"#utility.yul\":2288:2407   */\n    tag_205:\n        /* \"#utility.yul\":2446:2447   */\n      0x00\n        /* \"#utility.yul\":2471:2524   */\n      tag_207\n        /* \"#utility.yul\":2516:2523   */\n      dup6\n        /* \"#utility.yul\":2507:2513   */\n      dup3\n        /* \"#utility.yul\":2496:2505   */\n      dup7\n        /* \"#utility.yul\":2492:2514   */\n      add\n        /* \"#utility.yul\":2471:2524   */\n      tag_130\n      jump\t// in\n    tag_207:\n        /* \"#utility.yul\":2461:2524   */\n      swap3\n      pop\n        /* \"#utility.yul\":2417:2534   */\n      pop\n        /* \"#utility.yul\":2573:2575   */\n      0x20\n        /* \"#utility.yul\":2599:2652   */\n      tag_208\n        /* \"#utility.yul\":2644:2651   */\n      dup6\n        /* \"#utility.yul\":2635:2641   */\n      dup3\n        /* \"#utility.yul\":2624:2633   */\n      dup7\n        /* \"#utility.yul\":2620:2642   */\n      add\n        /* \"#utility.yul\":2599:2652   */\n      tag_133\n      jump\t// in\n    tag_208:\n        /* \"#utility.yul\":2589:2652   */\n      swap2\n      pop\n        /* \"#utility.yul\":2544:2662   */\n      pop\n        /* \"#utility.yul\":2195:2669   */\n      swap3\n      pop\n      swap3\n      swap1\n      pop\n      jump\t// out\n        /* \"#utility.yul\":2675:2792   */\n    tag_134:\n        /* \"#utility.yul\":2784:2785   */\n      0x00\n        /* \"#utility.yul\":2781:2782   */\n      dup1\n        /* \"#utility.yul\":2774:2786   */\n      revert\n        /* \"#utility.yul\":2798:2915   */\n    tag_135:\n        /* \"#utility.yul\":2907:2908   */\n      0x00\n        /* \"#utility.yul\":2904:2905   */\n      dup1\n        /* \"#utility.yul\":2897:2909   */\n      revert\n        /* \"#utility.yul\":2921:3038   */\n    tag_136:\n        /* \"#utility.yul\":3030:3031   */\n      0x00\n        /* \"#utility.yul\":3027:3028   */\n      dup1\n        /* \"#utility.yul\":3020:3032   */\n      revert\n        /* \"#utility.yul\":3057:3609   */\n    tag_137:\n        /* \"#utility.yul\":3114:3122   */\n      0x00\n        /* \"#utility.yul\":3124:3130   */\n      dup1\n        /* \"#utility.yul\":3174:3177   */\n      dup4\n        /* \"#utility.yul\":3167:3171   */\n      0x1f\n        /* \"#utility.yul\":3159:3165   */\n      dup5\n        /* \"#utility.yul\":3155:3172   */\n      add\n        /* \"#utility.yul\":3151:3178   */\n      slt\n        /* \"#utility.yul\":3141:3263   */\n      tag_213\n      jumpi\n        /* \"#utility.yul\":3182:3261   */\n      tag_214\n      tag_134\n      jump\t// in\n    tag_214:\n        /* \"#utility.yul\":3141:3263   */\n    tag_213:\n        /* \"#utility.yul\":3295:3301   */\n      dup3\n        /* \"#utility.yul\":3282:3302   */\n      calldataload\n        /* \"#utility.yul\":3272:3302   */\n      swap1\n      pop\n        /* \"#utility.yul\":3325:3343   */\n      0xffffffffffffffff\n        /* \"#utility.yul\":3317:3323   */\n      dup2\n        /* \"#utility.yul\":3314:3344   */\n      gt\n        /* \"#utility.yul\":3311:3428   */\n      iszero\n      tag_215\n      jumpi\n        /* \"#utility.yul\":3347:3426   */\n      tag_216\n      tag_135\n      jump\t// in\n    tag_216:\n        /* \"#utility.yul\":3311:3428   */\n    tag_215:\n        /* \"#utility.yul\":3461:3465   */\n      0x20\n        /* \"#utility.yul\":3453:3459   */\n      dup4\n        /* \"#utility.yul\":3449:3466   */\n      add\n        /* \"#utility.yul\":3437:3466   */\n      swap2\n      pop\n        /* \"#utility.yul\":3515:3518   */\n      dup4\n        /* \"#utility.yul\":3507:3511   */\n      0x01\n        /* \"#utility.yul\":3499:3505   */\n      dup3\n        /* \"#utility.yul\":3495:3512   */\n      mul\n        /* \"#utility.yul\":3485:3493   */\n      dup4\n        /* \"#utility.yul\":3481:3513   */\n      add\n        /* \"#utility.yul\":3478:3519   */\n      gt\n        /* \"#utility.yul\":3475:3603   */\n      iszero\n      tag_217\n      jumpi\n        /* \"#utility.yul\":3522:3601   */\n      tag_218\n      tag_136\n      jump\t// in\n    tag_218:\n        /* \"#utility.yul\":3475:3603   */\n    tag_217:\n        /* \"#utility.yul\":3057:3609   */\n      swap3\n      pop\n      swap3\n      swap1\n      pop\n      jump\t// out\n        /* \"#utility.yul\":3615:4724   */\n    tag_21:\n        /* \"#utility.yul\":3721:3727   */\n      0x00\n        /* \"#utility.yul\":3729:3735   */\n      dup1\n        /* \"#utility.yul\":3737:3743   */\n      0x00\n        /* \"#utility.yul\":3745:3751   */\n      dup1\n        /* \"#utility.yul\":3753:3759   */\n      0x00\n        /* \"#utility.yul\":3761:3767   */\n      dup1\n        /* \"#utility.yul\":3810:3813   */\n      0xa0\n        /* \"#utility.yul\":3798:3807   */\n      dup8\n        /* \"#utility.yul\":3789:3796   */\n      dup10\n        /* \"#utility.yul\":3785:3808   */\n      sub\n        /* \"#utility.yul\":3781:3814   */\n      slt\n        /* \"#utility.yul\":3778:3898   */\n      iszero\n      tag_220\n      jumpi\n        /* \"#utility.yul\":3817:3896   */\n      tag_221\n      tag_126\n      jump\t// in\n    tag_221:\n        /* \"#utility.yul\":3778:3898   */\n    tag_220:\n        /* \"#utility.yul\":3937:3938   */\n      0x00\n        /* \"#utility.yul\":3962:4015   */\n      tag_222\n        /* \"#utility.yul\":4007:4014   */\n      dup10\n        /* \"#utility.yul\":3998:4004   */\n      dup3\n        /* \"#utility.yul\":3987:3996   */\n      dup11\n        /* \"#utility.yul\":3983:4005   */\n      add\n        /* \"#utility.yul\":3962:4015   */\n      tag_130\n      jump\t// in\n    tag_222:\n        /* \"#utility.yul\":3952:4015   */\n      swap7\n      pop\n        /* \"#utility.yul\":3908:4025   */\n      pop\n        /* \"#utility.yul\":4064:4066   */\n      0x20\n        /* \"#utility.yul\":4090:4143   */\n      tag_223\n        /* \"#utility.yul\":4135:4142   */\n      dup10\n        /* \"#utility.yul\":4126:4132   */\n      dup3\n        /* \"#utility.yul\":4115:4124   */\n      dup11\n        /* \"#utility.yul\":4111:4133   */\n      add\n        /* \"#utility.yul\":4090:4143   */\n      tag_133\n      jump\t// in\n    tag_223:\n        /* \"#utility.yul\":4080:4143   */\n      swap6\n      pop\n        /* \"#utility.yul\":4035:4153   */\n      pop\n        /* \"#utility.yul\":4192:4194   */\n      0x40\n        /* \"#utility.yul\":4218:4271   */\n      tag_224\n        /* \"#utility.yul\":4263:4270   */\n      dup10\n        /* \"#utility.yul\":4254:4260   */\n      dup3\n        /* \"#utility.yul\":4243:4252   */\n      dup11\n        /* \"#utility.yul\":4239:4261   */\n      add\n        /* \"#utility.yul\":4218:4271   */\n      tag_133\n      jump\t// in\n    tag_224:\n        /* \"#utility.yul\":4208:4271   */\n      swap5\n      pop\n        /* \"#utility.yul\":4163:4281   */\n      pop\n        /* \"#utility.yul\":4320:4322   */\n      0x60\n        /* \"#utility.yul\":4346:4399   */\n      tag_225\n        /* \"#utility.yul\":4391:4398   */\n      dup10\n        /* \"#utility.yul\":4382:4388   */\n      dup3\n        /* \"#utility.yul\":4371:4380   */\n      dup11\n        /* \"#utility.yul\":4367:4389   */\n      add\n        /* \"#utility.yul\":4346:4399   */\n      tag_130\n      jump\t// in\n    tag_225:\n        /* \"#utility.yul\":4336:4399   */\n      swap4\n      pop\n        /* \"#utility.yul\":4291:4409   */\n      pop\n        /* \"#utility.yul\":4476:4479   */\n      0x80\n        /* \"#utility.yul\":4465:4474   */\n      dup8\n        /* \"#utility.yul\":4461:4480   */\n      add\n        /* \"#utility.yul\":4448:4481   */\n      calldataload\n        /* \"#utility.yul\":4508:4526   */\n      0xffffffffffffffff\n        /* \"#utility.yul\":4500:4506   */\n      dup2\n        /* \"#utility.yul\":4497:4527   */\n      gt\n        /* \"#utility.yul\":4494:4611   */\n      iszero\n      tag_226\n      jumpi\n        /* \"#utility.yul\":4530:4609   */\n      tag_227\n      tag_127\n      jump\t// in\n    tag_227:\n        /* \"#utility.yul\":4494:4611   */\n    tag_226:\n        /* \"#utility.yul\":4643:4707   */\n      tag_228\n        /* \"#utility.yul\":4699:4706   */\n      dup10\n        /* \"#utility.yul\":4690:4696   */\n      dup3\n        /* \"#utility.yul\":4679:4688   */\n      dup11\n        /* \"#utility.yul\":4675:4697   */\n      add\n        /* \"#utility.yul\":4643:4707   */\n      tag_137\n      jump\t// in\n    tag_228:\n        /* \"#utility.yul\":4625:4707   */\n      swap3\n      pop\n      swap3\n      pop\n        /* \"#utility.yul\":4419:4717   */\n      pop\n        /* \"#utility.yul\":3615:4724   */\n      swap3\n      swap6\n      pop\n      swap3\n      swap6\n      pop\n      swap3\n      swap6\n      jump\t// out\n        /* \"#utility.yul\":4730:4820   */\n    tag_138:\n        /* \"#utility.yul\":4764:4771   */\n      0x00\n        /* \"#utility.yul\":4807:4812   */\n      dup2\n        /* \"#utility.yul\":4800:4813   */\n      iszero\n        /* \"#utility.yul\":4793:4814   */\n      iszero\n        /* \"#utility.yul\":4782:4814   */\n      swap1\n      pop\n        /* \"#utility.yul\":4730:4820   */\n      swap2\n      swap1\n      pop\n      jump\t// out\n        /* \"#utility.yul\":4826:4935   */\n    tag_139:\n        /* \"#utility.yul\":4907:4928   */\n      tag_231\n        /* \"#utility.yul\":4922:4927   */\n      dup2\n        /* \"#utility.yul\":4907:4928   */\n      tag_138\n      jump\t// in\n    tag_231:\n        /* \"#utility.yul\":4902:4905   */\n      dup3\n        /* \"#utility.yul\":4895:4929   */\n      mstore\n        /* \"#utility.yul\":4826:4935   */\n      pop\n      pop\n      jump\t// out\n        /* \"#utility.yul\":4941:5151   */\n    tag_24:\n        /* \"#utility.yul\":5028:5032   */\n      0x00\n        /* \"#utility.yul\":5066:5068   */\n      0x20\n        /* \"#utility.yul\":5055:5064   */\n      dup3\n        /* \"#utility.yul\":5051:5069   */\n      add\n        /* \"#utility.yul\":5043:5069   */\n      swap1\n      pop\n        /* \"#utility.yul\":5079:5144   */\n      tag_233\n        /* \"#utility.yul\":5141:5142   */\n      0x00\n        /* \"#utility.yul\":5130:5139   */\n      dup4\n        /* \"#utility.yul\":5126:5143   */\n      add\n        /* \"#utility.yul\":5117:5123   */\n      dup5\n        /* \"#utility.yul\":5079:5144   */\n      tag_139\n      jump\t// in\n    tag_233:\n        /* \"#utility.yul\":4941:5151   */\n      swap3\n      swap2\n      pop\n      pop\n      jump\t// out\n        /* \"#utility.yul\":5157:5297   */\n    tag_140:\n        /* \"#utility.yul\":5221:5230   */\n      0x00\n        /* \"#utility.yul\":5254:5291   */\n      tag_235\n        /* \"#utility.yul\":5285:5290   */\n      dup3\n        /* \"#utility.yul\":5254:5291   */\n      tag_122\n      jump\t// in\n    tag_235:\n        /* \"#utility.yul\":5241:5291   */\n      swap1\n      pop\n        /* \"#utility.yul\":5157:5297   */\n      swap2\n      swap1\n      pop\n      jump\t// out\n        /* \"#utility.yul\":5303:5462   */\n    tag_141:\n        /* \"#utility.yul\":5404:5455   */\n      tag_237\n        /* \"#utility.yul\":5449:5454   */\n      dup2\n        /* \"#utility.yul\":5404:5455   */\n      tag_140\n      jump\t// in\n    tag_237:\n        /* \"#utility.yul\":5399:5402   */\n      dup3\n        /* \"#utility.yul\":5392:5456   */\n      mstore\n        /* \"#utility.yul\":5303:5462   */\n      pop\n      pop\n      jump\t// out\n        /* \"#utility.yul\":5468:5718   */\n    tag_28:\n        /* \"#utility.yul\":5575:5579   */\n      0x00\n        /* \"#utility.yul\":5613:5615   */\n      0x20\n        /* \"#utility.yul\":5602:5611   */\n      dup3\n        /* \"#utility.yul\":5598:5616   */\n      add\n        /* \"#utility.yul\":5590:5616   */\n      swap1\n      pop\n        /* \"#utility.yul\":5626:5711   */\n      tag_239\n        /* \"#utility.yul\":5708:5709   */\n      0x00\n        /* \"#utility.yul\":5697:5706   */\n      dup4\n        /* \"#utility.yul\":5693:5710   */\n      add\n        /* \"#utility.yul\":5684:5690   */\n      dup5\n        /* \"#utility.yul\":5626:5711   */\n      tag_141\n      jump\t// in\n    tag_239:\n        /* \"#utility.yul\":5468:5718   */\n      swap3\n      swap2\n      pop\n      pop\n      jump\t// out\n        /* \"#utility.yul\":5724:5842   */\n    tag_142:\n        /* \"#utility.yul\":5811:5835   */\n      tag_241\n        /* \"#utility.yul\":5829:5834   */\n      dup2\n        /* \"#utility.yul\":5811:5835   */\n      tag_128\n      jump\t// in\n    tag_241:\n        /* \"#utility.yul\":5806:5809   */\n      dup3\n        /* \"#utility.yul\":5799:5836   */\n      mstore\n        /* \"#utility.yul\":5724:5842   */\n      pop\n      pop\n      jump\t// out\n        /* \"#utility.yul\":5848:6070   */\n    tag_32:\n        /* \"#utility.yul\":5941:5945   */\n      0x00\n        /* \"#utility.yul\":5979:5981   */\n      0x20\n        /* \"#utility.yul\":5968:5977   */\n      dup3\n        /* \"#utility.yul\":5964:5982   */\n      add\n        /* \"#utility.yul\":5956:5982   */\n      swap1\n      pop\n        /* \"#utility.yul\":5992:6063   */\n      tag_243\n        /* \"#utility.yul\":6060:6061   */\n      0x00\n        /* \"#utility.yul\":6049:6058   */\n      dup4\n        /* \"#utility.yul\":6045:6062   */\n      add\n        /* \"#utility.yul\":6036:6042   */\n      dup5\n        /* \"#utility.yul\":5992:6063   */\n      tag_142\n      jump\t// in\n    tag_243:\n        /* \"#utility.yul\":5848:6070   */\n      swap3\n      swap2\n      pop\n      pop\n      jump\t// out\n        /* \"#utility.yul\":6076:6405   */\n    tag_35:\n        /* \"#utility.yul\":6135:6141   */\n      0x00\n        /* \"#utility.yul\":6184:6186   */\n      0x20\n        /* \"#utility.yul\":6172:6181   */\n      dup3\n        /* \"#utility.yul\":6163:6170   */\n      dup5\n        /* \"#utility.yul\":6159:6182   */\n      sub\n        /* \"#utility.yul\":6155:6187   */\n      slt\n        /* \"#utility.yul\":6152:6271   */\n      iszero\n      tag_245\n      jumpi\n        /* \"#utility.yul\":6190:6269   */\n      tag_246\n      tag_126\n      jump\t// in\n    tag_246:\n        /* \"#utility.yul\":6152:6271   */\n    tag_245:\n        /* \"#utility.yul\":6310:6311   */\n      0x00\n        /* \"#utility.yul\":6335:6388   */\n      tag_247\n        /* \"#utility.yul\":6380:6387   */\n      dup5\n        /* \"#utility.yul\":6371:6377   */\n      dup3\n        /* \"#utility.yul\":6360:6369   */\n      dup6\n        /* \"#utility.yul\":6356:6378   */\n      add\n        /* \"#utility.yul\":6335:6388   */\n      tag_133\n      jump\t// in\n    tag_247:\n        /* \"#utility.yul\":6325:6388   */\n      swap2\n      pop\n        /* \"#utility.yul\":6281:6398   */\n      pop\n        /* \"#utility.yul\":6076:6405   */\n      swap3\n      swap2\n      pop\n      pop\n      jump\t// out\n        /* \"#utility.yul\":6411:6529   */\n    tag_143:\n        /* \"#utility.yul\":6498:6522   */\n      tag_249\n        /* \"#utility.yul\":6516:6521   */\n      dup2\n        /* \"#utility.yul\":6498:6522   */\n      tag_131\n      jump\t// in\n    tag_249:\n        /* \"#utility.yul\":6493:6496   */\n      dup3\n        /* \"#utility.yul\":6486:6523   */\n      mstore\n        /* \"#utility.yul\":6411:6529   */\n      pop\n      pop\n      jump\t// out\n        /* \"#utility.yul\":6535:6757   */\n    tag_38:\n        /* \"#utility.yul\":6628:6632   */\n      0x00\n        /* \"#utility.yul\":6666:6668   */\n      0x20\n        /* \"#utility.yul\":6655:6664   */\n      dup3\n        /* \"#utility.yul\":6651:6669   */\n      add\n        /* \"#utility.yul\":6643:6669   */\n      swap1\n      pop\n        /* \"#utility.yul\":6679:6750   */\n      tag_251\n        /* \"#utility.yul\":6747:6748   */\n      0x00\n        /* \"#utility.yul\":6736:6745   */\n      dup4\n        /* \"#utility.yul\":6732:6749   */\n      add\n        /* \"#utility.yul\":6723:6729   */\n      dup5\n        /* \"#utility.yul\":6679:6750   */\n      tag_143\n      jump\t// in\n    tag_251:\n        /* \"#utility.yul\":6535:6757   */\n      swap3\n      swap2\n      pop\n      pop\n      jump\t// out\n        /* \"#utility.yul\":6763:6910   */\n    tag_144:\n        /* \"#utility.yul\":6834:6843   */\n      0x00\n        /* \"#utility.yul\":6867:6904   */\n      tag_253\n        /* \"#utility.yul\":6898:6903   */\n      dup3\n        /* \"#utility.yul\":6867:6904   */\n      tag_122\n      jump\t// in\n    tag_253:\n        /* \"#utility.yul\":6854:6904   */\n      swap1\n      pop\n        /* \"#utility.yul\":6763:6910   */\n      swap2\n      swap1\n      pop\n      jump\t// out\n        /* \"#utility.yul\":6916:7089   */\n    tag_145:\n        /* \"#utility.yul\":7024:7082   */\n      tag_255\n        /* \"#utility.yul\":7076:7081   */\n      dup2\n        /* \"#utility.yul\":7024:7082   */\n      tag_144\n      jump\t// in\n    tag_255:\n        /* \"#utility.yul\":7019:7022   */\n      dup3\n        /* \"#utility.yul\":7012:7083   */\n      mstore\n        /* \"#utility.yul\":6916:7089   */\n      pop\n      pop\n      jump\t// out\n        /* \"#utility.yul\":7095:7359   */\n    tag_42:\n        /* \"#utility.yul\":7209:7213   */\n      0x00\n        /* \"#utility.yul\":7247:7249   */\n      0x20\n        /* \"#utility.yul\":7236:7245   */\n      dup3\n        /* \"#utility.yul\":7232:7250   */\n      add\n        /* \"#utility.yul\":7224:7250   */\n      swap1\n      pop\n        /* \"#utility.yul\":7260:7352   */\n      tag_257\n        /* \"#utility.yul\":7349:7350   */\n      0x00\n        /* \"#utility.yul\":7338:7347   */\n      dup4\n        /* \"#utility.yul\":7334:7351   */\n      add\n        /* \"#utility.yul\":7325:7331   */\n      dup5\n        /* \"#utility.yul\":7260:7352   */\n      tag_145\n      jump\t// in\n    tag_257:\n        /* \"#utility.yul\":7095:7359   */\n      swap3\n      swap2\n      pop\n      pop\n      jump\t// out\n        /* \"#utility.yul\":7365:7508   */\n    tag_146:\n        /* \"#utility.yul\":7422:7427   */\n      0x00\n        /* \"#utility.yul\":7453:7459   */\n      dup2\n        /* \"#utility.yul\":7447:7460   */\n      mload\n        /* \"#utility.yul\":7438:7460   */\n      swap1\n      pop\n        /* \"#utility.yul\":7469:7502   */\n      tag_259\n        /* \"#utility.yul\":7496:7501   */\n      dup2\n        /* \"#utility.yul\":7469:7502   */\n      tag_132\n      jump\t// in\n    tag_259:\n        /* \"#utility.yul\":7365:7508   */\n      swap3\n      swap2\n      pop\n      pop\n      jump\t// out\n        /* \"#utility.yul\":7514:7865   */\n    tag_48:\n        /* \"#utility.yul\":7584:7590   */\n      0x00\n        /* \"#utility.yul\":7633:7635   */\n      0x20\n        /* \"#utility.yul\":7621:7630   */\n      dup3\n        /* \"#utility.yul\":7612:7619   */\n      dup5\n        /* \"#utility.yul\":7608:7631   */\n      sub\n        /* \"#utility.yul\":7604:7636   */\n      slt\n        /* \"#utility.yul\":7601:7720   */\n      iszero\n      tag_261\n      jumpi\n        /* \"#utility.yul\":7639:7718   */\n      tag_262\n      tag_126\n      jump\t// in\n    tag_262:\n        /* \"#utility.yul\":7601:7720   */\n    tag_261:\n        /* \"#utility.yul\":7759:7760   */\n      0x00\n        /* \"#utility.yul\":7784:7848   */\n      tag_263\n        /* \"#utility.yul\":7840:7847   */\n      dup5\n        /* \"#utility.yul\":7831:7837   */\n      dup3\n        /* \"#utility.yul\":7820:7829   */\n      dup6\n        /* \"#utility.yul\":7816:7838   */\n      add\n        /* \"#utility.yul\":7784:7848   */\n      tag_146\n      jump\t// in\n    tag_263:\n        /* \"#utility.yul\":7774:7848   */\n      swap2\n      pop\n        /* \"#utility.yul\":7730:7858   */\n      pop\n        /* \"#utility.yul\":7514:7865   */\n      swap3\n      swap2\n      pop\n      pop\n      jump\t// out\n        /* \"#utility.yul\":7871:8203   */\n    tag_50:\n        /* \"#utility.yul\":7992:7996   */\n      0x00\n        /* \"#utility.yul\":8030:8032   */\n      0x40\n        /* \"#utility.yul\":8019:8028   */\n      dup3\n        /* \"#utility.yul\":8015:8033   */\n      add\n        /* \"#utility.yul\":8007:8033   */\n      swap1\n      pop\n        /* \"#utility.yul\":8043:8114   */\n      tag_265\n        /* \"#utility.yul\":8111:8112   */\n      0x00\n        /* \"#utility.yul\":8100:8109   */\n      dup4\n        /* \"#utility.yul\":8096:8113   */\n      add\n        /* \"#utility.yul\":8087:8093   */\n      dup6\n        /* \"#utility.yul\":8043:8114   */\n      tag_142\n      jump\t// in\n    tag_265:\n        /* \"#utility.yul\":8124:8196   */\n      tag_266\n        /* \"#utility.yul\":8192:8194   */\n      0x20\n        /* \"#utility.yul\":8181:8190   */\n      dup4\n        /* \"#utility.yul\":8177:8195   */\n      add\n        /* \"#utility.yul\":8168:8174   */\n      dup5\n        /* \"#utility.yul\":8124:8196   */\n      tag_143\n      jump\t// in\n    tag_266:\n        /* \"#utility.yul\":7871:8203   */\n      swap4\n      swap3\n      pop\n      pop\n      pop\n      jump\t// out\n        /* \"#utility.yul\":8209:8307   */\n    tag_147:\n        /* \"#utility.yul\":8260:8266   */\n      0x00\n        /* \"#utility.yul\":8294:8299   */\n      dup2\n        /* \"#utility.yul\":8288:8300   */\n      mload\n        /* \"#utility.yul\":8278:8300   */\n      swap1\n      pop\n        /* \"#utility.yul\":8209:8307   */\n      swap2\n      swap1\n      pop\n      jump\t// out\n        /* \"#utility.yul\":8313:8481   */\n    tag_148:\n        /* \"#utility.yul\":8396:8407   */\n      0x00\n        /* \"#utility.yul\":8430:8436   */\n      dup3\n        /* \"#utility.yul\":8425:8428   */\n      dup3\n        /* \"#utility.yul\":8418:8437   */\n      mstore\n        /* \"#utility.yul\":8470:8474   */\n      0x20\n        /* \"#utility.yul\":8465:8468   */\n      dup3\n        /* \"#utility.yul\":8461:8475   */\n      add\n        /* \"#utility.yul\":8446:8475   */\n      swap1\n      pop\n        /* \"#utility.yul\":8313:8481   */\n      swap3\n      swap2\n      pop\n      pop\n      jump\t// out\n        /* \"#utility.yul\":8487:8626   */\n    tag_149:\n        /* \"#utility.yul\":8576:8582   */\n      dup3\n        /* \"#utility.yul\":8571:8574   */\n      dup2\n        /* \"#utility.yul\":8566:8569   */\n      dup4\n        /* \"#utility.yul\":8560:8583   */\n      mcopy\n        /* \"#utility.yul\":8617:8618   */\n      0x00\n        /* \"#utility.yul\":8608:8614   */\n      dup4\n        /* \"#utility.yul\":8603:8606   */\n      dup4\n        /* \"#utility.yul\":8599:8615   */\n      add\n        /* \"#utility.yul\":8592:8619   */\n      mstore\n        /* \"#utility.yul\":8487:8626   */\n      pop\n      pop\n      pop\n      jump\t// out\n        /* \"#utility.yul\":8632:8734   */\n    tag_150:\n        /* \"#utility.yul\":8673:8679   */\n      0x00\n        /* \"#utility.yul\":8724:8726   */\n      0x1f\n        /* \"#utility.yul\":8720:8727   */\n      not\n        /* \"#utility.yul\":8715:8717   */\n      0x1f\n        /* \"#utility.yul\":8708:8713   */\n      dup4\n        /* \"#utility.yul\":8704:8718   */\n      add\n        /* \"#utility.yul\":8700:8728   */\n      and\n        /* \"#utility.yul\":8690:8728   */\n      swap1\n      pop\n        /* \"#utility.yul\":8632:8734   */\n      swap2\n      swap1\n      pop\n      jump\t// out\n        /* \"#utility.yul\":8740:9113   */\n    tag_151:\n        /* \"#utility.yul\":8826:8829   */\n      0x00\n        /* \"#utility.yul\":8854:8892   */\n      tag_272\n        /* \"#utility.yul\":8886:8891   */\n      dup3\n        /* \"#utility.yul\":8854:8892   */\n      tag_147\n      jump\t// in\n    tag_272:\n        /* \"#utility.yul\":8908:8978   */\n      tag_273\n        /* \"#utility.yul\":8971:8977   */\n      dup2\n        /* \"#utility.yul\":8966:8969   */\n      dup6\n        /* \"#utility.yul\":8908:8978   */\n      tag_148\n      jump\t// in\n    tag_273:\n        /* \"#utility.yul\":8901:8978   */\n      swap4\n      pop\n        /* \"#utility.yul\":8987:9052   */\n      tag_274\n        /* \"#utility.yul\":9045:9051   */\n      dup2\n        /* \"#utility.yul\":9040:9043   */\n      dup6\n        /* \"#utility.yul\":9033:9037   */\n      0x20\n        /* \"#utility.yul\":9026:9031   */\n      dup7\n        /* \"#utility.yul\":9022:9038   */\n      add\n        /* \"#utility.yul\":8987:9052   */\n      tag_149\n      jump\t// in\n    tag_274:\n        /* \"#utility.yul\":9077:9106   */\n      tag_275\n        /* \"#utility.yul\":9099:9105   */\n      dup2\n        /* \"#utility.yul\":9077:9106   */\n      tag_150\n      jump\t// in\n    tag_275:\n        /* \"#utility.yul\":9072:9075   */\n      dup5\n        /* \"#utility.yul\":9068:9107   */\n      add\n        /* \"#utility.yul\":9061:9107   */\n      swap2\n      pop\n        /* \"#utility.yul\":8830:9113   */\n      pop\n        /* \"#utility.yul\":8740:9113   */\n      swap3\n      swap2\n      pop\n      pop\n      jump\t// out\n        /* \"#utility.yul\":9119:9208   */\n    tag_152:\n        /* \"#utility.yul\":9155:9162   */\n      0x00\n        /* \"#utility.yul\":9195:9201   */\n      0xffff\n        /* \"#utility.yul\":9188:9193   */\n      dup3\n        /* \"#utility.yul\":9184:9202   */\n      and\n        /* \"#utility.yul\":9173:9202   */\n      swap1\n      pop\n        /* \"#utility.yul\":9119:9208   */\n      swap2\n      swap1\n      pop\n      jump\t// out\n        /* \"#utility.yul\":9214:9329   */\n    tag_153:\n        /* \"#utility.yul\":9299:9322   */\n      tag_278\n        /* \"#utility.yul\":9316:9321   */\n      dup2\n        /* \"#utility.yul\":9299:9322   */\n      tag_152\n      jump\t// in\n    tag_278:\n        /* \"#utility.yul\":9294:9297   */\n      dup3\n        /* \"#utility.yul\":9287:9323   */\n      mstore\n        /* \"#utility.yul\":9214:9329   */\n      pop\n      pop\n      jump\t// out\n        /* \"#utility.yul\":9335:10082   */\n    tag_52:\n        /* \"#utility.yul\":9556:9560   */\n      0x00\n        /* \"#utility.yul\":9594:9597   */\n      0xa0\n        /* \"#utility.yul\":9583:9592   */\n      dup3\n        /* \"#utility.yul\":9579:9598   */\n      add\n        /* \"#utility.yul\":9571:9598   */\n      swap1\n      pop\n        /* \"#utility.yul\":9608:9679   */\n      tag_280\n        /* \"#utility.yul\":9676:9677   */\n      0x00\n        /* \"#utility.yul\":9665:9674   */\n      dup4\n        /* \"#utility.yul\":9661:9678   */\n      add\n        /* \"#utility.yul\":9652:9658   */\n      dup9\n        /* \"#utility.yul\":9608:9679   */\n      tag_142\n      jump\t// in\n    tag_280:\n        /* \"#utility.yul\":9689:9761   */\n      tag_281\n        /* \"#utility.yul\":9757:9759   */\n      0x20\n        /* \"#utility.yul\":9746:9755   */\n      dup4\n        /* \"#utility.yul\":9742:9760   */\n      add\n        /* \"#utility.yul\":9733:9739   */\n      dup8\n        /* \"#utility.yul\":9689:9761   */\n      tag_142\n      jump\t// in\n    tag_281:\n        /* \"#utility.yul\":9771:9843   */\n      tag_282\n        /* \"#utility.yul\":9839:9841   */\n      0x40\n        /* \"#utility.yul\":9828:9837   */\n      dup4\n        /* \"#utility.yul\":9824:9842   */\n      add\n        /* \"#utility.yul\":9815:9821   */\n      dup7\n        /* \"#utility.yul\":9771:9843   */\n      tag_143\n      jump\t// in\n    tag_282:\n        /* \"#utility.yul\":9890:9899   */\n      dup2\n        /* \"#utility.yul\":9884:9888   */\n      dup2\n        /* \"#utility.yul\":9880:9900   */\n      sub\n        /* \"#utility.yul\":9875:9877   */\n      0x60\n        /* \"#utility.yul\":9864:9873   */\n      dup4\n        /* \"#utility.yul\":9860:9878   */\n      add\n        /* \"#utility.yul\":9853:9901   */\n      mstore\n        /* \"#utility.yul\":9918:9994   */\n      tag_283\n        /* \"#utility.yul\":9989:9993   */\n      dup2\n        /* \"#utility.yul\":9980:9986   */\n      dup6\n        /* \"#utility.yul\":9918:9994   */\n      tag_151\n      jump\t// in\n    tag_283:\n        /* \"#utility.yul\":9910:9994   */\n      swap1\n      pop\n        /* \"#utility.yul\":10004:10075   */\n      tag_284\n        /* \"#utility.yul\":10070:10073   */\n      0x80\n        /* \"#utility.yul\":10059:10068   */\n      dup4\n        /* \"#utility.yul\":10055:10074   */\n      add\n        /* \"#utility.yul\":10046:10052   */\n      dup5\n        /* \"#utility.yul\":10004:10075   */\n      tag_153\n      jump\t// in\n    tag_284:\n        /* \"#utility.yul\":9335:10082   */\n      swap7\n      swap6\n      pop\n      pop\n      pop\n      pop\n      pop\n      pop\n      jump\t// out\n        /* \"#utility.yul\":10088:10178   */\n    tag_154:\n        /* \"#utility.yul\":10138:10145   */\n      0x00\n        /* \"#utility.yul\":10167:10172   */\n      dup2\n        /* \"#utility.yul\":10156:10172   */\n      swap1\n      pop\n        /* \"#utility.yul\":10088:10178   */\n      swap2\n      swap1\n      pop\n      jump\t// out\n        /* \"#utility.yul\":10184:10352   */\n    tag_155:\n        /* \"#utility.yul\":10247:10256   */\n      0x00\n        /* \"#utility.yul\":10280:10346   */\n      tag_287\n        /* \"#utility.yul\":10298:10345   */\n      tag_288\n        /* \"#utility.yul\":10307:10344   */\n      tag_289\n        /* \"#utility.yul\":10338:10343   */\n      dup5\n        /* \"#utility.yul\":10307:10344   */\n      tag_154\n      jump\t// in\n    tag_289:\n        /* \"#utility.yul\":10298:10345   */\n      tag_120\n      jump\t// in\n    tag_288:\n        /* \"#utility.yul\":10280:10346   */\n      tag_131\n      jump\t// in\n    tag_287:\n        /* \"#utility.yul\":10267:10346   */\n      swap1\n      pop\n        /* \"#utility.yul\":10184:10352   */\n      swap2\n      swap1\n      pop\n      jump\t// out\n        /* \"#utility.yul\":10358:10515   */\n    tag_156:\n        /* \"#utility.yul\":10458:10508   */\n      tag_291\n        /* \"#utility.yul\":10502:10507   */\n      dup2\n        /* \"#utility.yul\":10458:10508   */\n      tag_155\n      jump\t// in\n    tag_291:\n        /* \"#utility.yul\":10453:10456   */\n      dup3\n        /* \"#utility.yul\":10446:10509   */\n      mstore\n        /* \"#utility.yul\":10358:10515   */\n      pop\n      pop\n      jump\t// out\n        /* \"#utility.yul\":10521:10769   */\n    tag_58:\n        /* \"#utility.yul\":10627:10631   */\n      0x00\n        /* \"#utility.yul\":10665:10667   */\n      0x20\n        /* \"#utility.yul\":10654:10663   */\n      dup3\n        /* \"#utility.yul\":10650:10668   */\n      add\n        /* \"#utility.yul\":10642:10668   */\n      swap1\n      pop\n        /* \"#utility.yul\":10678:10762   */\n      tag_293\n        /* \"#utility.yul\":10759:10760   */\n      0x00\n        /* \"#utility.yul\":10748:10757   */\n      dup4\n        /* \"#utility.yul\":10744:10761   */\n      add\n        /* \"#utility.yul\":10735:10741   */\n      dup5\n        /* \"#utility.yul\":10678:10762   */\n      tag_156\n      jump\t// in\n    tag_293:\n        /* \"#utility.yul\":10521:10769   */\n      swap3\n      swap2\n      pop\n      pop\n      jump\t// out\n        /* \"#utility.yul\":10775:10891   */\n    tag_157:\n        /* \"#utility.yul\":10845:10866   */\n      tag_295\n        /* \"#utility.yul\":10860:10865   */\n      dup2\n        /* \"#utility.yul\":10845:10866   */\n      tag_138\n      jump\t// in\n    tag_295:\n        /* \"#utility.yul\":10838:10843   */\n      dup2\n        /* \"#utility.yul\":10835:10867   */\n      eq\n        /* \"#utility.yul\":10825:10885   */\n      tag_296\n      jumpi\n        /* \"#utility.yul\":10881:10882   */\n      0x00\n        /* \"#utility.yul\":10878:10879   */\n      dup1\n        /* \"#utility.yul\":10871:10883   */\n      revert\n        /* \"#utility.yul\":10825:10885   */\n    tag_296:\n        /* \"#utility.yul\":10775:10891   */\n      pop\n      jump\t// out\n        /* \"#utility.yul\":10897:11034   */\n    tag_158:\n        /* \"#utility.yul\":10951:10956   */\n      0x00\n        /* \"#utility.yul\":10982:10988   */\n      dup2\n        /* \"#utility.yul\":10976:10989   */\n      mload\n        /* \"#utility.yul\":10967:10989   */\n      swap1\n      pop\n        /* \"#utility.yul\":10998:11028   */\n      tag_298\n        /* \"#utility.yul\":11022:11027   */\n      dup2\n        /* \"#utility.yul\":10998:11028   */\n      tag_157\n      jump\t// in\n    tag_298:\n        /* \"#utility.yul\":10897:11034   */\n      swap3\n      swap2\n      pop\n      pop\n      jump\t// out\n        /* \"#utility.yul\":11040:11385   */\n    tag_73:\n        /* \"#utility.yul\":11107:11113   */\n      0x00\n        /* \"#utility.yul\":11156:11158   */\n      0x20\n        /* \"#utility.yul\":11144:11153   */\n      dup3\n        /* \"#utility.yul\":11135:11142   */\n      dup5\n        /* \"#utility.yul\":11131:11154   */\n      sub\n        /* \"#utility.yul\":11127:11159   */\n      slt\n        /* \"#utility.yul\":11124:11243   */\n      iszero\n      tag_300\n      jumpi\n        /* \"#utility.yul\":11162:11241   */\n      tag_301\n      tag_126\n      jump\t// in\n    tag_301:\n        /* \"#utility.yul\":11124:11243   */\n    tag_300:\n        /* \"#utility.yul\":11282:11283   */\n      0x00\n        /* \"#utility.yul\":11307:11368   */\n      tag_302\n        /* \"#utility.yul\":11360:11367   */\n      dup5\n        /* \"#utility.yul\":11351:11357   */\n      dup3\n        /* \"#utility.yul\":11340:11349   */\n      dup6\n        /* \"#utility.yul\":11336:11358   */\n      add\n        /* \"#utility.yul\":11307:11368   */\n      tag_158\n      jump\t// in\n    tag_302:\n        /* \"#utility.yul\":11297:11368   */\n      swap2\n      pop\n        /* \"#utility.yul\":11253:11378   */\n      pop\n        /* \"#utility.yul\":11040:11385   */\n      swap3\n      swap2\n      pop\n      pop\n      jump\t// out\n        /* \"#utility.yul\":11391:11499   */\n    tag_159:\n        /* \"#utility.yul\":11468:11492   */\n      tag_304\n        /* \"#utility.yul\":11486:11491   */\n      dup2\n        /* \"#utility.yul\":11468:11492   */\n      tag_128\n      jump\t// in\n    tag_304:\n        /* \"#utility.yul\":11463:11466   */\n      dup3\n        /* \"#utility.yul\":11456:11493   */\n      mstore\n        /* \"#utility.yul\":11391:11499   */\n      pop\n      pop\n      jump\t// out\n        /* \"#utility.yul\":11505:11596   */\n    tag_160:\n        /* \"#utility.yul\":11541:11548   */\n      0x00\n        /* \"#utility.yul\":11581:11589   */\n      0xffffff\n        /* \"#utility.yul\":11574:11579   */\n      dup3\n        /* \"#utility.yul\":11570:11590   */\n      and\n        /* \"#utility.yul\":11559:11590   */\n      swap1\n      pop\n        /* \"#utility.yul\":11505:11596   */\n      swap2\n      swap1\n      pop\n      jump\t// out\n        /* \"#utility.yul\":11602:11707   */\n    tag_161:\n        /* \"#utility.yul\":11677:11700   */\n      tag_307\n        /* \"#utility.yul\":11694:11699   */\n      dup2\n        /* \"#utility.yul\":11677:11700   */\n      tag_160\n      jump\t// in\n    tag_307:\n        /* \"#utility.yul\":11672:11675   */\n      dup3\n        /* \"#utility.yul\":11665:11701   */\n      mstore\n        /* \"#utility.yul\":11602:11707   */\n      pop\n      pop\n      jump\t// out\n        /* \"#utility.yul\":11713:11821   */\n    tag_162:\n        /* \"#utility.yul\":11790:11814   */\n      tag_309\n        /* \"#utility.yul\":11808:11813   */\n      dup2\n        /* \"#utility.yul\":11790:11814   */\n      tag_131\n      jump\t// in\n    tag_309:\n        /* \"#utility.yul\":11785:11788   */\n      dup3\n        /* \"#utility.yul\":11778:11815   */\n      mstore\n        /* \"#utility.yul\":11713:11821   */\n      pop\n      pop\n      jump\t// out\n        /* \"#utility.yul\":11827:11935   */\n    tag_163:\n        /* \"#utility.yul\":11904:11928   */\n      tag_311\n        /* \"#utility.yul\":11922:11927   */\n      dup2\n        /* \"#utility.yul\":11904:11928   */\n      tag_119\n      jump\t// in\n    tag_311:\n        /* \"#utility.yul\":11899:11902   */\n      dup3\n        /* \"#utility.yul\":11892:11929   */\n      mstore\n        /* \"#utility.yul\":11827:11935   */\n      pop\n      pop\n      jump\t// out\n        /* \"#utility.yul\":12039:13482   */\n    tag_164:\n        /* \"#utility.yul\":12214:12218   */\n      0xe0\n        /* \"#utility.yul\":12209:12212   */\n      dup3\n        /* \"#utility.yul\":12205:12219   */\n      add\n        /* \"#utility.yul\":12304:12308   */\n      0x00\n        /* \"#utility.yul\":12297:12302   */\n      dup3\n        /* \"#utility.yul\":12293:12309   */\n      add\n        /* \"#utility.yul\":12287:12310   */\n      mload\n        /* \"#utility.yul\":12323:12386   */\n      tag_313\n        /* \"#utility.yul\":12380:12384   */\n      0x00\n        /* \"#utility.yul\":12375:12378   */\n      dup6\n        /* \"#utility.yul\":12371:12385   */\n      add\n        /* \"#utility.yul\":12357:12369   */\n      dup3\n        /* \"#utility.yul\":12323:12386   */\n      tag_159\n      jump\t// in\n    tag_313:\n        /* \"#utility.yul\":12229:12396   */\n      pop\n        /* \"#utility.yul\":12482:12486   */\n      0x20\n        /* \"#utility.yul\":12475:12480   */\n      dup3\n        /* \"#utility.yul\":12471:12487   */\n      add\n        /* \"#utility.yul\":12465:12488   */\n      mload\n        /* \"#utility.yul\":12501:12564   */\n      tag_314\n        /* \"#utility.yul\":12558:12562   */\n      0x20\n        /* \"#utility.yul\":12553:12556   */\n      dup6\n        /* \"#utility.yul\":12549:12563   */\n      add\n        /* \"#utility.yul\":12535:12547   */\n      dup3\n        /* \"#utility.yul\":12501:12564   */\n      tag_159\n      jump\t// in\n    tag_314:\n        /* \"#utility.yul\":12406:12574   */\n      pop\n        /* \"#utility.yul\":12655:12659   */\n      0x40\n        /* \"#utility.yul\":12648:12653   */\n      dup3\n        /* \"#utility.yul\":12644:12660   */\n      add\n        /* \"#utility.yul\":12638:12661   */\n      mload\n        /* \"#utility.yul\":12674:12735   */\n      tag_315\n        /* \"#utility.yul\":12729:12733   */\n      0x40\n        /* \"#utility.yul\":12724:12727   */\n      dup6\n        /* \"#utility.yul\":12720:12734   */\n      add\n        /* \"#utility.yul\":12706:12718   */\n      dup3\n        /* \"#utility.yul\":12674:12735   */\n      tag_161\n      jump\t// in\n    tag_315:\n        /* \"#utility.yul\":12584:12745   */\n      pop\n        /* \"#utility.yul\":12832:12836   */\n      0x60\n        /* \"#utility.yul\":12825:12830   */\n      dup3\n        /* \"#utility.yul\":12821:12837   */\n      add\n        /* \"#utility.yul\":12815:12838   */\n      mload\n        /* \"#utility.yul\":12851:12914   */\n      tag_316\n        /* \"#utility.yul\":12908:12912   */\n      0x60\n        /* \"#utility.yul\":12903:12906   */\n      dup6\n        /* \"#utility.yul\":12899:12913   */\n      add\n        /* \"#utility.yul\":12885:12897   */\n      dup3\n        /* \"#utility.yul\":12851:12914   */\n      tag_159\n      jump\t// in\n    tag_316:\n        /* \"#utility.yul\":12755:12924   */\n      pop\n        /* \"#utility.yul\":13010:13014   */\n      0x80\n        /* \"#utility.yul\":13003:13008   */\n      dup3\n        /* \"#utility.yul\":12999:13015   */\n      add\n        /* \"#utility.yul\":12993:13016   */\n      mload\n        /* \"#utility.yul\":13029:13092   */\n      tag_317\n        /* \"#utility.yul\":13086:13090   */\n      0x80\n        /* \"#utility.yul\":13081:13084   */\n      dup6\n        /* \"#utility.yul\":13077:13091   */\n      add\n        /* \"#utility.yul\":13063:13075   */\n      dup3\n        /* \"#utility.yul\":13029:13092   */\n      tag_162\n      jump\t// in\n    tag_317:\n        /* \"#utility.yul\":12934:13102   */\n      pop\n        /* \"#utility.yul\":13196:13200   */\n      0xa0\n        /* \"#utility.yul\":13189:13194   */\n      dup3\n        /* \"#utility.yul\":13185:13201   */\n      add\n        /* \"#utility.yul\":13179:13202   */\n      mload\n        /* \"#utility.yul\":13215:13278   */\n      tag_318\n        /* \"#utility.yul\":13272:13276   */\n      0xa0\n        /* \"#utility.yul\":13267:13270   */\n      dup6\n        /* \"#utility.yul\":13263:13277   */\n      add\n        /* \"#utility.yul\":13249:13261   */\n      dup3\n        /* \"#utility.yul\":13215:13278   */\n      tag_162\n      jump\t// in\n    tag_318:\n        /* \"#utility.yul\":13112:13288   */\n      pop\n        /* \"#utility.yul\":13383:13387   */\n      0xc0\n        /* \"#utility.yul\":13376:13381   */\n      dup3\n        /* \"#utility.yul\":13372:13388   */\n      add\n        /* \"#utility.yul\":13366:13389   */\n      mload\n        /* \"#utility.yul\":13402:13465   */\n      tag_319\n        /* \"#utility.yul\":13459:13463   */\n      0xc0\n        /* \"#utility.yul\":13454:13457   */\n      dup6\n        /* \"#utility.yul\":13450:13464   */\n      add\n        /* \"#utility.yul\":13436:13448   */\n      dup3\n        /* \"#utility.yul\":13402:13465   */\n      tag_163\n      jump\t// in\n    tag_319:\n        /* \"#utility.yul\":13298:13475   */\n      pop\n        /* \"#utility.yul\":12183:13482   */\n      pop\n        /* \"#utility.yul\":12039:13482   */\n      pop\n      pop\n      jump\t// out\n        /* \"#utility.yul\":13488:13867   */\n    tag_80:\n        /* \"#utility.yul\":13659:13663   */\n      0x00\n        /* \"#utility.yul\":13697:13700   */\n      0xe0\n        /* \"#utility.yul\":13686:13695   */\n      dup3\n        /* \"#utility.yul\":13682:13701   */\n      add\n        /* \"#utility.yul\":13674:13701   */\n      swap1\n      pop\n        /* \"#utility.yul\":13711:13860   */\n      tag_321\n        /* \"#utility.yul\":13857:13858   */\n      0x00\n        /* \"#utility.yul\":13846:13855   */\n      dup4\n        /* \"#utility.yul\":13842:13859   */\n      add\n        /* \"#utility.yul\":13833:13839   */\n      dup5\n        /* \"#utility.yul\":13711:13860   */\n      tag_164\n      jump\t// in\n    tag_321:\n        /* \"#utility.yul\":13488:13867   */\n      swap3\n      swap2\n      pop\n      pop\n      jump\t// out\n        /* \"#utility.yul\":13873:14053   */\n    tag_165:\n        /* \"#utility.yul\":13921:13998   */\n      0x4e487b7100000000000000000000000000000000000000000000000000000000\n        /* \"#utility.yul\":13918:13919   */\n      0x00\n        /* \"#utility.yul\":13911:13999   */\n      mstore\n        /* \"#utility.yul\":14018:14022   */\n      0x11\n        /* \"#utility.yul\":14015:14016   */\n      0x04\n        /* \"#utility.yul\":14008:14023   */\n      mstore\n        /* \"#utility.yul\":14042:14046   */\n      0x24\n        /* \"#utility.yul\":14039:14040   */\n      0x00\n        /* \"#utility.yul\":14032:14047   */\n      revert\n        /* \"#utility.yul\":14059:14250   */\n    tag_92:\n        /* \"#utility.yul\":14099:14102   */\n      0x00\n        /* \"#utility.yul\":14118:14138   */\n      tag_324\n        /* \"#utility.yul\":14136:14137   */\n      dup3\n        /* \"#utility.yul\":14118:14138   */\n      tag_131\n      jump\t// in\n    tag_324:\n        /* \"#utility.yul\":14113:14138   */\n      swap2\n      pop\n        /* \"#utility.yul\":14152:14172   */\n      tag_325\n        /* \"#utility.yul\":14170:14171   */\n      dup4\n        /* \"#utility.yul\":14152:14172   */\n      tag_131\n      jump\t// in\n    tag_325:\n        /* \"#utility.yul\":14147:14172   */\n      swap3\n      pop\n        /* \"#utility.yul\":14195:14196   */\n      dup3\n        /* \"#utility.yul\":14192:14193   */\n      dup3\n        /* \"#utility.yul\":14188:14197   */\n      add\n        /* \"#utility.yul\":14181:14197   */\n      swap1\n      pop\n        /* \"#utility.yul\":14216:14219   */\n      dup1\n        /* \"#utility.yul\":14213:14214   */\n      dup3\n        /* \"#utility.yul\":14210:14220   */\n      gt\n        /* \"#utility.yul\":14207:14243   */\n      iszero\n      tag_326\n      jumpi\n        /* \"#utility.yul\":14223:14241   */\n      tag_327\n      tag_165\n      jump\t// in\n    tag_327:\n        /* \"#utility.yul\":14207:14243   */\n    tag_326:\n        /* \"#utility.yul\":14059:14250   */\n      swap3\n      swap2\n      pop\n      pop\n      jump\t// out\n        /* \"#utility.yul\":14256:14698   */\n    tag_95:\n        /* \"#utility.yul\":14405:14409   */\n      0x00\n        /* \"#utility.yul\":14443:14445   */\n      0x60\n        /* \"#utility.yul\":14432:14441   */\n      dup3\n        /* \"#utility.yul\":14428:14446   */\n      add\n        /* \"#utility.yul\":14420:14446   */\n      swap1\n      pop\n        /* \"#utility.yul\":14456:14527   */\n      tag_329\n        /* \"#utility.yul\":14524:14525   */\n      0x00\n        /* \"#utility.yul\":14513:14522   */\n      dup4\n        /* \"#utility.yul\":14509:14526   */\n      add\n        /* \"#utility.yul\":14500:14506   */\n      dup7\n        /* \"#utility.yul\":14456:14527   */\n      tag_142\n      jump\t// in\n    tag_329:\n        /* \"#utility.yul\":14537:14609   */\n      tag_330\n        /* \"#utility.yul\":14605:14607   */\n      0x20\n        /* \"#utility.yul\":14594:14603   */\n      dup4\n        /* \"#utility.yul\":14590:14608   */\n      add\n        /* \"#utility.yul\":14581:14587   */\n      dup6\n        /* \"#utility.yul\":14537:14609   */\n      tag_142\n      jump\t// in\n    tag_330:\n        /* \"#utility.yul\":14619:14691   */\n      tag_331\n        /* \"#utility.yul\":14687:14689   */\n      0x40\n        /* \"#utility.yul\":14676:14685   */\n      dup4\n        /* \"#utility.yul\":14672:14690   */\n      add\n        /* \"#utility.yul\":14663:14669   */\n      dup5\n        /* \"#utility.yul\":14619:14691   */\n      tag_143\n      jump\t// in\n    tag_331:\n        /* \"#utility.yul\":14256:14698   */\n      swap5\n      swap4\n      pop\n      pop\n      pop\n      pop\n      jump\t// out\n        /* \"#utility.yul\":14704:14851   */\n    tag_166:\n        /* \"#utility.yul\":14805:14816   */\n      0x00\n        /* \"#utility.yul\":14842:14845   */\n      dup2\n        /* \"#utility.yul\":14827:14845   */\n      swap1\n      pop\n        /* \"#utility.yul\":14704:14851   */\n      swap3\n      swap2\n      pop\n      pop\n      jump\t// out\n        /* \"#utility.yul\":14857:15243   */\n    tag_167:\n        /* \"#utility.yul\":14961:14964   */\n      0x00\n        /* \"#utility.yul\":14989:15027   */\n      tag_334\n        /* \"#utility.yul\":15021:15026   */\n      dup3\n        /* \"#utility.yul\":14989:15027   */\n      tag_147\n      jump\t// in\n    tag_334:\n        /* \"#utility.yul\":15043:15131   */\n      tag_335\n        /* \"#utility.yul\":15124:15130   */\n      dup2\n        /* \"#utility.yul\":15119:15122   */\n      dup6\n        /* \"#utility.yul\":15043:15131   */\n      tag_166\n      jump\t// in\n    tag_335:\n        /* \"#utility.yul\":15036:15131   */\n      swap4\n      pop\n        /* \"#utility.yul\":15140:15205   */\n      tag_336\n        /* \"#utility.yul\":15198:15204   */\n      dup2\n        /* \"#utility.yul\":15193:15196   */\n      dup6\n        /* \"#utility.yul\":15186:15190   */\n      0x20\n        /* \"#utility.yul\":15179:15184   */\n      dup7\n        /* \"#utility.yul\":15175:15191   */\n      add\n        /* \"#utility.yul\":15140:15205   */\n      tag_149\n      jump\t// in\n    tag_336:\n        /* \"#utility.yul\":15230:15236   */\n      dup1\n        /* \"#utility.yul\":15225:15228   */\n      dup5\n        /* \"#utility.yul\":15221:15237   */\n      add\n        /* \"#utility.yul\":15214:15237   */\n      swap2\n      pop\n        /* \"#utility.yul\":14965:15243   */\n      pop\n        /* \"#utility.yul\":14857:15243   */\n      swap3\n      swap2\n      pop\n      pop\n      jump\t// out\n        /* \"#utility.yul\":15249:15520   */\n    tag_97:\n        /* \"#utility.yul\":15379:15382   */\n      0x00\n        /* \"#utility.yul\":15401:15494   */\n      tag_338\n        /* \"#utility.yul\":15490:15493   */\n      dup3\n        /* \"#utility.yul\":15481:15487   */\n      dup5\n        /* \"#utility.yul\":15401:15494   */\n      tag_167\n      jump\t// in\n    tag_338:\n        /* \"#utility.yul\":15394:15494   */\n      swap2\n      pop\n        /* \"#utility.yul\":15511:15514   */\n      dup2\n        /* \"#utility.yul\":15504:15514   */\n      swap1\n      pop\n        /* \"#utility.yul\":15249:15520   */\n      swap3\n      swap2\n      pop\n      pop\n      jump\t// out\n        /* \"#utility.yul\":15526:15695   */\n    tag_168:\n        /* \"#utility.yul\":15610:15621   */\n      0x00\n        /* \"#utility.yul\":15644:15650   */\n      dup3\n        /* \"#utility.yul\":15639:15642   */\n      dup3\n        /* \"#utility.yul\":15632:15651   */\n      mstore\n        /* \"#utility.yul\":15684:15688   */\n      0x20\n        /* \"#utility.yul\":15679:15682   */\n      dup3\n        /* \"#utility.yul\":15675:15689   */\n      add\n        /* \"#utility.yul\":15660:15689   */\n      swap1\n      pop\n        /* \"#utility.yul\":15526:15695   */\n      swap3\n      swap2\n      pop\n      pop\n      jump\t// out\n        /* \"#utility.yul\":15701:15937   */\n    tag_169:\n        /* \"#utility.yul\":15841:15875   */\n      0x5472616e7366657248656c7065723a3a7472616e7366657246726f6d3a207472\n        /* \"#utility.yul\":15837:15838   */\n      0x00\n        /* \"#utility.yul\":15829:15835   */\n      dup3\n        /* \"#utility.yul\":15825:15839   */\n      add\n        /* \"#utility.yul\":15818:15876   */\n      mstore\n        /* \"#utility.yul\":15910:15929   */\n      0x616e7366657246726f6d206661696c6564000000000000000000000000000000\n        /* \"#utility.yul\":15905:15907   */\n      0x20\n        /* \"#utility.yul\":15897:15903   */\n      dup3\n        /* \"#utility.yul\":15893:15908   */\n      add\n        /* \"#utility.yul\":15886:15930   */\n      mstore\n        /* \"#utility.yul\":15701:15937   */\n      pop\n      jump\t// out\n        /* \"#utility.yul\":15943:16309   */\n    tag_170:\n        /* \"#utility.yul\":16085:16088   */\n      0x00\n        /* \"#utility.yul\":16106:16173   */\n      tag_342\n        /* \"#utility.yul\":16170:16172   */\n      0x31\n        /* \"#utility.yul\":16165:16168   */\n      dup4\n        /* \"#utility.yul\":16106:16173   */\n      tag_168\n      jump\t// in\n    tag_342:\n        /* \"#utility.yul\":16099:16173   */\n      swap2\n      pop\n        /* \"#utility.yul\":16182:16275   */\n      tag_343\n        /* \"#utility.yul\":16271:16274   */\n      dup3\n        /* \"#utility.yul\":16182:16275   */\n      tag_169\n      jump\t// in\n    tag_343:\n        /* \"#utility.yul\":16300:16302   */\n      0x40\n        /* \"#utility.yul\":16295:16298   */\n      dup3\n        /* \"#utility.yul\":16291:16303   */\n      add\n        /* \"#utility.yul\":16284:16303   */\n      swap1\n      pop\n        /* \"#utility.yul\":15943:16309   */\n      swap2\n      swap1\n      pop\n      jump\t// out\n        /* \"#utility.yul\":16315:16734   */\n    tag_106:\n        /* \"#utility.yul\":16481:16485   */\n      0x00\n        /* \"#utility.yul\":16519:16521   */\n      0x20\n        /* \"#utility.yul\":16508:16517   */\n      dup3\n        /* \"#utility.yul\":16504:16522   */\n      add\n        /* \"#utility.yul\":16496:16522   */\n      swap1\n      pop\n        /* \"#utility.yul\":16568:16577   */\n      dup2\n        /* \"#utility.yul\":16562:16566   */\n      dup2\n        /* \"#utility.yul\":16558:16578   */\n      sub\n        /* \"#utility.yul\":16554:16555   */\n      0x00\n        /* \"#utility.yul\":16543:16552   */\n      dup4\n        /* \"#utility.yul\":16539:16556   */\n      add\n        /* \"#utility.yul\":16532:16579   */\n      mstore\n        /* \"#utility.yul\":16596:16727   */\n      tag_345\n        /* \"#utility.yul\":16722:16726   */\n      dup2\n        /* \"#utility.yul\":16596:16727   */\n      tag_170\n      jump\t// in\n    tag_345:\n        /* \"#utility.yul\":16588:16727   */\n      swap1\n      pop\n        /* \"#utility.yul\":16315:16734   */\n      swap2\n      swap1\n      pop\n      jump\t// out\n        /* \"#utility.yul\":16740:16970   */\n    tag_171:\n        /* \"#utility.yul\":16880:16914   */\n      0x5472616e7366657248656c7065723a3a73616665417070726f76653a20617070\n        /* \"#utility.yul\":16876:16877   */\n      0x00\n        /* \"#utility.yul\":16868:16874   */\n      dup3\n        /* \"#utility.yul\":16864:16878   */\n      add\n        /* \"#utility.yul\":16857:16915   */\n      mstore\n        /* \"#utility.yul\":16949:16962   */\n      0x726f7665206661696c6564000000000000000000000000000000000000000000\n        /* \"#utility.yul\":16944:16946   */\n      0x20\n        /* \"#utility.yul\":16936:16942   */\n      dup3\n        /* \"#utility.yul\":16932:16947   */\n      add\n        /* \"#utility.yul\":16925:16963   */\n      mstore\n        /* \"#utility.yul\":16740:16970   */\n      pop\n      jump\t// out\n        /* \"#utility.yul\":16976:17342   */\n    tag_172:\n        /* \"#utility.yul\":17118:17121   */\n      0x00\n        /* \"#utility.yul\":17139:17206   */\n      tag_348\n        /* \"#utility.yul\":17203:17205   */\n      0x2b\n        /* \"#utility.yul\":17198:17201   */\n      dup4\n        /* \"#utility.yul\":17139:17206   */\n      tag_168\n      jump\t// in\n    tag_348:\n        /* \"#utility.yul\":17132:17206   */\n      swap2\n      pop\n        /* \"#utility.yul\":17215:17308   */\n      tag_349\n        /* \"#utility.yul\":17304:17307   */\n      dup3\n        /* \"#utility.yul\":17215:17308   */\n      tag_171\n      jump\t// in\n    tag_349:\n        /* \"#utility.yul\":17333:17335   */\n      0x40\n        /* \"#utility.yul\":17328:17331   */\n      dup3\n        /* \"#utility.yul\":17324:17336   */\n      add\n        /* \"#utility.yul\":17317:17336   */\n      swap1\n      pop\n        /* \"#utility.yul\":16976:17342   */\n      swap2\n      swap1\n      pop\n      jump\t// out\n        /* \"#utility.yul\":17348:17767   */\n    tag_118:\n        /* \"#utility.yul\":17514:17518   */\n      0x00\n        /* \"#utility.yul\":17552:17554   */\n      0x20\n        /* \"#utility.yul\":17541:17550   */\n      dup3\n        /* \"#utility.yul\":17537:17555   */\n      add\n        /* \"#utility.yul\":17529:17555   */\n      swap1\n      pop\n        /* \"#utility.yul\":17601:17610   */\n      dup2\n        /* \"#utility.yul\":17595:17599   */\n      dup2\n        /* \"#utility.yul\":17591:17611   */\n      sub\n        /* \"#utility.yul\":17587:17588   */\n      0x00\n        /* \"#utility.yul\":17576:17585   */\n      dup4\n        /* \"#utility.yul\":17572:17589   */\n      add\n        /* \"#utility.yul\":17565:17612   */\n      mstore\n        /* \"#utility.yul\":17629:17760   */\n      tag_351\n        /* \"#utility.yul\":17755:17759   */\n      dup2\n        /* \"#utility.yul\":17629:17760   */\n      tag_172\n      jump\t// in\n    tag_351:\n        /* \"#utility.yul\":17621:17760   */\n      swap1\n      pop\n        /* \"#utility.yul\":17348:17767   */\n      swap2\n      swap1\n      pop\n      jump\t// out\n\n    auxdata: 0xa26469706673582212207de9c2cd2b7cc26f8b5140b2e7aecff2178d612e7b49f582731b60f774adf3eb64736f6c63430008190033\n}\n",
				"bytecode": {
					"linkReferences": {},
					"object": "60e0604052733bfa4769fb09eefc5a80d6e87c3b9c650f7ae48e73ffffffffffffffffffffffffffffffffffffffff1660c09073ffffffffffffffffffffffffffffffffffffffff16815250348015610056575f80fd5b50604051611685380380611685833981810160405281019061007891906101c3565b808073ffffffffffffffffffffffffffffffffffffffff1660808173ffffffffffffffffffffffffffffffffffffffff16815250508073ffffffffffffffffffffffffffffffffffffffff1663026b1d5f6040518163ffffffff1660e01b8152600401602060405180830381865afa1580156100f6573d5f803e3d5ffd5b505050506040513d601f19601f8201168201806040525081019061011a9190610218565b73ffffffffffffffffffffffffffffffffffffffff1660a08173ffffffffffffffffffffffffffffffffffffffff16815250505050610243565b5f80fd5b5f73ffffffffffffffffffffffffffffffffffffffff82169050919050565b5f61018182610158565b9050919050565b5f61019282610177565b9050919050565b6101a281610188565b81146101ac575f80fd5b50565b5f815190506101bd81610199565b92915050565b5f602082840312156101d8576101d7610154565b5b5f6101e5848285016101af565b91505092915050565b6101f781610177565b8114610201575f80fd5b50565b5f81519050610212816101ee565b92915050565b5f6020828403121561022d5761022c610154565b5b5f61023a84828501610204565b91505092915050565b60805160a05160c0516113ee6102975f395f81816105590152818161063e015281816106f1015281816107f501526108cf01525f81816102600152818161045501526104e401525f61017501526113ee5ff3fe608060405234801561000f575f80fd5b506004361061007b575f3560e01c80637535d246116100595780637535d246146100e957806382d2dcfb14610107578063a048600d14610125578063c31c9c07146101555761007b565b80630542975c1461007f5780630a6095da1461009d5780631b11d0ff146100b9575b5f80fd5b610087610173565b6040516100949190610be3565b60405180910390f35b6100b760048036038101906100b29190610c72565b610197565b005b6100d360048036038101906100ce9190610d11565b6102f3565b6040516100e09190610dc1565b60405180910390f35b6100f16104e2565b6040516100fe9190610dfa565b60405180910390f35b61010f610506565b60405161011c9190610e22565b60405180910390f35b61013f600480360381019061013a9190610e3b565b61051e565b60405161014c9190610e75565b60405180910390f35b61015d6108cd565b60405161016a9190610eae565b60405180910390f35b7f000000000000000000000000000000000000000000000000000000000000000081565b5f3090505f60405180602001604052805f81525090505f7ff950957d2407bed19dc99b718b46b4ce6090c05589006dfb86fd22c34865b23e858673ffffffffffffffffffffffffffffffffffffffff166370a08231306040518263ffffffff1660e01b81526004016102099190610e22565b602060405180830381865afa158015610224573d5f803e3d5ffd5b505050506040513d601f19601f820116820180604052508101906102489190610edb565b604051610256929190610f06565b60405180910390a17f000000000000000000000000000000000000000000000000000000000000000073ffffffffffffffffffffffffffffffffffffffff166342b0b77c84878786866040518663ffffffff1660e01b81526004016102bf959493929190610fb9565b5f604051808303815f87803b1580156102d6575f80fd5b505af11580156102e8573d5f803e3d5ffd5b505050505050505050565b5f3073ffffffffffffffffffffffffffffffffffffffff1663a048600d620186a06040518263ffffffff1660e01b8152600401610330919061104a565b6020604051808303815f875af115801561034c573d5f803e3d5ffd5b505050506040513d601f19601f820116820180604052508101906103709190610edb565b507ff950957d2407bed19dc99b718b46b4ce6090c05589006dfb86fd22c34865b23e878873ffffffffffffffffffffffffffffffffffffffff166370a08231306040518263ffffffff1660e01b81526004016103cc9190610e22565b602060405180830381865afa1580156103e7573d5f803e3d5ffd5b505050506040513d601f19601f8201168201806040525081019061040b9190610edb565b604051610419929190610f06565b60405180910390a15f61043586886108f190919063ffffffff16565b90508773ffffffffffffffffffffffffffffffffffffffff1663095ea7b37f0000000000000000000000000000000000000000000000000000000000000000836040518363ffffffff1660e01b8152600401610492929190610f06565b6020604051808303815f875af11580156104ae573d5f803e3d5ffd5b505050506040513d601f19601f820116820180604052508101906104d2919061108d565b5060019150509695505050505050565b7f000000000000000000000000000000000000000000000000000000000000000081565b73d10a9ec6e827b13cf399fcc7e6424f233e99562a81565b5f61053f7364b6f44862e8800ebd63cd7f1319c8bf0bc1bb99333085610906565b61057e7364b6f44862e8800ebd63cd7f1319c8bf0bc1bb997f000000000000000000000000000000000000000000000000000000000000000084610a39565b5f6040518060e001604052807364b6f44862e8800ebd63cd7f1319c8bf0bc1bb9973ffffffffffffffffffffffffffffffffffffffff16815260200173d10a9ec6e827b13cf399fcc7e6424f233e99562a73ffffffffffffffffffffffffffffffffffffffff1681526020016101f462ffffff1681526020013073ffffffffffffffffffffffffffffffffffffffff1681526020018481526020015f81526020015f73ffffffffffffffffffffffffffffffffffffffff1681525090505f7f000000000000000000000000000000000000000000000000000000000000000073ffffffffffffffffffffffffffffffffffffffff166304e45aaf836040518263ffffffff1660e01b8152600401610695919061118e565b6020604051808303815f875af11580156106b1573d5f803e3d5ffd5b505050506040513d601f19601f820116820180604052508101906106d59190610edb565b905061073673d10a9ec6e827b13cf399fcc7e6424f233e99562a7f00000000000000000000000000000000000000000000000000000000000000007fffffffffffffffffffffffffffffffffffffffffffffffffffffffffffffffff610a39565b5f6040518060e0016040528073d10a9ec6e827b13cf399fcc7e6424f233e99562a73ffffffffffffffffffffffffffffffffffffffff1681526020017364b6f44862e8800ebd63cd7f1319c8bf0bc1bb9973ffffffffffffffffffffffffffffffffffffffff168152602001610bb862ffffff1681526020013373ffffffffffffffffffffffffffffffffffffffff1681526020018381526020015f81526020015f73ffffffffffffffffffffffffffffffffffffffff1681525090507f000000000000000000000000000000000000000000000000000000000000000073ffffffffffffffffffffffffffffffffffffffff166304e45aaf826040518263ffffffff1660e01b815260040161084c919061118e565b6020604051808303815f875af1158015610868573d5f803e3d5ffd5b505050506040513d601f19601f8201168201806040525081019061088c9190610edb565b93507f3bb2ef743367d6bf518e353ce6f97647577a7ba1b971feecabd1bf42be1b55a3846040516108bd9190610e75565b60405180910390a1505050919050565b7f000000000000000000000000000000000000000000000000000000000000000081565b5f81836108fe91906111d4565b905092915050565b5f808573ffffffffffffffffffffffffffffffffffffffff166323b872dd86868660405160240161093993929190611207565b6040516020818303038152906040529060e01b6020820180517bffffffffffffffffffffffffffffffffffffffffffffffffffffffff83818316178352505050506040516109879190611276565b5f604051808303815f865af19150503d805f81146109c0576040519150601f19603f3d011682016040523d82523d5f602084013e6109c5565b606091505b50915091508180156109f257505f815114806109f15750808060200190518101906109f0919061108d565b5b5b610a31576040517f08c379a0000000000000000000000000000000000000000000000000000000008152600401610a289061130c565b60405180910390fd5b505050505050565b5f808473ffffffffffffffffffffffffffffffffffffffff1663095ea7b38585604051602401610a6a929190610f06565b6040516020818303038152906040529060e01b6020820180517bffffffffffffffffffffffffffffffffffffffffffffffffffffffff8381831617835250505050604051610ab89190611276565b5f604051808303815f865af19150503d805f8114610af1576040519150601f19603f3d011682016040523d82523d5f602084013e610af6565b606091505b5091509150818015610b2357505f81511480610b22575080806020019051810190610b21919061108d565b5b5b610b62576040517f08c379a0000000000000000000000000000000000000000000000000000000008152600401610b599061139a565b60405180910390fd5b5050505050565b5f73ffffffffffffffffffffffffffffffffffffffff82169050919050565b5f819050919050565b5f610bab610ba6610ba184610b69565b610b88565b610b69565b9050919050565b5f610bbc82610b91565b9050919050565b5f610bcd82610bb2565b9050919050565b610bdd81610bc3565b82525050565b5f602082019050610bf65f830184610bd4565b92915050565b5f80fd5b5f80fd5b5f610c0e82610b69565b9050919050565b610c1e81610c04565b8114610c28575f80fd5b50565b5f81359050610c3981610c15565b92915050565b5f819050919050565b610c5181610c3f565b8114610c5b575f80fd5b50565b5f81359050610c6c81610c48565b92915050565b5f8060408385031215610c8857610c87610bfc565b5b5f610c9585828601610c2b565b9250506020610ca685828601610c5e565b9150509250929050565b5f80fd5b5f80fd5b5f80fd5b5f8083601f840112610cd157610cd0610cb0565b5b8235905067ffffffffffffffff811115610cee57610ced610cb4565b5b602083019150836001820283011115610d0a57610d09610cb8565b5b9250929050565b5f805f805f8060a08789031215610d2b57610d2a610bfc565b5b5f610d3889828a01610c2b565b9650506020610d4989828a01610c5e565b9550506040610d5a89828a01610c5e565b9450506060610d6b89828a01610c2b565b935050608087013567ffffffffffffffff811115610d8c57610d8b610c00565b5b610d9889828a01610cbc565b92509250509295509295509295565b5f8115159050919050565b610dbb81610da7565b82525050565b5f602082019050610dd45f830184610db2565b92915050565b5f610de482610bb2565b9050919050565b610df481610dda565b82525050565b5f602082019050610e0d5f830184610deb565b92915050565b610e1c81610c04565b82525050565b5f602082019050610e355f830184610e13565b92915050565b5f60208284031215610e5057610e4f610bfc565b5b5f610e5d84828501610c5e565b91505092915050565b610e6f81610c3f565b82525050565b5f602082019050610e885f830184610e66565b92915050565b5f610e9882610bb2565b9050919050565b610ea881610e8e565b82525050565b5f602082019050610ec15f830184610e9f565b92915050565b5f81519050610ed581610c48565b92915050565b5f60208284031215610ef057610eef610bfc565b5b5f610efd84828501610ec7565b91505092915050565b5f604082019050610f195f830185610e13565b610f266020830184610e66565b9392505050565b5f81519050919050565b5f82825260208201905092915050565b8281835e5f83830152505050565b5f601f19601f8301169050919050565b5f610f6f82610f2d565b610f798185610f37565b9350610f89818560208601610f47565b610f9281610f55565b840191505092915050565b5f61ffff82169050919050565b610fb381610f9d565b82525050565b5f60a082019050610fcc5f830188610e13565b610fd96020830187610e13565b610fe66040830186610e66565b8181036060830152610ff88185610f65565b90506110076080830184610faa565b9695505050505050565b5f819050919050565b5f61103461102f61102a84611011565b610b88565b610c3f565b9050919050565b6110448161101a565b82525050565b5f60208201905061105d5f83018461103b565b92915050565b61106c81610da7565b8114611076575f80fd5b50565b5f8151905061108781611063565b92915050565b5f602082840312156110a2576110a1610bfc565b5b5f6110af84828501611079565b91505092915050565b6110c181610c04565b82525050565b5f62ffffff82169050919050565b6110de816110c7565b82525050565b6110ed81610c3f565b82525050565b6110fc81610b69565b82525050565b60e082015f8201516111165f8501826110b8565b50602082015161112960208501826110b8565b50604082015161113c60408501826110d5565b50606082015161114f60608501826110b8565b50608082015161116260808501826110e4565b5060a082015161117560a08501826110e4565b5060c082015161118860c08501826110f3565b50505050565b5f60e0820190506111a15f830184611102565b92915050565b7f4e487b71000000000000000000000000000000000000000000000000000000005f52601160045260245ffd5b5f6111de82610c3f565b91506111e983610c3f565b9250828201905080821115611201576112006111a7565b5b92915050565b5f60608201905061121a5f830186610e13565b6112276020830185610e13565b6112346040830184610e66565b949350505050565b5f81905092915050565b5f61125082610f2d565b61125a818561123c565b935061126a818560208601610f47565b80840191505092915050565b5f6112818284611246565b915081905092915050565b5f82825260208201905092915050565b7f5472616e7366657248656c7065723a3a7472616e7366657246726f6d3a2074725f8201527f616e7366657246726f6d206661696c6564000000000000000000000000000000602082015250565b5f6112f660318361128c565b91506113018261129c565b604082019050919050565b5f6020820190508181035f830152611323816112ea565b9050919050565b7f5472616e7366657248656c7065723a3a73616665417070726f76653a206170705f8201527f726f7665206661696c6564000000000000000000000000000000000000000000602082015250565b5f611384602b8361128c565b915061138f8261132a565b604082019050919050565b5f6020820190508181035f8301526113b181611378565b905091905056fea26469706673582212207de9c2cd2b7cc26f8b5140b2e7aecff2178d612e7b49f582731b60f774adf3eb64736f6c63430008190033",
					"opcodes": "PUSH1 0xE0 PUSH1 0x40 MSTORE PUSH20 0x3BFA4769FB09EEFC5A80D6E87C3B9C650F7AE48E PUSH20 0xFFFFFFFFFFFFFFFFFFFFFFFFFFFFFFFFFFFFFFFF AND PUSH1 0xC0 SWAP1 PUSH20 0xFFFFFFFFFFFFFFFFFFFFFFFFFFFFFFFFFFFFFFFF AND DUP2 MSTORE POP CALLVALUE DUP1 ISZERO PUSH2 0x56 JUMPI PUSH0 DUP1 REVERT JUMPDEST POP PUSH1 0x40 MLOAD PUSH2 0x1685 CODESIZE SUB DUP1 PUSH2 0x1685 DUP4 CODECOPY DUP2 DUP2 ADD PUSH1 0x40 MSTORE DUP2 ADD SWAP1 PUSH2 0x78 SWAP2 SWAP1 PUSH2 0x1C3 JUMP JUMPDEST DUP1 DUP1 PUSH20 0xFFFFFFFFFFFFFFFFFFFFFFFFFFFFFFFFFFFFFFFF AND PUSH1 0x80 DUP2 PUSH20 0xFFFFFFFFFFFFFFFFFFFFFFFFFFFFFFFFFFFFFFFF AND DUP2 MSTORE POP POP DUP1 PUSH20 0xFFFFFFFFFFFFFFFFFFFFFFFFFFFFFFFFFFFFFFFF AND PUSH4 0x26B1D5F PUSH1 0x40 MLOAD DUP2 PUSH4 0xFFFFFFFF AND PUSH1 0xE0 SHL DUP2 MSTORE PUSH1 0x4 ADD PUSH1 0x20 PUSH1 0x40 MLOAD DUP1 DUP4 SUB DUP2 DUP7 GAS STATICCALL ISZERO DUP1 ISZERO PUSH2 0xF6 JUMPI RETURNDATASIZE PUSH0 DUP1 RETURNDATACOPY RETURNDATASIZE PUSH0 REVERT JUMPDEST POP POP POP POP PUSH1 0x40 MLOAD RETURNDATASIZE PUSH1 0x1F NOT PUSH1 0x1F DUP3 ADD AND DUP3 ADD DUP1 PUSH1 0x40 MSTORE POP DUP2 ADD SWAP1 PUSH2 0x11A SWAP2 SWAP1 PUSH2 0x218 JUMP JUMPDEST PUSH20 0xFFFFFFFFFFFFFFFFFFFFFFFFFFFFFFFFFFFFFFFF AND PUSH1 0xA0 DUP2 PUSH20 0xFFFFFFFFFFFFFFFFFFFFFFFFFFFFFFFFFFFFFFFF AND DUP2 MSTORE POP POP POP POP PUSH2 0x243 JUMP JUMPDEST PUSH0 DUP1 REVERT JUMPDEST PUSH0 PUSH20 0xFFFFFFFFFFFFFFFFFFFFFFFFFFFFFFFFFFFFFFFF DUP3 AND SWAP1 POP SWAP2 SWAP1 POP JUMP JUMPDEST PUSH0 PUSH2 0x181 DUP3 PUSH2 0x158 JUMP JUMPDEST SWAP1 POP SWAP2 SWAP1 POP JUMP JUMPDEST PUSH0 PUSH2 0x192 DUP3 PUSH2 0x177 JUMP JUMPDEST SWAP1 POP SWAP2 SWAP1 POP JUMP JUMPDEST PUSH2 0x1A2 DUP2 PUSH2 0x188 JUMP JUMPDEST DUP2 EQ PUSH2 0x1AC JUMPI PUSH0 DUP1 REVERT JUMPDEST POP JUMP JUMPDEST PUSH0 DUP2 MLOAD SWAP1 POP PUSH2 0x1BD DUP2 PUSH2 0x199 JUMP JUMPDEST SWAP3 SWAP2 POP POP JUMP JUMPDEST PUSH0 PUSH1 0x20 DUP3 DUP5 SUB SLT ISZERO PUSH2 0x1D8 JUMPI PUSH2 0x1D7 PUSH2 0x154 JUMP JUMPDEST JUMPDEST PUSH0 PUSH2 0x1E5 DUP5 DUP3 DUP6 ADD PUSH2 0x1AF JUMP JUMPDEST SWAP2 POP POP SWAP3 SWAP2 POP POP JUMP JUMPDEST PUSH2 0x1F7 DUP2 PUSH2 0x177 JUMP JUMPDEST DUP2 EQ PUSH2 0x201 JUMPI PUSH0 DUP1 REVERT JUMPDEST POP JUMP JUMPDEST PUSH0 DUP2 MLOAD SWAP1 POP PUSH2 0x212 DUP2 PUSH2 0x1EE JUMP JUMPDEST SWAP3 SWAP2 POP POP JUMP JUMPDEST PUSH0 PUSH1 0x20 DUP3 DUP5 SUB SLT ISZERO PUSH2 0x22D JUMPI PUSH2 0x22C PUSH2 0x154 JUMP JUMPDEST JUMPDEST PUSH0 PUSH2 0x23A DUP5 DUP3 DUP6 ADD PUSH2 0x204 JUMP JUMPDEST SWAP2 POP POP SWAP3 SWAP2 POP POP JUMP JUMPDEST PUSH1 0x80 MLOAD PUSH1 0xA0 MLOAD PUSH1 0xC0 MLOAD PUSH2 0x13EE PUSH2 0x297 PUSH0 CODECOPY PUSH0 DUP2 DUP2 PUSH2 0x559 ADD MSTORE DUP2 DUP2 PUSH2 0x63E ADD MSTORE DUP2 DUP2 PUSH2 0x6F1 ADD MSTORE DUP2 DUP2 PUSH2 0x7F5 ADD MSTORE PUSH2 0x8CF ADD MSTORE PUSH0 DUP2 DUP2 PUSH2 0x260 ADD MSTORE DUP2 DUP2 PUSH2 0x455 ADD MSTORE PUSH2 0x4E4 ADD MSTORE PUSH0 PUSH2 0x175 ADD MSTORE PUSH2 0x13EE PUSH0 RETURN INVALID PUSH1 0x80 PUSH1 0x40 MSTORE CALLVALUE DUP1 ISZERO PUSH2 0xF JUMPI PUSH0 DUP1 REVERT JUMPDEST POP PUSH1 0x4 CALLDATASIZE LT PUSH2 0x7B JUMPI PUSH0 CALLDATALOAD PUSH1 0xE0 SHR DUP1 PUSH4 0x7535D246 GT PUSH2 0x59 JUMPI DUP1 PUSH4 0x7535D246 EQ PUSH2 0xE9 JUMPI DUP1 PUSH4 0x82D2DCFB EQ PUSH2 0x107 JUMPI DUP1 PUSH4 0xA048600D EQ PUSH2 0x125 JUMPI DUP1 PUSH4 0xC31C9C07 EQ PUSH2 0x155 JUMPI PUSH2 0x7B JUMP JUMPDEST DUP1 PUSH4 0x542975C EQ PUSH2 0x7F JUMPI DUP1 PUSH4 0xA6095DA EQ PUSH2 0x9D JUMPI DUP1 PUSH4 0x1B11D0FF EQ PUSH2 0xB9 JUMPI JUMPDEST PUSH0 DUP1 REVERT JUMPDEST PUSH2 0x87 PUSH2 0x173 JUMP JUMPDEST PUSH1 0x40 MLOAD PUSH2 0x94 SWAP2 SWAP1 PUSH2 0xBE3 JUMP JUMPDEST PUSH1 0x40 MLOAD DUP1 SWAP2 SUB SWAP1 RETURN JUMPDEST PUSH2 0xB7 PUSH1 0x4 DUP1 CALLDATASIZE SUB DUP2 ADD SWAP1 PUSH2 0xB2 SWAP2 SWAP1 PUSH2 0xC72 JUMP JUMPDEST PUSH2 0x197 JUMP JUMPDEST STOP JUMPDEST PUSH2 0xD3 PUSH1 0x4 DUP1 CALLDATASIZE SUB DUP2 ADD SWAP1 PUSH2 0xCE SWAP2 SWAP1 PUSH2 0xD11 JUMP JUMPDEST PUSH2 0x2F3 JUMP JUMPDEST PUSH1 0x40 MLOAD PUSH2 0xE0 SWAP2 SWAP1 PUSH2 0xDC1 JUMP JUMPDEST PUSH1 0x40 MLOAD DUP1 SWAP2 SUB SWAP1 RETURN JUMPDEST PUSH2 0xF1 PUSH2 0x4E2 JUMP JUMPDEST PUSH1 0x40 MLOAD PUSH2 0xFE SWAP2 SWAP1 PUSH2 0xDFA JUMP JUMPDEST PUSH1 0x40 MLOAD DUP1 SWAP2 SUB SWAP1 RETURN JUMPDEST PUSH2 0x10F PUSH2 0x506 JUMP JUMPDEST PUSH1 0x40 MLOAD PUSH2 0x11C SWAP2 SWAP1 PUSH2 0xE22 JUMP JUMPDEST PUSH1 0x40 MLOAD DUP1 SWAP2 SUB SWAP1 RETURN JUMPDEST PUSH2 0x13F PUSH1 0x4 DUP1 CALLDATASIZE SUB DUP2 ADD SWAP1 PUSH2 0x13A SWAP2 SWAP1 PUSH2 0xE3B JUMP JUMPDEST PUSH2 0x51E JUMP JUMPDEST PUSH1 0x40 MLOAD PUSH2 0x14C SWAP2 SWAP1 PUSH2 0xE75 JUMP JUMPDEST PUSH1 0x40 MLOAD DUP1 SWAP2 SUB SWAP1 RETURN JUMPDEST PUSH2 0x15D PUSH2 0x8CD JUMP JUMPDEST PUSH1 0x40 MLOAD PUSH2 0x16A SWAP2 SWAP1 PUSH2 0xEAE JUMP JUMPDEST PUSH1 0x40 MLOAD DUP1 SWAP2 SUB SWAP1 RETURN JUMPDEST PUSH32 0x0 DUP2 JUMP JUMPDEST PUSH0 ADDRESS SWAP1 POP PUSH0 PUSH1 0x40 MLOAD DUP1 PUSH1 0x20 ADD PUSH1 0x40 MSTORE DUP1 PUSH0 DUP2 MSTORE POP SWAP1 POP PUSH0 PUSH32 0xF950957D2407BED19DC99B718B46B4CE6090C05589006DFB86FD22C34865B23E DUP6 DUP7 PUSH20 0xFFFFFFFFFFFFFFFFFFFFFFFFFFFFFFFFFFFFFFFF AND PUSH4 0x70A08231 ADDRESS PUSH1 0x40 MLOAD DUP3 PUSH4 0xFFFFFFFF AND PUSH1 0xE0 SHL DUP2 MSTORE PUSH1 0x4 ADD PUSH2 0x209 SWAP2 SWAP1 PUSH2 0xE22 JUMP JUMPDEST PUSH1 0x20 PUSH1 0x40 MLOAD DUP1 DUP4 SUB DUP2 DUP7 GAS STATICCALL ISZERO DUP1 ISZERO PUSH2 0x224 JUMPI RETURNDATASIZE PUSH0 DUP1 RETURNDATACOPY RETURNDATASIZE PUSH0 REVERT JUMPDEST POP POP POP POP PUSH1 0x40 MLOAD RETURNDATASIZE PUSH1 0x1F NOT PUSH1 0x1F DUP3 ADD AND DUP3 ADD DUP1 PUSH1 0x40 MSTORE POP DUP2 ADD SWAP1 PUSH2 0x248 SWAP2 SWAP1 PUSH2 0xEDB JUMP JUMPDEST PUSH1 0x40 MLOAD PUSH2 0x256 SWAP3 SWAP2 SWAP1 PUSH2 0xF06 JUMP JUMPDEST PUSH1 0x40 MLOAD DUP1 SWAP2 SUB SWAP1 LOG1 PUSH32 0x0 PUSH20 0xFFFFFFFFFFFFFFFFFFFFFFFFFFFFFFFFFFFFFFFF AND PUSH4 0x42B0B77C DUP5 DUP8 DUP8 DUP7 DUP7 PUSH1 0x40 MLOAD DUP7 PUSH4 0xFFFFFFFF AND PUSH1 0xE0 SHL DUP2 MSTORE PUSH1 0x4 ADD PUSH2 0x2BF SWAP6 SWAP5 SWAP4 SWAP3 SWAP2 SWAP1 PUSH2 0xFB9 JUMP JUMPDEST PUSH0 PUSH1 0x40 MLOAD DUP1 DUP4 SUB DUP2 PUSH0 DUP8 DUP1 EXTCODESIZE ISZERO DUP1 ISZERO PUSH2 0x2D6 JUMPI PUSH0 DUP1 REVERT JUMPDEST POP GAS CALL ISZERO DUP1 ISZERO PUSH2 0x2E8 JUMPI RETURNDATASIZE PUSH0 DUP1 RETURNDATACOPY RETURNDATASIZE PUSH0 REVERT JUMPDEST POP POP POP POP POP POP POP POP POP JUMP JUMPDEST PUSH0 ADDRESS PUSH20 0xFFFFFFFFFFFFFFFFFFFFFFFFFFFFFFFFFFFFFFFF AND PUSH4 0xA048600D PUSH3 0x186A0 PUSH1 0x40 MLOAD DUP3 PUSH4 0xFFFFFFFF AND PUSH1 0xE0 SHL DUP2 MSTORE PUSH1 0x4 ADD PUSH2 0x330 SWAP2 SWAP1 PUSH2 0x104A JUMP JUMPDEST PUSH1 0x20 PUSH1 0x40 MLOAD DUP1 DUP4 SUB DUP2 PUSH0 DUP8 GAS CALL ISZERO DUP1 ISZERO PUSH2 0x34C JUMPI RETURNDATASIZE PUSH0 DUP1 RETURNDATACOPY RETURNDATASIZE PUSH0 REVERT JUMPDEST POP POP POP POP PUSH1 0x40 MLOAD RETURNDATASIZE PUSH1 0x1F NOT PUSH1 0x1F DUP3 ADD AND DUP3 ADD DUP1 PUSH1 0x40 MSTORE POP DUP2 ADD SWAP1 PUSH2 0x370 SWAP2 SWAP1 PUSH2 0xEDB JUMP JUMPDEST POP PUSH32 0xF950957D2407BED19DC99B718B46B4CE6090C05589006DFB86FD22C34865B23E DUP8 DUP9 PUSH20 0xFFFFFFFFFFFFFFFFFFFFFFFFFFFFFFFFFFFFFFFF AND PUSH4 0x70A08231 ADDRESS PUSH1 0x40 MLOAD DUP3 PUSH4 0xFFFFFFFF AND PUSH1 0xE0 SHL DUP2 MSTORE PUSH1 0x4 ADD PUSH2 0x3CC SWAP2 SWAP1 PUSH2 0xE22 JUMP JUMPDEST PUSH1 0x20 PUSH1 0x40 MLOAD DUP1 DUP4 SUB DUP2 DUP7 GAS STATICCALL ISZERO DUP1 ISZERO PUSH2 0x3E7 JUMPI RETURNDATASIZE PUSH0 DUP1 RETURNDATACOPY RETURNDATASIZE PUSH0 REVERT JUMPDEST POP POP POP POP PUSH1 0x40 MLOAD RETURNDATASIZE PUSH1 0x1F NOT PUSH1 0x1F DUP3 ADD AND DUP3 ADD DUP1 PUSH1 0x40 MSTORE POP DUP2 ADD SWAP1 PUSH2 0x40B SWAP2 SWAP1 PUSH2 0xEDB JUMP JUMPDEST PUSH1 0x40 MLOAD PUSH2 0x419 SWAP3 SWAP2 SWAP1 PUSH2 0xF06 JUMP JUMPDEST PUSH1 0x40 MLOAD DUP1 SWAP2 SUB SWAP1 LOG1 PUSH0 PUSH2 0x435 DUP7 DUP9 PUSH2 0x8F1 SWAP1 SWAP2 SWAP1 PUSH4 0xFFFFFFFF AND JUMP JUMPDEST SWAP1 POP DUP8 PUSH20 0xFFFFFFFFFFFFFFFFFFFFFFFFFFFFFFFFFFFFFFFF AND PUSH4 0x95EA7B3 PUSH32 0x0 DUP4 PUSH1 0x40 MLOAD DUP4 PUSH4 0xFFFFFFFF AND PUSH1 0xE0 SHL DUP2 MSTORE PUSH1 0x4 ADD PUSH2 0x492 SWAP3 SWAP2 SWAP1 PUSH2 0xF06 JUMP JUMPDEST PUSH1 0x20 PUSH1 0x40 MLOAD DUP1 DUP4 SUB DUP2 PUSH0 DUP8 GAS CALL ISZERO DUP1 ISZERO PUSH2 0x4AE JUMPI RETURNDATASIZE PUSH0 DUP1 RETURNDATACOPY RETURNDATASIZE PUSH0 REVERT JUMPDEST POP POP POP POP PUSH1 0x40 MLOAD RETURNDATASIZE PUSH1 0x1F NOT PUSH1 0x1F DUP3 ADD AND DUP3 ADD DUP1 PUSH1 0x40 MSTORE POP DUP2 ADD SWAP1 PUSH2 0x4D2 SWAP2 SWAP1 PUSH2 0x108D JUMP JUMPDEST POP PUSH1 0x1 SWAP2 POP POP SWAP7 SWAP6 POP POP POP POP POP POP JUMP JUMPDEST PUSH32 0x0 DUP2 JUMP JUMPDEST PUSH20 0xD10A9EC6E827B13CF399FCC7E6424F233E99562A DUP2 JUMP JUMPDEST PUSH0 PUSH2 0x53F PUSH20 0x64B6F44862E8800EBD63CD7F1319C8BF0BC1BB99 CALLER ADDRESS DUP6 PUSH2 0x906 JUMP JUMPDEST PUSH2 0x57E PUSH20 0x64B6F44862E8800EBD63CD7F1319C8BF0BC1BB99 PUSH32 0x0 DUP5 PUSH2 0xA39 JUMP JUMPDEST PUSH0 PUSH1 0x40 MLOAD DUP1 PUSH1 0xE0 ADD PUSH1 0x40 MSTORE DUP1 PUSH20 0x64B6F44862E8800EBD63CD7F1319C8BF0BC1BB99 PUSH20 0xFFFFFFFFFFFFFFFFFFFFFFFFFFFFFFFFFFFFFFFF AND DUP2 MSTORE PUSH1 0x20 ADD PUSH20 0xD10A9EC6E827B13CF399FCC7E6424F233E99562A PUSH20 0xFFFFFFFFFFFFFFFFFFFFFFFFFFFFFFFFFFFFFFFF AND DUP2 MSTORE PUSH1 0x20 ADD PUSH2 0x1F4 PUSH3 0xFFFFFF AND DUP2 MSTORE PUSH1 0x20 ADD ADDRESS PUSH20 0xFFFFFFFFFFFFFFFFFFFFFFFFFFFFFFFFFFFFFFFF AND DUP2 MSTORE PUSH1 0x20 ADD DUP5 DUP2 MSTORE PUSH1 0x20 ADD PUSH0 DUP2 MSTORE PUSH1 0x20 ADD PUSH0 PUSH20 0xFFFFFFFFFFFFFFFFFFFFFFFFFFFFFFFFFFFFFFFF AND DUP2 MSTORE POP SWAP1 POP PUSH0 PUSH32 0x0 PUSH20 0xFFFFFFFFFFFFFFFFFFFFFFFFFFFFFFFFFFFFFFFF AND PUSH4 0x4E45AAF DUP4 PUSH1 0x40 MLOAD DUP3 PUSH4 0xFFFFFFFF AND PUSH1 0xE0 SHL DUP2 MSTORE PUSH1 0x4 ADD PUSH2 0x695 SWAP2 SWAP1 PUSH2 0x118E JUMP JUMPDEST PUSH1 0x20 PUSH1 0x40 MLOAD DUP1 DUP4 SUB DUP2 PUSH0 DUP8 GAS CALL ISZERO DUP1 ISZERO PUSH2 0x6B1 JUMPI RETURNDATASIZE PUSH0 DUP1 RETURNDATACOPY RETURNDATASIZE PUSH0 REVERT JUMPDEST POP POP POP POP PUSH1 0x40 MLOAD RETURNDATASIZE PUSH1 0x1F NOT PUSH1 0x1F DUP3 ADD AND DUP3 ADD DUP1 PUSH1 0x40 MSTORE POP DUP2 ADD SWAP1 PUSH2 0x6D5 SWAP2 SWAP1 PUSH2 0xEDB JUMP JUMPDEST SWAP1 POP PUSH2 0x736 PUSH20 0xD10A9EC6E827B13CF399FCC7E6424F233E99562A PUSH32 0x0 PUSH32 0xFFFFFFFFFFFFFFFFFFFFFFFFFFFFFFFFFFFFFFFFFFFFFFFFFFFFFFFFFFFFFFFF PUSH2 0xA39 JUMP JUMPDEST PUSH0 PUSH1 0x40 MLOAD DUP1 PUSH1 0xE0 ADD PUSH1 0x40 MSTORE DUP1 PUSH20 0xD10A9EC6E827B13CF399FCC7E6424F233E99562A PUSH20 0xFFFFFFFFFFFFFFFFFFFFFFFFFFFFFFFFFFFFFFFF AND DUP2 MSTORE PUSH1 0x20 ADD PUSH20 0x64B6F44862E8800EBD63CD7F1319C8BF0BC1BB99 PUSH20 0xFFFFFFFFFFFFFFFFFFFFFFFFFFFFFFFFFFFFFFFF AND DUP2 MSTORE PUSH1 0x20 ADD PUSH2 0xBB8 PUSH3 0xFFFFFF AND DUP2 MSTORE PUSH1 0x20 ADD CALLER PUSH20 0xFFFFFFFFFFFFFFFFFFFFFFFFFFFFFFFFFFFFFFFF AND DUP2 MSTORE PUSH1 0x20 ADD DUP4 DUP2 MSTORE PUSH1 0x20 ADD PUSH0 DUP2 MSTORE PUSH1 0x20 ADD PUSH0 PUSH20 0xFFFFFFFFFFFFFFFFFFFFFFFFFFFFFFFFFFFFFFFF AND DUP2 MSTORE POP SWAP1 POP PUSH32 0x0 PUSH20 0xFFFFFFFFFFFFFFFFFFFFFFFFFFFFFFFFFFFFFFFF AND PUSH4 0x4E45AAF DUP3 PUSH1 0x40 MLOAD DUP3 PUSH4 0xFFFFFFFF AND PUSH1 0xE0 SHL DUP2 MSTORE PUSH1 0x4 ADD PUSH2 0x84C SWAP2 SWAP1 PUSH2 0x118E JUMP JUMPDEST PUSH1 0x20 PUSH1 0x40 MLOAD DUP1 DUP4 SUB DUP2 PUSH0 DUP8 GAS CALL ISZERO DUP1 ISZERO PUSH2 0x868 JUMPI RETURNDATASIZE PUSH0 DUP1 RETURNDATACOPY RETURNDATASIZE PUSH0 REVERT JUMPDEST POP POP POP POP PUSH1 0x40 MLOAD RETURNDATASIZE PUSH1 0x1F NOT PUSH1 0x1F DUP3 ADD AND DUP3 ADD DUP1 PUSH1 0x40 MSTORE POP DUP2 ADD SWAP1 PUSH2 0x88C SWAP2 SWAP1 PUSH2 0xEDB JUMP JUMPDEST SWAP4 POP PUSH32 0x3BB2EF743367D6BF518E353CE6F97647577A7BA1B971FEECABD1BF42BE1B55A3 DUP5 PUSH1 0x40 MLOAD PUSH2 0x8BD SWAP2 SWAP1 PUSH2 0xE75 JUMP JUMPDEST PUSH1 0x40 MLOAD DUP1 SWAP2 SUB SWAP1 LOG1 POP POP POP SWAP2 SWAP1 POP JUMP JUMPDEST PUSH32 0x0 DUP2 JUMP JUMPDEST PUSH0 DUP2 DUP4 PUSH2 0x8FE SWAP2 SWAP1 PUSH2 0x11D4 JUMP JUMPDEST SWAP1 POP SWAP3 SWAP2 POP POP JUMP JUMPDEST PUSH0 DUP1 DUP6 PUSH20 0xFFFFFFFFFFFFFFFFFFFFFFFFFFFFFFFFFFFFFFFF AND PUSH4 0x23B872DD DUP7 DUP7 DUP7 PUSH1 0x40 MLOAD PUSH1 0x24 ADD PUSH2 0x939 SWAP4 SWAP3 SWAP2 SWAP1 PUSH2 0x1207 JUMP JUMPDEST PUSH1 0x40 MLOAD PUSH1 0x20 DUP2 DUP4 SUB SUB DUP2 MSTORE SWAP1 PUSH1 0x40 MSTORE SWAP1 PUSH1 0xE0 SHL PUSH1 0x20 DUP3 ADD DUP1 MLOAD PUSH28 0xFFFFFFFFFFFFFFFFFFFFFFFFFFFFFFFFFFFFFFFFFFFFFFFFFFFFFFFF DUP4 DUP2 DUP4 AND OR DUP4 MSTORE POP POP POP POP PUSH1 0x40 MLOAD PUSH2 0x987 SWAP2 SWAP1 PUSH2 0x1276 JUMP JUMPDEST PUSH0 PUSH1 0x40 MLOAD DUP1 DUP4 SUB DUP2 PUSH0 DUP7 GAS CALL SWAP2 POP POP RETURNDATASIZE DUP1 PUSH0 DUP2 EQ PUSH2 0x9C0 JUMPI PUSH1 0x40 MLOAD SWAP2 POP PUSH1 0x1F NOT PUSH1 0x3F RETURNDATASIZE ADD AND DUP3 ADD PUSH1 0x40 MSTORE RETURNDATASIZE DUP3 MSTORE RETURNDATASIZE PUSH0 PUSH1 0x20 DUP5 ADD RETURNDATACOPY PUSH2 0x9C5 JUMP JUMPDEST PUSH1 0x60 SWAP2 POP JUMPDEST POP SWAP2 POP SWAP2 POP DUP2 DUP1 ISZERO PUSH2 0x9F2 JUMPI POP PUSH0 DUP2 MLOAD EQ DUP1 PUSH2 0x9F1 JUMPI POP DUP1 DUP1 PUSH1 0x20 ADD SWAP1 MLOAD DUP2 ADD SWAP1 PUSH2 0x9F0 SWAP2 SWAP1 PUSH2 0x108D JUMP JUMPDEST JUMPDEST JUMPDEST PUSH2 0xA31 JUMPI PUSH1 0x40 MLOAD PUSH32 0x8C379A000000000000000000000000000000000000000000000000000000000 DUP2 MSTORE PUSH1 0x4 ADD PUSH2 0xA28 SWAP1 PUSH2 0x130C JUMP JUMPDEST PUSH1 0x40 MLOAD DUP1 SWAP2 SUB SWAP1 REVERT JUMPDEST POP POP POP POP POP POP JUMP JUMPDEST PUSH0 DUP1 DUP5 PUSH20 0xFFFFFFFFFFFFFFFFFFFFFFFFFFFFFFFFFFFFFFFF AND PUSH4 0x95EA7B3 DUP6 DUP6 PUSH1 0x40 MLOAD PUSH1 0x24 ADD PUSH2 0xA6A SWAP3 SWAP2 SWAP1 PUSH2 0xF06 JUMP JUMPDEST PUSH1 0x40 MLOAD PUSH1 0x20 DUP2 DUP4 SUB SUB DUP2 MSTORE SWAP1 PUSH1 0x40 MSTORE SWAP1 PUSH1 0xE0 SHL PUSH1 0x20 DUP3 ADD DUP1 MLOAD PUSH28 0xFFFFFFFFFFFFFFFFFFFFFFFFFFFFFFFFFFFFFFFFFFFFFFFFFFFFFFFF DUP4 DUP2 DUP4 AND OR DUP4 MSTORE POP POP POP POP PUSH1 0x40 MLOAD PUSH2 0xAB8 SWAP2 SWAP1 PUSH2 0x1276 JUMP JUMPDEST PUSH0 PUSH1 0x40 MLOAD DUP1 DUP4 SUB DUP2 PUSH0 DUP7 GAS CALL SWAP2 POP POP RETURNDATASIZE DUP1 PUSH0 DUP2 EQ PUSH2 0xAF1 JUMPI PUSH1 0x40 MLOAD SWAP2 POP PUSH1 0x1F NOT PUSH1 0x3F RETURNDATASIZE ADD AND DUP3 ADD PUSH1 0x40 MSTORE RETURNDATASIZE DUP3 MSTORE RETURNDATASIZE PUSH0 PUSH1 0x20 DUP5 ADD RETURNDATACOPY PUSH2 0xAF6 JUMP JUMPDEST PUSH1 0x60 SWAP2 POP JUMPDEST POP SWAP2 POP SWAP2 POP DUP2 DUP1 ISZERO PUSH2 0xB23 JUMPI POP PUSH0 DUP2 MLOAD EQ DUP1 PUSH2 0xB22 JUMPI POP DUP1 DUP1 PUSH1 0x20 ADD SWAP1 MLOAD DUP2 ADD SWAP1 PUSH2 0xB21 SWAP2 SWAP1 PUSH2 0x108D JUMP JUMPDEST JUMPDEST JUMPDEST PUSH2 0xB62 JUMPI PUSH1 0x40 MLOAD PUSH32 0x8C379A000000000000000000000000000000000000000000000000000000000 DUP2 MSTORE PUSH1 0x4 ADD PUSH2 0xB59 SWAP1 PUSH2 0x139A JUMP JUMPDEST PUSH1 0x40 MLOAD DUP1 SWAP2 SUB SWAP1 REVERT JUMPDEST POP POP POP POP POP JUMP JUMPDEST PUSH0 PUSH20 0xFFFFFFFFFFFFFFFFFFFFFFFFFFFFFFFFFFFFFFFF DUP3 AND SWAP1 POP SWAP2 SWAP1 POP JUMP JUMPDEST PUSH0 DUP2 SWAP1 POP SWAP2 SWAP1 POP JUMP JUMPDEST PUSH0 PUSH2 0xBAB PUSH2 0xBA6 PUSH2 0xBA1 DUP5 PUSH2 0xB69 JUMP JUMPDEST PUSH2 0xB88 JUMP JUMPDEST PUSH2 0xB69 JUMP JUMPDEST SWAP1 POP SWAP2 SWAP1 POP JUMP JUMPDEST PUSH0 PUSH2 0xBBC DUP3 PUSH2 0xB91 JUMP JUMPDEST SWAP1 POP SWAP2 SWAP1 POP JUMP JUMPDEST PUSH0 PUSH2 0xBCD DUP3 PUSH2 0xBB2 JUMP JUMPDEST SWAP1 POP SWAP2 SWAP1 POP JUMP JUMPDEST PUSH2 0xBDD DUP2 PUSH2 0xBC3 JUMP JUMPDEST DUP3 MSTORE POP POP JUMP JUMPDEST PUSH0 PUSH1 0x20 DUP3 ADD SWAP1 POP PUSH2 0xBF6 PUSH0 DUP4 ADD DUP5 PUSH2 0xBD4 JUMP JUMPDEST SWAP3 SWAP2 POP POP JUMP JUMPDEST PUSH0 DUP1 REVERT JUMPDEST PUSH0 DUP1 REVERT JUMPDEST PUSH0 PUSH2 0xC0E DUP3 PUSH2 0xB69 JUMP JUMPDEST SWAP1 POP SWAP2 SWAP1 POP JUMP JUMPDEST PUSH2 0xC1E DUP2 PUSH2 0xC04 JUMP JUMPDEST DUP2 EQ PUSH2 0xC28 JUMPI PUSH0 DUP1 REVERT JUMPDEST POP JUMP JUMPDEST PUSH0 DUP2 CALLDATALOAD SWAP1 POP PUSH2 0xC39 DUP2 PUSH2 0xC15 JUMP JUMPDEST SWAP3 SWAP2 POP POP JUMP JUMPDEST PUSH0 DUP2 SWAP1 POP SWAP2 SWAP1 POP JUMP JUMPDEST PUSH2 0xC51 DUP2 PUSH2 0xC3F JUMP JUMPDEST DUP2 EQ PUSH2 0xC5B JUMPI PUSH0 DUP1 REVERT JUMPDEST POP JUMP JUMPDEST PUSH0 DUP2 CALLDATALOAD SWAP1 POP PUSH2 0xC6C DUP2 PUSH2 0xC48 JUMP JUMPDEST SWAP3 SWAP2 POP POP JUMP JUMPDEST PUSH0 DUP1 PUSH1 0x40 DUP4 DUP6 SUB SLT ISZERO PUSH2 0xC88 JUMPI PUSH2 0xC87 PUSH2 0xBFC JUMP JUMPDEST JUMPDEST PUSH0 PUSH2 0xC95 DUP6 DUP3 DUP7 ADD PUSH2 0xC2B JUMP JUMPDEST SWAP3 POP POP PUSH1 0x20 PUSH2 0xCA6 DUP6 DUP3 DUP7 ADD PUSH2 0xC5E JUMP JUMPDEST SWAP2 POP POP SWAP3 POP SWAP3 SWAP1 POP JUMP JUMPDEST PUSH0 DUP1 REVERT JUMPDEST PUSH0 DUP1 REVERT JUMPDEST PUSH0 DUP1 REVERT JUMPDEST PUSH0 DUP1 DUP4 PUSH1 0x1F DUP5 ADD SLT PUSH2 0xCD1 JUMPI PUSH2 0xCD0 PUSH2 0xCB0 JUMP JUMPDEST JUMPDEST DUP3 CALLDATALOAD SWAP1 POP PUSH8 0xFFFFFFFFFFFFFFFF DUP2 GT ISZERO PUSH2 0xCEE JUMPI PUSH2 0xCED PUSH2 0xCB4 JUMP JUMPDEST JUMPDEST PUSH1 0x20 DUP4 ADD SWAP2 POP DUP4 PUSH1 0x1 DUP3 MUL DUP4 ADD GT ISZERO PUSH2 0xD0A JUMPI PUSH2 0xD09 PUSH2 0xCB8 JUMP JUMPDEST JUMPDEST SWAP3 POP SWAP3 SWAP1 POP JUMP JUMPDEST PUSH0 DUP1 PUSH0 DUP1 PUSH0 DUP1 PUSH1 0xA0 DUP8 DUP10 SUB SLT ISZERO PUSH2 0xD2B JUMPI PUSH2 0xD2A PUSH2 0xBFC JUMP JUMPDEST JUMPDEST PUSH0 PUSH2 0xD38 DUP10 DUP3 DUP11 ADD PUSH2 0xC2B JUMP JUMPDEST SWAP7 POP POP PUSH1 0x20 PUSH2 0xD49 DUP10 DUP3 DUP11 ADD PUSH2 0xC5E JUMP JUMPDEST SWAP6 POP POP PUSH1 0x40 PUSH2 0xD5A DUP10 DUP3 DUP11 ADD PUSH2 0xC5E JUMP JUMPDEST SWAP5 POP POP PUSH1 0x60 PUSH2 0xD6B DUP10 DUP3 DUP11 ADD PUSH2 0xC2B JUMP JUMPDEST SWAP4 POP POP PUSH1 0x80 DUP8 ADD CALLDATALOAD PUSH8 0xFFFFFFFFFFFFFFFF DUP2 GT ISZERO PUSH2 0xD8C JUMPI PUSH2 0xD8B PUSH2 0xC00 JUMP JUMPDEST JUMPDEST PUSH2 0xD98 DUP10 DUP3 DUP11 ADD PUSH2 0xCBC JUMP JUMPDEST SWAP3 POP SWAP3 POP POP SWAP3 SWAP6 POP SWAP3 SWAP6 POP SWAP3 SWAP6 JUMP JUMPDEST PUSH0 DUP2 ISZERO ISZERO SWAP1 POP SWAP2 SWAP1 POP JUMP JUMPDEST PUSH2 0xDBB DUP2 PUSH2 0xDA7 JUMP JUMPDEST DUP3 MSTORE POP POP JUMP JUMPDEST PUSH0 PUSH1 0x20 DUP3 ADD SWAP1 POP PUSH2 0xDD4 PUSH0 DUP4 ADD DUP5 PUSH2 0xDB2 JUMP JUMPDEST SWAP3 SWAP2 POP POP JUMP JUMPDEST PUSH0 PUSH2 0xDE4 DUP3 PUSH2 0xBB2 JUMP JUMPDEST SWAP1 POP SWAP2 SWAP1 POP JUMP JUMPDEST PUSH2 0xDF4 DUP2 PUSH2 0xDDA JUMP JUMPDEST DUP3 MSTORE POP POP JUMP JUMPDEST PUSH0 PUSH1 0x20 DUP3 ADD SWAP1 POP PUSH2 0xE0D PUSH0 DUP4 ADD DUP5 PUSH2 0xDEB JUMP JUMPDEST SWAP3 SWAP2 POP POP JUMP JUMPDEST PUSH2 0xE1C DUP2 PUSH2 0xC04 JUMP JUMPDEST DUP3 MSTORE POP POP JUMP JUMPDEST PUSH0 PUSH1 0x20 DUP3 ADD SWAP1 POP PUSH2 0xE35 PUSH0 DUP4 ADD DUP5 PUSH2 0xE13 JUMP JUMPDEST SWAP3 SWAP2 POP POP JUMP JUMPDEST PUSH0 PUSH1 0x20 DUP3 DUP5 SUB SLT ISZERO PUSH2 0xE50 JUMPI PUSH2 0xE4F PUSH2 0xBFC JUMP JUMPDEST JUMPDEST PUSH0 PUSH2 0xE5D DUP5 DUP3 DUP6 ADD PUSH2 0xC5E JUMP JUMPDEST SWAP2 POP POP SWAP3 SWAP2 POP POP JUMP JUMPDEST PUSH2 0xE6F DUP2 PUSH2 0xC3F JUMP JUMPDEST DUP3 MSTORE POP POP JUMP JUMPDEST PUSH0 PUSH1 0x20 DUP3 ADD SWAP1 POP PUSH2 0xE88 PUSH0 DUP4 ADD DUP5 PUSH2 0xE66 JUMP JUMPDEST SWAP3 SWAP2 POP POP JUMP JUMPDEST PUSH0 PUSH2 0xE98 DUP3 PUSH2 0xBB2 JUMP JUMPDEST SWAP1 POP SWAP2 SWAP1 POP JUMP JUMPDEST PUSH2 0xEA8 DUP2 PUSH2 0xE8E JUMP JUMPDEST DUP3 MSTORE POP POP JUMP JUMPDEST PUSH0 PUSH1 0x20 DUP3 ADD SWAP1 POP PUSH2 0xEC1 PUSH0 DUP4 ADD DUP5 PUSH2 0xE9F JUMP JUMPDEST SWAP3 SWAP2 POP POP JUMP JUMPDEST PUSH0 DUP2 MLOAD SWAP1 POP PUSH2 0xED5 DUP2 PUSH2 0xC48 JUMP JUMPDEST SWAP3 SWAP2 POP POP JUMP JUMPDEST PUSH0 PUSH1 0x20 DUP3 DUP5 SUB SLT ISZERO PUSH2 0xEF0 JUMPI PUSH2 0xEEF PUSH2 0xBFC JUMP JUMPDEST JUMPDEST PUSH0 PUSH2 0xEFD DUP5 DUP3 DUP6 ADD PUSH2 0xEC7 JUMP JUMPDEST SWAP2 POP POP SWAP3 SWAP2 POP POP JUMP JUMPDEST PUSH0 PUSH1 0x40 DUP3 ADD SWAP1 POP PUSH2 0xF19 PUSH0 DUP4 ADD DUP6 PUSH2 0xE13 JUMP JUMPDEST PUSH2 0xF26 PUSH1 0x20 DUP4 ADD DUP5 PUSH2 0xE66 JUMP JUMPDEST SWAP4 SWAP3 POP POP POP JUMP JUMPDEST PUSH0 DUP2 MLOAD SWAP1 POP SWAP2 SWAP1 POP JUMP JUMPDEST PUSH0 DUP3 DUP3 MSTORE PUSH1 0x20 DUP3 ADD SWAP1 POP SWAP3 SWAP2 POP POP JUMP JUMPDEST DUP3 DUP2 DUP4 MCOPY PUSH0 DUP4 DUP4 ADD MSTORE POP POP POP JUMP JUMPDEST PUSH0 PUSH1 0x1F NOT PUSH1 0x1F DUP4 ADD AND SWAP1 POP SWAP2 SWAP1 POP JUMP JUMPDEST PUSH0 PUSH2 0xF6F DUP3 PUSH2 0xF2D JUMP JUMPDEST PUSH2 0xF79 DUP2 DUP6 PUSH2 0xF37 JUMP JUMPDEST SWAP4 POP PUSH2 0xF89 DUP2 DUP6 PUSH1 0x20 DUP7 ADD PUSH2 0xF47 JUMP JUMPDEST PUSH2 0xF92 DUP2 PUSH2 0xF55 JUMP JUMPDEST DUP5 ADD SWAP2 POP POP SWAP3 SWAP2 POP POP JUMP JUMPDEST PUSH0 PUSH2 0xFFFF DUP3 AND SWAP1 POP SWAP2 SWAP1 POP JUMP JUMPDEST PUSH2 0xFB3 DUP2 PUSH2 0xF9D JUMP JUMPDEST DUP3 MSTORE POP POP JUMP JUMPDEST PUSH0 PUSH1 0xA0 DUP3 ADD SWAP1 POP PUSH2 0xFCC PUSH0 DUP4 ADD DUP9 PUSH2 0xE13 JUMP JUMPDEST PUSH2 0xFD9 PUSH1 0x20 DUP4 ADD DUP8 PUSH2 0xE13 JUMP JUMPDEST PUSH2 0xFE6 PUSH1 0x40 DUP4 ADD DUP7 PUSH2 0xE66 JUMP JUMPDEST DUP2 DUP2 SUB PUSH1 0x60 DUP4 ADD MSTORE PUSH2 0xFF8 DUP2 DUP6 PUSH2 0xF65 JUMP JUMPDEST SWAP1 POP PUSH2 0x1007 PUSH1 0x80 DUP4 ADD DUP5 PUSH2 0xFAA JUMP JUMPDEST SWAP7 SWAP6 POP POP POP POP POP POP JUMP JUMPDEST PUSH0 DUP2 SWAP1 POP SWAP2 SWAP1 POP JUMP JUMPDEST PUSH0 PUSH2 0x1034 PUSH2 0x102F PUSH2 0x102A DUP5 PUSH2 0x1011 JUMP JUMPDEST PUSH2 0xB88 JUMP JUMPDEST PUSH2 0xC3F JUMP JUMPDEST SWAP1 POP SWAP2 SWAP1 POP JUMP JUMPDEST PUSH2 0x1044 DUP2 PUSH2 0x101A JUMP JUMPDEST DUP3 MSTORE POP POP JUMP JUMPDEST PUSH0 PUSH1 0x20 DUP3 ADD SWAP1 POP PUSH2 0x105D PUSH0 DUP4 ADD DUP5 PUSH2 0x103B JUMP JUMPDEST SWAP3 SWAP2 POP POP JUMP JUMPDEST PUSH2 0x106C DUP2 PUSH2 0xDA7 JUMP JUMPDEST DUP2 EQ PUSH2 0x1076 JUMPI PUSH0 DUP1 REVERT JUMPDEST POP JUMP JUMPDEST PUSH0 DUP2 MLOAD SWAP1 POP PUSH2 0x1087 DUP2 PUSH2 0x1063 JUMP JUMPDEST SWAP3 SWAP2 POP POP JUMP JUMPDEST PUSH0 PUSH1 0x20 DUP3 DUP5 SUB SLT ISZERO PUSH2 0x10A2 JUMPI PUSH2 0x10A1 PUSH2 0xBFC JUMP JUMPDEST JUMPDEST PUSH0 PUSH2 0x10AF DUP5 DUP3 DUP6 ADD PUSH2 0x1079 JUMP JUMPDEST SWAP2 POP POP SWAP3 SWAP2 POP POP JUMP JUMPDEST PUSH2 0x10C1 DUP2 PUSH2 0xC04 JUMP JUMPDEST DUP3 MSTORE POP POP JUMP JUMPDEST PUSH0 PUSH3 0xFFFFFF DUP3 AND SWAP1 POP SWAP2 SWAP1 POP JUMP JUMPDEST PUSH2 0x10DE DUP2 PUSH2 0x10C7 JUMP JUMPDEST DUP3 MSTORE POP POP JUMP JUMPDEST PUSH2 0x10ED DUP2 PUSH2 0xC3F JUMP JUMPDEST DUP3 MSTORE POP POP JUMP JUMPDEST PUSH2 0x10FC DUP2 PUSH2 0xB69 JUMP JUMPDEST DUP3 MSTORE POP POP JUMP JUMPDEST PUSH1 0xE0 DUP3 ADD PUSH0 DUP3 ADD MLOAD PUSH2 0x1116 PUSH0 DUP6 ADD DUP3 PUSH2 0x10B8 JUMP JUMPDEST POP PUSH1 0x20 DUP3 ADD MLOAD PUSH2 0x1129 PUSH1 0x20 DUP6 ADD DUP3 PUSH2 0x10B8 JUMP JUMPDEST POP PUSH1 0x40 DUP3 ADD MLOAD PUSH2 0x113C PUSH1 0x40 DUP6 ADD DUP3 PUSH2 0x10D5 JUMP JUMPDEST POP PUSH1 0x60 DUP3 ADD MLOAD PUSH2 0x114F PUSH1 0x60 DUP6 ADD DUP3 PUSH2 0x10B8 JUMP JUMPDEST POP PUSH1 0x80 DUP3 ADD MLOAD PUSH2 0x1162 PUSH1 0x80 DUP6 ADD DUP3 PUSH2 0x10E4 JUMP JUMPDEST POP PUSH1 0xA0 DUP3 ADD MLOAD PUSH2 0x1175 PUSH1 0xA0 DUP6 ADD DUP3 PUSH2 0x10E4 JUMP JUMPDEST POP PUSH1 0xC0 DUP3 ADD MLOAD PUSH2 0x1188 PUSH1 0xC0 DUP6 ADD DUP3 PUSH2 0x10F3 JUMP JUMPDEST POP POP POP POP JUMP JUMPDEST PUSH0 PUSH1 0xE0 DUP3 ADD SWAP1 POP PUSH2 0x11A1 PUSH0 DUP4 ADD DUP5 PUSH2 0x1102 JUMP JUMPDEST SWAP3 SWAP2 POP POP JUMP JUMPDEST PUSH32 0x4E487B7100000000000000000000000000000000000000000000000000000000 PUSH0 MSTORE PUSH1 0x11 PUSH1 0x4 MSTORE PUSH1 0x24 PUSH0 REVERT JUMPDEST PUSH0 PUSH2 0x11DE DUP3 PUSH2 0xC3F JUMP JUMPDEST SWAP2 POP PUSH2 0x11E9 DUP4 PUSH2 0xC3F JUMP JUMPDEST SWAP3 POP DUP3 DUP3 ADD SWAP1 POP DUP1 DUP3 GT ISZERO PUSH2 0x1201 JUMPI PUSH2 0x1200 PUSH2 0x11A7 JUMP JUMPDEST JUMPDEST SWAP3 SWAP2 POP POP JUMP JUMPDEST PUSH0 PUSH1 0x60 DUP3 ADD SWAP1 POP PUSH2 0x121A PUSH0 DUP4 ADD DUP7 PUSH2 0xE13 JUMP JUMPDEST PUSH2 0x1227 PUSH1 0x20 DUP4 ADD DUP6 PUSH2 0xE13 JUMP JUMPDEST PUSH2 0x1234 PUSH1 0x40 DUP4 ADD DUP5 PUSH2 0xE66 JUMP JUMPDEST SWAP5 SWAP4 POP POP POP POP JUMP JUMPDEST PUSH0 DUP2 SWAP1 POP SWAP3 SWAP2 POP POP JUMP JUMPDEST PUSH0 PUSH2 0x1250 DUP3 PUSH2 0xF2D JUMP JUMPDEST PUSH2 0x125A DUP2 DUP6 PUSH2 0x123C JUMP JUMPDEST SWAP4 POP PUSH2 0x126A DUP2 DUP6 PUSH1 0x20 DUP7 ADD PUSH2 0xF47 JUMP JUMPDEST DUP1 DUP5 ADD SWAP2 POP POP SWAP3 SWAP2 POP POP JUMP JUMPDEST PUSH0 PUSH2 0x1281 DUP3 DUP5 PUSH2 0x1246 JUMP JUMPDEST SWAP2 POP DUP2 SWAP1 POP SWAP3 SWAP2 POP POP JUMP JUMPDEST PUSH0 DUP3 DUP3 MSTORE PUSH1 0x20 DUP3 ADD SWAP1 POP SWAP3 SWAP2 POP POP JUMP JUMPDEST PUSH32 0x5472616E7366657248656C7065723A3A7472616E7366657246726F6D3A207472 PUSH0 DUP3 ADD MSTORE PUSH32 0x616E7366657246726F6D206661696C6564000000000000000000000000000000 PUSH1 0x20 DUP3 ADD MSTORE POP JUMP JUMPDEST PUSH0 PUSH2 0x12F6 PUSH1 0x31 DUP4 PUSH2 0x128C JUMP JUMPDEST SWAP2 POP PUSH2 0x1301 DUP3 PUSH2 0x129C JUMP JUMPDEST PUSH1 0x40 DUP3 ADD SWAP1 POP SWAP2 SWAP1 POP JUMP JUMPDEST PUSH0 PUSH1 0x20 DUP3 ADD SWAP1 POP DUP2 DUP2 SUB PUSH0 DUP4 ADD MSTORE PUSH2 0x1323 DUP2 PUSH2 0x12EA JUMP JUMPDEST SWAP1 POP SWAP2 SWAP1 POP JUMP JUMPDEST PUSH32 0x5472616E7366657248656C7065723A3A73616665417070726F76653A20617070 PUSH0 DUP3 ADD MSTORE PUSH32 0x726F7665206661696C6564000000000000000000000000000000000000000000 PUSH1 0x20 DUP3 ADD MSTORE POP JUMP JUMPDEST PUSH0 PUSH2 0x1384 PUSH1 0x2B DUP4 PUSH2 0x128C JUMP JUMPDEST SWAP2 POP PUSH2 0x138F DUP3 PUSH2 0x132A JUMP JUMPDEST PUSH1 0x40 DUP3 ADD SWAP1 POP SWAP2 SWAP1 POP JUMP JUMPDEST PUSH0 PUSH1 0x20 DUP3 ADD SWAP1 POP DUP2 DUP2 SUB PUSH0 DUP4 ADD MSTORE PUSH2 0x13B1 DUP2 PUSH2 0x1378 JUMP JUMPDEST SWAP1 POP SWAP2 SWAP1 POP JUMP INVALID LOG2 PUSH5 0x6970667358 0x22 SLT KECCAK256 PUSH30 0xE9C2CD2B7CC26F8B5140B2E7AECFF2178D612E7B49F582731B60F774ADF3 0xEB PUSH5 0x736F6C6343 STOP ADDMOD NOT STOP CALLER "
				},
				"gasEstimates": {
					"creation": {
						"codeDepositCost": "1020400",
						"executionCost": "infinite",
						"totalCost": "infinite"
					},
					"external": {
						"ADDRESSES_PROVIDER()": "infinite",
						"POOL()": "infinite",
						"UETH()": "395",
						"createFlashLoan(address,uint256)": "infinite",
						"doArbitrage(uint256)": "infinite",
						"executeOperation(address,uint256,uint256,address,bytes)": "infinite",
						"swapRouter()": "infinite"
					}
				},
				"methodIdentifiers": {
					"ADDRESSES_PROVIDER()": "0542975c",
					"POOL()": "7535d246",
					"UETH()": "82d2dcfb",
					"createFlashLoan(address,uint256)": "0a6095da",
					"doArbitrage(uint256)": "a048600d",
					"executeOperation(address,uint256,uint256,address,bytes)": "1b11d0ff",
					"swapRouter()": "c31c9c07"
				}
			},
			"storageLayout": {
				"storage": [],
				"types": null
			},
			"userdoc": {
				"kind": "user",
				"methods": {
					"executeOperation(address,uint256,uint256,address,bytes)": {
						"notice": "Executes an operation after receiving the flash-borrowed asset"
					}
				},
				"version": 1
			}
		}
	}
}