{
	"Arbitrage.sol": {
		"SimpleFlashLoan": {
			"abi": [
				{
					"inputs": [
						{
							"internalType": "address",
							"name": "_addressProvider",
							"type": "address"
						}
					],
					"stateMutability": "nonpayable",
					"type": "constructor"
				},
				{
					"inputs": [],
					"name": "ADDRESSES_PROVIDER",
					"outputs": [
						{
							"internalType": "contract IPoolAddressesProvider",
							"name": "",
							"type": "address"
						}
					],
					"stateMutability": "view",
					"type": "function"
				},
				{
					"inputs": [],
					"name": "POOL",
					"outputs": [
						{
							"internalType": "contract IPool",
							"name": "",
							"type": "address"
						}
					],
					"stateMutability": "view",
					"type": "function"
				},
				{
					"inputs": [],
					"name": "cpamm1",
					"outputs": [
						{
							"internalType": "contract ICPAMM",
							"name": "",
							"type": "address"
						}
					],
					"stateMutability": "view",
					"type": "function"
				},
				{
					"inputs": [],
					"name": "cpamm1Address",
					"outputs": [
						{
							"internalType": "address",
							"name": "",
							"type": "address"
						}
					],
					"stateMutability": "view",
					"type": "function"
				},
				{
					"inputs": [],
					"name": "cpamm2",
					"outputs": [
						{
							"internalType": "contract ICPAMM",
							"name": "",
							"type": "address"
						}
					],
					"stateMutability": "view",
					"type": "function"
				},
				{
					"inputs": [],
					"name": "cpamm2Address",
					"outputs": [
						{
							"internalType": "address",
							"name": "",
							"type": "address"
						}
					],
					"stateMutability": "view",
					"type": "function"
				},
				{
					"inputs": [],
					"name": "cpamm3",
					"outputs": [
						{
							"internalType": "contract ICPAMM",
							"name": "",
							"type": "address"
						}
					],
					"stateMutability": "view",
					"type": "function"
				},
				{
					"inputs": [],
					"name": "cpamm3Address",
					"outputs": [
						{
							"internalType": "address",
							"name": "",
							"type": "address"
						}
					],
					"stateMutability": "view",
					"type": "function"
				},
				{
					"inputs": [
						{
							"internalType": "address",
							"name": "asset",
							"type": "address"
						},
						{
							"internalType": "uint256",
							"name": "amount",
							"type": "uint256"
						},
						{
							"internalType": "uint256",
							"name": "premium",
							"type": "uint256"
						},
						{
							"internalType": "address",
							"name": "initiator",
							"type": "address"
						},
						{
							"internalType": "bytes",
							"name": "params",
							"type": "bytes"
						}
					],
					"name": "executeOperation",
					"outputs": [
						{
							"internalType": "bool",
							"name": "",
							"type": "bool"
						}
					],
					"stateMutability": "nonpayable",
					"type": "function"
				},
				{
					"inputs": [
						{
							"internalType": "address",
							"name": "_token",
							"type": "address"
						},
						{
							"internalType": "uint256",
							"name": "_amount",
							"type": "uint256"
						},
						{
							"internalType": "bool",
							"name": "_path",
							"type": "bool"
						}
					],
					"name": "fn_RequestFlashLoan",
					"outputs": [],
					"stateMutability": "nonpayable",
					"type": "function"
				},
				{
					"inputs": [
						{
							"internalType": "address",
							"name": "_tokenAddress",
							"type": "address"
						}
					],
					"name": "getBalance",
					"outputs": [
						{
							"internalType": "uint256",
							"name": "",
							"type": "uint256"
						}
					],
					"stateMutability": "view",
					"type": "function"
				}
			],
			"devdoc": {
				"kind": "dev",
				"methods": {
					"executeOperation(address,uint256,uint256,address,bytes)": {
						"details": "Ensure that the contract can return the debt + premium, e.g., has      enough funds to repay and has approved the Pool to pull the total amount",
						"params": {
							"amount": "The amount of the flash-borrowed asset",
							"asset": "The address of the flash-borrowed asset",
							"initiator": "The address of the flashloan initiator",
							"params": "The byte-encoded params passed when initiating the flashloan",
							"premium": "The fee of the flash-borrowed asset"
						},
						"returns": {
							"_0": "True if the execution of the operation succeeds, false otherwise"
						}
					}
				},
				"version": 1
			},
			"evm": {
				"assembly": "    /* \"Arbitrage.sol\":768:5378  contract SimpleFlashLoan is FlashLoanSimpleReceiverBase {... */\n  mstore(0x40, 0xc0)\n    /* \"Arbitrage.sol\":930:972  0xB634e543F94e155d185EB27b61E6AA40b116a2Df */\n  0xb634e543f94e155d185eb27b61e6aa40b116a2df\n    /* \"Arbitrage.sol\":899:972  address public cpamm1Address = 0xB634e543F94e155d185EB27b61E6AA40b116a2Df */\n  0x01\n  exp(0x0100, 0x00)\n  dup2\n  sload\n  dup2\n  0xffffffffffffffffffffffffffffffffffffffff\n  mul\n  not\n  and\n  swap1\n  dup4\n  0xffffffffffffffffffffffffffffffffffffffff\n  and\n  mul\n  or\n  swap1\n  sstore\n  pop\n    /* \"Arbitrage.sol\":1049:1091  0x4304B373A207156CEE82816b21d82605F6aA2F10 */\n  0x4304b373a207156cee82816b21d82605f6aa2f10\n    /* \"Arbitrage.sol\":1018:1091  address public cpamm2Address = 0x4304B373A207156CEE82816b21d82605F6aA2F10 */\n  0x02\n  exp(0x0100, 0x00)\n  dup2\n  sload\n  dup2\n  0xffffffffffffffffffffffffffffffffffffffff\n  mul\n  not\n  and\n  swap1\n  dup4\n  0xffffffffffffffffffffffffffffffffffffffff\n  and\n  mul\n  or\n  swap1\n  sstore\n  pop\n    /* \"Arbitrage.sol\":1168:1210  0x8e9A1928D5F20c794B584667c0a797b5e409219E */\n  0x8e9a1928d5f20c794b584667c0a797b5e409219e\n    /* \"Arbitrage.sol\":1137:1210  address public cpamm3Address = 0x8e9A1928D5F20c794B584667c0a797b5e409219E */\n  0x03\n  exp(0x0100, 0x00)\n  dup2\n  sload\n  dup2\n  0xffffffffffffffffffffffffffffffffffffffff\n  mul\n  not\n  and\n  swap1\n  dup4\n  0xffffffffffffffffffffffffffffffffffffffff\n  and\n  mul\n  or\n  swap1\n  sstore\n  pop\n    /* \"Arbitrage.sol\":1286:1299  cpamm1Address */\n  0x01\n  0x00\n  swap1\n  sload\n  swap1\n  0x0100\n  exp\n  swap1\n  div\n  0xffffffffffffffffffffffffffffffffffffffff\n  and\n    /* \"Arbitrage.sol\":1256:1300  ICPAMM public cpamm1 = ICPAMM(cpamm1Address) */\n  0x04\n  exp(0x0100, 0x00)\n  dup2\n  sload\n  dup2\n  0xffffffffffffffffffffffffffffffffffffffff\n  mul\n  not\n  and\n  swap1\n  dup4\n  0xffffffffffffffffffffffffffffffffffffffff\n  and\n  mul\n  or\n  swap1\n  sstore\n  pop\n    /* \"Arbitrage.sol\":1333:1346  cpamm2Address */\n  0x02\n  0x00\n  swap1\n  sload\n  swap1\n  0x0100\n  exp\n  swap1\n  div\n  0xffffffffffffffffffffffffffffffffffffffff\n  and\n    /* \"Arbitrage.sol\":1303:1347  ICPAMM public cpamm2 = ICPAMM(cpamm2Address) */\n  0x05\n  exp(0x0100, 0x00)\n  dup2\n  sload\n  dup2\n  0xffffffffffffffffffffffffffffffffffffffff\n  mul\n  not\n  and\n  swap1\n  dup4\n  0xffffffffffffffffffffffffffffffffffffffff\n  and\n  mul\n  or\n  swap1\n  sstore\n  pop\n    /* \"Arbitrage.sol\":1380:1393  cpamm3Address */\n  0x03\n  0x00\n  swap1\n  sload\n  swap1\n  0x0100\n  exp\n  swap1\n  div\n  0xffffffffffffffffffffffffffffffffffffffff\n  and\n    /* \"Arbitrage.sol\":1350:1394  ICPAMM public cpamm3 = ICPAMM(cpamm3Address) */\n  0x06\n  exp(0x0100, 0x00)\n  dup2\n  sload\n  dup2\n  0xffffffffffffffffffffffffffffffffffffffff\n  mul\n  not\n  and\n  swap1\n  dup4\n  0xffffffffffffffffffffffffffffffffffffffff\n  and\n  mul\n  or\n  swap1\n  sstore\n  pop\n    /* \"Arbitrage.sol\":1409:1413  true */\n  0x01\n    /* \"Arbitrage.sol\":1397:1413  bool path = true */\n  0x06\n  exp(0x0100, 0x14)\n  dup2\n  sload\n  dup2\n  0xff\n  mul\n  not\n  and\n  swap1\n  dup4\n  iszero\n  iszero\n  mul\n  or\n  swap1\n  sstore\n  pop\n    /* \"Arbitrage.sol\":1418:1536  constructor(address _addressProvider)... */\n  callvalue\n  dup1\n  iszero\n  tag_1\n  jumpi\n  0x00\n  dup1\n  revert\ntag_1:\n  pop\n  mload(0x40)\n  sub(codesize, bytecodeSize)\n  dup1\n  bytecodeSize\n  dup4\n  codecopy\n  dup2\n  dup2\n  add\n  0x40\n  mstore\n  dup2\n  add\n  swap1\n  tag_2\n  swap2\n  swap1\n  tag_3\n  jump\t// in\ntag_2:\n    /* \"Arbitrage.sol\":1512:1528  _addressProvider */\n  dup1\n    /* \"https://github.com/aave/aave-v3-core/blob/master/contracts/flashloan/base/FlashLoanSimpleReceiverBase.sol\":673:681  provider */\n  dup1\n    /* \"https://github.com/aave/aave-v3-core/blob/master/contracts/flashloan/base/FlashLoanSimpleReceiverBase.sol\":652:681  ADDRESSES_PROVIDER = provider */\n  0xffffffffffffffffffffffffffffffffffffffff\n  and\n  0x80\n  dup2\n  0xffffffffffffffffffffffffffffffffffffffff\n  and\n  dup2\n  mstore\n  pop\n  pop\n    /* \"https://github.com/aave/aave-v3-core/blob/master/contracts/flashloan/base/FlashLoanSimpleReceiverBase.sol\":700:708  provider */\n  dup1\n    /* \"https://github.com/aave/aave-v3-core/blob/master/contracts/flashloan/base/FlashLoanSimpleReceiverBase.sol\":700:716  provider.getPool */\n  0xffffffffffffffffffffffffffffffffffffffff\n  and\n  0x026b1d5f\n    /* \"https://github.com/aave/aave-v3-core/blob/master/contracts/flashloan/base/FlashLoanSimpleReceiverBase.sol\":700:718  provider.getPool() */\n  mload(0x40)\n  dup2\n  0xffffffff\n  and\n  0xe0\n  shl\n  dup2\n  mstore\n  0x04\n  add\n  0x20\n  mload(0x40)\n  dup1\n  dup4\n  sub\n  dup2\n  dup7\n  gas\n  staticcall\n  iszero\n  dup1\n  iszero\n  tag_8\n  jumpi\n  returndatasize\n  0x00\n  dup1\n  returndatacopy\n  revert(0x00, returndatasize)\ntag_8:\n  pop\n  pop\n  pop\n  pop\n  mload(0x40)\n  returndatasize\n  not(0x1f)\n  0x1f\n  dup3\n  add\n  and\n  dup3\n  add\n  dup1\n  0x40\n  mstore\n  pop\n  dup2\n  add\n  swap1\n  tag_9\n  swap2\n  swap1\n  tag_3\n  jump\t// in\ntag_9:\n    /* \"https://github.com/aave/aave-v3-core/blob/master/contracts/flashloan/base/FlashLoanSimpleReceiverBase.sol\":687:719  POOL = IPool(provider.getPool()) */\n  0xffffffffffffffffffffffffffffffffffffffff\n  and\n  0xa0\n  dup2\n  0xffffffffffffffffffffffffffffffffffffffff\n  and\n  dup2\n  mstore\n  pop\n  pop\n    /* \"https://github.com/aave/aave-v3-core/blob/master/contracts/flashloan/base/FlashLoanSimpleReceiverBase.sol\":601:724  constructor(IPoolAddressesProvider provider) {... */\n  pop\n    /* \"Arbitrage.sol\":1418:1536  constructor(address _addressProvider)... */\n  pop\n    /* \"Arbitrage.sol\":768:5378  contract SimpleFlashLoan is FlashLoanSimpleReceiverBase {... */\n  jump(tag_11)\n    /* \"#utility.yul\":88:205   */\ntag_13:\n    /* \"#utility.yul\":197:198   */\n  0x00\n    /* \"#utility.yul\":194:195   */\n  dup1\n    /* \"#utility.yul\":187:199   */\n  revert\n    /* \"#utility.yul\":334:460   */\ntag_15:\n    /* \"#utility.yul\":371:378   */\n  0x00\n    /* \"#utility.yul\":411:453   */\n  0xffffffffffffffffffffffffffffffffffffffff\n    /* \"#utility.yul\":404:409   */\n  dup3\n    /* \"#utility.yul\":400:454   */\n  and\n    /* \"#utility.yul\":389:454   */\n  swap1\n  pop\n    /* \"#utility.yul\":334:460   */\n  swap2\n  swap1\n  pop\n  jump\t// out\n    /* \"#utility.yul\":466:562   */\ntag_16:\n    /* \"#utility.yul\":503:510   */\n  0x00\n    /* \"#utility.yul\":532:556   */\n  tag_25\n    /* \"#utility.yul\":550:555   */\n  dup3\n    /* \"#utility.yul\":532:556   */\n  tag_15\n  jump\t// in\ntag_25:\n    /* \"#utility.yul\":521:556   */\n  swap1\n  pop\n    /* \"#utility.yul\":466:562   */\n  swap2\n  swap1\n  pop\n  jump\t// out\n    /* \"#utility.yul\":568:690   */\ntag_17:\n    /* \"#utility.yul\":641:665   */\n  tag_27\n    /* \"#utility.yul\":659:664   */\n  dup2\n    /* \"#utility.yul\":641:665   */\n  tag_16\n  jump\t// in\ntag_27:\n    /* \"#utility.yul\":634:639   */\n  dup2\n    /* \"#utility.yul\":631:666   */\n  eq\n    /* \"#utility.yul\":621:684   */\n  tag_28\n  jumpi\n    /* \"#utility.yul\":680:681   */\n  0x00\n    /* \"#utility.yul\":677:678   */\n  dup1\n    /* \"#utility.yul\":670:682   */\n  revert\n    /* \"#utility.yul\":621:684   */\ntag_28:\n    /* \"#utility.yul\":568:690   */\n  pop\n  jump\t// out\n    /* \"#utility.yul\":696:839   */\ntag_18:\n    /* \"#utility.yul\":753:758   */\n  0x00\n    /* \"#utility.yul\":784:790   */\n  dup2\n    /* \"#utility.yul\":778:791   */\n  mload\n    /* \"#utility.yul\":769:791   */\n  swap1\n  pop\n    /* \"#utility.yul\":800:833   */\n  tag_30\n    /* \"#utility.yul\":827:832   */\n  dup2\n    /* \"#utility.yul\":800:833   */\n  tag_17\n  jump\t// in\ntag_30:\n    /* \"#utility.yul\":696:839   */\n  swap3\n  swap2\n  pop\n  pop\n  jump\t// out\n    /* \"#utility.yul\":845:1196   */\ntag_3:\n    /* \"#utility.yul\":915:921   */\n  0x00\n    /* \"#utility.yul\":964:966   */\n  0x20\n    /* \"#utility.yul\":952:961   */\n  dup3\n    /* \"#utility.yul\":943:950   */\n  dup5\n    /* \"#utility.yul\":939:962   */\n  sub\n    /* \"#utility.yul\":935:967   */\n  slt\n    /* \"#utility.yul\":932:1051   */\n  iszero\n  tag_32\n  jumpi\n    /* \"#utility.yul\":970:1049   */\n  tag_33\n  tag_13\n  jump\t// in\ntag_33:\n    /* \"#utility.yul\":932:1051   */\ntag_32:\n    /* \"#utility.yul\":1090:1091   */\n  0x00\n    /* \"#utility.yul\":1115:1179   */\n  tag_34\n    /* \"#utility.yul\":1171:1178   */\n  dup5\n    /* \"#utility.yul\":1162:1168   */\n  dup3\n    /* \"#utility.yul\":1151:1160   */\n  dup6\n    /* \"#utility.yul\":1147:1169   */\n  add\n    /* \"#utility.yul\":1115:1179   */\n  tag_18\n  jump\t// in\ntag_34:\n    /* \"#utility.yul\":1105:1179   */\n  swap2\n  pop\n    /* \"#utility.yul\":1061:1189   */\n  pop\n    /* \"#utility.yul\":845:1196   */\n  swap3\n  swap2\n  pop\n  pop\n  jump\t// out\n    /* \"Arbitrage.sol\":768:5378  contract SimpleFlashLoan is FlashLoanSimpleReceiverBase {... */\ntag_11:\n  mload(0x80)\n  mload(0xa0)\n  codecopy(0x00, dataOffset(sub_0), dataSize(sub_0))\n  0x00\n  assignImmutable(\"0x1a87bd8a90f68e1a783aeb62d8f14bea0949c88f942ad2b7737dddede78696b4\")\n  0x00\n  assignImmutable(\"0x252f53226389780606d5bf5d504e78204db5f4ad5d758821ab6fc0a65aa13649\")\n  return(0x00, dataSize(sub_0))\nstop\n\nsub_0: assembly {\n        /* \"Arbitrage.sol\":768:5378  contract SimpleFlashLoan is FlashLoanSimpleReceiverBase {... */\n      mstore(0x40, 0x80)\n      callvalue\n      dup1\n      iszero\n      tag_1\n      jumpi\n      0x00\n      dup1\n      revert\n    tag_1:\n      pop\n      jumpi(tag_2, lt(calldatasize, 0x04))\n      shr(0xe0, calldataload(0x00))\n      dup1\n      0x5d170211\n      gt\n      tag_14\n      jumpi\n      dup1\n      0x5d170211\n      eq\n      tag_8\n      jumpi\n      dup1\n      0x7535d246\n      eq\n      tag_9\n      jumpi\n      dup1\n      0x9d357486\n      eq\n      tag_10\n      jumpi\n      dup1\n      0xa13aef61\n      eq\n      tag_11\n      jumpi\n      dup1\n      0xbb2c101c\n      eq\n      tag_12\n      jumpi\n      dup1\n      0xf8b2cb4f\n      eq\n      tag_13\n      jumpi\n      jump(tag_2)\n    tag_14:\n      dup1\n      0x01d1c784\n      eq\n      tag_3\n      jumpi\n      dup1\n      0x0542975c\n      eq\n      tag_4\n      jumpi\n      dup1\n      0x18f52e5a\n      eq\n      tag_5\n      jumpi\n      dup1\n      0x1b11d0ff\n      eq\n      tag_6\n      jumpi\n      dup1\n      0x49f915a9\n      eq\n      tag_7\n      jumpi\n    tag_2:\n      0x00\n      dup1\n      revert\n        /* \"Arbitrage.sol\":1256:1300  ICPAMM public cpamm1 = ICPAMM(cpamm1Address) */\n    tag_3:\n      tag_15\n      tag_16\n      jump\t// in\n    tag_15:\n      mload(0x40)\n      tag_17\n      swap2\n      swap1\n      tag_18\n      jump\t// in\n    tag_17:\n      mload(0x40)\n      dup1\n      swap2\n      sub\n      swap1\n      return\n        /* \"https://github.com/aave/aave-v3-core/blob/master/contracts/flashloan/base/FlashLoanSimpleReceiverBase.sol\":489:556  IPoolAddressesProvider public immutable override ADDRESSES_PROVIDER */\n    tag_4:\n      tag_19\n      tag_20\n      jump\t// in\n    tag_19:\n      mload(0x40)\n      tag_21\n      swap2\n      swap1\n      tag_22\n      jump\t// in\n    tag_21:\n      mload(0x40)\n      dup1\n      swap2\n      sub\n      swap1\n      return\n        /* \"Arbitrage.sol\":899:972  address public cpamm1Address = 0xB634e543F94e155d185EB27b61E6AA40b116a2Df */\n    tag_5:\n      tag_23\n      tag_24\n      jump\t// in\n    tag_23:\n      mload(0x40)\n      tag_25\n      swap2\n      swap1\n      tag_26\n      jump\t// in\n    tag_25:\n      mload(0x40)\n      dup1\n      swap2\n      sub\n      swap1\n      return\n        /* \"Arbitrage.sol\":2033:5220  function executeOperation(... */\n    tag_6:\n      tag_27\n      0x04\n      dup1\n      calldatasize\n      sub\n      dup2\n      add\n      swap1\n      tag_28\n      swap2\n      swap1\n      tag_29\n      jump\t// in\n    tag_28:\n      tag_30\n      jump\t// in\n    tag_27:\n      mload(0x40)\n      tag_31\n      swap2\n      swap1\n      tag_32\n      jump\t// in\n    tag_31:\n      mload(0x40)\n      dup1\n      swap2\n      sub\n      swap1\n      return\n        /* \"Arbitrage.sol\":1350:1394  ICPAMM public cpamm3 = ICPAMM(cpamm3Address) */\n    tag_7:\n      tag_33\n      tag_34\n      jump\t// in\n    tag_33:\n      mload(0x40)\n      tag_35\n      swap2\n      swap1\n      tag_18\n      jump\t// in\n    tag_35:\n      mload(0x40)\n      dup1\n      swap2\n      sub\n      swap1\n      return\n        /* \"Arbitrage.sol\":1540:1944  function fn_RequestFlashLoan(address _token, uint256 _amount, bool _path) public {... */\n    tag_8:\n      tag_36\n      0x04\n      dup1\n      calldatasize\n      sub\n      dup2\n      add\n      swap1\n      tag_37\n      swap2\n      swap1\n      tag_38\n      jump\t// in\n    tag_37:\n      tag_39\n      jump\t// in\n    tag_36:\n      stop\n        /* \"https://github.com/aave/aave-v3-core/blob/master/contracts/flashloan/base/FlashLoanSimpleReceiverBase.sol\":560:596  IPool public immutable override POOL */\n    tag_9:\n      tag_40\n      tag_41\n      jump\t// in\n    tag_40:\n      mload(0x40)\n      tag_42\n      swap2\n      swap1\n      tag_43\n      jump\t// in\n    tag_42:\n      mload(0x40)\n      dup1\n      swap2\n      sub\n      swap1\n      return\n        /* \"Arbitrage.sol\":1018:1091  address public cpamm2Address = 0x4304B373A207156CEE82816b21d82605F6aA2F10 */\n    tag_10:\n      tag_44\n      tag_45\n      jump\t// in\n    tag_44:\n      mload(0x40)\n      tag_46\n      swap2\n      swap1\n      tag_26\n      jump\t// in\n    tag_46:\n      mload(0x40)\n      dup1\n      swap2\n      sub\n      swap1\n      return\n        /* \"Arbitrage.sol\":1137:1210  address public cpamm3Address = 0x8e9A1928D5F20c794B584667c0a797b5e409219E */\n    tag_11:\n      tag_47\n      tag_48\n      jump\t// in\n    tag_47:\n      mload(0x40)\n      tag_49\n      swap2\n      swap1\n      tag_26\n      jump\t// in\n    tag_49:\n      mload(0x40)\n      dup1\n      swap2\n      sub\n      swap1\n      return\n        /* \"Arbitrage.sol\":1303:1347  ICPAMM public cpamm2 = ICPAMM(cpamm2Address) */\n    tag_12:\n      tag_50\n      tag_51\n      jump\t// in\n    tag_50:\n      mload(0x40)\n      tag_52\n      swap2\n      swap1\n      tag_18\n      jump\t// in\n    tag_52:\n      mload(0x40)\n      dup1\n      swap2\n      sub\n      swap1\n      return\n        /* \"Arbitrage.sol\":5228:5375  function getBalance(address _tokenAddress) external view returns (uint256) {... */\n    tag_13:\n      tag_53\n      0x04\n      dup1\n      calldatasize\n      sub\n      dup2\n      add\n      swap1\n      tag_54\n      swap2\n      swap1\n      tag_55\n      jump\t// in\n    tag_54:\n      tag_56\n      jump\t// in\n    tag_53:\n      mload(0x40)\n      tag_57\n      swap2\n      swap1\n      tag_58\n      jump\t// in\n    tag_57:\n      mload(0x40)\n      dup1\n      swap2\n      sub\n      swap1\n      return\n        /* \"Arbitrage.sol\":1256:1300  ICPAMM public cpamm1 = ICPAMM(cpamm1Address) */\n    tag_16:\n      0x04\n      0x00\n      swap1\n      sload\n      swap1\n      0x0100\n      exp\n      swap1\n      div\n      0xffffffffffffffffffffffffffffffffffffffff\n      and\n      dup2\n      jump\t// out\n        /* \"https://github.com/aave/aave-v3-core/blob/master/contracts/flashloan/base/FlashLoanSimpleReceiverBase.sol\":489:556  IPoolAddressesProvider public immutable override ADDRESSES_PROVIDER */\n    tag_20:\n      immutable(\"0x252f53226389780606d5bf5d504e78204db5f4ad5d758821ab6fc0a65aa13649\")\n      dup2\n      jump\t// out\n        /* \"Arbitrage.sol\":899:972  address public cpamm1Address = 0xB634e543F94e155d185EB27b61E6AA40b116a2Df */\n    tag_24:\n      0x01\n      0x00\n      swap1\n      sload\n      swap1\n      0x0100\n      exp\n      swap1\n      div\n      0xffffffffffffffffffffffffffffffffffffffff\n      and\n      dup2\n      jump\t// out\n        /* \"Arbitrage.sol\":2033:5220  function executeOperation(... */\n    tag_30:\n        /* \"Arbitrage.sol\":2204:2208  bool */\n      0x00\n        /* \"Arbitrage.sol\":2217:2237  address USDC_address */\n      dup1\n        /* \"Arbitrage.sol\":2240:2282  0xda9d4f9b69ac6C22e444eD9aF0CfC043b7a7f53f */\n      0xda9d4f9b69ac6c22e444ed9af0cfc043b7a7f53f\n        /* \"Arbitrage.sol\":2217:2282  address USDC_address = 0xda9d4f9b69ac6C22e444eD9aF0CfC043b7a7f53f */\n      swap1\n      pop\n        /* \"Arbitrage.sol\":2289:2309  address LINK_address */\n      0x00\n        /* \"Arbitrage.sol\":2312:2354  0x779877A7B0D9E8603169DdbD7836e478b4624789 */\n      0x779877a7b0d9e8603169ddbd7836e478b4624789\n        /* \"Arbitrage.sol\":2289:2354  address LINK_address = 0x779877A7B0D9E8603169DdbD7836e478b4624789 */\n      swap1\n      pop\n        /* \"Arbitrage.sol\":2361:2381  address WBTC_address */\n      0x00\n        /* \"Arbitrage.sol\":2384:2426  0xf864F011C5A97fD8Da79baEd78ba77b47112935a */\n      0xf864f011c5a97fd8da79baed78ba77b47112935a\n        /* \"Arbitrage.sol\":2361:2426  address WBTC_address = 0xf864F011C5A97fD8Da79baEd78ba77b47112935a */\n      swap1\n      pop\n        /* \"Arbitrage.sol\":2433:2452  uint256 MAX_UINT256 */\n      0x00\n        /* \"Arbitrage.sol\":2455:2465  2**256 - 1 */\n      0xffffffffffffffffffffffffffffffffffffffffffffffffffffffffffffffff\n        /* \"Arbitrage.sol\":2433:2465  uint256 MAX_UINT256 = 2**256 - 1 */\n      swap1\n      pop\n        /* \"Arbitrage.sol\":2485:2497  USDC_address */\n      dup4\n        /* \"Arbitrage.sol\":2476:2497  asset == USDC_address */\n      0xffffffffffffffffffffffffffffffffffffffff\n      and\n        /* \"Arbitrage.sol\":2476:2481  asset */\n      dup12\n        /* \"Arbitrage.sol\":2476:2497  asset == USDC_address */\n      0xffffffffffffffffffffffffffffffffffffffff\n      and\n      eq\n        /* \"Arbitrage.sol\":2472:5213  if (asset == USDC_address){... */\n      iszero\n      tag_60\n      jumpi\n        /* \"Arbitrage.sol\":2521:2525  true */\n      0x01\n        /* \"Arbitrage.sol\":2513:2525  path == true */\n      iszero\n      iszero\n        /* \"Arbitrage.sol\":2513:2517  path */\n      0x06\n      0x14\n      swap1\n      sload\n      swap1\n      0x0100\n      exp\n      swap1\n      div\n      0xff\n      and\n        /* \"Arbitrage.sol\":2513:2525  path == true */\n      iszero\n      iszero\n      eq\n        /* \"Arbitrage.sol\":2509:3825  if (path == true){... */\n      iszero\n      tag_61\n      jumpi\n        /* \"Arbitrage.sol\":2548:2560  USDC_address */\n      dup4\n        /* \"Arbitrage.sol\":2541:2569  IERC20(USDC_address).approve */\n      0xffffffffffffffffffffffffffffffffffffffff\n      and\n      0x095ea7b3\n        /* \"Arbitrage.sol\":2578:2584  cpamm1 */\n      0x04\n      0x00\n      swap1\n      sload\n      swap1\n      0x0100\n      exp\n      swap1\n      div\n      0xffffffffffffffffffffffffffffffffffffffff\n      and\n        /* \"Arbitrage.sol\":2587:2598  MAX_UINT256 */\n      dup4\n        /* \"Arbitrage.sol\":2541:2599  IERC20(USDC_address).approve(address(cpamm1), MAX_UINT256) */\n      mload(0x40)\n      dup4\n      0xffffffff\n      and\n      0xe0\n      shl\n      dup2\n      mstore\n      0x04\n      add\n      tag_62\n      swap3\n      swap2\n      swap1\n      tag_63\n      jump\t// in\n    tag_62:\n      0x20\n      mload(0x40)\n      dup1\n      dup4\n      sub\n      dup2\n      0x00\n      dup8\n      gas\n      call\n      iszero\n      dup1\n      iszero\n      tag_65\n      jumpi\n      returndatasize\n      0x00\n      dup1\n      returndatacopy\n      revert(0x00, returndatasize)\n    tag_65:\n      pop\n      pop\n      pop\n      pop\n      mload(0x40)\n      returndatasize\n      not(0x1f)\n      0x1f\n      dup3\n      add\n      and\n      dup3\n      add\n      dup1\n      0x40\n      mstore\n      pop\n      dup2\n      add\n      swap1\n      tag_66\n      swap2\n      swap1\n      tag_67\n      jump\t// in\n    tag_66:\n      pop\n        /* \"Arbitrage.sol\":2621:2633  WBTC_address */\n      dup2\n        /* \"Arbitrage.sol\":2614:2642  IERC20(WBTC_address).approve */\n      0xffffffffffffffffffffffffffffffffffffffff\n      and\n      0x095ea7b3\n        /* \"Arbitrage.sol\":2651:2657  cpamm2 */\n      0x05\n      0x00\n      swap1\n      sload\n      swap1\n      0x0100\n      exp\n      swap1\n      div\n      0xffffffffffffffffffffffffffffffffffffffff\n      and\n        /* \"Arbitrage.sol\":2660:2671  MAX_UINT256 */\n      dup4\n        /* \"Arbitrage.sol\":2614:2672  IERC20(WBTC_address).approve(address(cpamm2), MAX_UINT256) */\n      mload(0x40)\n      dup4\n      0xffffffff\n      and\n      0xe0\n      shl\n      dup2\n      mstore\n      0x04\n      add\n      tag_68\n      swap3\n      swap2\n      swap1\n      tag_63\n      jump\t// in\n    tag_68:\n      0x20\n      mload(0x40)\n      dup1\n      dup4\n      sub\n      dup2\n      0x00\n      dup8\n      gas\n      call\n      iszero\n      dup1\n      iszero\n      tag_70\n      jumpi\n      returndatasize\n      0x00\n      dup1\n      returndatacopy\n      revert(0x00, returndatasize)\n    tag_70:\n      pop\n      pop\n      pop\n      pop\n      mload(0x40)\n      returndatasize\n      not(0x1f)\n      0x1f\n      dup3\n      add\n      and\n      dup3\n      add\n      dup1\n      0x40\n      mstore\n      pop\n      dup2\n      add\n      swap1\n      tag_71\n      swap2\n      swap1\n      tag_67\n      jump\t// in\n    tag_71:\n      pop\n        /* \"Arbitrage.sol\":2694:2706  LINK_address */\n      dup3\n        /* \"Arbitrage.sol\":2687:2715  IERC20(LINK_address).approve */\n      0xffffffffffffffffffffffffffffffffffffffff\n      and\n      0x095ea7b3\n        /* \"Arbitrage.sol\":2724:2730  cpamm3 */\n      0x06\n      0x00\n      swap1\n      sload\n      swap1\n      0x0100\n      exp\n      swap1\n      div\n      0xffffffffffffffffffffffffffffffffffffffff\n      and\n        /* \"Arbitrage.sol\":2733:2744  MAX_UINT256 */\n      dup4\n        /* \"Arbitrage.sol\":2687:2745  IERC20(LINK_address).approve(address(cpamm3), MAX_UINT256) */\n      mload(0x40)\n      dup4\n      0xffffffff\n      and\n      0xe0\n      shl\n      dup2\n      mstore\n      0x04\n      add\n      tag_72\n      swap3\n      swap2\n      swap1\n      tag_63\n      jump\t// in\n    tag_72:\n      0x20\n      mload(0x40)\n      dup1\n      dup4\n      sub\n      dup2\n      0x00\n      dup8\n      gas\n      call\n      iszero\n      dup1\n      iszero\n      tag_74\n      jumpi\n      returndatasize\n      0x00\n      dup1\n      returndatacopy\n      revert(0x00, returndatasize)\n    tag_74:\n      pop\n      pop\n      pop\n      pop\n      mload(0x40)\n      returndatasize\n      not(0x1f)\n      0x1f\n      dup3\n      add\n      and\n      dup3\n      add\n      dup1\n      0x40\n      mstore\n      pop\n      dup2\n      add\n      swap1\n      tag_75\n      swap2\n      swap1\n      tag_67\n      jump\t// in\n    tag_75:\n      pop\n        /* \"Arbitrage.sol\":2760:2778  uint256 wbtcAmount */\n      0x00\n        /* \"Arbitrage.sol\":2781:2787  cpamm1 */\n      0x04\n      0x00\n      swap1\n      sload\n      swap1\n      0x0100\n      exp\n      swap1\n      div\n      0xffffffffffffffffffffffffffffffffffffffff\n      and\n        /* \"Arbitrage.sol\":2781:2792  cpamm1.swap */\n      0xffffffffffffffffffffffffffffffffffffffff\n      and\n      0xd004f0f7\n        /* \"Arbitrage.sol\":2793:2805  USDC_address */\n      dup7\n        /* \"Arbitrage.sol\":2807:2813  amount */\n      dup14\n        /* \"Arbitrage.sol\":2781:2814  cpamm1.swap(USDC_address, amount) */\n      mload(0x40)\n      dup4\n      0xffffffff\n      and\n      0xe0\n      shl\n      dup2\n      mstore\n      0x04\n      add\n      tag_76\n      swap3\n      swap2\n      swap1\n      tag_63\n      jump\t// in\n    tag_76:\n      0x20\n      mload(0x40)\n      dup1\n      dup4\n      sub\n      dup2\n      0x00\n      dup8\n      gas\n      call\n      iszero\n      dup1\n      iszero\n      tag_78\n      jumpi\n      returndatasize\n      0x00\n      dup1\n      returndatacopy\n      revert(0x00, returndatasize)\n    tag_78:\n      pop\n      pop\n      pop\n      pop\n      mload(0x40)\n      returndatasize\n      not(0x1f)\n      0x1f\n      dup3\n      add\n      and\n      dup3\n      add\n      dup1\n      0x40\n      mstore\n      pop\n      dup2\n      add\n      swap1\n      tag_79\n      swap2\n      swap1\n      tag_80\n      jump\t// in\n    tag_79:\n        /* \"Arbitrage.sol\":2760:2814  uint256 wbtcAmount = cpamm1.swap(USDC_address, amount) */\n      swap1\n      pop\n        /* \"Arbitrage.sol\":2829:2847  uint256 linkAmount */\n      0x00\n        /* \"Arbitrage.sol\":2850:2856  cpamm2 */\n      0x05\n      0x00\n      swap1\n      sload\n      swap1\n      0x0100\n      exp\n      swap1\n      div\n      0xffffffffffffffffffffffffffffffffffffffff\n      and\n        /* \"Arbitrage.sol\":2850:2861  cpamm2.swap */\n      0xffffffffffffffffffffffffffffffffffffffff\n      and\n      0xd004f0f7\n        /* \"Arbitrage.sol\":2862:2874  WBTC_address */\n      dup6\n        /* \"Arbitrage.sol\":2876:2886  wbtcAmount */\n      dup5\n        /* \"Arbitrage.sol\":2850:2887  cpamm2.swap(WBTC_address, wbtcAmount) */\n      mload(0x40)\n      dup4\n      0xffffffff\n      and\n      0xe0\n      shl\n      dup2\n      mstore\n      0x04\n      add\n      tag_81\n      swap3\n      swap2\n      swap1\n      tag_63\n      jump\t// in\n    tag_81:\n      0x20\n      mload(0x40)\n      dup1\n      dup4\n      sub\n      dup2\n      0x00\n      dup8\n      gas\n      call\n      iszero\n      dup1\n      iszero\n      tag_83\n      jumpi\n      returndatasize\n      0x00\n      dup1\n      returndatacopy\n      revert(0x00, returndatasize)\n    tag_83:\n      pop\n      pop\n      pop\n      pop\n      mload(0x40)\n      returndatasize\n      not(0x1f)\n      0x1f\n      dup3\n      add\n      and\n      dup3\n      add\n      dup1\n      0x40\n      mstore\n      pop\n      dup2\n      add\n      swap1\n      tag_84\n      swap2\n      swap1\n      tag_80\n      jump\t// in\n    tag_84:\n        /* \"Arbitrage.sol\":2829:2887  uint256 linkAmount = cpamm2.swap(WBTC_address, wbtcAmount) */\n      swap1\n      pop\n        /* \"Arbitrage.sol\":2902:2920  uint256 usdcAmount */\n      0x00\n        /* \"Arbitrage.sol\":2923:2929  cpamm3 */\n      0x06\n      0x00\n      swap1\n      sload\n      swap1\n      0x0100\n      exp\n      swap1\n      div\n      0xffffffffffffffffffffffffffffffffffffffff\n      and\n        /* \"Arbitrage.sol\":2923:2934  cpamm3.swap */\n      0xffffffffffffffffffffffffffffffffffffffff\n      and\n      0xd004f0f7\n        /* \"Arbitrage.sol\":2935:2947  LINK_address */\n      dup8\n        /* \"Arbitrage.sol\":2949:2959  linkAmount */\n      dup5\n        /* \"Arbitrage.sol\":2923:2960  cpamm3.swap(LINK_address, linkAmount) */\n      mload(0x40)\n      dup4\n      0xffffffff\n      and\n      0xe0\n      shl\n      dup2\n      mstore\n      0x04\n      add\n      tag_85\n      swap3\n      swap2\n      swap1\n      tag_63\n      jump\t// in\n    tag_85:\n      0x20\n      mload(0x40)\n      dup1\n      dup4\n      sub\n      dup2\n      0x00\n      dup8\n      gas\n      call\n      iszero\n      dup1\n      iszero\n      tag_87\n      jumpi\n      returndatasize\n      0x00\n      dup1\n      returndatacopy\n      revert(0x00, returndatasize)\n    tag_87:\n      pop\n      pop\n      pop\n      pop\n      mload(0x40)\n      returndatasize\n      not(0x1f)\n      0x1f\n      dup3\n      add\n      and\n      dup3\n      add\n      dup1\n      0x40\n      mstore\n      pop\n      dup2\n      add\n      swap1\n      tag_88\n      swap2\n      swap1\n      tag_80\n      jump\t// in\n    tag_88:\n        /* \"Arbitrage.sol\":2902:2960  uint256 usdcAmount = cpamm3.swap(LINK_address, linkAmount) */\n      swap1\n      pop\n        /* \"Arbitrage.sol\":3015:3034  uint256 totalAmount */\n      0x00\n        /* \"Arbitrage.sol\":3046:3053  premium */\n      dup13\n        /* \"Arbitrage.sol\":3037:3043  amount */\n      dup15\n        /* \"Arbitrage.sol\":3037:3053  amount + premium */\n      tag_89\n      swap2\n      swap1\n      tag_90\n      jump\t// in\n    tag_89:\n        /* \"Arbitrage.sol\":3015:3053  uint256 totalAmount = amount + premium */\n      swap1\n      pop\n        /* \"Arbitrage.sol\":3075:3080  asset */\n      dup15\n        /* \"Arbitrage.sol\":3068:3089  IERC20(asset).approve */\n      0xffffffffffffffffffffffffffffffffffffffff\n      and\n      0x095ea7b3\n        /* \"Arbitrage.sol\":3098:3102  POOL */\n      immutable(\"0x1a87bd8a90f68e1a783aeb62d8f14bea0949c88f942ad2b7737dddede78696b4\")\n        /* \"Arbitrage.sol\":3105:3116  totalAmount */\n      dup4\n        /* \"Arbitrage.sol\":3068:3117  IERC20(asset).approve(address(POOL), totalAmount) */\n      mload(0x40)\n      dup4\n      0xffffffff\n      and\n      0xe0\n      shl\n      dup2\n      mstore\n      0x04\n      add\n      tag_91\n      swap3\n      swap2\n      swap1\n      tag_63\n      jump\t// in\n    tag_91:\n      0x20\n      mload(0x40)\n      dup1\n      dup4\n      sub\n      dup2\n      0x00\n      dup8\n      gas\n      call\n      iszero\n      dup1\n      iszero\n      tag_93\n      jumpi\n      returndatasize\n      0x00\n      dup1\n      returndatacopy\n      revert(0x00, returndatasize)\n    tag_93:\n      pop\n      pop\n      pop\n      pop\n      mload(0x40)\n      returndatasize\n      not(0x1f)\n      0x1f\n      dup3\n      add\n      and\n      dup3\n      add\n      dup1\n      0x40\n      mstore\n      pop\n      dup2\n      add\n      swap1\n      tag_94\n      swap2\n      swap1\n      tag_67\n      jump\t// in\n    tag_94:\n      pop\n        /* \"Arbitrage.sol\":3139:3143  true */\n      0x01\n        /* \"Arbitrage.sol\":3132:3143  return true */\n      swap9\n      pop\n      pop\n      pop\n      pop\n      pop\n      pop\n      pop\n      pop\n      pop\n      jump(tag_59)\n        /* \"Arbitrage.sol\":2509:3825  if (path == true){... */\n    tag_61:\n        /* \"Arbitrage.sol\":3186:3191  false */\n      0x00\n        /* \"Arbitrage.sol\":3178:3191  path == false */\n      iszero\n      iszero\n        /* \"Arbitrage.sol\":3178:3182  path */\n      0x06\n      0x14\n      swap1\n      sload\n      swap1\n      0x0100\n      exp\n      swap1\n      div\n      0xff\n      and\n        /* \"Arbitrage.sol\":3178:3191  path == false */\n      iszero\n      iszero\n      eq\n        /* \"Arbitrage.sol\":3174:3825  if (path == false){... */\n      iszero\n      tag_96\n      jumpi\n        /* \"Arbitrage.sol\":3214:3226  USDC_address */\n      dup4\n        /* \"Arbitrage.sol\":3207:3235  IERC20(USDC_address).approve */\n      0xffffffffffffffffffffffffffffffffffffffff\n      and\n      0x095ea7b3\n        /* \"Arbitrage.sol\":3244:3250  cpamm3 */\n      0x06\n      0x00\n      swap1\n      sload\n      swap1\n      0x0100\n      exp\n      swap1\n      div\n      0xffffffffffffffffffffffffffffffffffffffff\n      and\n        /* \"Arbitrage.sol\":3253:3264  MAX_UINT256 */\n      dup4\n        /* \"Arbitrage.sol\":3207:3265  IERC20(USDC_address).approve(address(cpamm3), MAX_UINT256) */\n      mload(0x40)\n      dup4\n      0xffffffff\n      and\n      0xe0\n      shl\n      dup2\n      mstore\n      0x04\n      add\n      tag_97\n      swap3\n      swap2\n      swap1\n      tag_63\n      jump\t// in\n    tag_97:\n      0x20\n      mload(0x40)\n      dup1\n      dup4\n      sub\n      dup2\n      0x00\n      dup8\n      gas\n      call\n      iszero\n      dup1\n      iszero\n      tag_99\n      jumpi\n      returndatasize\n      0x00\n      dup1\n      returndatacopy\n      revert(0x00, returndatasize)\n    tag_99:\n      pop\n      pop\n      pop\n      pop\n      mload(0x40)\n      returndatasize\n      not(0x1f)\n      0x1f\n      dup3\n      add\n      and\n      dup3\n      add\n      dup1\n      0x40\n      mstore\n      pop\n      dup2\n      add\n      swap1\n      tag_100\n      swap2\n      swap1\n      tag_67\n      jump\t// in\n    tag_100:\n      pop\n        /* \"Arbitrage.sol\":3287:3299  LINK_address */\n      dup3\n        /* \"Arbitrage.sol\":3280:3308  IERC20(LINK_address).approve */\n      0xffffffffffffffffffffffffffffffffffffffff\n      and\n      0x095ea7b3\n        /* \"Arbitrage.sol\":3317:3323  cpamm2 */\n      0x05\n      0x00\n      swap1\n      sload\n      swap1\n      0x0100\n      exp\n      swap1\n      div\n      0xffffffffffffffffffffffffffffffffffffffff\n      and\n        /* \"Arbitrage.sol\":3326:3337  MAX_UINT256 */\n      dup4\n        /* \"Arbitrage.sol\":3280:3338  IERC20(LINK_address).approve(address(cpamm2), MAX_UINT256) */\n      mload(0x40)\n      dup4\n      0xffffffff\n      and\n      0xe0\n      shl\n      dup2\n      mstore\n      0x04\n      add\n      tag_101\n      swap3\n      swap2\n      swap1\n      tag_63\n      jump\t// in\n    tag_101:\n      0x20\n      mload(0x40)\n      dup1\n      dup4\n      sub\n      dup2\n      0x00\n      dup8\n      gas\n      call\n      iszero\n      dup1\n      iszero\n      tag_103\n      jumpi\n      returndatasize\n      0x00\n      dup1\n      returndatacopy\n      revert(0x00, returndatasize)\n    tag_103:\n      pop\n      pop\n      pop\n      pop\n      mload(0x40)\n      returndatasize\n      not(0x1f)\n      0x1f\n      dup3\n      add\n      and\n      dup3\n      add\n      dup1\n      0x40\n      mstore\n      pop\n      dup2\n      add\n      swap1\n      tag_104\n      swap2\n      swap1\n      tag_67\n      jump\t// in\n    tag_104:\n      pop\n        /* \"Arbitrage.sol\":3360:3372  WBTC_address */\n      dup2\n        /* \"Arbitrage.sol\":3353:3381  IERC20(WBTC_address).approve */\n      0xffffffffffffffffffffffffffffffffffffffff\n      and\n      0x095ea7b3\n        /* \"Arbitrage.sol\":3390:3396  cpamm1 */\n      0x04\n      0x00\n      swap1\n      sload\n      swap1\n      0x0100\n      exp\n      swap1\n      div\n      0xffffffffffffffffffffffffffffffffffffffff\n      and\n        /* \"Arbitrage.sol\":3399:3410  MAX_UINT256 */\n      dup4\n        /* \"Arbitrage.sol\":3353:3411  IERC20(WBTC_address).approve(address(cpamm1), MAX_UINT256) */\n      mload(0x40)\n      dup4\n      0xffffffff\n      and\n      0xe0\n      shl\n      dup2\n      mstore\n      0x04\n      add\n      tag_105\n      swap3\n      swap2\n      swap1\n      tag_63\n      jump\t// in\n    tag_105:\n      0x20\n      mload(0x40)\n      dup1\n      dup4\n      sub\n      dup2\n      0x00\n      dup8\n      gas\n      call\n      iszero\n      dup1\n      iszero\n      tag_107\n      jumpi\n      returndatasize\n      0x00\n      dup1\n      returndatacopy\n      revert(0x00, returndatasize)\n    tag_107:\n      pop\n      pop\n      pop\n      pop\n      mload(0x40)\n      returndatasize\n      not(0x1f)\n      0x1f\n      dup3\n      add\n      and\n      dup3\n      add\n      dup1\n      0x40\n      mstore\n      pop\n      dup2\n      add\n      swap1\n      tag_108\n      swap2\n      swap1\n      tag_67\n      jump\t// in\n    tag_108:\n      pop\n        /* \"Arbitrage.sol\":3426:3444  uint256 linkAmount */\n      0x00\n        /* \"Arbitrage.sol\":3447:3453  cpamm3 */\n      0x06\n      0x00\n      swap1\n      sload\n      swap1\n      0x0100\n      exp\n      swap1\n      div\n      0xffffffffffffffffffffffffffffffffffffffff\n      and\n        /* \"Arbitrage.sol\":3447:3458  cpamm3.swap */\n      0xffffffffffffffffffffffffffffffffffffffff\n      and\n      0xd004f0f7\n        /* \"Arbitrage.sol\":3459:3471  USDC_address */\n      dup7\n        /* \"Arbitrage.sol\":3473:3479  amount */\n      dup14\n        /* \"Arbitrage.sol\":3447:3480  cpamm3.swap(USDC_address, amount) */\n      mload(0x40)\n      dup4\n      0xffffffff\n      and\n      0xe0\n      shl\n      dup2\n      mstore\n      0x04\n      add\n      tag_109\n      swap3\n      swap2\n      swap1\n      tag_63\n      jump\t// in\n    tag_109:\n      0x20\n      mload(0x40)\n      dup1\n      dup4\n      sub\n      dup2\n      0x00\n      dup8\n      gas\n      call\n      iszero\n      dup1\n      iszero\n      tag_111\n      jumpi\n      returndatasize\n      0x00\n      dup1\n      returndatacopy\n      revert(0x00, returndatasize)\n    tag_111:\n      pop\n      pop\n      pop\n      pop\n      mload(0x40)\n      returndatasize\n      not(0x1f)\n      0x1f\n      dup3\n      add\n      and\n      dup3\n      add\n      dup1\n      0x40\n      mstore\n      pop\n      dup2\n      add\n      swap1\n      tag_112\n      swap2\n      swap1\n      tag_80\n      jump\t// in\n    tag_112:\n        /* \"Arbitrage.sol\":3426:3480  uint256 linkAmount = cpamm3.swap(USDC_address, amount) */\n      swap1\n      pop\n        /* \"Arbitrage.sol\":3495:3513  uint256 wbtcAmount */\n      0x00\n        /* \"Arbitrage.sol\":3516:3522  cpamm2 */\n      0x05\n      0x00\n      swap1\n      sload\n      swap1\n      0x0100\n      exp\n      swap1\n      div\n      0xffffffffffffffffffffffffffffffffffffffff\n      and\n        /* \"Arbitrage.sol\":3516:3527  cpamm2.swap */\n      0xffffffffffffffffffffffffffffffffffffffff\n      and\n      0xd004f0f7\n        /* \"Arbitrage.sol\":3528:3540  LINK_address */\n      dup7\n        /* \"Arbitrage.sol\":3542:3552  linkAmount */\n      dup5\n        /* \"Arbitrage.sol\":3516:3553  cpamm2.swap(LINK_address, linkAmount) */\n      mload(0x40)\n      dup4\n      0xffffffff\n      and\n      0xe0\n      shl\n      dup2\n      mstore\n      0x04\n      add\n      tag_113\n      swap3\n      swap2\n      swap1\n      tag_63\n      jump\t// in\n    tag_113:\n      0x20\n      mload(0x40)\n      dup1\n      dup4\n      sub\n      dup2\n      0x00\n      dup8\n      gas\n      call\n      iszero\n      dup1\n      iszero\n      tag_115\n      jumpi\n      returndatasize\n      0x00\n      dup1\n      returndatacopy\n      revert(0x00, returndatasize)\n    tag_115:\n      pop\n      pop\n      pop\n      pop\n      mload(0x40)\n      returndatasize\n      not(0x1f)\n      0x1f\n      dup3\n      add\n      and\n      dup3\n      add\n      dup1\n      0x40\n      mstore\n      pop\n      dup2\n      add\n      swap1\n      tag_116\n      swap2\n      swap1\n      tag_80\n      jump\t// in\n    tag_116:\n        /* \"Arbitrage.sol\":3495:3553  uint256 wbtcAmount = cpamm2.swap(LINK_address, linkAmount) */\n      swap1\n      pop\n        /* \"Arbitrage.sol\":3568:3586  uint256 usdcAmount */\n      0x00\n        /* \"Arbitrage.sol\":3589:3595  cpamm1 */\n      0x04\n      0x00\n      swap1\n      sload\n      swap1\n      0x0100\n      exp\n      swap1\n      div\n      0xffffffffffffffffffffffffffffffffffffffff\n      and\n        /* \"Arbitrage.sol\":3589:3600  cpamm1.swap */\n      0xffffffffffffffffffffffffffffffffffffffff\n      and\n      0xd004f0f7\n        /* \"Arbitrage.sol\":3601:3613  WBTC_address */\n      dup7\n        /* \"Arbitrage.sol\":3615:3625  wbtcAmount */\n      dup5\n        /* \"Arbitrage.sol\":3589:3626  cpamm1.swap(WBTC_address, wbtcAmount) */\n      mload(0x40)\n      dup4\n      0xffffffff\n      and\n      0xe0\n      shl\n      dup2\n      mstore\n      0x04\n      add\n      tag_117\n      swap3\n      swap2\n      swap1\n      tag_63\n      jump\t// in\n    tag_117:\n      0x20\n      mload(0x40)\n      dup1\n      dup4\n      sub\n      dup2\n      0x00\n      dup8\n      gas\n      call\n      iszero\n      dup1\n      iszero\n      tag_119\n      jumpi\n      returndatasize\n      0x00\n      dup1\n      returndatacopy\n      revert(0x00, returndatasize)\n    tag_119:\n      pop\n      pop\n      pop\n      pop\n      mload(0x40)\n      returndatasize\n      not(0x1f)\n      0x1f\n      dup3\n      add\n      and\n      dup3\n      add\n      dup1\n      0x40\n      mstore\n      pop\n      dup2\n      add\n      swap1\n      tag_120\n      swap2\n      swap1\n      tag_80\n      jump\t// in\n    tag_120:\n        /* \"Arbitrage.sol\":3568:3626  uint256 usdcAmount = cpamm1.swap(WBTC_address, wbtcAmount) */\n      swap1\n      pop\n        /* \"Arbitrage.sol\":3681:3700  uint256 totalAmount */\n      0x00\n        /* \"Arbitrage.sol\":3712:3719  premium */\n      dup13\n        /* \"Arbitrage.sol\":3703:3709  amount */\n      dup15\n        /* \"Arbitrage.sol\":3703:3719  amount + premium */\n      tag_121\n      swap2\n      swap1\n      tag_90\n      jump\t// in\n    tag_121:\n        /* \"Arbitrage.sol\":3681:3719  uint256 totalAmount = amount + premium */\n      swap1\n      pop\n        /* \"Arbitrage.sol\":3741:3746  asset */\n      dup15\n        /* \"Arbitrage.sol\":3734:3755  IERC20(asset).approve */\n      0xffffffffffffffffffffffffffffffffffffffff\n      and\n      0x095ea7b3\n        /* \"Arbitrage.sol\":3764:3768  POOL */\n      immutable(\"0x1a87bd8a90f68e1a783aeb62d8f14bea0949c88f942ad2b7737dddede78696b4\")\n        /* \"Arbitrage.sol\":3771:3782  totalAmount */\n      dup4\n        /* \"Arbitrage.sol\":3734:3783  IERC20(asset).approve(address(POOL), totalAmount) */\n      mload(0x40)\n      dup4\n      0xffffffff\n      and\n      0xe0\n      shl\n      dup2\n      mstore\n      0x04\n      add\n      tag_122\n      swap3\n      swap2\n      swap1\n      tag_63\n      jump\t// in\n    tag_122:\n      0x20\n      mload(0x40)\n      dup1\n      dup4\n      sub\n      dup2\n      0x00\n      dup8\n      gas\n      call\n      iszero\n      dup1\n      iszero\n      tag_124\n      jumpi\n      returndatasize\n      0x00\n      dup1\n      returndatacopy\n      revert(0x00, returndatasize)\n    tag_124:\n      pop\n      pop\n      pop\n      pop\n      mload(0x40)\n      returndatasize\n      not(0x1f)\n      0x1f\n      dup3\n      add\n      and\n      dup3\n      add\n      dup1\n      0x40\n      mstore\n      pop\n      dup2\n      add\n      swap1\n      tag_125\n      swap2\n      swap1\n      tag_67\n      jump\t// in\n    tag_125:\n      pop\n        /* \"Arbitrage.sol\":3805:3809  true */\n      0x01\n        /* \"Arbitrage.sol\":3798:3809  return true */\n      swap9\n      pop\n      pop\n      pop\n      pop\n      pop\n      pop\n      pop\n      pop\n      pop\n      jump(tag_59)\n        /* \"Arbitrage.sol\":3174:3825  if (path == false){... */\n    tag_96:\n        /* \"Arbitrage.sol\":2472:5213  if (asset == USDC_address){... */\n      jump(tag_126)\n    tag_60:\n        /* \"Arbitrage.sol\":3860:3872  WBTC_address */\n      dup2\n        /* \"Arbitrage.sol\":3851:3872  asset == WBTC_address */\n      0xffffffffffffffffffffffffffffffffffffffff\n      and\n        /* \"Arbitrage.sol\":3851:3856  asset */\n      dup12\n        /* \"Arbitrage.sol\":3851:3872  asset == WBTC_address */\n      0xffffffffffffffffffffffffffffffffffffffff\n      and\n      eq\n        /* \"Arbitrage.sol\":3847:5213  if (asset == WBTC_address){... */\n      iszero\n      tag_127\n      jumpi\n        /* \"Arbitrage.sol\":3896:3900  true */\n      0x01\n        /* \"Arbitrage.sol\":3888:3900  path == true */\n      iszero\n      iszero\n        /* \"Arbitrage.sol\":3888:3892  path */\n      0x06\n      0x14\n      swap1\n      sload\n      swap1\n      0x0100\n      exp\n      swap1\n      div\n      0xff\n      and\n        /* \"Arbitrage.sol\":3888:3900  path == true */\n      iszero\n      iszero\n      eq\n        /* \"Arbitrage.sol\":3884:5202  if (path == true){... */\n      iszero\n      tag_128\n      jumpi\n        /* \"Arbitrage.sol\":3923:3935  WBTC_address */\n      dup2\n        /* \"Arbitrage.sol\":3916:3944  IERC20(WBTC_address).approve */\n      0xffffffffffffffffffffffffffffffffffffffff\n      and\n      0x095ea7b3\n        /* \"Arbitrage.sol\":3953:3959  cpamm1 */\n      0x04\n      0x00\n      swap1\n      sload\n      swap1\n      0x0100\n      exp\n      swap1\n      div\n      0xffffffffffffffffffffffffffffffffffffffff\n      and\n        /* \"Arbitrage.sol\":3962:3973  MAX_UINT256 */\n      dup4\n        /* \"Arbitrage.sol\":3916:3974  IERC20(WBTC_address).approve(address(cpamm1), MAX_UINT256) */\n      mload(0x40)\n      dup4\n      0xffffffff\n      and\n      0xe0\n      shl\n      dup2\n      mstore\n      0x04\n      add\n      tag_129\n      swap3\n      swap2\n      swap1\n      tag_63\n      jump\t// in\n    tag_129:\n      0x20\n      mload(0x40)\n      dup1\n      dup4\n      sub\n      dup2\n      0x00\n      dup8\n      gas\n      call\n      iszero\n      dup1\n      iszero\n      tag_131\n      jumpi\n      returndatasize\n      0x00\n      dup1\n      returndatacopy\n      revert(0x00, returndatasize)\n    tag_131:\n      pop\n      pop\n      pop\n      pop\n      mload(0x40)\n      returndatasize\n      not(0x1f)\n      0x1f\n      dup3\n      add\n      and\n      dup3\n      add\n      dup1\n      0x40\n      mstore\n      pop\n      dup2\n      add\n      swap1\n      tag_132\n      swap2\n      swap1\n      tag_67\n      jump\t// in\n    tag_132:\n      pop\n        /* \"Arbitrage.sol\":3996:4008  USDC_address */\n      dup4\n        /* \"Arbitrage.sol\":3989:4017  IERC20(USDC_address).approve */\n      0xffffffffffffffffffffffffffffffffffffffff\n      and\n      0x095ea7b3\n        /* \"Arbitrage.sol\":4026:4032  cpamm3 */\n      0x06\n      0x00\n      swap1\n      sload\n      swap1\n      0x0100\n      exp\n      swap1\n      div\n      0xffffffffffffffffffffffffffffffffffffffff\n      and\n        /* \"Arbitrage.sol\":4035:4046  MAX_UINT256 */\n      dup4\n        /* \"Arbitrage.sol\":3989:4047  IERC20(USDC_address).approve(address(cpamm3), MAX_UINT256) */\n      mload(0x40)\n      dup4\n      0xffffffff\n      and\n      0xe0\n      shl\n      dup2\n      mstore\n      0x04\n      add\n      tag_133\n      swap3\n      swap2\n      swap1\n      tag_63\n      jump\t// in\n    tag_133:\n      0x20\n      mload(0x40)\n      dup1\n      dup4\n      sub\n      dup2\n      0x00\n      dup8\n      gas\n      call\n      iszero\n      dup1\n      iszero\n      tag_135\n      jumpi\n      returndatasize\n      0x00\n      dup1\n      returndatacopy\n      revert(0x00, returndatasize)\n    tag_135:\n      pop\n      pop\n      pop\n      pop\n      mload(0x40)\n      returndatasize\n      not(0x1f)\n      0x1f\n      dup3\n      add\n      and\n      dup3\n      add\n      dup1\n      0x40\n      mstore\n      pop\n      dup2\n      add\n      swap1\n      tag_136\n      swap2\n      swap1\n      tag_67\n      jump\t// in\n    tag_136:\n      pop\n        /* \"Arbitrage.sol\":4069:4081  LINK_address */\n      dup3\n        /* \"Arbitrage.sol\":4062:4090  IERC20(LINK_address).approve */\n      0xffffffffffffffffffffffffffffffffffffffff\n      and\n      0x095ea7b3\n        /* \"Arbitrage.sol\":4099:4105  cpamm2 */\n      0x05\n      0x00\n      swap1\n      sload\n      swap1\n      0x0100\n      exp\n      swap1\n      div\n      0xffffffffffffffffffffffffffffffffffffffff\n      and\n        /* \"Arbitrage.sol\":4108:4119  MAX_UINT256 */\n      dup4\n        /* \"Arbitrage.sol\":4062:4120  IERC20(LINK_address).approve(address(cpamm2), MAX_UINT256) */\n      mload(0x40)\n      dup4\n      0xffffffff\n      and\n      0xe0\n      shl\n      dup2\n      mstore\n      0x04\n      add\n      tag_137\n      swap3\n      swap2\n      swap1\n      tag_63\n      jump\t// in\n    tag_137:\n      0x20\n      mload(0x40)\n      dup1\n      dup4\n      sub\n      dup2\n      0x00\n      dup8\n      gas\n      call\n      iszero\n      dup1\n      iszero\n      tag_139\n      jumpi\n      returndatasize\n      0x00\n      dup1\n      returndatacopy\n      revert(0x00, returndatasize)\n    tag_139:\n      pop\n      pop\n      pop\n      pop\n      mload(0x40)\n      returndatasize\n      not(0x1f)\n      0x1f\n      dup3\n      add\n      and\n      dup3\n      add\n      dup1\n      0x40\n      mstore\n      pop\n      dup2\n      add\n      swap1\n      tag_140\n      swap2\n      swap1\n      tag_67\n      jump\t// in\n    tag_140:\n      pop\n        /* \"Arbitrage.sol\":4135:4153  uint256 usdcAmount */\n      0x00\n        /* \"Arbitrage.sol\":4156:4162  cpamm1 */\n      0x04\n      0x00\n      swap1\n      sload\n      swap1\n      0x0100\n      exp\n      swap1\n      div\n      0xffffffffffffffffffffffffffffffffffffffff\n      and\n        /* \"Arbitrage.sol\":4156:4167  cpamm1.swap */\n      0xffffffffffffffffffffffffffffffffffffffff\n      and\n      0xd004f0f7\n        /* \"Arbitrage.sol\":4168:4180  WBTC_address */\n      dup5\n        /* \"Arbitrage.sol\":4182:4188  amount */\n      dup14\n        /* \"Arbitrage.sol\":4156:4189  cpamm1.swap(WBTC_address, amount) */\n      mload(0x40)\n      dup4\n      0xffffffff\n      and\n      0xe0\n      shl\n      dup2\n      mstore\n      0x04\n      add\n      tag_141\n      swap3\n      swap2\n      swap1\n      tag_63\n      jump\t// in\n    tag_141:\n      0x20\n      mload(0x40)\n      dup1\n      dup4\n      sub\n      dup2\n      0x00\n      dup8\n      gas\n      call\n      iszero\n      dup1\n      iszero\n      tag_143\n      jumpi\n      returndatasize\n      0x00\n      dup1\n      returndatacopy\n      revert(0x00, returndatasize)\n    tag_143:\n      pop\n      pop\n      pop\n      pop\n      mload(0x40)\n      returndatasize\n      not(0x1f)\n      0x1f\n      dup3\n      add\n      and\n      dup3\n      add\n      dup1\n      0x40\n      mstore\n      pop\n      dup2\n      add\n      swap1\n      tag_144\n      swap2\n      swap1\n      tag_80\n      jump\t// in\n    tag_144:\n        /* \"Arbitrage.sol\":4135:4189  uint256 usdcAmount = cpamm1.swap(WBTC_address, amount) */\n      swap1\n      pop\n        /* \"Arbitrage.sol\":4204:4222  uint256 linkAmount */\n      0x00\n        /* \"Arbitrage.sol\":4225:4231  cpamm3 */\n      0x06\n      0x00\n      swap1\n      sload\n      swap1\n      0x0100\n      exp\n      swap1\n      div\n      0xffffffffffffffffffffffffffffffffffffffff\n      and\n        /* \"Arbitrage.sol\":4225:4236  cpamm3.swap */\n      0xffffffffffffffffffffffffffffffffffffffff\n      and\n      0xd004f0f7\n        /* \"Arbitrage.sol\":4237:4249  USDC_address */\n      dup8\n        /* \"Arbitrage.sol\":4251:4261  usdcAmount */\n      dup5\n        /* \"Arbitrage.sol\":4225:4262  cpamm3.swap(USDC_address, usdcAmount) */\n      mload(0x40)\n      dup4\n      0xffffffff\n      and\n      0xe0\n      shl\n      dup2\n      mstore\n      0x04\n      add\n      tag_145\n      swap3\n      swap2\n      swap1\n      tag_63\n      jump\t// in\n    tag_145:\n      0x20\n      mload(0x40)\n      dup1\n      dup4\n      sub\n      dup2\n      0x00\n      dup8\n      gas\n      call\n      iszero\n      dup1\n      iszero\n      tag_147\n      jumpi\n      returndatasize\n      0x00\n      dup1\n      returndatacopy\n      revert(0x00, returndatasize)\n    tag_147:\n      pop\n      pop\n      pop\n      pop\n      mload(0x40)\n      returndatasize\n      not(0x1f)\n      0x1f\n      dup3\n      add\n      and\n      dup3\n      add\n      dup1\n      0x40\n      mstore\n      pop\n      dup2\n      add\n      swap1\n      tag_148\n      swap2\n      swap1\n      tag_80\n      jump\t// in\n    tag_148:\n        /* \"Arbitrage.sol\":4204:4262  uint256 linkAmount = cpamm3.swap(USDC_address, usdcAmount) */\n      swap1\n      pop\n        /* \"Arbitrage.sol\":4277:4295  uint256 wbtcAmount */\n      0x00\n        /* \"Arbitrage.sol\":4298:4304  cpamm2 */\n      0x05\n      0x00\n      swap1\n      sload\n      swap1\n      0x0100\n      exp\n      swap1\n      div\n      0xffffffffffffffffffffffffffffffffffffffff\n      and\n        /* \"Arbitrage.sol\":4298:4309  cpamm2.swap */\n      0xffffffffffffffffffffffffffffffffffffffff\n      and\n      0xd004f0f7\n        /* \"Arbitrage.sol\":4310:4322  LINK_address */\n      dup8\n        /* \"Arbitrage.sol\":4324:4334  linkAmount */\n      dup5\n        /* \"Arbitrage.sol\":4298:4335  cpamm2.swap(LINK_address, linkAmount) */\n      mload(0x40)\n      dup4\n      0xffffffff\n      and\n      0xe0\n      shl\n      dup2\n      mstore\n      0x04\n      add\n      tag_149\n      swap3\n      swap2\n      swap1\n      tag_63\n      jump\t// in\n    tag_149:\n      0x20\n      mload(0x40)\n      dup1\n      dup4\n      sub\n      dup2\n      0x00\n      dup8\n      gas\n      call\n      iszero\n      dup1\n      iszero\n      tag_151\n      jumpi\n      returndatasize\n      0x00\n      dup1\n      returndatacopy\n      revert(0x00, returndatasize)\n    tag_151:\n      pop\n      pop\n      pop\n      pop\n      mload(0x40)\n      returndatasize\n      not(0x1f)\n      0x1f\n      dup3\n      add\n      and\n      dup3\n      add\n      dup1\n      0x40\n      mstore\n      pop\n      dup2\n      add\n      swap1\n      tag_152\n      swap2\n      swap1\n      tag_80\n      jump\t// in\n    tag_152:\n        /* \"Arbitrage.sol\":4277:4335  uint256 wbtcAmount = cpamm2.swap(LINK_address, linkAmount) */\n      swap1\n      pop\n        /* \"Arbitrage.sol\":4390:4409  uint256 totalAmount */\n      0x00\n        /* \"Arbitrage.sol\":4421:4428  premium */\n      dup13\n        /* \"Arbitrage.sol\":4412:4418  amount */\n      dup15\n        /* \"Arbitrage.sol\":4412:4428  amount + premium */\n      tag_153\n      swap2\n      swap1\n      tag_90\n      jump\t// in\n    tag_153:\n        /* \"Arbitrage.sol\":4390:4428  uint256 totalAmount = amount + premium */\n      swap1\n      pop\n        /* \"Arbitrage.sol\":4450:4455  asset */\n      dup15\n        /* \"Arbitrage.sol\":4443:4464  IERC20(asset).approve */\n      0xffffffffffffffffffffffffffffffffffffffff\n      and\n      0x095ea7b3\n        /* \"Arbitrage.sol\":4473:4477  POOL */\n      immutable(\"0x1a87bd8a90f68e1a783aeb62d8f14bea0949c88f942ad2b7737dddede78696b4\")\n        /* \"Arbitrage.sol\":4480:4491  totalAmount */\n      dup4\n        /* \"Arbitrage.sol\":4443:4492  IERC20(asset).approve(address(POOL), totalAmount) */\n      mload(0x40)\n      dup4\n      0xffffffff\n      and\n      0xe0\n      shl\n      dup2\n      mstore\n      0x04\n      add\n      tag_154\n      swap3\n      swap2\n      swap1\n      tag_63\n      jump\t// in\n    tag_154:\n      0x20\n      mload(0x40)\n      dup1\n      dup4\n      sub\n      dup2\n      0x00\n      dup8\n      gas\n      call\n      iszero\n      dup1\n      iszero\n      tag_156\n      jumpi\n      returndatasize\n      0x00\n      dup1\n      returndatacopy\n      revert(0x00, returndatasize)\n    tag_156:\n      pop\n      pop\n      pop\n      pop\n      mload(0x40)\n      returndatasize\n      not(0x1f)\n      0x1f\n      dup3\n      add\n      and\n      dup3\n      add\n      dup1\n      0x40\n      mstore\n      pop\n      dup2\n      add\n      swap1\n      tag_157\n      swap2\n      swap1\n      tag_67\n      jump\t// in\n    tag_157:\n      pop\n        /* \"Arbitrage.sol\":4514:4518  true */\n      0x01\n        /* \"Arbitrage.sol\":4507:4518  return true */\n      swap9\n      pop\n      pop\n      pop\n      pop\n      pop\n      pop\n      pop\n      pop\n      pop\n      jump(tag_59)\n        /* \"Arbitrage.sol\":3884:5202  if (path == true){... */\n    tag_128:\n        /* \"Arbitrage.sol\":4561:4566  false */\n      0x00\n        /* \"Arbitrage.sol\":4553:4566  path == false */\n      iszero\n      iszero\n        /* \"Arbitrage.sol\":4553:4557  path */\n      0x06\n      0x14\n      swap1\n      sload\n      swap1\n      0x0100\n      exp\n      swap1\n      div\n      0xff\n      and\n        /* \"Arbitrage.sol\":4553:4566  path == false */\n      iszero\n      iszero\n      eq\n        /* \"Arbitrage.sol\":4549:5202  if (path == false){... */\n      iszero\n      tag_159\n      jumpi\n        /* \"Arbitrage.sol\":4589:4601  WBTC_address */\n      dup2\n        /* \"Arbitrage.sol\":4582:4610  IERC20(WBTC_address).approve */\n      0xffffffffffffffffffffffffffffffffffffffff\n      and\n      0x095ea7b3\n        /* \"Arbitrage.sol\":4619:4625  cpamm2 */\n      0x05\n      0x00\n      swap1\n      sload\n      swap1\n      0x0100\n      exp\n      swap1\n      div\n      0xffffffffffffffffffffffffffffffffffffffff\n      and\n        /* \"Arbitrage.sol\":4628:4639  MAX_UINT256 */\n      dup4\n        /* \"Arbitrage.sol\":4582:4640  IERC20(WBTC_address).approve(address(cpamm2), MAX_UINT256) */\n      mload(0x40)\n      dup4\n      0xffffffff\n      and\n      0xe0\n      shl\n      dup2\n      mstore\n      0x04\n      add\n      tag_160\n      swap3\n      swap2\n      swap1\n      tag_63\n      jump\t// in\n    tag_160:\n      0x20\n      mload(0x40)\n      dup1\n      dup4\n      sub\n      dup2\n      0x00\n      dup8\n      gas\n      call\n      iszero\n      dup1\n      iszero\n      tag_162\n      jumpi\n      returndatasize\n      0x00\n      dup1\n      returndatacopy\n      revert(0x00, returndatasize)\n    tag_162:\n      pop\n      pop\n      pop\n      pop\n      mload(0x40)\n      returndatasize\n      not(0x1f)\n      0x1f\n      dup3\n      add\n      and\n      dup3\n      add\n      dup1\n      0x40\n      mstore\n      pop\n      dup2\n      add\n      swap1\n      tag_163\n      swap2\n      swap1\n      tag_67\n      jump\t// in\n    tag_163:\n      pop\n        /* \"Arbitrage.sol\":4662:4674  LINK_address */\n      dup3\n        /* \"Arbitrage.sol\":4655:4683  IERC20(LINK_address).approve */\n      0xffffffffffffffffffffffffffffffffffffffff\n      and\n      0x095ea7b3\n        /* \"Arbitrage.sol\":4692:4698  cpamm3 */\n      0x06\n      0x00\n      swap1\n      sload\n      swap1\n      0x0100\n      exp\n      swap1\n      div\n      0xffffffffffffffffffffffffffffffffffffffff\n      and\n        /* \"Arbitrage.sol\":4701:4712  MAX_UINT256 */\n      dup4\n        /* \"Arbitrage.sol\":4655:4713  IERC20(LINK_address).approve(address(cpamm3), MAX_UINT256) */\n      mload(0x40)\n      dup4\n      0xffffffff\n      and\n      0xe0\n      shl\n      dup2\n      mstore\n      0x04\n      add\n      tag_164\n      swap3\n      swap2\n      swap1\n      tag_63\n      jump\t// in\n    tag_164:\n      0x20\n      mload(0x40)\n      dup1\n      dup4\n      sub\n      dup2\n      0x00\n      dup8\n      gas\n      call\n      iszero\n      dup1\n      iszero\n      tag_166\n      jumpi\n      returndatasize\n      0x00\n      dup1\n      returndatacopy\n      revert(0x00, returndatasize)\n    tag_166:\n      pop\n      pop\n      pop\n      pop\n      mload(0x40)\n      returndatasize\n      not(0x1f)\n      0x1f\n      dup3\n      add\n      and\n      dup3\n      add\n      dup1\n      0x40\n      mstore\n      pop\n      dup2\n      add\n      swap1\n      tag_167\n      swap2\n      swap1\n      tag_67\n      jump\t// in\n    tag_167:\n      pop\n        /* \"Arbitrage.sol\":4735:4747  USDC_address */\n      dup4\n        /* \"Arbitrage.sol\":4728:4756  IERC20(USDC_address).approve */\n      0xffffffffffffffffffffffffffffffffffffffff\n      and\n      0x095ea7b3\n        /* \"Arbitrage.sol\":4765:4771  cpamm1 */\n      0x04\n      0x00\n      swap1\n      sload\n      swap1\n      0x0100\n      exp\n      swap1\n      div\n      0xffffffffffffffffffffffffffffffffffffffff\n      and\n        /* \"Arbitrage.sol\":4774:4785  MAX_UINT256 */\n      dup4\n        /* \"Arbitrage.sol\":4728:4786  IERC20(USDC_address).approve(address(cpamm1), MAX_UINT256) */\n      mload(0x40)\n      dup4\n      0xffffffff\n      and\n      0xe0\n      shl\n      dup2\n      mstore\n      0x04\n      add\n      tag_168\n      swap3\n      swap2\n      swap1\n      tag_63\n      jump\t// in\n    tag_168:\n      0x20\n      mload(0x40)\n      dup1\n      dup4\n      sub\n      dup2\n      0x00\n      dup8\n      gas\n      call\n      iszero\n      dup1\n      iszero\n      tag_170\n      jumpi\n      returndatasize\n      0x00\n      dup1\n      returndatacopy\n      revert(0x00, returndatasize)\n    tag_170:\n      pop\n      pop\n      pop\n      pop\n      mload(0x40)\n      returndatasize\n      not(0x1f)\n      0x1f\n      dup3\n      add\n      and\n      dup3\n      add\n      dup1\n      0x40\n      mstore\n      pop\n      dup2\n      add\n      swap1\n      tag_171\n      swap2\n      swap1\n      tag_67\n      jump\t// in\n    tag_171:\n      pop\n        /* \"Arbitrage.sol\":4803:4821  uint256 linkAmount */\n      0x00\n        /* \"Arbitrage.sol\":4824:4830  cpamm2 */\n      0x05\n      0x00\n      swap1\n      sload\n      swap1\n      0x0100\n      exp\n      swap1\n      div\n      0xffffffffffffffffffffffffffffffffffffffff\n      and\n        /* \"Arbitrage.sol\":4824:4835  cpamm2.swap */\n      0xffffffffffffffffffffffffffffffffffffffff\n      and\n      0xd004f0f7\n        /* \"Arbitrage.sol\":4836:4848  WBTC_address */\n      dup5\n        /* \"Arbitrage.sol\":4850:4856  amount */\n      dup14\n        /* \"Arbitrage.sol\":4824:4857  cpamm2.swap(WBTC_address, amount) */\n      mload(0x40)\n      dup4\n      0xffffffff\n      and\n      0xe0\n      shl\n      dup2\n      mstore\n      0x04\n      add\n      tag_172\n      swap3\n      swap2\n      swap1\n      tag_63\n      jump\t// in\n    tag_172:\n      0x20\n      mload(0x40)\n      dup1\n      dup4\n      sub\n      dup2\n      0x00\n      dup8\n      gas\n      call\n      iszero\n      dup1\n      iszero\n      tag_174\n      jumpi\n      returndatasize\n      0x00\n      dup1\n      returndatacopy\n      revert(0x00, returndatasize)\n    tag_174:\n      pop\n      pop\n      pop\n      pop\n      mload(0x40)\n      returndatasize\n      not(0x1f)\n      0x1f\n      dup3\n      add\n      and\n      dup3\n      add\n      dup1\n      0x40\n      mstore\n      pop\n      dup2\n      add\n      swap1\n      tag_175\n      swap2\n      swap1\n      tag_80\n      jump\t// in\n    tag_175:\n        /* \"Arbitrage.sol\":4803:4857  uint256 linkAmount = cpamm2.swap(WBTC_address, amount) */\n      swap1\n      pop\n        /* \"Arbitrage.sol\":4872:4890  uint256 usdcAmount */\n      0x00\n        /* \"Arbitrage.sol\":4893:4899  cpamm3 */\n      0x06\n      0x00\n      swap1\n      sload\n      swap1\n      0x0100\n      exp\n      swap1\n      div\n      0xffffffffffffffffffffffffffffffffffffffff\n      and\n        /* \"Arbitrage.sol\":4893:4904  cpamm3.swap */\n      0xffffffffffffffffffffffffffffffffffffffff\n      and\n      0xd004f0f7\n        /* \"Arbitrage.sol\":4905:4917  LINK_address */\n      dup7\n        /* \"Arbitrage.sol\":4919:4929  linkAmount */\n      dup5\n        /* \"Arbitrage.sol\":4893:4930  cpamm3.swap(LINK_address, linkAmount) */\n      mload(0x40)\n      dup4\n      0xffffffff\n      and\n      0xe0\n      shl\n      dup2\n      mstore\n      0x04\n      add\n      tag_176\n      swap3\n      swap2\n      swap1\n      tag_63\n      jump\t// in\n    tag_176:\n      0x20\n      mload(0x40)\n      dup1\n      dup4\n      sub\n      dup2\n      0x00\n      dup8\n      gas\n      call\n      iszero\n      dup1\n      iszero\n      tag_178\n      jumpi\n      returndatasize\n      0x00\n      dup1\n      returndatacopy\n      revert(0x00, returndatasize)\n    tag_178:\n      pop\n      pop\n      pop\n      pop\n      mload(0x40)\n      returndatasize\n      not(0x1f)\n      0x1f\n      dup3\n      add\n      and\n      dup3\n      add\n      dup1\n      0x40\n      mstore\n      pop\n      dup2\n      add\n      swap1\n      tag_179\n      swap2\n      swap1\n      tag_80\n      jump\t// in\n    tag_179:\n        /* \"Arbitrage.sol\":4872:4930  uint256 usdcAmount = cpamm3.swap(LINK_address, linkAmount) */\n      swap1\n      pop\n        /* \"Arbitrage.sol\":4945:4963  uint256 wbtcAmount */\n      0x00\n        /* \"Arbitrage.sol\":4966:4972  cpamm1 */\n      0x04\n      0x00\n      swap1\n      sload\n      swap1\n      0x0100\n      exp\n      swap1\n      div\n      0xffffffffffffffffffffffffffffffffffffffff\n      and\n        /* \"Arbitrage.sol\":4966:4977  cpamm1.swap */\n      0xffffffffffffffffffffffffffffffffffffffff\n      and\n      0xd004f0f7\n        /* \"Arbitrage.sol\":4978:4990  USDC_address */\n      dup9\n        /* \"Arbitrage.sol\":4992:5002  usdcAmount */\n      dup5\n        /* \"Arbitrage.sol\":4966:5003  cpamm1.swap(USDC_address, usdcAmount) */\n      mload(0x40)\n      dup4\n      0xffffffff\n      and\n      0xe0\n      shl\n      dup2\n      mstore\n      0x04\n      add\n      tag_180\n      swap3\n      swap2\n      swap1\n      tag_63\n      jump\t// in\n    tag_180:\n      0x20\n      mload(0x40)\n      dup1\n      dup4\n      sub\n      dup2\n      0x00\n      dup8\n      gas\n      call\n      iszero\n      dup1\n      iszero\n      tag_182\n      jumpi\n      returndatasize\n      0x00\n      dup1\n      returndatacopy\n      revert(0x00, returndatasize)\n    tag_182:\n      pop\n      pop\n      pop\n      pop\n      mload(0x40)\n      returndatasize\n      not(0x1f)\n      0x1f\n      dup3\n      add\n      and\n      dup3\n      add\n      dup1\n      0x40\n      mstore\n      pop\n      dup2\n      add\n      swap1\n      tag_183\n      swap2\n      swap1\n      tag_80\n      jump\t// in\n    tag_183:\n        /* \"Arbitrage.sol\":4945:5003  uint256 wbtcAmount = cpamm1.swap(USDC_address, usdcAmount) */\n      swap1\n      pop\n        /* \"Arbitrage.sol\":5058:5077  uint256 totalAmount */\n      0x00\n        /* \"Arbitrage.sol\":5089:5096  premium */\n      dup13\n        /* \"Arbitrage.sol\":5080:5086  amount */\n      dup15\n        /* \"Arbitrage.sol\":5080:5096  amount + premium */\n      tag_184\n      swap2\n      swap1\n      tag_90\n      jump\t// in\n    tag_184:\n        /* \"Arbitrage.sol\":5058:5096  uint256 totalAmount = amount + premium */\n      swap1\n      pop\n        /* \"Arbitrage.sol\":5118:5123  asset */\n      dup15\n        /* \"Arbitrage.sol\":5111:5132  IERC20(asset).approve */\n      0xffffffffffffffffffffffffffffffffffffffff\n      and\n      0x095ea7b3\n        /* \"Arbitrage.sol\":5141:5145  POOL */\n      immutable(\"0x1a87bd8a90f68e1a783aeb62d8f14bea0949c88f942ad2b7737dddede78696b4\")\n        /* \"Arbitrage.sol\":5148:5159  totalAmount */\n      dup4\n        /* \"Arbitrage.sol\":5111:5160  IERC20(asset).approve(address(POOL), totalAmount) */\n      mload(0x40)\n      dup4\n      0xffffffff\n      and\n      0xe0\n      shl\n      dup2\n      mstore\n      0x04\n      add\n      tag_185\n      swap3\n      swap2\n      swap1\n      tag_63\n      jump\t// in\n    tag_185:\n      0x20\n      mload(0x40)\n      dup1\n      dup4\n      sub\n      dup2\n      0x00\n      dup8\n      gas\n      call\n      iszero\n      dup1\n      iszero\n      tag_187\n      jumpi\n      returndatasize\n      0x00\n      dup1\n      returndatacopy\n      revert(0x00, returndatasize)\n    tag_187:\n      pop\n      pop\n      pop\n      pop\n      mload(0x40)\n      returndatasize\n      not(0x1f)\n      0x1f\n      dup3\n      add\n      and\n      dup3\n      add\n      dup1\n      0x40\n      mstore\n      pop\n      dup2\n      add\n      swap1\n      tag_188\n      swap2\n      swap1\n      tag_67\n      jump\t// in\n    tag_188:\n      pop\n        /* \"Arbitrage.sol\":5182:5186  true */\n      0x01\n        /* \"Arbitrage.sol\":5175:5186  return true */\n      swap9\n      pop\n      pop\n      pop\n      pop\n      pop\n      pop\n      pop\n      pop\n      pop\n      jump(tag_59)\n        /* \"Arbitrage.sol\":4549:5202  if (path == false){... */\n    tag_159:\n        /* \"Arbitrage.sol\":3847:5213  if (asset == WBTC_address){... */\n    tag_127:\n        /* \"Arbitrage.sol\":2472:5213  if (asset == USDC_address){... */\n    tag_126:\n        /* \"Arbitrage.sol\":2210:5220  {... */\n      pop\n      pop\n      pop\n      pop\n        /* \"Arbitrage.sol\":2033:5220  function executeOperation(... */\n    tag_59:\n      swap7\n      swap6\n      pop\n      pop\n      pop\n      pop\n      pop\n      pop\n      jump\t// out\n        /* \"Arbitrage.sol\":1350:1394  ICPAMM public cpamm3 = ICPAMM(cpamm3Address) */\n    tag_34:\n      0x06\n      0x00\n      swap1\n      sload\n      swap1\n      0x0100\n      exp\n      swap1\n      div\n      0xffffffffffffffffffffffffffffffffffffffff\n      and\n      dup2\n      jump\t// out\n        /* \"Arbitrage.sol\":1540:1944  function fn_RequestFlashLoan(address _token, uint256 _amount, bool _path) public {... */\n    tag_39:\n        /* \"Arbitrage.sol\":1628:1651  address receiverAddress */\n      0x00\n        /* \"Arbitrage.sol\":1662:1666  this */\n      address\n        /* \"Arbitrage.sol\":1628:1667  address receiverAddress = address(this) */\n      swap1\n      pop\n        /* \"Arbitrage.sol\":1674:1687  address asset */\n      0x00\n        /* \"Arbitrage.sol\":1690:1696  _token */\n      dup5\n        /* \"Arbitrage.sol\":1674:1696  address asset = _token */\n      swap1\n      pop\n        /* \"Arbitrage.sol\":1703:1717  uint256 amount */\n      0x00\n        /* \"Arbitrage.sol\":1720:1727  _amount */\n      dup5\n        /* \"Arbitrage.sol\":1703:1727  uint256 amount = _amount */\n      swap1\n      pop\n        /* \"Arbitrage.sol\":1734:1753  bytes memory params */\n      0x00\n        /* \"Arbitrage.sol\":1734:1758  bytes memory params = \"\" */\n      mload(0x40)\n      dup1\n      0x20\n      add\n      0x40\n      mstore\n      dup1\n      0x00\n      dup2\n      mstore\n      pop\n      swap1\n      pop\n        /* \"Arbitrage.sol\":1765:1784  uint16 referralCode */\n      0x00\n        /* \"Arbitrage.sol\":1802:1807  _path */\n      dup6\n        /* \"Arbitrage.sol\":1795:1799  path */\n      0x06\n      0x14\n        /* \"Arbitrage.sol\":1795:1807  path = _path */\n      0x0100\n      exp\n      dup2\n      sload\n      dup2\n      0xff\n      mul\n      not\n      and\n      swap1\n      dup4\n      iszero\n      iszero\n      mul\n      or\n      swap1\n      sstore\n      pop\n        /* \"Arbitrage.sol\":1814:1818  POOL */\n      immutable(\"0x1a87bd8a90f68e1a783aeb62d8f14bea0949c88f942ad2b7737dddede78696b4\")\n        /* \"Arbitrage.sol\":1814:1834  POOL.flashLoanSimple */\n      0xffffffffffffffffffffffffffffffffffffffff\n      and\n      0x42b0b77c\n        /* \"Arbitrage.sol\":1845:1860  receiverAddress */\n      dup7\n        /* \"Arbitrage.sol\":1871:1876  asset */\n      dup7\n        /* \"Arbitrage.sol\":1887:1893  amount */\n      dup7\n        /* \"Arbitrage.sol\":1904:1910  params */\n      dup7\n        /* \"Arbitrage.sol\":1921:1933  referralCode */\n      dup7\n        /* \"Arbitrage.sol\":1814:1940  POOL.flashLoanSimple(... */\n      mload(0x40)\n      dup7\n      0xffffffff\n      and\n      0xe0\n      shl\n      dup2\n      mstore\n      0x04\n      add\n      tag_190\n      swap6\n      swap5\n      swap4\n      swap3\n      swap2\n      swap1\n      tag_191\n      jump\t// in\n    tag_190:\n      0x00\n      mload(0x40)\n      dup1\n      dup4\n      sub\n      dup2\n      0x00\n      dup8\n      dup1\n      extcodesize\n      iszero\n      dup1\n      iszero\n      tag_192\n      jumpi\n      0x00\n      dup1\n      revert\n    tag_192:\n      pop\n      gas\n      call\n      iszero\n      dup1\n      iszero\n      tag_194\n      jumpi\n      returndatasize\n      0x00\n      dup1\n      returndatacopy\n      revert(0x00, returndatasize)\n    tag_194:\n      pop\n      pop\n      pop\n      pop\n        /* \"Arbitrage.sol\":1621:1944  {... */\n      pop\n      pop\n      pop\n      pop\n      pop\n        /* \"Arbitrage.sol\":1540:1944  function fn_RequestFlashLoan(address _token, uint256 _amount, bool _path) public {... */\n      pop\n      pop\n      pop\n      jump\t// out\n        /* \"https://github.com/aave/aave-v3-core/blob/master/contracts/flashloan/base/FlashLoanSimpleReceiverBase.sol\":560:596  IPool public immutable override POOL */\n    tag_41:\n      immutable(\"0x1a87bd8a90f68e1a783aeb62d8f14bea0949c88f942ad2b7737dddede78696b4\")\n      dup2\n      jump\t// out\n        /* \"Arbitrage.sol\":1018:1091  address public cpamm2Address = 0x4304B373A207156CEE82816b21d82605F6aA2F10 */\n    tag_45:\n      0x02\n      0x00\n      swap1\n      sload\n      swap1\n      0x0100\n      exp\n      swap1\n      div\n      0xffffffffffffffffffffffffffffffffffffffff\n      and\n      dup2\n      jump\t// out\n        /* \"Arbitrage.sol\":1137:1210  address public cpamm3Address = 0x8e9A1928D5F20c794B584667c0a797b5e409219E */\n    tag_48:\n      0x03\n      0x00\n      swap1\n      sload\n      swap1\n      0x0100\n      exp\n      swap1\n      div\n      0xffffffffffffffffffffffffffffffffffffffff\n      and\n      dup2\n      jump\t// out\n        /* \"Arbitrage.sol\":1303:1347  ICPAMM public cpamm2 = ICPAMM(cpamm2Address) */\n    tag_51:\n      0x05\n      0x00\n      swap1\n      sload\n      swap1\n      0x0100\n      exp\n      swap1\n      div\n      0xffffffffffffffffffffffffffffffffffffffff\n      and\n      dup2\n      jump\t// out\n        /* \"Arbitrage.sol\":5228:5375  function getBalance(address _tokenAddress) external view returns (uint256) {... */\n    tag_56:\n        /* \"Arbitrage.sol\":5294:5301  uint256 */\n      0x00\n        /* \"Arbitrage.sol\":5328:5341  _tokenAddress */\n      dup2\n        /* \"Arbitrage.sol\":5321:5352  IERC20(_tokenAddress).balanceOf */\n      0xffffffffffffffffffffffffffffffffffffffff\n      and\n      0x70a08231\n        /* \"Arbitrage.sol\":5361:5365  this */\n      address\n        /* \"Arbitrage.sol\":5321:5367  IERC20(_tokenAddress).balanceOf(address(this)) */\n      mload(0x40)\n      dup3\n      0xffffffff\n      and\n      0xe0\n      shl\n      dup2\n      mstore\n      0x04\n      add\n      tag_196\n      swap2\n      swap1\n      tag_26\n      jump\t// in\n    tag_196:\n      0x20\n      mload(0x40)\n      dup1\n      dup4\n      sub\n      dup2\n      dup7\n      gas\n      staticcall\n      iszero\n      dup1\n      iszero\n      tag_198\n      jumpi\n      returndatasize\n      0x00\n      dup1\n      returndatacopy\n      revert(0x00, returndatasize)\n    tag_198:\n      pop\n      pop\n      pop\n      pop\n      mload(0x40)\n      returndatasize\n      not(0x1f)\n      0x1f\n      dup3\n      add\n      and\n      dup3\n      add\n      dup1\n      0x40\n      mstore\n      pop\n      dup2\n      add\n      swap1\n      tag_199\n      swap2\n      swap1\n      tag_80\n      jump\t// in\n    tag_199:\n        /* \"Arbitrage.sol\":5314:5367  return IERC20(_tokenAddress).balanceOf(address(this)) */\n      swap1\n      pop\n        /* \"Arbitrage.sol\":5228:5375  function getBalance(address _tokenAddress) external view returns (uint256) {... */\n      swap2\n      swap1\n      pop\n      jump\t// out\n        /* \"#utility.yul\":7:133   */\n    tag_200:\n        /* \"#utility.yul\":44:51   */\n      0x00\n        /* \"#utility.yul\":84:126   */\n      0xffffffffffffffffffffffffffffffffffffffff\n        /* \"#utility.yul\":77:82   */\n      dup3\n        /* \"#utility.yul\":73:127   */\n      and\n        /* \"#utility.yul\":62:127   */\n      swap1\n      pop\n        /* \"#utility.yul\":7:133   */\n      swap2\n      swap1\n      pop\n      jump\t// out\n        /* \"#utility.yul\":139:199   */\n    tag_201:\n        /* \"#utility.yul\":167:170   */\n      0x00\n        /* \"#utility.yul\":188:193   */\n      dup2\n        /* \"#utility.yul\":181:193   */\n      swap1\n      pop\n        /* \"#utility.yul\":139:199   */\n      swap2\n      swap1\n      pop\n      jump\t// out\n        /* \"#utility.yul\":205:347   */\n    tag_202:\n        /* \"#utility.yul\":255:264   */\n      0x00\n        /* \"#utility.yul\":288:341   */\n      tag_243\n        /* \"#utility.yul\":306:340   */\n      tag_244\n        /* \"#utility.yul\":315:339   */\n      tag_245\n        /* \"#utility.yul\":333:338   */\n      dup5\n        /* \"#utility.yul\":315:339   */\n      tag_200\n      jump\t// in\n    tag_245:\n        /* \"#utility.yul\":306:340   */\n      tag_201\n      jump\t// in\n    tag_244:\n        /* \"#utility.yul\":288:341   */\n      tag_200\n      jump\t// in\n    tag_243:\n        /* \"#utility.yul\":275:341   */\n      swap1\n      pop\n        /* \"#utility.yul\":205:347   */\n      swap2\n      swap1\n      pop\n      jump\t// out\n        /* \"#utility.yul\":353:479   */\n    tag_203:\n        /* \"#utility.yul\":403:412   */\n      0x00\n        /* \"#utility.yul\":436:473   */\n      tag_247\n        /* \"#utility.yul\":467:472   */\n      dup3\n        /* \"#utility.yul\":436:473   */\n      tag_202\n      jump\t// in\n    tag_247:\n        /* \"#utility.yul\":423:473   */\n      swap1\n      pop\n        /* \"#utility.yul\":353:479   */\n      swap2\n      swap1\n      pop\n      jump\t// out\n        /* \"#utility.yul\":485:624   */\n    tag_204:\n        /* \"#utility.yul\":548:557   */\n      0x00\n        /* \"#utility.yul\":581:618   */\n      tag_249\n        /* \"#utility.yul\":612:617   */\n      dup3\n        /* \"#utility.yul\":581:618   */\n      tag_203\n      jump\t// in\n    tag_249:\n        /* \"#utility.yul\":568:618   */\n      swap1\n      pop\n        /* \"#utility.yul\":485:624   */\n      swap2\n      swap1\n      pop\n      jump\t// out\n        /* \"#utility.yul\":630:787   */\n    tag_205:\n        /* \"#utility.yul\":730:780   */\n      tag_251\n        /* \"#utility.yul\":774:779   */\n      dup2\n        /* \"#utility.yul\":730:780   */\n      tag_204\n      jump\t// in\n    tag_251:\n        /* \"#utility.yul\":725:728   */\n      dup3\n        /* \"#utility.yul\":718:781   */\n      mstore\n        /* \"#utility.yul\":630:787   */\n      pop\n      pop\n      jump\t// out\n        /* \"#utility.yul\":793:1041   */\n    tag_18:\n        /* \"#utility.yul\":899:903   */\n      0x00\n        /* \"#utility.yul\":937:939   */\n      0x20\n        /* \"#utility.yul\":926:935   */\n      dup3\n        /* \"#utility.yul\":922:940   */\n      add\n        /* \"#utility.yul\":914:940   */\n      swap1\n      pop\n        /* \"#utility.yul\":950:1034   */\n      tag_253\n        /* \"#utility.yul\":1031:1032   */\n      0x00\n        /* \"#utility.yul\":1020:1029   */\n      dup4\n        /* \"#utility.yul\":1016:1033   */\n      add\n        /* \"#utility.yul\":1007:1013   */\n      dup5\n        /* \"#utility.yul\":950:1034   */\n      tag_205\n      jump\t// in\n    tag_253:\n        /* \"#utility.yul\":793:1041   */\n      swap3\n      swap2\n      pop\n      pop\n      jump\t// out\n        /* \"#utility.yul\":1047:1204   */\n    tag_206:\n        /* \"#utility.yul\":1128:1137   */\n      0x00\n        /* \"#utility.yul\":1161:1198   */\n      tag_255\n        /* \"#utility.yul\":1192:1197   */\n      dup3\n        /* \"#utility.yul\":1161:1198   */\n      tag_203\n      jump\t// in\n    tag_255:\n        /* \"#utility.yul\":1148:1198   */\n      swap1\n      pop\n        /* \"#utility.yul\":1047:1204   */\n      swap2\n      swap1\n      pop\n      jump\t// out\n        /* \"#utility.yul\":1210:1403   */\n    tag_207:\n        /* \"#utility.yul\":1328:1396   */\n      tag_257\n        /* \"#utility.yul\":1390:1395   */\n      dup2\n        /* \"#utility.yul\":1328:1396   */\n      tag_206\n      jump\t// in\n    tag_257:\n        /* \"#utility.yul\":1323:1326   */\n      dup3\n        /* \"#utility.yul\":1316:1397   */\n      mstore\n        /* \"#utility.yul\":1210:1403   */\n      pop\n      pop\n      jump\t// out\n        /* \"#utility.yul\":1409:1693   */\n    tag_22:\n        /* \"#utility.yul\":1533:1537   */\n      0x00\n        /* \"#utility.yul\":1571:1573   */\n      0x20\n        /* \"#utility.yul\":1560:1569   */\n      dup3\n        /* \"#utility.yul\":1556:1574   */\n      add\n        /* \"#utility.yul\":1548:1574   */\n      swap1\n      pop\n        /* \"#utility.yul\":1584:1686   */\n      tag_259\n        /* \"#utility.yul\":1683:1684   */\n      0x00\n        /* \"#utility.yul\":1672:1681   */\n      dup4\n        /* \"#utility.yul\":1668:1685   */\n      add\n        /* \"#utility.yul\":1659:1665   */\n      dup5\n        /* \"#utility.yul\":1584:1686   */\n      tag_207\n      jump\t// in\n    tag_259:\n        /* \"#utility.yul\":1409:1693   */\n      swap3\n      swap2\n      pop\n      pop\n      jump\t// out\n        /* \"#utility.yul\":1699:1795   */\n    tag_208:\n        /* \"#utility.yul\":1736:1743   */\n      0x00\n        /* \"#utility.yul\":1765:1789   */\n      tag_261\n        /* \"#utility.yul\":1783:1788   */\n      dup3\n        /* \"#utility.yul\":1765:1789   */\n      tag_200\n      jump\t// in\n    tag_261:\n        /* \"#utility.yul\":1754:1789   */\n      swap1\n      pop\n        /* \"#utility.yul\":1699:1795   */\n      swap2\n      swap1\n      pop\n      jump\t// out\n        /* \"#utility.yul\":1801:1919   */\n    tag_209:\n        /* \"#utility.yul\":1888:1912   */\n      tag_263\n        /* \"#utility.yul\":1906:1911   */\n      dup2\n        /* \"#utility.yul\":1888:1912   */\n      tag_208\n      jump\t// in\n    tag_263:\n        /* \"#utility.yul\":1883:1886   */\n      dup3\n        /* \"#utility.yul\":1876:1913   */\n      mstore\n        /* \"#utility.yul\":1801:1919   */\n      pop\n      pop\n      jump\t// out\n        /* \"#utility.yul\":1925:2147   */\n    tag_26:\n        /* \"#utility.yul\":2018:2022   */\n      0x00\n        /* \"#utility.yul\":2056:2058   */\n      0x20\n        /* \"#utility.yul\":2045:2054   */\n      dup3\n        /* \"#utility.yul\":2041:2059   */\n      add\n        /* \"#utility.yul\":2033:2059   */\n      swap1\n      pop\n        /* \"#utility.yul\":2069:2140   */\n      tag_265\n        /* \"#utility.yul\":2137:2138   */\n      0x00\n        /* \"#utility.yul\":2126:2135   */\n      dup4\n        /* \"#utility.yul\":2122:2139   */\n      add\n        /* \"#utility.yul\":2113:2119   */\n      dup5\n        /* \"#utility.yul\":2069:2140   */\n      tag_209\n      jump\t// in\n    tag_265:\n        /* \"#utility.yul\":1925:2147   */\n      swap3\n      swap2\n      pop\n      pop\n      jump\t// out\n        /* \"#utility.yul\":2234:2351   */\n    tag_211:\n        /* \"#utility.yul\":2343:2344   */\n      0x00\n        /* \"#utility.yul\":2340:2341   */\n      dup1\n        /* \"#utility.yul\":2333:2345   */\n      revert\n        /* \"#utility.yul\":2357:2474   */\n    tag_212:\n        /* \"#utility.yul\":2466:2467   */\n      0x00\n        /* \"#utility.yul\":2463:2464   */\n      dup1\n        /* \"#utility.yul\":2456:2468   */\n      revert\n        /* \"#utility.yul\":2480:2602   */\n    tag_213:\n        /* \"#utility.yul\":2553:2577   */\n      tag_270\n        /* \"#utility.yul\":2571:2576   */\n      dup2\n        /* \"#utility.yul\":2553:2577   */\n      tag_208\n      jump\t// in\n    tag_270:\n        /* \"#utility.yul\":2546:2551   */\n      dup2\n        /* \"#utility.yul\":2543:2578   */\n      eq\n        /* \"#utility.yul\":2533:2596   */\n      tag_271\n      jumpi\n        /* \"#utility.yul\":2592:2593   */\n      0x00\n        /* \"#utility.yul\":2589:2590   */\n      dup1\n        /* \"#utility.yul\":2582:2594   */\n      revert\n        /* \"#utility.yul\":2533:2596   */\n    tag_271:\n        /* \"#utility.yul\":2480:2602   */\n      pop\n      jump\t// out\n        /* \"#utility.yul\":2608:2747   */\n    tag_214:\n        /* \"#utility.yul\":2654:2659   */\n      0x00\n        /* \"#utility.yul\":2692:2698   */\n      dup2\n        /* \"#utility.yul\":2679:2699   */\n      calldataload\n        /* \"#utility.yul\":2670:2699   */\n      swap1\n      pop\n        /* \"#utility.yul\":2708:2741   */\n      tag_273\n        /* \"#utility.yul\":2735:2740   */\n      dup2\n        /* \"#utility.yul\":2708:2741   */\n      tag_213\n      jump\t// in\n    tag_273:\n        /* \"#utility.yul\":2608:2747   */\n      swap3\n      swap2\n      pop\n      pop\n      jump\t// out\n        /* \"#utility.yul\":2753:2830   */\n    tag_215:\n        /* \"#utility.yul\":2790:2797   */\n      0x00\n        /* \"#utility.yul\":2819:2824   */\n      dup2\n        /* \"#utility.yul\":2808:2824   */\n      swap1\n      pop\n        /* \"#utility.yul\":2753:2830   */\n      swap2\n      swap1\n      pop\n      jump\t// out\n        /* \"#utility.yul\":2836:2958   */\n    tag_216:\n        /* \"#utility.yul\":2909:2933   */\n      tag_276\n        /* \"#utility.yul\":2927:2932   */\n      dup2\n        /* \"#utility.yul\":2909:2933   */\n      tag_215\n      jump\t// in\n    tag_276:\n        /* \"#utility.yul\":2902:2907   */\n      dup2\n        /* \"#utility.yul\":2899:2934   */\n      eq\n        /* \"#utility.yul\":2889:2952   */\n      tag_277\n      jumpi\n        /* \"#utility.yul\":2948:2949   */\n      0x00\n        /* \"#utility.yul\":2945:2946   */\n      dup1\n        /* \"#utility.yul\":2938:2950   */\n      revert\n        /* \"#utility.yul\":2889:2952   */\n    tag_277:\n        /* \"#utility.yul\":2836:2958   */\n      pop\n      jump\t// out\n        /* \"#utility.yul\":2964:3103   */\n    tag_217:\n        /* \"#utility.yul\":3010:3015   */\n      0x00\n        /* \"#utility.yul\":3048:3054   */\n      dup2\n        /* \"#utility.yul\":3035:3055   */\n      calldataload\n        /* \"#utility.yul\":3026:3055   */\n      swap1\n      pop\n        /* \"#utility.yul\":3064:3097   */\n      tag_279\n        /* \"#utility.yul\":3091:3096   */\n      dup2\n        /* \"#utility.yul\":3064:3097   */\n      tag_216\n      jump\t// in\n    tag_279:\n        /* \"#utility.yul\":2964:3103   */\n      swap3\n      swap2\n      pop\n      pop\n      jump\t// out\n        /* \"#utility.yul\":3109:3226   */\n    tag_218:\n        /* \"#utility.yul\":3218:3219   */\n      0x00\n        /* \"#utility.yul\":3215:3216   */\n      dup1\n        /* \"#utility.yul\":3208:3220   */\n      revert\n        /* \"#utility.yul\":3232:3349   */\n    tag_219:\n        /* \"#utility.yul\":3341:3342   */\n      0x00\n        /* \"#utility.yul\":3338:3339   */\n      dup1\n        /* \"#utility.yul\":3331:3343   */\n      revert\n        /* \"#utility.yul\":3355:3472   */\n    tag_220:\n        /* \"#utility.yul\":3464:3465   */\n      0x00\n        /* \"#utility.yul\":3461:3462   */\n      dup1\n        /* \"#utility.yul\":3454:3466   */\n      revert\n        /* \"#utility.yul\":3491:4043   */\n    tag_221:\n        /* \"#utility.yul\":3548:3556   */\n      0x00\n        /* \"#utility.yul\":3558:3564   */\n      dup1\n        /* \"#utility.yul\":3608:3611   */\n      dup4\n        /* \"#utility.yul\":3601:3605   */\n      0x1f\n        /* \"#utility.yul\":3593:3599   */\n      dup5\n        /* \"#utility.yul\":3589:3606   */\n      add\n        /* \"#utility.yul\":3585:3612   */\n      slt\n        /* \"#utility.yul\":3575:3697   */\n      tag_284\n      jumpi\n        /* \"#utility.yul\":3616:3695   */\n      tag_285\n      tag_218\n      jump\t// in\n    tag_285:\n        /* \"#utility.yul\":3575:3697   */\n    tag_284:\n        /* \"#utility.yul\":3729:3735   */\n      dup3\n        /* \"#utility.yul\":3716:3736   */\n      calldataload\n        /* \"#utility.yul\":3706:3736   */\n      swap1\n      pop\n        /* \"#utility.yul\":3759:3777   */\n      0xffffffffffffffff\n        /* \"#utility.yul\":3751:3757   */\n      dup2\n        /* \"#utility.yul\":3748:3778   */\n      gt\n        /* \"#utility.yul\":3745:3862   */\n      iszero\n      tag_286\n      jumpi\n        /* \"#utility.yul\":3781:3860   */\n      tag_287\n      tag_219\n      jump\t// in\n    tag_287:\n        /* \"#utility.yul\":3745:3862   */\n    tag_286:\n        /* \"#utility.yul\":3895:3899   */\n      0x20\n        /* \"#utility.yul\":3887:3893   */\n      dup4\n        /* \"#utility.yul\":3883:3900   */\n      add\n        /* \"#utility.yul\":3871:3900   */\n      swap2\n      pop\n        /* \"#utility.yul\":3949:3952   */\n      dup4\n        /* \"#utility.yul\":3941:3945   */\n      0x01\n        /* \"#utility.yul\":3933:3939   */\n      dup3\n        /* \"#utility.yul\":3929:3946   */\n      mul\n        /* \"#utility.yul\":3919:3927   */\n      dup4\n        /* \"#utility.yul\":3915:3947   */\n      add\n        /* \"#utility.yul\":3912:3953   */\n      gt\n        /* \"#utility.yul\":3909:4037   */\n      iszero\n      tag_288\n      jumpi\n        /* \"#utility.yul\":3956:4035   */\n      tag_289\n      tag_220\n      jump\t// in\n    tag_289:\n        /* \"#utility.yul\":3909:4037   */\n    tag_288:\n        /* \"#utility.yul\":3491:4043   */\n      swap3\n      pop\n      swap3\n      swap1\n      pop\n      jump\t// out\n        /* \"#utility.yul\":4049:5158   */\n    tag_29:\n        /* \"#utility.yul\":4155:4161   */\n      0x00\n        /* \"#utility.yul\":4163:4169   */\n      dup1\n        /* \"#utility.yul\":4171:4177   */\n      0x00\n        /* \"#utility.yul\":4179:4185   */\n      dup1\n        /* \"#utility.yul\":4187:4193   */\n      0x00\n        /* \"#utility.yul\":4195:4201   */\n      dup1\n        /* \"#utility.yul\":4244:4247   */\n      0xa0\n        /* \"#utility.yul\":4232:4241   */\n      dup8\n        /* \"#utility.yul\":4223:4230   */\n      dup10\n        /* \"#utility.yul\":4219:4242   */\n      sub\n        /* \"#utility.yul\":4215:4248   */\n      slt\n        /* \"#utility.yul\":4212:4332   */\n      iszero\n      tag_291\n      jumpi\n        /* \"#utility.yul\":4251:4330   */\n      tag_292\n      tag_211\n      jump\t// in\n    tag_292:\n        /* \"#utility.yul\":4212:4332   */\n    tag_291:\n        /* \"#utility.yul\":4371:4372   */\n      0x00\n        /* \"#utility.yul\":4396:4449   */\n      tag_293\n        /* \"#utility.yul\":4441:4448   */\n      dup10\n        /* \"#utility.yul\":4432:4438   */\n      dup3\n        /* \"#utility.yul\":4421:4430   */\n      dup11\n        /* \"#utility.yul\":4417:4439   */\n      add\n        /* \"#utility.yul\":4396:4449   */\n      tag_214\n      jump\t// in\n    tag_293:\n        /* \"#utility.yul\":4386:4449   */\n      swap7\n      pop\n        /* \"#utility.yul\":4342:4459   */\n      pop\n        /* \"#utility.yul\":4498:4500   */\n      0x20\n        /* \"#utility.yul\":4524:4577   */\n      tag_294\n        /* \"#utility.yul\":4569:4576   */\n      dup10\n        /* \"#utility.yul\":4560:4566   */\n      dup3\n        /* \"#utility.yul\":4549:4558   */\n      dup11\n        /* \"#utility.yul\":4545:4567   */\n      add\n        /* \"#utility.yul\":4524:4577   */\n      tag_217\n      jump\t// in\n    tag_294:\n        /* \"#utility.yul\":4514:4577   */\n      swap6\n      pop\n        /* \"#utility.yul\":4469:4587   */\n      pop\n        /* \"#utility.yul\":4626:4628   */\n      0x40\n        /* \"#utility.yul\":4652:4705   */\n      tag_295\n        /* \"#utility.yul\":4697:4704   */\n      dup10\n        /* \"#utility.yul\":4688:4694   */\n      dup3\n        /* \"#utility.yul\":4677:4686   */\n      dup11\n        /* \"#utility.yul\":4673:4695   */\n      add\n        /* \"#utility.yul\":4652:4705   */\n      tag_217\n      jump\t// in\n    tag_295:\n        /* \"#utility.yul\":4642:4705   */\n      swap5\n      pop\n        /* \"#utility.yul\":4597:4715   */\n      pop\n        /* \"#utility.yul\":4754:4756   */\n      0x60\n        /* \"#utility.yul\":4780:4833   */\n      tag_296\n        /* \"#utility.yul\":4825:4832   */\n      dup10\n        /* \"#utility.yul\":4816:4822   */\n      dup3\n        /* \"#utility.yul\":4805:4814   */\n      dup11\n        /* \"#utility.yul\":4801:4823   */\n      add\n        /* \"#utility.yul\":4780:4833   */\n      tag_214\n      jump\t// in\n    tag_296:\n        /* \"#utility.yul\":4770:4833   */\n      swap4\n      pop\n        /* \"#utility.yul\":4725:4843   */\n      pop\n        /* \"#utility.yul\":4910:4913   */\n      0x80\n        /* \"#utility.yul\":4899:4908   */\n      dup8\n        /* \"#utility.yul\":4895:4914   */\n      add\n        /* \"#utility.yul\":4882:4915   */\n      calldataload\n        /* \"#utility.yul\":4942:4960   */\n      0xffffffffffffffff\n        /* \"#utility.yul\":4934:4940   */\n      dup2\n        /* \"#utility.yul\":4931:4961   */\n      gt\n        /* \"#utility.yul\":4928:5045   */\n      iszero\n      tag_297\n      jumpi\n        /* \"#utility.yul\":4964:5043   */\n      tag_298\n      tag_212\n      jump\t// in\n    tag_298:\n        /* \"#utility.yul\":4928:5045   */\n    tag_297:\n        /* \"#utility.yul\":5077:5141   */\n      tag_299\n        /* \"#utility.yul\":5133:5140   */\n      dup10\n        /* \"#utility.yul\":5124:5130   */\n      dup3\n        /* \"#utility.yul\":5113:5122   */\n      dup11\n        /* \"#utility.yul\":5109:5131   */\n      add\n        /* \"#utility.yul\":5077:5141   */\n      tag_221\n      jump\t// in\n    tag_299:\n        /* \"#utility.yul\":5059:5141   */\n      swap3\n      pop\n      swap3\n      pop\n        /* \"#utility.yul\":4853:5151   */\n      pop\n        /* \"#utility.yul\":4049:5158   */\n      swap3\n      swap6\n      pop\n      swap3\n      swap6\n      pop\n      swap3\n      swap6\n      jump\t// out\n        /* \"#utility.yul\":5164:5254   */\n    tag_222:\n        /* \"#utility.yul\":5198:5205   */\n      0x00\n        /* \"#utility.yul\":5241:5246   */\n      dup2\n        /* \"#utility.yul\":5234:5247   */\n      iszero\n        /* \"#utility.yul\":5227:5248   */\n      iszero\n        /* \"#utility.yul\":5216:5248   */\n      swap1\n      pop\n        /* \"#utility.yul\":5164:5254   */\n      swap2\n      swap1\n      pop\n      jump\t// out\n        /* \"#utility.yul\":5260:5369   */\n    tag_223:\n        /* \"#utility.yul\":5341:5362   */\n      tag_302\n        /* \"#utility.yul\":5356:5361   */\n      dup2\n        /* \"#utility.yul\":5341:5362   */\n      tag_222\n      jump\t// in\n    tag_302:\n        /* \"#utility.yul\":5336:5339   */\n      dup3\n        /* \"#utility.yul\":5329:5363   */\n      mstore\n        /* \"#utility.yul\":5260:5369   */\n      pop\n      pop\n      jump\t// out\n        /* \"#utility.yul\":5375:5585   */\n    tag_32:\n        /* \"#utility.yul\":5462:5466   */\n      0x00\n        /* \"#utility.yul\":5500:5502   */\n      0x20\n        /* \"#utility.yul\":5489:5498   */\n      dup3\n        /* \"#utility.yul\":5485:5503   */\n      add\n        /* \"#utility.yul\":5477:5503   */\n      swap1\n      pop\n        /* \"#utility.yul\":5513:5578   */\n      tag_304\n        /* \"#utility.yul\":5575:5576   */\n      0x00\n        /* \"#utility.yul\":5564:5573   */\n      dup4\n        /* \"#utility.yul\":5560:5577   */\n      add\n        /* \"#utility.yul\":5551:5557   */\n      dup5\n        /* \"#utility.yul\":5513:5578   */\n      tag_223\n      jump\t// in\n    tag_304:\n        /* \"#utility.yul\":5375:5585   */\n      swap3\n      swap2\n      pop\n      pop\n      jump\t// out\n        /* \"#utility.yul\":5591:5707   */\n    tag_224:\n        /* \"#utility.yul\":5661:5682   */\n      tag_306\n        /* \"#utility.yul\":5676:5681   */\n      dup2\n        /* \"#utility.yul\":5661:5682   */\n      tag_222\n      jump\t// in\n    tag_306:\n        /* \"#utility.yul\":5654:5659   */\n      dup2\n        /* \"#utility.yul\":5651:5683   */\n      eq\n        /* \"#utility.yul\":5641:5701   */\n      tag_307\n      jumpi\n        /* \"#utility.yul\":5697:5698   */\n      0x00\n        /* \"#utility.yul\":5694:5695   */\n      dup1\n        /* \"#utility.yul\":5687:5699   */\n      revert\n        /* \"#utility.yul\":5641:5701   */\n    tag_307:\n        /* \"#utility.yul\":5591:5707   */\n      pop\n      jump\t// out\n        /* \"#utility.yul\":5713:5846   */\n    tag_225:\n        /* \"#utility.yul\":5756:5761   */\n      0x00\n        /* \"#utility.yul\":5794:5800   */\n      dup2\n        /* \"#utility.yul\":5781:5801   */\n      calldataload\n        /* \"#utility.yul\":5772:5801   */\n      swap1\n      pop\n        /* \"#utility.yul\":5810:5840   */\n      tag_309\n        /* \"#utility.yul\":5834:5839   */\n      dup2\n        /* \"#utility.yul\":5810:5840   */\n      tag_224\n      jump\t// in\n    tag_309:\n        /* \"#utility.yul\":5713:5846   */\n      swap3\n      swap2\n      pop\n      pop\n      jump\t// out\n        /* \"#utility.yul\":5852:6465   */\n    tag_38:\n        /* \"#utility.yul\":5926:5932   */\n      0x00\n        /* \"#utility.yul\":5934:5940   */\n      dup1\n        /* \"#utility.yul\":5942:5948   */\n      0x00\n        /* \"#utility.yul\":5991:5993   */\n      0x60\n        /* \"#utility.yul\":5979:5988   */\n      dup5\n        /* \"#utility.yul\":5970:5977   */\n      dup7\n        /* \"#utility.yul\":5966:5989   */\n      sub\n        /* \"#utility.yul\":5962:5994   */\n      slt\n        /* \"#utility.yul\":5959:6078   */\n      iszero\n      tag_311\n      jumpi\n        /* \"#utility.yul\":5997:6076   */\n      tag_312\n      tag_211\n      jump\t// in\n    tag_312:\n        /* \"#utility.yul\":5959:6078   */\n    tag_311:\n        /* \"#utility.yul\":6117:6118   */\n      0x00\n        /* \"#utility.yul\":6142:6195   */\n      tag_313\n        /* \"#utility.yul\":6187:6194   */\n      dup7\n        /* \"#utility.yul\":6178:6184   */\n      dup3\n        /* \"#utility.yul\":6167:6176   */\n      dup8\n        /* \"#utility.yul\":6163:6185   */\n      add\n        /* \"#utility.yul\":6142:6195   */\n      tag_214\n      jump\t// in\n    tag_313:\n        /* \"#utility.yul\":6132:6195   */\n      swap4\n      pop\n        /* \"#utility.yul\":6088:6205   */\n      pop\n        /* \"#utility.yul\":6244:6246   */\n      0x20\n        /* \"#utility.yul\":6270:6323   */\n      tag_314\n        /* \"#utility.yul\":6315:6322   */\n      dup7\n        /* \"#utility.yul\":6306:6312   */\n      dup3\n        /* \"#utility.yul\":6295:6304   */\n      dup8\n        /* \"#utility.yul\":6291:6313   */\n      add\n        /* \"#utility.yul\":6270:6323   */\n      tag_217\n      jump\t// in\n    tag_314:\n        /* \"#utility.yul\":6260:6323   */\n      swap3\n      pop\n        /* \"#utility.yul\":6215:6333   */\n      pop\n        /* \"#utility.yul\":6372:6374   */\n      0x40\n        /* \"#utility.yul\":6398:6448   */\n      tag_315\n        /* \"#utility.yul\":6440:6447   */\n      dup7\n        /* \"#utility.yul\":6431:6437   */\n      dup3\n        /* \"#utility.yul\":6420:6429   */\n      dup8\n        /* \"#utility.yul\":6416:6438   */\n      add\n        /* \"#utility.yul\":6398:6448   */\n      tag_225\n      jump\t// in\n    tag_315:\n        /* \"#utility.yul\":6388:6448   */\n      swap2\n      pop\n        /* \"#utility.yul\":6343:6458   */\n      pop\n        /* \"#utility.yul\":5852:6465   */\n      swap3\n      pop\n      swap3\n      pop\n      swap3\n      jump\t// out\n        /* \"#utility.yul\":6471:6611   */\n    tag_226:\n        /* \"#utility.yul\":6535:6544   */\n      0x00\n        /* \"#utility.yul\":6568:6605   */\n      tag_317\n        /* \"#utility.yul\":6599:6604   */\n      dup3\n        /* \"#utility.yul\":6568:6605   */\n      tag_203\n      jump\t// in\n    tag_317:\n        /* \"#utility.yul\":6555:6605   */\n      swap1\n      pop\n        /* \"#utility.yul\":6471:6611   */\n      swap2\n      swap1\n      pop\n      jump\t// out\n        /* \"#utility.yul\":6617:6776   */\n    tag_227:\n        /* \"#utility.yul\":6718:6769   */\n      tag_319\n        /* \"#utility.yul\":6763:6768   */\n      dup2\n        /* \"#utility.yul\":6718:6769   */\n      tag_226\n      jump\t// in\n    tag_319:\n        /* \"#utility.yul\":6713:6716   */\n      dup3\n        /* \"#utility.yul\":6706:6770   */\n      mstore\n        /* \"#utility.yul\":6617:6776   */\n      pop\n      pop\n      jump\t// out\n        /* \"#utility.yul\":6782:7032   */\n    tag_43:\n        /* \"#utility.yul\":6889:6893   */\n      0x00\n        /* \"#utility.yul\":6927:6929   */\n      0x20\n        /* \"#utility.yul\":6916:6925   */\n      dup3\n        /* \"#utility.yul\":6912:6930   */\n      add\n        /* \"#utility.yul\":6904:6930   */\n      swap1\n      pop\n        /* \"#utility.yul\":6940:7025   */\n      tag_321\n        /* \"#utility.yul\":7022:7023   */\n      0x00\n        /* \"#utility.yul\":7011:7020   */\n      dup4\n        /* \"#utility.yul\":7007:7024   */\n      add\n        /* \"#utility.yul\":6998:7004   */\n      dup5\n        /* \"#utility.yul\":6940:7025   */\n      tag_227\n      jump\t// in\n    tag_321:\n        /* \"#utility.yul\":6782:7032   */\n      swap3\n      swap2\n      pop\n      pop\n      jump\t// out\n        /* \"#utility.yul\":7038:7367   */\n    tag_55:\n        /* \"#utility.yul\":7097:7103   */\n      0x00\n        /* \"#utility.yul\":7146:7148   */\n      0x20\n        /* \"#utility.yul\":7134:7143   */\n      dup3\n        /* \"#utility.yul\":7125:7132   */\n      dup5\n        /* \"#utility.yul\":7121:7144   */\n      sub\n        /* \"#utility.yul\":7117:7149   */\n      slt\n        /* \"#utility.yul\":7114:7233   */\n      iszero\n      tag_323\n      jumpi\n        /* \"#utility.yul\":7152:7231   */\n      tag_324\n      tag_211\n      jump\t// in\n    tag_324:\n        /* \"#utility.yul\":7114:7233   */\n    tag_323:\n        /* \"#utility.yul\":7272:7273   */\n      0x00\n        /* \"#utility.yul\":7297:7350   */\n      tag_325\n        /* \"#utility.yul\":7342:7349   */\n      dup5\n        /* \"#utility.yul\":7333:7339   */\n      dup3\n        /* \"#utility.yul\":7322:7331   */\n      dup6\n        /* \"#utility.yul\":7318:7340   */\n      add\n        /* \"#utility.yul\":7297:7350   */\n      tag_214\n      jump\t// in\n    tag_325:\n        /* \"#utility.yul\":7287:7350   */\n      swap2\n      pop\n        /* \"#utility.yul\":7243:7360   */\n      pop\n        /* \"#utility.yul\":7038:7367   */\n      swap3\n      swap2\n      pop\n      pop\n      jump\t// out\n        /* \"#utility.yul\":7373:7491   */\n    tag_228:\n        /* \"#utility.yul\":7460:7484   */\n      tag_327\n        /* \"#utility.yul\":7478:7483   */\n      dup2\n        /* \"#utility.yul\":7460:7484   */\n      tag_215\n      jump\t// in\n    tag_327:\n        /* \"#utility.yul\":7455:7458   */\n      dup3\n        /* \"#utility.yul\":7448:7485   */\n      mstore\n        /* \"#utility.yul\":7373:7491   */\n      pop\n      pop\n      jump\t// out\n        /* \"#utility.yul\":7497:7719   */\n    tag_58:\n        /* \"#utility.yul\":7590:7594   */\n      0x00\n        /* \"#utility.yul\":7628:7630   */\n      0x20\n        /* \"#utility.yul\":7617:7626   */\n      dup3\n        /* \"#utility.yul\":7613:7631   */\n      add\n        /* \"#utility.yul\":7605:7631   */\n      swap1\n      pop\n        /* \"#utility.yul\":7641:7712   */\n      tag_329\n        /* \"#utility.yul\":7709:7710   */\n      0x00\n        /* \"#utility.yul\":7698:7707   */\n      dup4\n        /* \"#utility.yul\":7694:7711   */\n      add\n        /* \"#utility.yul\":7685:7691   */\n      dup5\n        /* \"#utility.yul\":7641:7712   */\n      tag_228\n      jump\t// in\n    tag_329:\n        /* \"#utility.yul\":7497:7719   */\n      swap3\n      swap2\n      pop\n      pop\n      jump\t// out\n        /* \"#utility.yul\":7725:8057   */\n    tag_63:\n        /* \"#utility.yul\":7846:7850   */\n      0x00\n        /* \"#utility.yul\":7884:7886   */\n      0x40\n        /* \"#utility.yul\":7873:7882   */\n      dup3\n        /* \"#utility.yul\":7869:7887   */\n      add\n        /* \"#utility.yul\":7861:7887   */\n      swap1\n      pop\n        /* \"#utility.yul\":7897:7968   */\n      tag_331\n        /* \"#utility.yul\":7965:7966   */\n      0x00\n        /* \"#utility.yul\":7954:7963   */\n      dup4\n        /* \"#utility.yul\":7950:7967   */\n      add\n        /* \"#utility.yul\":7941:7947   */\n      dup6\n        /* \"#utility.yul\":7897:7968   */\n      tag_209\n      jump\t// in\n    tag_331:\n        /* \"#utility.yul\":7978:8050   */\n      tag_332\n        /* \"#utility.yul\":8046:8048   */\n      0x20\n        /* \"#utility.yul\":8035:8044   */\n      dup4\n        /* \"#utility.yul\":8031:8049   */\n      add\n        /* \"#utility.yul\":8022:8028   */\n      dup5\n        /* \"#utility.yul\":7978:8050   */\n      tag_228\n      jump\t// in\n    tag_332:\n        /* \"#utility.yul\":7725:8057   */\n      swap4\n      swap3\n      pop\n      pop\n      pop\n      jump\t// out\n        /* \"#utility.yul\":8063:8200   */\n    tag_229:\n        /* \"#utility.yul\":8117:8122   */\n      0x00\n        /* \"#utility.yul\":8148:8154   */\n      dup2\n        /* \"#utility.yul\":8142:8155   */\n      mload\n        /* \"#utility.yul\":8133:8155   */\n      swap1\n      pop\n        /* \"#utility.yul\":8164:8194   */\n      tag_334\n        /* \"#utility.yul\":8188:8193   */\n      dup2\n        /* \"#utility.yul\":8164:8194   */\n      tag_224\n      jump\t// in\n    tag_334:\n        /* \"#utility.yul\":8063:8200   */\n      swap3\n      swap2\n      pop\n      pop\n      jump\t// out\n        /* \"#utility.yul\":8206:8551   */\n    tag_67:\n        /* \"#utility.yul\":8273:8279   */\n      0x00\n        /* \"#utility.yul\":8322:8324   */\n      0x20\n        /* \"#utility.yul\":8310:8319   */\n      dup3\n        /* \"#utility.yul\":8301:8308   */\n      dup5\n        /* \"#utility.yul\":8297:8320   */\n      sub\n        /* \"#utility.yul\":8293:8325   */\n      slt\n        /* \"#utility.yul\":8290:8409   */\n      iszero\n      tag_336\n      jumpi\n        /* \"#utility.yul\":8328:8407   */\n      tag_337\n      tag_211\n      jump\t// in\n    tag_337:\n        /* \"#utility.yul\":8290:8409   */\n    tag_336:\n        /* \"#utility.yul\":8448:8449   */\n      0x00\n        /* \"#utility.yul\":8473:8534   */\n      tag_338\n        /* \"#utility.yul\":8526:8533   */\n      dup5\n        /* \"#utility.yul\":8517:8523   */\n      dup3\n        /* \"#utility.yul\":8506:8515   */\n      dup6\n        /* \"#utility.yul\":8502:8524   */\n      add\n        /* \"#utility.yul\":8473:8534   */\n      tag_229\n      jump\t// in\n    tag_338:\n        /* \"#utility.yul\":8463:8534   */\n      swap2\n      pop\n        /* \"#utility.yul\":8419:8544   */\n      pop\n        /* \"#utility.yul\":8206:8551   */\n      swap3\n      swap2\n      pop\n      pop\n      jump\t// out\n        /* \"#utility.yul\":8557:8700   */\n    tag_230:\n        /* \"#utility.yul\":8614:8619   */\n      0x00\n        /* \"#utility.yul\":8645:8651   */\n      dup2\n        /* \"#utility.yul\":8639:8652   */\n      mload\n        /* \"#utility.yul\":8630:8652   */\n      swap1\n      pop\n        /* \"#utility.yul\":8661:8694   */\n      tag_340\n        /* \"#utility.yul\":8688:8693   */\n      dup2\n        /* \"#utility.yul\":8661:8694   */\n      tag_216\n      jump\t// in\n    tag_340:\n        /* \"#utility.yul\":8557:8700   */\n      swap3\n      swap2\n      pop\n      pop\n      jump\t// out\n        /* \"#utility.yul\":8706:9057   */\n    tag_80:\n        /* \"#utility.yul\":8776:8782   */\n      0x00\n        /* \"#utility.yul\":8825:8827   */\n      0x20\n        /* \"#utility.yul\":8813:8822   */\n      dup3\n        /* \"#utility.yul\":8804:8811   */\n      dup5\n        /* \"#utility.yul\":8800:8823   */\n      sub\n        /* \"#utility.yul\":8796:8828   */\n      slt\n        /* \"#utility.yul\":8793:8912   */\n      iszero\n      tag_342\n      jumpi\n        /* \"#utility.yul\":8831:8910   */\n      tag_343\n      tag_211\n      jump\t// in\n    tag_343:\n        /* \"#utility.yul\":8793:8912   */\n    tag_342:\n        /* \"#utility.yul\":8951:8952   */\n      0x00\n        /* \"#utility.yul\":8976:9040   */\n      tag_344\n        /* \"#utility.yul\":9032:9039   */\n      dup5\n        /* \"#utility.yul\":9023:9029   */\n      dup3\n        /* \"#utility.yul\":9012:9021   */\n      dup6\n        /* \"#utility.yul\":9008:9030   */\n      add\n        /* \"#utility.yul\":8976:9040   */\n      tag_230\n      jump\t// in\n    tag_344:\n        /* \"#utility.yul\":8966:9040   */\n      swap2\n      pop\n        /* \"#utility.yul\":8922:9050   */\n      pop\n        /* \"#utility.yul\":8706:9057   */\n      swap3\n      swap2\n      pop\n      pop\n      jump\t// out\n        /* \"#utility.yul\":9063:9243   */\n    tag_231:\n        /* \"#utility.yul\":9111:9188   */\n      0x4e487b7100000000000000000000000000000000000000000000000000000000\n        /* \"#utility.yul\":9108:9109   */\n      0x00\n        /* \"#utility.yul\":9101:9189   */\n      mstore\n        /* \"#utility.yul\":9208:9212   */\n      0x11\n        /* \"#utility.yul\":9205:9206   */\n      0x04\n        /* \"#utility.yul\":9198:9213   */\n      mstore\n        /* \"#utility.yul\":9232:9236   */\n      0x24\n        /* \"#utility.yul\":9229:9230   */\n      0x00\n        /* \"#utility.yul\":9222:9237   */\n      revert\n        /* \"#utility.yul\":9249:9554   */\n    tag_90:\n        /* \"#utility.yul\":9289:9292   */\n      0x00\n        /* \"#utility.yul\":9308:9328   */\n      tag_347\n        /* \"#utility.yul\":9326:9327   */\n      dup3\n        /* \"#utility.yul\":9308:9328   */\n      tag_215\n      jump\t// in\n    tag_347:\n        /* \"#utility.yul\":9303:9328   */\n      swap2\n      pop\n        /* \"#utility.yul\":9342:9362   */\n      tag_348\n        /* \"#utility.yul\":9360:9361   */\n      dup4\n        /* \"#utility.yul\":9342:9362   */\n      tag_215\n      jump\t// in\n    tag_348:\n        /* \"#utility.yul\":9337:9362   */\n      swap3\n      pop\n        /* \"#utility.yul\":9496:9497   */\n      dup3\n        /* \"#utility.yul\":9428:9494   */\n      0xffffffffffffffffffffffffffffffffffffffffffffffffffffffffffffffff\n        /* \"#utility.yul\":9424:9498   */\n      sub\n        /* \"#utility.yul\":9421:9422   */\n      dup3\n        /* \"#utility.yul\":9418:9499   */\n      gt\n        /* \"#utility.yul\":9415:9522   */\n      iszero\n      tag_349\n      jumpi\n        /* \"#utility.yul\":9502:9520   */\n      tag_350\n      tag_231\n      jump\t// in\n    tag_350:\n        /* \"#utility.yul\":9415:9522   */\n    tag_349:\n        /* \"#utility.yul\":9546:9547   */\n      dup3\n        /* \"#utility.yul\":9543:9544   */\n      dup3\n        /* \"#utility.yul\":9539:9548   */\n      add\n        /* \"#utility.yul\":9532:9548   */\n      swap1\n      pop\n        /* \"#utility.yul\":9249:9554   */\n      swap3\n      swap2\n      pop\n      pop\n      jump\t// out\n        /* \"#utility.yul\":9560:9658   */\n    tag_232:\n        /* \"#utility.yul\":9611:9617   */\n      0x00\n        /* \"#utility.yul\":9645:9650   */\n      dup2\n        /* \"#utility.yul\":9639:9651   */\n      mload\n        /* \"#utility.yul\":9629:9651   */\n      swap1\n      pop\n        /* \"#utility.yul\":9560:9658   */\n      swap2\n      swap1\n      pop\n      jump\t// out\n        /* \"#utility.yul\":9664:9832   */\n    tag_233:\n        /* \"#utility.yul\":9747:9758   */\n      0x00\n        /* \"#utility.yul\":9781:9787   */\n      dup3\n        /* \"#utility.yul\":9776:9779   */\n      dup3\n        /* \"#utility.yul\":9769:9788   */\n      mstore\n        /* \"#utility.yul\":9821:9825   */\n      0x20\n        /* \"#utility.yul\":9816:9819   */\n      dup3\n        /* \"#utility.yul\":9812:9826   */\n      add\n        /* \"#utility.yul\":9797:9826   */\n      swap1\n      pop\n        /* \"#utility.yul\":9664:9832   */\n      swap3\n      swap2\n      pop\n      pop\n      jump\t// out\n        /* \"#utility.yul\":9838:10145   */\n    tag_234:\n        /* \"#utility.yul\":9906:9907   */\n      0x00\n        /* \"#utility.yul\":9916:10029   */\n    tag_354:\n        /* \"#utility.yul\":9930:9936   */\n      dup4\n        /* \"#utility.yul\":9927:9928   */\n      dup2\n        /* \"#utility.yul\":9924:9937   */\n      lt\n        /* \"#utility.yul\":9916:10029   */\n      iszero\n      tag_356\n      jumpi\n        /* \"#utility.yul\":10015:10016   */\n      dup1\n        /* \"#utility.yul\":10010:10013   */\n      dup3\n        /* \"#utility.yul\":10006:10017   */\n      add\n        /* \"#utility.yul\":10000:10018   */\n      mload\n        /* \"#utility.yul\":9996:9997   */\n      dup2\n        /* \"#utility.yul\":9991:9994   */\n      dup5\n        /* \"#utility.yul\":9987:9998   */\n      add\n        /* \"#utility.yul\":9980:10019   */\n      mstore\n        /* \"#utility.yul\":9952:9954   */\n      0x20\n        /* \"#utility.yul\":9949:9950   */\n      dup2\n        /* \"#utility.yul\":9945:9955   */\n      add\n        /* \"#utility.yul\":9940:9955   */\n      swap1\n      pop\n        /* \"#utility.yul\":9916:10029   */\n      jump(tag_354)\n    tag_356:\n        /* \"#utility.yul\":10047:10053   */\n      dup4\n        /* \"#utility.yul\":10044:10045   */\n      dup2\n        /* \"#utility.yul\":10041:10054   */\n      gt\n        /* \"#utility.yul\":10038:10139   */\n      iszero\n      tag_357\n      jumpi\n        /* \"#utility.yul\":10127:10128   */\n      0x00\n        /* \"#utility.yul\":10118:10124   */\n      dup5\n        /* \"#utility.yul\":10113:10116   */\n      dup5\n        /* \"#utility.yul\":10109:10125   */\n      add\n        /* \"#utility.yul\":10102:10129   */\n      mstore\n        /* \"#utility.yul\":10038:10139   */\n    tag_357:\n        /* \"#utility.yul\":9887:10145   */\n      pop\n        /* \"#utility.yul\":9838:10145   */\n      pop\n      pop\n      pop\n      jump\t// out\n        /* \"#utility.yul\":10151:10253   */\n    tag_235:\n        /* \"#utility.yul\":10192:10198   */\n      0x00\n        /* \"#utility.yul\":10243:10245   */\n      0x1f\n        /* \"#utility.yul\":10239:10246   */\n      not\n        /* \"#utility.yul\":10234:10236   */\n      0x1f\n        /* \"#utility.yul\":10227:10232   */\n      dup4\n        /* \"#utility.yul\":10223:10237   */\n      add\n        /* \"#utility.yul\":10219:10247   */\n      and\n        /* \"#utility.yul\":10209:10247   */\n      swap1\n      pop\n        /* \"#utility.yul\":10151:10253   */\n      swap2\n      swap1\n      pop\n      jump\t// out\n        /* \"#utility.yul\":10259:10619   */\n    tag_236:\n        /* \"#utility.yul\":10345:10348   */\n      0x00\n        /* \"#utility.yul\":10373:10411   */\n      tag_360\n        /* \"#utility.yul\":10405:10410   */\n      dup3\n        /* \"#utility.yul\":10373:10411   */\n      tag_232\n      jump\t// in\n    tag_360:\n        /* \"#utility.yul\":10427:10497   */\n      tag_361\n        /* \"#utility.yul\":10490:10496   */\n      dup2\n        /* \"#utility.yul\":10485:10488   */\n      dup6\n        /* \"#utility.yul\":10427:10497   */\n      tag_233\n      jump\t// in\n    tag_361:\n        /* \"#utility.yul\":10420:10497   */\n      swap4\n      pop\n        /* \"#utility.yul\":10506:10558   */\n      tag_362\n        /* \"#utility.yul\":10551:10557   */\n      dup2\n        /* \"#utility.yul\":10546:10549   */\n      dup6\n        /* \"#utility.yul\":10539:10543   */\n      0x20\n        /* \"#utility.yul\":10532:10537   */\n      dup7\n        /* \"#utility.yul\":10528:10544   */\n      add\n        /* \"#utility.yul\":10506:10558   */\n      tag_234\n      jump\t// in\n    tag_362:\n        /* \"#utility.yul\":10583:10612   */\n      tag_363\n        /* \"#utility.yul\":10605:10611   */\n      dup2\n        /* \"#utility.yul\":10583:10612   */\n      tag_235\n      jump\t// in\n    tag_363:\n        /* \"#utility.yul\":10578:10581   */\n      dup5\n        /* \"#utility.yul\":10574:10613   */\n      add\n        /* \"#utility.yul\":10567:10613   */\n      swap2\n      pop\n        /* \"#utility.yul\":10349:10619   */\n      pop\n        /* \"#utility.yul\":10259:10619   */\n      swap3\n      swap2\n      pop\n      pop\n      jump\t// out\n        /* \"#utility.yul\":10625:10714   */\n    tag_237:\n        /* \"#utility.yul\":10661:10668   */\n      0x00\n        /* \"#utility.yul\":10701:10707   */\n      0xffff\n        /* \"#utility.yul\":10694:10699   */\n      dup3\n        /* \"#utility.yul\":10690:10708   */\n      and\n        /* \"#utility.yul\":10679:10708   */\n      swap1\n      pop\n        /* \"#utility.yul\":10625:10714   */\n      swap2\n      swap1\n      pop\n      jump\t// out\n        /* \"#utility.yul\":10720:10835   */\n    tag_238:\n        /* \"#utility.yul\":10805:10828   */\n      tag_366\n        /* \"#utility.yul\":10822:10827   */\n      dup2\n        /* \"#utility.yul\":10805:10828   */\n      tag_237\n      jump\t// in\n    tag_366:\n        /* \"#utility.yul\":10800:10803   */\n      dup3\n        /* \"#utility.yul\":10793:10829   */\n      mstore\n        /* \"#utility.yul\":10720:10835   */\n      pop\n      pop\n      jump\t// out\n        /* \"#utility.yul\":10841:11588   */\n    tag_191:\n        /* \"#utility.yul\":11062:11066   */\n      0x00\n        /* \"#utility.yul\":11100:11103   */\n      0xa0\n        /* \"#utility.yul\":11089:11098   */\n      dup3\n        /* \"#utility.yul\":11085:11104   */\n      add\n        /* \"#utility.yul\":11077:11104   */\n      swap1\n      pop\n        /* \"#utility.yul\":11114:11185   */\n      tag_368\n        /* \"#utility.yul\":11182:11183   */\n      0x00\n        /* \"#utility.yul\":11171:11180   */\n      dup4\n        /* \"#utility.yul\":11167:11184   */\n      add\n        /* \"#utility.yul\":11158:11164   */\n      dup9\n        /* \"#utility.yul\":11114:11185   */\n      tag_209\n      jump\t// in\n    tag_368:\n        /* \"#utility.yul\":11195:11267   */\n      tag_369\n        /* \"#utility.yul\":11263:11265   */\n      0x20\n        /* \"#utility.yul\":11252:11261   */\n      dup4\n        /* \"#utility.yul\":11248:11266   */\n      add\n        /* \"#utility.yul\":11239:11245   */\n      dup8\n        /* \"#utility.yul\":11195:11267   */\n      tag_209\n      jump\t// in\n    tag_369:\n        /* \"#utility.yul\":11277:11349   */\n      tag_370\n        /* \"#utility.yul\":11345:11347   */\n      0x40\n        /* \"#utility.yul\":11334:11343   */\n      dup4\n        /* \"#utility.yul\":11330:11348   */\n      add\n        /* \"#utility.yul\":11321:11327   */\n      dup7\n        /* \"#utility.yul\":11277:11349   */\n      tag_228\n      jump\t// in\n    tag_370:\n        /* \"#utility.yul\":11396:11405   */\n      dup2\n        /* \"#utility.yul\":11390:11394   */\n      dup2\n        /* \"#utility.yul\":11386:11406   */\n      sub\n        /* \"#utility.yul\":11381:11383   */\n      0x60\n        /* \"#utility.yul\":11370:11379   */\n      dup4\n        /* \"#utility.yul\":11366:11384   */\n      add\n        /* \"#utility.yul\":11359:11407   */\n      mstore\n        /* \"#utility.yul\":11424:11500   */\n      tag_371\n        /* \"#utility.yul\":11495:11499   */\n      dup2\n        /* \"#utility.yul\":11486:11492   */\n      dup6\n        /* \"#utility.yul\":11424:11500   */\n      tag_236\n      jump\t// in\n    tag_371:\n        /* \"#utility.yul\":11416:11500   */\n      swap1\n      pop\n        /* \"#utility.yul\":11510:11581   */\n      tag_372\n        /* \"#utility.yul\":11576:11579   */\n      0x80\n        /* \"#utility.yul\":11565:11574   */\n      dup4\n        /* \"#utility.yul\":11561:11580   */\n      add\n        /* \"#utility.yul\":11552:11558   */\n      dup5\n        /* \"#utility.yul\":11510:11581   */\n      tag_238\n      jump\t// in\n    tag_372:\n        /* \"#utility.yul\":10841:11588   */\n      swap7\n      swap6\n      pop\n      pop\n      pop\n      pop\n      pop\n      pop\n      jump\t// out\n\n    auxdata: 0xa26469706673582212200b6b528d10800f03d02f2b9ee95655fe2d93b37c103f4723103dc322eb27184e64736f6c634300080a0033\n}\n",
				"bytecode": {
					"linkReferences": {},
					"object": "60c060405273b634e543f94e155d185eb27b61e6aa40b116a2df600160006101000a81548173ffffffffffffffffffffffffffffffffffffffff021916908373ffffffffffffffffffffffffffffffffffffffff160217905550734304b373a207156cee82816b21d82605f6aa2f10600260006101000a81548173ffffffffffffffffffffffffffffffffffffffff021916908373ffffffffffffffffffffffffffffffffffffffff160217905550738e9a1928d5f20c794b584667c0a797b5e409219e600360006101000a81548173ffffffffffffffffffffffffffffffffffffffff021916908373ffffffffffffffffffffffffffffffffffffffff160217905550600160009054906101000a900473ffffffffffffffffffffffffffffffffffffffff16600460006101000a81548173ffffffffffffffffffffffffffffffffffffffff021916908373ffffffffffffffffffffffffffffffffffffffff160217905550600260009054906101000a900473ffffffffffffffffffffffffffffffffffffffff16600560006101000a81548173ffffffffffffffffffffffffffffffffffffffff021916908373ffffffffffffffffffffffffffffffffffffffff160217905550600360009054906101000a900473ffffffffffffffffffffffffffffffffffffffff16600660006101000a81548173ffffffffffffffffffffffffffffffffffffffff021916908373ffffffffffffffffffffffffffffffffffffffff1602179055506001600660146101000a81548160ff0219169083151502179055503480156200025457600080fd5b50604051620022be380380620022be83398181016040528101906200027a9190620003c6565b808073ffffffffffffffffffffffffffffffffffffffff1660808173ffffffffffffffffffffffffffffffffffffffff16815250508073ffffffffffffffffffffffffffffffffffffffff1663026b1d5f6040518163ffffffff1660e01b8152600401602060405180830381865afa158015620002fb573d6000803e3d6000fd5b505050506040513d601f19601f82011682018060405250810190620003219190620003c6565b73ffffffffffffffffffffffffffffffffffffffff1660a08173ffffffffffffffffffffffffffffffffffffffff16815250505050620003f8565b600080fd5b600073ffffffffffffffffffffffffffffffffffffffff82169050919050565b60006200038e8262000361565b9050919050565b620003a08162000381565b8114620003ac57600080fd5b50565b600081519050620003c08162000395565b92915050565b600060208284031215620003df57620003de6200035c565b5b6000620003ef84828501620003af565b91505092915050565b60805160a051611e7d620004416000396000818161074801528181610bf3015281816110d7015281816115820152818161168c0152611729015260006102420152611e7d6000f3fe608060405234801561001057600080fd5b50600436106100a95760003560e01c80635d170211116100715780635d170211146101565780637535d246146101725780639d35748614610190578063a13aef61146101ae578063bb2c101c146101cc578063f8b2cb4f146101ea576100a9565b806301d1c784146100ae5780630542975c146100cc57806318f52e5a146100ea5780631b11d0ff1461010857806349f915a914610138575b600080fd5b6100b661021a565b6040516100c391906118bf565b60405180910390f35b6100d4610240565b6040516100e191906118fb565b60405180910390f35b6100f2610264565b6040516100ff9190611937565b60405180910390f35b610122600480360381019061011d9190611a23565b61028a565b60405161012f9190611ad8565b60405180910390f35b610140611625565b60405161014d91906118bf565b60405180910390f35b610170600480360381019061016b9190611b1f565b61164b565b005b61017a611727565b6040516101879190611b93565b60405180910390f35b61019861174b565b6040516101a59190611937565b60405180910390f35b6101b6611771565b6040516101c39190611937565b60405180910390f35b6101d4611797565b6040516101e191906118bf565b60405180910390f35b61020460048036038101906101ff9190611bae565b6117bd565b6040516102119190611bea565b60405180910390f35b600460009054906101000a900473ffffffffffffffffffffffffffffffffffffffff1681565b7f000000000000000000000000000000000000000000000000000000000000000081565b600160009054906101000a900473ffffffffffffffffffffffffffffffffffffffff1681565b60008073da9d4f9b69ac6c22e444ed9af0cfc043b7a7f53f9050600073779877a7b0d9e8603169ddbd7836e478b46247899050600073f864f011c5a97fd8da79baed78ba77b47112935a905060007fffffffffffffffffffffffffffffffffffffffffffffffffffffffffffffffff90508373ffffffffffffffffffffffffffffffffffffffff168b73ffffffffffffffffffffffffffffffffffffffff161415610c8a5760011515600660149054906101000a900460ff16151514156107da578373ffffffffffffffffffffffffffffffffffffffff1663095ea7b3600460009054906101000a900473ffffffffffffffffffffffffffffffffffffffff16836040518363ffffffff1660e01b81526004016103a8929190611c05565b6020604051808303816000875af11580156103c7573d6000803e3d6000fd5b505050506040513d601f19601f820116820180604052508101906103eb9190611c43565b508173ffffffffffffffffffffffffffffffffffffffff1663095ea7b3600560009054906101000a900473ffffffffffffffffffffffffffffffffffffffff16836040518363ffffffff1660e01b8152600401610449929190611c05565b6020604051808303816000875af1158015610468573d6000803e3d6000fd5b505050506040513d601f19601f8201168201806040525081019061048c9190611c43565b508273ffffffffffffffffffffffffffffffffffffffff1663095ea7b3600660009054906101000a900473ffffffffffffffffffffffffffffffffffffffff16836040518363ffffffff1660e01b81526004016104ea929190611c05565b6020604051808303816000875af1158015610509573d6000803e3d6000fd5b505050506040513d601f19601f8201168201806040525081019061052d9190611c43565b506000600460009054906101000a900473ffffffffffffffffffffffffffffffffffffffff1673ffffffffffffffffffffffffffffffffffffffff1663d004f0f7868d6040518363ffffffff1660e01b815260040161058d929190611c05565b6020604051808303816000875af11580156105ac573d6000803e3d6000fd5b505050506040513d601f19601f820116820180604052508101906105d09190611c85565b90506000600560009054906101000a900473ffffffffffffffffffffffffffffffffffffffff1673ffffffffffffffffffffffffffffffffffffffff1663d004f0f785846040518363ffffffff1660e01b8152600401610631929190611c05565b6020604051808303816000875af1158015610650573d6000803e3d6000fd5b505050506040513d601f19601f820116820180604052508101906106749190611c85565b90506000600660009054906101000a900473ffffffffffffffffffffffffffffffffffffffff1673ffffffffffffffffffffffffffffffffffffffff1663d004f0f787846040518363ffffffff1660e01b81526004016106d5929190611c05565b6020604051808303816000875af11580156106f4573d6000803e3d6000fd5b505050506040513d601f19601f820116820180604052508101906107189190611c85565b905060008c8e6107289190611ce1565b90508e73ffffffffffffffffffffffffffffffffffffffff1663095ea7b37f0000000000000000000000000000000000000000000000000000000000000000836040518363ffffffff1660e01b8152600401610785929190611c05565b6020604051808303816000875af11580156107a4573d6000803e3d6000fd5b505050506040513d601f19601f820116820180604052508101906107c89190611c43565b5060019850505050505050505061161b565b60001515600660149054906101000a900460ff1615151415610c85578373ffffffffffffffffffffffffffffffffffffffff1663095ea7b3600660009054906101000a900473ffffffffffffffffffffffffffffffffffffffff16836040518363ffffffff1660e01b8152600401610853929190611c05565b6020604051808303816000875af1158015610872573d6000803e3d6000fd5b505050506040513d601f19601f820116820180604052508101906108969190611c43565b508273ffffffffffffffffffffffffffffffffffffffff1663095ea7b3600560009054906101000a900473ffffffffffffffffffffffffffffffffffffffff16836040518363ffffffff1660e01b81526004016108f4929190611c05565b6020604051808303816000875af1158015610913573d6000803e3d6000fd5b505050506040513d601f19601f820116820180604052508101906109379190611c43565b508173ffffffffffffffffffffffffffffffffffffffff1663095ea7b3600460009054906101000a900473ffffffffffffffffffffffffffffffffffffffff16836040518363ffffffff1660e01b8152600401610995929190611c05565b6020604051808303816000875af11580156109b4573d6000803e3d6000fd5b505050506040513d601f19601f820116820180604052508101906109d89190611c43565b506000600660009054906101000a900473ffffffffffffffffffffffffffffffffffffffff1673ffffffffffffffffffffffffffffffffffffffff1663d004f0f7868d6040518363ffffffff1660e01b8152600401610a38929190611c05565b6020604051808303816000875af1158015610a57573d6000803e3d6000fd5b505050506040513d601f19601f82011682018060405250810190610a7b9190611c85565b90506000600560009054906101000a900473ffffffffffffffffffffffffffffffffffffffff1673ffffffffffffffffffffffffffffffffffffffff1663d004f0f786846040518363ffffffff1660e01b8152600401610adc929190611c05565b6020604051808303816000875af1158015610afb573d6000803e3d6000fd5b505050506040513d601f19601f82011682018060405250810190610b1f9190611c85565b90506000600460009054906101000a900473ffffffffffffffffffffffffffffffffffffffff1673ffffffffffffffffffffffffffffffffffffffff1663d004f0f786846040518363ffffffff1660e01b8152600401610b80929190611c05565b6020604051808303816000875af1158015610b9f573d6000803e3d6000fd5b505050506040513d601f19601f82011682018060405250810190610bc39190611c85565b905060008c8e610bd39190611ce1565b90508e73ffffffffffffffffffffffffffffffffffffffff1663095ea7b37f0000000000000000000000000000000000000000000000000000000000000000836040518363ffffffff1660e01b8152600401610c30929190611c05565b6020604051808303816000875af1158015610c4f573d6000803e3d6000fd5b505050506040513d601f19601f82011682018060405250810190610c739190611c43565b5060019850505050505050505061161b565b611616565b8173ffffffffffffffffffffffffffffffffffffffff168b73ffffffffffffffffffffffffffffffffffffffff1614156116155760011515600660149054906101000a900460ff1615151415611169578173ffffffffffffffffffffffffffffffffffffffff1663095ea7b3600460009054906101000a900473ffffffffffffffffffffffffffffffffffffffff16836040518363ffffffff1660e01b8152600401610d37929190611c05565b6020604051808303816000875af1158015610d56573d6000803e3d6000fd5b505050506040513d601f19601f82011682018060405250810190610d7a9190611c43565b508373ffffffffffffffffffffffffffffffffffffffff1663095ea7b3600660009054906101000a900473ffffffffffffffffffffffffffffffffffffffff16836040518363ffffffff1660e01b8152600401610dd8929190611c05565b6020604051808303816000875af1158015610df7573d6000803e3d6000fd5b505050506040513d601f19601f82011682018060405250810190610e1b9190611c43565b508273ffffffffffffffffffffffffffffffffffffffff1663095ea7b3600560009054906101000a900473ffffffffffffffffffffffffffffffffffffffff16836040518363ffffffff1660e01b8152600401610e79929190611c05565b6020604051808303816000875af1158015610e98573d6000803e3d6000fd5b505050506040513d601f19601f82011682018060405250810190610ebc9190611c43565b506000600460009054906101000a900473ffffffffffffffffffffffffffffffffffffffff1673ffffffffffffffffffffffffffffffffffffffff1663d004f0f7848d6040518363ffffffff1660e01b8152600401610f1c929190611c05565b6020604051808303816000875af1158015610f3b573d6000803e3d6000fd5b505050506040513d601f19601f82011682018060405250810190610f5f9190611c85565b90506000600660009054906101000a900473ffffffffffffffffffffffffffffffffffffffff1673ffffffffffffffffffffffffffffffffffffffff1663d004f0f787846040518363ffffffff1660e01b8152600401610fc0929190611c05565b6020604051808303816000875af1158015610fdf573d6000803e3d6000fd5b505050506040513d601f19601f820116820180604052508101906110039190611c85565b90506000600560009054906101000a900473ffffffffffffffffffffffffffffffffffffffff1673ffffffffffffffffffffffffffffffffffffffff1663d004f0f787846040518363ffffffff1660e01b8152600401611064929190611c05565b6020604051808303816000875af1158015611083573d6000803e3d6000fd5b505050506040513d601f19601f820116820180604052508101906110a79190611c85565b905060008c8e6110b79190611ce1565b90508e73ffffffffffffffffffffffffffffffffffffffff1663095ea7b37f0000000000000000000000000000000000000000000000000000000000000000836040518363ffffffff1660e01b8152600401611114929190611c05565b6020604051808303816000875af1158015611133573d6000803e3d6000fd5b505050506040513d601f19601f820116820180604052508101906111579190611c43565b5060019850505050505050505061161b565b60001515600660149054906101000a900460ff1615151415611614578173ffffffffffffffffffffffffffffffffffffffff1663095ea7b3600560009054906101000a900473ffffffffffffffffffffffffffffffffffffffff16836040518363ffffffff1660e01b81526004016111e2929190611c05565b6020604051808303816000875af1158015611201573d6000803e3d6000fd5b505050506040513d601f19601f820116820180604052508101906112259190611c43565b508273ffffffffffffffffffffffffffffffffffffffff1663095ea7b3600660009054906101000a900473ffffffffffffffffffffffffffffffffffffffff16836040518363ffffffff1660e01b8152600401611283929190611c05565b6020604051808303816000875af11580156112a2573d6000803e3d6000fd5b505050506040513d601f19601f820116820180604052508101906112c69190611c43565b508373ffffffffffffffffffffffffffffffffffffffff1663095ea7b3600460009054906101000a900473ffffffffffffffffffffffffffffffffffffffff16836040518363ffffffff1660e01b8152600401611324929190611c05565b6020604051808303816000875af1158015611343573d6000803e3d6000fd5b505050506040513d601f19601f820116820180604052508101906113679190611c43565b506000600560009054906101000a900473ffffffffffffffffffffffffffffffffffffffff1673ffffffffffffffffffffffffffffffffffffffff1663d004f0f7848d6040518363ffffffff1660e01b81526004016113c7929190611c05565b6020604051808303816000875af11580156113e6573d6000803e3d6000fd5b505050506040513d601f19601f8201168201806040525081019061140a9190611c85565b90506000600660009054906101000a900473ffffffffffffffffffffffffffffffffffffffff1673ffffffffffffffffffffffffffffffffffffffff1663d004f0f786846040518363ffffffff1660e01b815260040161146b929190611c05565b6020604051808303816000875af115801561148a573d6000803e3d6000fd5b505050506040513d601f19601f820116820180604052508101906114ae9190611c85565b90506000600460009054906101000a900473ffffffffffffffffffffffffffffffffffffffff1673ffffffffffffffffffffffffffffffffffffffff1663d004f0f788846040518363ffffffff1660e01b815260040161150f929190611c05565b6020604051808303816000875af115801561152e573d6000803e3d6000fd5b505050506040513d601f19601f820116820180604052508101906115529190611c85565b905060008c8e6115629190611ce1565b90508e73ffffffffffffffffffffffffffffffffffffffff1663095ea7b37f0000000000000000000000000000000000000000000000000000000000000000836040518363ffffffff1660e01b81526004016115bf929190611c05565b6020604051808303816000875af11580156115de573d6000803e3d6000fd5b505050506040513d601f19601f820116820180604052508101906116029190611c43565b5060019850505050505050505061161b565b5b5b505050505b9695505050505050565b600660009054906101000a900473ffffffffffffffffffffffffffffffffffffffff1681565b6000309050600084905060008490506000604051806020016040528060008152509050600085600660146101000a81548160ff0219169083151502179055507f000000000000000000000000000000000000000000000000000000000000000073ffffffffffffffffffffffffffffffffffffffff166342b0b77c86868686866040518663ffffffff1660e01b81526004016116eb959493929190611ded565b600060405180830381600087803b15801561170557600080fd5b505af1158015611719573d6000803e3d6000fd5b505050505050505050505050565b7f000000000000000000000000000000000000000000000000000000000000000081565b600260009054906101000a900473ffffffffffffffffffffffffffffffffffffffff1681565b600360009054906101000a900473ffffffffffffffffffffffffffffffffffffffff1681565b600560009054906101000a900473ffffffffffffffffffffffffffffffffffffffff1681565b60008173ffffffffffffffffffffffffffffffffffffffff166370a08231306040518263ffffffff1660e01b81526004016117f89190611937565b602060405180830381865afa158015611815573d6000803e3d6000fd5b505050506040513d601f19601f820116820180604052508101906118399190611c85565b9050919050565b600073ffffffffffffffffffffffffffffffffffffffff82169050919050565b6000819050919050565b600061188561188061187b84611840565b611860565b611840565b9050919050565b60006118978261186a565b9050919050565b60006118a98261188c565b9050919050565b6118b98161189e565b82525050565b60006020820190506118d460008301846118b0565b92915050565b60006118e58261188c565b9050919050565b6118f5816118da565b82525050565b600060208201905061191060008301846118ec565b92915050565b600061192182611840565b9050919050565b61193181611916565b82525050565b600060208201905061194c6000830184611928565b92915050565b600080fd5b600080fd5b61196581611916565b811461197057600080fd5b50565b6000813590506119828161195c565b92915050565b6000819050919050565b61199b81611988565b81146119a657600080fd5b50565b6000813590506119b881611992565b92915050565b600080fd5b600080fd5b600080fd5b60008083601f8401126119e3576119e26119be565b5b8235905067ffffffffffffffff811115611a00576119ff6119c3565b5b602083019150836001820283011115611a1c57611a1b6119c8565b5b9250929050565b60008060008060008060a08789031215611a4057611a3f611952565b5b6000611a4e89828a01611973565b9650506020611a5f89828a016119a9565b9550506040611a7089828a016119a9565b9450506060611a8189828a01611973565b935050608087013567ffffffffffffffff811115611aa257611aa1611957565b5b611aae89828a016119cd565b92509250509295509295509295565b60008115159050919050565b611ad281611abd565b82525050565b6000602082019050611aed6000830184611ac9565b92915050565b611afc81611abd565b8114611b0757600080fd5b50565b600081359050611b1981611af3565b92915050565b600080600060608486031215611b3857611b37611952565b5b6000611b4686828701611973565b9350506020611b57868287016119a9565b9250506040611b6886828701611b0a565b9150509250925092565b6000611b7d8261188c565b9050919050565b611b8d81611b72565b82525050565b6000602082019050611ba86000830184611b84565b92915050565b600060208284031215611bc457611bc3611952565b5b6000611bd284828501611973565b91505092915050565b611be481611988565b82525050565b6000602082019050611bff6000830184611bdb565b92915050565b6000604082019050611c1a6000830185611928565b611c276020830184611bdb565b9392505050565b600081519050611c3d81611af3565b92915050565b600060208284031215611c5957611c58611952565b5b6000611c6784828501611c2e565b91505092915050565b600081519050611c7f81611992565b92915050565b600060208284031215611c9b57611c9a611952565b5b6000611ca984828501611c70565b91505092915050565b7f4e487b7100000000000000000000000000000000000000000000000000000000600052601160045260246000fd5b6000611cec82611988565b9150611cf783611988565b9250827fffffffffffffffffffffffffffffffffffffffffffffffffffffffffffffffff03821115611d2c57611d2b611cb2565b5b828201905092915050565b600081519050919050565b600082825260208201905092915050565b60005b83811015611d71578082015181840152602081019050611d56565b83811115611d80576000848401525b50505050565b6000601f19601f8301169050919050565b6000611da282611d37565b611dac8185611d42565b9350611dbc818560208601611d53565b611dc581611d86565b840191505092915050565b600061ffff82169050919050565b611de781611dd0565b82525050565b600060a082019050611e026000830188611928565b611e0f6020830187611928565b611e1c6040830186611bdb565b8181036060830152611e2e8185611d97565b9050611e3d6080830184611dde565b969550505050505056fea26469706673582212200b6b528d10800f03d02f2b9ee95655fe2d93b37c103f4723103dc322eb27184e64736f6c634300080a0033",
					"opcodes": "PUSH1 0xC0 PUSH1 0x40 MSTORE PUSH20 0xB634E543F94E155D185EB27B61E6AA40B116A2DF PUSH1 0x1 PUSH1 0x0 PUSH2 0x100 EXP DUP2 SLOAD DUP2 PUSH20 0xFFFFFFFFFFFFFFFFFFFFFFFFFFFFFFFFFFFFFFFF MUL NOT AND SWAP1 DUP4 PUSH20 0xFFFFFFFFFFFFFFFFFFFFFFFFFFFFFFFFFFFFFFFF AND MUL OR SWAP1 SSTORE POP PUSH20 0x4304B373A207156CEE82816B21D82605F6AA2F10 PUSH1 0x2 PUSH1 0x0 PUSH2 0x100 EXP DUP2 SLOAD DUP2 PUSH20 0xFFFFFFFFFFFFFFFFFFFFFFFFFFFFFFFFFFFFFFFF MUL NOT AND SWAP1 DUP4 PUSH20 0xFFFFFFFFFFFFFFFFFFFFFFFFFFFFFFFFFFFFFFFF AND MUL OR SWAP1 SSTORE POP PUSH20 0x8E9A1928D5F20C794B584667C0A797B5E409219E PUSH1 0x3 PUSH1 0x0 PUSH2 0x100 EXP DUP2 SLOAD DUP2 PUSH20 0xFFFFFFFFFFFFFFFFFFFFFFFFFFFFFFFFFFFFFFFF MUL NOT AND SWAP1 DUP4 PUSH20 0xFFFFFFFFFFFFFFFFFFFFFFFFFFFFFFFFFFFFFFFF AND MUL OR SWAP1 SSTORE POP PUSH1 0x1 PUSH1 0x0 SWAP1 SLOAD SWAP1 PUSH2 0x100 EXP SWAP1 DIV PUSH20 0xFFFFFFFFFFFFFFFFFFFFFFFFFFFFFFFFFFFFFFFF AND PUSH1 0x4 PUSH1 0x0 PUSH2 0x100 EXP DUP2 SLOAD DUP2 PUSH20 0xFFFFFFFFFFFFFFFFFFFFFFFFFFFFFFFFFFFFFFFF MUL NOT AND SWAP1 DUP4 PUSH20 0xFFFFFFFFFFFFFFFFFFFFFFFFFFFFFFFFFFFFFFFF AND MUL OR SWAP1 SSTORE POP PUSH1 0x2 PUSH1 0x0 SWAP1 SLOAD SWAP1 PUSH2 0x100 EXP SWAP1 DIV PUSH20 0xFFFFFFFFFFFFFFFFFFFFFFFFFFFFFFFFFFFFFFFF AND PUSH1 0x5 PUSH1 0x0 PUSH2 0x100 EXP DUP2 SLOAD DUP2 PUSH20 0xFFFFFFFFFFFFFFFFFFFFFFFFFFFFFFFFFFFFFFFF MUL NOT AND SWAP1 DUP4 PUSH20 0xFFFFFFFFFFFFFFFFFFFFFFFFFFFFFFFFFFFFFFFF AND MUL OR SWAP1 SSTORE POP PUSH1 0x3 PUSH1 0x0 SWAP1 SLOAD SWAP1 PUSH2 0x100 EXP SWAP1 DIV PUSH20 0xFFFFFFFFFFFFFFFFFFFFFFFFFFFFFFFFFFFFFFFF AND PUSH1 0x6 PUSH1 0x0 PUSH2 0x100 EXP DUP2 SLOAD DUP2 PUSH20 0xFFFFFFFFFFFFFFFFFFFFFFFFFFFFFFFFFFFFFFFF MUL NOT AND SWAP1 DUP4 PUSH20 0xFFFFFFFFFFFFFFFFFFFFFFFFFFFFFFFFFFFFFFFF AND MUL OR SWAP1 SSTORE POP PUSH1 0x1 PUSH1 0x6 PUSH1 0x14 PUSH2 0x100 EXP DUP2 SLOAD DUP2 PUSH1 0xFF MUL NOT AND SWAP1 DUP4 ISZERO ISZERO MUL OR SWAP1 SSTORE POP CALLVALUE DUP1 ISZERO PUSH3 0x254 JUMPI PUSH1 0x0 DUP1 REVERT JUMPDEST POP PUSH1 0x40 MLOAD PUSH3 0x22BE CODESIZE SUB DUP1 PUSH3 0x22BE DUP4 CODECOPY DUP2 DUP2 ADD PUSH1 0x40 MSTORE DUP2 ADD SWAP1 PUSH3 0x27A SWAP2 SWAP1 PUSH3 0x3C6 JUMP JUMPDEST DUP1 DUP1 PUSH20 0xFFFFFFFFFFFFFFFFFFFFFFFFFFFFFFFFFFFFFFFF AND PUSH1 0x80 DUP2 PUSH20 0xFFFFFFFFFFFFFFFFFFFFFFFFFFFFFFFFFFFFFFFF AND DUP2 MSTORE POP POP DUP1 PUSH20 0xFFFFFFFFFFFFFFFFFFFFFFFFFFFFFFFFFFFFFFFF AND PUSH4 0x26B1D5F PUSH1 0x40 MLOAD DUP2 PUSH4 0xFFFFFFFF AND PUSH1 0xE0 SHL DUP2 MSTORE PUSH1 0x4 ADD PUSH1 0x20 PUSH1 0x40 MLOAD DUP1 DUP4 SUB DUP2 DUP7 GAS STATICCALL ISZERO DUP1 ISZERO PUSH3 0x2FB JUMPI RETURNDATASIZE PUSH1 0x0 DUP1 RETURNDATACOPY RETURNDATASIZE PUSH1 0x0 REVERT JUMPDEST POP POP POP POP PUSH1 0x40 MLOAD RETURNDATASIZE PUSH1 0x1F NOT PUSH1 0x1F DUP3 ADD AND DUP3 ADD DUP1 PUSH1 0x40 MSTORE POP DUP2 ADD SWAP1 PUSH3 0x321 SWAP2 SWAP1 PUSH3 0x3C6 JUMP JUMPDEST PUSH20 0xFFFFFFFFFFFFFFFFFFFFFFFFFFFFFFFFFFFFFFFF AND PUSH1 0xA0 DUP2 PUSH20 0xFFFFFFFFFFFFFFFFFFFFFFFFFFFFFFFFFFFFFFFF AND DUP2 MSTORE POP POP POP POP PUSH3 0x3F8 JUMP JUMPDEST PUSH1 0x0 DUP1 REVERT JUMPDEST PUSH1 0x0 PUSH20 0xFFFFFFFFFFFFFFFFFFFFFFFFFFFFFFFFFFFFFFFF DUP3 AND SWAP1 POP SWAP2 SWAP1 POP JUMP JUMPDEST PUSH1 0x0 PUSH3 0x38E DUP3 PUSH3 0x361 JUMP JUMPDEST SWAP1 POP SWAP2 SWAP1 POP JUMP JUMPDEST PUSH3 0x3A0 DUP2 PUSH3 0x381 JUMP JUMPDEST DUP2 EQ PUSH3 0x3AC JUMPI PUSH1 0x0 DUP1 REVERT JUMPDEST POP JUMP JUMPDEST PUSH1 0x0 DUP2 MLOAD SWAP1 POP PUSH3 0x3C0 DUP2 PUSH3 0x395 JUMP JUMPDEST SWAP3 SWAP2 POP POP JUMP JUMPDEST PUSH1 0x0 PUSH1 0x20 DUP3 DUP5 SUB SLT ISZERO PUSH3 0x3DF JUMPI PUSH3 0x3DE PUSH3 0x35C JUMP JUMPDEST JUMPDEST PUSH1 0x0 PUSH3 0x3EF DUP5 DUP3 DUP6 ADD PUSH3 0x3AF JUMP JUMPDEST SWAP2 POP POP SWAP3 SWAP2 POP POP JUMP JUMPDEST PUSH1 0x80 MLOAD PUSH1 0xA0 MLOAD PUSH2 0x1E7D PUSH3 0x441 PUSH1 0x0 CODECOPY PUSH1 0x0 DUP2 DUP2 PUSH2 0x748 ADD MSTORE DUP2 DUP2 PUSH2 0xBF3 ADD MSTORE DUP2 DUP2 PUSH2 0x10D7 ADD MSTORE DUP2 DUP2 PUSH2 0x1582 ADD MSTORE DUP2 DUP2 PUSH2 0x168C ADD MSTORE PUSH2 0x1729 ADD MSTORE PUSH1 0x0 PUSH2 0x242 ADD MSTORE PUSH2 0x1E7D PUSH1 0x0 RETURN INVALID PUSH1 0x80 PUSH1 0x40 MSTORE CALLVALUE DUP1 ISZERO PUSH2 0x10 JUMPI PUSH1 0x0 DUP1 REVERT JUMPDEST POP PUSH1 0x4 CALLDATASIZE LT PUSH2 0xA9 JUMPI PUSH1 0x0 CALLDATALOAD PUSH1 0xE0 SHR DUP1 PUSH4 0x5D170211 GT PUSH2 0x71 JUMPI DUP1 PUSH4 0x5D170211 EQ PUSH2 0x156 JUMPI DUP1 PUSH4 0x7535D246 EQ PUSH2 0x172 JUMPI DUP1 PUSH4 0x9D357486 EQ PUSH2 0x190 JUMPI DUP1 PUSH4 0xA13AEF61 EQ PUSH2 0x1AE JUMPI DUP1 PUSH4 0xBB2C101C EQ PUSH2 0x1CC JUMPI DUP1 PUSH4 0xF8B2CB4F EQ PUSH2 0x1EA JUMPI PUSH2 0xA9 JUMP JUMPDEST DUP1 PUSH4 0x1D1C784 EQ PUSH2 0xAE JUMPI DUP1 PUSH4 0x542975C EQ PUSH2 0xCC JUMPI DUP1 PUSH4 0x18F52E5A EQ PUSH2 0xEA JUMPI DUP1 PUSH4 0x1B11D0FF EQ PUSH2 0x108 JUMPI DUP1 PUSH4 0x49F915A9 EQ PUSH2 0x138 JUMPI JUMPDEST PUSH1 0x0 DUP1 REVERT JUMPDEST PUSH2 0xB6 PUSH2 0x21A JUMP JUMPDEST PUSH1 0x40 MLOAD PUSH2 0xC3 SWAP2 SWAP1 PUSH2 0x18BF JUMP JUMPDEST PUSH1 0x40 MLOAD DUP1 SWAP2 SUB SWAP1 RETURN JUMPDEST PUSH2 0xD4 PUSH2 0x240 JUMP JUMPDEST PUSH1 0x40 MLOAD PUSH2 0xE1 SWAP2 SWAP1 PUSH2 0x18FB JUMP JUMPDEST PUSH1 0x40 MLOAD DUP1 SWAP2 SUB SWAP1 RETURN JUMPDEST PUSH2 0xF2 PUSH2 0x264 JUMP JUMPDEST PUSH1 0x40 MLOAD PUSH2 0xFF SWAP2 SWAP1 PUSH2 0x1937 JUMP JUMPDEST PUSH1 0x40 MLOAD DUP1 SWAP2 SUB SWAP1 RETURN JUMPDEST PUSH2 0x122 PUSH1 0x4 DUP1 CALLDATASIZE SUB DUP2 ADD SWAP1 PUSH2 0x11D SWAP2 SWAP1 PUSH2 0x1A23 JUMP JUMPDEST PUSH2 0x28A JUMP JUMPDEST PUSH1 0x40 MLOAD PUSH2 0x12F SWAP2 SWAP1 PUSH2 0x1AD8 JUMP JUMPDEST PUSH1 0x40 MLOAD DUP1 SWAP2 SUB SWAP1 RETURN JUMPDEST PUSH2 0x140 PUSH2 0x1625 JUMP JUMPDEST PUSH1 0x40 MLOAD PUSH2 0x14D SWAP2 SWAP1 PUSH2 0x18BF JUMP JUMPDEST PUSH1 0x40 MLOAD DUP1 SWAP2 SUB SWAP1 RETURN JUMPDEST PUSH2 0x170 PUSH1 0x4 DUP1 CALLDATASIZE SUB DUP2 ADD SWAP1 PUSH2 0x16B SWAP2 SWAP1 PUSH2 0x1B1F JUMP JUMPDEST PUSH2 0x164B JUMP JUMPDEST STOP JUMPDEST PUSH2 0x17A PUSH2 0x1727 JUMP JUMPDEST PUSH1 0x40 MLOAD PUSH2 0x187 SWAP2 SWAP1 PUSH2 0x1B93 JUMP JUMPDEST PUSH1 0x40 MLOAD DUP1 SWAP2 SUB SWAP1 RETURN JUMPDEST PUSH2 0x198 PUSH2 0x174B JUMP JUMPDEST PUSH1 0x40 MLOAD PUSH2 0x1A5 SWAP2 SWAP1 PUSH2 0x1937 JUMP JUMPDEST PUSH1 0x40 MLOAD DUP1 SWAP2 SUB SWAP1 RETURN JUMPDEST PUSH2 0x1B6 PUSH2 0x1771 JUMP JUMPDEST PUSH1 0x40 MLOAD PUSH2 0x1C3 SWAP2 SWAP1 PUSH2 0x1937 JUMP JUMPDEST PUSH1 0x40 MLOAD DUP1 SWAP2 SUB SWAP1 RETURN JUMPDEST PUSH2 0x1D4 PUSH2 0x1797 JUMP JUMPDEST PUSH1 0x40 MLOAD PUSH2 0x1E1 SWAP2 SWAP1 PUSH2 0x18BF JUMP JUMPDEST PUSH1 0x40 MLOAD DUP1 SWAP2 SUB SWAP1 RETURN JUMPDEST PUSH2 0x204 PUSH1 0x4 DUP1 CALLDATASIZE SUB DUP2 ADD SWAP1 PUSH2 0x1FF SWAP2 SWAP1 PUSH2 0x1BAE JUMP JUMPDEST PUSH2 0x17BD JUMP JUMPDEST PUSH1 0x40 MLOAD PUSH2 0x211 SWAP2 SWAP1 PUSH2 0x1BEA JUMP JUMPDEST PUSH1 0x40 MLOAD DUP1 SWAP2 SUB SWAP1 RETURN JUMPDEST PUSH1 0x4 PUSH1 0x0 SWAP1 SLOAD SWAP1 PUSH2 0x100 EXP SWAP1 DIV PUSH20 0xFFFFFFFFFFFFFFFFFFFFFFFFFFFFFFFFFFFFFFFF AND DUP2 JUMP JUMPDEST PUSH32 0x0 DUP2 JUMP JUMPDEST PUSH1 0x1 PUSH1 0x0 SWAP1 SLOAD SWAP1 PUSH2 0x100 EXP SWAP1 DIV PUSH20 0xFFFFFFFFFFFFFFFFFFFFFFFFFFFFFFFFFFFFFFFF AND DUP2 JUMP JUMPDEST PUSH1 0x0 DUP1 PUSH20 0xDA9D4F9B69AC6C22E444ED9AF0CFC043B7A7F53F SWAP1 POP PUSH1 0x0 PUSH20 0x779877A7B0D9E8603169DDBD7836E478B4624789 SWAP1 POP PUSH1 0x0 PUSH20 0xF864F011C5A97FD8DA79BAED78BA77B47112935A SWAP1 POP PUSH1 0x0 PUSH32 0xFFFFFFFFFFFFFFFFFFFFFFFFFFFFFFFFFFFFFFFFFFFFFFFFFFFFFFFFFFFFFFFF SWAP1 POP DUP4 PUSH20 0xFFFFFFFFFFFFFFFFFFFFFFFFFFFFFFFFFFFFFFFF AND DUP12 PUSH20 0xFFFFFFFFFFFFFFFFFFFFFFFFFFFFFFFFFFFFFFFF AND EQ ISZERO PUSH2 0xC8A JUMPI PUSH1 0x1 ISZERO ISZERO PUSH1 0x6 PUSH1 0x14 SWAP1 SLOAD SWAP1 PUSH2 0x100 EXP SWAP1 DIV PUSH1 0xFF AND ISZERO ISZERO EQ ISZERO PUSH2 0x7DA JUMPI DUP4 PUSH20 0xFFFFFFFFFFFFFFFFFFFFFFFFFFFFFFFFFFFFFFFF AND PUSH4 0x95EA7B3 PUSH1 0x4 PUSH1 0x0 SWAP1 SLOAD SWAP1 PUSH2 0x100 EXP SWAP1 DIV PUSH20 0xFFFFFFFFFFFFFFFFFFFFFFFFFFFFFFFFFFFFFFFF AND DUP4 PUSH1 0x40 MLOAD DUP4 PUSH4 0xFFFFFFFF AND PUSH1 0xE0 SHL DUP2 MSTORE PUSH1 0x4 ADD PUSH2 0x3A8 SWAP3 SWAP2 SWAP1 PUSH2 0x1C05 JUMP JUMPDEST PUSH1 0x20 PUSH1 0x40 MLOAD DUP1 DUP4 SUB DUP2 PUSH1 0x0 DUP8 GAS CALL ISZERO DUP1 ISZERO PUSH2 0x3C7 JUMPI RETURNDATASIZE PUSH1 0x0 DUP1 RETURNDATACOPY RETURNDATASIZE PUSH1 0x0 REVERT JUMPDEST POP POP POP POP PUSH1 0x40 MLOAD RETURNDATASIZE PUSH1 0x1F NOT PUSH1 0x1F DUP3 ADD AND DUP3 ADD DUP1 PUSH1 0x40 MSTORE POP DUP2 ADD SWAP1 PUSH2 0x3EB SWAP2 SWAP1 PUSH2 0x1C43 JUMP JUMPDEST POP DUP2 PUSH20 0xFFFFFFFFFFFFFFFFFFFFFFFFFFFFFFFFFFFFFFFF AND PUSH4 0x95EA7B3 PUSH1 0x5 PUSH1 0x0 SWAP1 SLOAD SWAP1 PUSH2 0x100 EXP SWAP1 DIV PUSH20 0xFFFFFFFFFFFFFFFFFFFFFFFFFFFFFFFFFFFFFFFF AND DUP4 PUSH1 0x40 MLOAD DUP4 PUSH4 0xFFFFFFFF AND PUSH1 0xE0 SHL DUP2 MSTORE PUSH1 0x4 ADD PUSH2 0x449 SWAP3 SWAP2 SWAP1 PUSH2 0x1C05 JUMP JUMPDEST PUSH1 0x20 PUSH1 0x40 MLOAD DUP1 DUP4 SUB DUP2 PUSH1 0x0 DUP8 GAS CALL ISZERO DUP1 ISZERO PUSH2 0x468 JUMPI RETURNDATASIZE PUSH1 0x0 DUP1 RETURNDATACOPY RETURNDATASIZE PUSH1 0x0 REVERT JUMPDEST POP POP POP POP PUSH1 0x40 MLOAD RETURNDATASIZE PUSH1 0x1F NOT PUSH1 0x1F DUP3 ADD AND DUP3 ADD DUP1 PUSH1 0x40 MSTORE POP DUP2 ADD SWAP1 PUSH2 0x48C SWAP2 SWAP1 PUSH2 0x1C43 JUMP JUMPDEST POP DUP3 PUSH20 0xFFFFFFFFFFFFFFFFFFFFFFFFFFFFFFFFFFFFFFFF AND PUSH4 0x95EA7B3 PUSH1 0x6 PUSH1 0x0 SWAP1 SLOAD SWAP1 PUSH2 0x100 EXP SWAP1 DIV PUSH20 0xFFFFFFFFFFFFFFFFFFFFFFFFFFFFFFFFFFFFFFFF AND DUP4 PUSH1 0x40 MLOAD DUP4 PUSH4 0xFFFFFFFF AND PUSH1 0xE0 SHL DUP2 MSTORE PUSH1 0x4 ADD PUSH2 0x4EA SWAP3 SWAP2 SWAP1 PUSH2 0x1C05 JUMP JUMPDEST PUSH1 0x20 PUSH1 0x40 MLOAD DUP1 DUP4 SUB DUP2 PUSH1 0x0 DUP8 GAS CALL ISZERO DUP1 ISZERO PUSH2 0x509 JUMPI RETURNDATASIZE PUSH1 0x0 DUP1 RETURNDATACOPY RETURNDATASIZE PUSH1 0x0 REVERT JUMPDEST POP POP POP POP PUSH1 0x40 MLOAD RETURNDATASIZE PUSH1 0x1F NOT PUSH1 0x1F DUP3 ADD AND DUP3 ADD DUP1 PUSH1 0x40 MSTORE POP DUP2 ADD SWAP1 PUSH2 0x52D SWAP2 SWAP1 PUSH2 0x1C43 JUMP JUMPDEST POP PUSH1 0x0 PUSH1 0x4 PUSH1 0x0 SWAP1 SLOAD SWAP1 PUSH2 0x100 EXP SWAP1 DIV PUSH20 0xFFFFFFFFFFFFFFFFFFFFFFFFFFFFFFFFFFFFFFFF AND PUSH20 0xFFFFFFFFFFFFFFFFFFFFFFFFFFFFFFFFFFFFFFFF AND PUSH4 0xD004F0F7 DUP7 DUP14 PUSH1 0x40 MLOAD DUP4 PUSH4 0xFFFFFFFF AND PUSH1 0xE0 SHL DUP2 MSTORE PUSH1 0x4 ADD PUSH2 0x58D SWAP3 SWAP2 SWAP1 PUSH2 0x1C05 JUMP JUMPDEST PUSH1 0x20 PUSH1 0x40 MLOAD DUP1 DUP4 SUB DUP2 PUSH1 0x0 DUP8 GAS CALL ISZERO DUP1 ISZERO PUSH2 0x5AC JUMPI RETURNDATASIZE PUSH1 0x0 DUP1 RETURNDATACOPY RETURNDATASIZE PUSH1 0x0 REVERT JUMPDEST POP POP POP POP PUSH1 0x40 MLOAD RETURNDATASIZE PUSH1 0x1F NOT PUSH1 0x1F DUP3 ADD AND DUP3 ADD DUP1 PUSH1 0x40 MSTORE POP DUP2 ADD SWAP1 PUSH2 0x5D0 SWAP2 SWAP1 PUSH2 0x1C85 JUMP JUMPDEST SWAP1 POP PUSH1 0x0 PUSH1 0x5 PUSH1 0x0 SWAP1 SLOAD SWAP1 PUSH2 0x100 EXP SWAP1 DIV PUSH20 0xFFFFFFFFFFFFFFFFFFFFFFFFFFFFFFFFFFFFFFFF AND PUSH20 0xFFFFFFFFFFFFFFFFFFFFFFFFFFFFFFFFFFFFFFFF AND PUSH4 0xD004F0F7 DUP6 DUP5 PUSH1 0x40 MLOAD DUP4 PUSH4 0xFFFFFFFF AND PUSH1 0xE0 SHL DUP2 MSTORE PUSH1 0x4 ADD PUSH2 0x631 SWAP3 SWAP2 SWAP1 PUSH2 0x1C05 JUMP JUMPDEST PUSH1 0x20 PUSH1 0x40 MLOAD DUP1 DUP4 SUB DUP2 PUSH1 0x0 DUP8 GAS CALL ISZERO DUP1 ISZERO PUSH2 0x650 JUMPI RETURNDATASIZE PUSH1 0x0 DUP1 RETURNDATACOPY RETURNDATASIZE PUSH1 0x0 REVERT JUMPDEST POP POP POP POP PUSH1 0x40 MLOAD RETURNDATASIZE PUSH1 0x1F NOT PUSH1 0x1F DUP3 ADD AND DUP3 ADD DUP1 PUSH1 0x40 MSTORE POP DUP2 ADD SWAP1 PUSH2 0x674 SWAP2 SWAP1 PUSH2 0x1C85 JUMP JUMPDEST SWAP1 POP PUSH1 0x0 PUSH1 0x6 PUSH1 0x0 SWAP1 SLOAD SWAP1 PUSH2 0x100 EXP SWAP1 DIV PUSH20 0xFFFFFFFFFFFFFFFFFFFFFFFFFFFFFFFFFFFFFFFF AND PUSH20 0xFFFFFFFFFFFFFFFFFFFFFFFFFFFFFFFFFFFFFFFF AND PUSH4 0xD004F0F7 DUP8 DUP5 PUSH1 0x40 MLOAD DUP4 PUSH4 0xFFFFFFFF AND PUSH1 0xE0 SHL DUP2 MSTORE PUSH1 0x4 ADD PUSH2 0x6D5 SWAP3 SWAP2 SWAP1 PUSH2 0x1C05 JUMP JUMPDEST PUSH1 0x20 PUSH1 0x40 MLOAD DUP1 DUP4 SUB DUP2 PUSH1 0x0 DUP8 GAS CALL ISZERO DUP1 ISZERO PUSH2 0x6F4 JUMPI RETURNDATASIZE PUSH1 0x0 DUP1 RETURNDATACOPY RETURNDATASIZE PUSH1 0x0 REVERT JUMPDEST POP POP POP POP PUSH1 0x40 MLOAD RETURNDATASIZE PUSH1 0x1F NOT PUSH1 0x1F DUP3 ADD AND DUP3 ADD DUP1 PUSH1 0x40 MSTORE POP DUP2 ADD SWAP1 PUSH2 0x718 SWAP2 SWAP1 PUSH2 0x1C85 JUMP JUMPDEST SWAP1 POP PUSH1 0x0 DUP13 DUP15 PUSH2 0x728 SWAP2 SWAP1 PUSH2 0x1CE1 JUMP JUMPDEST SWAP1 POP DUP15 PUSH20 0xFFFFFFFFFFFFFFFFFFFFFFFFFFFFFFFFFFFFFFFF AND PUSH4 0x95EA7B3 PUSH32 0x0 DUP4 PUSH1 0x40 MLOAD DUP4 PUSH4 0xFFFFFFFF AND PUSH1 0xE0 SHL DUP2 MSTORE PUSH1 0x4 ADD PUSH2 0x785 SWAP3 SWAP2 SWAP1 PUSH2 0x1C05 JUMP JUMPDEST PUSH1 0x20 PUSH1 0x40 MLOAD DUP1 DUP4 SUB DUP2 PUSH1 0x0 DUP8 GAS CALL ISZERO DUP1 ISZERO PUSH2 0x7A4 JUMPI RETURNDATASIZE PUSH1 0x0 DUP1 RETURNDATACOPY RETURNDATASIZE PUSH1 0x0 REVERT JUMPDEST POP POP POP POP PUSH1 0x40 MLOAD RETURNDATASIZE PUSH1 0x1F NOT PUSH1 0x1F DUP3 ADD AND DUP3 ADD DUP1 PUSH1 0x40 MSTORE POP DUP2 ADD SWAP1 PUSH2 0x7C8 SWAP2 SWAP1 PUSH2 0x1C43 JUMP JUMPDEST POP PUSH1 0x1 SWAP9 POP POP POP POP POP POP POP POP POP PUSH2 0x161B JUMP JUMPDEST PUSH1 0x0 ISZERO ISZERO PUSH1 0x6 PUSH1 0x14 SWAP1 SLOAD SWAP1 PUSH2 0x100 EXP SWAP1 DIV PUSH1 0xFF AND ISZERO ISZERO EQ ISZERO PUSH2 0xC85 JUMPI DUP4 PUSH20 0xFFFFFFFFFFFFFFFFFFFFFFFFFFFFFFFFFFFFFFFF AND PUSH4 0x95EA7B3 PUSH1 0x6 PUSH1 0x0 SWAP1 SLOAD SWAP1 PUSH2 0x100 EXP SWAP1 DIV PUSH20 0xFFFFFFFFFFFFFFFFFFFFFFFFFFFFFFFFFFFFFFFF AND DUP4 PUSH1 0x40 MLOAD DUP4 PUSH4 0xFFFFFFFF AND PUSH1 0xE0 SHL DUP2 MSTORE PUSH1 0x4 ADD PUSH2 0x853 SWAP3 SWAP2 SWAP1 PUSH2 0x1C05 JUMP JUMPDEST PUSH1 0x20 PUSH1 0x40 MLOAD DUP1 DUP4 SUB DUP2 PUSH1 0x0 DUP8 GAS CALL ISZERO DUP1 ISZERO PUSH2 0x872 JUMPI RETURNDATASIZE PUSH1 0x0 DUP1 RETURNDATACOPY RETURNDATASIZE PUSH1 0x0 REVERT JUMPDEST POP POP POP POP PUSH1 0x40 MLOAD RETURNDATASIZE PUSH1 0x1F NOT PUSH1 0x1F DUP3 ADD AND DUP3 ADD DUP1 PUSH1 0x40 MSTORE POP DUP2 ADD SWAP1 PUSH2 0x896 SWAP2 SWAP1 PUSH2 0x1C43 JUMP JUMPDEST POP DUP3 PUSH20 0xFFFFFFFFFFFFFFFFFFFFFFFFFFFFFFFFFFFFFFFF AND PUSH4 0x95EA7B3 PUSH1 0x5 PUSH1 0x0 SWAP1 SLOAD SWAP1 PUSH2 0x100 EXP SWAP1 DIV PUSH20 0xFFFFFFFFFFFFFFFFFFFFFFFFFFFFFFFFFFFFFFFF AND DUP4 PUSH1 0x40 MLOAD DUP4 PUSH4 0xFFFFFFFF AND PUSH1 0xE0 SHL DUP2 MSTORE PUSH1 0x4 ADD PUSH2 0x8F4 SWAP3 SWAP2 SWAP1 PUSH2 0x1C05 JUMP JUMPDEST PUSH1 0x20 PUSH1 0x40 MLOAD DUP1 DUP4 SUB DUP2 PUSH1 0x0 DUP8 GAS CALL ISZERO DUP1 ISZERO PUSH2 0x913 JUMPI RETURNDATASIZE PUSH1 0x0 DUP1 RETURNDATACOPY RETURNDATASIZE PUSH1 0x0 REVERT JUMPDEST POP POP POP POP PUSH1 0x40 MLOAD RETURNDATASIZE PUSH1 0x1F NOT PUSH1 0x1F DUP3 ADD AND DUP3 ADD DUP1 PUSH1 0x40 MSTORE POP DUP2 ADD SWAP1 PUSH2 0x937 SWAP2 SWAP1 PUSH2 0x1C43 JUMP JUMPDEST POP DUP2 PUSH20 0xFFFFFFFFFFFFFFFFFFFFFFFFFFFFFFFFFFFFFFFF AND PUSH4 0x95EA7B3 PUSH1 0x4 PUSH1 0x0 SWAP1 SLOAD SWAP1 PUSH2 0x100 EXP SWAP1 DIV PUSH20 0xFFFFFFFFFFFFFFFFFFFFFFFFFFFFFFFFFFFFFFFF AND DUP4 PUSH1 0x40 MLOAD DUP4 PUSH4 0xFFFFFFFF AND PUSH1 0xE0 SHL DUP2 MSTORE PUSH1 0x4 ADD PUSH2 0x995 SWAP3 SWAP2 SWAP1 PUSH2 0x1C05 JUMP JUMPDEST PUSH1 0x20 PUSH1 0x40 MLOAD DUP1 DUP4 SUB DUP2 PUSH1 0x0 DUP8 GAS CALL ISZERO DUP1 ISZERO PUSH2 0x9B4 JUMPI RETURNDATASIZE PUSH1 0x0 DUP1 RETURNDATACOPY RETURNDATASIZE PUSH1 0x0 REVERT JUMPDEST POP POP POP POP PUSH1 0x40 MLOAD RETURNDATASIZE PUSH1 0x1F NOT PUSH1 0x1F DUP3 ADD AND DUP3 ADD DUP1 PUSH1 0x40 MSTORE POP DUP2 ADD SWAP1 PUSH2 0x9D8 SWAP2 SWAP1 PUSH2 0x1C43 JUMP JUMPDEST POP PUSH1 0x0 PUSH1 0x6 PUSH1 0x0 SWAP1 SLOAD SWAP1 PUSH2 0x100 EXP SWAP1 DIV PUSH20 0xFFFFFFFFFFFFFFFFFFFFFFFFFFFFFFFFFFFFFFFF AND PUSH20 0xFFFFFFFFFFFFFFFFFFFFFFFFFFFFFFFFFFFFFFFF AND PUSH4 0xD004F0F7 DUP7 DUP14 PUSH1 0x40 MLOAD DUP4 PUSH4 0xFFFFFFFF AND PUSH1 0xE0 SHL DUP2 MSTORE PUSH1 0x4 ADD PUSH2 0xA38 SWAP3 SWAP2 SWAP1 PUSH2 0x1C05 JUMP JUMPDEST PUSH1 0x20 PUSH1 0x40 MLOAD DUP1 DUP4 SUB DUP2 PUSH1 0x0 DUP8 GAS CALL ISZERO DUP1 ISZERO PUSH2 0xA57 JUMPI RETURNDATASIZE PUSH1 0x0 DUP1 RETURNDATACOPY RETURNDATASIZE PUSH1 0x0 REVERT JUMPDEST POP POP POP POP PUSH1 0x40 MLOAD RETURNDATASIZE PUSH1 0x1F NOT PUSH1 0x1F DUP3 ADD AND DUP3 ADD DUP1 PUSH1 0x40 MSTORE POP DUP2 ADD SWAP1 PUSH2 0xA7B SWAP2 SWAP1 PUSH2 0x1C85 JUMP JUMPDEST SWAP1 POP PUSH1 0x0 PUSH1 0x5 PUSH1 0x0 SWAP1 SLOAD SWAP1 PUSH2 0x100 EXP SWAP1 DIV PUSH20 0xFFFFFFFFFFFFFFFFFFFFFFFFFFFFFFFFFFFFFFFF AND PUSH20 0xFFFFFFFFFFFFFFFFFFFFFFFFFFFFFFFFFFFFFFFF AND PUSH4 0xD004F0F7 DUP7 DUP5 PUSH1 0x40 MLOAD DUP4 PUSH4 0xFFFFFFFF AND PUSH1 0xE0 SHL DUP2 MSTORE PUSH1 0x4 ADD PUSH2 0xADC SWAP3 SWAP2 SWAP1 PUSH2 0x1C05 JUMP JUMPDEST PUSH1 0x20 PUSH1 0x40 MLOAD DUP1 DUP4 SUB DUP2 PUSH1 0x0 DUP8 GAS CALL ISZERO DUP1 ISZERO PUSH2 0xAFB JUMPI RETURNDATASIZE PUSH1 0x0 DUP1 RETURNDATACOPY RETURNDATASIZE PUSH1 0x0 REVERT JUMPDEST POP POP POP POP PUSH1 0x40 MLOAD RETURNDATASIZE PUSH1 0x1F NOT PUSH1 0x1F DUP3 ADD AND DUP3 ADD DUP1 PUSH1 0x40 MSTORE POP DUP2 ADD SWAP1 PUSH2 0xB1F SWAP2 SWAP1 PUSH2 0x1C85 JUMP JUMPDEST SWAP1 POP PUSH1 0x0 PUSH1 0x4 PUSH1 0x0 SWAP1 SLOAD SWAP1 PUSH2 0x100 EXP SWAP1 DIV PUSH20 0xFFFFFFFFFFFFFFFFFFFFFFFFFFFFFFFFFFFFFFFF AND PUSH20 0xFFFFFFFFFFFFFFFFFFFFFFFFFFFFFFFFFFFFFFFF AND PUSH4 0xD004F0F7 DUP7 DUP5 PUSH1 0x40 MLOAD DUP4 PUSH4 0xFFFFFFFF AND PUSH1 0xE0 SHL DUP2 MSTORE PUSH1 0x4 ADD PUSH2 0xB80 SWAP3 SWAP2 SWAP1 PUSH2 0x1C05 JUMP JUMPDEST PUSH1 0x20 PUSH1 0x40 MLOAD DUP1 DUP4 SUB DUP2 PUSH1 0x0 DUP8 GAS CALL ISZERO DUP1 ISZERO PUSH2 0xB9F JUMPI RETURNDATASIZE PUSH1 0x0 DUP1 RETURNDATACOPY RETURNDATASIZE PUSH1 0x0 REVERT JUMPDEST POP POP POP POP PUSH1 0x40 MLOAD RETURNDATASIZE PUSH1 0x1F NOT PUSH1 0x1F DUP3 ADD AND DUP3 ADD DUP1 PUSH1 0x40 MSTORE POP DUP2 ADD SWAP1 PUSH2 0xBC3 SWAP2 SWAP1 PUSH2 0x1C85 JUMP JUMPDEST SWAP1 POP PUSH1 0x0 DUP13 DUP15 PUSH2 0xBD3 SWAP2 SWAP1 PUSH2 0x1CE1 JUMP JUMPDEST SWAP1 POP DUP15 PUSH20 0xFFFFFFFFFFFFFFFFFFFFFFFFFFFFFFFFFFFFFFFF AND PUSH4 0x95EA7B3 PUSH32 0x0 DUP4 PUSH1 0x40 MLOAD DUP4 PUSH4 0xFFFFFFFF AND PUSH1 0xE0 SHL DUP2 MSTORE PUSH1 0x4 ADD PUSH2 0xC30 SWAP3 SWAP2 SWAP1 PUSH2 0x1C05 JUMP JUMPDEST PUSH1 0x20 PUSH1 0x40 MLOAD DUP1 DUP4 SUB DUP2 PUSH1 0x0 DUP8 GAS CALL ISZERO DUP1 ISZERO PUSH2 0xC4F JUMPI RETURNDATASIZE PUSH1 0x0 DUP1 RETURNDATACOPY RETURNDATASIZE PUSH1 0x0 REVERT JUMPDEST POP POP POP POP PUSH1 0x40 MLOAD RETURNDATASIZE PUSH1 0x1F NOT PUSH1 0x1F DUP3 ADD AND DUP3 ADD DUP1 PUSH1 0x40 MSTORE POP DUP2 ADD SWAP1 PUSH2 0xC73 SWAP2 SWAP1 PUSH2 0x1C43 JUMP JUMPDEST POP PUSH1 0x1 SWAP9 POP POP POP POP POP POP POP POP POP PUSH2 0x161B JUMP JUMPDEST PUSH2 0x1616 JUMP JUMPDEST DUP2 PUSH20 0xFFFFFFFFFFFFFFFFFFFFFFFFFFFFFFFFFFFFFFFF AND DUP12 PUSH20 0xFFFFFFFFFFFFFFFFFFFFFFFFFFFFFFFFFFFFFFFF AND EQ ISZERO PUSH2 0x1615 JUMPI PUSH1 0x1 ISZERO ISZERO PUSH1 0x6 PUSH1 0x14 SWAP1 SLOAD SWAP1 PUSH2 0x100 EXP SWAP1 DIV PUSH1 0xFF AND ISZERO ISZERO EQ ISZERO PUSH2 0x1169 JUMPI DUP2 PUSH20 0xFFFFFFFFFFFFFFFFFFFFFFFFFFFFFFFFFFFFFFFF AND PUSH4 0x95EA7B3 PUSH1 0x4 PUSH1 0x0 SWAP1 SLOAD SWAP1 PUSH2 0x100 EXP SWAP1 DIV PUSH20 0xFFFFFFFFFFFFFFFFFFFFFFFFFFFFFFFFFFFFFFFF AND DUP4 PUSH1 0x40 MLOAD DUP4 PUSH4 0xFFFFFFFF AND PUSH1 0xE0 SHL DUP2 MSTORE PUSH1 0x4 ADD PUSH2 0xD37 SWAP3 SWAP2 SWAP1 PUSH2 0x1C05 JUMP JUMPDEST PUSH1 0x20 PUSH1 0x40 MLOAD DUP1 DUP4 SUB DUP2 PUSH1 0x0 DUP8 GAS CALL ISZERO DUP1 ISZERO PUSH2 0xD56 JUMPI RETURNDATASIZE PUSH1 0x0 DUP1 RETURNDATACOPY RETURNDATASIZE PUSH1 0x0 REVERT JUMPDEST POP POP POP POP PUSH1 0x40 MLOAD RETURNDATASIZE PUSH1 0x1F NOT PUSH1 0x1F DUP3 ADD AND DUP3 ADD DUP1 PUSH1 0x40 MSTORE POP DUP2 ADD SWAP1 PUSH2 0xD7A SWAP2 SWAP1 PUSH2 0x1C43 JUMP JUMPDEST POP DUP4 PUSH20 0xFFFFFFFFFFFFFFFFFFFFFFFFFFFFFFFFFFFFFFFF AND PUSH4 0x95EA7B3 PUSH1 0x6 PUSH1 0x0 SWAP1 SLOAD SWAP1 PUSH2 0x100 EXP SWAP1 DIV PUSH20 0xFFFFFFFFFFFFFFFFFFFFFFFFFFFFFFFFFFFFFFFF AND DUP4 PUSH1 0x40 MLOAD DUP4 PUSH4 0xFFFFFFFF AND PUSH1 0xE0 SHL DUP2 MSTORE PUSH1 0x4 ADD PUSH2 0xDD8 SWAP3 SWAP2 SWAP1 PUSH2 0x1C05 JUMP JUMPDEST PUSH1 0x20 PUSH1 0x40 MLOAD DUP1 DUP4 SUB DUP2 PUSH1 0x0 DUP8 GAS CALL ISZERO DUP1 ISZERO PUSH2 0xDF7 JUMPI RETURNDATASIZE PUSH1 0x0 DUP1 RETURNDATACOPY RETURNDATASIZE PUSH1 0x0 REVERT JUMPDEST POP POP POP POP PUSH1 0x40 MLOAD RETURNDATASIZE PUSH1 0x1F NOT PUSH1 0x1F DUP3 ADD AND DUP3 ADD DUP1 PUSH1 0x40 MSTORE POP DUP2 ADD SWAP1 PUSH2 0xE1B SWAP2 SWAP1 PUSH2 0x1C43 JUMP JUMPDEST POP DUP3 PUSH20 0xFFFFFFFFFFFFFFFFFFFFFFFFFFFFFFFFFFFFFFFF AND PUSH4 0x95EA7B3 PUSH1 0x5 PUSH1 0x0 SWAP1 SLOAD SWAP1 PUSH2 0x100 EXP SWAP1 DIV PUSH20 0xFFFFFFFFFFFFFFFFFFFFFFFFFFFFFFFFFFFFFFFF AND DUP4 PUSH1 0x40 MLOAD DUP4 PUSH4 0xFFFFFFFF AND PUSH1 0xE0 SHL DUP2 MSTORE PUSH1 0x4 ADD PUSH2 0xE79 SWAP3 SWAP2 SWAP1 PUSH2 0x1C05 JUMP JUMPDEST PUSH1 0x20 PUSH1 0x40 MLOAD DUP1 DUP4 SUB DUP2 PUSH1 0x0 DUP8 GAS CALL ISZERO DUP1 ISZERO PUSH2 0xE98 JUMPI RETURNDATASIZE PUSH1 0x0 DUP1 RETURNDATACOPY RETURNDATASIZE PUSH1 0x0 REVERT JUMPDEST POP POP POP POP PUSH1 0x40 MLOAD RETURNDATASIZE PUSH1 0x1F NOT PUSH1 0x1F DUP3 ADD AND DUP3 ADD DUP1 PUSH1 0x40 MSTORE POP DUP2 ADD SWAP1 PUSH2 0xEBC SWAP2 SWAP1 PUSH2 0x1C43 JUMP JUMPDEST POP PUSH1 0x0 PUSH1 0x4 PUSH1 0x0 SWAP1 SLOAD SWAP1 PUSH2 0x100 EXP SWAP1 DIV PUSH20 0xFFFFFFFFFFFFFFFFFFFFFFFFFFFFFFFFFFFFFFFF AND PUSH20 0xFFFFFFFFFFFFFFFFFFFFFFFFFFFFFFFFFFFFFFFF AND PUSH4 0xD004F0F7 DUP5 DUP14 PUSH1 0x40 MLOAD DUP4 PUSH4 0xFFFFFFFF AND PUSH1 0xE0 SHL DUP2 MSTORE PUSH1 0x4 ADD PUSH2 0xF1C SWAP3 SWAP2 SWAP1 PUSH2 0x1C05 JUMP JUMPDEST PUSH1 0x20 PUSH1 0x40 MLOAD DUP1 DUP4 SUB DUP2 PUSH1 0x0 DUP8 GAS CALL ISZERO DUP1 ISZERO PUSH2 0xF3B JUMPI RETURNDATASIZE PUSH1 0x0 DUP1 RETURNDATACOPY RETURNDATASIZE PUSH1 0x0 REVERT JUMPDEST POP POP POP POP PUSH1 0x40 MLOAD RETURNDATASIZE PUSH1 0x1F NOT PUSH1 0x1F DUP3 ADD AND DUP3 ADD DUP1 PUSH1 0x40 MSTORE POP DUP2 ADD SWAP1 PUSH2 0xF5F SWAP2 SWAP1 PUSH2 0x1C85 JUMP JUMPDEST SWAP1 POP PUSH1 0x0 PUSH1 0x6 PUSH1 0x0 SWAP1 SLOAD SWAP1 PUSH2 0x100 EXP SWAP1 DIV PUSH20 0xFFFFFFFFFFFFFFFFFFFFFFFFFFFFFFFFFFFFFFFF AND PUSH20 0xFFFFFFFFFFFFFFFFFFFFFFFFFFFFFFFFFFFFFFFF AND PUSH4 0xD004F0F7 DUP8 DUP5 PUSH1 0x40 MLOAD DUP4 PUSH4 0xFFFFFFFF AND PUSH1 0xE0 SHL DUP2 MSTORE PUSH1 0x4 ADD PUSH2 0xFC0 SWAP3 SWAP2 SWAP1 PUSH2 0x1C05 JUMP JUMPDEST PUSH1 0x20 PUSH1 0x40 MLOAD DUP1 DUP4 SUB DUP2 PUSH1 0x0 DUP8 GAS CALL ISZERO DUP1 ISZERO PUSH2 0xFDF JUMPI RETURNDATASIZE PUSH1 0x0 DUP1 RETURNDATACOPY RETURNDATASIZE PUSH1 0x0 REVERT JUMPDEST POP POP POP POP PUSH1 0x40 MLOAD RETURNDATASIZE PUSH1 0x1F NOT PUSH1 0x1F DUP3 ADD AND DUP3 ADD DUP1 PUSH1 0x40 MSTORE POP DUP2 ADD SWAP1 PUSH2 0x1003 SWAP2 SWAP1 PUSH2 0x1C85 JUMP JUMPDEST SWAP1 POP PUSH1 0x0 PUSH1 0x5 PUSH1 0x0 SWAP1 SLOAD SWAP1 PUSH2 0x100 EXP SWAP1 DIV PUSH20 0xFFFFFFFFFFFFFFFFFFFFFFFFFFFFFFFFFFFFFFFF AND PUSH20 0xFFFFFFFFFFFFFFFFFFFFFFFFFFFFFFFFFFFFFFFF AND PUSH4 0xD004F0F7 DUP8 DUP5 PUSH1 0x40 MLOAD DUP4 PUSH4 0xFFFFFFFF AND PUSH1 0xE0 SHL DUP2 MSTORE PUSH1 0x4 ADD PUSH2 0x1064 SWAP3 SWAP2 SWAP1 PUSH2 0x1C05 JUMP JUMPDEST PUSH1 0x20 PUSH1 0x40 MLOAD DUP1 DUP4 SUB DUP2 PUSH1 0x0 DUP8 GAS CALL ISZERO DUP1 ISZERO PUSH2 0x1083 JUMPI RETURNDATASIZE PUSH1 0x0 DUP1 RETURNDATACOPY RETURNDATASIZE PUSH1 0x0 REVERT JUMPDEST POP POP POP POP PUSH1 0x40 MLOAD RETURNDATASIZE PUSH1 0x1F NOT PUSH1 0x1F DUP3 ADD AND DUP3 ADD DUP1 PUSH1 0x40 MSTORE POP DUP2 ADD SWAP1 PUSH2 0x10A7 SWAP2 SWAP1 PUSH2 0x1C85 JUMP JUMPDEST SWAP1 POP PUSH1 0x0 DUP13 DUP15 PUSH2 0x10B7 SWAP2 SWAP1 PUSH2 0x1CE1 JUMP JUMPDEST SWAP1 POP DUP15 PUSH20 0xFFFFFFFFFFFFFFFFFFFFFFFFFFFFFFFFFFFFFFFF AND PUSH4 0x95EA7B3 PUSH32 0x0 DUP4 PUSH1 0x40 MLOAD DUP4 PUSH4 0xFFFFFFFF AND PUSH1 0xE0 SHL DUP2 MSTORE PUSH1 0x4 ADD PUSH2 0x1114 SWAP3 SWAP2 SWAP1 PUSH2 0x1C05 JUMP JUMPDEST PUSH1 0x20 PUSH1 0x40 MLOAD DUP1 DUP4 SUB DUP2 PUSH1 0x0 DUP8 GAS CALL ISZERO DUP1 ISZERO PUSH2 0x1133 JUMPI RETURNDATASIZE PUSH1 0x0 DUP1 RETURNDATACOPY RETURNDATASIZE PUSH1 0x0 REVERT JUMPDEST POP POP POP POP PUSH1 0x40 MLOAD RETURNDATASIZE PUSH1 0x1F NOT PUSH1 0x1F DUP3 ADD AND DUP3 ADD DUP1 PUSH1 0x40 MSTORE POP DUP2 ADD SWAP1 PUSH2 0x1157 SWAP2 SWAP1 PUSH2 0x1C43 JUMP JUMPDEST POP PUSH1 0x1 SWAP9 POP POP POP POP POP POP POP POP POP PUSH2 0x161B JUMP JUMPDEST PUSH1 0x0 ISZERO ISZERO PUSH1 0x6 PUSH1 0x14 SWAP1 SLOAD SWAP1 PUSH2 0x100 EXP SWAP1 DIV PUSH1 0xFF AND ISZERO ISZERO EQ ISZERO PUSH2 0x1614 JUMPI DUP2 PUSH20 0xFFFFFFFFFFFFFFFFFFFFFFFFFFFFFFFFFFFFFFFF AND PUSH4 0x95EA7B3 PUSH1 0x5 PUSH1 0x0 SWAP1 SLOAD SWAP1 PUSH2 0x100 EXP SWAP1 DIV PUSH20 0xFFFFFFFFFFFFFFFFFFFFFFFFFFFFFFFFFFFFFFFF AND DUP4 PUSH1 0x40 MLOAD DUP4 PUSH4 0xFFFFFFFF AND PUSH1 0xE0 SHL DUP2 MSTORE PUSH1 0x4 ADD PUSH2 0x11E2 SWAP3 SWAP2 SWAP1 PUSH2 0x1C05 JUMP JUMPDEST PUSH1 0x20 PUSH1 0x40 MLOAD DUP1 DUP4 SUB DUP2 PUSH1 0x0 DUP8 GAS CALL ISZERO DUP1 ISZERO PUSH2 0x1201 JUMPI RETURNDATASIZE PUSH1 0x0 DUP1 RETURNDATACOPY RETURNDATASIZE PUSH1 0x0 REVERT JUMPDEST POP POP POP POP PUSH1 0x40 MLOAD RETURNDATASIZE PUSH1 0x1F NOT PUSH1 0x1F DUP3 ADD AND DUP3 ADD DUP1 PUSH1 0x40 MSTORE POP DUP2 ADD SWAP1 PUSH2 0x1225 SWAP2 SWAP1 PUSH2 0x1C43 JUMP JUMPDEST POP DUP3 PUSH20 0xFFFFFFFFFFFFFFFFFFFFFFFFFFFFFFFFFFFFFFFF AND PUSH4 0x95EA7B3 PUSH1 0x6 PUSH1 0x0 SWAP1 SLOAD SWAP1 PUSH2 0x100 EXP SWAP1 DIV PUSH20 0xFFFFFFFFFFFFFFFFFFFFFFFFFFFFFFFFFFFFFFFF AND DUP4 PUSH1 0x40 MLOAD DUP4 PUSH4 0xFFFFFFFF AND PUSH1 0xE0 SHL DUP2 MSTORE PUSH1 0x4 ADD PUSH2 0x1283 SWAP3 SWAP2 SWAP1 PUSH2 0x1C05 JUMP JUMPDEST PUSH1 0x20 PUSH1 0x40 MLOAD DUP1 DUP4 SUB DUP2 PUSH1 0x0 DUP8 GAS CALL ISZERO DUP1 ISZERO PUSH2 0x12A2 JUMPI RETURNDATASIZE PUSH1 0x0 DUP1 RETURNDATACOPY RETURNDATASIZE PUSH1 0x0 REVERT JUMPDEST POP POP POP POP PUSH1 0x40 MLOAD RETURNDATASIZE PUSH1 0x1F NOT PUSH1 0x1F DUP3 ADD AND DUP3 ADD DUP1 PUSH1 0x40 MSTORE POP DUP2 ADD SWAP1 PUSH2 0x12C6 SWAP2 SWAP1 PUSH2 0x1C43 JUMP JUMPDEST POP DUP4 PUSH20 0xFFFFFFFFFFFFFFFFFFFFFFFFFFFFFFFFFFFFFFFF AND PUSH4 0x95EA7B3 PUSH1 0x4 PUSH1 0x0 SWAP1 SLOAD SWAP1 PUSH2 0x100 EXP SWAP1 DIV PUSH20 0xFFFFFFFFFFFFFFFFFFFFFFFFFFFFFFFFFFFFFFFF AND DUP4 PUSH1 0x40 MLOAD DUP4 PUSH4 0xFFFFFFFF AND PUSH1 0xE0 SHL DUP2 MSTORE PUSH1 0x4 ADD PUSH2 0x1324 SWAP3 SWAP2 SWAP1 PUSH2 0x1C05 JUMP JUMPDEST PUSH1 0x20 PUSH1 0x40 MLOAD DUP1 DUP4 SUB DUP2 PUSH1 0x0 DUP8 GAS CALL ISZERO DUP1 ISZERO PUSH2 0x1343 JUMPI RETURNDATASIZE PUSH1 0x0 DUP1 RETURNDATACOPY RETURNDATASIZE PUSH1 0x0 REVERT JUMPDEST POP POP POP POP PUSH1 0x40 MLOAD RETURNDATASIZE PUSH1 0x1F NOT PUSH1 0x1F DUP3 ADD AND DUP3 ADD DUP1 PUSH1 0x40 MSTORE POP DUP2 ADD SWAP1 PUSH2 0x1367 SWAP2 SWAP1 PUSH2 0x1C43 JUMP JUMPDEST POP PUSH1 0x0 PUSH1 0x5 PUSH1 0x0 SWAP1 SLOAD SWAP1 PUSH2 0x100 EXP SWAP1 DIV PUSH20 0xFFFFFFFFFFFFFFFFFFFFFFFFFFFFFFFFFFFFFFFF AND PUSH20 0xFFFFFFFFFFFFFFFFFFFFFFFFFFFFFFFFFFFFFFFF AND PUSH4 0xD004F0F7 DUP5 DUP14 PUSH1 0x40 MLOAD DUP4 PUSH4 0xFFFFFFFF AND PUSH1 0xE0 SHL DUP2 MSTORE PUSH1 0x4 ADD PUSH2 0x13C7 SWAP3 SWAP2 SWAP1 PUSH2 0x1C05 JUMP JUMPDEST PUSH1 0x20 PUSH1 0x40 MLOAD DUP1 DUP4 SUB DUP2 PUSH1 0x0 DUP8 GAS CALL ISZERO DUP1 ISZERO PUSH2 0x13E6 JUMPI RETURNDATASIZE PUSH1 0x0 DUP1 RETURNDATACOPY RETURNDATASIZE PUSH1 0x0 REVERT JUMPDEST POP POP POP POP PUSH1 0x40 MLOAD RETURNDATASIZE PUSH1 0x1F NOT PUSH1 0x1F DUP3 ADD AND DUP3 ADD DUP1 PUSH1 0x40 MSTORE POP DUP2 ADD SWAP1 PUSH2 0x140A SWAP2 SWAP1 PUSH2 0x1C85 JUMP JUMPDEST SWAP1 POP PUSH1 0x0 PUSH1 0x6 PUSH1 0x0 SWAP1 SLOAD SWAP1 PUSH2 0x100 EXP SWAP1 DIV PUSH20 0xFFFFFFFFFFFFFFFFFFFFFFFFFFFFFFFFFFFFFFFF AND PUSH20 0xFFFFFFFFFFFFFFFFFFFFFFFFFFFFFFFFFFFFFFFF AND PUSH4 0xD004F0F7 DUP7 DUP5 PUSH1 0x40 MLOAD DUP4 PUSH4 0xFFFFFFFF AND PUSH1 0xE0 SHL DUP2 MSTORE PUSH1 0x4 ADD PUSH2 0x146B SWAP3 SWAP2 SWAP1 PUSH2 0x1C05 JUMP JUMPDEST PUSH1 0x20 PUSH1 0x40 MLOAD DUP1 DUP4 SUB DUP2 PUSH1 0x0 DUP8 GAS CALL ISZERO DUP1 ISZERO PUSH2 0x148A JUMPI RETURNDATASIZE PUSH1 0x0 DUP1 RETURNDATACOPY RETURNDATASIZE PUSH1 0x0 REVERT JUMPDEST POP POP POP POP PUSH1 0x40 MLOAD RETURNDATASIZE PUSH1 0x1F NOT PUSH1 0x1F DUP3 ADD AND DUP3 ADD DUP1 PUSH1 0x40 MSTORE POP DUP2 ADD SWAP1 PUSH2 0x14AE SWAP2 SWAP1 PUSH2 0x1C85 JUMP JUMPDEST SWAP1 POP PUSH1 0x0 PUSH1 0x4 PUSH1 0x0 SWAP1 SLOAD SWAP1 PUSH2 0x100 EXP SWAP1 DIV PUSH20 0xFFFFFFFFFFFFFFFFFFFFFFFFFFFFFFFFFFFFFFFF AND PUSH20 0xFFFFFFFFFFFFFFFFFFFFFFFFFFFFFFFFFFFFFFFF AND PUSH4 0xD004F0F7 DUP9 DUP5 PUSH1 0x40 MLOAD DUP4 PUSH4 0xFFFFFFFF AND PUSH1 0xE0 SHL DUP2 MSTORE PUSH1 0x4 ADD PUSH2 0x150F SWAP3 SWAP2 SWAP1 PUSH2 0x1C05 JUMP JUMPDEST PUSH1 0x20 PUSH1 0x40 MLOAD DUP1 DUP4 SUB DUP2 PUSH1 0x0 DUP8 GAS CALL ISZERO DUP1 ISZERO PUSH2 0x152E JUMPI RETURNDATASIZE PUSH1 0x0 DUP1 RETURNDATACOPY RETURNDATASIZE PUSH1 0x0 REVERT JUMPDEST POP POP POP POP PUSH1 0x40 MLOAD RETURNDATASIZE PUSH1 0x1F NOT PUSH1 0x1F DUP3 ADD AND DUP3 ADD DUP1 PUSH1 0x40 MSTORE POP DUP2 ADD SWAP1 PUSH2 0x1552 SWAP2 SWAP1 PUSH2 0x1C85 JUMP JUMPDEST SWAP1 POP PUSH1 0x0 DUP13 DUP15 PUSH2 0x1562 SWAP2 SWAP1 PUSH2 0x1CE1 JUMP JUMPDEST SWAP1 POP DUP15 PUSH20 0xFFFFFFFFFFFFFFFFFFFFFFFFFFFFFFFFFFFFFFFF AND PUSH4 0x95EA7B3 PUSH32 0x0 DUP4 PUSH1 0x40 MLOAD DUP4 PUSH4 0xFFFFFFFF AND PUSH1 0xE0 SHL DUP2 MSTORE PUSH1 0x4 ADD PUSH2 0x15BF SWAP3 SWAP2 SWAP1 PUSH2 0x1C05 JUMP JUMPDEST PUSH1 0x20 PUSH1 0x40 MLOAD DUP1 DUP4 SUB DUP2 PUSH1 0x0 DUP8 GAS CALL ISZERO DUP1 ISZERO PUSH2 0x15DE JUMPI RETURNDATASIZE PUSH1 0x0 DUP1 RETURNDATACOPY RETURNDATASIZE PUSH1 0x0 REVERT JUMPDEST POP POP POP POP PUSH1 0x40 MLOAD RETURNDATASIZE PUSH1 0x1F NOT PUSH1 0x1F DUP3 ADD AND DUP3 ADD DUP1 PUSH1 0x40 MSTORE POP DUP2 ADD SWAP1 PUSH2 0x1602 SWAP2 SWAP1 PUSH2 0x1C43 JUMP JUMPDEST POP PUSH1 0x1 SWAP9 POP POP POP POP POP POP POP POP POP PUSH2 0x161B JUMP JUMPDEST JUMPDEST JUMPDEST POP POP POP POP JUMPDEST SWAP7 SWAP6 POP POP POP POP POP POP JUMP JUMPDEST PUSH1 0x6 PUSH1 0x0 SWAP1 SLOAD SWAP1 PUSH2 0x100 EXP SWAP1 DIV PUSH20 0xFFFFFFFFFFFFFFFFFFFFFFFFFFFFFFFFFFFFFFFF AND DUP2 JUMP JUMPDEST PUSH1 0x0 ADDRESS SWAP1 POP PUSH1 0x0 DUP5 SWAP1 POP PUSH1 0x0 DUP5 SWAP1 POP PUSH1 0x0 PUSH1 0x40 MLOAD DUP1 PUSH1 0x20 ADD PUSH1 0x40 MSTORE DUP1 PUSH1 0x0 DUP2 MSTORE POP SWAP1 POP PUSH1 0x0 DUP6 PUSH1 0x6 PUSH1 0x14 PUSH2 0x100 EXP DUP2 SLOAD DUP2 PUSH1 0xFF MUL NOT AND SWAP1 DUP4 ISZERO ISZERO MUL OR SWAP1 SSTORE POP PUSH32 0x0 PUSH20 0xFFFFFFFFFFFFFFFFFFFFFFFFFFFFFFFFFFFFFFFF AND PUSH4 0x42B0B77C DUP7 DUP7 DUP7 DUP7 DUP7 PUSH1 0x40 MLOAD DUP7 PUSH4 0xFFFFFFFF AND PUSH1 0xE0 SHL DUP2 MSTORE PUSH1 0x4 ADD PUSH2 0x16EB SWAP6 SWAP5 SWAP4 SWAP3 SWAP2 SWAP1 PUSH2 0x1DED JUMP JUMPDEST PUSH1 0x0 PUSH1 0x40 MLOAD DUP1 DUP4 SUB DUP2 PUSH1 0x0 DUP8 DUP1 EXTCODESIZE ISZERO DUP1 ISZERO PUSH2 0x1705 JUMPI PUSH1 0x0 DUP1 REVERT JUMPDEST POP GAS CALL ISZERO DUP1 ISZERO PUSH2 0x1719 JUMPI RETURNDATASIZE PUSH1 0x0 DUP1 RETURNDATACOPY RETURNDATASIZE PUSH1 0x0 REVERT JUMPDEST POP POP POP POP POP POP POP POP POP POP POP POP JUMP JUMPDEST PUSH32 0x0 DUP2 JUMP JUMPDEST PUSH1 0x2 PUSH1 0x0 SWAP1 SLOAD SWAP1 PUSH2 0x100 EXP SWAP1 DIV PUSH20 0xFFFFFFFFFFFFFFFFFFFFFFFFFFFFFFFFFFFFFFFF AND DUP2 JUMP JUMPDEST PUSH1 0x3 PUSH1 0x0 SWAP1 SLOAD SWAP1 PUSH2 0x100 EXP SWAP1 DIV PUSH20 0xFFFFFFFFFFFFFFFFFFFFFFFFFFFFFFFFFFFFFFFF AND DUP2 JUMP JUMPDEST PUSH1 0x5 PUSH1 0x0 SWAP1 SLOAD SWAP1 PUSH2 0x100 EXP SWAP1 DIV PUSH20 0xFFFFFFFFFFFFFFFFFFFFFFFFFFFFFFFFFFFFFFFF AND DUP2 JUMP JUMPDEST PUSH1 0x0 DUP2 PUSH20 0xFFFFFFFFFFFFFFFFFFFFFFFFFFFFFFFFFFFFFFFF AND PUSH4 0x70A08231 ADDRESS PUSH1 0x40 MLOAD DUP3 PUSH4 0xFFFFFFFF AND PUSH1 0xE0 SHL DUP2 MSTORE PUSH1 0x4 ADD PUSH2 0x17F8 SWAP2 SWAP1 PUSH2 0x1937 JUMP JUMPDEST PUSH1 0x20 PUSH1 0x40 MLOAD DUP1 DUP4 SUB DUP2 DUP7 GAS STATICCALL ISZERO DUP1 ISZERO PUSH2 0x1815 JUMPI RETURNDATASIZE PUSH1 0x0 DUP1 RETURNDATACOPY RETURNDATASIZE PUSH1 0x0 REVERT JUMPDEST POP POP POP POP PUSH1 0x40 MLOAD RETURNDATASIZE PUSH1 0x1F NOT PUSH1 0x1F DUP3 ADD AND DUP3 ADD DUP1 PUSH1 0x40 MSTORE POP DUP2 ADD SWAP1 PUSH2 0x1839 SWAP2 SWAP1 PUSH2 0x1C85 JUMP JUMPDEST SWAP1 POP SWAP2 SWAP1 POP JUMP JUMPDEST PUSH1 0x0 PUSH20 0xFFFFFFFFFFFFFFFFFFFFFFFFFFFFFFFFFFFFFFFF DUP3 AND SWAP1 POP SWAP2 SWAP1 POP JUMP JUMPDEST PUSH1 0x0 DUP2 SWAP1 POP SWAP2 SWAP1 POP JUMP JUMPDEST PUSH1 0x0 PUSH2 0x1885 PUSH2 0x1880 PUSH2 0x187B DUP5 PUSH2 0x1840 JUMP JUMPDEST PUSH2 0x1860 JUMP JUMPDEST PUSH2 0x1840 JUMP JUMPDEST SWAP1 POP SWAP2 SWAP1 POP JUMP JUMPDEST PUSH1 0x0 PUSH2 0x1897 DUP3 PUSH2 0x186A JUMP JUMPDEST SWAP1 POP SWAP2 SWAP1 POP JUMP JUMPDEST PUSH1 0x0 PUSH2 0x18A9 DUP3 PUSH2 0x188C JUMP JUMPDEST SWAP1 POP SWAP2 SWAP1 POP JUMP JUMPDEST PUSH2 0x18B9 DUP2 PUSH2 0x189E JUMP JUMPDEST DUP3 MSTORE POP POP JUMP JUMPDEST PUSH1 0x0 PUSH1 0x20 DUP3 ADD SWAP1 POP PUSH2 0x18D4 PUSH1 0x0 DUP4 ADD DUP5 PUSH2 0x18B0 JUMP JUMPDEST SWAP3 SWAP2 POP POP JUMP JUMPDEST PUSH1 0x0 PUSH2 0x18E5 DUP3 PUSH2 0x188C JUMP JUMPDEST SWAP1 POP SWAP2 SWAP1 POP JUMP JUMPDEST PUSH2 0x18F5 DUP2 PUSH2 0x18DA JUMP JUMPDEST DUP3 MSTORE POP POP JUMP JUMPDEST PUSH1 0x0 PUSH1 0x20 DUP3 ADD SWAP1 POP PUSH2 0x1910 PUSH1 0x0 DUP4 ADD DUP5 PUSH2 0x18EC JUMP JUMPDEST SWAP3 SWAP2 POP POP JUMP JUMPDEST PUSH1 0x0 PUSH2 0x1921 DUP3 PUSH2 0x1840 JUMP JUMPDEST SWAP1 POP SWAP2 SWAP1 POP JUMP JUMPDEST PUSH2 0x1931 DUP2 PUSH2 0x1916 JUMP JUMPDEST DUP3 MSTORE POP POP JUMP JUMPDEST PUSH1 0x0 PUSH1 0x20 DUP3 ADD SWAP1 POP PUSH2 0x194C PUSH1 0x0 DUP4 ADD DUP5 PUSH2 0x1928 JUMP JUMPDEST SWAP3 SWAP2 POP POP JUMP JUMPDEST PUSH1 0x0 DUP1 REVERT JUMPDEST PUSH1 0x0 DUP1 REVERT JUMPDEST PUSH2 0x1965 DUP2 PUSH2 0x1916 JUMP JUMPDEST DUP2 EQ PUSH2 0x1970 JUMPI PUSH1 0x0 DUP1 REVERT JUMPDEST POP JUMP JUMPDEST PUSH1 0x0 DUP2 CALLDATALOAD SWAP1 POP PUSH2 0x1982 DUP2 PUSH2 0x195C JUMP JUMPDEST SWAP3 SWAP2 POP POP JUMP JUMPDEST PUSH1 0x0 DUP2 SWAP1 POP SWAP2 SWAP1 POP JUMP JUMPDEST PUSH2 0x199B DUP2 PUSH2 0x1988 JUMP JUMPDEST DUP2 EQ PUSH2 0x19A6 JUMPI PUSH1 0x0 DUP1 REVERT JUMPDEST POP JUMP JUMPDEST PUSH1 0x0 DUP2 CALLDATALOAD SWAP1 POP PUSH2 0x19B8 DUP2 PUSH2 0x1992 JUMP JUMPDEST SWAP3 SWAP2 POP POP JUMP JUMPDEST PUSH1 0x0 DUP1 REVERT JUMPDEST PUSH1 0x0 DUP1 REVERT JUMPDEST PUSH1 0x0 DUP1 REVERT JUMPDEST PUSH1 0x0 DUP1 DUP4 PUSH1 0x1F DUP5 ADD SLT PUSH2 0x19E3 JUMPI PUSH2 0x19E2 PUSH2 0x19BE JUMP JUMPDEST JUMPDEST DUP3 CALLDATALOAD SWAP1 POP PUSH8 0xFFFFFFFFFFFFFFFF DUP2 GT ISZERO PUSH2 0x1A00 JUMPI PUSH2 0x19FF PUSH2 0x19C3 JUMP JUMPDEST JUMPDEST PUSH1 0x20 DUP4 ADD SWAP2 POP DUP4 PUSH1 0x1 DUP3 MUL DUP4 ADD GT ISZERO PUSH2 0x1A1C JUMPI PUSH2 0x1A1B PUSH2 0x19C8 JUMP JUMPDEST JUMPDEST SWAP3 POP SWAP3 SWAP1 POP JUMP JUMPDEST PUSH1 0x0 DUP1 PUSH1 0x0 DUP1 PUSH1 0x0 DUP1 PUSH1 0xA0 DUP8 DUP10 SUB SLT ISZERO PUSH2 0x1A40 JUMPI PUSH2 0x1A3F PUSH2 0x1952 JUMP JUMPDEST JUMPDEST PUSH1 0x0 PUSH2 0x1A4E DUP10 DUP3 DUP11 ADD PUSH2 0x1973 JUMP JUMPDEST SWAP7 POP POP PUSH1 0x20 PUSH2 0x1A5F DUP10 DUP3 DUP11 ADD PUSH2 0x19A9 JUMP JUMPDEST SWAP6 POP POP PUSH1 0x40 PUSH2 0x1A70 DUP10 DUP3 DUP11 ADD PUSH2 0x19A9 JUMP JUMPDEST SWAP5 POP POP PUSH1 0x60 PUSH2 0x1A81 DUP10 DUP3 DUP11 ADD PUSH2 0x1973 JUMP JUMPDEST SWAP4 POP POP PUSH1 0x80 DUP8 ADD CALLDATALOAD PUSH8 0xFFFFFFFFFFFFFFFF DUP2 GT ISZERO PUSH2 0x1AA2 JUMPI PUSH2 0x1AA1 PUSH2 0x1957 JUMP JUMPDEST JUMPDEST PUSH2 0x1AAE DUP10 DUP3 DUP11 ADD PUSH2 0x19CD JUMP JUMPDEST SWAP3 POP SWAP3 POP POP SWAP3 SWAP6 POP SWAP3 SWAP6 POP SWAP3 SWAP6 JUMP JUMPDEST PUSH1 0x0 DUP2 ISZERO ISZERO SWAP1 POP SWAP2 SWAP1 POP JUMP JUMPDEST PUSH2 0x1AD2 DUP2 PUSH2 0x1ABD JUMP JUMPDEST DUP3 MSTORE POP POP JUMP JUMPDEST PUSH1 0x0 PUSH1 0x20 DUP3 ADD SWAP1 POP PUSH2 0x1AED PUSH1 0x0 DUP4 ADD DUP5 PUSH2 0x1AC9 JUMP JUMPDEST SWAP3 SWAP2 POP POP JUMP JUMPDEST PUSH2 0x1AFC DUP2 PUSH2 0x1ABD JUMP JUMPDEST DUP2 EQ PUSH2 0x1B07 JUMPI PUSH1 0x0 DUP1 REVERT JUMPDEST POP JUMP JUMPDEST PUSH1 0x0 DUP2 CALLDATALOAD SWAP1 POP PUSH2 0x1B19 DUP2 PUSH2 0x1AF3 JUMP JUMPDEST SWAP3 SWAP2 POP POP JUMP JUMPDEST PUSH1 0x0 DUP1 PUSH1 0x0 PUSH1 0x60 DUP5 DUP7 SUB SLT ISZERO PUSH2 0x1B38 JUMPI PUSH2 0x1B37 PUSH2 0x1952 JUMP JUMPDEST JUMPDEST PUSH1 0x0 PUSH2 0x1B46 DUP7 DUP3 DUP8 ADD PUSH2 0x1973 JUMP JUMPDEST SWAP4 POP POP PUSH1 0x20 PUSH2 0x1B57 DUP7 DUP3 DUP8 ADD PUSH2 0x19A9 JUMP JUMPDEST SWAP3 POP POP PUSH1 0x40 PUSH2 0x1B68 DUP7 DUP3 DUP8 ADD PUSH2 0x1B0A JUMP JUMPDEST SWAP2 POP POP SWAP3 POP SWAP3 POP SWAP3 JUMP JUMPDEST PUSH1 0x0 PUSH2 0x1B7D DUP3 PUSH2 0x188C JUMP JUMPDEST SWAP1 POP SWAP2 SWAP1 POP JUMP JUMPDEST PUSH2 0x1B8D DUP2 PUSH2 0x1B72 JUMP JUMPDEST DUP3 MSTORE POP POP JUMP JUMPDEST PUSH1 0x0 PUSH1 0x20 DUP3 ADD SWAP1 POP PUSH2 0x1BA8 PUSH1 0x0 DUP4 ADD DUP5 PUSH2 0x1B84 JUMP JUMPDEST SWAP3 SWAP2 POP POP JUMP JUMPDEST PUSH1 0x0 PUSH1 0x20 DUP3 DUP5 SUB SLT ISZERO PUSH2 0x1BC4 JUMPI PUSH2 0x1BC3 PUSH2 0x1952 JUMP JUMPDEST JUMPDEST PUSH1 0x0 PUSH2 0x1BD2 DUP5 DUP3 DUP6 ADD PUSH2 0x1973 JUMP JUMPDEST SWAP2 POP POP SWAP3 SWAP2 POP POP JUMP JUMPDEST PUSH2 0x1BE4 DUP2 PUSH2 0x1988 JUMP JUMPDEST DUP3 MSTORE POP POP JUMP JUMPDEST PUSH1 0x0 PUSH1 0x20 DUP3 ADD SWAP1 POP PUSH2 0x1BFF PUSH1 0x0 DUP4 ADD DUP5 PUSH2 0x1BDB JUMP JUMPDEST SWAP3 SWAP2 POP POP JUMP JUMPDEST PUSH1 0x0 PUSH1 0x40 DUP3 ADD SWAP1 POP PUSH2 0x1C1A PUSH1 0x0 DUP4 ADD DUP6 PUSH2 0x1928 JUMP JUMPDEST PUSH2 0x1C27 PUSH1 0x20 DUP4 ADD DUP5 PUSH2 0x1BDB JUMP JUMPDEST SWAP4 SWAP3 POP POP POP JUMP JUMPDEST PUSH1 0x0 DUP2 MLOAD SWAP1 POP PUSH2 0x1C3D DUP2 PUSH2 0x1AF3 JUMP JUMPDEST SWAP3 SWAP2 POP POP JUMP JUMPDEST PUSH1 0x0 PUSH1 0x20 DUP3 DUP5 SUB SLT ISZERO PUSH2 0x1C59 JUMPI PUSH2 0x1C58 PUSH2 0x1952 JUMP JUMPDEST JUMPDEST PUSH1 0x0 PUSH2 0x1C67 DUP5 DUP3 DUP6 ADD PUSH2 0x1C2E JUMP JUMPDEST SWAP2 POP POP SWAP3 SWAP2 POP POP JUMP JUMPDEST PUSH1 0x0 DUP2 MLOAD SWAP1 POP PUSH2 0x1C7F DUP2 PUSH2 0x1992 JUMP JUMPDEST SWAP3 SWAP2 POP POP JUMP JUMPDEST PUSH1 0x0 PUSH1 0x20 DUP3 DUP5 SUB SLT ISZERO PUSH2 0x1C9B JUMPI PUSH2 0x1C9A PUSH2 0x1952 JUMP JUMPDEST JUMPDEST PUSH1 0x0 PUSH2 0x1CA9 DUP5 DUP3 DUP6 ADD PUSH2 0x1C70 JUMP JUMPDEST SWAP2 POP POP SWAP3 SWAP2 POP POP JUMP JUMPDEST PUSH32 0x4E487B7100000000000000000000000000000000000000000000000000000000 PUSH1 0x0 MSTORE PUSH1 0x11 PUSH1 0x4 MSTORE PUSH1 0x24 PUSH1 0x0 REVERT JUMPDEST PUSH1 0x0 PUSH2 0x1CEC DUP3 PUSH2 0x1988 JUMP JUMPDEST SWAP2 POP PUSH2 0x1CF7 DUP4 PUSH2 0x1988 JUMP JUMPDEST SWAP3 POP DUP3 PUSH32 0xFFFFFFFFFFFFFFFFFFFFFFFFFFFFFFFFFFFFFFFFFFFFFFFFFFFFFFFFFFFFFFFF SUB DUP3 GT ISZERO PUSH2 0x1D2C JUMPI PUSH2 0x1D2B PUSH2 0x1CB2 JUMP JUMPDEST JUMPDEST DUP3 DUP3 ADD SWAP1 POP SWAP3 SWAP2 POP POP JUMP JUMPDEST PUSH1 0x0 DUP2 MLOAD SWAP1 POP SWAP2 SWAP1 POP JUMP JUMPDEST PUSH1 0x0 DUP3 DUP3 MSTORE PUSH1 0x20 DUP3 ADD SWAP1 POP SWAP3 SWAP2 POP POP JUMP JUMPDEST PUSH1 0x0 JUMPDEST DUP4 DUP2 LT ISZERO PUSH2 0x1D71 JUMPI DUP1 DUP3 ADD MLOAD DUP2 DUP5 ADD MSTORE PUSH1 0x20 DUP2 ADD SWAP1 POP PUSH2 0x1D56 JUMP JUMPDEST DUP4 DUP2 GT ISZERO PUSH2 0x1D80 JUMPI PUSH1 0x0 DUP5 DUP5 ADD MSTORE JUMPDEST POP POP POP POP JUMP JUMPDEST PUSH1 0x0 PUSH1 0x1F NOT PUSH1 0x1F DUP4 ADD AND SWAP1 POP SWAP2 SWAP1 POP JUMP JUMPDEST PUSH1 0x0 PUSH2 0x1DA2 DUP3 PUSH2 0x1D37 JUMP JUMPDEST PUSH2 0x1DAC DUP2 DUP6 PUSH2 0x1D42 JUMP JUMPDEST SWAP4 POP PUSH2 0x1DBC DUP2 DUP6 PUSH1 0x20 DUP7 ADD PUSH2 0x1D53 JUMP JUMPDEST PUSH2 0x1DC5 DUP2 PUSH2 0x1D86 JUMP JUMPDEST DUP5 ADD SWAP2 POP POP SWAP3 SWAP2 POP POP JUMP JUMPDEST PUSH1 0x0 PUSH2 0xFFFF DUP3 AND SWAP1 POP SWAP2 SWAP1 POP JUMP JUMPDEST PUSH2 0x1DE7 DUP2 PUSH2 0x1DD0 JUMP JUMPDEST DUP3 MSTORE POP POP JUMP JUMPDEST PUSH1 0x0 PUSH1 0xA0 DUP3 ADD SWAP1 POP PUSH2 0x1E02 PUSH1 0x0 DUP4 ADD DUP9 PUSH2 0x1928 JUMP JUMPDEST PUSH2 0x1E0F PUSH1 0x20 DUP4 ADD DUP8 PUSH2 0x1928 JUMP JUMPDEST PUSH2 0x1E1C PUSH1 0x40 DUP4 ADD DUP7 PUSH2 0x1BDB JUMP JUMPDEST DUP2 DUP2 SUB PUSH1 0x60 DUP4 ADD MSTORE PUSH2 0x1E2E DUP2 DUP6 PUSH2 0x1D97 JUMP JUMPDEST SWAP1 POP PUSH2 0x1E3D PUSH1 0x80 DUP4 ADD DUP5 PUSH2 0x1DDE JUMP JUMPDEST SWAP7 SWAP6 POP POP POP POP POP POP JUMP INVALID LOG2 PUSH5 0x6970667358 0x22 SLT KECCAK256 SIGNEXTEND PUSH12 0x528D10800F03D02F2B9EE956 SSTORE INVALID 0x2D SWAP4 0xB3 PUSH29 0x103F4723103DC322EB27184E64736F6C634300080A0033000000000000 "
				},
				"gasEstimates": {
					"creation": {
						"codeDepositCost": "1561000",
						"executionCost": "infinite",
						"totalCost": "infinite"
					},
					"external": {
						"ADDRESSES_PROVIDER()": "infinite",
						"POOL()": "infinite",
						"cpamm1()": "infinite",
						"cpamm1Address()": "2559",
						"cpamm2()": "infinite",
						"cpamm2Address()": "2558",
						"cpamm3()": "infinite",
						"cpamm3Address()": "2580",
						"executeOperation(address,uint256,uint256,address,bytes)": "infinite",
						"fn_RequestFlashLoan(address,uint256,bool)": "infinite",
						"getBalance(address)": "infinite"
					}
				},
				"methodIdentifiers": {
					"ADDRESSES_PROVIDER()": "0542975c",
					"POOL()": "7535d246",
					"cpamm1()": "01d1c784",
					"cpamm1Address()": "18f52e5a",
					"cpamm2()": "bb2c101c",
					"cpamm2Address()": "9d357486",
					"cpamm3()": "49f915a9",
					"cpamm3Address()": "a13aef61",
					"executeOperation(address,uint256,uint256,address,bytes)": "1b11d0ff",
					"fn_RequestFlashLoan(address,uint256,bool)": "5d170211",
					"getBalance(address)": "f8b2cb4f"
				}
			},
			"storageLayout": {
				"storage": [
					{
						"astId": 43,
						"contract": "Arbitrage.sol:SimpleFlashLoan",
						"label": "owner",
						"offset": 0,
						"slot": "0",
						"type": "t_address_payable"
					},
					{
						"astId": 46,
						"contract": "Arbitrage.sol:SimpleFlashLoan",
						"label": "cpamm1Address",
						"offset": 0,
						"slot": "1",
						"type": "t_address"
					},
					{
						"astId": 49,
						"contract": "Arbitrage.sol:SimpleFlashLoan",
						"label": "cpamm2Address",
						"offset": 0,
						"slot": "2",
						"type": "t_address"
					},
					{
						"astId": 52,
						"contract": "Arbitrage.sol:SimpleFlashLoan",
						"label": "cpamm3Address",
						"offset": 0,
						"slot": "3",
						"type": "t_address"
					},
					{
						"astId": 58,
						"contract": "Arbitrage.sol:SimpleFlashLoan",
						"label": "cpamm1",
						"offset": 0,
						"slot": "4",
						"type": "t_contract(ICPAMM)39"
					},
					{
						"astId": 64,
						"contract": "Arbitrage.sol:SimpleFlashLoan",
						"label": "cpamm2",
						"offset": 0,
						"slot": "5",
						"type": "t_contract(ICPAMM)39"
					},
					{
						"astId": 70,
						"contract": "Arbitrage.sol:SimpleFlashLoan",
						"label": "cpamm3",
						"offset": 0,
						"slot": "6",
						"type": "t_contract(ICPAMM)39"
					},
					{
						"astId": 73,
						"contract": "Arbitrage.sol:SimpleFlashLoan",
						"label": "path",
						"offset": 20,
						"slot": "6",
						"type": "t_bool"
					}
				],
				"types": {
					"t_address": {
						"encoding": "inplace",
						"label": "address",
						"numberOfBytes": "20"
					},
					"t_address_payable": {
						"encoding": "inplace",
						"label": "address payable",
						"numberOfBytes": "20"
					},
					"t_bool": {
						"encoding": "inplace",
						"label": "bool",
						"numberOfBytes": "1"
					},
					"t_contract(ICPAMM)39": {
						"encoding": "inplace",
						"label": "contract ICPAMM",
						"numberOfBytes": "20"
					}
				}
			},
			"userdoc": {
				"kind": "user",
				"methods": {
					"executeOperation(address,uint256,uint256,address,bytes)": {
						"notice": "Executes an operation after receiving the flash-borrowed asset"
					}
				},
				"version": 1
			}
		}
	}
}