{
	"AtomicTripReservation.sol": {
		"AtomicTripReservation": {
			"abi": [
				{
					"inputs": [
						{
							"internalType": "address",
							"name": "HotelReservationAddress",
							"type": "address"
						},
						{
							"internalType": "address",
							"name": "FlightReservationAddress",
							"type": "address"
						},
						{
							"internalType": "uint256",
							"name": "HotelPrice",
							"type": "uint256"
						},
						{
							"internalType": "uint256",
							"name": "FlightPrice",
							"type": "uint256"
						}
					],
					"name": "bookTrip",
					"outputs": [],
					"stateMutability": "payable",
					"type": "function"
				}
			],
			"devdoc": {
				"kind": "dev",
				"methods": {},
				"version": 1
			},
			"evm": {
				"assembly": "    /* \"AtomicTripReservation.sol\":275:960  contract AtomicTripReservation{... */\n  mstore(0x40, 0x80)\n  callvalue\n  dup1\n  iszero\n  tag_1\n  jumpi\n  0x00\n  dup1\n  revert\ntag_1:\n  pop\n  dataSize(sub_0)\n  dup1\n  dataOffset(sub_0)\n  0x00\n  codecopy\n  0x00\n  return\nstop\n\nsub_0: assembly {\n        /* \"AtomicTripReservation.sol\":275:960  contract AtomicTripReservation{... */\n      mstore(0x40, 0x80)\n      jumpi(tag_1, lt(calldatasize, 0x04))\n      shr(0xe0, calldataload(0x00))\n      dup1\n      0x53c960ce\n      eq\n      tag_2\n      jumpi\n    tag_1:\n      0x00\n      dup1\n      revert\n        /* \"AtomicTripReservation.sol\":316:957  function bookTrip(address HotelReservationAddress, address FlightReservationAddress, uint256 HotelPrice, uint256 FlightPrice) payable external{... */\n    tag_2:\n      tag_3\n      0x04\n      dup1\n      calldatasize\n      sub\n      dup2\n      add\n      swap1\n      tag_4\n      swap2\n      swap1\n      tag_5\n      jump\t// in\n    tag_4:\n      tag_6\n      jump\t// in\n    tag_3:\n      stop\n    tag_6:\n        /* \"AtomicTripReservation.sol\":468:502  IHotelReservation HotelReservation */\n      0x00\n        /* \"AtomicTripReservation.sol\":523:546  HotelReservationAddress */\n      dup5\n        /* \"AtomicTripReservation.sol\":468:547  IHotelReservation HotelReservation = IHotelReservation(HotelReservationAddress) */\n      swap1\n      pop\n        /* \"AtomicTripReservation.sol\":557:593  IFlightReservation FlightReservation */\n      0x00\n        /* \"AtomicTripReservation.sol\":615:639  FlightReservationAddress */\n      dup5\n        /* \"AtomicTripReservation.sol\":557:640  IFlightReservation FlightReservation = IFlightReservation(FlightReservationAddress) */\n      swap1\n      pop\n        /* \"AtomicTripReservation.sol\":650:666  HotelReservation */\n      dup2\n        /* \"AtomicTripReservation.sol\":650:675  HotelReservation.bookRoom */\n      0xffffffffffffffffffffffffffffffffffffffff\n      and\n      0xb55a3910\n        /* \"AtomicTripReservation.sol\":682:692  HotelPrice */\n      dup6\n        /* \"AtomicTripReservation.sol\":650:695  HotelReservation.bookRoom{value:HotelPrice}() */\n      mload(0x40)\n      dup3\n      0xffffffff\n      and\n      0xe0\n      shl\n      dup2\n      mstore\n      0x04\n      add\n      0x00\n      mload(0x40)\n      dup1\n      dup4\n      sub\n      dup2\n      dup6\n      dup9\n      dup1\n      extcodesize\n      iszero\n      dup1\n      iszero\n      tag_8\n      jumpi\n      0x00\n      dup1\n      revert\n    tag_8:\n      pop\n      gas\n      call\n      iszero\n      dup1\n      iszero\n      tag_10\n      jumpi\n      returndatasize\n      0x00\n      dup1\n      returndatacopy\n      revert(0x00, returndatasize)\n    tag_10:\n      pop\n      pop\n      pop\n      pop\n      pop\n        /* \"AtomicTripReservation.sol\":705:722  FlightReservation */\n      dup1\n        /* \"AtomicTripReservation.sol\":705:733  FlightReservation.bookFlight */\n      0xffffffffffffffffffffffffffffffffffffffff\n      and\n      0x95c92c8f\n        /* \"AtomicTripReservation.sol\":740:751  FlightPrice */\n      dup5\n        /* \"AtomicTripReservation.sol\":705:754  FlightReservation.bookFlight{value:FlightPrice}() */\n      mload(0x40)\n      dup3\n      0xffffffff\n      and\n      0xe0\n      shl\n      dup2\n      mstore\n      0x04\n      add\n      0x00\n      mload(0x40)\n      dup1\n      dup4\n      sub\n      dup2\n      dup6\n      dup9\n      dup1\n      extcodesize\n      iszero\n      dup1\n      iszero\n      tag_11\n      jumpi\n      0x00\n      dup1\n      revert\n    tag_11:\n      pop\n      gas\n      call\n      iszero\n      dup1\n      iszero\n      tag_13\n      jumpi\n      returndatasize\n      0x00\n      dup1\n      returndatacopy\n      revert(0x00, returndatasize)\n    tag_13:\n      pop\n      pop\n      pop\n      pop\n      pop\n        /* \"AtomicTripReservation.sol\":764:775  uint refund */\n      0x00\n        /* \"AtomicTripReservation.sol\":803:814  FlightPrice */\n      dup4\n        /* \"AtomicTripReservation.sol\":790:800  HotelPrice */\n      dup6\n        /* \"AtomicTripReservation.sol\":778:787  msg.value */\n      callvalue\n        /* \"AtomicTripReservation.sol\":778:800  msg.value - HotelPrice */\n      tag_14\n      swap2\n      swap1\n      tag_15\n      jump\t// in\n    tag_14:\n        /* \"AtomicTripReservation.sol\":778:814  msg.value - HotelPrice - FlightPrice */\n      tag_16\n      swap2\n      swap1\n      tag_15\n      jump\t// in\n    tag_16:\n        /* \"AtomicTripReservation.sol\":764:814  uint refund = msg.value - HotelPrice - FlightPrice */\n      swap1\n      pop\n        /* \"AtomicTripReservation.sol\":824:853  address payable refundAddress */\n      0x00\n        /* \"AtomicTripReservation.sol\":864:873  tx.origin */\n      origin\n        /* \"AtomicTripReservation.sol\":824:874  address payable refundAddress = payable(tx.origin) */\n      swap1\n      pop\n        /* \"AtomicTripReservation.sol\":894:895  0 */\n      0x00\n        /* \"AtomicTripReservation.sol\":887:893  refund */\n      dup3\n        /* \"AtomicTripReservation.sol\":887:895  refund>0 */\n      gt\n        /* \"AtomicTripReservation.sol\":884:951  if(refund>0){... */\n      iszero\n      tag_17\n      jumpi\n        /* \"AtomicTripReservation.sol\":910:923  refundAddress */\n      dup1\n        /* \"AtomicTripReservation.sol\":910:932  refundAddress.transfer */\n      0xffffffffffffffffffffffffffffffffffffffff\n      and\n        /* \"AtomicTripReservation.sol\":910:940  refundAddress.transfer(refund) */\n      0x08fc\n        /* \"AtomicTripReservation.sol\":933:939  refund */\n      dup4\n        /* \"AtomicTripReservation.sol\":910:940  refundAddress.transfer(refund) */\n      swap1\n      dup2\n      iszero\n      mul\n      swap1\n      mload(0x40)\n      0x00\n      mload(0x40)\n      dup1\n      dup4\n      sub\n      dup2\n      dup6\n      dup9\n      dup9\n      call\n      swap4\n      pop\n      pop\n      pop\n      pop\n      iszero\n      dup1\n      iszero\n      tag_19\n      jumpi\n      returndatasize\n      0x00\n      dup1\n      returndatacopy\n      revert(0x00, returndatasize)\n    tag_19:\n      pop\n        /* \"AtomicTripReservation.sol\":884:951  if(refund>0){... */\n    tag_17:\n        /* \"AtomicTripReservation.sol\":458:957  {... */\n      pop\n      pop\n      pop\n      pop\n        /* \"AtomicTripReservation.sol\":316:957  function bookTrip(address HotelReservationAddress, address FlightReservationAddress, uint256 HotelPrice, uint256 FlightPrice) payable external{... */\n      pop\n      pop\n      pop\n      pop\n      jump\t// out\n        /* \"#utility.yul\":88:205   */\n    tag_21:\n        /* \"#utility.yul\":197:198   */\n      0x00\n        /* \"#utility.yul\":194:195   */\n      dup1\n        /* \"#utility.yul\":187:199   */\n      revert\n        /* \"#utility.yul\":334:460   */\n    tag_23:\n        /* \"#utility.yul\":371:378   */\n      0x00\n        /* \"#utility.yul\":411:453   */\n      0xffffffffffffffffffffffffffffffffffffffff\n        /* \"#utility.yul\":404:409   */\n      dup3\n        /* \"#utility.yul\":400:454   */\n      and\n        /* \"#utility.yul\":389:454   */\n      swap1\n      pop\n        /* \"#utility.yul\":334:460   */\n      swap2\n      swap1\n      pop\n      jump\t// out\n        /* \"#utility.yul\":466:562   */\n    tag_24:\n        /* \"#utility.yul\":503:510   */\n      0x00\n        /* \"#utility.yul\":532:556   */\n      tag_37\n        /* \"#utility.yul\":550:555   */\n      dup3\n        /* \"#utility.yul\":532:556   */\n      tag_23\n      jump\t// in\n    tag_37:\n        /* \"#utility.yul\":521:556   */\n      swap1\n      pop\n        /* \"#utility.yul\":466:562   */\n      swap2\n      swap1\n      pop\n      jump\t// out\n        /* \"#utility.yul\":568:690   */\n    tag_25:\n        /* \"#utility.yul\":641:665   */\n      tag_39\n        /* \"#utility.yul\":659:664   */\n      dup2\n        /* \"#utility.yul\":641:665   */\n      tag_24\n      jump\t// in\n    tag_39:\n        /* \"#utility.yul\":634:639   */\n      dup2\n        /* \"#utility.yul\":631:666   */\n      eq\n        /* \"#utility.yul\":621:684   */\n      tag_40\n      jumpi\n        /* \"#utility.yul\":680:681   */\n      0x00\n        /* \"#utility.yul\":677:678   */\n      dup1\n        /* \"#utility.yul\":670:682   */\n      revert\n        /* \"#utility.yul\":621:684   */\n    tag_40:\n        /* \"#utility.yul\":568:690   */\n      pop\n      jump\t// out\n        /* \"#utility.yul\":696:835   */\n    tag_26:\n        /* \"#utility.yul\":742:747   */\n      0x00\n        /* \"#utility.yul\":780:786   */\n      dup2\n        /* \"#utility.yul\":767:787   */\n      calldataload\n        /* \"#utility.yul\":758:787   */\n      swap1\n      pop\n        /* \"#utility.yul\":796:829   */\n      tag_42\n        /* \"#utility.yul\":823:828   */\n      dup2\n        /* \"#utility.yul\":796:829   */\n      tag_25\n      jump\t// in\n    tag_42:\n        /* \"#utility.yul\":696:835   */\n      swap3\n      swap2\n      pop\n      pop\n      jump\t// out\n        /* \"#utility.yul\":841:918   */\n    tag_27:\n        /* \"#utility.yul\":878:885   */\n      0x00\n        /* \"#utility.yul\":907:912   */\n      dup2\n        /* \"#utility.yul\":896:912   */\n      swap1\n      pop\n        /* \"#utility.yul\":841:918   */\n      swap2\n      swap1\n      pop\n      jump\t// out\n        /* \"#utility.yul\":924:1046   */\n    tag_28:\n        /* \"#utility.yul\":997:1021   */\n      tag_45\n        /* \"#utility.yul\":1015:1020   */\n      dup2\n        /* \"#utility.yul\":997:1021   */\n      tag_27\n      jump\t// in\n    tag_45:\n        /* \"#utility.yul\":990:995   */\n      dup2\n        /* \"#utility.yul\":987:1022   */\n      eq\n        /* \"#utility.yul\":977:1040   */\n      tag_46\n      jumpi\n        /* \"#utility.yul\":1036:1037   */\n      0x00\n        /* \"#utility.yul\":1033:1034   */\n      dup1\n        /* \"#utility.yul\":1026:1038   */\n      revert\n        /* \"#utility.yul\":977:1040   */\n    tag_46:\n        /* \"#utility.yul\":924:1046   */\n      pop\n      jump\t// out\n        /* \"#utility.yul\":1052:1191   */\n    tag_29:\n        /* \"#utility.yul\":1098:1103   */\n      0x00\n        /* \"#utility.yul\":1136:1142   */\n      dup2\n        /* \"#utility.yul\":1123:1143   */\n      calldataload\n        /* \"#utility.yul\":1114:1143   */\n      swap1\n      pop\n        /* \"#utility.yul\":1152:1185   */\n      tag_48\n        /* \"#utility.yul\":1179:1184   */\n      dup2\n        /* \"#utility.yul\":1152:1185   */\n      tag_28\n      jump\t// in\n    tag_48:\n        /* \"#utility.yul\":1052:1191   */\n      swap3\n      swap2\n      pop\n      pop\n      jump\t// out\n        /* \"#utility.yul\":1197:1962   */\n    tag_5:\n        /* \"#utility.yul\":1283:1289   */\n      0x00\n        /* \"#utility.yul\":1291:1297   */\n      dup1\n        /* \"#utility.yul\":1299:1305   */\n      0x00\n        /* \"#utility.yul\":1307:1313   */\n      dup1\n        /* \"#utility.yul\":1356:1359   */\n      0x80\n        /* \"#utility.yul\":1344:1353   */\n      dup6\n        /* \"#utility.yul\":1335:1342   */\n      dup8\n        /* \"#utility.yul\":1331:1354   */\n      sub\n        /* \"#utility.yul\":1327:1360   */\n      slt\n        /* \"#utility.yul\":1324:1444   */\n      iszero\n      tag_50\n      jumpi\n        /* \"#utility.yul\":1363:1442   */\n      tag_51\n      tag_21\n      jump\t// in\n    tag_51:\n        /* \"#utility.yul\":1324:1444   */\n    tag_50:\n        /* \"#utility.yul\":1483:1484   */\n      0x00\n        /* \"#utility.yul\":1508:1561   */\n      tag_52\n        /* \"#utility.yul\":1553:1560   */\n      dup8\n        /* \"#utility.yul\":1544:1550   */\n      dup3\n        /* \"#utility.yul\":1533:1542   */\n      dup9\n        /* \"#utility.yul\":1529:1551   */\n      add\n        /* \"#utility.yul\":1508:1561   */\n      tag_26\n      jump\t// in\n    tag_52:\n        /* \"#utility.yul\":1498:1561   */\n      swap5\n      pop\n        /* \"#utility.yul\":1454:1571   */\n      pop\n        /* \"#utility.yul\":1610:1612   */\n      0x20\n        /* \"#utility.yul\":1636:1689   */\n      tag_53\n        /* \"#utility.yul\":1681:1688   */\n      dup8\n        /* \"#utility.yul\":1672:1678   */\n      dup3\n        /* \"#utility.yul\":1661:1670   */\n      dup9\n        /* \"#utility.yul\":1657:1679   */\n      add\n        /* \"#utility.yul\":1636:1689   */\n      tag_26\n      jump\t// in\n    tag_53:\n        /* \"#utility.yul\":1626:1689   */\n      swap4\n      pop\n        /* \"#utility.yul\":1581:1699   */\n      pop\n        /* \"#utility.yul\":1738:1740   */\n      0x40\n        /* \"#utility.yul\":1764:1817   */\n      tag_54\n        /* \"#utility.yul\":1809:1816   */\n      dup8\n        /* \"#utility.yul\":1800:1806   */\n      dup3\n        /* \"#utility.yul\":1789:1798   */\n      dup9\n        /* \"#utility.yul\":1785:1807   */\n      add\n        /* \"#utility.yul\":1764:1817   */\n      tag_29\n      jump\t// in\n    tag_54:\n        /* \"#utility.yul\":1754:1817   */\n      swap3\n      pop\n        /* \"#utility.yul\":1709:1827   */\n      pop\n        /* \"#utility.yul\":1866:1868   */\n      0x60\n        /* \"#utility.yul\":1892:1945   */\n      tag_55\n        /* \"#utility.yul\":1937:1944   */\n      dup8\n        /* \"#utility.yul\":1928:1934   */\n      dup3\n        /* \"#utility.yul\":1917:1926   */\n      dup9\n        /* \"#utility.yul\":1913:1935   */\n      add\n        /* \"#utility.yul\":1892:1945   */\n      tag_29\n      jump\t// in\n    tag_55:\n        /* \"#utility.yul\":1882:1945   */\n      swap2\n      pop\n        /* \"#utility.yul\":1837:1955   */\n      pop\n        /* \"#utility.yul\":1197:1962   */\n      swap3\n      swap6\n      swap2\n      swap5\n      pop\n      swap3\n      pop\n      jump\t// out\n        /* \"#utility.yul\":1968:2148   */\n    tag_30:\n        /* \"#utility.yul\":2016:2093   */\n      0x4e487b7100000000000000000000000000000000000000000000000000000000\n        /* \"#utility.yul\":2013:2014   */\n      0x00\n        /* \"#utility.yul\":2006:2094   */\n      mstore\n        /* \"#utility.yul\":2113:2117   */\n      0x11\n        /* \"#utility.yul\":2110:2111   */\n      0x04\n        /* \"#utility.yul\":2103:2118   */\n      mstore\n        /* \"#utility.yul\":2137:2141   */\n      0x24\n        /* \"#utility.yul\":2134:2135   */\n      0x00\n        /* \"#utility.yul\":2127:2142   */\n      revert\n        /* \"#utility.yul\":2154:2345   */\n    tag_15:\n        /* \"#utility.yul\":2194:2198   */\n      0x00\n        /* \"#utility.yul\":2214:2234   */\n      tag_58\n        /* \"#utility.yul\":2232:2233   */\n      dup3\n        /* \"#utility.yul\":2214:2234   */\n      tag_27\n      jump\t// in\n    tag_58:\n        /* \"#utility.yul\":2209:2234   */\n      swap2\n      pop\n        /* \"#utility.yul\":2248:2268   */\n      tag_59\n        /* \"#utility.yul\":2266:2267   */\n      dup4\n        /* \"#utility.yul\":2248:2268   */\n      tag_27\n      jump\t// in\n    tag_59:\n        /* \"#utility.yul\":2243:2268   */\n      swap3\n      pop\n        /* \"#utility.yul\":2287:2288   */\n      dup3\n        /* \"#utility.yul\":2284:2285   */\n      dup3\n        /* \"#utility.yul\":2281:2289   */\n      lt\n        /* \"#utility.yul\":2278:2312   */\n      iszero\n      tag_60\n      jumpi\n        /* \"#utility.yul\":2292:2310   */\n      tag_61\n      tag_30\n      jump\t// in\n    tag_61:\n        /* \"#utility.yul\":2278:2312   */\n    tag_60:\n        /* \"#utility.yul\":2337:2338   */\n      dup3\n        /* \"#utility.yul\":2334:2335   */\n      dup3\n        /* \"#utility.yul\":2330:2339   */\n      sub\n        /* \"#utility.yul\":2322:2339   */\n      swap1\n      pop\n        /* \"#utility.yul\":2154:2345   */\n      swap3\n      swap2\n      pop\n      pop\n      jump\t// out\n\n    auxdata: 0xa26469706673582212203e52d23727fd7f371a54fd560d5e4c6d29613ba1cacc46b526ead70bcc3d279d64736f6c634300080a0033\n}\n",
				"bytecode": {
					"linkReferences": {},
					"object": "608060405234801561001057600080fd5b5061031f806100206000396000f3fe60806040526004361061001e5760003560e01c806353c960ce14610023575b600080fd5b61003d6004803603810190610038919061021f565b61003f565b005b600084905060008490508173ffffffffffffffffffffffffffffffffffffffff1663b55a3910856040518263ffffffff1660e01b81526004016000604051808303818588803b15801561009157600080fd5b505af11580156100a5573d6000803e3d6000fd5b50505050508073ffffffffffffffffffffffffffffffffffffffff166395c92c8f846040518263ffffffff1660e01b81526004016000604051808303818588803b1580156100f257600080fd5b505af1158015610106573d6000803e3d6000fd5b5050505050600083853461011a91906102b5565b61012491906102b5565b90506000329050600082111561017c578073ffffffffffffffffffffffffffffffffffffffff166108fc839081150290604051600060405180830381858888f1935050505015801561017a573d6000803e3d6000fd5b505b5050505050505050565b600080fd5b600073ffffffffffffffffffffffffffffffffffffffff82169050919050565b60006101b68261018b565b9050919050565b6101c6816101ab565b81146101d157600080fd5b50565b6000813590506101e3816101bd565b92915050565b6000819050919050565b6101fc816101e9565b811461020757600080fd5b50565b600081359050610219816101f3565b92915050565b6000806000806080858703121561023957610238610186565b5b6000610247878288016101d4565b9450506020610258878288016101d4565b93505060406102698782880161020a565b925050606061027a8782880161020a565b91505092959194509250565b7f4e487b7100000000000000000000000000000000000000000000000000000000600052601160045260246000fd5b60006102c0826101e9565b91506102cb836101e9565b9250828210156102de576102dd610286565b5b82820390509291505056fea26469706673582212203e52d23727fd7f371a54fd560d5e4c6d29613ba1cacc46b526ead70bcc3d279d64736f6c634300080a0033",
					"opcodes": "PUSH1 0x80 PUSH1 0x40 MSTORE CALLVALUE DUP1 ISZERO PUSH2 0x10 JUMPI PUSH1 0x0 DUP1 REVERT JUMPDEST POP PUSH2 0x31F DUP1 PUSH2 0x20 PUSH1 0x0 CODECOPY PUSH1 0x0 RETURN INVALID PUSH1 0x80 PUSH1 0x40 MSTORE PUSH1 0x4 CALLDATASIZE LT PUSH2 0x1E JUMPI PUSH1 0x0 CALLDATALOAD PUSH1 0xE0 SHR DUP1 PUSH4 0x53C960CE EQ PUSH2 0x23 JUMPI JUMPDEST PUSH1 0x0 DUP1 REVERT JUMPDEST PUSH2 0x3D PUSH1 0x4 DUP1 CALLDATASIZE SUB DUP2 ADD SWAP1 PUSH2 0x38 SWAP2 SWAP1 PUSH2 0x21F JUMP JUMPDEST PUSH2 0x3F JUMP JUMPDEST STOP JUMPDEST PUSH1 0x0 DUP5 SWAP1 POP PUSH1 0x0 DUP5 SWAP1 POP DUP2 PUSH20 0xFFFFFFFFFFFFFFFFFFFFFFFFFFFFFFFFFFFFFFFF AND PUSH4 0xB55A3910 DUP6 PUSH1 0x40 MLOAD DUP3 PUSH4 0xFFFFFFFF AND PUSH1 0xE0 SHL DUP2 MSTORE PUSH1 0x4 ADD PUSH1 0x0 PUSH1 0x40 MLOAD DUP1 DUP4 SUB DUP2 DUP6 DUP9 DUP1 EXTCODESIZE ISZERO DUP1 ISZERO PUSH2 0x91 JUMPI PUSH1 0x0 DUP1 REVERT JUMPDEST POP GAS CALL ISZERO DUP1 ISZERO PUSH2 0xA5 JUMPI RETURNDATASIZE PUSH1 0x0 DUP1 RETURNDATACOPY RETURNDATASIZE PUSH1 0x0 REVERT JUMPDEST POP POP POP POP POP DUP1 PUSH20 0xFFFFFFFFFFFFFFFFFFFFFFFFFFFFFFFFFFFFFFFF AND PUSH4 0x95C92C8F DUP5 PUSH1 0x40 MLOAD DUP3 PUSH4 0xFFFFFFFF AND PUSH1 0xE0 SHL DUP2 MSTORE PUSH1 0x4 ADD PUSH1 0x0 PUSH1 0x40 MLOAD DUP1 DUP4 SUB DUP2 DUP6 DUP9 DUP1 EXTCODESIZE ISZERO DUP1 ISZERO PUSH2 0xF2 JUMPI PUSH1 0x0 DUP1 REVERT JUMPDEST POP GAS CALL ISZERO DUP1 ISZERO PUSH2 0x106 JUMPI RETURNDATASIZE PUSH1 0x0 DUP1 RETURNDATACOPY RETURNDATASIZE PUSH1 0x0 REVERT JUMPDEST POP POP POP POP POP PUSH1 0x0 DUP4 DUP6 CALLVALUE PUSH2 0x11A SWAP2 SWAP1 PUSH2 0x2B5 JUMP JUMPDEST PUSH2 0x124 SWAP2 SWAP1 PUSH2 0x2B5 JUMP JUMPDEST SWAP1 POP PUSH1 0x0 ORIGIN SWAP1 POP PUSH1 0x0 DUP3 GT ISZERO PUSH2 0x17C JUMPI DUP1 PUSH20 0xFFFFFFFFFFFFFFFFFFFFFFFFFFFFFFFFFFFFFFFF AND PUSH2 0x8FC DUP4 SWAP1 DUP2 ISZERO MUL SWAP1 PUSH1 0x40 MLOAD PUSH1 0x0 PUSH1 0x40 MLOAD DUP1 DUP4 SUB DUP2 DUP6 DUP9 DUP9 CALL SWAP4 POP POP POP POP ISZERO DUP1 ISZERO PUSH2 0x17A JUMPI RETURNDATASIZE PUSH1 0x0 DUP1 RETURNDATACOPY RETURNDATASIZE PUSH1 0x0 REVERT JUMPDEST POP JUMPDEST POP POP POP POP POP POP POP POP JUMP JUMPDEST PUSH1 0x0 DUP1 REVERT JUMPDEST PUSH1 0x0 PUSH20 0xFFFFFFFFFFFFFFFFFFFFFFFFFFFFFFFFFFFFFFFF DUP3 AND SWAP1 POP SWAP2 SWAP1 POP JUMP JUMPDEST PUSH1 0x0 PUSH2 0x1B6 DUP3 PUSH2 0x18B JUMP JUMPDEST SWAP1 POP SWAP2 SWAP1 POP JUMP JUMPDEST PUSH2 0x1C6 DUP2 PUSH2 0x1AB JUMP JUMPDEST DUP2 EQ PUSH2 0x1D1 JUMPI PUSH1 0x0 DUP1 REVERT JUMPDEST POP JUMP JUMPDEST PUSH1 0x0 DUP2 CALLDATALOAD SWAP1 POP PUSH2 0x1E3 DUP2 PUSH2 0x1BD JUMP JUMPDEST SWAP3 SWAP2 POP POP JUMP JUMPDEST PUSH1 0x0 DUP2 SWAP1 POP SWAP2 SWAP1 POP JUMP JUMPDEST PUSH2 0x1FC DUP2 PUSH2 0x1E9 JUMP JUMPDEST DUP2 EQ PUSH2 0x207 JUMPI PUSH1 0x0 DUP1 REVERT JUMPDEST POP JUMP JUMPDEST PUSH1 0x0 DUP2 CALLDATALOAD SWAP1 POP PUSH2 0x219 DUP2 PUSH2 0x1F3 JUMP JUMPDEST SWAP3 SWAP2 POP POP JUMP JUMPDEST PUSH1 0x0 DUP1 PUSH1 0x0 DUP1 PUSH1 0x80 DUP6 DUP8 SUB SLT ISZERO PUSH2 0x239 JUMPI PUSH2 0x238 PUSH2 0x186 JUMP JUMPDEST JUMPDEST PUSH1 0x0 PUSH2 0x247 DUP8 DUP3 DUP9 ADD PUSH2 0x1D4 JUMP JUMPDEST SWAP5 POP POP PUSH1 0x20 PUSH2 0x258 DUP8 DUP3 DUP9 ADD PUSH2 0x1D4 JUMP JUMPDEST SWAP4 POP POP PUSH1 0x40 PUSH2 0x269 DUP8 DUP3 DUP9 ADD PUSH2 0x20A JUMP JUMPDEST SWAP3 POP POP PUSH1 0x60 PUSH2 0x27A DUP8 DUP3 DUP9 ADD PUSH2 0x20A JUMP JUMPDEST SWAP2 POP POP SWAP3 SWAP6 SWAP2 SWAP5 POP SWAP3 POP JUMP JUMPDEST PUSH32 0x4E487B7100000000000000000000000000000000000000000000000000000000 PUSH1 0x0 MSTORE PUSH1 0x11 PUSH1 0x4 MSTORE PUSH1 0x24 PUSH1 0x0 REVERT JUMPDEST PUSH1 0x0 PUSH2 0x2C0 DUP3 PUSH2 0x1E9 JUMP JUMPDEST SWAP2 POP PUSH2 0x2CB DUP4 PUSH2 0x1E9 JUMP JUMPDEST SWAP3 POP DUP3 DUP3 LT ISZERO PUSH2 0x2DE JUMPI PUSH2 0x2DD PUSH2 0x286 JUMP JUMPDEST JUMPDEST DUP3 DUP3 SUB SWAP1 POP SWAP3 SWAP2 POP POP JUMP INVALID LOG2 PUSH5 0x6970667358 0x22 SLT KECCAK256 RETURNDATACOPY MSTORE 0xD2 CALLDATACOPY 0x27 REVERT PUSH32 0x371A54FD560D5E4C6D29613BA1CACC46B526EAD70BCC3D279D64736F6C634300 ADDMOD EXP STOP CALLER "
				},
				"gasEstimates": {
					"creation": {
						"codeDepositCost": "159800",
						"executionCost": "202",
						"totalCost": "160002"
					},
					"external": {
						"bookTrip(address,address,uint256,uint256)": "infinite"
					}
				},
				"methodIdentifiers": {
					"bookTrip(address,address,uint256,uint256)": "53c960ce"
				}
			},
			"storageLayout": {
				"storage": [],
				"types": null
			},
			"userdoc": {
				"kind": "user",
				"methods": {},
				"version": 1
			}
		}
	}
}