{
	"sBNB_flattened.sol": {
		"sAsset": {
			"abi": [
				{
					"inputs": [
						{
							"internalType": "string",
							"name": "name",
							"type": "string"
						},
						{
							"internalType": "string",
							"name": "symbol",
							"type": "string"
						},
						{
							"internalType": "uint256",
							"name": "initialSupply",
							"type": "uint256"
						}
					],
					"stateMutability": "nonpayable",
					"type": "constructor"
				},
				{
					"inputs": [],
					"name": "AccessControlBadConfirmation",
					"type": "error"
				},
				{
					"inputs": [
						{
							"internalType": "address",
							"name": "account",
							"type": "address"
						},
						{
							"internalType": "bytes32",
							"name": "neededRole",
							"type": "bytes32"
						}
					],
					"name": "AccessControlUnauthorizedAccount",
					"type": "error"
				},
				{
					"inputs": [
						{
							"internalType": "address",
							"name": "spender",
							"type": "address"
						},
						{
							"internalType": "uint256",
							"name": "allowance",
							"type": "uint256"
						},
						{
							"internalType": "uint256",
							"name": "needed",
							"type": "uint256"
						}
					],
					"name": "ERC20InsufficientAllowance",
					"type": "error"
				},
				{
					"inputs": [
						{
							"internalType": "address",
							"name": "sender",
							"type": "address"
						},
						{
							"internalType": "uint256",
							"name": "balance",
							"type": "uint256"
						},
						{
							"internalType": "uint256",
							"name": "needed",
							"type": "uint256"
						}
					],
					"name": "ERC20InsufficientBalance",
					"type": "error"
				},
				{
					"inputs": [
						{
							"internalType": "address",
							"name": "approver",
							"type": "address"
						}
					],
					"name": "ERC20InvalidApprover",
					"type": "error"
				},
				{
					"inputs": [
						{
							"internalType": "address",
							"name": "receiver",
							"type": "address"
						}
					],
					"name": "ERC20InvalidReceiver",
					"type": "error"
				},
				{
					"inputs": [
						{
							"internalType": "address",
							"name": "sender",
							"type": "address"
						}
					],
					"name": "ERC20InvalidSender",
					"type": "error"
				},
				{
					"inputs": [
						{
							"internalType": "address",
							"name": "spender",
							"type": "address"
						}
					],
					"name": "ERC20InvalidSpender",
					"type": "error"
				},
				{
					"anonymous": false,
					"inputs": [
						{
							"indexed": true,
							"internalType": "address",
							"name": "owner",
							"type": "address"
						},
						{
							"indexed": true,
							"internalType": "address",
							"name": "spender",
							"type": "address"
						},
						{
							"indexed": false,
							"internalType": "uint256",
							"name": "value",
							"type": "uint256"
						}
					],
					"name": "Approval",
					"type": "event"
				},
				{
					"anonymous": false,
					"inputs": [
						{
							"indexed": true,
							"internalType": "bytes32",
							"name": "role",
							"type": "bytes32"
						},
						{
							"indexed": true,
							"internalType": "bytes32",
							"name": "previousAdminRole",
							"type": "bytes32"
						},
						{
							"indexed": true,
							"internalType": "bytes32",
							"name": "newAdminRole",
							"type": "bytes32"
						}
					],
					"name": "RoleAdminChanged",
					"type": "event"
				},
				{
					"anonymous": false,
					"inputs": [
						{
							"indexed": true,
							"internalType": "bytes32",
							"name": "role",
							"type": "bytes32"
						},
						{
							"indexed": true,
							"internalType": "address",
							"name": "account",
							"type": "address"
						},
						{
							"indexed": true,
							"internalType": "address",
							"name": "sender",
							"type": "address"
						}
					],
					"name": "RoleGranted",
					"type": "event"
				},
				{
					"anonymous": false,
					"inputs": [
						{
							"indexed": true,
							"internalType": "bytes32",
							"name": "role",
							"type": "bytes32"
						},
						{
							"indexed": true,
							"internalType": "address",
							"name": "account",
							"type": "address"
						},
						{
							"indexed": true,
							"internalType": "address",
							"name": "sender",
							"type": "address"
						}
					],
					"name": "RoleRevoked",
					"type": "event"
				},
				{
					"anonymous": false,
					"inputs": [
						{
							"indexed": true,
							"internalType": "address",
							"name": "from",
							"type": "address"
						},
						{
							"indexed": true,
							"internalType": "address",
							"name": "to",
							"type": "address"
						},
						{
							"indexed": false,
							"internalType": "uint256",
							"name": "value",
							"type": "uint256"
						}
					],
					"name": "Transfer",
					"type": "event"
				},
				{
					"anonymous": false,
					"inputs": [
						{
							"indexed": false,
							"internalType": "address",
							"name": "from",
							"type": "address"
						},
						{
							"indexed": false,
							"internalType": "uint256",
							"name": "amount",
							"type": "uint256"
						}
					],
					"name": "burnToken",
					"type": "event"
				},
				{
					"anonymous": false,
					"inputs": [
						{
							"indexed": false,
							"internalType": "address",
							"name": "to",
							"type": "address"
						},
						{
							"indexed": false,
							"internalType": "uint256",
							"name": "amount",
							"type": "uint256"
						}
					],
					"name": "mintToken",
					"type": "event"
				},
				{
					"inputs": [],
					"name": "BURNER_ROLE",
					"outputs": [
						{
							"internalType": "bytes32",
							"name": "",
							"type": "bytes32"
						}
					],
					"stateMutability": "view",
					"type": "function"
				},
				{
					"inputs": [],
					"name": "DEFAULT_ADMIN_ROLE",
					"outputs": [
						{
							"internalType": "bytes32",
							"name": "",
							"type": "bytes32"
						}
					],
					"stateMutability": "view",
					"type": "function"
				},
				{
					"inputs": [],
					"name": "MINTER_ROLE",
					"outputs": [
						{
							"internalType": "bytes32",
							"name": "",
							"type": "bytes32"
						}
					],
					"stateMutability": "view",
					"type": "function"
				},
				{
					"inputs": [
						{
							"internalType": "address",
							"name": "owner",
							"type": "address"
						},
						{
							"internalType": "address",
							"name": "spender",
							"type": "address"
						}
					],
					"name": "allowance",
					"outputs": [
						{
							"internalType": "uint256",
							"name": "",
							"type": "uint256"
						}
					],
					"stateMutability": "view",
					"type": "function"
				},
				{
					"inputs": [
						{
							"internalType": "address",
							"name": "spender",
							"type": "address"
						},
						{
							"internalType": "uint256",
							"name": "value",
							"type": "uint256"
						}
					],
					"name": "approve",
					"outputs": [
						{
							"internalType": "bool",
							"name": "",
							"type": "bool"
						}
					],
					"stateMutability": "nonpayable",
					"type": "function"
				},
				{
					"inputs": [
						{
							"internalType": "address",
							"name": "account",
							"type": "address"
						}
					],
					"name": "balanceOf",
					"outputs": [
						{
							"internalType": "uint256",
							"name": "",
							"type": "uint256"
						}
					],
					"stateMutability": "view",
					"type": "function"
				},
				{
					"inputs": [
						{
							"internalType": "address",
							"name": "from",
							"type": "address"
						},
						{
							"internalType": "uint256",
							"name": "amount",
							"type": "uint256"
						}
					],
					"name": "burn",
					"outputs": [],
					"stateMutability": "nonpayable",
					"type": "function"
				},
				{
					"inputs": [],
					"name": "decimals",
					"outputs": [
						{
							"internalType": "uint8",
							"name": "",
							"type": "uint8"
						}
					],
					"stateMutability": "view",
					"type": "function"
				},
				{
					"inputs": [
						{
							"internalType": "bytes32",
							"name": "role",
							"type": "bytes32"
						}
					],
					"name": "getRoleAdmin",
					"outputs": [
						{
							"internalType": "bytes32",
							"name": "",
							"type": "bytes32"
						}
					],
					"stateMutability": "view",
					"type": "function"
				},
				{
					"inputs": [
						{
							"internalType": "bytes32",
							"name": "role",
							"type": "bytes32"
						},
						{
							"internalType": "address",
							"name": "account",
							"type": "address"
						}
					],
					"name": "grantRole",
					"outputs": [],
					"stateMutability": "nonpayable",
					"type": "function"
				},
				{
					"inputs": [
						{
							"internalType": "bytes32",
							"name": "role",
							"type": "bytes32"
						},
						{
							"internalType": "address",
							"name": "account",
							"type": "address"
						}
					],
					"name": "hasRole",
					"outputs": [
						{
							"internalType": "bool",
							"name": "",
							"type": "bool"
						}
					],
					"stateMutability": "view",
					"type": "function"
				},
				{
					"inputs": [
						{
							"internalType": "address",
							"name": "to",
							"type": "address"
						},
						{
							"internalType": "uint256",
							"name": "amount",
							"type": "uint256"
						}
					],
					"name": "mint",
					"outputs": [],
					"stateMutability": "nonpayable",
					"type": "function"
				},
				{
					"inputs": [],
					"name": "name",
					"outputs": [
						{
							"internalType": "string",
							"name": "",
							"type": "string"
						}
					],
					"stateMutability": "view",
					"type": "function"
				},
				{
					"inputs": [
						{
							"internalType": "bytes32",
							"name": "role",
							"type": "bytes32"
						},
						{
							"internalType": "address",
							"name": "callerConfirmation",
							"type": "address"
						}
					],
					"name": "renounceRole",
					"outputs": [],
					"stateMutability": "nonpayable",
					"type": "function"
				},
				{
					"inputs": [
						{
							"internalType": "bytes32",
							"name": "role",
							"type": "bytes32"
						},
						{
							"internalType": "address",
							"name": "account",
							"type": "address"
						}
					],
					"name": "revokeRole",
					"outputs": [],
					"stateMutability": "nonpayable",
					"type": "function"
				},
				{
					"inputs": [
						{
							"internalType": "bytes4",
							"name": "interfaceId",
							"type": "bytes4"
						}
					],
					"name": "supportsInterface",
					"outputs": [
						{
							"internalType": "bool",
							"name": "",
							"type": "bool"
						}
					],
					"stateMutability": "view",
					"type": "function"
				},
				{
					"inputs": [],
					"name": "symbol",
					"outputs": [
						{
							"internalType": "string",
							"name": "",
							"type": "string"
						}
					],
					"stateMutability": "view",
					"type": "function"
				},
				{
					"inputs": [],
					"name": "totalSupply",
					"outputs": [
						{
							"internalType": "uint256",
							"name": "",
							"type": "uint256"
						}
					],
					"stateMutability": "view",
					"type": "function"
				},
				{
					"inputs": [
						{
							"internalType": "address",
							"name": "to",
							"type": "address"
						},
						{
							"internalType": "uint256",
							"name": "value",
							"type": "uint256"
						}
					],
					"name": "transfer",
					"outputs": [
						{
							"internalType": "bool",
							"name": "",
							"type": "bool"
						}
					],
					"stateMutability": "nonpayable",
					"type": "function"
				},
				{
					"inputs": [
						{
							"internalType": "address",
							"name": "from",
							"type": "address"
						},
						{
							"internalType": "address",
							"name": "to",
							"type": "address"
						},
						{
							"internalType": "uint256",
							"name": "value",
							"type": "uint256"
						}
					],
					"name": "transferFrom",
					"outputs": [
						{
							"internalType": "bool",
							"name": "",
							"type": "bool"
						}
					],
					"stateMutability": "nonpayable",
					"type": "function"
				}
			],
			"devdoc": {
				"errors": {
					"AccessControlBadConfirmation()": [
						{
							"details": "The caller of a function is not the expected one. NOTE: Don't confuse with {AccessControlUnauthorizedAccount}."
						}
					],
					"AccessControlUnauthorizedAccount(address,bytes32)": [
						{
							"details": "The `account` is missing a role."
						}
					],
					"ERC20InsufficientAllowance(address,uint256,uint256)": [
						{
							"details": "Indicates a failure with the `spender`’s `allowance`. Used in transfers.",
							"params": {
								"allowance": "Amount of tokens a `spender` is allowed to operate with.",
								"needed": "Minimum amount required to perform a transfer.",
								"spender": "Address that may be allowed to operate on tokens without being their owner."
							}
						}
					],
					"ERC20InsufficientBalance(address,uint256,uint256)": [
						{
							"details": "Indicates an error related to the current `balance` of a `sender`. Used in transfers.",
							"params": {
								"balance": "Current balance for the interacting account.",
								"needed": "Minimum amount required to perform a transfer.",
								"sender": "Address whose tokens are being transferred."
							}
						}
					],
					"ERC20InvalidApprover(address)": [
						{
							"details": "Indicates a failure with the `approver` of a token to be approved. Used in approvals.",
							"params": {
								"approver": "Address initiating an approval operation."
							}
						}
					],
					"ERC20InvalidReceiver(address)": [
						{
							"details": "Indicates a failure with the token `receiver`. Used in transfers.",
							"params": {
								"receiver": "Address to which tokens are being transferred."
							}
						}
					],
					"ERC20InvalidSender(address)": [
						{
							"details": "Indicates a failure with the token `sender`. Used in transfers.",
							"params": {
								"sender": "Address whose tokens are being transferred."
							}
						}
					],
					"ERC20InvalidSpender(address)": [
						{
							"details": "Indicates a failure with the `spender` to be approved. Used in approvals.",
							"params": {
								"spender": "Address that may be allowed to operate on tokens without being their owner."
							}
						}
					]
				},
				"events": {
					"Approval(address,address,uint256)": {
						"details": "Emitted when the allowance of a `spender` for an `owner` is set by a call to {approve}. `value` is the new allowance."
					},
					"RoleAdminChanged(bytes32,bytes32,bytes32)": {
						"details": "Emitted when `newAdminRole` is set as ``role``'s admin role, replacing `previousAdminRole` `DEFAULT_ADMIN_ROLE` is the starting admin for all roles, despite {RoleAdminChanged} not being emitted signaling this."
					},
					"RoleGranted(bytes32,address,address)": {
						"details": "Emitted when `account` is granted `role`. `sender` is the account that originated the contract call, an admin role bearer except when using {AccessControl-_setupRole}."
					},
					"RoleRevoked(bytes32,address,address)": {
						"details": "Emitted when `account` is revoked `role`. `sender` is the account that originated the contract call:   - if using `revokeRole`, it is the admin role bearer   - if using `renounceRole`, it is the role bearer (i.e. `account`)"
					},
					"Transfer(address,address,uint256)": {
						"details": "Emitted when `value` tokens are moved from one account (`from`) to another (`to`). Note that `value` may be zero."
					}
				},
				"kind": "dev",
				"methods": {
					"allowance(address,address)": {
						"details": "See {IERC20-allowance}."
					},
					"approve(address,uint256)": {
						"details": "See {IERC20-approve}. NOTE: If `value` is the maximum `uint256`, the allowance is not updated on `transferFrom`. This is semantically equivalent to an infinite approval. Requirements: - `spender` cannot be the zero address."
					},
					"balanceOf(address)": {
						"details": "See {IERC20-balanceOf}."
					},
					"constructor": {
						"details": "Constructor that gives msg.sender all of existing tokens."
					},
					"decimals()": {
						"details": "Returns the number of decimals used to get its user representation. For example, if `decimals` equals `2`, a balance of `505` tokens should be displayed to a user as `5.05` (`505 / 10 ** 2`). Tokens usually opt for a value of 18, imitating the relationship between Ether and Wei. This is the default value returned by this function, unless it's overridden. NOTE: This information is only used for _display_ purposes: it in no way affects any of the arithmetic of the contract, including {IERC20-balanceOf} and {IERC20-transfer}."
					},
					"getRoleAdmin(bytes32)": {
						"details": "Returns the admin role that controls `role`. See {grantRole} and {revokeRole}. To change a role's admin, use {_setRoleAdmin}."
					},
					"grantRole(bytes32,address)": {
						"details": "Grants `role` to `account`. If `account` had not been already granted `role`, emits a {RoleGranted} event. Requirements: - the caller must have ``role``'s admin role. May emit a {RoleGranted} event."
					},
					"hasRole(bytes32,address)": {
						"details": "Returns `true` if `account` has been granted `role`."
					},
					"name()": {
						"details": "Returns the name of the token."
					},
					"renounceRole(bytes32,address)": {
						"details": "Revokes `role` from the calling account. Roles are often managed via {grantRole} and {revokeRole}: this function's purpose is to provide a mechanism for accounts to lose their privileges if they are compromised (such as when a trusted device is misplaced). If the calling account had been revoked `role`, emits a {RoleRevoked} event. Requirements: - the caller must be `callerConfirmation`. May emit a {RoleRevoked} event."
					},
					"revokeRole(bytes32,address)": {
						"details": "Revokes `role` from `account`. If `account` had been granted `role`, emits a {RoleRevoked} event. Requirements: - the caller must have ``role``'s admin role. May emit a {RoleRevoked} event."
					},
					"supportsInterface(bytes4)": {
						"details": "See {IERC165-supportsInterface}."
					},
					"symbol()": {
						"details": "Returns the symbol of the token, usually a shorter version of the name."
					},
					"totalSupply()": {
						"details": "See {IERC20-totalSupply}."
					},
					"transfer(address,uint256)": {
						"details": "See {IERC20-transfer}. Requirements: - `to` cannot be the zero address. - the caller must have a balance of at least `value`."
					},
					"transferFrom(address,address,uint256)": {
						"details": "See {IERC20-transferFrom}. Emits an {Approval} event indicating the updated allowance. This is not required by the EIP. See the note at the beginning of {ERC20}. NOTE: Does not update the allowance if the current allowance is the maximum `uint256`. Requirements: - `from` and `to` cannot be the zero address. - `from` must have a balance of at least `value`. - the caller must have allowance for ``from``'s tokens of at least `value`."
					}
				},
				"version": 1
			},
			"evm": {
				"assembly": "    /* \"sBNB_flattened.sol\":34115:35350  contract sAsset is ERC20, AccessControl {... */\n  mstore(0x40, 0x80)\n    /* \"sBNB_flattened.sol\":34452:34830  constructor(... */\n  callvalue\n  dup1\n  iszero\n  tag_1\n  jumpi\n  0x00\n  dup1\n  revert\ntag_1:\n  pop\n  mload(0x40)\n  sub(codesize, bytecodeSize)\n  dup1\n  bytecodeSize\n  dup4\n  codecopy\n  dup2\n  dup2\n  add\n  0x40\n  mstore\n  dup2\n  add\n  swap1\n  tag_2\n  swap2\n  swap1\n  tag_3\n  jump\t// in\ntag_2:\n    /* \"sBNB_flattened.sol\":34565:34569  name */\n  dup3\n    /* \"sBNB_flattened.sol\":34571:34577  symbol */\n  dup3\n    /* \"sBNB_flattened.sol\":24856:24861  name_ */\n  dup2\n    /* \"sBNB_flattened.sol\":24848:24853  _name */\n  0x03\n    /* \"sBNB_flattened.sol\":24848:24861  _name = name_ */\n  swap1\n  dup2\n  tag_7\n  swap2\n  swap1\n  tag_8\n  jump\t// in\ntag_7:\n  pop\n    /* \"sBNB_flattened.sol\":24881:24888  symbol_ */\n  dup1\n    /* \"sBNB_flattened.sol\":24871:24878  _symbol */\n  0x04\n    /* \"sBNB_flattened.sol\":24871:24888  _symbol = symbol_ */\n  swap1\n  dup2\n  tag_9\n  swap2\n  swap1\n  tag_8\n  jump\t// in\ntag_9:\n  pop\n    /* \"sBNB_flattened.sol\":24782:24895  constructor(string memory name_, string memory symbol_) {... */\n  pop\n  pop\n    /* \"sBNB_flattened.sol\":34589:34651  _mint(msg.sender, initialSupply * (10 ** uint256(decimals()))) */\n  tag_11\n    /* \"sBNB_flattened.sol\":34595:34605  msg.sender */\n  caller\n    /* \"sBNB_flattened.sol\":34638:34648  decimals() */\n  tag_12\n    /* \"sBNB_flattened.sol\":34638:34646  decimals */\n  shl(0x20, tag_13)\n    /* \"sBNB_flattened.sol\":34638:34648  decimals() */\n  0x20\n  shr\n  jump\t// in\ntag_12:\n    /* \"sBNB_flattened.sol\":34630:34649  uint256(decimals()) */\n  0xff\n  and\n    /* \"sBNB_flattened.sol\":34624:34626  10 */\n  0x0a\n    /* \"sBNB_flattened.sol\":34624:34649  10 ** uint256(decimals()) */\n  tag_14\n  swap2\n  swap1\n  tag_15\n  jump\t// in\ntag_14:\n    /* \"sBNB_flattened.sol\":34607:34620  initialSupply */\n  dup4\n    /* \"sBNB_flattened.sol\":34607:34650  initialSupply * (10 ** uint256(decimals())) */\n  tag_16\n  swap2\n  swap1\n  tag_17\n  jump\t// in\ntag_16:\n    /* \"sBNB_flattened.sol\":34589:34594  _mint */\n  shl(0x20, tag_18)\n    /* \"sBNB_flattened.sol\":34589:34651  _mint(msg.sender, initialSupply * (10 ** uint256(decimals()))) */\n  0x20\n  shr\n  jump\t// in\ntag_11:\n    /* \"sBNB_flattened.sol\":34781:34823  _grantRole(DEFAULT_ADMIN_ROLE, msg.sender) */\n  tag_19\n    /* \"sBNB_flattened.sol\":14758:14762  0x00 */\n  0x00\n    /* \"sBNB_flattened.sol\":34792:34810  DEFAULT_ADMIN_ROLE */\n  dup1\n  shl\n    /* \"sBNB_flattened.sol\":34812:34822  msg.sender */\n  caller\n    /* \"sBNB_flattened.sol\":34781:34791  _grantRole */\n  shl(0x20, tag_20)\n    /* \"sBNB_flattened.sol\":34781:34823  _grantRole(DEFAULT_ADMIN_ROLE, msg.sender) */\n  0x20\n  shr\n  jump\t// in\ntag_19:\n  pop\n    /* \"sBNB_flattened.sol\":34452:34830  constructor(... */\n  pop\n  pop\n  pop\n    /* \"sBNB_flattened.sol\":34115:35350  contract sAsset is ERC20, AccessControl {... */\n  jump(tag_21)\n    /* \"sBNB_flattened.sol\":35258:35348  function decimals() public view virtual override returns (uint8) {... */\ntag_13:\n    /* \"sBNB_flattened.sol\":35316:35321  uint8 */\n  0x00\n    /* \"sBNB_flattened.sol\":35340:35341  8 */\n  0x08\n    /* \"sBNB_flattened.sol\":35333:35341  return 8 */\n  swap1\n  pop\n    /* \"sBNB_flattened.sol\":35258:35348  function decimals() public view virtual override returns (uint8) {... */\n  swap1\n  jump\t// out\n    /* \"sBNB_flattened.sol\":30607:30815  function _mint(address account, uint256 value) internal {... */\ntag_18:\n    /* \"sBNB_flattened.sol\":30696:30697  0 */\n  0x00\n    /* \"sBNB_flattened.sol\":30677:30698  account == address(0) */\n  0xffffffffffffffffffffffffffffffffffffffff\n  and\n    /* \"sBNB_flattened.sol\":30677:30684  account */\n  dup3\n    /* \"sBNB_flattened.sol\":30677:30698  account == address(0) */\n  0xffffffffffffffffffffffffffffffffffffffff\n  and\n  sub\n    /* \"sBNB_flattened.sol\":30673:30764  if (account == address(0)) {... */\n  tag_24\n  jumpi\n    /* \"sBNB_flattened.sol\":30750:30751  0 */\n  0x00\n    /* \"sBNB_flattened.sol\":30721:30753  ERC20InvalidReceiver(address(0)) */\n  mload(0x40)\n  0xec442f0500000000000000000000000000000000000000000000000000000000\n  dup2\n  mstore\n  0x04\n  add\n  tag_25\n  swap2\n  swap1\n  tag_26\n  jump\t// in\ntag_25:\n  mload(0x40)\n  dup1\n  swap2\n  sub\n  swap1\n  revert\n    /* \"sBNB_flattened.sol\":30673:30764  if (account == address(0)) {... */\ntag_24:\n    /* \"sBNB_flattened.sol\":30773:30808  _update(address(0), account, value) */\n  tag_27\n    /* \"sBNB_flattened.sol\":30789:30790  0 */\n  0x00\n    /* \"sBNB_flattened.sol\":30793:30800  account */\n  dup4\n    /* \"sBNB_flattened.sol\":30802:30807  value */\n  dup4\n    /* \"sBNB_flattened.sol\":30773:30780  _update */\n  shl(0x20, tag_28)\n    /* \"sBNB_flattened.sol\":30773:30808  _update(address(0), account, value) */\n  0x20\n  shr\n  jump\t// in\ntag_27:\n    /* \"sBNB_flattened.sol\":30607:30815  function _mint(address account, uint256 value) internal {... */\n  pop\n  pop\n  jump\t// out\n    /* \"sBNB_flattened.sol\":18705:19021  function _grantRole(bytes32 role, address account) internal virtual returns (bool) {... */\ntag_20:\n    /* \"sBNB_flattened.sol\":18782:18786  bool */\n  0x00\n    /* \"sBNB_flattened.sol\":18803:18825  hasRole(role, account) */\n  tag_30\n    /* \"sBNB_flattened.sol\":18811:18815  role */\n  dup4\n    /* \"sBNB_flattened.sol\":18817:18824  account */\n  dup4\n    /* \"sBNB_flattened.sol\":18803:18810  hasRole */\n  shl(0x20, tag_31)\n    /* \"sBNB_flattened.sol\":18803:18825  hasRole(role, account) */\n  0x20\n  shr\n  jump\t// in\ntag_30:\n    /* \"sBNB_flattened.sol\":18798:19015  if (!hasRole(role, account)) {... */\n  tag_32\n  jumpi\n    /* \"sBNB_flattened.sol\":18873:18877  true */\n  0x01\n    /* \"sBNB_flattened.sol\":18841:18847  _roles */\n  0x05\n    /* \"sBNB_flattened.sol\":18841:18853  _roles[role] */\n  0x00\n    /* \"sBNB_flattened.sol\":18848:18852  role */\n  dup6\n    /* \"sBNB_flattened.sol\":18841:18853  _roles[role] */\n  dup2\n  mstore\n  0x20\n  add\n  swap1\n  dup2\n  mstore\n  0x20\n  add\n  0x00\n  keccak256\n    /* \"sBNB_flattened.sol\":18841:18861  _roles[role].hasRole */\n  0x00\n  add\n    /* \"sBNB_flattened.sol\":18841:18870  _roles[role].hasRole[account] */\n  0x00\n    /* \"sBNB_flattened.sol\":18862:18869  account */\n  dup5\n    /* \"sBNB_flattened.sol\":18841:18870  _roles[role].hasRole[account] */\n  0xffffffffffffffffffffffffffffffffffffffff\n  and\n  0xffffffffffffffffffffffffffffffffffffffff\n  and\n  dup2\n  mstore\n  0x20\n  add\n  swap1\n  dup2\n  mstore\n  0x20\n  add\n  0x00\n  keccak256\n  0x00\n    /* \"sBNB_flattened.sol\":18841:18877  _roles[role].hasRole[account] = true */\n  0x0100\n  exp\n  dup2\n  sload\n  dup2\n  0xff\n  mul\n  not\n  and\n  swap1\n  dup4\n  iszero\n  iszero\n  mul\n  or\n  swap1\n  sstore\n  pop\n    /* \"sBNB_flattened.sol\":18923:18935  _msgSender() */\n  tag_33\n    /* \"sBNB_flattened.sol\":18923:18933  _msgSender */\n  shl(0x20, tag_34)\n    /* \"sBNB_flattened.sol\":18923:18935  _msgSender() */\n  0x20\n  shr\n  jump\t// in\ntag_33:\n    /* \"sBNB_flattened.sol\":18896:18936  RoleGranted(role, account, _msgSender()) */\n  0xffffffffffffffffffffffffffffffffffffffff\n  and\n    /* \"sBNB_flattened.sol\":18914:18921  account */\n  dup3\n    /* \"sBNB_flattened.sol\":18896:18936  RoleGranted(role, account, _msgSender()) */\n  0xffffffffffffffffffffffffffffffffffffffff\n  and\n    /* \"sBNB_flattened.sol\":18908:18912  role */\n  dup5\n    /* \"sBNB_flattened.sol\":18896:18936  RoleGranted(role, account, _msgSender()) */\n  0x2f8788117e7eff1d82e926ec794901d17c78024a50270940304540a733656f0d\n  mload(0x40)\n  mload(0x40)\n  dup1\n  swap2\n  sub\n  swap1\n  log4\n    /* \"sBNB_flattened.sol\":18957:18961  true */\n  0x01\n    /* \"sBNB_flattened.sol\":18950:18961  return true */\n  swap1\n  pop\n  jump(tag_29)\n    /* \"sBNB_flattened.sol\":18798:19015  if (!hasRole(role, account)) {... */\ntag_32:\n    /* \"sBNB_flattened.sol\":18999:19004  false */\n  0x00\n    /* \"sBNB_flattened.sol\":18992:19004  return false */\n  swap1\n  pop\n    /* \"sBNB_flattened.sol\":18705:19021  function _grantRole(bytes32 role, address account) internal virtual returns (bool) {... */\ntag_29:\n  swap3\n  swap2\n  pop\n  pop\n  jump\t// out\n    /* \"sBNB_flattened.sol\":29157:30264  function _update(address from, address to, uint256 value) internal virtual {... */\ntag_28:\n    /* \"sBNB_flattened.sol\":29262:29263  0 */\n  0x00\n    /* \"sBNB_flattened.sol\":29246:29264  from == address(0) */\n  0xffffffffffffffffffffffffffffffffffffffff\n  and\n    /* \"sBNB_flattened.sol\":29246:29250  from */\n  dup4\n    /* \"sBNB_flattened.sol\":29246:29264  from == address(0) */\n  0xffffffffffffffffffffffffffffffffffffffff\n  and\n  sub\n    /* \"sBNB_flattened.sol\":29242:29782  if (from == address(0)) {... */\n  tag_37\n  jumpi\n    /* \"sBNB_flattened.sol\":29398:29403  value */\n  dup1\n    /* \"sBNB_flattened.sol\":29382:29394  _totalSupply */\n  0x02\n  0x00\n    /* \"sBNB_flattened.sol\":29382:29403  _totalSupply += value */\n  dup3\n  dup3\n  sload\n  tag_38\n  swap2\n  swap1\n  tag_39\n  jump\t// in\ntag_38:\n  swap3\n  pop\n  pop\n  dup2\n  swap1\n  sstore\n  pop\n    /* \"sBNB_flattened.sol\":29242:29782  if (from == address(0)) {... */\n  jump(tag_40)\ntag_37:\n    /* \"sBNB_flattened.sol\":29434:29453  uint256 fromBalance */\n  0x00\n    /* \"sBNB_flattened.sol\":29456:29465  _balances */\n  dup1\n    /* \"sBNB_flattened.sol\":29456:29471  _balances[from] */\n  0x00\n    /* \"sBNB_flattened.sol\":29466:29470  from */\n  dup6\n    /* \"sBNB_flattened.sol\":29456:29471  _balances[from] */\n  0xffffffffffffffffffffffffffffffffffffffff\n  and\n  0xffffffffffffffffffffffffffffffffffffffff\n  and\n  dup2\n  mstore\n  0x20\n  add\n  swap1\n  dup2\n  mstore\n  0x20\n  add\n  0x00\n  keccak256\n  sload\n    /* \"sBNB_flattened.sol\":29434:29471  uint256 fromBalance = _balances[from] */\n  swap1\n  pop\n    /* \"sBNB_flattened.sol\":29503:29508  value */\n  dup2\n    /* \"sBNB_flattened.sol\":29489:29500  fromBalance */\n  dup2\n    /* \"sBNB_flattened.sol\":29489:29508  fromBalance < value */\n  lt\n    /* \"sBNB_flattened.sol\":29485:29600  if (fromBalance < value) {... */\n  iszero\n  tag_41\n  jumpi\n    /* \"sBNB_flattened.sol\":29560:29564  from */\n  dup4\n    /* \"sBNB_flattened.sol\":29566:29577  fromBalance */\n  dup2\n    /* \"sBNB_flattened.sol\":29579:29584  value */\n  dup4\n    /* \"sBNB_flattened.sol\":29535:29585  ERC20InsufficientBalance(from, fromBalance, value) */\n  mload(0x40)\n  0xe450d38c00000000000000000000000000000000000000000000000000000000\n  dup2\n  mstore\n  0x04\n  add\n  tag_42\n  swap4\n  swap3\n  swap2\n  swap1\n  tag_43\n  jump\t// in\ntag_42:\n  mload(0x40)\n  dup1\n  swap2\n  sub\n  swap1\n  revert\n    /* \"sBNB_flattened.sol\":29485:29600  if (fromBalance < value) {... */\ntag_41:\n    /* \"sBNB_flattened.sol\":29752:29757  value */\n  dup2\n    /* \"sBNB_flattened.sol\":29738:29749  fromBalance */\n  dup2\n    /* \"sBNB_flattened.sol\":29738:29757  fromBalance - value */\n  sub\n    /* \"sBNB_flattened.sol\":29720:29729  _balances */\n  0x00\n    /* \"sBNB_flattened.sol\":29720:29735  _balances[from] */\n  dup1\n    /* \"sBNB_flattened.sol\":29730:29734  from */\n  dup7\n    /* \"sBNB_flattened.sol\":29720:29735  _balances[from] */\n  0xffffffffffffffffffffffffffffffffffffffff\n  and\n  0xffffffffffffffffffffffffffffffffffffffff\n  and\n  dup2\n  mstore\n  0x20\n  add\n  swap1\n  dup2\n  mstore\n  0x20\n  add\n  0x00\n  keccak256\n    /* \"sBNB_flattened.sol\":29720:29757  _balances[from] = fromBalance - value */\n  dup2\n  swap1\n  sstore\n  pop\n    /* \"sBNB_flattened.sol\":29420:29782  {... */\n  pop\n    /* \"sBNB_flattened.sol\":29242:29782  if (from == address(0)) {... */\ntag_40:\n    /* \"sBNB_flattened.sol\":29810:29811  0 */\n  0x00\n    /* \"sBNB_flattened.sol\":29796:29812  to == address(0) */\n  0xffffffffffffffffffffffffffffffffffffffff\n  and\n    /* \"sBNB_flattened.sol\":29796:29798  to */\n  dup3\n    /* \"sBNB_flattened.sol\":29796:29812  to == address(0) */\n  0xffffffffffffffffffffffffffffffffffffffff\n  and\n  sub\n    /* \"sBNB_flattened.sol\":29792:30217  if (to == address(0)) {... */\n  tag_44\n  jumpi\n    /* \"sBNB_flattened.sol\":29975:29980  value */\n  dup1\n    /* \"sBNB_flattened.sol\":29959:29971  _totalSupply */\n  0x02\n  0x00\n    /* \"sBNB_flattened.sol\":29959:29980  _totalSupply -= value */\n  dup3\n  dup3\n  sload\n  sub\n  swap3\n  pop\n  pop\n  dup2\n  swap1\n  sstore\n  pop\n    /* \"sBNB_flattened.sol\":29792:30217  if (to == address(0)) {... */\n  jump(tag_45)\ntag_44:\n    /* \"sBNB_flattened.sol\":30187:30192  value */\n  dup1\n    /* \"sBNB_flattened.sol\":30170:30179  _balances */\n  0x00\n    /* \"sBNB_flattened.sol\":30170:30183  _balances[to] */\n  dup1\n    /* \"sBNB_flattened.sol\":30180:30182  to */\n  dup5\n    /* \"sBNB_flattened.sol\":30170:30183  _balances[to] */\n  0xffffffffffffffffffffffffffffffffffffffff\n  and\n  0xffffffffffffffffffffffffffffffffffffffff\n  and\n  dup2\n  mstore\n  0x20\n  add\n  swap1\n  dup2\n  mstore\n  0x20\n  add\n  0x00\n  keccak256\n  0x00\n    /* \"sBNB_flattened.sol\":30170:30192  _balances[to] += value */\n  dup3\n  dup3\n  sload\n  add\n  swap3\n  pop\n  pop\n  dup2\n  swap1\n  sstore\n  pop\n    /* \"sBNB_flattened.sol\":29792:30217  if (to == address(0)) {... */\ntag_45:\n    /* \"sBNB_flattened.sol\":30247:30249  to */\n  dup2\n    /* \"sBNB_flattened.sol\":30232:30257  Transfer(from, to, value) */\n  0xffffffffffffffffffffffffffffffffffffffff\n  and\n    /* \"sBNB_flattened.sol\":30241:30245  from */\n  dup4\n    /* \"sBNB_flattened.sol\":30232:30257  Transfer(from, to, value) */\n  0xffffffffffffffffffffffffffffffffffffffff\n  and\n  0xddf252ad1be2c89b69c2b068fc378daa952ba7f163c4a11628f55a4df523b3ef\n    /* \"sBNB_flattened.sol\":30251:30256  value */\n  dup4\n    /* \"sBNB_flattened.sol\":30232:30257  Transfer(from, to, value) */\n  mload(0x40)\n  tag_46\n  swap2\n  swap1\n  tag_47\n  jump\t// in\ntag_46:\n  mload(0x40)\n  dup1\n  swap2\n  sub\n  swap1\n  log3\n    /* \"sBNB_flattened.sol\":29157:30264  function _update(address from, address to, uint256 value) internal virtual {... */\n  pop\n  pop\n  pop\n  jump\t// out\n    /* \"sBNB_flattened.sol\":15380:15516  function hasRole(bytes32 role, address account) public view virtual returns (bool) {... */\ntag_31:\n    /* \"sBNB_flattened.sol\":15457:15461  bool */\n  0x00\n    /* \"sBNB_flattened.sol\":15480:15486  _roles */\n  0x05\n    /* \"sBNB_flattened.sol\":15480:15492  _roles[role] */\n  0x00\n    /* \"sBNB_flattened.sol\":15487:15491  role */\n  dup5\n    /* \"sBNB_flattened.sol\":15480:15492  _roles[role] */\n  dup2\n  mstore\n  0x20\n  add\n  swap1\n  dup2\n  mstore\n  0x20\n  add\n  0x00\n  keccak256\n    /* \"sBNB_flattened.sol\":15480:15500  _roles[role].hasRole */\n  0x00\n  add\n    /* \"sBNB_flattened.sol\":15480:15509  _roles[role].hasRole[account] */\n  0x00\n    /* \"sBNB_flattened.sol\":15501:15508  account */\n  dup4\n    /* \"sBNB_flattened.sol\":15480:15509  _roles[role].hasRole[account] */\n  0xffffffffffffffffffffffffffffffffffffffff\n  and\n  0xffffffffffffffffffffffffffffffffffffffff\n  and\n  dup2\n  mstore\n  0x20\n  add\n  swap1\n  dup2\n  mstore\n  0x20\n  add\n  0x00\n  keccak256\n  0x00\n  swap1\n  sload\n  swap1\n  0x0100\n  exp\n  swap1\n  div\n  0xff\n  and\n    /* \"sBNB_flattened.sol\":15473:15509  return _roles[role].hasRole[account] */\n  swap1\n  pop\n    /* \"sBNB_flattened.sol\":15380:15516  function hasRole(bytes32 role, address account) public view virtual returns (bool) {... */\n  swap3\n  swap2\n  pop\n  pop\n  jump\t// out\n    /* \"sBNB_flattened.sol\":12345:12441  function _msgSender() internal view virtual returns (address) {... */\ntag_34:\n    /* \"sBNB_flattened.sol\":12398:12405  address */\n  0x00\n    /* \"sBNB_flattened.sol\":12424:12434  msg.sender */\n  caller\n    /* \"sBNB_flattened.sol\":12417:12434  return msg.sender */\n  swap1\n  pop\n    /* \"sBNB_flattened.sol\":12345:12441  function _msgSender() internal view virtual returns (address) {... */\n  swap1\n  jump\t// out\n    /* \"#utility.yul\":7:82   */\ntag_50:\n    /* \"#utility.yul\":40:46   */\n  0x00\n    /* \"#utility.yul\":73:75   */\n  0x40\n    /* \"#utility.yul\":67:76   */\n  mload\n    /* \"#utility.yul\":57:76   */\n  swap1\n  pop\n    /* \"#utility.yul\":7:82   */\n  swap1\n  jump\t// out\n    /* \"#utility.yul\":88:205   */\ntag_51:\n    /* \"#utility.yul\":197:198   */\n  0x00\n    /* \"#utility.yul\":194:195   */\n  dup1\n    /* \"#utility.yul\":187:199   */\n  revert\n    /* \"#utility.yul\":211:328   */\ntag_52:\n    /* \"#utility.yul\":320:321   */\n  0x00\n    /* \"#utility.yul\":317:318   */\n  dup1\n    /* \"#utility.yul\":310:322   */\n  revert\n    /* \"#utility.yul\":334:451   */\ntag_53:\n    /* \"#utility.yul\":443:444   */\n  0x00\n    /* \"#utility.yul\":440:441   */\n  dup1\n    /* \"#utility.yul\":433:445   */\n  revert\n    /* \"#utility.yul\":457:574   */\ntag_54:\n    /* \"#utility.yul\":566:567   */\n  0x00\n    /* \"#utility.yul\":563:564   */\n  dup1\n    /* \"#utility.yul\":556:568   */\n  revert\n    /* \"#utility.yul\":580:682   */\ntag_55:\n    /* \"#utility.yul\":621:627   */\n  0x00\n    /* \"#utility.yul\":672:674   */\n  0x1f\n    /* \"#utility.yul\":668:675   */\n  not\n    /* \"#utility.yul\":663:665   */\n  0x1f\n    /* \"#utility.yul\":656:661   */\n  dup4\n    /* \"#utility.yul\":652:666   */\n  add\n    /* \"#utility.yul\":648:676   */\n  and\n    /* \"#utility.yul\":638:676   */\n  swap1\n  pop\n    /* \"#utility.yul\":580:682   */\n  swap2\n  swap1\n  pop\n  jump\t// out\n    /* \"#utility.yul\":688:868   */\ntag_56:\n    /* \"#utility.yul\":736:813   */\n  0x4e487b7100000000000000000000000000000000000000000000000000000000\n    /* \"#utility.yul\":733:734   */\n  0x00\n    /* \"#utility.yul\":726:814   */\n  mstore\n    /* \"#utility.yul\":833:837   */\n  0x41\n    /* \"#utility.yul\":830:831   */\n  0x04\n    /* \"#utility.yul\":823:838   */\n  mstore\n    /* \"#utility.yul\":857:861   */\n  0x24\n    /* \"#utility.yul\":854:855   */\n  0x00\n    /* \"#utility.yul\":847:862   */\n  revert\n    /* \"#utility.yul\":874:1155   */\ntag_57:\n    /* \"#utility.yul\":957:984   */\n  tag_101\n    /* \"#utility.yul\":979:983   */\n  dup3\n    /* \"#utility.yul\":957:984   */\n  tag_55\n  jump\t// in\ntag_101:\n    /* \"#utility.yul\":949:955   */\n  dup2\n    /* \"#utility.yul\":945:985   */\n  add\n    /* \"#utility.yul\":1087:1093   */\n  dup2\n    /* \"#utility.yul\":1075:1085   */\n  dup2\n    /* \"#utility.yul\":1072:1094   */\n  lt\n    /* \"#utility.yul\":1051:1069   */\n  0xffffffffffffffff\n    /* \"#utility.yul\":1039:1049   */\n  dup3\n    /* \"#utility.yul\":1036:1070   */\n  gt\n    /* \"#utility.yul\":1033:1095   */\n  or\n    /* \"#utility.yul\":1030:1118   */\n  iszero\n  tag_102\n  jumpi\n    /* \"#utility.yul\":1098:1116   */\n  tag_103\n  tag_56\n  jump\t// in\ntag_103:\n    /* \"#utility.yul\":1030:1118   */\ntag_102:\n    /* \"#utility.yul\":1138:1148   */\n  dup1\n    /* \"#utility.yul\":1134:1136   */\n  0x40\n    /* \"#utility.yul\":1127:1149   */\n  mstore\n    /* \"#utility.yul\":917:1155   */\n  pop\n    /* \"#utility.yul\":874:1155   */\n  pop\n  pop\n  jump\t// out\n    /* \"#utility.yul\":1161:1290   */\ntag_58:\n    /* \"#utility.yul\":1195:1201   */\n  0x00\n    /* \"#utility.yul\":1222:1242   */\n  tag_105\n  tag_50\n  jump\t// in\ntag_105:\n    /* \"#utility.yul\":1212:1242   */\n  swap1\n  pop\n    /* \"#utility.yul\":1251:1284   */\n  tag_106\n    /* \"#utility.yul\":1279:1283   */\n  dup3\n    /* \"#utility.yul\":1271:1277   */\n  dup3\n    /* \"#utility.yul\":1251:1284   */\n  tag_57\n  jump\t// in\ntag_106:\n    /* \"#utility.yul\":1161:1290   */\n  swap2\n  swap1\n  pop\n  jump\t// out\n    /* \"#utility.yul\":1296:1604   */\ntag_59:\n    /* \"#utility.yul\":1358:1362   */\n  0x00\n    /* \"#utility.yul\":1448:1466   */\n  0xffffffffffffffff\n    /* \"#utility.yul\":1440:1446   */\n  dup3\n    /* \"#utility.yul\":1437:1467   */\n  gt\n    /* \"#utility.yul\":1434:1490   */\n  iszero\n  tag_108\n  jumpi\n    /* \"#utility.yul\":1470:1488   */\n  tag_109\n  tag_56\n  jump\t// in\ntag_109:\n    /* \"#utility.yul\":1434:1490   */\ntag_108:\n    /* \"#utility.yul\":1508:1537   */\n  tag_110\n    /* \"#utility.yul\":1530:1536   */\n  dup3\n    /* \"#utility.yul\":1508:1537   */\n  tag_55\n  jump\t// in\ntag_110:\n    /* \"#utility.yul\":1500:1537   */\n  swap1\n  pop\n    /* \"#utility.yul\":1592:1596   */\n  0x20\n    /* \"#utility.yul\":1586:1590   */\n  dup2\n    /* \"#utility.yul\":1582:1597   */\n  add\n    /* \"#utility.yul\":1574:1597   */\n  swap1\n  pop\n    /* \"#utility.yul\":1296:1604   */\n  swap2\n  swap1\n  pop\n  jump\t// out\n    /* \"#utility.yul\":1610:1856   */\ntag_60:\n    /* \"#utility.yul\":1691:1692   */\n  0x00\n    /* \"#utility.yul\":1701:1814   */\ntag_112:\n    /* \"#utility.yul\":1715:1721   */\n  dup4\n    /* \"#utility.yul\":1712:1713   */\n  dup2\n    /* \"#utility.yul\":1709:1722   */\n  lt\n    /* \"#utility.yul\":1701:1814   */\n  iszero\n  tag_114\n  jumpi\n    /* \"#utility.yul\":1800:1801   */\n  dup1\n    /* \"#utility.yul\":1795:1798   */\n  dup3\n    /* \"#utility.yul\":1791:1802   */\n  add\n    /* \"#utility.yul\":1785:1803   */\n  mload\n    /* \"#utility.yul\":1781:1782   */\n  dup2\n    /* \"#utility.yul\":1776:1779   */\n  dup5\n    /* \"#utility.yul\":1772:1783   */\n  add\n    /* \"#utility.yul\":1765:1804   */\n  mstore\n    /* \"#utility.yul\":1737:1739   */\n  0x20\n    /* \"#utility.yul\":1734:1735   */\n  dup2\n    /* \"#utility.yul\":1730:1740   */\n  add\n    /* \"#utility.yul\":1725:1740   */\n  swap1\n  pop\n    /* \"#utility.yul\":1701:1814   */\n  jump(tag_112)\ntag_114:\n    /* \"#utility.yul\":1848:1849   */\n  0x00\n    /* \"#utility.yul\":1839:1845   */\n  dup5\n    /* \"#utility.yul\":1834:1837   */\n  dup5\n    /* \"#utility.yul\":1830:1846   */\n  add\n    /* \"#utility.yul\":1823:1850   */\n  mstore\n    /* \"#utility.yul\":1672:1856   */\n  pop\n    /* \"#utility.yul\":1610:1856   */\n  pop\n  pop\n  pop\n  jump\t// out\n    /* \"#utility.yul\":1862:2296   */\ntag_61:\n    /* \"#utility.yul\":1951:1956   */\n  0x00\n    /* \"#utility.yul\":1976:2042   */\n  tag_116\n    /* \"#utility.yul\":1992:2041   */\n  tag_117\n    /* \"#utility.yul\":2034:2040   */\n  dup5\n    /* \"#utility.yul\":1992:2041   */\n  tag_59\n  jump\t// in\ntag_117:\n    /* \"#utility.yul\":1976:2042   */\n  tag_58\n  jump\t// in\ntag_116:\n    /* \"#utility.yul\":1967:2042   */\n  swap1\n  pop\n    /* \"#utility.yul\":2065:2071   */\n  dup3\n    /* \"#utility.yul\":2058:2063   */\n  dup2\n    /* \"#utility.yul\":2051:2072   */\n  mstore\n    /* \"#utility.yul\":2103:2107   */\n  0x20\n    /* \"#utility.yul\":2096:2101   */\n  dup2\n    /* \"#utility.yul\":2092:2108   */\n  add\n    /* \"#utility.yul\":2141:2144   */\n  dup5\n    /* \"#utility.yul\":2132:2138   */\n  dup5\n    /* \"#utility.yul\":2127:2130   */\n  dup5\n    /* \"#utility.yul\":2123:2139   */\n  add\n    /* \"#utility.yul\":2120:2145   */\n  gt\n    /* \"#utility.yul\":2117:2229   */\n  iszero\n  tag_118\n  jumpi\n    /* \"#utility.yul\":2148:2227   */\n  tag_119\n  tag_54\n  jump\t// in\ntag_119:\n    /* \"#utility.yul\":2117:2229   */\ntag_118:\n    /* \"#utility.yul\":2238:2290   */\n  tag_120\n    /* \"#utility.yul\":2283:2289   */\n  dup5\n    /* \"#utility.yul\":2278:2281   */\n  dup3\n    /* \"#utility.yul\":2273:2276   */\n  dup6\n    /* \"#utility.yul\":2238:2290   */\n  tag_60\n  jump\t// in\ntag_120:\n    /* \"#utility.yul\":1957:2296   */\n  pop\n    /* \"#utility.yul\":1862:2296   */\n  swap4\n  swap3\n  pop\n  pop\n  pop\n  jump\t// out\n    /* \"#utility.yul\":2316:2671   */\ntag_62:\n    /* \"#utility.yul\":2383:2388   */\n  0x00\n    /* \"#utility.yul\":2432:2435   */\n  dup3\n    /* \"#utility.yul\":2425:2429   */\n  0x1f\n    /* \"#utility.yul\":2417:2423   */\n  dup4\n    /* \"#utility.yul\":2413:2430   */\n  add\n    /* \"#utility.yul\":2409:2436   */\n  slt\n    /* \"#utility.yul\":2399:2521   */\n  tag_122\n  jumpi\n    /* \"#utility.yul\":2440:2519   */\n  tag_123\n  tag_53\n  jump\t// in\ntag_123:\n    /* \"#utility.yul\":2399:2521   */\ntag_122:\n    /* \"#utility.yul\":2550:2556   */\n  dup2\n    /* \"#utility.yul\":2544:2557   */\n  mload\n    /* \"#utility.yul\":2575:2665   */\n  tag_124\n    /* \"#utility.yul\":2661:2664   */\n  dup5\n    /* \"#utility.yul\":2653:2659   */\n  dup3\n    /* \"#utility.yul\":2646:2650   */\n  0x20\n    /* \"#utility.yul\":2638:2644   */\n  dup7\n    /* \"#utility.yul\":2634:2651   */\n  add\n    /* \"#utility.yul\":2575:2665   */\n  tag_61\n  jump\t// in\ntag_124:\n    /* \"#utility.yul\":2566:2665   */\n  swap2\n  pop\n    /* \"#utility.yul\":2389:2671   */\n  pop\n    /* \"#utility.yul\":2316:2671   */\n  swap3\n  swap2\n  pop\n  pop\n  jump\t// out\n    /* \"#utility.yul\":2677:2754   */\ntag_63:\n    /* \"#utility.yul\":2714:2721   */\n  0x00\n    /* \"#utility.yul\":2743:2748   */\n  dup2\n    /* \"#utility.yul\":2732:2748   */\n  swap1\n  pop\n    /* \"#utility.yul\":2677:2754   */\n  swap2\n  swap1\n  pop\n  jump\t// out\n    /* \"#utility.yul\":2760:2882   */\ntag_64:\n    /* \"#utility.yul\":2833:2857   */\n  tag_127\n    /* \"#utility.yul\":2851:2856   */\n  dup2\n    /* \"#utility.yul\":2833:2857   */\n  tag_63\n  jump\t// in\ntag_127:\n    /* \"#utility.yul\":2826:2831   */\n  dup2\n    /* \"#utility.yul\":2823:2858   */\n  eq\n    /* \"#utility.yul\":2813:2876   */\n  tag_128\n  jumpi\n    /* \"#utility.yul\":2872:2873   */\n  0x00\n    /* \"#utility.yul\":2869:2870   */\n  dup1\n    /* \"#utility.yul\":2862:2874   */\n  revert\n    /* \"#utility.yul\":2813:2876   */\ntag_128:\n    /* \"#utility.yul\":2760:2882   */\n  pop\n  jump\t// out\n    /* \"#utility.yul\":2888:3031   */\ntag_65:\n    /* \"#utility.yul\":2945:2950   */\n  0x00\n    /* \"#utility.yul\":2976:2982   */\n  dup2\n    /* \"#utility.yul\":2970:2983   */\n  mload\n    /* \"#utility.yul\":2961:2983   */\n  swap1\n  pop\n    /* \"#utility.yul\":2992:3025   */\n  tag_130\n    /* \"#utility.yul\":3019:3024   */\n  dup2\n    /* \"#utility.yul\":2992:3025   */\n  tag_64\n  jump\t// in\ntag_130:\n    /* \"#utility.yul\":2888:3031   */\n  swap3\n  swap2\n  pop\n  pop\n  jump\t// out\n    /* \"#utility.yul\":3037:4046   */\ntag_3:\n    /* \"#utility.yul\":3145:3151   */\n  0x00\n    /* \"#utility.yul\":3153:3159   */\n  dup1\n    /* \"#utility.yul\":3161:3167   */\n  0x00\n    /* \"#utility.yul\":3210:3212   */\n  0x60\n    /* \"#utility.yul\":3198:3207   */\n  dup5\n    /* \"#utility.yul\":3189:3196   */\n  dup7\n    /* \"#utility.yul\":3185:3208   */\n  sub\n    /* \"#utility.yul\":3181:3213   */\n  slt\n    /* \"#utility.yul\":3178:3297   */\n  iszero\n  tag_132\n  jumpi\n    /* \"#utility.yul\":3216:3295   */\n  tag_133\n  tag_51\n  jump\t// in\ntag_133:\n    /* \"#utility.yul\":3178:3297   */\ntag_132:\n    /* \"#utility.yul\":3357:3358   */\n  0x00\n    /* \"#utility.yul\":3346:3355   */\n  dup5\n    /* \"#utility.yul\":3342:3359   */\n  add\n    /* \"#utility.yul\":3336:3360   */\n  mload\n    /* \"#utility.yul\":3387:3405   */\n  0xffffffffffffffff\n    /* \"#utility.yul\":3379:3385   */\n  dup2\n    /* \"#utility.yul\":3376:3406   */\n  gt\n    /* \"#utility.yul\":3373:3490   */\n  iszero\n  tag_134\n  jumpi\n    /* \"#utility.yul\":3409:3488   */\n  tag_135\n  tag_52\n  jump\t// in\ntag_135:\n    /* \"#utility.yul\":3373:3490   */\ntag_134:\n    /* \"#utility.yul\":3514:3588   */\n  tag_136\n    /* \"#utility.yul\":3580:3587   */\n  dup7\n    /* \"#utility.yul\":3571:3577   */\n  dup3\n    /* \"#utility.yul\":3560:3569   */\n  dup8\n    /* \"#utility.yul\":3556:3578   */\n  add\n    /* \"#utility.yul\":3514:3588   */\n  tag_62\n  jump\t// in\ntag_136:\n    /* \"#utility.yul\":3504:3588   */\n  swap4\n  pop\n    /* \"#utility.yul\":3307:3598   */\n  pop\n    /* \"#utility.yul\":3658:3660   */\n  0x20\n    /* \"#utility.yul\":3647:3656   */\n  dup5\n    /* \"#utility.yul\":3643:3661   */\n  add\n    /* \"#utility.yul\":3637:3662   */\n  mload\n    /* \"#utility.yul\":3689:3707   */\n  0xffffffffffffffff\n    /* \"#utility.yul\":3681:3687   */\n  dup2\n    /* \"#utility.yul\":3678:3708   */\n  gt\n    /* \"#utility.yul\":3675:3792   */\n  iszero\n  tag_137\n  jumpi\n    /* \"#utility.yul\":3711:3790   */\n  tag_138\n  tag_52\n  jump\t// in\ntag_138:\n    /* \"#utility.yul\":3675:3792   */\ntag_137:\n    /* \"#utility.yul\":3816:3890   */\n  tag_139\n    /* \"#utility.yul\":3882:3889   */\n  dup7\n    /* \"#utility.yul\":3873:3879   */\n  dup3\n    /* \"#utility.yul\":3862:3871   */\n  dup8\n    /* \"#utility.yul\":3858:3880   */\n  add\n    /* \"#utility.yul\":3816:3890   */\n  tag_62\n  jump\t// in\ntag_139:\n    /* \"#utility.yul\":3806:3890   */\n  swap3\n  pop\n    /* \"#utility.yul\":3608:3900   */\n  pop\n    /* \"#utility.yul\":3939:3941   */\n  0x40\n    /* \"#utility.yul\":3965:4029   */\n  tag_140\n    /* \"#utility.yul\":4021:4028   */\n  dup7\n    /* \"#utility.yul\":4012:4018   */\n  dup3\n    /* \"#utility.yul\":4001:4010   */\n  dup8\n    /* \"#utility.yul\":3997:4019   */\n  add\n    /* \"#utility.yul\":3965:4029   */\n  tag_65\n  jump\t// in\ntag_140:\n    /* \"#utility.yul\":3955:4029   */\n  swap2\n  pop\n    /* \"#utility.yul\":3910:4039   */\n  pop\n    /* \"#utility.yul\":3037:4046   */\n  swap3\n  pop\n  swap3\n  pop\n  swap3\n  jump\t// out\n    /* \"#utility.yul\":4052:4151   */\ntag_66:\n    /* \"#utility.yul\":4104:4110   */\n  0x00\n    /* \"#utility.yul\":4138:4143   */\n  dup2\n    /* \"#utility.yul\":4132:4144   */\n  mload\n    /* \"#utility.yul\":4122:4144   */\n  swap1\n  pop\n    /* \"#utility.yul\":4052:4151   */\n  swap2\n  swap1\n  pop\n  jump\t// out\n    /* \"#utility.yul\":4157:4337   */\ntag_67:\n    /* \"#utility.yul\":4205:4282   */\n  0x4e487b7100000000000000000000000000000000000000000000000000000000\n    /* \"#utility.yul\":4202:4203   */\n  0x00\n    /* \"#utility.yul\":4195:4283   */\n  mstore\n    /* \"#utility.yul\":4302:4306   */\n  0x22\n    /* \"#utility.yul\":4299:4300   */\n  0x04\n    /* \"#utility.yul\":4292:4307   */\n  mstore\n    /* \"#utility.yul\":4326:4330   */\n  0x24\n    /* \"#utility.yul\":4323:4324   */\n  0x00\n    /* \"#utility.yul\":4316:4331   */\n  revert\n    /* \"#utility.yul\":4343:4663   */\ntag_68:\n    /* \"#utility.yul\":4387:4393   */\n  0x00\n    /* \"#utility.yul\":4424:4425   */\n  0x02\n    /* \"#utility.yul\":4418:4422   */\n  dup3\n    /* \"#utility.yul\":4414:4426   */\n  div\n    /* \"#utility.yul\":4404:4426   */\n  swap1\n  pop\n    /* \"#utility.yul\":4471:4472   */\n  0x01\n    /* \"#utility.yul\":4465:4469   */\n  dup3\n    /* \"#utility.yul\":4461:4473   */\n  and\n    /* \"#utility.yul\":4492:4510   */\n  dup1\n    /* \"#utility.yul\":4482:4563   */\n  tag_144\n  jumpi\n    /* \"#utility.yul\":4548:4552   */\n  0x7f\n    /* \"#utility.yul\":4540:4546   */\n  dup3\n    /* \"#utility.yul\":4536:4553   */\n  and\n    /* \"#utility.yul\":4526:4553   */\n  swap2\n  pop\n    /* \"#utility.yul\":4482:4563   */\ntag_144:\n    /* \"#utility.yul\":4610:4612   */\n  0x20\n    /* \"#utility.yul\":4602:4608   */\n  dup3\n    /* \"#utility.yul\":4599:4613   */\n  lt\n    /* \"#utility.yul\":4579:4597   */\n  dup2\n    /* \"#utility.yul\":4576:4614   */\n  sub\n    /* \"#utility.yul\":4573:4657   */\n  tag_145\n  jumpi\n    /* \"#utility.yul\":4629:4647   */\n  tag_146\n  tag_67\n  jump\t// in\ntag_146:\n    /* \"#utility.yul\":4573:4657   */\ntag_145:\n    /* \"#utility.yul\":4394:4663   */\n  pop\n    /* \"#utility.yul\":4343:4663   */\n  swap2\n  swap1\n  pop\n  jump\t// out\n    /* \"#utility.yul\":4669:4810   */\ntag_69:\n    /* \"#utility.yul\":4718:4722   */\n  0x00\n    /* \"#utility.yul\":4741:4744   */\n  dup2\n    /* \"#utility.yul\":4733:4744   */\n  swap1\n  pop\n    /* \"#utility.yul\":4764:4767   */\n  dup2\n    /* \"#utility.yul\":4761:4762   */\n  0x00\n    /* \"#utility.yul\":4754:4768   */\n  mstore\n    /* \"#utility.yul\":4798:4802   */\n  0x20\n    /* \"#utility.yul\":4795:4796   */\n  0x00\n    /* \"#utility.yul\":4785:4803   */\n  keccak256\n    /* \"#utility.yul\":4777:4803   */\n  swap1\n  pop\n    /* \"#utility.yul\":4669:4810   */\n  swap2\n  swap1\n  pop\n  jump\t// out\n    /* \"#utility.yul\":4816:4909   */\ntag_70:\n    /* \"#utility.yul\":4853:4859   */\n  0x00\n    /* \"#utility.yul\":4900:4902   */\n  0x20\n    /* \"#utility.yul\":4895:4897   */\n  0x1f\n    /* \"#utility.yul\":4888:4893   */\n  dup4\n    /* \"#utility.yul\":4884:4898   */\n  add\n    /* \"#utility.yul\":4880:4903   */\n  div\n    /* \"#utility.yul\":4870:4903   */\n  swap1\n  pop\n    /* \"#utility.yul\":4816:4909   */\n  swap2\n  swap1\n  pop\n  jump\t// out\n    /* \"#utility.yul\":4915:5022   */\ntag_71:\n    /* \"#utility.yul\":4959:4967   */\n  0x00\n    /* \"#utility.yul\":5009:5014   */\n  dup3\n    /* \"#utility.yul\":5003:5007   */\n  dup3\n    /* \"#utility.yul\":4999:5015   */\n  shl\n    /* \"#utility.yul\":4978:5015   */\n  swap1\n  pop\n    /* \"#utility.yul\":4915:5022   */\n  swap3\n  swap2\n  pop\n  pop\n  jump\t// out\n    /* \"#utility.yul\":5028:5421   */\ntag_72:\n    /* \"#utility.yul\":5097:5103   */\n  0x00\n    /* \"#utility.yul\":5147:5148   */\n  0x08\n    /* \"#utility.yul\":5135:5145   */\n  dup4\n    /* \"#utility.yul\":5131:5149   */\n  mul\n    /* \"#utility.yul\":5170:5267   */\n  tag_151\n    /* \"#utility.yul\":5200:5266   */\n  0xffffffffffffffffffffffffffffffffffffffffffffffffffffffffffffffff\n    /* \"#utility.yul\":5189:5198   */\n  dup3\n    /* \"#utility.yul\":5170:5267   */\n  tag_71\n  jump\t// in\ntag_151:\n    /* \"#utility.yul\":5288:5327   */\n  tag_152\n    /* \"#utility.yul\":5318:5326   */\n  dup7\n    /* \"#utility.yul\":5307:5316   */\n  dup4\n    /* \"#utility.yul\":5288:5327   */\n  tag_71\n  jump\t// in\ntag_152:\n    /* \"#utility.yul\":5276:5327   */\n  swap6\n  pop\n    /* \"#utility.yul\":5360:5364   */\n  dup1\n    /* \"#utility.yul\":5356:5365   */\n  not\n    /* \"#utility.yul\":5349:5354   */\n  dup5\n    /* \"#utility.yul\":5345:5366   */\n  and\n    /* \"#utility.yul\":5336:5366   */\n  swap4\n  pop\n    /* \"#utility.yul\":5409:5413   */\n  dup1\n    /* \"#utility.yul\":5399:5407   */\n  dup7\n    /* \"#utility.yul\":5395:5414   */\n  and\n    /* \"#utility.yul\":5388:5393   */\n  dup5\n    /* \"#utility.yul\":5385:5415   */\n  or\n    /* \"#utility.yul\":5375:5415   */\n  swap3\n  pop\n    /* \"#utility.yul\":5104:5421   */\n  pop\n  pop\n    /* \"#utility.yul\":5028:5421   */\n  swap4\n  swap3\n  pop\n  pop\n  pop\n  jump\t// out\n    /* \"#utility.yul\":5427:5487   */\ntag_73:\n    /* \"#utility.yul\":5455:5458   */\n  0x00\n    /* \"#utility.yul\":5476:5481   */\n  dup2\n    /* \"#utility.yul\":5469:5481   */\n  swap1\n  pop\n    /* \"#utility.yul\":5427:5487   */\n  swap2\n  swap1\n  pop\n  jump\t// out\n    /* \"#utility.yul\":5493:5635   */\ntag_74:\n    /* \"#utility.yul\":5543:5552   */\n  0x00\n    /* \"#utility.yul\":5576:5629   */\n  tag_155\n    /* \"#utility.yul\":5594:5628   */\n  tag_156\n    /* \"#utility.yul\":5603:5627   */\n  tag_157\n    /* \"#utility.yul\":5621:5626   */\n  dup5\n    /* \"#utility.yul\":5603:5627   */\n  tag_63\n  jump\t// in\ntag_157:\n    /* \"#utility.yul\":5594:5628   */\n  tag_73\n  jump\t// in\ntag_156:\n    /* \"#utility.yul\":5576:5629   */\n  tag_63\n  jump\t// in\ntag_155:\n    /* \"#utility.yul\":5563:5629   */\n  swap1\n  pop\n    /* \"#utility.yul\":5493:5635   */\n  swap2\n  swap1\n  pop\n  jump\t// out\n    /* \"#utility.yul\":5641:5716   */\ntag_75:\n    /* \"#utility.yul\":5684:5687   */\n  0x00\n    /* \"#utility.yul\":5705:5710   */\n  dup2\n    /* \"#utility.yul\":5698:5710   */\n  swap1\n  pop\n    /* \"#utility.yul\":5641:5716   */\n  swap2\n  swap1\n  pop\n  jump\t// out\n    /* \"#utility.yul\":5722:5991   */\ntag_76:\n    /* \"#utility.yul\":5832:5871   */\n  tag_160\n    /* \"#utility.yul\":5863:5870   */\n  dup4\n    /* \"#utility.yul\":5832:5871   */\n  tag_74\n  jump\t// in\ntag_160:\n    /* \"#utility.yul\":5893:5984   */\n  tag_161\n    /* \"#utility.yul\":5942:5983   */\n  tag_162\n    /* \"#utility.yul\":5966:5982   */\n  dup3\n    /* \"#utility.yul\":5942:5983   */\n  tag_75\n  jump\t// in\ntag_162:\n    /* \"#utility.yul\":5934:5940   */\n  dup5\n    /* \"#utility.yul\":5927:5931   */\n  dup5\n    /* \"#utility.yul\":5921:5932   */\n  sload\n    /* \"#utility.yul\":5893:5984   */\n  tag_72\n  jump\t// in\ntag_161:\n    /* \"#utility.yul\":5887:5891   */\n  dup3\n    /* \"#utility.yul\":5880:5985   */\n  sstore\n    /* \"#utility.yul\":5798:5991   */\n  pop\n    /* \"#utility.yul\":5722:5991   */\n  pop\n  pop\n  pop\n  jump\t// out\n    /* \"#utility.yul\":5997:6070   */\ntag_77:\n    /* \"#utility.yul\":6042:6045   */\n  0x00\n    /* \"#utility.yul\":5997:6070   */\n  swap1\n  jump\t// out\n    /* \"#utility.yul\":6076:6265   */\ntag_78:\n    /* \"#utility.yul\":6153:6185   */\n  tag_165\n  tag_77\n  jump\t// in\ntag_165:\n    /* \"#utility.yul\":6194:6259   */\n  tag_166\n    /* \"#utility.yul\":6252:6258   */\n  dup2\n    /* \"#utility.yul\":6244:6250   */\n  dup5\n    /* \"#utility.yul\":6238:6242   */\n  dup5\n    /* \"#utility.yul\":6194:6259   */\n  tag_76\n  jump\t// in\ntag_166:\n    /* \"#utility.yul\":6129:6265   */\n  pop\n    /* \"#utility.yul\":6076:6265   */\n  pop\n  pop\n  jump\t// out\n    /* \"#utility.yul\":6271:6457   */\ntag_79:\n    /* \"#utility.yul\":6331:6451   */\ntag_168:\n    /* \"#utility.yul\":6348:6351   */\n  dup2\n    /* \"#utility.yul\":6341:6346   */\n  dup2\n    /* \"#utility.yul\":6338:6352   */\n  lt\n    /* \"#utility.yul\":6331:6451   */\n  iszero\n  tag_170\n  jumpi\n    /* \"#utility.yul\":6402:6441   */\n  tag_171\n    /* \"#utility.yul\":6439:6440   */\n  0x00\n    /* \"#utility.yul\":6432:6437   */\n  dup3\n    /* \"#utility.yul\":6402:6441   */\n  tag_78\n  jump\t// in\ntag_171:\n    /* \"#utility.yul\":6375:6376   */\n  0x01\n    /* \"#utility.yul\":6368:6373   */\n  dup2\n    /* \"#utility.yul\":6364:6377   */\n  add\n    /* \"#utility.yul\":6355:6377   */\n  swap1\n  pop\n    /* \"#utility.yul\":6331:6451   */\n  jump(tag_168)\ntag_170:\n    /* \"#utility.yul\":6271:6457   */\n  pop\n  pop\n  jump\t// out\n    /* \"#utility.yul\":6463:7006   */\ntag_80:\n    /* \"#utility.yul\":6564:6566   */\n  0x1f\n    /* \"#utility.yul\":6559:6562   */\n  dup3\n    /* \"#utility.yul\":6556:6567   */\n  gt\n    /* \"#utility.yul\":6553:6999   */\n  iszero\n  tag_173\n  jumpi\n    /* \"#utility.yul\":6598:6636   */\n  tag_174\n    /* \"#utility.yul\":6630:6635   */\n  dup2\n    /* \"#utility.yul\":6598:6636   */\n  tag_69\n  jump\t// in\ntag_174:\n    /* \"#utility.yul\":6682:6711   */\n  tag_175\n    /* \"#utility.yul\":6700:6710   */\n  dup5\n    /* \"#utility.yul\":6682:6711   */\n  tag_70\n  jump\t// in\ntag_175:\n    /* \"#utility.yul\":6672:6680   */\n  dup2\n    /* \"#utility.yul\":6668:6712   */\n  add\n    /* \"#utility.yul\":6865:6867   */\n  0x20\n    /* \"#utility.yul\":6853:6863   */\n  dup6\n    /* \"#utility.yul\":6850:6868   */\n  lt\n    /* \"#utility.yul\":6847:6896   */\n  iszero\n  tag_176\n  jumpi\n    /* \"#utility.yul\":6886:6894   */\n  dup2\n    /* \"#utility.yul\":6871:6894   */\n  swap1\n  pop\n    /* \"#utility.yul\":6847:6896   */\ntag_176:\n    /* \"#utility.yul\":6909:6989   */\n  tag_177\n    /* \"#utility.yul\":6965:6987   */\n  tag_178\n    /* \"#utility.yul\":6983:6986   */\n  dup6\n    /* \"#utility.yul\":6965:6987   */\n  tag_70\n  jump\t// in\ntag_178:\n    /* \"#utility.yul\":6955:6963   */\n  dup4\n    /* \"#utility.yul\":6951:6988   */\n  add\n    /* \"#utility.yul\":6938:6949   */\n  dup3\n    /* \"#utility.yul\":6909:6989   */\n  tag_79\n  jump\t// in\ntag_177:\n    /* \"#utility.yul\":6568:6999   */\n  pop\n  pop\n    /* \"#utility.yul\":6553:6999   */\ntag_173:\n    /* \"#utility.yul\":6463:7006   */\n  pop\n  pop\n  pop\n  jump\t// out\n    /* \"#utility.yul\":7012:7129   */\ntag_81:\n    /* \"#utility.yul\":7066:7074   */\n  0x00\n    /* \"#utility.yul\":7116:7121   */\n  dup3\n    /* \"#utility.yul\":7110:7114   */\n  dup3\n    /* \"#utility.yul\":7106:7122   */\n  shr\n    /* \"#utility.yul\":7085:7122   */\n  swap1\n  pop\n    /* \"#utility.yul\":7012:7129   */\n  swap3\n  swap2\n  pop\n  pop\n  jump\t// out\n    /* \"#utility.yul\":7135:7304   */\ntag_82:\n    /* \"#utility.yul\":7179:7185   */\n  0x00\n    /* \"#utility.yul\":7212:7263   */\n  tag_181\n    /* \"#utility.yul\":7260:7261   */\n  0x00\n    /* \"#utility.yul\":7256:7262   */\n  not\n    /* \"#utility.yul\":7248:7253   */\n  dup5\n    /* \"#utility.yul\":7245:7246   */\n  0x08\n    /* \"#utility.yul\":7241:7254   */\n  mul\n    /* \"#utility.yul\":7212:7263   */\n  tag_81\n  jump\t// in\ntag_181:\n    /* \"#utility.yul\":7208:7264   */\n  not\n    /* \"#utility.yul\":7293:7297   */\n  dup1\n    /* \"#utility.yul\":7287:7291   */\n  dup4\n    /* \"#utility.yul\":7283:7298   */\n  and\n    /* \"#utility.yul\":7273:7298   */\n  swap2\n  pop\n    /* \"#utility.yul\":7186:7304   */\n  pop\n    /* \"#utility.yul\":7135:7304   */\n  swap3\n  swap2\n  pop\n  pop\n  jump\t// out\n    /* \"#utility.yul\":7309:7604   */\ntag_83:\n    /* \"#utility.yul\":7385:7389   */\n  0x00\n    /* \"#utility.yul\":7531:7560   */\n  tag_183\n    /* \"#utility.yul\":7556:7559   */\n  dup4\n    /* \"#utility.yul\":7550:7554   */\n  dup4\n    /* \"#utility.yul\":7531:7560   */\n  tag_82\n  jump\t// in\ntag_183:\n    /* \"#utility.yul\":7523:7560   */\n  swap2\n  pop\n    /* \"#utility.yul\":7593:7596   */\n  dup3\n    /* \"#utility.yul\":7590:7591   */\n  0x02\n    /* \"#utility.yul\":7586:7597   */\n  mul\n    /* \"#utility.yul\":7580:7584   */\n  dup3\n    /* \"#utility.yul\":7577:7598   */\n  or\n    /* \"#utility.yul\":7569:7598   */\n  swap1\n  pop\n    /* \"#utility.yul\":7309:7604   */\n  swap3\n  swap2\n  pop\n  pop\n  jump\t// out\n    /* \"#utility.yul\":7609:9004   */\ntag_8:\n    /* \"#utility.yul\":7726:7763   */\n  tag_185\n    /* \"#utility.yul\":7759:7762   */\n  dup3\n    /* \"#utility.yul\":7726:7763   */\n  tag_66\n  jump\t// in\ntag_185:\n    /* \"#utility.yul\":7828:7846   */\n  0xffffffffffffffff\n    /* \"#utility.yul\":7820:7826   */\n  dup2\n    /* \"#utility.yul\":7817:7847   */\n  gt\n    /* \"#utility.yul\":7814:7870   */\n  iszero\n  tag_186\n  jumpi\n    /* \"#utility.yul\":7850:7868   */\n  tag_187\n  tag_56\n  jump\t// in\ntag_187:\n    /* \"#utility.yul\":7814:7870   */\ntag_186:\n    /* \"#utility.yul\":7894:7932   */\n  tag_188\n    /* \"#utility.yul\":7926:7930   */\n  dup3\n    /* \"#utility.yul\":7920:7931   */\n  sload\n    /* \"#utility.yul\":7894:7932   */\n  tag_68\n  jump\t// in\ntag_188:\n    /* \"#utility.yul\":7979:8046   */\n  tag_189\n    /* \"#utility.yul\":8039:8045   */\n  dup3\n    /* \"#utility.yul\":8031:8037   */\n  dup3\n    /* \"#utility.yul\":8025:8029   */\n  dup6\n    /* \"#utility.yul\":7979:8046   */\n  tag_80\n  jump\t// in\ntag_189:\n    /* \"#utility.yul\":8073:8074   */\n  0x00\n    /* \"#utility.yul\":8097:8101   */\n  0x20\n    /* \"#utility.yul\":8084:8101   */\n  swap1\n  pop\n    /* \"#utility.yul\":8129:8131   */\n  0x1f\n    /* \"#utility.yul\":8121:8127   */\n  dup4\n    /* \"#utility.yul\":8118:8132   */\n  gt\n    /* \"#utility.yul\":8146:8147   */\n  0x01\n    /* \"#utility.yul\":8141:8759   */\n  dup2\n  eq\n  tag_191\n  jumpi\n    /* \"#utility.yul\":8803:8804   */\n  0x00\n    /* \"#utility.yul\":8820:8826   */\n  dup5\n    /* \"#utility.yul\":8817:8894   */\n  iszero\n  tag_192\n  jumpi\n    /* \"#utility.yul\":8869:8878   */\n  dup3\n    /* \"#utility.yul\":8864:8867   */\n  dup8\n    /* \"#utility.yul\":8860:8879   */\n  add\n    /* \"#utility.yul\":8854:8880   */\n  mload\n    /* \"#utility.yul\":8845:8880   */\n  swap1\n  pop\n    /* \"#utility.yul\":8817:8894   */\ntag_192:\n    /* \"#utility.yul\":8920:8987   */\n  tag_193\n    /* \"#utility.yul\":8980:8986   */\n  dup6\n    /* \"#utility.yul\":8973:8978   */\n  dup3\n    /* \"#utility.yul\":8920:8987   */\n  tag_83\n  jump\t// in\ntag_193:\n    /* \"#utility.yul\":8914:8918   */\n  dup7\n    /* \"#utility.yul\":8907:8988   */\n  sstore\n    /* \"#utility.yul\":8776:8998   */\n  pop\n    /* \"#utility.yul\":8111:8998   */\n  jump(tag_190)\n    /* \"#utility.yul\":8141:8759   */\ntag_191:\n    /* \"#utility.yul\":8193:8197   */\n  0x1f\n    /* \"#utility.yul\":8189:8198   */\n  not\n    /* \"#utility.yul\":8181:8187   */\n  dup5\n    /* \"#utility.yul\":8177:8199   */\n  and\n    /* \"#utility.yul\":8227:8264   */\n  tag_194\n    /* \"#utility.yul\":8259:8263   */\n  dup7\n    /* \"#utility.yul\":8227:8264   */\n  tag_69\n  jump\t// in\ntag_194:\n    /* \"#utility.yul\":8286:8287   */\n  0x00\n    /* \"#utility.yul\":8300:8508   */\ntag_195:\n    /* \"#utility.yul\":8314:8321   */\n  dup3\n    /* \"#utility.yul\":8311:8312   */\n  dup2\n    /* \"#utility.yul\":8308:8322   */\n  lt\n    /* \"#utility.yul\":8300:8508   */\n  iszero\n  tag_197\n  jumpi\n    /* \"#utility.yul\":8393:8402   */\n  dup5\n    /* \"#utility.yul\":8388:8391   */\n  dup10\n    /* \"#utility.yul\":8384:8403   */\n  add\n    /* \"#utility.yul\":8378:8404   */\n  mload\n    /* \"#utility.yul\":8370:8376   */\n  dup3\n    /* \"#utility.yul\":8363:8405   */\n  sstore\n    /* \"#utility.yul\":8444:8445   */\n  0x01\n    /* \"#utility.yul\":8436:8442   */\n  dup3\n    /* \"#utility.yul\":8432:8446   */\n  add\n    /* \"#utility.yul\":8422:8446   */\n  swap2\n  pop\n    /* \"#utility.yul\":8491:8493   */\n  0x20\n    /* \"#utility.yul\":8480:8489   */\n  dup6\n    /* \"#utility.yul\":8476:8494   */\n  add\n    /* \"#utility.yul\":8463:8494   */\n  swap5\n  pop\n    /* \"#utility.yul\":8337:8341   */\n  0x20\n    /* \"#utility.yul\":8334:8335   */\n  dup2\n    /* \"#utility.yul\":8330:8342   */\n  add\n    /* \"#utility.yul\":8325:8342   */\n  swap1\n  pop\n    /* \"#utility.yul\":8300:8508   */\n  jump(tag_195)\ntag_197:\n    /* \"#utility.yul\":8536:8542   */\n  dup7\n    /* \"#utility.yul\":8527:8534   */\n  dup4\n    /* \"#utility.yul\":8524:8543   */\n  lt\n    /* \"#utility.yul\":8521:8700   */\n  iszero\n  tag_198\n  jumpi\n    /* \"#utility.yul\":8594:8603   */\n  dup5\n    /* \"#utility.yul\":8589:8592   */\n  dup10\n    /* \"#utility.yul\":8585:8604   */\n  add\n    /* \"#utility.yul\":8579:8605   */\n  mload\n    /* \"#utility.yul\":8637:8685   */\n  tag_199\n    /* \"#utility.yul\":8679:8683   */\n  0x1f\n    /* \"#utility.yul\":8671:8677   */\n  dup10\n    /* \"#utility.yul\":8667:8684   */\n  and\n    /* \"#utility.yul\":8656:8665   */\n  dup3\n    /* \"#utility.yul\":8637:8685   */\n  tag_82\n  jump\t// in\ntag_199:\n    /* \"#utility.yul\":8629:8635   */\n  dup4\n    /* \"#utility.yul\":8622:8686   */\n  sstore\n    /* \"#utility.yul\":8544:8700   */\n  pop\n    /* \"#utility.yul\":8521:8700   */\ntag_198:\n    /* \"#utility.yul\":8746:8747   */\n  0x01\n    /* \"#utility.yul\":8742:8743   */\n  0x02\n    /* \"#utility.yul\":8734:8740   */\n  dup9\n    /* \"#utility.yul\":8730:8744   */\n  mul\n    /* \"#utility.yul\":8726:8748   */\n  add\n    /* \"#utility.yul\":8720:8724   */\n  dup9\n    /* \"#utility.yul\":8713:8749   */\n  sstore\n    /* \"#utility.yul\":8148:8759   */\n  pop\n  pop\n  pop\n    /* \"#utility.yul\":8111:8998   */\ntag_190:\n  pop\n    /* \"#utility.yul\":7701:9004   */\n  pop\n  pop\n  pop\n    /* \"#utility.yul\":7609:9004   */\n  pop\n  pop\n  jump\t// out\n    /* \"#utility.yul\":9010:9190   */\ntag_84:\n    /* \"#utility.yul\":9058:9135   */\n  0x4e487b7100000000000000000000000000000000000000000000000000000000\n    /* \"#utility.yul\":9055:9056   */\n  0x00\n    /* \"#utility.yul\":9048:9136   */\n  mstore\n    /* \"#utility.yul\":9155:9159   */\n  0x11\n    /* \"#utility.yul\":9152:9153   */\n  0x04\n    /* \"#utility.yul\":9145:9160   */\n  mstore\n    /* \"#utility.yul\":9179:9183   */\n  0x24\n    /* \"#utility.yul\":9176:9177   */\n  0x00\n    /* \"#utility.yul\":9169:9184   */\n  revert\n    /* \"#utility.yul\":9196:9298   */\ntag_85:\n    /* \"#utility.yul\":9238:9246   */\n  0x00\n    /* \"#utility.yul\":9285:9290   */\n  dup2\n    /* \"#utility.yul\":9282:9283   */\n  0x01\n    /* \"#utility.yul\":9278:9291   */\n  shr\n    /* \"#utility.yul\":9257:9291   */\n  swap1\n  pop\n    /* \"#utility.yul\":9196:9298   */\n  swap2\n  swap1\n  pop\n  jump\t// out\n    /* \"#utility.yul\":9304:10152   */\ntag_86:\n    /* \"#utility.yul\":9365:9370   */\n  0x00\n    /* \"#utility.yul\":9372:9376   */\n  dup1\n    /* \"#utility.yul\":9396:9402   */\n  dup3\n    /* \"#utility.yul\":9387:9402   */\n  swap2\n  pop\n    /* \"#utility.yul\":9420:9425   */\n  dup4\n    /* \"#utility.yul\":9411:9425   */\n  swap1\n  pop\n    /* \"#utility.yul\":9434:10146   */\ntag_203:\n    /* \"#utility.yul\":9455:9456   */\n  0x01\n    /* \"#utility.yul\":9445:9453   */\n  dup6\n    /* \"#utility.yul\":9442:9457   */\n  gt\n    /* \"#utility.yul\":9434:10146   */\n  iszero\n  tag_205\n  jumpi\n    /* \"#utility.yul\":9550:9554   */\n  dup1\n    /* \"#utility.yul\":9545:9548   */\n  dup7\n    /* \"#utility.yul\":9541:9555   */\n  div\n    /* \"#utility.yul\":9535:9539   */\n  dup2\n    /* \"#utility.yul\":9532:9556   */\n  gt\n    /* \"#utility.yul\":9529:9579   */\n  iszero\n  tag_206\n  jumpi\n    /* \"#utility.yul\":9559:9577   */\n  tag_207\n  tag_84\n  jump\t// in\ntag_207:\n    /* \"#utility.yul\":9529:9579   */\ntag_206:\n    /* \"#utility.yul\":9609:9610   */\n  0x01\n    /* \"#utility.yul\":9599:9607   */\n  dup6\n    /* \"#utility.yul\":9595:9611   */\n  and\n    /* \"#utility.yul\":9592:10043   */\n  iszero\n  tag_208\n  jumpi\n    /* \"#utility.yul\":10024:10028   */\n  dup1\n    /* \"#utility.yul\":10017:10022   */\n  dup3\n    /* \"#utility.yul\":10013:10029   */\n  mul\n    /* \"#utility.yul\":10004:10029   */\n  swap2\n  pop\n    /* \"#utility.yul\":9592:10043   */\ntag_208:\n    /* \"#utility.yul\":10074:10078   */\n  dup1\n    /* \"#utility.yul\":10068:10072   */\n  dup2\n    /* \"#utility.yul\":10064:10079   */\n  mul\n    /* \"#utility.yul\":10056:10079   */\n  swap1\n  pop\n    /* \"#utility.yul\":10104:10136   */\n  tag_209\n    /* \"#utility.yul\":10127:10135   */\n  dup6\n    /* \"#utility.yul\":10104:10136   */\n  tag_85\n  jump\t// in\ntag_209:\n    /* \"#utility.yul\":10092:10136   */\n  swap5\n  pop\n    /* \"#utility.yul\":9434:10146   */\n  jump(tag_203)\ntag_205:\n    /* \"#utility.yul\":9304:10152   */\n  swap5\n  pop\n  swap5\n  swap3\n  pop\n  pop\n  pop\n  jump\t// out\n    /* \"#utility.yul\":10158:11231   */\ntag_87:\n    /* \"#utility.yul\":10212:10217   */\n  0x00\n    /* \"#utility.yul\":10403:10411   */\n  dup3\n    /* \"#utility.yul\":10393:10433   */\n  tag_211\n  jumpi\n    /* \"#utility.yul\":10424:10425   */\n  0x01\n    /* \"#utility.yul\":10415:10425   */\n  swap1\n  pop\n    /* \"#utility.yul\":10426:10431   */\n  jump(tag_210)\n    /* \"#utility.yul\":10393:10433   */\ntag_211:\n    /* \"#utility.yul\":10452:10456   */\n  dup2\n    /* \"#utility.yul\":10442:10478   */\n  tag_212\n  jumpi\n    /* \"#utility.yul\":10469:10470   */\n  0x00\n    /* \"#utility.yul\":10460:10470   */\n  swap1\n  pop\n    /* \"#utility.yul\":10471:10476   */\n  jump(tag_210)\n    /* \"#utility.yul\":10442:10478   */\ntag_212:\n    /* \"#utility.yul\":10538:10542   */\n  dup2\n    /* \"#utility.yul\":10586:10587   */\n  0x01\n    /* \"#utility.yul\":10581:10608   */\n  dup2\n  eq\n  tag_214\n  jumpi\n    /* \"#utility.yul\":10622:10623   */\n  0x02\n    /* \"#utility.yul\":10617:10808   */\n  dup2\n  eq\n  tag_215\n  jumpi\n    /* \"#utility.yul\":10531:10808   */\n  jump(tag_213)\n    /* \"#utility.yul\":10581:10608   */\ntag_214:\n    /* \"#utility.yul\":10599:10600   */\n  0x01\n    /* \"#utility.yul\":10590:10600   */\n  swap2\n  pop\n    /* \"#utility.yul\":10601:10606   */\n  pop\n  jump(tag_210)\n    /* \"#utility.yul\":10617:10808   */\ntag_215:\n    /* \"#utility.yul\":10662:10665   */\n  0xff\n    /* \"#utility.yul\":10652:10660   */\n  dup5\n    /* \"#utility.yul\":10649:10666   */\n  gt\n    /* \"#utility.yul\":10646:10689   */\n  iszero\n  tag_216\n  jumpi\n    /* \"#utility.yul\":10669:10687   */\n  tag_217\n  tag_84\n  jump\t// in\ntag_217:\n    /* \"#utility.yul\":10646:10689   */\ntag_216:\n    /* \"#utility.yul\":10718:10726   */\n  dup4\n    /* \"#utility.yul\":10715:10716   */\n  0x02\n    /* \"#utility.yul\":10711:10727   */\n  exp\n    /* \"#utility.yul\":10702:10727   */\n  swap2\n  pop\n    /* \"#utility.yul\":10753:10756   */\n  dup5\n    /* \"#utility.yul\":10746:10751   */\n  dup3\n    /* \"#utility.yul\":10743:10757   */\n  gt\n    /* \"#utility.yul\":10740:10780   */\n  iszero\n  tag_218\n  jumpi\n    /* \"#utility.yul\":10760:10778   */\n  tag_219\n  tag_84\n  jump\t// in\ntag_219:\n    /* \"#utility.yul\":10740:10780   */\ntag_218:\n    /* \"#utility.yul\":10793:10798   */\n  pop\n  jump(tag_210)\n    /* \"#utility.yul\":10531:10808   */\ntag_213:\n  pop\n    /* \"#utility.yul\":10917:10919   */\n  0x20\n    /* \"#utility.yul\":10907:10915   */\n  dup4\n    /* \"#utility.yul\":10904:10920   */\n  lt\n    /* \"#utility.yul\":10898:10901   */\n  0x0133\n    /* \"#utility.yul\":10892:10896   */\n  dup4\n    /* \"#utility.yul\":10889:10902   */\n  lt\n    /* \"#utility.yul\":10885:10921   */\n  and\n    /* \"#utility.yul\":10867:10869   */\n  0x4e\n    /* \"#utility.yul\":10857:10865   */\n  dup5\n    /* \"#utility.yul\":10854:10870   */\n  lt\n    /* \"#utility.yul\":10849:10851   */\n  0x0b\n    /* \"#utility.yul\":10843:10847   */\n  dup5\n    /* \"#utility.yul\":10840:10852   */\n  lt\n    /* \"#utility.yul\":10836:10871   */\n  and\n    /* \"#utility.yul\":10820:10931   */\n  or\n    /* \"#utility.yul\":10817:11063   */\n  iszero\n  tag_220\n  jumpi\n    /* \"#utility.yul\":10973:10981   */\n  dup3\n    /* \"#utility.yul\":10967:10971   */\n  dup3\n    /* \"#utility.yul\":10963:10982   */\n  exp\n    /* \"#utility.yul\":10954:10982   */\n  swap1\n  pop\n    /* \"#utility.yul\":11008:11011   */\n  dup4\n    /* \"#utility.yul\":11001:11006   */\n  dup2\n    /* \"#utility.yul\":10998:11012   */\n  gt\n    /* \"#utility.yul\":10995:11035   */\n  iszero\n  tag_221\n  jumpi\n    /* \"#utility.yul\":11015:11033   */\n  tag_222\n  tag_84\n  jump\t// in\ntag_222:\n    /* \"#utility.yul\":10995:11035   */\ntag_221:\n    /* \"#utility.yul\":11048:11053   */\n  jump(tag_210)\n    /* \"#utility.yul\":10817:11063   */\ntag_220:\n    /* \"#utility.yul\":11088:11130   */\n  tag_223\n    /* \"#utility.yul\":11126:11129   */\n  dup5\n    /* \"#utility.yul\":11116:11124   */\n  dup5\n    /* \"#utility.yul\":11110:11114   */\n  dup5\n    /* \"#utility.yul\":11107:11108   */\n  0x01\n    /* \"#utility.yul\":11088:11130   */\n  tag_86\n  jump\t// in\ntag_223:\n    /* \"#utility.yul\":11073:11130   */\n  swap3\n  pop\n  swap1\n  pop\n    /* \"#utility.yul\":11162:11166   */\n  dup2\n    /* \"#utility.yul\":11157:11160   */\n  dup5\n    /* \"#utility.yul\":11153:11167   */\n  div\n    /* \"#utility.yul\":11146:11151   */\n  dup2\n    /* \"#utility.yul\":11143:11168   */\n  gt\n    /* \"#utility.yul\":11140:11191   */\n  iszero\n  tag_224\n  jumpi\n    /* \"#utility.yul\":11171:11189   */\n  tag_225\n  tag_84\n  jump\t// in\ntag_225:\n    /* \"#utility.yul\":11140:11191   */\ntag_224:\n    /* \"#utility.yul\":11220:11224   */\n  dup2\n    /* \"#utility.yul\":11213:11218   */\n  dup2\n    /* \"#utility.yul\":11209:11225   */\n  mul\n    /* \"#utility.yul\":11200:11225   */\n  swap1\n  pop\n    /* \"#utility.yul\":10158:11231   */\ntag_210:\n  swap4\n  swap3\n  pop\n  pop\n  pop\n  jump\t// out\n    /* \"#utility.yul\":11237:11522   */\ntag_15:\n    /* \"#utility.yul\":11297:11302   */\n  0x00\n    /* \"#utility.yul\":11321:11344   */\n  tag_227\n    /* \"#utility.yul\":11339:11343   */\n  dup3\n    /* \"#utility.yul\":11321:11344   */\n  tag_63\n  jump\t// in\ntag_227:\n    /* \"#utility.yul\":11313:11344   */\n  swap2\n  pop\n    /* \"#utility.yul\":11365:11392   */\n  tag_228\n    /* \"#utility.yul\":11383:11391   */\n  dup4\n    /* \"#utility.yul\":11365:11392   */\n  tag_63\n  jump\t// in\ntag_228:\n    /* \"#utility.yul\":11353:11392   */\n  swap3\n  pop\n    /* \"#utility.yul\":11411:11515   */\n  tag_229\n    /* \"#utility.yul\":11448:11514   */\n  0xffffffffffffffffffffffffffffffffffffffffffffffffffffffffffffffff\n    /* \"#utility.yul\":11438:11446   */\n  dup5\n    /* \"#utility.yul\":11432:11436   */\n  dup5\n    /* \"#utility.yul\":11411:11515   */\n  tag_87\n  jump\t// in\ntag_229:\n    /* \"#utility.yul\":11402:11515   */\n  swap1\n  pop\n    /* \"#utility.yul\":11237:11522   */\n  swap3\n  swap2\n  pop\n  pop\n  jump\t// out\n    /* \"#utility.yul\":11528:11938   */\ntag_17:\n    /* \"#utility.yul\":11568:11575   */\n  0x00\n    /* \"#utility.yul\":11591:11611   */\n  tag_231\n    /* \"#utility.yul\":11609:11610   */\n  dup3\n    /* \"#utility.yul\":11591:11611   */\n  tag_63\n  jump\t// in\ntag_231:\n    /* \"#utility.yul\":11586:11611   */\n  swap2\n  pop\n    /* \"#utility.yul\":11625:11645   */\n  tag_232\n    /* \"#utility.yul\":11643:11644   */\n  dup4\n    /* \"#utility.yul\":11625:11645   */\n  tag_63\n  jump\t// in\ntag_232:\n    /* \"#utility.yul\":11620:11645   */\n  swap3\n  pop\n    /* \"#utility.yul\":11680:11681   */\n  dup3\n    /* \"#utility.yul\":11677:11678   */\n  dup3\n    /* \"#utility.yul\":11673:11682   */\n  mul\n    /* \"#utility.yul\":11702:11732   */\n  tag_233\n    /* \"#utility.yul\":11720:11731   */\n  dup2\n    /* \"#utility.yul\":11702:11732   */\n  tag_63\n  jump\t// in\ntag_233:\n    /* \"#utility.yul\":11691:11732   */\n  swap2\n  pop\n    /* \"#utility.yul\":11881:11882   */\n  dup3\n    /* \"#utility.yul\":11872:11879   */\n  dup3\n    /* \"#utility.yul\":11868:11883   */\n  div\n    /* \"#utility.yul\":11865:11866   */\n  dup5\n    /* \"#utility.yul\":11862:11884   */\n  eq\n    /* \"#utility.yul\":11842:11843   */\n  dup4\n    /* \"#utility.yul\":11835:11844   */\n  iszero\n    /* \"#utility.yul\":11815:11898   */\n  or\n    /* \"#utility.yul\":11792:11931   */\n  tag_234\n  jumpi\n    /* \"#utility.yul\":11911:11929   */\n  tag_235\n  tag_84\n  jump\t// in\ntag_235:\n    /* \"#utility.yul\":11792:11931   */\ntag_234:\n    /* \"#utility.yul\":11576:11938   */\n  pop\n    /* \"#utility.yul\":11528:11938   */\n  swap3\n  swap2\n  pop\n  pop\n  jump\t// out\n    /* \"#utility.yul\":11944:12070   */\ntag_88:\n    /* \"#utility.yul\":11981:11988   */\n  0x00\n    /* \"#utility.yul\":12021:12063   */\n  0xffffffffffffffffffffffffffffffffffffffff\n    /* \"#utility.yul\":12014:12019   */\n  dup3\n    /* \"#utility.yul\":12010:12064   */\n  and\n    /* \"#utility.yul\":11999:12064   */\n  swap1\n  pop\n    /* \"#utility.yul\":11944:12070   */\n  swap2\n  swap1\n  pop\n  jump\t// out\n    /* \"#utility.yul\":12076:12172   */\ntag_89:\n    /* \"#utility.yul\":12113:12120   */\n  0x00\n    /* \"#utility.yul\":12142:12166   */\n  tag_238\n    /* \"#utility.yul\":12160:12165   */\n  dup3\n    /* \"#utility.yul\":12142:12166   */\n  tag_88\n  jump\t// in\ntag_238:\n    /* \"#utility.yul\":12131:12166   */\n  swap1\n  pop\n    /* \"#utility.yul\":12076:12172   */\n  swap2\n  swap1\n  pop\n  jump\t// out\n    /* \"#utility.yul\":12178:12296   */\ntag_90:\n    /* \"#utility.yul\":12265:12289   */\n  tag_240\n    /* \"#utility.yul\":12283:12288   */\n  dup2\n    /* \"#utility.yul\":12265:12289   */\n  tag_89\n  jump\t// in\ntag_240:\n    /* \"#utility.yul\":12260:12263   */\n  dup3\n    /* \"#utility.yul\":12253:12290   */\n  mstore\n    /* \"#utility.yul\":12178:12296   */\n  pop\n  pop\n  jump\t// out\n    /* \"#utility.yul\":12302:12524   */\ntag_26:\n    /* \"#utility.yul\":12395:12399   */\n  0x00\n    /* \"#utility.yul\":12433:12435   */\n  0x20\n    /* \"#utility.yul\":12422:12431   */\n  dup3\n    /* \"#utility.yul\":12418:12436   */\n  add\n    /* \"#utility.yul\":12410:12436   */\n  swap1\n  pop\n    /* \"#utility.yul\":12446:12517   */\n  tag_242\n    /* \"#utility.yul\":12514:12515   */\n  0x00\n    /* \"#utility.yul\":12503:12512   */\n  dup4\n    /* \"#utility.yul\":12499:12516   */\n  add\n    /* \"#utility.yul\":12490:12496   */\n  dup5\n    /* \"#utility.yul\":12446:12517   */\n  tag_90\n  jump\t// in\ntag_242:\n    /* \"#utility.yul\":12302:12524   */\n  swap3\n  swap2\n  pop\n  pop\n  jump\t// out\n    /* \"#utility.yul\":12530:12721   */\ntag_39:\n    /* \"#utility.yul\":12570:12573   */\n  0x00\n    /* \"#utility.yul\":12589:12609   */\n  tag_244\n    /* \"#utility.yul\":12607:12608   */\n  dup3\n    /* \"#utility.yul\":12589:12609   */\n  tag_63\n  jump\t// in\ntag_244:\n    /* \"#utility.yul\":12584:12609   */\n  swap2\n  pop\n    /* \"#utility.yul\":12623:12643   */\n  tag_245\n    /* \"#utility.yul\":12641:12642   */\n  dup4\n    /* \"#utility.yul\":12623:12643   */\n  tag_63\n  jump\t// in\ntag_245:\n    /* \"#utility.yul\":12618:12643   */\n  swap3\n  pop\n    /* \"#utility.yul\":12666:12667   */\n  dup3\n    /* \"#utility.yul\":12663:12664   */\n  dup3\n    /* \"#utility.yul\":12659:12668   */\n  add\n    /* \"#utility.yul\":12652:12668   */\n  swap1\n  pop\n    /* \"#utility.yul\":12687:12690   */\n  dup1\n    /* \"#utility.yul\":12684:12685   */\n  dup3\n    /* \"#utility.yul\":12681:12691   */\n  gt\n    /* \"#utility.yul\":12678:12714   */\n  iszero\n  tag_246\n  jumpi\n    /* \"#utility.yul\":12694:12712   */\n  tag_247\n  tag_84\n  jump\t// in\ntag_247:\n    /* \"#utility.yul\":12678:12714   */\ntag_246:\n    /* \"#utility.yul\":12530:12721   */\n  swap3\n  swap2\n  pop\n  pop\n  jump\t// out\n    /* \"#utility.yul\":12727:12845   */\ntag_91:\n    /* \"#utility.yul\":12814:12838   */\n  tag_249\n    /* \"#utility.yul\":12832:12837   */\n  dup2\n    /* \"#utility.yul\":12814:12838   */\n  tag_63\n  jump\t// in\ntag_249:\n    /* \"#utility.yul\":12809:12812   */\n  dup3\n    /* \"#utility.yul\":12802:12839   */\n  mstore\n    /* \"#utility.yul\":12727:12845   */\n  pop\n  pop\n  jump\t// out\n    /* \"#utility.yul\":12851:13293   */\ntag_43:\n    /* \"#utility.yul\":13000:13004   */\n  0x00\n    /* \"#utility.yul\":13038:13040   */\n  0x60\n    /* \"#utility.yul\":13027:13036   */\n  dup3\n    /* \"#utility.yul\":13023:13041   */\n  add\n    /* \"#utility.yul\":13015:13041   */\n  swap1\n  pop\n    /* \"#utility.yul\":13051:13122   */\n  tag_251\n    /* \"#utility.yul\":13119:13120   */\n  0x00\n    /* \"#utility.yul\":13108:13117   */\n  dup4\n    /* \"#utility.yul\":13104:13121   */\n  add\n    /* \"#utility.yul\":13095:13101   */\n  dup7\n    /* \"#utility.yul\":13051:13122   */\n  tag_90\n  jump\t// in\ntag_251:\n    /* \"#utility.yul\":13132:13204   */\n  tag_252\n    /* \"#utility.yul\":13200:13202   */\n  0x20\n    /* \"#utility.yul\":13189:13198   */\n  dup4\n    /* \"#utility.yul\":13185:13203   */\n  add\n    /* \"#utility.yul\":13176:13182   */\n  dup6\n    /* \"#utility.yul\":13132:13204   */\n  tag_91\n  jump\t// in\ntag_252:\n    /* \"#utility.yul\":13214:13286   */\n  tag_253\n    /* \"#utility.yul\":13282:13284   */\n  0x40\n    /* \"#utility.yul\":13271:13280   */\n  dup4\n    /* \"#utility.yul\":13267:13285   */\n  add\n    /* \"#utility.yul\":13258:13264   */\n  dup5\n    /* \"#utility.yul\":13214:13286   */\n  tag_91\n  jump\t// in\ntag_253:\n    /* \"#utility.yul\":12851:13293   */\n  swap5\n  swap4\n  pop\n  pop\n  pop\n  pop\n  jump\t// out\n    /* \"#utility.yul\":13299:13521   */\ntag_47:\n    /* \"#utility.yul\":13392:13396   */\n  0x00\n    /* \"#utility.yul\":13430:13432   */\n  0x20\n    /* \"#utility.yul\":13419:13428   */\n  dup3\n    /* \"#utility.yul\":13415:13433   */\n  add\n    /* \"#utility.yul\":13407:13433   */\n  swap1\n  pop\n    /* \"#utility.yul\":13443:13514   */\n  tag_255\n    /* \"#utility.yul\":13511:13512   */\n  0x00\n    /* \"#utility.yul\":13500:13509   */\n  dup4\n    /* \"#utility.yul\":13496:13513   */\n  add\n    /* \"#utility.yul\":13487:13493   */\n  dup5\n    /* \"#utility.yul\":13443:13514   */\n  tag_91\n  jump\t// in\ntag_255:\n    /* \"#utility.yul\":13299:13521   */\n  swap3\n  swap2\n  pop\n  pop\n  jump\t// out\n    /* \"sBNB_flattened.sol\":34115:35350  contract sAsset is ERC20, AccessControl {... */\ntag_21:\n  dataSize(sub_0)\n  dup1\n  dataOffset(sub_0)\n  0x00\n  codecopy\n  0x00\n  return\nstop\n\nsub_0: assembly {\n        /* \"sBNB_flattened.sol\":34115:35350  contract sAsset is ERC20, AccessControl {... */\n      mstore(0x40, 0x80)\n      callvalue\n      dup1\n      iszero\n      tag_1\n      jumpi\n      0x00\n      dup1\n      revert\n    tag_1:\n      pop\n      jumpi(tag_2, lt(calldatasize, 0x04))\n      shr(0xe0, calldataload(0x00))\n      dup1\n      0x40c10f19\n      gt\n      tag_23\n      jumpi\n      dup1\n      0xa217fddf\n      gt\n      tag_24\n      jumpi\n      dup1\n      0xa217fddf\n      eq\n      tag_18\n      jumpi\n      dup1\n      0xa9059cbb\n      eq\n      tag_19\n      jumpi\n      dup1\n      0xd5391393\n      eq\n      tag_20\n      jumpi\n      dup1\n      0xd547741f\n      eq\n      tag_21\n      jumpi\n      dup1\n      0xdd62ed3e\n      eq\n      tag_22\n      jumpi\n      jump(tag_2)\n    tag_24:\n      dup1\n      0x40c10f19\n      eq\n      tag_13\n      jumpi\n      dup1\n      0x70a08231\n      eq\n      tag_14\n      jumpi\n      dup1\n      0x91d14854\n      eq\n      tag_15\n      jumpi\n      dup1\n      0x95d89b41\n      eq\n      tag_16\n      jumpi\n      dup1\n      0x9dc29fac\n      eq\n      tag_17\n      jumpi\n      jump(tag_2)\n    tag_23:\n      dup1\n      0x248a9ca3\n      gt\n      tag_25\n      jumpi\n      dup1\n      0x248a9ca3\n      eq\n      tag_8\n      jumpi\n      dup1\n      0x282c51f3\n      eq\n      tag_9\n      jumpi\n      dup1\n      0x2f2ff15d\n      eq\n      tag_10\n      jumpi\n      dup1\n      0x313ce567\n      eq\n      tag_11\n      jumpi\n      dup1\n      0x36568abe\n      eq\n      tag_12\n      jumpi\n      jump(tag_2)\n    tag_25:\n      dup1\n      0x01ffc9a7\n      eq\n      tag_3\n      jumpi\n      dup1\n      0x06fdde03\n      eq\n      tag_4\n      jumpi\n      dup1\n      0x095ea7b3\n      eq\n      tag_5\n      jumpi\n      dup1\n      0x18160ddd\n      eq\n      tag_6\n      jumpi\n      dup1\n      0x23b872dd\n      eq\n      tag_7\n      jumpi\n    tag_2:\n      0x00\n      dup1\n      revert\n        /* \"sBNB_flattened.sol\":15091:15293  function supportsInterface(bytes4 interfaceId) public view virtual override returns (bool) {... */\n    tag_3:\n      tag_26\n      0x04\n      dup1\n      calldatasize\n      sub\n      dup2\n      add\n      swap1\n      tag_27\n      swap2\n      swap1\n      tag_28\n      jump\t// in\n    tag_27:\n      tag_29\n      jump\t// in\n    tag_26:\n      mload(0x40)\n      tag_30\n      swap2\n      swap1\n      tag_31\n      jump\t// in\n    tag_30:\n      mload(0x40)\n      dup1\n      swap2\n      sub\n      swap1\n      return\n        /* \"sBNB_flattened.sol\":24960:25049  function name() public view virtual returns (string memory) {... */\n    tag_4:\n      tag_32\n      tag_33\n      jump\t// in\n    tag_32:\n      mload(0x40)\n      tag_34\n      swap2\n      swap1\n      tag_35\n      jump\t// in\n    tag_34:\n      mload(0x40)\n      dup1\n      swap2\n      sub\n      swap1\n      return\n        /* \"sBNB_flattened.sol\":27179:27365  function approve(address spender, uint256 value) public virtual returns (bool) {... */\n    tag_5:\n      tag_36\n      0x04\n      dup1\n      calldatasize\n      sub\n      dup2\n      add\n      swap1\n      tag_37\n      swap2\n      swap1\n      tag_38\n      jump\t// in\n    tag_37:\n      tag_39\n      jump\t// in\n    tag_36:\n      mload(0x40)\n      tag_40\n      swap2\n      swap1\n      tag_31\n      jump\t// in\n    tag_40:\n      mload(0x40)\n      dup1\n      swap2\n      sub\n      swap1\n      return\n        /* \"sBNB_flattened.sol\":26030:26127  function totalSupply() public view virtual returns (uint256) {... */\n    tag_6:\n      tag_41\n      tag_42\n      jump\t// in\n    tag_41:\n      mload(0x40)\n      tag_43\n      swap2\n      swap1\n      tag_44\n      jump\t// in\n    tag_43:\n      mload(0x40)\n      dup1\n      swap2\n      sub\n      swap1\n      return\n        /* \"sBNB_flattened.sol\":27925:28169  function transferFrom(address from, address to, uint256 value) public virtual returns (bool) {... */\n    tag_7:\n      tag_45\n      0x04\n      dup1\n      calldatasize\n      sub\n      dup2\n      add\n      swap1\n      tag_46\n      swap2\n      swap1\n      tag_47\n      jump\t// in\n    tag_46:\n      tag_48\n      jump\t// in\n    tag_45:\n      mload(0x40)\n      tag_49\n      swap2\n      swap1\n      tag_31\n      jump\t// in\n    tag_49:\n      mload(0x40)\n      dup1\n      swap2\n      sub\n      swap1\n      return\n        /* \"sBNB_flattened.sol\":16336:16456  function getRoleAdmin(bytes32 role) public view virtual returns (bytes32) {... */\n    tag_8:\n      tag_50\n      0x04\n      dup1\n      calldatasize\n      sub\n      dup2\n      add\n      swap1\n      tag_51\n      swap2\n      swap1\n      tag_52\n      jump\t// in\n    tag_51:\n      tag_53\n      jump\t// in\n    tag_50:\n      mload(0x40)\n      tag_54\n      swap2\n      swap1\n      tag_55\n      jump\t// in\n    tag_54:\n      mload(0x40)\n      dup1\n      swap2\n      sub\n      swap1\n      return\n        /* \"sBNB_flattened.sol\":34294:34356  bytes32 public constant BURNER_ROLE = keccak256(\"BURNER_ROLE\") */\n    tag_9:\n      tag_56\n      tag_57\n      jump\t// in\n    tag_56:\n      mload(0x40)\n      tag_58\n      swap2\n      swap1\n      tag_55\n      jump\t// in\n    tag_58:\n      mload(0x40)\n      dup1\n      swap2\n      sub\n      swap1\n      return\n        /* \"sBNB_flattened.sol\":16752:16888  function grantRole(bytes32 role, address account) public virtual onlyRole(getRoleAdmin(role)) {... */\n    tag_10:\n      tag_59\n      0x04\n      dup1\n      calldatasize\n      sub\n      dup2\n      add\n      swap1\n      tag_60\n      swap2\n      swap1\n      tag_61\n      jump\t// in\n    tag_60:\n      tag_62\n      jump\t// in\n    tag_59:\n      stop\n        /* \"sBNB_flattened.sol\":35258:35348  function decimals() public view virtual override returns (uint8) {... */\n    tag_11:\n      tag_63\n      tag_64\n      jump\t// in\n    tag_63:\n      mload(0x40)\n      tag_65\n      swap2\n      swap1\n      tag_66\n      jump\t// in\n    tag_65:\n      mload(0x40)\n      dup1\n      swap2\n      sub\n      swap1\n      return\n        /* \"sBNB_flattened.sol\":17854:18099  function renounceRole(bytes32 role, address callerConfirmation) public virtual {... */\n    tag_12:\n      tag_67\n      0x04\n      dup1\n      calldatasize\n      sub\n      dup2\n      add\n      swap1\n      tag_68\n      swap2\n      swap1\n      tag_61\n      jump\t// in\n    tag_68:\n      tag_69\n      jump\t// in\n    tag_67:\n      stop\n        /* \"sBNB_flattened.sol\":34938:35089  function mint(address to, uint256 amount) external onlyRole(MINTER_ROLE) {        ... */\n    tag_13:\n      tag_70\n      0x04\n      dup1\n      calldatasize\n      sub\n      dup2\n      add\n      swap1\n      tag_71\n      swap2\n      swap1\n      tag_38\n      jump\t// in\n    tag_71:\n      tag_72\n      jump\t// in\n    tag_70:\n      stop\n        /* \"sBNB_flattened.sol\":26185:26301  function balanceOf(address account) public view virtual returns (uint256) {... */\n    tag_14:\n      tag_73\n      0x04\n      dup1\n      calldatasize\n      sub\n      dup2\n      add\n      swap1\n      tag_74\n      swap2\n      swap1\n      tag_75\n      jump\t// in\n    tag_74:\n      tag_76\n      jump\t// in\n    tag_73:\n      mload(0x40)\n      tag_77\n      swap2\n      swap1\n      tag_44\n      jump\t// in\n    tag_77:\n      mload(0x40)\n      dup1\n      swap2\n      sub\n      swap1\n      return\n        /* \"sBNB_flattened.sol\":15380:15516  function hasRole(bytes32 role, address account) public view virtual returns (bool) {... */\n    tag_15:\n      tag_78\n      0x04\n      dup1\n      calldatasize\n      sub\n      dup2\n      add\n      swap1\n      tag_79\n      swap2\n      swap1\n      tag_61\n      jump\t// in\n    tag_79:\n      tag_80\n      jump\t// in\n    tag_78:\n      mload(0x40)\n      tag_81\n      swap2\n      swap1\n      tag_31\n      jump\t// in\n    tag_81:\n      mload(0x40)\n      dup1\n      swap2\n      sub\n      swap1\n      return\n        /* \"sBNB_flattened.sol\":25162:25255  function symbol() public view virtual returns (string memory) {... */\n    tag_16:\n      tag_82\n      tag_83\n      jump\t// in\n    tag_82:\n      mload(0x40)\n      tag_84\n      swap2\n      swap1\n      tag_35\n      jump\t// in\n    tag_84:\n      mload(0x40)\n      dup1\n      swap2\n      sub\n      swap1\n      return\n        /* \"sBNB_flattened.sol\":35095:35252  function burn(address from, uint256 amount) external onlyRole(BURNER_ROLE) {        ... */\n    tag_17:\n      tag_85\n      0x04\n      dup1\n      calldatasize\n      sub\n      dup2\n      add\n      swap1\n      tag_86\n      swap2\n      swap1\n      tag_38\n      jump\t// in\n    tag_86:\n      tag_87\n      jump\t// in\n    tag_85:\n      stop\n        /* \"sBNB_flattened.sol\":14713:14762  bytes32 public constant DEFAULT_ADMIN_ROLE = 0x00 */\n    tag_18:\n      tag_88\n      tag_89\n      jump\t// in\n    tag_88:\n      mload(0x40)\n      tag_90\n      swap2\n      swap1\n      tag_55\n      jump\t// in\n    tag_90:\n      mload(0x40)\n      dup1\n      swap2\n      sub\n      swap1\n      return\n        /* \"sBNB_flattened.sol\":26496:26674  function transfer(address to, uint256 value) public virtual returns (bool) {... */\n    tag_19:\n      tag_91\n      0x04\n      dup1\n      calldatasize\n      sub\n      dup2\n      add\n      swap1\n      tag_92\n      swap2\n      swap1\n      tag_38\n      jump\t// in\n    tag_92:\n      tag_93\n      jump\t// in\n    tag_91:\n      mload(0x40)\n      tag_94\n      swap2\n      swap1\n      tag_31\n      jump\t// in\n    tag_94:\n      mload(0x40)\n      dup1\n      swap2\n      sub\n      swap1\n      return\n        /* \"sBNB_flattened.sol\":34226:34288  bytes32 public constant MINTER_ROLE = keccak256(\"MINTER_ROLE\") */\n    tag_20:\n      tag_95\n      tag_96\n      jump\t// in\n    tag_95:\n      mload(0x40)\n      tag_97\n      swap2\n      swap1\n      tag_55\n      jump\t// in\n    tag_97:\n      mload(0x40)\n      dup1\n      swap2\n      sub\n      swap1\n      return\n        /* \"sBNB_flattened.sol\":17168:17306  function revokeRole(bytes32 role, address account) public virtual onlyRole(getRoleAdmin(role)) {... */\n    tag_21:\n      tag_98\n      0x04\n      dup1\n      calldatasize\n      sub\n      dup2\n      add\n      swap1\n      tag_99\n      swap2\n      swap1\n      tag_61\n      jump\t// in\n    tag_99:\n      tag_100\n      jump\t// in\n    tag_98:\n      stop\n        /* \"sBNB_flattened.sol\":26732:26872  function allowance(address owner, address spender) public view virtual returns (uint256) {... */\n    tag_22:\n      tag_101\n      0x04\n      dup1\n      calldatasize\n      sub\n      dup2\n      add\n      swap1\n      tag_102\n      swap2\n      swap1\n      tag_103\n      jump\t// in\n    tag_102:\n      tag_104\n      jump\t// in\n    tag_101:\n      mload(0x40)\n      tag_105\n      swap2\n      swap1\n      tag_44\n      jump\t// in\n    tag_105:\n      mload(0x40)\n      dup1\n      swap2\n      sub\n      swap1\n      return\n        /* \"sBNB_flattened.sol\":15091:15293  function supportsInterface(bytes4 interfaceId) public view virtual override returns (bool) {... */\n    tag_29:\n        /* \"sBNB_flattened.sol\":15176:15180  bool */\n      0x00\n        /* \"sBNB_flattened.sol\":15214:15246  type(IAccessControl).interfaceId */\n      0x7965db0b00000000000000000000000000000000000000000000000000000000\n        /* \"sBNB_flattened.sol\":15199:15246  interfaceId == type(IAccessControl).interfaceId */\n      not(0xffffffffffffffffffffffffffffffffffffffffffffffffffffffff)\n      and\n        /* \"sBNB_flattened.sol\":15199:15210  interfaceId */\n      dup3\n        /* \"sBNB_flattened.sol\":15199:15246  interfaceId == type(IAccessControl).interfaceId */\n      not(0xffffffffffffffffffffffffffffffffffffffffffffffffffffffff)\n      and\n      eq\n        /* \"sBNB_flattened.sol\":15199:15286  interfaceId == type(IAccessControl).interfaceId || super.supportsInterface(interfaceId) */\n      dup1\n      tag_107\n      jumpi\n      pop\n        /* \"sBNB_flattened.sol\":15250:15286  super.supportsInterface(interfaceId) */\n      tag_108\n        /* \"sBNB_flattened.sol\":15274:15285  interfaceId */\n      dup3\n        /* \"sBNB_flattened.sol\":15250:15273  super.supportsInterface */\n      tag_109\n        /* \"sBNB_flattened.sol\":15250:15286  super.supportsInterface(interfaceId) */\n      jump\t// in\n    tag_108:\n        /* \"sBNB_flattened.sol\":15199:15286  interfaceId == type(IAccessControl).interfaceId || super.supportsInterface(interfaceId) */\n    tag_107:\n        /* \"sBNB_flattened.sol\":15192:15286  return interfaceId == type(IAccessControl).interfaceId || super.supportsInterface(interfaceId) */\n      swap1\n      pop\n        /* \"sBNB_flattened.sol\":15091:15293  function supportsInterface(bytes4 interfaceId) public view virtual override returns (bool) {... */\n      swap2\n      swap1\n      pop\n      jump\t// out\n        /* \"sBNB_flattened.sol\":24960:25049  function name() public view virtual returns (string memory) {... */\n    tag_33:\n        /* \"sBNB_flattened.sol\":25005:25018  string memory */\n      0x60\n        /* \"sBNB_flattened.sol\":25037:25042  _name */\n      0x03\n        /* \"sBNB_flattened.sol\":25030:25042  return _name */\n      dup1\n      sload\n      tag_111\n      swap1\n      tag_112\n      jump\t// in\n    tag_111:\n      dup1\n      0x1f\n      add\n      0x20\n      dup1\n      swap2\n      div\n      mul\n      0x20\n      add\n      mload(0x40)\n      swap1\n      dup2\n      add\n      0x40\n      mstore\n      dup1\n      swap3\n      swap2\n      swap1\n      dup2\n      dup2\n      mstore\n      0x20\n      add\n      dup3\n      dup1\n      sload\n      tag_113\n      swap1\n      tag_112\n      jump\t// in\n    tag_113:\n      dup1\n      iszero\n      tag_114\n      jumpi\n      dup1\n      0x1f\n      lt\n      tag_115\n      jumpi\n      0x0100\n      dup1\n      dup4\n      sload\n      div\n      mul\n      dup4\n      mstore\n      swap2\n      0x20\n      add\n      swap2\n      jump(tag_114)\n    tag_115:\n      dup3\n      add\n      swap2\n      swap1\n      0x00\n      mstore\n      keccak256(0x00, 0x20)\n      swap1\n    tag_116:\n      dup2\n      sload\n      dup2\n      mstore\n      swap1\n      0x01\n      add\n      swap1\n      0x20\n      add\n      dup1\n      dup4\n      gt\n      tag_116\n      jumpi\n      dup3\n      swap1\n      sub\n      0x1f\n      and\n      dup3\n      add\n      swap2\n    tag_114:\n      pop\n      pop\n      pop\n      pop\n      pop\n      swap1\n      pop\n        /* \"sBNB_flattened.sol\":24960:25049  function name() public view virtual returns (string memory) {... */\n      swap1\n      jump\t// out\n        /* \"sBNB_flattened.sol\":27179:27365  function approve(address spender, uint256 value) public virtual returns (bool) {... */\n    tag_39:\n        /* \"sBNB_flattened.sol\":27252:27256  bool */\n      0x00\n        /* \"sBNB_flattened.sol\":27268:27281  address owner */\n      dup1\n        /* \"sBNB_flattened.sol\":27284:27296  _msgSender() */\n      tag_118\n        /* \"sBNB_flattened.sol\":27284:27294  _msgSender */\n      tag_119\n        /* \"sBNB_flattened.sol\":27284:27296  _msgSender() */\n      jump\t// in\n    tag_118:\n        /* \"sBNB_flattened.sol\":27268:27296  address owner = _msgSender() */\n      swap1\n      pop\n        /* \"sBNB_flattened.sol\":27306:27337  _approve(owner, spender, value) */\n      tag_120\n        /* \"sBNB_flattened.sol\":27315:27320  owner */\n      dup2\n        /* \"sBNB_flattened.sol\":27322:27329  spender */\n      dup6\n        /* \"sBNB_flattened.sol\":27331:27336  value */\n      dup6\n        /* \"sBNB_flattened.sol\":27306:27314  _approve */\n      tag_121\n        /* \"sBNB_flattened.sol\":27306:27337  _approve(owner, spender, value) */\n      jump\t// in\n    tag_120:\n        /* \"sBNB_flattened.sol\":27354:27358  true */\n      0x01\n        /* \"sBNB_flattened.sol\":27347:27358  return true */\n      swap2\n      pop\n      pop\n        /* \"sBNB_flattened.sol\":27179:27365  function approve(address spender, uint256 value) public virtual returns (bool) {... */\n      swap3\n      swap2\n      pop\n      pop\n      jump\t// out\n        /* \"sBNB_flattened.sol\":26030:26127  function totalSupply() public view virtual returns (uint256) {... */\n    tag_42:\n        /* \"sBNB_flattened.sol\":26082:26089  uint256 */\n      0x00\n        /* \"sBNB_flattened.sol\":26108:26120  _totalSupply */\n      sload(0x02)\n        /* \"sBNB_flattened.sol\":26101:26120  return _totalSupply */\n      swap1\n      pop\n        /* \"sBNB_flattened.sol\":26030:26127  function totalSupply() public view virtual returns (uint256) {... */\n      swap1\n      jump\t// out\n        /* \"sBNB_flattened.sol\":27925:28169  function transferFrom(address from, address to, uint256 value) public virtual returns (bool) {... */\n    tag_48:\n        /* \"sBNB_flattened.sol\":28012:28016  bool */\n      0x00\n        /* \"sBNB_flattened.sol\":28028:28043  address spender */\n      dup1\n        /* \"sBNB_flattened.sol\":28046:28058  _msgSender() */\n      tag_124\n        /* \"sBNB_flattened.sol\":28046:28056  _msgSender */\n      tag_119\n        /* \"sBNB_flattened.sol\":28046:28058  _msgSender() */\n      jump\t// in\n    tag_124:\n        /* \"sBNB_flattened.sol\":28028:28058  address spender = _msgSender() */\n      swap1\n      pop\n        /* \"sBNB_flattened.sol\":28068:28105  _spendAllowance(from, spender, value) */\n      tag_125\n        /* \"sBNB_flattened.sol\":28084:28088  from */\n      dup6\n        /* \"sBNB_flattened.sol\":28090:28097  spender */\n      dup3\n        /* \"sBNB_flattened.sol\":28099:28104  value */\n      dup6\n        /* \"sBNB_flattened.sol\":28068:28083  _spendAllowance */\n      tag_126\n        /* \"sBNB_flattened.sol\":28068:28105  _spendAllowance(from, spender, value) */\n      jump\t// in\n    tag_125:\n        /* \"sBNB_flattened.sol\":28115:28141  _transfer(from, to, value) */\n      tag_127\n        /* \"sBNB_flattened.sol\":28125:28129  from */\n      dup6\n        /* \"sBNB_flattened.sol\":28131:28133  to */\n      dup6\n        /* \"sBNB_flattened.sol\":28135:28140  value */\n      dup6\n        /* \"sBNB_flattened.sol\":28115:28124  _transfer */\n      tag_128\n        /* \"sBNB_flattened.sol\":28115:28141  _transfer(from, to, value) */\n      jump\t// in\n    tag_127:\n        /* \"sBNB_flattened.sol\":28158:28162  true */\n      0x01\n        /* \"sBNB_flattened.sol\":28151:28162  return true */\n      swap2\n      pop\n      pop\n        /* \"sBNB_flattened.sol\":27925:28169  function transferFrom(address from, address to, uint256 value) public virtual returns (bool) {... */\n      swap4\n      swap3\n      pop\n      pop\n      pop\n      jump\t// out\n        /* \"sBNB_flattened.sol\":16336:16456  function getRoleAdmin(bytes32 role) public view virtual returns (bytes32) {... */\n    tag_53:\n        /* \"sBNB_flattened.sol\":16401:16408  bytes32 */\n      0x00\n        /* \"sBNB_flattened.sol\":16427:16433  _roles */\n      0x05\n        /* \"sBNB_flattened.sol\":16427:16439  _roles[role] */\n      0x00\n        /* \"sBNB_flattened.sol\":16434:16438  role */\n      dup4\n        /* \"sBNB_flattened.sol\":16427:16439  _roles[role] */\n      dup2\n      mstore\n      0x20\n      add\n      swap1\n      dup2\n      mstore\n      0x20\n      add\n      0x00\n      keccak256\n        /* \"sBNB_flattened.sol\":16427:16449  _roles[role].adminRole */\n      0x01\n      add\n      sload\n        /* \"sBNB_flattened.sol\":16420:16449  return _roles[role].adminRole */\n      swap1\n      pop\n        /* \"sBNB_flattened.sol\":16336:16456  function getRoleAdmin(bytes32 role) public view virtual returns (bytes32) {... */\n      swap2\n      swap1\n      pop\n      jump\t// out\n        /* \"sBNB_flattened.sol\":34294:34356  bytes32 public constant BURNER_ROLE = keccak256(\"BURNER_ROLE\") */\n    tag_57:\n        /* \"sBNB_flattened.sol\":34332:34356  keccak256(\"BURNER_ROLE\") */\n      0x3c11d16cbaffd01df69ce1c404f6340ee057498f5f00246190ea54220576a848\n        /* \"sBNB_flattened.sol\":34294:34356  bytes32 public constant BURNER_ROLE = keccak256(\"BURNER_ROLE\") */\n      dup2\n      jump\t// out\n        /* \"sBNB_flattened.sol\":16752:16888  function grantRole(bytes32 role, address account) public virtual onlyRole(getRoleAdmin(role)) {... */\n    tag_62:\n        /* \"sBNB_flattened.sol\":16826:16844  getRoleAdmin(role) */\n      tag_130\n        /* \"sBNB_flattened.sol\":16839:16843  role */\n      dup3\n        /* \"sBNB_flattened.sol\":16826:16838  getRoleAdmin */\n      tag_53\n        /* \"sBNB_flattened.sol\":16826:16844  getRoleAdmin(role) */\n      jump\t// in\n    tag_130:\n        /* \"sBNB_flattened.sol\":14990:15006  _checkRole(role) */\n      tag_132\n        /* \"sBNB_flattened.sol\":15001:15005  role */\n      dup2\n        /* \"sBNB_flattened.sol\":14990:15000  _checkRole */\n      tag_133\n        /* \"sBNB_flattened.sol\":14990:15006  _checkRole(role) */\n      jump\t// in\n    tag_132:\n        /* \"sBNB_flattened.sol\":16856:16881  _grantRole(role, account) */\n      tag_135\n        /* \"sBNB_flattened.sol\":16867:16871  role */\n      dup4\n        /* \"sBNB_flattened.sol\":16873:16880  account */\n      dup4\n        /* \"sBNB_flattened.sol\":16856:16866  _grantRole */\n      tag_136\n        /* \"sBNB_flattened.sol\":16856:16881  _grantRole(role, account) */\n      jump\t// in\n    tag_135:\n      pop\n        /* \"sBNB_flattened.sol\":16752:16888  function grantRole(bytes32 role, address account) public virtual onlyRole(getRoleAdmin(role)) {... */\n      pop\n      pop\n      pop\n      jump\t// out\n        /* \"sBNB_flattened.sol\":35258:35348  function decimals() public view virtual override returns (uint8) {... */\n    tag_64:\n        /* \"sBNB_flattened.sol\":35316:35321  uint8 */\n      0x00\n        /* \"sBNB_flattened.sol\":35340:35341  8 */\n      0x08\n        /* \"sBNB_flattened.sol\":35333:35341  return 8 */\n      swap1\n      pop\n        /* \"sBNB_flattened.sol\":35258:35348  function decimals() public view virtual override returns (uint8) {... */\n      swap1\n      jump\t// out\n        /* \"sBNB_flattened.sol\":17854:18099  function renounceRole(bytes32 role, address callerConfirmation) public virtual {... */\n    tag_69:\n        /* \"sBNB_flattened.sol\":17969:17981  _msgSender() */\n      tag_139\n        /* \"sBNB_flattened.sol\":17969:17979  _msgSender */\n      tag_119\n        /* \"sBNB_flattened.sol\":17969:17981  _msgSender() */\n      jump\t// in\n    tag_139:\n        /* \"sBNB_flattened.sol\":17947:17981  callerConfirmation != _msgSender() */\n      0xffffffffffffffffffffffffffffffffffffffff\n      and\n        /* \"sBNB_flattened.sol\":17947:17965  callerConfirmation */\n      dup2\n        /* \"sBNB_flattened.sol\":17947:17981  callerConfirmation != _msgSender() */\n      0xffffffffffffffffffffffffffffffffffffffff\n      and\n      eq\n        /* \"sBNB_flattened.sol\":17943:18045  if (callerConfirmation != _msgSender()) {... */\n      tag_140\n      jumpi\n        /* \"sBNB_flattened.sol\":18004:18034  AccessControlBadConfirmation() */\n      mload(0x40)\n      0x6697b23200000000000000000000000000000000000000000000000000000000\n      dup2\n      mstore\n      0x04\n      add\n      mload(0x40)\n      dup1\n      swap2\n      sub\n      swap1\n      revert\n        /* \"sBNB_flattened.sol\":17943:18045  if (callerConfirmation != _msgSender()) {... */\n    tag_140:\n        /* \"sBNB_flattened.sol\":18055:18092  _revokeRole(role, callerConfirmation) */\n      tag_141\n        /* \"sBNB_flattened.sol\":18067:18071  role */\n      dup3\n        /* \"sBNB_flattened.sol\":18073:18091  callerConfirmation */\n      dup3\n        /* \"sBNB_flattened.sol\":18055:18066  _revokeRole */\n      tag_142\n        /* \"sBNB_flattened.sol\":18055:18092  _revokeRole(role, callerConfirmation) */\n      jump\t// in\n    tag_141:\n      pop\n        /* \"sBNB_flattened.sol\":17854:18099  function renounceRole(bytes32 role, address callerConfirmation) public virtual {... */\n      pop\n      pop\n      jump\t// out\n        /* \"sBNB_flattened.sol\":34938:35089  function mint(address to, uint256 amount) external onlyRole(MINTER_ROLE) {        ... */\n    tag_72:\n        /* \"sBNB_flattened.sol\":34264:34288  keccak256(\"MINTER_ROLE\") */\n      0x9f2df0fed2c77648de5860a4cc508cd0818c85b8b8a1ab4ceeef8d981c8956a6\n        /* \"sBNB_flattened.sol\":14990:15006  _checkRole(role) */\n      tag_144\n        /* \"sBNB_flattened.sol\":15001:15005  role */\n      dup2\n        /* \"sBNB_flattened.sol\":14990:15000  _checkRole */\n      tag_133\n        /* \"sBNB_flattened.sol\":14990:15006  _checkRole(role) */\n      jump\t// in\n    tag_144:\n        /* \"sBNB_flattened.sol\":35029:35046  _mint(to, amount) */\n      tag_146\n        /* \"sBNB_flattened.sol\":35035:35037  to */\n      dup4\n        /* \"sBNB_flattened.sol\":35039:35045  amount */\n      dup4\n        /* \"sBNB_flattened.sol\":35029:35034  _mint */\n      tag_147\n        /* \"sBNB_flattened.sol\":35029:35046  _mint(to, amount) */\n      jump\t// in\n    tag_146:\n        /* \"sBNB_flattened.sol\":35061:35082  mintToken(to, amount) */\n      0x79c65068f81072733b15ab3cba61b23110793f90ab099d228a414b186333a81e\n        /* \"sBNB_flattened.sol\":35071:35073  to */\n      dup4\n        /* \"sBNB_flattened.sol\":35075:35081  amount */\n      dup4\n        /* \"sBNB_flattened.sol\":35061:35082  mintToken(to, amount) */\n      mload(0x40)\n      tag_148\n      swap3\n      swap2\n      swap1\n      tag_149\n      jump\t// in\n    tag_148:\n      mload(0x40)\n      dup1\n      swap2\n      sub\n      swap1\n      log1\n        /* \"sBNB_flattened.sol\":34938:35089  function mint(address to, uint256 amount) external onlyRole(MINTER_ROLE) {        ... */\n      pop\n      pop\n      pop\n      jump\t// out\n        /* \"sBNB_flattened.sol\":26185:26301  function balanceOf(address account) public view virtual returns (uint256) {... */\n    tag_76:\n        /* \"sBNB_flattened.sol\":26250:26257  uint256 */\n      0x00\n        /* \"sBNB_flattened.sol\":26276:26285  _balances */\n      dup1\n        /* \"sBNB_flattened.sol\":26276:26294  _balances[account] */\n      0x00\n        /* \"sBNB_flattened.sol\":26286:26293  account */\n      dup4\n        /* \"sBNB_flattened.sol\":26276:26294  _balances[account] */\n      0xffffffffffffffffffffffffffffffffffffffff\n      and\n      0xffffffffffffffffffffffffffffffffffffffff\n      and\n      dup2\n      mstore\n      0x20\n      add\n      swap1\n      dup2\n      mstore\n      0x20\n      add\n      0x00\n      keccak256\n      sload\n        /* \"sBNB_flattened.sol\":26269:26294  return _balances[account] */\n      swap1\n      pop\n        /* \"sBNB_flattened.sol\":26185:26301  function balanceOf(address account) public view virtual returns (uint256) {... */\n      swap2\n      swap1\n      pop\n      jump\t// out\n        /* \"sBNB_flattened.sol\":15380:15516  function hasRole(bytes32 role, address account) public view virtual returns (bool) {... */\n    tag_80:\n        /* \"sBNB_flattened.sol\":15457:15461  bool */\n      0x00\n        /* \"sBNB_flattened.sol\":15480:15486  _roles */\n      0x05\n        /* \"sBNB_flattened.sol\":15480:15492  _roles[role] */\n      0x00\n        /* \"sBNB_flattened.sol\":15487:15491  role */\n      dup5\n        /* \"sBNB_flattened.sol\":15480:15492  _roles[role] */\n      dup2\n      mstore\n      0x20\n      add\n      swap1\n      dup2\n      mstore\n      0x20\n      add\n      0x00\n      keccak256\n        /* \"sBNB_flattened.sol\":15480:15500  _roles[role].hasRole */\n      0x00\n      add\n        /* \"sBNB_flattened.sol\":15480:15509  _roles[role].hasRole[account] */\n      0x00\n        /* \"sBNB_flattened.sol\":15501:15508  account */\n      dup4\n        /* \"sBNB_flattened.sol\":15480:15509  _roles[role].hasRole[account] */\n      0xffffffffffffffffffffffffffffffffffffffff\n      and\n      0xffffffffffffffffffffffffffffffffffffffff\n      and\n      dup2\n      mstore\n      0x20\n      add\n      swap1\n      dup2\n      mstore\n      0x20\n      add\n      0x00\n      keccak256\n      0x00\n      swap1\n      sload\n      swap1\n      0x0100\n      exp\n      swap1\n      div\n      0xff\n      and\n        /* \"sBNB_flattened.sol\":15473:15509  return _roles[role].hasRole[account] */\n      swap1\n      pop\n        /* \"sBNB_flattened.sol\":15380:15516  function hasRole(bytes32 role, address account) public view virtual returns (bool) {... */\n      swap3\n      swap2\n      pop\n      pop\n      jump\t// out\n        /* \"sBNB_flattened.sol\":25162:25255  function symbol() public view virtual returns (string memory) {... */\n    tag_83:\n        /* \"sBNB_flattened.sol\":25209:25222  string memory */\n      0x60\n        /* \"sBNB_flattened.sol\":25241:25248  _symbol */\n      0x04\n        /* \"sBNB_flattened.sol\":25234:25248  return _symbol */\n      dup1\n      sload\n      tag_153\n      swap1\n      tag_112\n      jump\t// in\n    tag_153:\n      dup1\n      0x1f\n      add\n      0x20\n      dup1\n      swap2\n      div\n      mul\n      0x20\n      add\n      mload(0x40)\n      swap1\n      dup2\n      add\n      0x40\n      mstore\n      dup1\n      swap3\n      swap2\n      swap1\n      dup2\n      dup2\n      mstore\n      0x20\n      add\n      dup3\n      dup1\n      sload\n      tag_154\n      swap1\n      tag_112\n      jump\t// in\n    tag_154:\n      dup1\n      iszero\n      tag_155\n      jumpi\n      dup1\n      0x1f\n      lt\n      tag_156\n      jumpi\n      0x0100\n      dup1\n      dup4\n      sload\n      div\n      mul\n      dup4\n      mstore\n      swap2\n      0x20\n      add\n      swap2\n      jump(tag_155)\n    tag_156:\n      dup3\n      add\n      swap2\n      swap1\n      0x00\n      mstore\n      keccak256(0x00, 0x20)\n      swap1\n    tag_157:\n      dup2\n      sload\n      dup2\n      mstore\n      swap1\n      0x01\n      add\n      swap1\n      0x20\n      add\n      dup1\n      dup4\n      gt\n      tag_157\n      jumpi\n      dup3\n      swap1\n      sub\n      0x1f\n      and\n      dup3\n      add\n      swap2\n    tag_155:\n      pop\n      pop\n      pop\n      pop\n      pop\n      swap1\n      pop\n        /* \"sBNB_flattened.sol\":25162:25255  function symbol() public view virtual returns (string memory) {... */\n      swap1\n      jump\t// out\n        /* \"sBNB_flattened.sol\":35095:35252  function burn(address from, uint256 amount) external onlyRole(BURNER_ROLE) {        ... */\n    tag_87:\n        /* \"sBNB_flattened.sol\":34332:34356  keccak256(\"BURNER_ROLE\") */\n      0x3c11d16cbaffd01df69ce1c404f6340ee057498f5f00246190ea54220576a848\n        /* \"sBNB_flattened.sol\":14990:15006  _checkRole(role) */\n      tag_159\n        /* \"sBNB_flattened.sol\":15001:15005  role */\n      dup2\n        /* \"sBNB_flattened.sol\":14990:15000  _checkRole */\n      tag_133\n        /* \"sBNB_flattened.sol\":14990:15006  _checkRole(role) */\n      jump\t// in\n    tag_159:\n        /* \"sBNB_flattened.sol\":35188:35207  _burn(from, amount) */\n      tag_161\n        /* \"sBNB_flattened.sol\":35194:35198  from */\n      dup4\n        /* \"sBNB_flattened.sol\":35200:35206  amount */\n      dup4\n        /* \"sBNB_flattened.sol\":35188:35193  _burn */\n      tag_162\n        /* \"sBNB_flattened.sol\":35188:35207  _burn(from, amount) */\n      jump\t// in\n    tag_161:\n        /* \"sBNB_flattened.sol\":35222:35245  burnToken(from, amount) */\n      0xd1df306c742159c188c29d2c167874a39b84fd0f96f794ad7ea53295680ec1c5\n        /* \"sBNB_flattened.sol\":35232:35236  from */\n      dup4\n        /* \"sBNB_flattened.sol\":35238:35244  amount */\n      dup4\n        /* \"sBNB_flattened.sol\":35222:35245  burnToken(from, amount) */\n      mload(0x40)\n      tag_163\n      swap3\n      swap2\n      swap1\n      tag_149\n      jump\t// in\n    tag_163:\n      mload(0x40)\n      dup1\n      swap2\n      sub\n      swap1\n      log1\n        /* \"sBNB_flattened.sol\":35095:35252  function burn(address from, uint256 amount) external onlyRole(BURNER_ROLE) {        ... */\n      pop\n      pop\n      pop\n      jump\t// out\n        /* \"sBNB_flattened.sol\":14713:14762  bytes32 public constant DEFAULT_ADMIN_ROLE = 0x00 */\n    tag_89:\n        /* \"sBNB_flattened.sol\":14758:14762  0x00 */\n      0x00\n        /* \"sBNB_flattened.sol\":14713:14762  bytes32 public constant DEFAULT_ADMIN_ROLE = 0x00 */\n      dup1\n      shl\n      dup2\n      jump\t// out\n        /* \"sBNB_flattened.sol\":26496:26674  function transfer(address to, uint256 value) public virtual returns (bool) {... */\n    tag_93:\n        /* \"sBNB_flattened.sol\":26565:26569  bool */\n      0x00\n        /* \"sBNB_flattened.sol\":26581:26594  address owner */\n      dup1\n        /* \"sBNB_flattened.sol\":26597:26609  _msgSender() */\n      tag_165\n        /* \"sBNB_flattened.sol\":26597:26607  _msgSender */\n      tag_119\n        /* \"sBNB_flattened.sol\":26597:26609  _msgSender() */\n      jump\t// in\n    tag_165:\n        /* \"sBNB_flattened.sol\":26581:26609  address owner = _msgSender() */\n      swap1\n      pop\n        /* \"sBNB_flattened.sol\":26619:26646  _transfer(owner, to, value) */\n      tag_166\n        /* \"sBNB_flattened.sol\":26629:26634  owner */\n      dup2\n        /* \"sBNB_flattened.sol\":26636:26638  to */\n      dup6\n        /* \"sBNB_flattened.sol\":26640:26645  value */\n      dup6\n        /* \"sBNB_flattened.sol\":26619:26628  _transfer */\n      tag_128\n        /* \"sBNB_flattened.sol\":26619:26646  _transfer(owner, to, value) */\n      jump\t// in\n    tag_166:\n        /* \"sBNB_flattened.sol\":26663:26667  true */\n      0x01\n        /* \"sBNB_flattened.sol\":26656:26667  return true */\n      swap2\n      pop\n      pop\n        /* \"sBNB_flattened.sol\":26496:26674  function transfer(address to, uint256 value) public virtual returns (bool) {... */\n      swap3\n      swap2\n      pop\n      pop\n      jump\t// out\n        /* \"sBNB_flattened.sol\":34226:34288  bytes32 public constant MINTER_ROLE = keccak256(\"MINTER_ROLE\") */\n    tag_96:\n        /* \"sBNB_flattened.sol\":34264:34288  keccak256(\"MINTER_ROLE\") */\n      0x9f2df0fed2c77648de5860a4cc508cd0818c85b8b8a1ab4ceeef8d981c8956a6\n        /* \"sBNB_flattened.sol\":34226:34288  bytes32 public constant MINTER_ROLE = keccak256(\"MINTER_ROLE\") */\n      dup2\n      jump\t// out\n        /* \"sBNB_flattened.sol\":17168:17306  function revokeRole(bytes32 role, address account) public virtual onlyRole(getRoleAdmin(role)) {... */\n    tag_100:\n        /* \"sBNB_flattened.sol\":17243:17261  getRoleAdmin(role) */\n      tag_167\n        /* \"sBNB_flattened.sol\":17256:17260  role */\n      dup3\n        /* \"sBNB_flattened.sol\":17243:17255  getRoleAdmin */\n      tag_53\n        /* \"sBNB_flattened.sol\":17243:17261  getRoleAdmin(role) */\n      jump\t// in\n    tag_167:\n        /* \"sBNB_flattened.sol\":14990:15006  _checkRole(role) */\n      tag_169\n        /* \"sBNB_flattened.sol\":15001:15005  role */\n      dup2\n        /* \"sBNB_flattened.sol\":14990:15000  _checkRole */\n      tag_133\n        /* \"sBNB_flattened.sol\":14990:15006  _checkRole(role) */\n      jump\t// in\n    tag_169:\n        /* \"sBNB_flattened.sol\":17273:17299  _revokeRole(role, account) */\n      tag_171\n        /* \"sBNB_flattened.sol\":17285:17289  role */\n      dup4\n        /* \"sBNB_flattened.sol\":17291:17298  account */\n      dup4\n        /* \"sBNB_flattened.sol\":17273:17284  _revokeRole */\n      tag_142\n        /* \"sBNB_flattened.sol\":17273:17299  _revokeRole(role, account) */\n      jump\t// in\n    tag_171:\n      pop\n        /* \"sBNB_flattened.sol\":17168:17306  function revokeRole(bytes32 role, address account) public virtual onlyRole(getRoleAdmin(role)) {... */\n      pop\n      pop\n      pop\n      jump\t// out\n        /* \"sBNB_flattened.sol\":26732:26872  function allowance(address owner, address spender) public view virtual returns (uint256) {... */\n    tag_104:\n        /* \"sBNB_flattened.sol\":26812:26819  uint256 */\n      0x00\n        /* \"sBNB_flattened.sol\":26838:26849  _allowances */\n      0x01\n        /* \"sBNB_flattened.sol\":26838:26856  _allowances[owner] */\n      0x00\n        /* \"sBNB_flattened.sol\":26850:26855  owner */\n      dup5\n        /* \"sBNB_flattened.sol\":26838:26856  _allowances[owner] */\n      0xffffffffffffffffffffffffffffffffffffffff\n      and\n      0xffffffffffffffffffffffffffffffffffffffff\n      and\n      dup2\n      mstore\n      0x20\n      add\n      swap1\n      dup2\n      mstore\n      0x20\n      add\n      0x00\n      keccak256\n        /* \"sBNB_flattened.sol\":26838:26865  _allowances[owner][spender] */\n      0x00\n        /* \"sBNB_flattened.sol\":26857:26864  spender */\n      dup4\n        /* \"sBNB_flattened.sol\":26838:26865  _allowances[owner][spender] */\n      0xffffffffffffffffffffffffffffffffffffffff\n      and\n      0xffffffffffffffffffffffffffffffffffffffff\n      and\n      dup2\n      mstore\n      0x20\n      add\n      swap1\n      dup2\n      mstore\n      0x20\n      add\n      0x00\n      keccak256\n      sload\n        /* \"sBNB_flattened.sol\":26831:26865  return _allowances[owner][spender] */\n      swap1\n      pop\n        /* \"sBNB_flattened.sol\":26732:26872  function allowance(address owner, address spender) public view virtual returns (uint256) {... */\n      swap3\n      swap2\n      pop\n      pop\n      jump\t// out\n        /* \"sBNB_flattened.sol\":1663:1809  function supportsInterface(bytes4 interfaceId) public view virtual returns (bool) {... */\n    tag_109:\n        /* \"sBNB_flattened.sol\":1739:1743  bool */\n      0x00\n        /* \"sBNB_flattened.sol\":1777:1802  type(IERC165).interfaceId */\n      0x01ffc9a700000000000000000000000000000000000000000000000000000000\n        /* \"sBNB_flattened.sol\":1762:1802  interfaceId == type(IERC165).interfaceId */\n      not(0xffffffffffffffffffffffffffffffffffffffffffffffffffffffff)\n      and\n        /* \"sBNB_flattened.sol\":1762:1773  interfaceId */\n      dup3\n        /* \"sBNB_flattened.sol\":1762:1802  interfaceId == type(IERC165).interfaceId */\n      not(0xffffffffffffffffffffffffffffffffffffffffffffffffffffffff)\n      and\n      eq\n        /* \"sBNB_flattened.sol\":1755:1802  return interfaceId == type(IERC165).interfaceId */\n      swap1\n      pop\n        /* \"sBNB_flattened.sol\":1663:1809  function supportsInterface(bytes4 interfaceId) public view virtual returns (bool) {... */\n      swap2\n      swap1\n      pop\n      jump\t// out\n        /* \"sBNB_flattened.sol\":12345:12441  function _msgSender() internal view virtual returns (address) {... */\n    tag_119:\n        /* \"sBNB_flattened.sol\":12398:12405  address */\n      0x00\n        /* \"sBNB_flattened.sol\":12424:12434  msg.sender */\n      caller\n        /* \"sBNB_flattened.sol\":12417:12434  return msg.sender */\n      swap1\n      pop\n        /* \"sBNB_flattened.sol\":12345:12441  function _msgSender() internal view virtual returns (address) {... */\n      swap1\n      jump\t// out\n        /* \"sBNB_flattened.sol\":31875:32003  function _approve(address owner, address spender, uint256 value) internal {... */\n    tag_121:\n        /* \"sBNB_flattened.sol\":31959:31996  _approve(owner, spender, value, true) */\n      tag_176\n        /* \"sBNB_flattened.sol\":31968:31973  owner */\n      dup4\n        /* \"sBNB_flattened.sol\":31975:31982  spender */\n      dup4\n        /* \"sBNB_flattened.sol\":31984:31989  value */\n      dup4\n        /* \"sBNB_flattened.sol\":31991:31995  true */\n      0x01\n        /* \"sBNB_flattened.sol\":31959:31967  _approve */\n      tag_177\n        /* \"sBNB_flattened.sol\":31959:31996  _approve(owner, spender, value, true) */\n      jump\t// in\n    tag_176:\n        /* \"sBNB_flattened.sol\":31875:32003  function _approve(address owner, address spender, uint256 value) internal {... */\n      pop\n      pop\n      pop\n      jump\t// out\n        /* \"sBNB_flattened.sol\":33549:34026  function _spendAllowance(address owner, address spender, uint256 value) internal virtual {... */\n    tag_126:\n        /* \"sBNB_flattened.sol\":33648:33672  uint256 currentAllowance */\n      0x00\n        /* \"sBNB_flattened.sol\":33675:33700  allowance(owner, spender) */\n      tag_179\n        /* \"sBNB_flattened.sol\":33685:33690  owner */\n      dup5\n        /* \"sBNB_flattened.sol\":33692:33699  spender */\n      dup5\n        /* \"sBNB_flattened.sol\":33675:33684  allowance */\n      tag_104\n        /* \"sBNB_flattened.sol\":33675:33700  allowance(owner, spender) */\n      jump\t// in\n    tag_179:\n        /* \"sBNB_flattened.sol\":33648:33700  uint256 currentAllowance = allowance(owner, spender) */\n      swap1\n      pop\n        /* \"sBNB_flattened.sol\":33734:33751  type(uint256).max */\n      0xffffffffffffffffffffffffffffffffffffffffffffffffffffffffffffffff\n        /* \"sBNB_flattened.sol\":33714:33730  currentAllowance */\n      dup2\n        /* \"sBNB_flattened.sol\":33714:33751  currentAllowance != type(uint256).max */\n      eq\n        /* \"sBNB_flattened.sol\":33710:34020  if (currentAllowance != type(uint256).max) {... */\n      tag_180\n      jumpi\n        /* \"sBNB_flattened.sol\":33790:33795  value */\n      dup2\n        /* \"sBNB_flattened.sol\":33771:33787  currentAllowance */\n      dup2\n        /* \"sBNB_flattened.sol\":33771:33795  currentAllowance < value */\n      lt\n        /* \"sBNB_flattened.sol\":33767:33897  if (currentAllowance < value) {... */\n      iszero\n      tag_181\n      jumpi\n        /* \"sBNB_flattened.sol\":33849:33856  spender */\n      dup3\n        /* \"sBNB_flattened.sol\":33858:33874  currentAllowance */\n      dup2\n        /* \"sBNB_flattened.sol\":33876:33881  value */\n      dup4\n        /* \"sBNB_flattened.sol\":33822:33882  ERC20InsufficientAllowance(spender, currentAllowance, value) */\n      mload(0x40)\n      0xfb8f41b200000000000000000000000000000000000000000000000000000000\n      dup2\n      mstore\n      0x04\n      add\n      tag_182\n      swap4\n      swap3\n      swap2\n      swap1\n      tag_183\n      jump\t// in\n    tag_182:\n      mload(0x40)\n      dup1\n      swap2\n      sub\n      swap1\n      revert\n        /* \"sBNB_flattened.sol\":33767:33897  if (currentAllowance < value) {... */\n    tag_181:\n        /* \"sBNB_flattened.sol\":33938:33995  _approve(owner, spender, currentAllowance - value, false) */\n      tag_184\n        /* \"sBNB_flattened.sol\":33947:33952  owner */\n      dup5\n        /* \"sBNB_flattened.sol\":33954:33961  spender */\n      dup5\n        /* \"sBNB_flattened.sol\":33982:33987  value */\n      dup5\n        /* \"sBNB_flattened.sol\":33963:33979  currentAllowance */\n      dup5\n        /* \"sBNB_flattened.sol\":33963:33987  currentAllowance - value */\n      sub\n        /* \"sBNB_flattened.sol\":33989:33994  false */\n      0x00\n        /* \"sBNB_flattened.sol\":33938:33946  _approve */\n      tag_177\n        /* \"sBNB_flattened.sol\":33938:33995  _approve(owner, spender, currentAllowance - value, false) */\n      jump\t// in\n    tag_184:\n        /* \"sBNB_flattened.sol\":33710:34020  if (currentAllowance != type(uint256).max) {... */\n    tag_180:\n        /* \"sBNB_flattened.sol\":33638:34026  {... */\n      pop\n        /* \"sBNB_flattened.sol\":33549:34026  function _spendAllowance(address owner, address spender, uint256 value) internal virtual {... */\n      pop\n      pop\n      pop\n      jump\t// out\n        /* \"sBNB_flattened.sol\":28542:28842  function _transfer(address from, address to, uint256 value) internal {... */\n    tag_128:\n        /* \"sBNB_flattened.sol\":28641:28642  0 */\n      0x00\n        /* \"sBNB_flattened.sol\":28625:28643  from == address(0) */\n      0xffffffffffffffffffffffffffffffffffffffff\n      and\n        /* \"sBNB_flattened.sol\":28625:28629  from */\n      dup4\n        /* \"sBNB_flattened.sol\":28625:28643  from == address(0) */\n      0xffffffffffffffffffffffffffffffffffffffff\n      and\n      sub\n        /* \"sBNB_flattened.sol\":28621:28707  if (from == address(0)) {... */\n      tag_186\n      jumpi\n        /* \"sBNB_flattened.sol\":28693:28694  0 */\n      0x00\n        /* \"sBNB_flattened.sol\":28666:28696  ERC20InvalidSender(address(0)) */\n      mload(0x40)\n      0x96c6fd1e00000000000000000000000000000000000000000000000000000000\n      dup2\n      mstore\n      0x04\n      add\n      tag_187\n      swap2\n      swap1\n      tag_188\n      jump\t// in\n    tag_187:\n      mload(0x40)\n      dup1\n      swap2\n      sub\n      swap1\n      revert\n        /* \"sBNB_flattened.sol\":28621:28707  if (from == address(0)) {... */\n    tag_186:\n        /* \"sBNB_flattened.sol\":28734:28735  0 */\n      0x00\n        /* \"sBNB_flattened.sol\":28720:28736  to == address(0) */\n      0xffffffffffffffffffffffffffffffffffffffff\n      and\n        /* \"sBNB_flattened.sol\":28720:28722  to */\n      dup3\n        /* \"sBNB_flattened.sol\":28720:28736  to == address(0) */\n      0xffffffffffffffffffffffffffffffffffffffff\n      and\n      sub\n        /* \"sBNB_flattened.sol\":28716:28802  if (to == address(0)) {... */\n      tag_189\n      jumpi\n        /* \"sBNB_flattened.sol\":28788:28789  0 */\n      0x00\n        /* \"sBNB_flattened.sol\":28759:28791  ERC20InvalidReceiver(address(0)) */\n      mload(0x40)\n      0xec442f0500000000000000000000000000000000000000000000000000000000\n      dup2\n      mstore\n      0x04\n      add\n      tag_190\n      swap2\n      swap1\n      tag_188\n      jump\t// in\n    tag_190:\n      mload(0x40)\n      dup1\n      swap2\n      sub\n      swap1\n      revert\n        /* \"sBNB_flattened.sol\":28716:28802  if (to == address(0)) {... */\n    tag_189:\n        /* \"sBNB_flattened.sol\":28811:28835  _update(from, to, value) */\n      tag_191\n        /* \"sBNB_flattened.sol\":28819:28823  from */\n      dup4\n        /* \"sBNB_flattened.sol\":28825:28827  to */\n      dup4\n        /* \"sBNB_flattened.sol\":28829:28834  value */\n      dup4\n        /* \"sBNB_flattened.sol\":28811:28818  _update */\n      tag_192\n        /* \"sBNB_flattened.sol\":28811:28835  _update(from, to, value) */\n      jump\t// in\n    tag_191:\n        /* \"sBNB_flattened.sol\":28542:28842  function _transfer(address from, address to, uint256 value) internal {... */\n      pop\n      pop\n      pop\n      jump\t// out\n        /* \"sBNB_flattened.sol\":15725:15828  function _checkRole(bytes32 role) internal view virtual {... */\n    tag_133:\n        /* \"sBNB_flattened.sol\":15791:15821  _checkRole(role, _msgSender()) */\n      tag_194\n        /* \"sBNB_flattened.sol\":15802:15806  role */\n      dup2\n        /* \"sBNB_flattened.sol\":15808:15820  _msgSender() */\n      tag_195\n        /* \"sBNB_flattened.sol\":15808:15818  _msgSender */\n      tag_119\n        /* \"sBNB_flattened.sol\":15808:15820  _msgSender() */\n      jump\t// in\n    tag_195:\n        /* \"sBNB_flattened.sol\":15791:15801  _checkRole */\n      tag_196\n        /* \"sBNB_flattened.sol\":15791:15821  _checkRole(role, _msgSender()) */\n      jump\t// in\n    tag_194:\n        /* \"sBNB_flattened.sol\":15725:15828  function _checkRole(bytes32 role) internal view virtual {... */\n      pop\n      jump\t// out\n        /* \"sBNB_flattened.sol\":18705:19021  function _grantRole(bytes32 role, address account) internal virtual returns (bool) {... */\n    tag_136:\n        /* \"sBNB_flattened.sol\":18782:18786  bool */\n      0x00\n        /* \"sBNB_flattened.sol\":18803:18825  hasRole(role, account) */\n      tag_198\n        /* \"sBNB_flattened.sol\":18811:18815  role */\n      dup4\n        /* \"sBNB_flattened.sol\":18817:18824  account */\n      dup4\n        /* \"sBNB_flattened.sol\":18803:18810  hasRole */\n      tag_80\n        /* \"sBNB_flattened.sol\":18803:18825  hasRole(role, account) */\n      jump\t// in\n    tag_198:\n        /* \"sBNB_flattened.sol\":18798:19015  if (!hasRole(role, account)) {... */\n      tag_199\n      jumpi\n        /* \"sBNB_flattened.sol\":18873:18877  true */\n      0x01\n        /* \"sBNB_flattened.sol\":18841:18847  _roles */\n      0x05\n        /* \"sBNB_flattened.sol\":18841:18853  _roles[role] */\n      0x00\n        /* \"sBNB_flattened.sol\":18848:18852  role */\n      dup6\n        /* \"sBNB_flattened.sol\":18841:18853  _roles[role] */\n      dup2\n      mstore\n      0x20\n      add\n      swap1\n      dup2\n      mstore\n      0x20\n      add\n      0x00\n      keccak256\n        /* \"sBNB_flattened.sol\":18841:18861  _roles[role].hasRole */\n      0x00\n      add\n        /* \"sBNB_flattened.sol\":18841:18870  _roles[role].hasRole[account] */\n      0x00\n        /* \"sBNB_flattened.sol\":18862:18869  account */\n      dup5\n        /* \"sBNB_flattened.sol\":18841:18870  _roles[role].hasRole[account] */\n      0xffffffffffffffffffffffffffffffffffffffff\n      and\n      0xffffffffffffffffffffffffffffffffffffffff\n      and\n      dup2\n      mstore\n      0x20\n      add\n      swap1\n      dup2\n      mstore\n      0x20\n      add\n      0x00\n      keccak256\n      0x00\n        /* \"sBNB_flattened.sol\":18841:18877  _roles[role].hasRole[account] = true */\n      0x0100\n      exp\n      dup2\n      sload\n      dup2\n      0xff\n      mul\n      not\n      and\n      swap1\n      dup4\n      iszero\n      iszero\n      mul\n      or\n      swap1\n      sstore\n      pop\n        /* \"sBNB_flattened.sol\":18923:18935  _msgSender() */\n      tag_200\n        /* \"sBNB_flattened.sol\":18923:18933  _msgSender */\n      tag_119\n        /* \"sBNB_flattened.sol\":18923:18935  _msgSender() */\n      jump\t// in\n    tag_200:\n        /* \"sBNB_flattened.sol\":18896:18936  RoleGranted(role, account, _msgSender()) */\n      0xffffffffffffffffffffffffffffffffffffffff\n      and\n        /* \"sBNB_flattened.sol\":18914:18921  account */\n      dup3\n        /* \"sBNB_flattened.sol\":18896:18936  RoleGranted(role, account, _msgSender()) */\n      0xffffffffffffffffffffffffffffffffffffffff\n      and\n        /* \"sBNB_flattened.sol\":18908:18912  role */\n      dup5\n        /* \"sBNB_flattened.sol\":18896:18936  RoleGranted(role, account, _msgSender()) */\n      0x2f8788117e7eff1d82e926ec794901d17c78024a50270940304540a733656f0d\n      mload(0x40)\n      mload(0x40)\n      dup1\n      swap2\n      sub\n      swap1\n      log4\n        /* \"sBNB_flattened.sol\":18957:18961  true */\n      0x01\n        /* \"sBNB_flattened.sol\":18950:18961  return true */\n      swap1\n      pop\n      jump(tag_197)\n        /* \"sBNB_flattened.sol\":18798:19015  if (!hasRole(role, account)) {... */\n    tag_199:\n        /* \"sBNB_flattened.sol\":18999:19004  false */\n      0x00\n        /* \"sBNB_flattened.sol\":18992:19004  return false */\n      swap1\n      pop\n        /* \"sBNB_flattened.sol\":18705:19021  function _grantRole(bytes32 role, address account) internal virtual returns (bool) {... */\n    tag_197:\n      swap3\n      swap2\n      pop\n      pop\n      jump\t// out\n        /* \"sBNB_flattened.sol\":19256:19573  function _revokeRole(bytes32 role, address account) internal virtual returns (bool) {... */\n    tag_142:\n        /* \"sBNB_flattened.sol\":19334:19338  bool */\n      0x00\n        /* \"sBNB_flattened.sol\":19354:19376  hasRole(role, account) */\n      tag_203\n        /* \"sBNB_flattened.sol\":19362:19366  role */\n      dup4\n        /* \"sBNB_flattened.sol\":19368:19375  account */\n      dup4\n        /* \"sBNB_flattened.sol\":19354:19361  hasRole */\n      tag_80\n        /* \"sBNB_flattened.sol\":19354:19376  hasRole(role, account) */\n      jump\t// in\n    tag_203:\n        /* \"sBNB_flattened.sol\":19350:19567  if (hasRole(role, account)) {... */\n      iszero\n      tag_204\n      jumpi\n        /* \"sBNB_flattened.sol\":19424:19429  false */\n      0x00\n        /* \"sBNB_flattened.sol\":19392:19398  _roles */\n      0x05\n        /* \"sBNB_flattened.sol\":19392:19404  _roles[role] */\n      0x00\n        /* \"sBNB_flattened.sol\":19399:19403  role */\n      dup6\n        /* \"sBNB_flattened.sol\":19392:19404  _roles[role] */\n      dup2\n      mstore\n      0x20\n      add\n      swap1\n      dup2\n      mstore\n      0x20\n      add\n      0x00\n      keccak256\n        /* \"sBNB_flattened.sol\":19392:19412  _roles[role].hasRole */\n      0x00\n      add\n        /* \"sBNB_flattened.sol\":19392:19421  _roles[role].hasRole[account] */\n      0x00\n        /* \"sBNB_flattened.sol\":19413:19420  account */\n      dup5\n        /* \"sBNB_flattened.sol\":19392:19421  _roles[role].hasRole[account] */\n      0xffffffffffffffffffffffffffffffffffffffff\n      and\n      0xffffffffffffffffffffffffffffffffffffffff\n      and\n      dup2\n      mstore\n      0x20\n      add\n      swap1\n      dup2\n      mstore\n      0x20\n      add\n      0x00\n      keccak256\n      0x00\n        /* \"sBNB_flattened.sol\":19392:19429  _roles[role].hasRole[account] = false */\n      0x0100\n      exp\n      dup2\n      sload\n      dup2\n      0xff\n      mul\n      not\n      and\n      swap1\n      dup4\n      iszero\n      iszero\n      mul\n      or\n      swap1\n      sstore\n      pop\n        /* \"sBNB_flattened.sol\":19475:19487  _msgSender() */\n      tag_205\n        /* \"sBNB_flattened.sol\":19475:19485  _msgSender */\n      tag_119\n        /* \"sBNB_flattened.sol\":19475:19487  _msgSender() */\n      jump\t// in\n    tag_205:\n        /* \"sBNB_flattened.sol\":19448:19488  RoleRevoked(role, account, _msgSender()) */\n      0xffffffffffffffffffffffffffffffffffffffff\n      and\n        /* \"sBNB_flattened.sol\":19466:19473  account */\n      dup3\n        /* \"sBNB_flattened.sol\":19448:19488  RoleRevoked(role, account, _msgSender()) */\n      0xffffffffffffffffffffffffffffffffffffffff\n      and\n        /* \"sBNB_flattened.sol\":19460:19464  role */\n      dup5\n        /* \"sBNB_flattened.sol\":19448:19488  RoleRevoked(role, account, _msgSender()) */\n      0xf6391f5c32d9c69d2a47ea670b442974b53935d1edc7fd64eb21e047a839171b\n      mload(0x40)\n      mload(0x40)\n      dup1\n      swap2\n      sub\n      swap1\n      log4\n        /* \"sBNB_flattened.sol\":19509:19513  true */\n      0x01\n        /* \"sBNB_flattened.sol\":19502:19513  return true */\n      swap1\n      pop\n      jump(tag_202)\n        /* \"sBNB_flattened.sol\":19350:19567  if (hasRole(role, account)) {... */\n    tag_204:\n        /* \"sBNB_flattened.sol\":19551:19556  false */\n      0x00\n        /* \"sBNB_flattened.sol\":19544:19556  return false */\n      swap1\n      pop\n        /* \"sBNB_flattened.sol\":19256:19573  function _revokeRole(bytes32 role, address account) internal virtual returns (bool) {... */\n    tag_202:\n      swap3\n      swap2\n      pop\n      pop\n      jump\t// out\n        /* \"sBNB_flattened.sol\":30607:30815  function _mint(address account, uint256 value) internal {... */\n    tag_147:\n        /* \"sBNB_flattened.sol\":30696:30697  0 */\n      0x00\n        /* \"sBNB_flattened.sol\":30677:30698  account == address(0) */\n      0xffffffffffffffffffffffffffffffffffffffff\n      and\n        /* \"sBNB_flattened.sol\":30677:30684  account */\n      dup3\n        /* \"sBNB_flattened.sol\":30677:30698  account == address(0) */\n      0xffffffffffffffffffffffffffffffffffffffff\n      and\n      sub\n        /* \"sBNB_flattened.sol\":30673:30764  if (account == address(0)) {... */\n      tag_208\n      jumpi\n        /* \"sBNB_flattened.sol\":30750:30751  0 */\n      0x00\n        /* \"sBNB_flattened.sol\":30721:30753  ERC20InvalidReceiver(address(0)) */\n      mload(0x40)\n      0xec442f0500000000000000000000000000000000000000000000000000000000\n      dup2\n      mstore\n      0x04\n      add\n      tag_209\n      swap2\n      swap1\n      tag_188\n      jump\t// in\n    tag_209:\n      mload(0x40)\n      dup1\n      swap2\n      sub\n      swap1\n      revert\n        /* \"sBNB_flattened.sol\":30673:30764  if (account == address(0)) {... */\n    tag_208:\n        /* \"sBNB_flattened.sol\":30773:30808  _update(address(0), account, value) */\n      tag_210\n        /* \"sBNB_flattened.sol\":30789:30790  0 */\n      0x00\n        /* \"sBNB_flattened.sol\":30793:30800  account */\n      dup4\n        /* \"sBNB_flattened.sol\":30802:30807  value */\n      dup4\n        /* \"sBNB_flattened.sol\":30773:30780  _update */\n      tag_192\n        /* \"sBNB_flattened.sol\":30773:30808  _update(address(0), account, value) */\n      jump\t// in\n    tag_210:\n        /* \"sBNB_flattened.sol\":30607:30815  function _mint(address account, uint256 value) internal {... */\n      pop\n      pop\n      jump\t// out\n        /* \"sBNB_flattened.sol\":31133:31339  function _burn(address account, uint256 value) internal {... */\n    tag_162:\n        /* \"sBNB_flattened.sol\":31222:31223  0 */\n      0x00\n        /* \"sBNB_flattened.sol\":31203:31224  account == address(0) */\n      0xffffffffffffffffffffffffffffffffffffffff\n      and\n        /* \"sBNB_flattened.sol\":31203:31210  account */\n      dup3\n        /* \"sBNB_flattened.sol\":31203:31224  account == address(0) */\n      0xffffffffffffffffffffffffffffffffffffffff\n      and\n      sub\n        /* \"sBNB_flattened.sol\":31199:31288  if (account == address(0)) {... */\n      tag_212\n      jumpi\n        /* \"sBNB_flattened.sol\":31274:31275  0 */\n      0x00\n        /* \"sBNB_flattened.sol\":31247:31277  ERC20InvalidSender(address(0)) */\n      mload(0x40)\n      0x96c6fd1e00000000000000000000000000000000000000000000000000000000\n      dup2\n      mstore\n      0x04\n      add\n      tag_213\n      swap2\n      swap1\n      tag_188\n      jump\t// in\n    tag_213:\n      mload(0x40)\n      dup1\n      swap2\n      sub\n      swap1\n      revert\n        /* \"sBNB_flattened.sol\":31199:31288  if (account == address(0)) {... */\n    tag_212:\n        /* \"sBNB_flattened.sol\":31297:31332  _update(account, address(0), value) */\n      tag_214\n        /* \"sBNB_flattened.sol\":31305:31312  account */\n      dup3\n        /* \"sBNB_flattened.sol\":31322:31323  0 */\n      0x00\n        /* \"sBNB_flattened.sol\":31326:31331  value */\n      dup4\n        /* \"sBNB_flattened.sol\":31297:31304  _update */\n      tag_192\n        /* \"sBNB_flattened.sol\":31297:31332  _update(account, address(0), value) */\n      jump\t// in\n    tag_214:\n        /* \"sBNB_flattened.sol\":31133:31339  function _burn(address account, uint256 value) internal {... */\n      pop\n      pop\n      jump\t// out\n        /* \"sBNB_flattened.sol\":32835:33267  function _approve(address owner, address spender, uint256 value, bool emitEvent) internal virtual {... */\n    tag_177:\n        /* \"sBNB_flattened.sol\":32964:32965  0 */\n      0x00\n        /* \"sBNB_flattened.sol\":32947:32966  owner == address(0) */\n      0xffffffffffffffffffffffffffffffffffffffff\n      and\n        /* \"sBNB_flattened.sol\":32947:32952  owner */\n      dup5\n        /* \"sBNB_flattened.sol\":32947:32966  owner == address(0) */\n      0xffffffffffffffffffffffffffffffffffffffff\n      and\n      sub\n        /* \"sBNB_flattened.sol\":32943:33032  if (owner == address(0)) {... */\n      tag_216\n      jumpi\n        /* \"sBNB_flattened.sol\":33018:33019  0 */\n      0x00\n        /* \"sBNB_flattened.sol\":32989:33021  ERC20InvalidApprover(address(0)) */\n      mload(0x40)\n      0xe602df0500000000000000000000000000000000000000000000000000000000\n      dup2\n      mstore\n      0x04\n      add\n      tag_217\n      swap2\n      swap1\n      tag_188\n      jump\t// in\n    tag_217:\n      mload(0x40)\n      dup1\n      swap2\n      sub\n      swap1\n      revert\n        /* \"sBNB_flattened.sol\":32943:33032  if (owner == address(0)) {... */\n    tag_216:\n        /* \"sBNB_flattened.sol\":33064:33065  0 */\n      0x00\n        /* \"sBNB_flattened.sol\":33045:33066  spender == address(0) */\n      0xffffffffffffffffffffffffffffffffffffffff\n      and\n        /* \"sBNB_flattened.sol\":33045:33052  spender */\n      dup4\n        /* \"sBNB_flattened.sol\":33045:33066  spender == address(0) */\n      0xffffffffffffffffffffffffffffffffffffffff\n      and\n      sub\n        /* \"sBNB_flattened.sol\":33041:33131  if (spender == address(0)) {... */\n      tag_218\n      jumpi\n        /* \"sBNB_flattened.sol\":33117:33118  0 */\n      0x00\n        /* \"sBNB_flattened.sol\":33089:33120  ERC20InvalidSpender(address(0)) */\n      mload(0x40)\n      0x94280d6200000000000000000000000000000000000000000000000000000000\n      dup2\n      mstore\n      0x04\n      add\n      tag_219\n      swap2\n      swap1\n      tag_188\n      jump\t// in\n    tag_219:\n      mload(0x40)\n      dup1\n      swap2\n      sub\n      swap1\n      revert\n        /* \"sBNB_flattened.sol\":33041:33131  if (spender == address(0)) {... */\n    tag_218:\n        /* \"sBNB_flattened.sol\":33170:33175  value */\n      dup2\n        /* \"sBNB_flattened.sol\":33140:33151  _allowances */\n      0x01\n        /* \"sBNB_flattened.sol\":33140:33158  _allowances[owner] */\n      0x00\n        /* \"sBNB_flattened.sol\":33152:33157  owner */\n      dup7\n        /* \"sBNB_flattened.sol\":33140:33158  _allowances[owner] */\n      0xffffffffffffffffffffffffffffffffffffffff\n      and\n      0xffffffffffffffffffffffffffffffffffffffff\n      and\n      dup2\n      mstore\n      0x20\n      add\n      swap1\n      dup2\n      mstore\n      0x20\n      add\n      0x00\n      keccak256\n        /* \"sBNB_flattened.sol\":33140:33167  _allowances[owner][spender] */\n      0x00\n        /* \"sBNB_flattened.sol\":33159:33166  spender */\n      dup6\n        /* \"sBNB_flattened.sol\":33140:33167  _allowances[owner][spender] */\n      0xffffffffffffffffffffffffffffffffffffffff\n      and\n      0xffffffffffffffffffffffffffffffffffffffff\n      and\n      dup2\n      mstore\n      0x20\n      add\n      swap1\n      dup2\n      mstore\n      0x20\n      add\n      0x00\n      keccak256\n        /* \"sBNB_flattened.sol\":33140:33175  _allowances[owner][spender] = value */\n      dup2\n      swap1\n      sstore\n      pop\n        /* \"sBNB_flattened.sol\":33189:33198  emitEvent */\n      dup1\n        /* \"sBNB_flattened.sol\":33185:33261  if (emitEvent) {... */\n      iszero\n      tag_220\n      jumpi\n        /* \"sBNB_flattened.sol\":33235:33242  spender */\n      dup3\n        /* \"sBNB_flattened.sol\":33219:33250  Approval(owner, spender, value) */\n      0xffffffffffffffffffffffffffffffffffffffff\n      and\n        /* \"sBNB_flattened.sol\":33228:33233  owner */\n      dup5\n        /* \"sBNB_flattened.sol\":33219:33250  Approval(owner, spender, value) */\n      0xffffffffffffffffffffffffffffffffffffffff\n      and\n      0x8c5be1e5ebec7d5bd14f71427d1e84f3dd0314c0f7b2291e5b200ac8c7c3b925\n        /* \"sBNB_flattened.sol\":33244:33249  value */\n      dup5\n        /* \"sBNB_flattened.sol\":33219:33250  Approval(owner, spender, value) */\n      mload(0x40)\n      tag_221\n      swap2\n      swap1\n      tag_44\n      jump\t// in\n    tag_221:\n      mload(0x40)\n      dup1\n      swap2\n      sub\n      swap1\n      log3\n        /* \"sBNB_flattened.sol\":33185:33261  if (emitEvent) {... */\n    tag_220:\n        /* \"sBNB_flattened.sol\":32835:33267  function _approve(address owner, address spender, uint256 value, bool emitEvent) internal virtual {... */\n      pop\n      pop\n      pop\n      pop\n      jump\t// out\n        /* \"sBNB_flattened.sol\":29157:30264  function _update(address from, address to, uint256 value) internal virtual {... */\n    tag_192:\n        /* \"sBNB_flattened.sol\":29262:29263  0 */\n      0x00\n        /* \"sBNB_flattened.sol\":29246:29264  from == address(0) */\n      0xffffffffffffffffffffffffffffffffffffffff\n      and\n        /* \"sBNB_flattened.sol\":29246:29250  from */\n      dup4\n        /* \"sBNB_flattened.sol\":29246:29264  from == address(0) */\n      0xffffffffffffffffffffffffffffffffffffffff\n      and\n      sub\n        /* \"sBNB_flattened.sol\":29242:29782  if (from == address(0)) {... */\n      tag_223\n      jumpi\n        /* \"sBNB_flattened.sol\":29398:29403  value */\n      dup1\n        /* \"sBNB_flattened.sol\":29382:29394  _totalSupply */\n      0x02\n      0x00\n        /* \"sBNB_flattened.sol\":29382:29403  _totalSupply += value */\n      dup3\n      dup3\n      sload\n      tag_224\n      swap2\n      swap1\n      tag_225\n      jump\t// in\n    tag_224:\n      swap3\n      pop\n      pop\n      dup2\n      swap1\n      sstore\n      pop\n        /* \"sBNB_flattened.sol\":29242:29782  if (from == address(0)) {... */\n      jump(tag_226)\n    tag_223:\n        /* \"sBNB_flattened.sol\":29434:29453  uint256 fromBalance */\n      0x00\n        /* \"sBNB_flattened.sol\":29456:29465  _balances */\n      dup1\n        /* \"sBNB_flattened.sol\":29456:29471  _balances[from] */\n      0x00\n        /* \"sBNB_flattened.sol\":29466:29470  from */\n      dup6\n        /* \"sBNB_flattened.sol\":29456:29471  _balances[from] */\n      0xffffffffffffffffffffffffffffffffffffffff\n      and\n      0xffffffffffffffffffffffffffffffffffffffff\n      and\n      dup2\n      mstore\n      0x20\n      add\n      swap1\n      dup2\n      mstore\n      0x20\n      add\n      0x00\n      keccak256\n      sload\n        /* \"sBNB_flattened.sol\":29434:29471  uint256 fromBalance = _balances[from] */\n      swap1\n      pop\n        /* \"sBNB_flattened.sol\":29503:29508  value */\n      dup2\n        /* \"sBNB_flattened.sol\":29489:29500  fromBalance */\n      dup2\n        /* \"sBNB_flattened.sol\":29489:29508  fromBalance < value */\n      lt\n        /* \"sBNB_flattened.sol\":29485:29600  if (fromBalance < value) {... */\n      iszero\n      tag_227\n      jumpi\n        /* \"sBNB_flattened.sol\":29560:29564  from */\n      dup4\n        /* \"sBNB_flattened.sol\":29566:29577  fromBalance */\n      dup2\n        /* \"sBNB_flattened.sol\":29579:29584  value */\n      dup4\n        /* \"sBNB_flattened.sol\":29535:29585  ERC20InsufficientBalance(from, fromBalance, value) */\n      mload(0x40)\n      0xe450d38c00000000000000000000000000000000000000000000000000000000\n      dup2\n      mstore\n      0x04\n      add\n      tag_228\n      swap4\n      swap3\n      swap2\n      swap1\n      tag_183\n      jump\t// in\n    tag_228:\n      mload(0x40)\n      dup1\n      swap2\n      sub\n      swap1\n      revert\n        /* \"sBNB_flattened.sol\":29485:29600  if (fromBalance < value) {... */\n    tag_227:\n        /* \"sBNB_flattened.sol\":29752:29757  value */\n      dup2\n        /* \"sBNB_flattened.sol\":29738:29749  fromBalance */\n      dup2\n        /* \"sBNB_flattened.sol\":29738:29757  fromBalance - value */\n      sub\n        /* \"sBNB_flattened.sol\":29720:29729  _balances */\n      0x00\n        /* \"sBNB_flattened.sol\":29720:29735  _balances[from] */\n      dup1\n        /* \"sBNB_flattened.sol\":29730:29734  from */\n      dup7\n        /* \"sBNB_flattened.sol\":29720:29735  _balances[from] */\n      0xffffffffffffffffffffffffffffffffffffffff\n      and\n      0xffffffffffffffffffffffffffffffffffffffff\n      and\n      dup2\n      mstore\n      0x20\n      add\n      swap1\n      dup2\n      mstore\n      0x20\n      add\n      0x00\n      keccak256\n        /* \"sBNB_flattened.sol\":29720:29757  _balances[from] = fromBalance - value */\n      dup2\n      swap1\n      sstore\n      pop\n        /* \"sBNB_flattened.sol\":29420:29782  {... */\n      pop\n        /* \"sBNB_flattened.sol\":29242:29782  if (from == address(0)) {... */\n    tag_226:\n        /* \"sBNB_flattened.sol\":29810:29811  0 */\n      0x00\n        /* \"sBNB_flattened.sol\":29796:29812  to == address(0) */\n      0xffffffffffffffffffffffffffffffffffffffff\n      and\n        /* \"sBNB_flattened.sol\":29796:29798  to */\n      dup3\n        /* \"sBNB_flattened.sol\":29796:29812  to == address(0) */\n      0xffffffffffffffffffffffffffffffffffffffff\n      and\n      sub\n        /* \"sBNB_flattened.sol\":29792:30217  if (to == address(0)) {... */\n      tag_229\n      jumpi\n        /* \"sBNB_flattened.sol\":29975:29980  value */\n      dup1\n        /* \"sBNB_flattened.sol\":29959:29971  _totalSupply */\n      0x02\n      0x00\n        /* \"sBNB_flattened.sol\":29959:29980  _totalSupply -= value */\n      dup3\n      dup3\n      sload\n      sub\n      swap3\n      pop\n      pop\n      dup2\n      swap1\n      sstore\n      pop\n        /* \"sBNB_flattened.sol\":29792:30217  if (to == address(0)) {... */\n      jump(tag_230)\n    tag_229:\n        /* \"sBNB_flattened.sol\":30187:30192  value */\n      dup1\n        /* \"sBNB_flattened.sol\":30170:30179  _balances */\n      0x00\n        /* \"sBNB_flattened.sol\":30170:30183  _balances[to] */\n      dup1\n        /* \"sBNB_flattened.sol\":30180:30182  to */\n      dup5\n        /* \"sBNB_flattened.sol\":30170:30183  _balances[to] */\n      0xffffffffffffffffffffffffffffffffffffffff\n      and\n      0xffffffffffffffffffffffffffffffffffffffff\n      and\n      dup2\n      mstore\n      0x20\n      add\n      swap1\n      dup2\n      mstore\n      0x20\n      add\n      0x00\n      keccak256\n      0x00\n        /* \"sBNB_flattened.sol\":30170:30192  _balances[to] += value */\n      dup3\n      dup3\n      sload\n      add\n      swap3\n      pop\n      pop\n      dup2\n      swap1\n      sstore\n      pop\n        /* \"sBNB_flattened.sol\":29792:30217  if (to == address(0)) {... */\n    tag_230:\n        /* \"sBNB_flattened.sol\":30247:30249  to */\n      dup2\n        /* \"sBNB_flattened.sol\":30232:30257  Transfer(from, to, value) */\n      0xffffffffffffffffffffffffffffffffffffffff\n      and\n        /* \"sBNB_flattened.sol\":30241:30245  from */\n      dup4\n        /* \"sBNB_flattened.sol\":30232:30257  Transfer(from, to, value) */\n      0xffffffffffffffffffffffffffffffffffffffff\n      and\n      0xddf252ad1be2c89b69c2b068fc378daa952ba7f163c4a11628f55a4df523b3ef\n        /* \"sBNB_flattened.sol\":30251:30256  value */\n      dup4\n        /* \"sBNB_flattened.sol\":30232:30257  Transfer(from, to, value) */\n      mload(0x40)\n      tag_231\n      swap2\n      swap1\n      tag_44\n      jump\t// in\n    tag_231:\n      mload(0x40)\n      dup1\n      swap2\n      sub\n      swap1\n      log3\n        /* \"sBNB_flattened.sol\":29157:30264  function _update(address from, address to, uint256 value) internal virtual {... */\n      pop\n      pop\n      pop\n      jump\t// out\n        /* \"sBNB_flattened.sol\":15958:16155  function _checkRole(bytes32 role, address account) internal view virtual {... */\n    tag_196:\n        /* \"sBNB_flattened.sol\":16046:16068  hasRole(role, account) */\n      tag_233\n        /* \"sBNB_flattened.sol\":16054:16058  role */\n      dup3\n        /* \"sBNB_flattened.sol\":16060:16067  account */\n      dup3\n        /* \"sBNB_flattened.sol\":16046:16053  hasRole */\n      tag_80\n        /* \"sBNB_flattened.sol\":16046:16068  hasRole(role, account) */\n      jump\t// in\n    tag_233:\n        /* \"sBNB_flattened.sol\":16041:16149  if (!hasRole(role, account)) {... */\n      tag_234\n      jumpi\n        /* \"sBNB_flattened.sol\":16124:16131  account */\n      dup1\n        /* \"sBNB_flattened.sol\":16133:16137  role */\n      dup3\n        /* \"sBNB_flattened.sol\":16091:16138  AccessControlUnauthorizedAccount(account, role) */\n      mload(0x40)\n      0xe2517d3f00000000000000000000000000000000000000000000000000000000\n      dup2\n      mstore\n      0x04\n      add\n      tag_235\n      swap3\n      swap2\n      swap1\n      tag_236\n      jump\t// in\n    tag_235:\n      mload(0x40)\n      dup1\n      swap2\n      sub\n      swap1\n      revert\n        /* \"sBNB_flattened.sol\":16041:16149  if (!hasRole(role, account)) {... */\n    tag_234:\n        /* \"sBNB_flattened.sol\":15958:16155  function _checkRole(bytes32 role, address account) internal view virtual {... */\n      pop\n      pop\n      jump\t// out\n        /* \"#utility.yul\":88:205   */\n    tag_238:\n        /* \"#utility.yul\":197:198   */\n      0x00\n        /* \"#utility.yul\":194:195   */\n      dup1\n        /* \"#utility.yul\":187:199   */\n      revert\n        /* \"#utility.yul\":334:483   */\n    tag_240:\n        /* \"#utility.yul\":370:377   */\n      0x00\n        /* \"#utility.yul\":410:476   */\n      0xffffffff00000000000000000000000000000000000000000000000000000000\n        /* \"#utility.yul\":403:408   */\n      dup3\n        /* \"#utility.yul\":399:477   */\n      and\n        /* \"#utility.yul\":388:477   */\n      swap1\n      pop\n        /* \"#utility.yul\":334:483   */\n      swap2\n      swap1\n      pop\n      jump\t// out\n        /* \"#utility.yul\":489:609   */\n    tag_241:\n        /* \"#utility.yul\":561:584   */\n      tag_273\n        /* \"#utility.yul\":578:583   */\n      dup2\n        /* \"#utility.yul\":561:584   */\n      tag_240\n      jump\t// in\n    tag_273:\n        /* \"#utility.yul\":554:559   */\n      dup2\n        /* \"#utility.yul\":551:585   */\n      eq\n        /* \"#utility.yul\":541:603   */\n      tag_274\n      jumpi\n        /* \"#utility.yul\":599:600   */\n      0x00\n        /* \"#utility.yul\":596:597   */\n      dup1\n        /* \"#utility.yul\":589:601   */\n      revert\n        /* \"#utility.yul\":541:603   */\n    tag_274:\n        /* \"#utility.yul\":489:609   */\n      pop\n      jump\t// out\n        /* \"#utility.yul\":615:752   */\n    tag_242:\n        /* \"#utility.yul\":660:665   */\n      0x00\n        /* \"#utility.yul\":698:704   */\n      dup2\n        /* \"#utility.yul\":685:705   */\n      calldataload\n        /* \"#utility.yul\":676:705   */\n      swap1\n      pop\n        /* \"#utility.yul\":714:746   */\n      tag_276\n        /* \"#utility.yul\":740:745   */\n      dup2\n        /* \"#utility.yul\":714:746   */\n      tag_241\n      jump\t// in\n    tag_276:\n        /* \"#utility.yul\":615:752   */\n      swap3\n      swap2\n      pop\n      pop\n      jump\t// out\n        /* \"#utility.yul\":758:1085   */\n    tag_28:\n        /* \"#utility.yul\":816:822   */\n      0x00\n        /* \"#utility.yul\":865:867   */\n      0x20\n        /* \"#utility.yul\":853:862   */\n      dup3\n        /* \"#utility.yul\":844:851   */\n      dup5\n        /* \"#utility.yul\":840:863   */\n      sub\n        /* \"#utility.yul\":836:868   */\n      slt\n        /* \"#utility.yul\":833:952   */\n      iszero\n      tag_278\n      jumpi\n        /* \"#utility.yul\":871:950   */\n      tag_279\n      tag_238\n      jump\t// in\n    tag_279:\n        /* \"#utility.yul\":833:952   */\n    tag_278:\n        /* \"#utility.yul\":991:992   */\n      0x00\n        /* \"#utility.yul\":1016:1068   */\n      tag_280\n        /* \"#utility.yul\":1060:1067   */\n      dup5\n        /* \"#utility.yul\":1051:1057   */\n      dup3\n        /* \"#utility.yul\":1040:1049   */\n      dup6\n        /* \"#utility.yul\":1036:1058   */\n      add\n        /* \"#utility.yul\":1016:1068   */\n      tag_242\n      jump\t// in\n    tag_280:\n        /* \"#utility.yul\":1006:1068   */\n      swap2\n      pop\n        /* \"#utility.yul\":962:1078   */\n      pop\n        /* \"#utility.yul\":758:1085   */\n      swap3\n      swap2\n      pop\n      pop\n      jump\t// out\n        /* \"#utility.yul\":1091:1181   */\n    tag_243:\n        /* \"#utility.yul\":1125:1132   */\n      0x00\n        /* \"#utility.yul\":1168:1173   */\n      dup2\n        /* \"#utility.yul\":1161:1174   */\n      iszero\n        /* \"#utility.yul\":1154:1175   */\n      iszero\n        /* \"#utility.yul\":1143:1175   */\n      swap1\n      pop\n        /* \"#utility.yul\":1091:1181   */\n      swap2\n      swap1\n      pop\n      jump\t// out\n        /* \"#utility.yul\":1187:1296   */\n    tag_244:\n        /* \"#utility.yul\":1268:1289   */\n      tag_283\n        /* \"#utility.yul\":1283:1288   */\n      dup2\n        /* \"#utility.yul\":1268:1289   */\n      tag_243\n      jump\t// in\n    tag_283:\n        /* \"#utility.yul\":1263:1266   */\n      dup3\n        /* \"#utility.yul\":1256:1290   */\n      mstore\n        /* \"#utility.yul\":1187:1296   */\n      pop\n      pop\n      jump\t// out\n        /* \"#utility.yul\":1302:1512   */\n    tag_31:\n        /* \"#utility.yul\":1389:1393   */\n      0x00\n        /* \"#utility.yul\":1427:1429   */\n      0x20\n        /* \"#utility.yul\":1416:1425   */\n      dup3\n        /* \"#utility.yul\":1412:1430   */\n      add\n        /* \"#utility.yul\":1404:1430   */\n      swap1\n      pop\n        /* \"#utility.yul\":1440:1505   */\n      tag_285\n        /* \"#utility.yul\":1502:1503   */\n      0x00\n        /* \"#utility.yul\":1491:1500   */\n      dup4\n        /* \"#utility.yul\":1487:1504   */\n      add\n        /* \"#utility.yul\":1478:1484   */\n      dup5\n        /* \"#utility.yul\":1440:1505   */\n      tag_244\n      jump\t// in\n    tag_285:\n        /* \"#utility.yul\":1302:1512   */\n      swap3\n      swap2\n      pop\n      pop\n      jump\t// out\n        /* \"#utility.yul\":1518:1617   */\n    tag_245:\n        /* \"#utility.yul\":1570:1576   */\n      0x00\n        /* \"#utility.yul\":1604:1609   */\n      dup2\n        /* \"#utility.yul\":1598:1610   */\n      mload\n        /* \"#utility.yul\":1588:1610   */\n      swap1\n      pop\n        /* \"#utility.yul\":1518:1617   */\n      swap2\n      swap1\n      pop\n      jump\t// out\n        /* \"#utility.yul\":1623:1792   */\n    tag_246:\n        /* \"#utility.yul\":1707:1718   */\n      0x00\n        /* \"#utility.yul\":1741:1747   */\n      dup3\n        /* \"#utility.yul\":1736:1739   */\n      dup3\n        /* \"#utility.yul\":1729:1748   */\n      mstore\n        /* \"#utility.yul\":1781:1785   */\n      0x20\n        /* \"#utility.yul\":1776:1779   */\n      dup3\n        /* \"#utility.yul\":1772:1786   */\n      add\n        /* \"#utility.yul\":1757:1786   */\n      swap1\n      pop\n        /* \"#utility.yul\":1623:1792   */\n      swap3\n      swap2\n      pop\n      pop\n      jump\t// out\n        /* \"#utility.yul\":1798:2044   */\n    tag_247:\n        /* \"#utility.yul\":1879:1880   */\n      0x00\n        /* \"#utility.yul\":1889:2002   */\n    tag_289:\n        /* \"#utility.yul\":1903:1909   */\n      dup4\n        /* \"#utility.yul\":1900:1901   */\n      dup2\n        /* \"#utility.yul\":1897:1910   */\n      lt\n        /* \"#utility.yul\":1889:2002   */\n      iszero\n      tag_291\n      jumpi\n        /* \"#utility.yul\":1988:1989   */\n      dup1\n        /* \"#utility.yul\":1983:1986   */\n      dup3\n        /* \"#utility.yul\":1979:1990   */\n      add\n        /* \"#utility.yul\":1973:1991   */\n      mload\n        /* \"#utility.yul\":1969:1970   */\n      dup2\n        /* \"#utility.yul\":1964:1967   */\n      dup5\n        /* \"#utility.yul\":1960:1971   */\n      add\n        /* \"#utility.yul\":1953:1992   */\n      mstore\n        /* \"#utility.yul\":1925:1927   */\n      0x20\n        /* \"#utility.yul\":1922:1923   */\n      dup2\n        /* \"#utility.yul\":1918:1928   */\n      add\n        /* \"#utility.yul\":1913:1928   */\n      swap1\n      pop\n        /* \"#utility.yul\":1889:2002   */\n      jump(tag_289)\n    tag_291:\n        /* \"#utility.yul\":2036:2037   */\n      0x00\n        /* \"#utility.yul\":2027:2033   */\n      dup5\n        /* \"#utility.yul\":2022:2025   */\n      dup5\n        /* \"#utility.yul\":2018:2034   */\n      add\n        /* \"#utility.yul\":2011:2038   */\n      mstore\n        /* \"#utility.yul\":1860:2044   */\n      pop\n        /* \"#utility.yul\":1798:2044   */\n      pop\n      pop\n      pop\n      jump\t// out\n        /* \"#utility.yul\":2050:2152   */\n    tag_248:\n        /* \"#utility.yul\":2091:2097   */\n      0x00\n        /* \"#utility.yul\":2142:2144   */\n      0x1f\n        /* \"#utility.yul\":2138:2145   */\n      not\n        /* \"#utility.yul\":2133:2135   */\n      0x1f\n        /* \"#utility.yul\":2126:2131   */\n      dup4\n        /* \"#utility.yul\":2122:2136   */\n      add\n        /* \"#utility.yul\":2118:2146   */\n      and\n        /* \"#utility.yul\":2108:2146   */\n      swap1\n      pop\n        /* \"#utility.yul\":2050:2152   */\n      swap2\n      swap1\n      pop\n      jump\t// out\n        /* \"#utility.yul\":2158:2535   */\n    tag_249:\n        /* \"#utility.yul\":2246:2249   */\n      0x00\n        /* \"#utility.yul\":2274:2313   */\n      tag_294\n        /* \"#utility.yul\":2307:2312   */\n      dup3\n        /* \"#utility.yul\":2274:2313   */\n      tag_245\n      jump\t// in\n    tag_294:\n        /* \"#utility.yul\":2329:2400   */\n      tag_295\n        /* \"#utility.yul\":2393:2399   */\n      dup2\n        /* \"#utility.yul\":2388:2391   */\n      dup6\n        /* \"#utility.yul\":2329:2400   */\n      tag_246\n      jump\t// in\n    tag_295:\n        /* \"#utility.yul\":2322:2400   */\n      swap4\n      pop\n        /* \"#utility.yul\":2409:2474   */\n      tag_296\n        /* \"#utility.yul\":2467:2473   */\n      dup2\n        /* \"#utility.yul\":2462:2465   */\n      dup6\n        /* \"#utility.yul\":2455:2459   */\n      0x20\n        /* \"#utility.yul\":2448:2453   */\n      dup7\n        /* \"#utility.yul\":2444:2460   */\n      add\n        /* \"#utility.yul\":2409:2474   */\n      tag_247\n      jump\t// in\n    tag_296:\n        /* \"#utility.yul\":2499:2528   */\n      tag_297\n        /* \"#utility.yul\":2521:2527   */\n      dup2\n        /* \"#utility.yul\":2499:2528   */\n      tag_248\n      jump\t// in\n    tag_297:\n        /* \"#utility.yul\":2494:2497   */\n      dup5\n        /* \"#utility.yul\":2490:2529   */\n      add\n        /* \"#utility.yul\":2483:2529   */\n      swap2\n      pop\n        /* \"#utility.yul\":2250:2535   */\n      pop\n        /* \"#utility.yul\":2158:2535   */\n      swap3\n      swap2\n      pop\n      pop\n      jump\t// out\n        /* \"#utility.yul\":2541:2854   */\n    tag_35:\n        /* \"#utility.yul\":2654:2658   */\n      0x00\n        /* \"#utility.yul\":2692:2694   */\n      0x20\n        /* \"#utility.yul\":2681:2690   */\n      dup3\n        /* \"#utility.yul\":2677:2695   */\n      add\n        /* \"#utility.yul\":2669:2695   */\n      swap1\n      pop\n        /* \"#utility.yul\":2741:2750   */\n      dup2\n        /* \"#utility.yul\":2735:2739   */\n      dup2\n        /* \"#utility.yul\":2731:2751   */\n      sub\n        /* \"#utility.yul\":2727:2728   */\n      0x00\n        /* \"#utility.yul\":2716:2725   */\n      dup4\n        /* \"#utility.yul\":2712:2729   */\n      add\n        /* \"#utility.yul\":2705:2752   */\n      mstore\n        /* \"#utility.yul\":2769:2847   */\n      tag_299\n        /* \"#utility.yul\":2842:2846   */\n      dup2\n        /* \"#utility.yul\":2833:2839   */\n      dup5\n        /* \"#utility.yul\":2769:2847   */\n      tag_249\n      jump\t// in\n    tag_299:\n        /* \"#utility.yul\":2761:2847   */\n      swap1\n      pop\n        /* \"#utility.yul\":2541:2854   */\n      swap3\n      swap2\n      pop\n      pop\n      jump\t// out\n        /* \"#utility.yul\":2860:2986   */\n    tag_250:\n        /* \"#utility.yul\":2897:2904   */\n      0x00\n        /* \"#utility.yul\":2937:2979   */\n      0xffffffffffffffffffffffffffffffffffffffff\n        /* \"#utility.yul\":2930:2935   */\n      dup3\n        /* \"#utility.yul\":2926:2980   */\n      and\n        /* \"#utility.yul\":2915:2980   */\n      swap1\n      pop\n        /* \"#utility.yul\":2860:2986   */\n      swap2\n      swap1\n      pop\n      jump\t// out\n        /* \"#utility.yul\":2992:3088   */\n    tag_251:\n        /* \"#utility.yul\":3029:3036   */\n      0x00\n        /* \"#utility.yul\":3058:3082   */\n      tag_302\n        /* \"#utility.yul\":3076:3081   */\n      dup3\n        /* \"#utility.yul\":3058:3082   */\n      tag_250\n      jump\t// in\n    tag_302:\n        /* \"#utility.yul\":3047:3082   */\n      swap1\n      pop\n        /* \"#utility.yul\":2992:3088   */\n      swap2\n      swap1\n      pop\n      jump\t// out\n        /* \"#utility.yul\":3094:3216   */\n    tag_252:\n        /* \"#utility.yul\":3167:3191   */\n      tag_304\n        /* \"#utility.yul\":3185:3190   */\n      dup2\n        /* \"#utility.yul\":3167:3191   */\n      tag_251\n      jump\t// in\n    tag_304:\n        /* \"#utility.yul\":3160:3165   */\n      dup2\n        /* \"#utility.yul\":3157:3192   */\n      eq\n        /* \"#utility.yul\":3147:3210   */\n      tag_305\n      jumpi\n        /* \"#utility.yul\":3206:3207   */\n      0x00\n        /* \"#utility.yul\":3203:3204   */\n      dup1\n        /* \"#utility.yul\":3196:3208   */\n      revert\n        /* \"#utility.yul\":3147:3210   */\n    tag_305:\n        /* \"#utility.yul\":3094:3216   */\n      pop\n      jump\t// out\n        /* \"#utility.yul\":3222:3361   */\n    tag_253:\n        /* \"#utility.yul\":3268:3273   */\n      0x00\n        /* \"#utility.yul\":3306:3312   */\n      dup2\n        /* \"#utility.yul\":3293:3313   */\n      calldataload\n        /* \"#utility.yul\":3284:3313   */\n      swap1\n      pop\n        /* \"#utility.yul\":3322:3355   */\n      tag_307\n        /* \"#utility.yul\":3349:3354   */\n      dup2\n        /* \"#utility.yul\":3322:3355   */\n      tag_252\n      jump\t// in\n    tag_307:\n        /* \"#utility.yul\":3222:3361   */\n      swap3\n      swap2\n      pop\n      pop\n      jump\t// out\n        /* \"#utility.yul\":3367:3444   */\n    tag_254:\n        /* \"#utility.yul\":3404:3411   */\n      0x00\n        /* \"#utility.yul\":3433:3438   */\n      dup2\n        /* \"#utility.yul\":3422:3438   */\n      swap1\n      pop\n        /* \"#utility.yul\":3367:3444   */\n      swap2\n      swap1\n      pop\n      jump\t// out\n        /* \"#utility.yul\":3450:3572   */\n    tag_255:\n        /* \"#utility.yul\":3523:3547   */\n      tag_310\n        /* \"#utility.yul\":3541:3546   */\n      dup2\n        /* \"#utility.yul\":3523:3547   */\n      tag_254\n      jump\t// in\n    tag_310:\n        /* \"#utility.yul\":3516:3521   */\n      dup2\n        /* \"#utility.yul\":3513:3548   */\n      eq\n        /* \"#utility.yul\":3503:3566   */\n      tag_311\n      jumpi\n        /* \"#utility.yul\":3562:3563   */\n      0x00\n        /* \"#utility.yul\":3559:3560   */\n      dup1\n        /* \"#utility.yul\":3552:3564   */\n      revert\n        /* \"#utility.yul\":3503:3566   */\n    tag_311:\n        /* \"#utility.yul\":3450:3572   */\n      pop\n      jump\t// out\n        /* \"#utility.yul\":3578:3717   */\n    tag_256:\n        /* \"#utility.yul\":3624:3629   */\n      0x00\n        /* \"#utility.yul\":3662:3668   */\n      dup2\n        /* \"#utility.yul\":3649:3669   */\n      calldataload\n        /* \"#utility.yul\":3640:3669   */\n      swap1\n      pop\n        /* \"#utility.yul\":3678:3711   */\n      tag_313\n        /* \"#utility.yul\":3705:3710   */\n      dup2\n        /* \"#utility.yul\":3678:3711   */\n      tag_255\n      jump\t// in\n    tag_313:\n        /* \"#utility.yul\":3578:3717   */\n      swap3\n      swap2\n      pop\n      pop\n      jump\t// out\n        /* \"#utility.yul\":3723:4197   */\n    tag_38:\n        /* \"#utility.yul\":3791:3797   */\n      0x00\n        /* \"#utility.yul\":3799:3805   */\n      dup1\n        /* \"#utility.yul\":3848:3850   */\n      0x40\n        /* \"#utility.yul\":3836:3845   */\n      dup4\n        /* \"#utility.yul\":3827:3834   */\n      dup6\n        /* \"#utility.yul\":3823:3846   */\n      sub\n        /* \"#utility.yul\":3819:3851   */\n      slt\n        /* \"#utility.yul\":3816:3935   */\n      iszero\n      tag_315\n      jumpi\n        /* \"#utility.yul\":3854:3933   */\n      tag_316\n      tag_238\n      jump\t// in\n    tag_316:\n        /* \"#utility.yul\":3816:3935   */\n    tag_315:\n        /* \"#utility.yul\":3974:3975   */\n      0x00\n        /* \"#utility.yul\":3999:4052   */\n      tag_317\n        /* \"#utility.yul\":4044:4051   */\n      dup6\n        /* \"#utility.yul\":4035:4041   */\n      dup3\n        /* \"#utility.yul\":4024:4033   */\n      dup7\n        /* \"#utility.yul\":4020:4042   */\n      add\n        /* \"#utility.yul\":3999:4052   */\n      tag_253\n      jump\t// in\n    tag_317:\n        /* \"#utility.yul\":3989:4052   */\n      swap3\n      pop\n        /* \"#utility.yul\":3945:4062   */\n      pop\n        /* \"#utility.yul\":4101:4103   */\n      0x20\n        /* \"#utility.yul\":4127:4180   */\n      tag_318\n        /* \"#utility.yul\":4172:4179   */\n      dup6\n        /* \"#utility.yul\":4163:4169   */\n      dup3\n        /* \"#utility.yul\":4152:4161   */\n      dup7\n        /* \"#utility.yul\":4148:4170   */\n      add\n        /* \"#utility.yul\":4127:4180   */\n      tag_256\n      jump\t// in\n    tag_318:\n        /* \"#utility.yul\":4117:4180   */\n      swap2\n      pop\n        /* \"#utility.yul\":4072:4190   */\n      pop\n        /* \"#utility.yul\":3723:4197   */\n      swap3\n      pop\n      swap3\n      swap1\n      pop\n      jump\t// out\n        /* \"#utility.yul\":4203:4321   */\n    tag_257:\n        /* \"#utility.yul\":4290:4314   */\n      tag_320\n        /* \"#utility.yul\":4308:4313   */\n      dup2\n        /* \"#utility.yul\":4290:4314   */\n      tag_254\n      jump\t// in\n    tag_320:\n        /* \"#utility.yul\":4285:4288   */\n      dup3\n        /* \"#utility.yul\":4278:4315   */\n      mstore\n        /* \"#utility.yul\":4203:4321   */\n      pop\n      pop\n      jump\t// out\n        /* \"#utility.yul\":4327:4549   */\n    tag_44:\n        /* \"#utility.yul\":4420:4424   */\n      0x00\n        /* \"#utility.yul\":4458:4460   */\n      0x20\n        /* \"#utility.yul\":4447:4456   */\n      dup3\n        /* \"#utility.yul\":4443:4461   */\n      add\n        /* \"#utility.yul\":4435:4461   */\n      swap1\n      pop\n        /* \"#utility.yul\":4471:4542   */\n      tag_322\n        /* \"#utility.yul\":4539:4540   */\n      0x00\n        /* \"#utility.yul\":4528:4537   */\n      dup4\n        /* \"#utility.yul\":4524:4541   */\n      add\n        /* \"#utility.yul\":4515:4521   */\n      dup5\n        /* \"#utility.yul\":4471:4542   */\n      tag_257\n      jump\t// in\n    tag_322:\n        /* \"#utility.yul\":4327:4549   */\n      swap3\n      swap2\n      pop\n      pop\n      jump\t// out\n        /* \"#utility.yul\":4555:5174   */\n    tag_47:\n        /* \"#utility.yul\":4632:4638   */\n      0x00\n        /* \"#utility.yul\":4640:4646   */\n      dup1\n        /* \"#utility.yul\":4648:4654   */\n      0x00\n        /* \"#utility.yul\":4697:4699   */\n      0x60\n        /* \"#utility.yul\":4685:4694   */\n      dup5\n        /* \"#utility.yul\":4676:4683   */\n      dup7\n        /* \"#utility.yul\":4672:4695   */\n      sub\n        /* \"#utility.yul\":4668:4700   */\n      slt\n        /* \"#utility.yul\":4665:4784   */\n      iszero\n      tag_324\n      jumpi\n        /* \"#utility.yul\":4703:4782   */\n      tag_325\n      tag_238\n      jump\t// in\n    tag_325:\n        /* \"#utility.yul\":4665:4784   */\n    tag_324:\n        /* \"#utility.yul\":4823:4824   */\n      0x00\n        /* \"#utility.yul\":4848:4901   */\n      tag_326\n        /* \"#utility.yul\":4893:4900   */\n      dup7\n        /* \"#utility.yul\":4884:4890   */\n      dup3\n        /* \"#utility.yul\":4873:4882   */\n      dup8\n        /* \"#utility.yul\":4869:4891   */\n      add\n        /* \"#utility.yul\":4848:4901   */\n      tag_253\n      jump\t// in\n    tag_326:\n        /* \"#utility.yul\":4838:4901   */\n      swap4\n      pop\n        /* \"#utility.yul\":4794:4911   */\n      pop\n        /* \"#utility.yul\":4950:4952   */\n      0x20\n        /* \"#utility.yul\":4976:5029   */\n      tag_327\n        /* \"#utility.yul\":5021:5028   */\n      dup7\n        /* \"#utility.yul\":5012:5018   */\n      dup3\n        /* \"#utility.yul\":5001:5010   */\n      dup8\n        /* \"#utility.yul\":4997:5019   */\n      add\n        /* \"#utility.yul\":4976:5029   */\n      tag_253\n      jump\t// in\n    tag_327:\n        /* \"#utility.yul\":4966:5029   */\n      swap3\n      pop\n        /* \"#utility.yul\":4921:5039   */\n      pop\n        /* \"#utility.yul\":5078:5080   */\n      0x40\n        /* \"#utility.yul\":5104:5157   */\n      tag_328\n        /* \"#utility.yul\":5149:5156   */\n      dup7\n        /* \"#utility.yul\":5140:5146   */\n      dup3\n        /* \"#utility.yul\":5129:5138   */\n      dup8\n        /* \"#utility.yul\":5125:5147   */\n      add\n        /* \"#utility.yul\":5104:5157   */\n      tag_256\n      jump\t// in\n    tag_328:\n        /* \"#utility.yul\":5094:5157   */\n      swap2\n      pop\n        /* \"#utility.yul\":5049:5167   */\n      pop\n        /* \"#utility.yul\":4555:5174   */\n      swap3\n      pop\n      swap3\n      pop\n      swap3\n      jump\t// out\n        /* \"#utility.yul\":5180:5257   */\n    tag_258:\n        /* \"#utility.yul\":5217:5224   */\n      0x00\n        /* \"#utility.yul\":5246:5251   */\n      dup2\n        /* \"#utility.yul\":5235:5251   */\n      swap1\n      pop\n        /* \"#utility.yul\":5180:5257   */\n      swap2\n      swap1\n      pop\n      jump\t// out\n        /* \"#utility.yul\":5263:5385   */\n    tag_259:\n        /* \"#utility.yul\":5336:5360   */\n      tag_331\n        /* \"#utility.yul\":5354:5359   */\n      dup2\n        /* \"#utility.yul\":5336:5360   */\n      tag_258\n      jump\t// in\n    tag_331:\n        /* \"#utility.yul\":5329:5334   */\n      dup2\n        /* \"#utility.yul\":5326:5361   */\n      eq\n        /* \"#utility.yul\":5316:5379   */\n      tag_332\n      jumpi\n        /* \"#utility.yul\":5375:5376   */\n      0x00\n        /* \"#utility.yul\":5372:5373   */\n      dup1\n        /* \"#utility.yul\":5365:5377   */\n      revert\n        /* \"#utility.yul\":5316:5379   */\n    tag_332:\n        /* \"#utility.yul\":5263:5385   */\n      pop\n      jump\t// out\n        /* \"#utility.yul\":5391:5530   */\n    tag_260:\n        /* \"#utility.yul\":5437:5442   */\n      0x00\n        /* \"#utility.yul\":5475:5481   */\n      dup2\n        /* \"#utility.yul\":5462:5482   */\n      calldataload\n        /* \"#utility.yul\":5453:5482   */\n      swap1\n      pop\n        /* \"#utility.yul\":5491:5524   */\n      tag_334\n        /* \"#utility.yul\":5518:5523   */\n      dup2\n        /* \"#utility.yul\":5491:5524   */\n      tag_259\n      jump\t// in\n    tag_334:\n        /* \"#utility.yul\":5391:5530   */\n      swap3\n      swap2\n      pop\n      pop\n      jump\t// out\n        /* \"#utility.yul\":5536:5865   */\n    tag_52:\n        /* \"#utility.yul\":5595:5601   */\n      0x00\n        /* \"#utility.yul\":5644:5646   */\n      0x20\n        /* \"#utility.yul\":5632:5641   */\n      dup3\n        /* \"#utility.yul\":5623:5630   */\n      dup5\n        /* \"#utility.yul\":5619:5642   */\n      sub\n        /* \"#utility.yul\":5615:5647   */\n      slt\n        /* \"#utility.yul\":5612:5731   */\n      iszero\n      tag_336\n      jumpi\n        /* \"#utility.yul\":5650:5729   */\n      tag_337\n      tag_238\n      jump\t// in\n    tag_337:\n        /* \"#utility.yul\":5612:5731   */\n    tag_336:\n        /* \"#utility.yul\":5770:5771   */\n      0x00\n        /* \"#utility.yul\":5795:5848   */\n      tag_338\n        /* \"#utility.yul\":5840:5847   */\n      dup5\n        /* \"#utility.yul\":5831:5837   */\n      dup3\n        /* \"#utility.yul\":5820:5829   */\n      dup6\n        /* \"#utility.yul\":5816:5838   */\n      add\n        /* \"#utility.yul\":5795:5848   */\n      tag_260\n      jump\t// in\n    tag_338:\n        /* \"#utility.yul\":5785:5848   */\n      swap2\n      pop\n        /* \"#utility.yul\":5741:5858   */\n      pop\n        /* \"#utility.yul\":5536:5865   */\n      swap3\n      swap2\n      pop\n      pop\n      jump\t// out\n        /* \"#utility.yul\":5871:5989   */\n    tag_261:\n        /* \"#utility.yul\":5958:5982   */\n      tag_340\n        /* \"#utility.yul\":5976:5981   */\n      dup2\n        /* \"#utility.yul\":5958:5982   */\n      tag_258\n      jump\t// in\n    tag_340:\n        /* \"#utility.yul\":5953:5956   */\n      dup3\n        /* \"#utility.yul\":5946:5983   */\n      mstore\n        /* \"#utility.yul\":5871:5989   */\n      pop\n      pop\n      jump\t// out\n        /* \"#utility.yul\":5995:6217   */\n    tag_55:\n        /* \"#utility.yul\":6088:6092   */\n      0x00\n        /* \"#utility.yul\":6126:6128   */\n      0x20\n        /* \"#utility.yul\":6115:6124   */\n      dup3\n        /* \"#utility.yul\":6111:6129   */\n      add\n        /* \"#utility.yul\":6103:6129   */\n      swap1\n      pop\n        /* \"#utility.yul\":6139:6210   */\n      tag_342\n        /* \"#utility.yul\":6207:6208   */\n      0x00\n        /* \"#utility.yul\":6196:6205   */\n      dup4\n        /* \"#utility.yul\":6192:6209   */\n      add\n        /* \"#utility.yul\":6183:6189   */\n      dup5\n        /* \"#utility.yul\":6139:6210   */\n      tag_261\n      jump\t// in\n    tag_342:\n        /* \"#utility.yul\":5995:6217   */\n      swap3\n      swap2\n      pop\n      pop\n      jump\t// out\n        /* \"#utility.yul\":6223:6697   */\n    tag_61:\n        /* \"#utility.yul\":6291:6297   */\n      0x00\n        /* \"#utility.yul\":6299:6305   */\n      dup1\n        /* \"#utility.yul\":6348:6350   */\n      0x40\n        /* \"#utility.yul\":6336:6345   */\n      dup4\n        /* \"#utility.yul\":6327:6334   */\n      dup6\n        /* \"#utility.yul\":6323:6346   */\n      sub\n        /* \"#utility.yul\":6319:6351   */\n      slt\n        /* \"#utility.yul\":6316:6435   */\n      iszero\n      tag_344\n      jumpi\n        /* \"#utility.yul\":6354:6433   */\n      tag_345\n      tag_238\n      jump\t// in\n    tag_345:\n        /* \"#utility.yul\":6316:6435   */\n    tag_344:\n        /* \"#utility.yul\":6474:6475   */\n      0x00\n        /* \"#utility.yul\":6499:6552   */\n      tag_346\n        /* \"#utility.yul\":6544:6551   */\n      dup6\n        /* \"#utility.yul\":6535:6541   */\n      dup3\n        /* \"#utility.yul\":6524:6533   */\n      dup7\n        /* \"#utility.yul\":6520:6542   */\n      add\n        /* \"#utility.yul\":6499:6552   */\n      tag_260\n      jump\t// in\n    tag_346:\n        /* \"#utility.yul\":6489:6552   */\n      swap3\n      pop\n        /* \"#utility.yul\":6445:6562   */\n      pop\n        /* \"#utility.yul\":6601:6603   */\n      0x20\n        /* \"#utility.yul\":6627:6680   */\n      tag_347\n        /* \"#utility.yul\":6672:6679   */\n      dup6\n        /* \"#utility.yul\":6663:6669   */\n      dup3\n        /* \"#utility.yul\":6652:6661   */\n      dup7\n        /* \"#utility.yul\":6648:6670   */\n      add\n        /* \"#utility.yul\":6627:6680   */\n      tag_253\n      jump\t// in\n    tag_347:\n        /* \"#utility.yul\":6617:6680   */\n      swap2\n      pop\n        /* \"#utility.yul\":6572:6690   */\n      pop\n        /* \"#utility.yul\":6223:6697   */\n      swap3\n      pop\n      swap3\n      swap1\n      pop\n      jump\t// out\n        /* \"#utility.yul\":6703:6789   */\n    tag_262:\n        /* \"#utility.yul\":6738:6745   */\n      0x00\n        /* \"#utility.yul\":6778:6782   */\n      0xff\n        /* \"#utility.yul\":6771:6776   */\n      dup3\n        /* \"#utility.yul\":6767:6783   */\n      and\n        /* \"#utility.yul\":6756:6783   */\n      swap1\n      pop\n        /* \"#utility.yul\":6703:6789   */\n      swap2\n      swap1\n      pop\n      jump\t// out\n        /* \"#utility.yul\":6795:6907   */\n    tag_263:\n        /* \"#utility.yul\":6878:6900   */\n      tag_350\n        /* \"#utility.yul\":6894:6899   */\n      dup2\n        /* \"#utility.yul\":6878:6900   */\n      tag_262\n      jump\t// in\n    tag_350:\n        /* \"#utility.yul\":6873:6876   */\n      dup3\n        /* \"#utility.yul\":6866:6901   */\n      mstore\n        /* \"#utility.yul\":6795:6907   */\n      pop\n      pop\n      jump\t// out\n        /* \"#utility.yul\":6913:7127   */\n    tag_66:\n        /* \"#utility.yul\":7002:7006   */\n      0x00\n        /* \"#utility.yul\":7040:7042   */\n      0x20\n        /* \"#utility.yul\":7029:7038   */\n      dup3\n        /* \"#utility.yul\":7025:7043   */\n      add\n        /* \"#utility.yul\":7017:7043   */\n      swap1\n      pop\n        /* \"#utility.yul\":7053:7120   */\n      tag_352\n        /* \"#utility.yul\":7117:7118   */\n      0x00\n        /* \"#utility.yul\":7106:7115   */\n      dup4\n        /* \"#utility.yul\":7102:7119   */\n      add\n        /* \"#utility.yul\":7093:7099   */\n      dup5\n        /* \"#utility.yul\":7053:7120   */\n      tag_263\n      jump\t// in\n    tag_352:\n        /* \"#utility.yul\":6913:7127   */\n      swap3\n      swap2\n      pop\n      pop\n      jump\t// out\n        /* \"#utility.yul\":7133:7462   */\n    tag_75:\n        /* \"#utility.yul\":7192:7198   */\n      0x00\n        /* \"#utility.yul\":7241:7243   */\n      0x20\n        /* \"#utility.yul\":7229:7238   */\n      dup3\n        /* \"#utility.yul\":7220:7227   */\n      dup5\n        /* \"#utility.yul\":7216:7239   */\n      sub\n        /* \"#utility.yul\":7212:7244   */\n      slt\n        /* \"#utility.yul\":7209:7328   */\n      iszero\n      tag_354\n      jumpi\n        /* \"#utility.yul\":7247:7326   */\n      tag_355\n      tag_238\n      jump\t// in\n    tag_355:\n        /* \"#utility.yul\":7209:7328   */\n    tag_354:\n        /* \"#utility.yul\":7367:7368   */\n      0x00\n        /* \"#utility.yul\":7392:7445   */\n      tag_356\n        /* \"#utility.yul\":7437:7444   */\n      dup5\n        /* \"#utility.yul\":7428:7434   */\n      dup3\n        /* \"#utility.yul\":7417:7426   */\n      dup6\n        /* \"#utility.yul\":7413:7435   */\n      add\n        /* \"#utility.yul\":7392:7445   */\n      tag_253\n      jump\t// in\n    tag_356:\n        /* \"#utility.yul\":7382:7445   */\n      swap2\n      pop\n        /* \"#utility.yul\":7338:7455   */\n      pop\n        /* \"#utility.yul\":7133:7462   */\n      swap3\n      swap2\n      pop\n      pop\n      jump\t// out\n        /* \"#utility.yul\":7468:7942   */\n    tag_103:\n        /* \"#utility.yul\":7536:7542   */\n      0x00\n        /* \"#utility.yul\":7544:7550   */\n      dup1\n        /* \"#utility.yul\":7593:7595   */\n      0x40\n        /* \"#utility.yul\":7581:7590   */\n      dup4\n        /* \"#utility.yul\":7572:7579   */\n      dup6\n        /* \"#utility.yul\":7568:7591   */\n      sub\n        /* \"#utility.yul\":7564:7596   */\n      slt\n        /* \"#utility.yul\":7561:7680   */\n      iszero\n      tag_358\n      jumpi\n        /* \"#utility.yul\":7599:7678   */\n      tag_359\n      tag_238\n      jump\t// in\n    tag_359:\n        /* \"#utility.yul\":7561:7680   */\n    tag_358:\n        /* \"#utility.yul\":7719:7720   */\n      0x00\n        /* \"#utility.yul\":7744:7797   */\n      tag_360\n        /* \"#utility.yul\":7789:7796   */\n      dup6\n        /* \"#utility.yul\":7780:7786   */\n      dup3\n        /* \"#utility.yul\":7769:7778   */\n      dup7\n        /* \"#utility.yul\":7765:7787   */\n      add\n        /* \"#utility.yul\":7744:7797   */\n      tag_253\n      jump\t// in\n    tag_360:\n        /* \"#utility.yul\":7734:7797   */\n      swap3\n      pop\n        /* \"#utility.yul\":7690:7807   */\n      pop\n        /* \"#utility.yul\":7846:7848   */\n      0x20\n        /* \"#utility.yul\":7872:7925   */\n      tag_361\n        /* \"#utility.yul\":7917:7924   */\n      dup6\n        /* \"#utility.yul\":7908:7914   */\n      dup3\n        /* \"#utility.yul\":7897:7906   */\n      dup7\n        /* \"#utility.yul\":7893:7915   */\n      add\n        /* \"#utility.yul\":7872:7925   */\n      tag_253\n      jump\t// in\n    tag_361:\n        /* \"#utility.yul\":7862:7925   */\n      swap2\n      pop\n        /* \"#utility.yul\":7817:7935   */\n      pop\n        /* \"#utility.yul\":7468:7942   */\n      swap3\n      pop\n      swap3\n      swap1\n      pop\n      jump\t// out\n        /* \"#utility.yul\":7948:8128   */\n    tag_264:\n        /* \"#utility.yul\":7996:8073   */\n      0x4e487b7100000000000000000000000000000000000000000000000000000000\n        /* \"#utility.yul\":7993:7994   */\n      0x00\n        /* \"#utility.yul\":7986:8074   */\n      mstore\n        /* \"#utility.yul\":8093:8097   */\n      0x22\n        /* \"#utility.yul\":8090:8091   */\n      0x04\n        /* \"#utility.yul\":8083:8098   */\n      mstore\n        /* \"#utility.yul\":8117:8121   */\n      0x24\n        /* \"#utility.yul\":8114:8115   */\n      0x00\n        /* \"#utility.yul\":8107:8122   */\n      revert\n        /* \"#utility.yul\":8134:8454   */\n    tag_112:\n        /* \"#utility.yul\":8178:8184   */\n      0x00\n        /* \"#utility.yul\":8215:8216   */\n      0x02\n        /* \"#utility.yul\":8209:8213   */\n      dup3\n        /* \"#utility.yul\":8205:8217   */\n      div\n        /* \"#utility.yul\":8195:8217   */\n      swap1\n      pop\n        /* \"#utility.yul\":8262:8263   */\n      0x01\n        /* \"#utility.yul\":8256:8260   */\n      dup3\n        /* \"#utility.yul\":8252:8264   */\n      and\n        /* \"#utility.yul\":8283:8301   */\n      dup1\n        /* \"#utility.yul\":8273:8354   */\n      tag_364\n      jumpi\n        /* \"#utility.yul\":8339:8343   */\n      0x7f\n        /* \"#utility.yul\":8331:8337   */\n      dup3\n        /* \"#utility.yul\":8327:8344   */\n      and\n        /* \"#utility.yul\":8317:8344   */\n      swap2\n      pop\n        /* \"#utility.yul\":8273:8354   */\n    tag_364:\n        /* \"#utility.yul\":8401:8403   */\n      0x20\n        /* \"#utility.yul\":8393:8399   */\n      dup3\n        /* \"#utility.yul\":8390:8404   */\n      lt\n        /* \"#utility.yul\":8370:8388   */\n      dup2\n        /* \"#utility.yul\":8367:8405   */\n      sub\n        /* \"#utility.yul\":8364:8448   */\n      tag_365\n      jumpi\n        /* \"#utility.yul\":8420:8438   */\n      tag_366\n      tag_264\n      jump\t// in\n    tag_366:\n        /* \"#utility.yul\":8364:8448   */\n    tag_365:\n        /* \"#utility.yul\":8185:8454   */\n      pop\n        /* \"#utility.yul\":8134:8454   */\n      swap2\n      swap1\n      pop\n      jump\t// out\n        /* \"#utility.yul\":8460:8578   */\n    tag_265:\n        /* \"#utility.yul\":8547:8571   */\n      tag_368\n        /* \"#utility.yul\":8565:8570   */\n      dup2\n        /* \"#utility.yul\":8547:8571   */\n      tag_251\n      jump\t// in\n    tag_368:\n        /* \"#utility.yul\":8542:8545   */\n      dup3\n        /* \"#utility.yul\":8535:8572   */\n      mstore\n        /* \"#utility.yul\":8460:8578   */\n      pop\n      pop\n      jump\t// out\n        /* \"#utility.yul\":8584:8916   */\n    tag_149:\n        /* \"#utility.yul\":8705:8709   */\n      0x00\n        /* \"#utility.yul\":8743:8745   */\n      0x40\n        /* \"#utility.yul\":8732:8741   */\n      dup3\n        /* \"#utility.yul\":8728:8746   */\n      add\n        /* \"#utility.yul\":8720:8746   */\n      swap1\n      pop\n        /* \"#utility.yul\":8756:8827   */\n      tag_370\n        /* \"#utility.yul\":8824:8825   */\n      0x00\n        /* \"#utility.yul\":8813:8822   */\n      dup4\n        /* \"#utility.yul\":8809:8826   */\n      add\n        /* \"#utility.yul\":8800:8806   */\n      dup6\n        /* \"#utility.yul\":8756:8827   */\n      tag_265\n      jump\t// in\n    tag_370:\n        /* \"#utility.yul\":8837:8909   */\n      tag_371\n        /* \"#utility.yul\":8905:8907   */\n      0x20\n        /* \"#utility.yul\":8894:8903   */\n      dup4\n        /* \"#utility.yul\":8890:8908   */\n      add\n        /* \"#utility.yul\":8881:8887   */\n      dup5\n        /* \"#utility.yul\":8837:8909   */\n      tag_257\n      jump\t// in\n    tag_371:\n        /* \"#utility.yul\":8584:8916   */\n      swap4\n      swap3\n      pop\n      pop\n      pop\n      jump\t// out\n        /* \"#utility.yul\":8922:9364   */\n    tag_183:\n        /* \"#utility.yul\":9071:9075   */\n      0x00\n        /* \"#utility.yul\":9109:9111   */\n      0x60\n        /* \"#utility.yul\":9098:9107   */\n      dup3\n        /* \"#utility.yul\":9094:9112   */\n      add\n        /* \"#utility.yul\":9086:9112   */\n      swap1\n      pop\n        /* \"#utility.yul\":9122:9193   */\n      tag_373\n        /* \"#utility.yul\":9190:9191   */\n      0x00\n        /* \"#utility.yul\":9179:9188   */\n      dup4\n        /* \"#utility.yul\":9175:9192   */\n      add\n        /* \"#utility.yul\":9166:9172   */\n      dup7\n        /* \"#utility.yul\":9122:9193   */\n      tag_265\n      jump\t// in\n    tag_373:\n        /* \"#utility.yul\":9203:9275   */\n      tag_374\n        /* \"#utility.yul\":9271:9273   */\n      0x20\n        /* \"#utility.yul\":9260:9269   */\n      dup4\n        /* \"#utility.yul\":9256:9274   */\n      add\n        /* \"#utility.yul\":9247:9253   */\n      dup6\n        /* \"#utility.yul\":9203:9275   */\n      tag_257\n      jump\t// in\n    tag_374:\n        /* \"#utility.yul\":9285:9357   */\n      tag_375\n        /* \"#utility.yul\":9353:9355   */\n      0x40\n        /* \"#utility.yul\":9342:9351   */\n      dup4\n        /* \"#utility.yul\":9338:9356   */\n      add\n        /* \"#utility.yul\":9329:9335   */\n      dup5\n        /* \"#utility.yul\":9285:9357   */\n      tag_257\n      jump\t// in\n    tag_375:\n        /* \"#utility.yul\":8922:9364   */\n      swap5\n      swap4\n      pop\n      pop\n      pop\n      pop\n      jump\t// out\n        /* \"#utility.yul\":9370:9592   */\n    tag_188:\n        /* \"#utility.yul\":9463:9467   */\n      0x00\n        /* \"#utility.yul\":9501:9503   */\n      0x20\n        /* \"#utility.yul\":9490:9499   */\n      dup3\n        /* \"#utility.yul\":9486:9504   */\n      add\n        /* \"#utility.yul\":9478:9504   */\n      swap1\n      pop\n        /* \"#utility.yul\":9514:9585   */\n      tag_377\n        /* \"#utility.yul\":9582:9583   */\n      0x00\n        /* \"#utility.yul\":9571:9580   */\n      dup4\n        /* \"#utility.yul\":9567:9584   */\n      add\n        /* \"#utility.yul\":9558:9564   */\n      dup5\n        /* \"#utility.yul\":9514:9585   */\n      tag_265\n      jump\t// in\n    tag_377:\n        /* \"#utility.yul\":9370:9592   */\n      swap3\n      swap2\n      pop\n      pop\n      jump\t// out\n        /* \"#utility.yul\":9598:9778   */\n    tag_266:\n        /* \"#utility.yul\":9646:9723   */\n      0x4e487b7100000000000000000000000000000000000000000000000000000000\n        /* \"#utility.yul\":9643:9644   */\n      0x00\n        /* \"#utility.yul\":9636:9724   */\n      mstore\n        /* \"#utility.yul\":9743:9747   */\n      0x11\n        /* \"#utility.yul\":9740:9741   */\n      0x04\n        /* \"#utility.yul\":9733:9748   */\n      mstore\n        /* \"#utility.yul\":9767:9771   */\n      0x24\n        /* \"#utility.yul\":9764:9765   */\n      0x00\n        /* \"#utility.yul\":9757:9772   */\n      revert\n        /* \"#utility.yul\":9784:9975   */\n    tag_225:\n        /* \"#utility.yul\":9824:9827   */\n      0x00\n        /* \"#utility.yul\":9843:9863   */\n      tag_380\n        /* \"#utility.yul\":9861:9862   */\n      dup3\n        /* \"#utility.yul\":9843:9863   */\n      tag_254\n      jump\t// in\n    tag_380:\n        /* \"#utility.yul\":9838:9863   */\n      swap2\n      pop\n        /* \"#utility.yul\":9877:9897   */\n      tag_381\n        /* \"#utility.yul\":9895:9896   */\n      dup4\n        /* \"#utility.yul\":9877:9897   */\n      tag_254\n      jump\t// in\n    tag_381:\n        /* \"#utility.yul\":9872:9897   */\n      swap3\n      pop\n        /* \"#utility.yul\":9920:9921   */\n      dup3\n        /* \"#utility.yul\":9917:9918   */\n      dup3\n        /* \"#utility.yul\":9913:9922   */\n      add\n        /* \"#utility.yul\":9906:9922   */\n      swap1\n      pop\n        /* \"#utility.yul\":9941:9944   */\n      dup1\n        /* \"#utility.yul\":9938:9939   */\n      dup3\n        /* \"#utility.yul\":9935:9945   */\n      gt\n        /* \"#utility.yul\":9932:9968   */\n      iszero\n      tag_382\n      jumpi\n        /* \"#utility.yul\":9948:9966   */\n      tag_383\n      tag_266\n      jump\t// in\n    tag_383:\n        /* \"#utility.yul\":9932:9968   */\n    tag_382:\n        /* \"#utility.yul\":9784:9975   */\n      swap3\n      swap2\n      pop\n      pop\n      jump\t// out\n        /* \"#utility.yul\":9981:10313   */\n    tag_236:\n        /* \"#utility.yul\":10102:10106   */\n      0x00\n        /* \"#utility.yul\":10140:10142   */\n      0x40\n        /* \"#utility.yul\":10129:10138   */\n      dup3\n        /* \"#utility.yul\":10125:10143   */\n      add\n        /* \"#utility.yul\":10117:10143   */\n      swap1\n      pop\n        /* \"#utility.yul\":10153:10224   */\n      tag_385\n        /* \"#utility.yul\":10221:10222   */\n      0x00\n        /* \"#utility.yul\":10210:10219   */\n      dup4\n        /* \"#utility.yul\":10206:10223   */\n      add\n        /* \"#utility.yul\":10197:10203   */\n      dup6\n        /* \"#utility.yul\":10153:10224   */\n      tag_265\n      jump\t// in\n    tag_385:\n        /* \"#utility.yul\":10234:10306   */\n      tag_386\n        /* \"#utility.yul\":10302:10304   */\n      0x20\n        /* \"#utility.yul\":10291:10300   */\n      dup4\n        /* \"#utility.yul\":10287:10305   */\n      add\n        /* \"#utility.yul\":10278:10284   */\n      dup5\n        /* \"#utility.yul\":10234:10306   */\n      tag_261\n      jump\t// in\n    tag_386:\n        /* \"#utility.yul\":9981:10313   */\n      swap4\n      swap3\n      pop\n      pop\n      pop\n      jump\t// out\n\n    auxdata: 0xa264697066735822122012ff0df29d3c37c87226dd7cddbef7ee8d08f34c6c501e884c59b27c5419428664736f6c63430008180033\n}\n",
				"bytecode": {
					"linkReferences": {},
					"object": "608060405234801562000010575f80fd5b506040516200258938038062002589833981810160405281019062000036919062000695565b828281600390816200004991906200095a565b5080600490816200005b91906200095a565b5050506200009d3362000073620000bb60201b60201c565b60ff16600a62000084919062000bbb565b8362000091919062000c0b565b620000c360201b60201c565b620000b15f801b336200014d60201b60201c565b5050505062000d54565b5f6008905090565b5f73ffffffffffffffffffffffffffffffffffffffff168273ffffffffffffffffffffffffffffffffffffffff160362000136575f6040517fec442f050000000000000000000000000000000000000000000000000000000081526004016200012d919062000c98565b60405180910390fd5b620001495f83836200024960201b60201c565b5050565b5f6200016083836200046d60201b60201c565b6200023f57600160055f8581526020019081526020015f205f015f8473ffffffffffffffffffffffffffffffffffffffff1673ffffffffffffffffffffffffffffffffffffffff1681526020019081526020015f205f6101000a81548160ff021916908315150217905550620001db620004d160201b60201c565b73ffffffffffffffffffffffffffffffffffffffff168273ffffffffffffffffffffffffffffffffffffffff16847f2f8788117e7eff1d82e926ec794901d17c78024a50270940304540a733656f0d60405160405180910390a46001905062000243565b5f90505b92915050565b5f73ffffffffffffffffffffffffffffffffffffffff168373ffffffffffffffffffffffffffffffffffffffff16036200029d578060025f82825462000290919062000cb3565b925050819055506200036e565b5f805f8573ffffffffffffffffffffffffffffffffffffffff1673ffffffffffffffffffffffffffffffffffffffff1681526020019081526020015f205490508181101562000329578381836040517fe450d38c000000000000000000000000000000000000000000000000000000008152600401620003209392919062000cfe565b60405180910390fd5b8181035f808673ffffffffffffffffffffffffffffffffffffffff1673ffffffffffffffffffffffffffffffffffffffff1681526020019081526020015f2081905550505b5f73ffffffffffffffffffffffffffffffffffffffff168273ffffffffffffffffffffffffffffffffffffffff1603620003b7578060025f828254039250508190555062000401565b805f808473ffffffffffffffffffffffffffffffffffffffff1673ffffffffffffffffffffffffffffffffffffffff1681526020019081526020015f205f82825401925050819055505b8173ffffffffffffffffffffffffffffffffffffffff168373ffffffffffffffffffffffffffffffffffffffff167fddf252ad1be2c89b69c2b068fc378daa952ba7f163c4a11628f55a4df523b3ef8360405162000460919062000d39565b60405180910390a3505050565b5f60055f8481526020019081526020015f205f015f8373ffffffffffffffffffffffffffffffffffffffff1673ffffffffffffffffffffffffffffffffffffffff1681526020019081526020015f205f9054906101000a900460ff16905092915050565b5f33905090565b5f604051905090565b5f80fd5b5f80fd5b5f80fd5b5f80fd5b5f601f19601f8301169050919050565b7f4e487b71000000000000000000000000000000000000000000000000000000005f52604160045260245ffd5b6200053982620004f1565b810181811067ffffffffffffffff821117156200055b576200055a62000501565b5b80604052505050565b5f6200056f620004d8565b90506200057d82826200052e565b919050565b5f67ffffffffffffffff8211156200059f576200059e62000501565b5b620005aa82620004f1565b9050602081019050919050565b5f5b83811015620005d6578082015181840152602081019050620005b9565b5f8484015250505050565b5f620005f7620005f18462000582565b62000564565b905082815260208101848484011115620006165762000615620004ed565b5b62000623848285620005b7565b509392505050565b5f82601f830112620006425762000641620004e9565b5b815162000654848260208601620005e1565b91505092915050565b5f819050919050565b62000671816200065d565b81146200067c575f80fd5b50565b5f815190506200068f8162000666565b92915050565b5f805f60608486031215620006af57620006ae620004e1565b5b5f84015167ffffffffffffffff811115620006cf57620006ce620004e5565b5b620006dd868287016200062b565b935050602084015167ffffffffffffffff811115620007015762000700620004e5565b5b6200070f868287016200062b565b925050604062000722868287016200067f565b9150509250925092565b5f81519050919050565b7f4e487b71000000000000000000000000000000000000000000000000000000005f52602260045260245ffd5b5f60028204905060018216806200077b57607f821691505b60208210810362000791576200079062000736565b5b50919050565b5f819050815f5260205f209050919050565b5f6020601f8301049050919050565b5f82821b905092915050565b5f60088302620007f57fffffffffffffffffffffffffffffffffffffffffffffffffffffffffffffffff82620007b8565b620008018683620007b8565b95508019841693508086168417925050509392505050565b5f819050919050565b5f620008426200083c62000836846200065d565b62000819565b6200065d565b9050919050565b5f819050919050565b6200085d8362000822565b620008756200086c8262000849565b848454620007c4565b825550505050565b5f90565b6200088b6200087d565b6200089881848462000852565b505050565b5b81811015620008bf57620008b35f8262000881565b6001810190506200089e565b5050565b601f8211156200090e57620008d88162000797565b620008e384620007a9565b81016020851015620008f3578190505b6200090b6200090285620007a9565b8301826200089d565b50505b505050565b5f82821c905092915050565b5f620009305f198460080262000913565b1980831691505092915050565b5f6200094a83836200091f565b9150826002028217905092915050565b62000965826200072c565b67ffffffffffffffff81111562000981576200098062000501565b5b6200098d825462000763565b6200099a828285620008c3565b5f60209050601f831160018114620009d0575f8415620009bb578287015190505b620009c785826200093d565b86555062000a36565b601f198416620009e08662000797565b5f5b8281101562000a0957848901518255600182019150602085019450602081019050620009e2565b8683101562000a29578489015162000a25601f8916826200091f565b8355505b6001600288020188555050505b505050505050565b7f4e487b71000000000000000000000000000000000000000000000000000000005f52601160045260245ffd5b5f8160011c9050919050565b5f808291508390505b600185111562000ac85780860481111562000aa05762000a9f62000a3e565b5b600185161562000ab05780820291505b808102905062000ac08562000a6b565b945062000a80565b94509492505050565b5f8262000ae2576001905062000bb4565b8162000af1575f905062000bb4565b816001811462000b0a576002811462000b155762000b4b565b600191505062000bb4565b60ff84111562000b2a5762000b2962000a3e565b5b8360020a91508482111562000b445762000b4362000a3e565b5b5062000bb4565b5060208310610133831016604e8410600b841016171562000b855782820a90508381111562000b7f5762000b7e62000a3e565b5b62000bb4565b62000b94848484600162000a77565b9250905081840481111562000bae5762000bad62000a3e565b5b81810290505b9392505050565b5f62000bc7826200065d565b915062000bd4836200065d565b925062000c037fffffffffffffffffffffffffffffffffffffffffffffffffffffffffffffffff848462000ad1565b905092915050565b5f62000c17826200065d565b915062000c24836200065d565b925082820262000c34816200065d565b9150828204841483151762000c4e5762000c4d62000a3e565b5b5092915050565b5f73ffffffffffffffffffffffffffffffffffffffff82169050919050565b5f62000c808262000c55565b9050919050565b62000c928162000c74565b82525050565b5f60208201905062000cad5f83018462000c87565b92915050565b5f62000cbf826200065d565b915062000ccc836200065d565b925082820190508082111562000ce75762000ce662000a3e565b5b92915050565b62000cf8816200065d565b82525050565b5f60608201905062000d135f83018662000c87565b62000d22602083018562000ced565b62000d31604083018462000ced565b949350505050565b5f60208201905062000d4e5f83018462000ced565b92915050565b6118278062000d625f395ff3fe608060405234801561000f575f80fd5b506004361061012a575f3560e01c806340c10f19116100ab578063a217fddf1161006f578063a217fddf14610354578063a9059cbb14610372578063d5391393146103a2578063d547741f146103c0578063dd62ed3e146103dc5761012a565b806340c10f191461029e57806370a08231146102ba57806391d14854146102ea57806395d89b411461031a5780639dc29fac146103385761012a565b8063248a9ca3116100f2578063248a9ca3146101fa578063282c51f31461022a5780632f2ff15d14610248578063313ce5671461026457806336568abe146102825761012a565b806301ffc9a71461012e57806306fdde031461015e578063095ea7b31461017c57806318160ddd146101ac57806323b872dd146101ca575b5f80fd5b610148600480360381019061014391906112dd565b61040c565b6040516101559190611322565b60405180910390f35b610166610485565b60405161017391906113c5565b60405180910390f35b61019660048036038101906101919190611472565b610515565b6040516101a39190611322565b60405180910390f35b6101b4610537565b6040516101c191906114bf565b60405180910390f35b6101e460048036038101906101df91906114d8565b610540565b6040516101f19190611322565b60405180910390f35b610214600480360381019061020f919061155b565b61056e565b6040516102219190611595565b60405180910390f35b61023261058b565b60405161023f9190611595565b60405180910390f35b610262600480360381019061025d91906115ae565b6105af565b005b61026c6105d1565b6040516102799190611607565b60405180910390f35b61029c600480360381019061029791906115ae565b6105d9565b005b6102b860048036038101906102b39190611472565b610654565b005b6102d460048036038101906102cf9190611620565b6106c6565b6040516102e191906114bf565b60405180910390f35b61030460048036038101906102ff91906115ae565b61070b565b6040516103119190611322565b60405180910390f35b61032261076f565b60405161032f91906113c5565b60405180910390f35b610352600480360381019061034d9190611472565b6107ff565b005b61035c610871565b6040516103699190611595565b60405180910390f35b61038c60048036038101906103879190611472565b610877565b6040516103999190611322565b60405180910390f35b6103aa610899565b6040516103b79190611595565b60405180910390f35b6103da60048036038101906103d591906115ae565b6108bd565b005b6103f660048036038101906103f1919061164b565b6108df565b60405161040391906114bf565b60405180910390f35b5f7f7965db0b000000000000000000000000000000000000000000000000000000007bffffffffffffffffffffffffffffffffffffffffffffffffffffffff1916827bffffffffffffffffffffffffffffffffffffffffffffffffffffffff1916148061047e575061047d82610961565b5b9050919050565b606060038054610494906116b6565b80601f01602080910402602001604051908101604052809291908181526020018280546104c0906116b6565b801561050b5780601f106104e25761010080835404028352916020019161050b565b820191905f5260205f20905b8154815290600101906020018083116104ee57829003601f168201915b5050505050905090565b5f8061051f6109ca565b905061052c8185856109d1565b600191505092915050565b5f600254905090565b5f8061054a6109ca565b90506105578582856109e3565b610562858585610a75565b60019150509392505050565b5f60055f8381526020019081526020015f20600101549050919050565b7f3c11d16cbaffd01df69ce1c404f6340ee057498f5f00246190ea54220576a84881565b6105b88261056e565b6105c181610b65565b6105cb8383610b79565b50505050565b5f6008905090565b6105e16109ca565b73ffffffffffffffffffffffffffffffffffffffff168173ffffffffffffffffffffffffffffffffffffffff1614610645576040517f6697b23200000000000000000000000000000000000000000000000000000000815260040160405180910390fd5b61064f8282610c63565b505050565b7f9f2df0fed2c77648de5860a4cc508cd0818c85b8b8a1ab4ceeef8d981c8956a661067e81610b65565b6106888383610d4d565b7f79c65068f81072733b15ab3cba61b23110793f90ab099d228a414b186333a81e83836040516106b99291906116f5565b60405180910390a1505050565b5f805f8373ffffffffffffffffffffffffffffffffffffffff1673ffffffffffffffffffffffffffffffffffffffff1681526020019081526020015f20549050919050565b5f60055f8481526020019081526020015f205f015f8373ffffffffffffffffffffffffffffffffffffffff1673ffffffffffffffffffffffffffffffffffffffff1681526020019081526020015f205f9054906101000a900460ff16905092915050565b60606004805461077e906116b6565b80601f01602080910402602001604051908101604052809291908181526020018280546107aa906116b6565b80156107f55780601f106107cc576101008083540402835291602001916107f5565b820191905f5260205f20905b8154815290600101906020018083116107d857829003601f168201915b5050505050905090565b7f3c11d16cbaffd01df69ce1c404f6340ee057498f5f00246190ea54220576a84861082981610b65565b6108338383610dcc565b7fd1df306c742159c188c29d2c167874a39b84fd0f96f794ad7ea53295680ec1c583836040516108649291906116f5565b60405180910390a1505050565b5f801b81565b5f806108816109ca565b905061088e818585610a75565b600191505092915050565b7f9f2df0fed2c77648de5860a4cc508cd0818c85b8b8a1ab4ceeef8d981c8956a681565b6108c68261056e565b6108cf81610b65565b6108d98383610c63565b50505050565b5f60015f8473ffffffffffffffffffffffffffffffffffffffff1673ffffffffffffffffffffffffffffffffffffffff1681526020019081526020015f205f8373ffffffffffffffffffffffffffffffffffffffff1673ffffffffffffffffffffffffffffffffffffffff1681526020019081526020015f2054905092915050565b5f7f01ffc9a7000000000000000000000000000000000000000000000000000000007bffffffffffffffffffffffffffffffffffffffffffffffffffffffff1916827bffffffffffffffffffffffffffffffffffffffffffffffffffffffff1916149050919050565b5f33905090565b6109de8383836001610e4b565b505050565b5f6109ee84846108df565b90507fffffffffffffffffffffffffffffffffffffffffffffffffffffffffffffffff8114610a6f5781811015610a60578281836040517ffb8f41b2000000000000000000000000000000000000000000000000000000008152600401610a579392919061171c565b60405180910390fd5b610a6e84848484035f610e4b565b5b50505050565b5f73ffffffffffffffffffffffffffffffffffffffff168373ffffffffffffffffffffffffffffffffffffffff1603610ae5575f6040517f96c6fd1e000000000000000000000000000000000000000000000000000000008152600401610adc9190611751565b60405180910390fd5b5f73ffffffffffffffffffffffffffffffffffffffff168273ffffffffffffffffffffffffffffffffffffffff1603610b55575f6040517fec442f05000000000000000000000000000000000000000000000000000000008152600401610b4c9190611751565b60405180910390fd5b610b6083838361101a565b505050565b610b7681610b716109ca565b611233565b50565b5f610b84838361070b565b610c5957600160055f8581526020019081526020015f205f015f8473ffffffffffffffffffffffffffffffffffffffff1673ffffffffffffffffffffffffffffffffffffffff1681526020019081526020015f205f6101000a81548160ff021916908315150217905550610bf66109ca565b73ffffffffffffffffffffffffffffffffffffffff168273ffffffffffffffffffffffffffffffffffffffff16847f2f8788117e7eff1d82e926ec794901d17c78024a50270940304540a733656f0d60405160405180910390a460019050610c5d565b5f90505b92915050565b5f610c6e838361070b565b15610d43575f60055f8581526020019081526020015f205f015f8473ffffffffffffffffffffffffffffffffffffffff1673ffffffffffffffffffffffffffffffffffffffff1681526020019081526020015f205f6101000a81548160ff021916908315150217905550610ce06109ca565b73ffffffffffffffffffffffffffffffffffffffff168273ffffffffffffffffffffffffffffffffffffffff16847ff6391f5c32d9c69d2a47ea670b442974b53935d1edc7fd64eb21e047a839171b60405160405180910390a460019050610d47565b5f90505b92915050565b5f73ffffffffffffffffffffffffffffffffffffffff168273ffffffffffffffffffffffffffffffffffffffff1603610dbd575f6040517fec442f05000000000000000000000000000000000000000000000000000000008152600401610db49190611751565b60405180910390fd5b610dc85f838361101a565b5050565b5f73ffffffffffffffffffffffffffffffffffffffff168273ffffffffffffffffffffffffffffffffffffffff1603610e3c575f6040517f96c6fd1e000000000000000000000000000000000000000000000000000000008152600401610e339190611751565b60405180910390fd5b610e47825f8361101a565b5050565b5f73ffffffffffffffffffffffffffffffffffffffff168473ffffffffffffffffffffffffffffffffffffffff1603610ebb575f6040517fe602df05000000000000000000000000000000000000000000000000000000008152600401610eb29190611751565b60405180910390fd5b5f73ffffffffffffffffffffffffffffffffffffffff168373ffffffffffffffffffffffffffffffffffffffff1603610f2b575f6040517f94280d62000000000000000000000000000000000000000000000000000000008152600401610f229190611751565b60405180910390fd5b8160015f8673ffffffffffffffffffffffffffffffffffffffff1673ffffffffffffffffffffffffffffffffffffffff1681526020019081526020015f205f8573ffffffffffffffffffffffffffffffffffffffff1673ffffffffffffffffffffffffffffffffffffffff1681526020019081526020015f20819055508015611014578273ffffffffffffffffffffffffffffffffffffffff168473ffffffffffffffffffffffffffffffffffffffff167f8c5be1e5ebec7d5bd14f71427d1e84f3dd0314c0f7b2291e5b200ac8c7c3b9258460405161100b91906114bf565b60405180910390a35b50505050565b5f73ffffffffffffffffffffffffffffffffffffffff168373ffffffffffffffffffffffffffffffffffffffff160361106a578060025f82825461105e9190611797565b92505081905550611138565b5f805f8573ffffffffffffffffffffffffffffffffffffffff1673ffffffffffffffffffffffffffffffffffffffff1681526020019081526020015f20549050818110156110f3578381836040517fe450d38c0000000000000000000000000000000000000000000000000000000081526004016110ea9392919061171c565b60405180910390fd5b8181035f808673ffffffffffffffffffffffffffffffffffffffff1673ffffffffffffffffffffffffffffffffffffffff1681526020019081526020015f2081905550505b5f73ffffffffffffffffffffffffffffffffffffffff168273ffffffffffffffffffffffffffffffffffffffff160361117f578060025f82825403925050819055506111c9565b805f808473ffffffffffffffffffffffffffffffffffffffff1673ffffffffffffffffffffffffffffffffffffffff1681526020019081526020015f205f82825401925050819055505b8173ffffffffffffffffffffffffffffffffffffffff168373ffffffffffffffffffffffffffffffffffffffff167fddf252ad1be2c89b69c2b068fc378daa952ba7f163c4a11628f55a4df523b3ef8360405161122691906114bf565b60405180910390a3505050565b61123d828261070b565b6112805780826040517fe2517d3f0000000000000000000000000000000000000000000000000000000081526004016112779291906117ca565b60405180910390fd5b5050565b5f80fd5b5f7fffffffff0000000000000000000000000000000000000000000000000000000082169050919050565b6112bc81611288565b81146112c6575f80fd5b50565b5f813590506112d7816112b3565b92915050565b5f602082840312156112f2576112f1611284565b5b5f6112ff848285016112c9565b91505092915050565b5f8115159050919050565b61131c81611308565b82525050565b5f6020820190506113355f830184611313565b92915050565b5f81519050919050565b5f82825260208201905092915050565b5f5b83811015611372578082015181840152602081019050611357565b5f8484015250505050565b5f601f19601f8301169050919050565b5f6113978261133b565b6113a18185611345565b93506113b1818560208601611355565b6113ba8161137d565b840191505092915050565b5f6020820190508181035f8301526113dd818461138d565b905092915050565b5f73ffffffffffffffffffffffffffffffffffffffff82169050919050565b5f61140e826113e5565b9050919050565b61141e81611404565b8114611428575f80fd5b50565b5f8135905061143981611415565b92915050565b5f819050919050565b6114518161143f565b811461145b575f80fd5b50565b5f8135905061146c81611448565b92915050565b5f806040838503121561148857611487611284565b5b5f6114958582860161142b565b92505060206114a68582860161145e565b9150509250929050565b6114b98161143f565b82525050565b5f6020820190506114d25f8301846114b0565b92915050565b5f805f606084860312156114ef576114ee611284565b5b5f6114fc8682870161142b565b935050602061150d8682870161142b565b925050604061151e8682870161145e565b9150509250925092565b5f819050919050565b61153a81611528565b8114611544575f80fd5b50565b5f8135905061155581611531565b92915050565b5f602082840312156115705761156f611284565b5b5f61157d84828501611547565b91505092915050565b61158f81611528565b82525050565b5f6020820190506115a85f830184611586565b92915050565b5f80604083850312156115c4576115c3611284565b5b5f6115d185828601611547565b92505060206115e28582860161142b565b9150509250929050565b5f60ff82169050919050565b611601816115ec565b82525050565b5f60208201905061161a5f8301846115f8565b92915050565b5f6020828403121561163557611634611284565b5b5f6116428482850161142b565b91505092915050565b5f806040838503121561166157611660611284565b5b5f61166e8582860161142b565b925050602061167f8582860161142b565b9150509250929050565b7f4e487b71000000000000000000000000000000000000000000000000000000005f52602260045260245ffd5b5f60028204905060018216806116cd57607f821691505b6020821081036116e0576116df611689565b5b50919050565b6116ef81611404565b82525050565b5f6040820190506117085f8301856116e6565b61171560208301846114b0565b9392505050565b5f60608201905061172f5f8301866116e6565b61173c60208301856114b0565b61174960408301846114b0565b949350505050565b5f6020820190506117645f8301846116e6565b92915050565b7f4e487b71000000000000000000000000000000000000000000000000000000005f52601160045260245ffd5b5f6117a18261143f565b91506117ac8361143f565b92508282019050808211156117c4576117c361176a565b5b92915050565b5f6040820190506117dd5f8301856116e6565b6117ea6020830184611586565b939250505056fea264697066735822122012ff0df29d3c37c87226dd7cddbef7ee8d08f34c6c501e884c59b27c5419428664736f6c63430008180033",
					"opcodes": "PUSH1 0x80 PUSH1 0x40 MSTORE CALLVALUE DUP1 ISZERO PUSH3 0x10 JUMPI PUSH0 DUP1 REVERT JUMPDEST POP PUSH1 0x40 MLOAD PUSH3 0x2589 CODESIZE SUB DUP1 PUSH3 0x2589 DUP4 CODECOPY DUP2 DUP2 ADD PUSH1 0x40 MSTORE DUP2 ADD SWAP1 PUSH3 0x36 SWAP2 SWAP1 PUSH3 0x695 JUMP JUMPDEST DUP3 DUP3 DUP2 PUSH1 0x3 SWAP1 DUP2 PUSH3 0x49 SWAP2 SWAP1 PUSH3 0x95A JUMP JUMPDEST POP DUP1 PUSH1 0x4 SWAP1 DUP2 PUSH3 0x5B SWAP2 SWAP1 PUSH3 0x95A JUMP JUMPDEST POP POP POP PUSH3 0x9D CALLER PUSH3 0x73 PUSH3 0xBB PUSH1 0x20 SHL PUSH1 0x20 SHR JUMP JUMPDEST PUSH1 0xFF AND PUSH1 0xA PUSH3 0x84 SWAP2 SWAP1 PUSH3 0xBBB JUMP JUMPDEST DUP4 PUSH3 0x91 SWAP2 SWAP1 PUSH3 0xC0B JUMP JUMPDEST PUSH3 0xC3 PUSH1 0x20 SHL PUSH1 0x20 SHR JUMP JUMPDEST PUSH3 0xB1 PUSH0 DUP1 SHL CALLER PUSH3 0x14D PUSH1 0x20 SHL PUSH1 0x20 SHR JUMP JUMPDEST POP POP POP POP PUSH3 0xD54 JUMP JUMPDEST PUSH0 PUSH1 0x8 SWAP1 POP SWAP1 JUMP JUMPDEST PUSH0 PUSH20 0xFFFFFFFFFFFFFFFFFFFFFFFFFFFFFFFFFFFFFFFF AND DUP3 PUSH20 0xFFFFFFFFFFFFFFFFFFFFFFFFFFFFFFFFFFFFFFFF AND SUB PUSH3 0x136 JUMPI PUSH0 PUSH1 0x40 MLOAD PUSH32 0xEC442F0500000000000000000000000000000000000000000000000000000000 DUP2 MSTORE PUSH1 0x4 ADD PUSH3 0x12D SWAP2 SWAP1 PUSH3 0xC98 JUMP JUMPDEST PUSH1 0x40 MLOAD DUP1 SWAP2 SUB SWAP1 REVERT JUMPDEST PUSH3 0x149 PUSH0 DUP4 DUP4 PUSH3 0x249 PUSH1 0x20 SHL PUSH1 0x20 SHR JUMP JUMPDEST POP POP JUMP JUMPDEST PUSH0 PUSH3 0x160 DUP4 DUP4 PUSH3 0x46D PUSH1 0x20 SHL PUSH1 0x20 SHR JUMP JUMPDEST PUSH3 0x23F JUMPI PUSH1 0x1 PUSH1 0x5 PUSH0 DUP6 DUP2 MSTORE PUSH1 0x20 ADD SWAP1 DUP2 MSTORE PUSH1 0x20 ADD PUSH0 KECCAK256 PUSH0 ADD PUSH0 DUP5 PUSH20 0xFFFFFFFFFFFFFFFFFFFFFFFFFFFFFFFFFFFFFFFF AND PUSH20 0xFFFFFFFFFFFFFFFFFFFFFFFFFFFFFFFFFFFFFFFF AND DUP2 MSTORE PUSH1 0x20 ADD SWAP1 DUP2 MSTORE PUSH1 0x20 ADD PUSH0 KECCAK256 PUSH0 PUSH2 0x100 EXP DUP2 SLOAD DUP2 PUSH1 0xFF MUL NOT AND SWAP1 DUP4 ISZERO ISZERO MUL OR SWAP1 SSTORE POP PUSH3 0x1DB PUSH3 0x4D1 PUSH1 0x20 SHL PUSH1 0x20 SHR JUMP JUMPDEST PUSH20 0xFFFFFFFFFFFFFFFFFFFFFFFFFFFFFFFFFFFFFFFF AND DUP3 PUSH20 0xFFFFFFFFFFFFFFFFFFFFFFFFFFFFFFFFFFFFFFFF AND DUP5 PUSH32 0x2F8788117E7EFF1D82E926EC794901D17C78024A50270940304540A733656F0D PUSH1 0x40 MLOAD PUSH1 0x40 MLOAD DUP1 SWAP2 SUB SWAP1 LOG4 PUSH1 0x1 SWAP1 POP PUSH3 0x243 JUMP JUMPDEST PUSH0 SWAP1 POP JUMPDEST SWAP3 SWAP2 POP POP JUMP JUMPDEST PUSH0 PUSH20 0xFFFFFFFFFFFFFFFFFFFFFFFFFFFFFFFFFFFFFFFF AND DUP4 PUSH20 0xFFFFFFFFFFFFFFFFFFFFFFFFFFFFFFFFFFFFFFFF AND SUB PUSH3 0x29D JUMPI DUP1 PUSH1 0x2 PUSH0 DUP3 DUP3 SLOAD PUSH3 0x290 SWAP2 SWAP1 PUSH3 0xCB3 JUMP JUMPDEST SWAP3 POP POP DUP2 SWAP1 SSTORE POP PUSH3 0x36E JUMP JUMPDEST PUSH0 DUP1 PUSH0 DUP6 PUSH20 0xFFFFFFFFFFFFFFFFFFFFFFFFFFFFFFFFFFFFFFFF AND PUSH20 0xFFFFFFFFFFFFFFFFFFFFFFFFFFFFFFFFFFFFFFFF AND DUP2 MSTORE PUSH1 0x20 ADD SWAP1 DUP2 MSTORE PUSH1 0x20 ADD PUSH0 KECCAK256 SLOAD SWAP1 POP DUP2 DUP2 LT ISZERO PUSH3 0x329 JUMPI DUP4 DUP2 DUP4 PUSH1 0x40 MLOAD PUSH32 0xE450D38C00000000000000000000000000000000000000000000000000000000 DUP2 MSTORE PUSH1 0x4 ADD PUSH3 0x320 SWAP4 SWAP3 SWAP2 SWAP1 PUSH3 0xCFE JUMP JUMPDEST PUSH1 0x40 MLOAD DUP1 SWAP2 SUB SWAP1 REVERT JUMPDEST DUP2 DUP2 SUB PUSH0 DUP1 DUP7 PUSH20 0xFFFFFFFFFFFFFFFFFFFFFFFFFFFFFFFFFFFFFFFF AND PUSH20 0xFFFFFFFFFFFFFFFFFFFFFFFFFFFFFFFFFFFFFFFF AND DUP2 MSTORE PUSH1 0x20 ADD SWAP1 DUP2 MSTORE PUSH1 0x20 ADD PUSH0 KECCAK256 DUP2 SWAP1 SSTORE POP POP JUMPDEST PUSH0 PUSH20 0xFFFFFFFFFFFFFFFFFFFFFFFFFFFFFFFFFFFFFFFF AND DUP3 PUSH20 0xFFFFFFFFFFFFFFFFFFFFFFFFFFFFFFFFFFFFFFFF AND SUB PUSH3 0x3B7 JUMPI DUP1 PUSH1 0x2 PUSH0 DUP3 DUP3 SLOAD SUB SWAP3 POP POP DUP2 SWAP1 SSTORE POP PUSH3 0x401 JUMP JUMPDEST DUP1 PUSH0 DUP1 DUP5 PUSH20 0xFFFFFFFFFFFFFFFFFFFFFFFFFFFFFFFFFFFFFFFF AND PUSH20 0xFFFFFFFFFFFFFFFFFFFFFFFFFFFFFFFFFFFFFFFF AND DUP2 MSTORE PUSH1 0x20 ADD SWAP1 DUP2 MSTORE PUSH1 0x20 ADD PUSH0 KECCAK256 PUSH0 DUP3 DUP3 SLOAD ADD SWAP3 POP POP DUP2 SWAP1 SSTORE POP JUMPDEST DUP2 PUSH20 0xFFFFFFFFFFFFFFFFFFFFFFFFFFFFFFFFFFFFFFFF AND DUP4 PUSH20 0xFFFFFFFFFFFFFFFFFFFFFFFFFFFFFFFFFFFFFFFF AND PUSH32 0xDDF252AD1BE2C89B69C2B068FC378DAA952BA7F163C4A11628F55A4DF523B3EF DUP4 PUSH1 0x40 MLOAD PUSH3 0x460 SWAP2 SWAP1 PUSH3 0xD39 JUMP JUMPDEST PUSH1 0x40 MLOAD DUP1 SWAP2 SUB SWAP1 LOG3 POP POP POP JUMP JUMPDEST PUSH0 PUSH1 0x5 PUSH0 DUP5 DUP2 MSTORE PUSH1 0x20 ADD SWAP1 DUP2 MSTORE PUSH1 0x20 ADD PUSH0 KECCAK256 PUSH0 ADD PUSH0 DUP4 PUSH20 0xFFFFFFFFFFFFFFFFFFFFFFFFFFFFFFFFFFFFFFFF AND PUSH20 0xFFFFFFFFFFFFFFFFFFFFFFFFFFFFFFFFFFFFFFFF AND DUP2 MSTORE PUSH1 0x20 ADD SWAP1 DUP2 MSTORE PUSH1 0x20 ADD PUSH0 KECCAK256 PUSH0 SWAP1 SLOAD SWAP1 PUSH2 0x100 EXP SWAP1 DIV PUSH1 0xFF AND SWAP1 POP SWAP3 SWAP2 POP POP JUMP JUMPDEST PUSH0 CALLER SWAP1 POP SWAP1 JUMP JUMPDEST PUSH0 PUSH1 0x40 MLOAD SWAP1 POP SWAP1 JUMP JUMPDEST PUSH0 DUP1 REVERT JUMPDEST PUSH0 DUP1 REVERT JUMPDEST PUSH0 DUP1 REVERT JUMPDEST PUSH0 DUP1 REVERT JUMPDEST PUSH0 PUSH1 0x1F NOT PUSH1 0x1F DUP4 ADD AND SWAP1 POP SWAP2 SWAP1 POP JUMP JUMPDEST PUSH32 0x4E487B7100000000000000000000000000000000000000000000000000000000 PUSH0 MSTORE PUSH1 0x41 PUSH1 0x4 MSTORE PUSH1 0x24 PUSH0 REVERT JUMPDEST PUSH3 0x539 DUP3 PUSH3 0x4F1 JUMP JUMPDEST DUP2 ADD DUP2 DUP2 LT PUSH8 0xFFFFFFFFFFFFFFFF DUP3 GT OR ISZERO PUSH3 0x55B JUMPI PUSH3 0x55A PUSH3 0x501 JUMP JUMPDEST JUMPDEST DUP1 PUSH1 0x40 MSTORE POP POP POP JUMP JUMPDEST PUSH0 PUSH3 0x56F PUSH3 0x4D8 JUMP JUMPDEST SWAP1 POP PUSH3 0x57D DUP3 DUP3 PUSH3 0x52E JUMP JUMPDEST SWAP2 SWAP1 POP JUMP JUMPDEST PUSH0 PUSH8 0xFFFFFFFFFFFFFFFF DUP3 GT ISZERO PUSH3 0x59F JUMPI PUSH3 0x59E PUSH3 0x501 JUMP JUMPDEST JUMPDEST PUSH3 0x5AA DUP3 PUSH3 0x4F1 JUMP JUMPDEST SWAP1 POP PUSH1 0x20 DUP2 ADD SWAP1 POP SWAP2 SWAP1 POP JUMP JUMPDEST PUSH0 JUMPDEST DUP4 DUP2 LT ISZERO PUSH3 0x5D6 JUMPI DUP1 DUP3 ADD MLOAD DUP2 DUP5 ADD MSTORE PUSH1 0x20 DUP2 ADD SWAP1 POP PUSH3 0x5B9 JUMP JUMPDEST PUSH0 DUP5 DUP5 ADD MSTORE POP POP POP POP JUMP JUMPDEST PUSH0 PUSH3 0x5F7 PUSH3 0x5F1 DUP5 PUSH3 0x582 JUMP JUMPDEST PUSH3 0x564 JUMP JUMPDEST SWAP1 POP DUP3 DUP2 MSTORE PUSH1 0x20 DUP2 ADD DUP5 DUP5 DUP5 ADD GT ISZERO PUSH3 0x616 JUMPI PUSH3 0x615 PUSH3 0x4ED JUMP JUMPDEST JUMPDEST PUSH3 0x623 DUP5 DUP3 DUP6 PUSH3 0x5B7 JUMP JUMPDEST POP SWAP4 SWAP3 POP POP POP JUMP JUMPDEST PUSH0 DUP3 PUSH1 0x1F DUP4 ADD SLT PUSH3 0x642 JUMPI PUSH3 0x641 PUSH3 0x4E9 JUMP JUMPDEST JUMPDEST DUP2 MLOAD PUSH3 0x654 DUP5 DUP3 PUSH1 0x20 DUP7 ADD PUSH3 0x5E1 JUMP JUMPDEST SWAP2 POP POP SWAP3 SWAP2 POP POP JUMP JUMPDEST PUSH0 DUP2 SWAP1 POP SWAP2 SWAP1 POP JUMP JUMPDEST PUSH3 0x671 DUP2 PUSH3 0x65D JUMP JUMPDEST DUP2 EQ PUSH3 0x67C JUMPI PUSH0 DUP1 REVERT JUMPDEST POP JUMP JUMPDEST PUSH0 DUP2 MLOAD SWAP1 POP PUSH3 0x68F DUP2 PUSH3 0x666 JUMP JUMPDEST SWAP3 SWAP2 POP POP JUMP JUMPDEST PUSH0 DUP1 PUSH0 PUSH1 0x60 DUP5 DUP7 SUB SLT ISZERO PUSH3 0x6AF JUMPI PUSH3 0x6AE PUSH3 0x4E1 JUMP JUMPDEST JUMPDEST PUSH0 DUP5 ADD MLOAD PUSH8 0xFFFFFFFFFFFFFFFF DUP2 GT ISZERO PUSH3 0x6CF JUMPI PUSH3 0x6CE PUSH3 0x4E5 JUMP JUMPDEST JUMPDEST PUSH3 0x6DD DUP7 DUP3 DUP8 ADD PUSH3 0x62B JUMP JUMPDEST SWAP4 POP POP PUSH1 0x20 DUP5 ADD MLOAD PUSH8 0xFFFFFFFFFFFFFFFF DUP2 GT ISZERO PUSH3 0x701 JUMPI PUSH3 0x700 PUSH3 0x4E5 JUMP JUMPDEST JUMPDEST PUSH3 0x70F DUP7 DUP3 DUP8 ADD PUSH3 0x62B JUMP JUMPDEST SWAP3 POP POP PUSH1 0x40 PUSH3 0x722 DUP7 DUP3 DUP8 ADD PUSH3 0x67F JUMP JUMPDEST SWAP2 POP POP SWAP3 POP SWAP3 POP SWAP3 JUMP JUMPDEST PUSH0 DUP2 MLOAD SWAP1 POP SWAP2 SWAP1 POP JUMP JUMPDEST PUSH32 0x4E487B7100000000000000000000000000000000000000000000000000000000 PUSH0 MSTORE PUSH1 0x22 PUSH1 0x4 MSTORE PUSH1 0x24 PUSH0 REVERT JUMPDEST PUSH0 PUSH1 0x2 DUP3 DIV SWAP1 POP PUSH1 0x1 DUP3 AND DUP1 PUSH3 0x77B JUMPI PUSH1 0x7F DUP3 AND SWAP2 POP JUMPDEST PUSH1 0x20 DUP3 LT DUP2 SUB PUSH3 0x791 JUMPI PUSH3 0x790 PUSH3 0x736 JUMP JUMPDEST JUMPDEST POP SWAP2 SWAP1 POP JUMP JUMPDEST PUSH0 DUP2 SWAP1 POP DUP2 PUSH0 MSTORE PUSH1 0x20 PUSH0 KECCAK256 SWAP1 POP SWAP2 SWAP1 POP JUMP JUMPDEST PUSH0 PUSH1 0x20 PUSH1 0x1F DUP4 ADD DIV SWAP1 POP SWAP2 SWAP1 POP JUMP JUMPDEST PUSH0 DUP3 DUP3 SHL SWAP1 POP SWAP3 SWAP2 POP POP JUMP JUMPDEST PUSH0 PUSH1 0x8 DUP4 MUL PUSH3 0x7F5 PUSH32 0xFFFFFFFFFFFFFFFFFFFFFFFFFFFFFFFFFFFFFFFFFFFFFFFFFFFFFFFFFFFFFFFF DUP3 PUSH3 0x7B8 JUMP JUMPDEST PUSH3 0x801 DUP7 DUP4 PUSH3 0x7B8 JUMP JUMPDEST SWAP6 POP DUP1 NOT DUP5 AND SWAP4 POP DUP1 DUP7 AND DUP5 OR SWAP3 POP POP POP SWAP4 SWAP3 POP POP POP JUMP JUMPDEST PUSH0 DUP2 SWAP1 POP SWAP2 SWAP1 POP JUMP JUMPDEST PUSH0 PUSH3 0x842 PUSH3 0x83C PUSH3 0x836 DUP5 PUSH3 0x65D JUMP JUMPDEST PUSH3 0x819 JUMP JUMPDEST PUSH3 0x65D JUMP JUMPDEST SWAP1 POP SWAP2 SWAP1 POP JUMP JUMPDEST PUSH0 DUP2 SWAP1 POP SWAP2 SWAP1 POP JUMP JUMPDEST PUSH3 0x85D DUP4 PUSH3 0x822 JUMP JUMPDEST PUSH3 0x875 PUSH3 0x86C DUP3 PUSH3 0x849 JUMP JUMPDEST DUP5 DUP5 SLOAD PUSH3 0x7C4 JUMP JUMPDEST DUP3 SSTORE POP POP POP POP JUMP JUMPDEST PUSH0 SWAP1 JUMP JUMPDEST PUSH3 0x88B PUSH3 0x87D JUMP JUMPDEST PUSH3 0x898 DUP2 DUP5 DUP5 PUSH3 0x852 JUMP JUMPDEST POP POP POP JUMP JUMPDEST JUMPDEST DUP2 DUP2 LT ISZERO PUSH3 0x8BF JUMPI PUSH3 0x8B3 PUSH0 DUP3 PUSH3 0x881 JUMP JUMPDEST PUSH1 0x1 DUP2 ADD SWAP1 POP PUSH3 0x89E JUMP JUMPDEST POP POP JUMP JUMPDEST PUSH1 0x1F DUP3 GT ISZERO PUSH3 0x90E JUMPI PUSH3 0x8D8 DUP2 PUSH3 0x797 JUMP JUMPDEST PUSH3 0x8E3 DUP5 PUSH3 0x7A9 JUMP JUMPDEST DUP2 ADD PUSH1 0x20 DUP6 LT ISZERO PUSH3 0x8F3 JUMPI DUP2 SWAP1 POP JUMPDEST PUSH3 0x90B PUSH3 0x902 DUP6 PUSH3 0x7A9 JUMP JUMPDEST DUP4 ADD DUP3 PUSH3 0x89D JUMP JUMPDEST POP POP JUMPDEST POP POP POP JUMP JUMPDEST PUSH0 DUP3 DUP3 SHR SWAP1 POP SWAP3 SWAP2 POP POP JUMP JUMPDEST PUSH0 PUSH3 0x930 PUSH0 NOT DUP5 PUSH1 0x8 MUL PUSH3 0x913 JUMP JUMPDEST NOT DUP1 DUP4 AND SWAP2 POP POP SWAP3 SWAP2 POP POP JUMP JUMPDEST PUSH0 PUSH3 0x94A DUP4 DUP4 PUSH3 0x91F JUMP JUMPDEST SWAP2 POP DUP3 PUSH1 0x2 MUL DUP3 OR SWAP1 POP SWAP3 SWAP2 POP POP JUMP JUMPDEST PUSH3 0x965 DUP3 PUSH3 0x72C JUMP JUMPDEST PUSH8 0xFFFFFFFFFFFFFFFF DUP2 GT ISZERO PUSH3 0x981 JUMPI PUSH3 0x980 PUSH3 0x501 JUMP JUMPDEST JUMPDEST PUSH3 0x98D DUP3 SLOAD PUSH3 0x763 JUMP JUMPDEST PUSH3 0x99A DUP3 DUP3 DUP6 PUSH3 0x8C3 JUMP JUMPDEST PUSH0 PUSH1 0x20 SWAP1 POP PUSH1 0x1F DUP4 GT PUSH1 0x1 DUP2 EQ PUSH3 0x9D0 JUMPI PUSH0 DUP5 ISZERO PUSH3 0x9BB JUMPI DUP3 DUP8 ADD MLOAD SWAP1 POP JUMPDEST PUSH3 0x9C7 DUP6 DUP3 PUSH3 0x93D JUMP JUMPDEST DUP7 SSTORE POP PUSH3 0xA36 JUMP JUMPDEST PUSH1 0x1F NOT DUP5 AND PUSH3 0x9E0 DUP7 PUSH3 0x797 JUMP JUMPDEST PUSH0 JUMPDEST DUP3 DUP2 LT ISZERO PUSH3 0xA09 JUMPI DUP5 DUP10 ADD MLOAD DUP3 SSTORE PUSH1 0x1 DUP3 ADD SWAP2 POP PUSH1 0x20 DUP6 ADD SWAP5 POP PUSH1 0x20 DUP2 ADD SWAP1 POP PUSH3 0x9E2 JUMP JUMPDEST DUP7 DUP4 LT ISZERO PUSH3 0xA29 JUMPI DUP5 DUP10 ADD MLOAD PUSH3 0xA25 PUSH1 0x1F DUP10 AND DUP3 PUSH3 0x91F JUMP JUMPDEST DUP4 SSTORE POP JUMPDEST PUSH1 0x1 PUSH1 0x2 DUP9 MUL ADD DUP9 SSTORE POP POP POP JUMPDEST POP POP POP POP POP POP JUMP JUMPDEST PUSH32 0x4E487B7100000000000000000000000000000000000000000000000000000000 PUSH0 MSTORE PUSH1 0x11 PUSH1 0x4 MSTORE PUSH1 0x24 PUSH0 REVERT JUMPDEST PUSH0 DUP2 PUSH1 0x1 SHR SWAP1 POP SWAP2 SWAP1 POP JUMP JUMPDEST PUSH0 DUP1 DUP3 SWAP2 POP DUP4 SWAP1 POP JUMPDEST PUSH1 0x1 DUP6 GT ISZERO PUSH3 0xAC8 JUMPI DUP1 DUP7 DIV DUP2 GT ISZERO PUSH3 0xAA0 JUMPI PUSH3 0xA9F PUSH3 0xA3E JUMP JUMPDEST JUMPDEST PUSH1 0x1 DUP6 AND ISZERO PUSH3 0xAB0 JUMPI DUP1 DUP3 MUL SWAP2 POP JUMPDEST DUP1 DUP2 MUL SWAP1 POP PUSH3 0xAC0 DUP6 PUSH3 0xA6B JUMP JUMPDEST SWAP5 POP PUSH3 0xA80 JUMP JUMPDEST SWAP5 POP SWAP5 SWAP3 POP POP POP JUMP JUMPDEST PUSH0 DUP3 PUSH3 0xAE2 JUMPI PUSH1 0x1 SWAP1 POP PUSH3 0xBB4 JUMP JUMPDEST DUP2 PUSH3 0xAF1 JUMPI PUSH0 SWAP1 POP PUSH3 0xBB4 JUMP JUMPDEST DUP2 PUSH1 0x1 DUP2 EQ PUSH3 0xB0A JUMPI PUSH1 0x2 DUP2 EQ PUSH3 0xB15 JUMPI PUSH3 0xB4B JUMP JUMPDEST PUSH1 0x1 SWAP2 POP POP PUSH3 0xBB4 JUMP JUMPDEST PUSH1 0xFF DUP5 GT ISZERO PUSH3 0xB2A JUMPI PUSH3 0xB29 PUSH3 0xA3E JUMP JUMPDEST JUMPDEST DUP4 PUSH1 0x2 EXP SWAP2 POP DUP5 DUP3 GT ISZERO PUSH3 0xB44 JUMPI PUSH3 0xB43 PUSH3 0xA3E JUMP JUMPDEST JUMPDEST POP PUSH3 0xBB4 JUMP JUMPDEST POP PUSH1 0x20 DUP4 LT PUSH2 0x133 DUP4 LT AND PUSH1 0x4E DUP5 LT PUSH1 0xB DUP5 LT AND OR ISZERO PUSH3 0xB85 JUMPI DUP3 DUP3 EXP SWAP1 POP DUP4 DUP2 GT ISZERO PUSH3 0xB7F JUMPI PUSH3 0xB7E PUSH3 0xA3E JUMP JUMPDEST JUMPDEST PUSH3 0xBB4 JUMP JUMPDEST PUSH3 0xB94 DUP5 DUP5 DUP5 PUSH1 0x1 PUSH3 0xA77 JUMP JUMPDEST SWAP3 POP SWAP1 POP DUP2 DUP5 DIV DUP2 GT ISZERO PUSH3 0xBAE JUMPI PUSH3 0xBAD PUSH3 0xA3E JUMP JUMPDEST JUMPDEST DUP2 DUP2 MUL SWAP1 POP JUMPDEST SWAP4 SWAP3 POP POP POP JUMP JUMPDEST PUSH0 PUSH3 0xBC7 DUP3 PUSH3 0x65D JUMP JUMPDEST SWAP2 POP PUSH3 0xBD4 DUP4 PUSH3 0x65D JUMP JUMPDEST SWAP3 POP PUSH3 0xC03 PUSH32 0xFFFFFFFFFFFFFFFFFFFFFFFFFFFFFFFFFFFFFFFFFFFFFFFFFFFFFFFFFFFFFFFF DUP5 DUP5 PUSH3 0xAD1 JUMP JUMPDEST SWAP1 POP SWAP3 SWAP2 POP POP JUMP JUMPDEST PUSH0 PUSH3 0xC17 DUP3 PUSH3 0x65D JUMP JUMPDEST SWAP2 POP PUSH3 0xC24 DUP4 PUSH3 0x65D JUMP JUMPDEST SWAP3 POP DUP3 DUP3 MUL PUSH3 0xC34 DUP2 PUSH3 0x65D JUMP JUMPDEST SWAP2 POP DUP3 DUP3 DIV DUP5 EQ DUP4 ISZERO OR PUSH3 0xC4E JUMPI PUSH3 0xC4D PUSH3 0xA3E JUMP JUMPDEST JUMPDEST POP SWAP3 SWAP2 POP POP JUMP JUMPDEST PUSH0 PUSH20 0xFFFFFFFFFFFFFFFFFFFFFFFFFFFFFFFFFFFFFFFF DUP3 AND SWAP1 POP SWAP2 SWAP1 POP JUMP JUMPDEST PUSH0 PUSH3 0xC80 DUP3 PUSH3 0xC55 JUMP JUMPDEST SWAP1 POP SWAP2 SWAP1 POP JUMP JUMPDEST PUSH3 0xC92 DUP2 PUSH3 0xC74 JUMP JUMPDEST DUP3 MSTORE POP POP JUMP JUMPDEST PUSH0 PUSH1 0x20 DUP3 ADD SWAP1 POP PUSH3 0xCAD PUSH0 DUP4 ADD DUP5 PUSH3 0xC87 JUMP JUMPDEST SWAP3 SWAP2 POP POP JUMP JUMPDEST PUSH0 PUSH3 0xCBF DUP3 PUSH3 0x65D JUMP JUMPDEST SWAP2 POP PUSH3 0xCCC DUP4 PUSH3 0x65D JUMP JUMPDEST SWAP3 POP DUP3 DUP3 ADD SWAP1 POP DUP1 DUP3 GT ISZERO PUSH3 0xCE7 JUMPI PUSH3 0xCE6 PUSH3 0xA3E JUMP JUMPDEST JUMPDEST SWAP3 SWAP2 POP POP JUMP JUMPDEST PUSH3 0xCF8 DUP2 PUSH3 0x65D JUMP JUMPDEST DUP3 MSTORE POP POP JUMP JUMPDEST PUSH0 PUSH1 0x60 DUP3 ADD SWAP1 POP PUSH3 0xD13 PUSH0 DUP4 ADD DUP7 PUSH3 0xC87 JUMP JUMPDEST PUSH3 0xD22 PUSH1 0x20 DUP4 ADD DUP6 PUSH3 0xCED JUMP JUMPDEST PUSH3 0xD31 PUSH1 0x40 DUP4 ADD DUP5 PUSH3 0xCED JUMP JUMPDEST SWAP5 SWAP4 POP POP POP POP JUMP JUMPDEST PUSH0 PUSH1 0x20 DUP3 ADD SWAP1 POP PUSH3 0xD4E PUSH0 DUP4 ADD DUP5 PUSH3 0xCED JUMP JUMPDEST SWAP3 SWAP2 POP POP JUMP JUMPDEST PUSH2 0x1827 DUP1 PUSH3 0xD62 PUSH0 CODECOPY PUSH0 RETURN INVALID PUSH1 0x80 PUSH1 0x40 MSTORE CALLVALUE DUP1 ISZERO PUSH2 0xF JUMPI PUSH0 DUP1 REVERT JUMPDEST POP PUSH1 0x4 CALLDATASIZE LT PUSH2 0x12A JUMPI PUSH0 CALLDATALOAD PUSH1 0xE0 SHR DUP1 PUSH4 0x40C10F19 GT PUSH2 0xAB JUMPI DUP1 PUSH4 0xA217FDDF GT PUSH2 0x6F JUMPI DUP1 PUSH4 0xA217FDDF EQ PUSH2 0x354 JUMPI DUP1 PUSH4 0xA9059CBB EQ PUSH2 0x372 JUMPI DUP1 PUSH4 0xD5391393 EQ PUSH2 0x3A2 JUMPI DUP1 PUSH4 0xD547741F EQ PUSH2 0x3C0 JUMPI DUP1 PUSH4 0xDD62ED3E EQ PUSH2 0x3DC JUMPI PUSH2 0x12A JUMP JUMPDEST DUP1 PUSH4 0x40C10F19 EQ PUSH2 0x29E JUMPI DUP1 PUSH4 0x70A08231 EQ PUSH2 0x2BA JUMPI DUP1 PUSH4 0x91D14854 EQ PUSH2 0x2EA JUMPI DUP1 PUSH4 0x95D89B41 EQ PUSH2 0x31A JUMPI DUP1 PUSH4 0x9DC29FAC EQ PUSH2 0x338 JUMPI PUSH2 0x12A JUMP JUMPDEST DUP1 PUSH4 0x248A9CA3 GT PUSH2 0xF2 JUMPI DUP1 PUSH4 0x248A9CA3 EQ PUSH2 0x1FA JUMPI DUP1 PUSH4 0x282C51F3 EQ PUSH2 0x22A JUMPI DUP1 PUSH4 0x2F2FF15D EQ PUSH2 0x248 JUMPI DUP1 PUSH4 0x313CE567 EQ PUSH2 0x264 JUMPI DUP1 PUSH4 0x36568ABE EQ PUSH2 0x282 JUMPI PUSH2 0x12A JUMP JUMPDEST DUP1 PUSH4 0x1FFC9A7 EQ PUSH2 0x12E JUMPI DUP1 PUSH4 0x6FDDE03 EQ PUSH2 0x15E JUMPI DUP1 PUSH4 0x95EA7B3 EQ PUSH2 0x17C JUMPI DUP1 PUSH4 0x18160DDD EQ PUSH2 0x1AC JUMPI DUP1 PUSH4 0x23B872DD EQ PUSH2 0x1CA JUMPI JUMPDEST PUSH0 DUP1 REVERT JUMPDEST PUSH2 0x148 PUSH1 0x4 DUP1 CALLDATASIZE SUB DUP2 ADD SWAP1 PUSH2 0x143 SWAP2 SWAP1 PUSH2 0x12DD JUMP JUMPDEST PUSH2 0x40C JUMP JUMPDEST PUSH1 0x40 MLOAD PUSH2 0x155 SWAP2 SWAP1 PUSH2 0x1322 JUMP JUMPDEST PUSH1 0x40 MLOAD DUP1 SWAP2 SUB SWAP1 RETURN JUMPDEST PUSH2 0x166 PUSH2 0x485 JUMP JUMPDEST PUSH1 0x40 MLOAD PUSH2 0x173 SWAP2 SWAP1 PUSH2 0x13C5 JUMP JUMPDEST PUSH1 0x40 MLOAD DUP1 SWAP2 SUB SWAP1 RETURN JUMPDEST PUSH2 0x196 PUSH1 0x4 DUP1 CALLDATASIZE SUB DUP2 ADD SWAP1 PUSH2 0x191 SWAP2 SWAP1 PUSH2 0x1472 JUMP JUMPDEST PUSH2 0x515 JUMP JUMPDEST PUSH1 0x40 MLOAD PUSH2 0x1A3 SWAP2 SWAP1 PUSH2 0x1322 JUMP JUMPDEST PUSH1 0x40 MLOAD DUP1 SWAP2 SUB SWAP1 RETURN JUMPDEST PUSH2 0x1B4 PUSH2 0x537 JUMP JUMPDEST PUSH1 0x40 MLOAD PUSH2 0x1C1 SWAP2 SWAP1 PUSH2 0x14BF JUMP JUMPDEST PUSH1 0x40 MLOAD DUP1 SWAP2 SUB SWAP1 RETURN JUMPDEST PUSH2 0x1E4 PUSH1 0x4 DUP1 CALLDATASIZE SUB DUP2 ADD SWAP1 PUSH2 0x1DF SWAP2 SWAP1 PUSH2 0x14D8 JUMP JUMPDEST PUSH2 0x540 JUMP JUMPDEST PUSH1 0x40 MLOAD PUSH2 0x1F1 SWAP2 SWAP1 PUSH2 0x1322 JUMP JUMPDEST PUSH1 0x40 MLOAD DUP1 SWAP2 SUB SWAP1 RETURN JUMPDEST PUSH2 0x214 PUSH1 0x4 DUP1 CALLDATASIZE SUB DUP2 ADD SWAP1 PUSH2 0x20F SWAP2 SWAP1 PUSH2 0x155B JUMP JUMPDEST PUSH2 0x56E JUMP JUMPDEST PUSH1 0x40 MLOAD PUSH2 0x221 SWAP2 SWAP1 PUSH2 0x1595 JUMP JUMPDEST PUSH1 0x40 MLOAD DUP1 SWAP2 SUB SWAP1 RETURN JUMPDEST PUSH2 0x232 PUSH2 0x58B JUMP JUMPDEST PUSH1 0x40 MLOAD PUSH2 0x23F SWAP2 SWAP1 PUSH2 0x1595 JUMP JUMPDEST PUSH1 0x40 MLOAD DUP1 SWAP2 SUB SWAP1 RETURN JUMPDEST PUSH2 0x262 PUSH1 0x4 DUP1 CALLDATASIZE SUB DUP2 ADD SWAP1 PUSH2 0x25D SWAP2 SWAP1 PUSH2 0x15AE JUMP JUMPDEST PUSH2 0x5AF JUMP JUMPDEST STOP JUMPDEST PUSH2 0x26C PUSH2 0x5D1 JUMP JUMPDEST PUSH1 0x40 MLOAD PUSH2 0x279 SWAP2 SWAP1 PUSH2 0x1607 JUMP JUMPDEST PUSH1 0x40 MLOAD DUP1 SWAP2 SUB SWAP1 RETURN JUMPDEST PUSH2 0x29C PUSH1 0x4 DUP1 CALLDATASIZE SUB DUP2 ADD SWAP1 PUSH2 0x297 SWAP2 SWAP1 PUSH2 0x15AE JUMP JUMPDEST PUSH2 0x5D9 JUMP JUMPDEST STOP JUMPDEST PUSH2 0x2B8 PUSH1 0x4 DUP1 CALLDATASIZE SUB DUP2 ADD SWAP1 PUSH2 0x2B3 SWAP2 SWAP1 PUSH2 0x1472 JUMP JUMPDEST PUSH2 0x654 JUMP JUMPDEST STOP JUMPDEST PUSH2 0x2D4 PUSH1 0x4 DUP1 CALLDATASIZE SUB DUP2 ADD SWAP1 PUSH2 0x2CF SWAP2 SWAP1 PUSH2 0x1620 JUMP JUMPDEST PUSH2 0x6C6 JUMP JUMPDEST PUSH1 0x40 MLOAD PUSH2 0x2E1 SWAP2 SWAP1 PUSH2 0x14BF JUMP JUMPDEST PUSH1 0x40 MLOAD DUP1 SWAP2 SUB SWAP1 RETURN JUMPDEST PUSH2 0x304 PUSH1 0x4 DUP1 CALLDATASIZE SUB DUP2 ADD SWAP1 PUSH2 0x2FF SWAP2 SWAP1 PUSH2 0x15AE JUMP JUMPDEST PUSH2 0x70B JUMP JUMPDEST PUSH1 0x40 MLOAD PUSH2 0x311 SWAP2 SWAP1 PUSH2 0x1322 JUMP JUMPDEST PUSH1 0x40 MLOAD DUP1 SWAP2 SUB SWAP1 RETURN JUMPDEST PUSH2 0x322 PUSH2 0x76F JUMP JUMPDEST PUSH1 0x40 MLOAD PUSH2 0x32F SWAP2 SWAP1 PUSH2 0x13C5 JUMP JUMPDEST PUSH1 0x40 MLOAD DUP1 SWAP2 SUB SWAP1 RETURN JUMPDEST PUSH2 0x352 PUSH1 0x4 DUP1 CALLDATASIZE SUB DUP2 ADD SWAP1 PUSH2 0x34D SWAP2 SWAP1 PUSH2 0x1472 JUMP JUMPDEST PUSH2 0x7FF JUMP JUMPDEST STOP JUMPDEST PUSH2 0x35C PUSH2 0x871 JUMP JUMPDEST PUSH1 0x40 MLOAD PUSH2 0x369 SWAP2 SWAP1 PUSH2 0x1595 JUMP JUMPDEST PUSH1 0x40 MLOAD DUP1 SWAP2 SUB SWAP1 RETURN JUMPDEST PUSH2 0x38C PUSH1 0x4 DUP1 CALLDATASIZE SUB DUP2 ADD SWAP1 PUSH2 0x387 SWAP2 SWAP1 PUSH2 0x1472 JUMP JUMPDEST PUSH2 0x877 JUMP JUMPDEST PUSH1 0x40 MLOAD PUSH2 0x399 SWAP2 SWAP1 PUSH2 0x1322 JUMP JUMPDEST PUSH1 0x40 MLOAD DUP1 SWAP2 SUB SWAP1 RETURN JUMPDEST PUSH2 0x3AA PUSH2 0x899 JUMP JUMPDEST PUSH1 0x40 MLOAD PUSH2 0x3B7 SWAP2 SWAP1 PUSH2 0x1595 JUMP JUMPDEST PUSH1 0x40 MLOAD DUP1 SWAP2 SUB SWAP1 RETURN JUMPDEST PUSH2 0x3DA PUSH1 0x4 DUP1 CALLDATASIZE SUB DUP2 ADD SWAP1 PUSH2 0x3D5 SWAP2 SWAP1 PUSH2 0x15AE JUMP JUMPDEST PUSH2 0x8BD JUMP JUMPDEST STOP JUMPDEST PUSH2 0x3F6 PUSH1 0x4 DUP1 CALLDATASIZE SUB DUP2 ADD SWAP1 PUSH2 0x3F1 SWAP2 SWAP1 PUSH2 0x164B JUMP JUMPDEST PUSH2 0x8DF JUMP JUMPDEST PUSH1 0x40 MLOAD PUSH2 0x403 SWAP2 SWAP1 PUSH2 0x14BF JUMP JUMPDEST PUSH1 0x40 MLOAD DUP1 SWAP2 SUB SWAP1 RETURN JUMPDEST PUSH0 PUSH32 0x7965DB0B00000000000000000000000000000000000000000000000000000000 PUSH28 0xFFFFFFFFFFFFFFFFFFFFFFFFFFFFFFFFFFFFFFFFFFFFFFFFFFFFFFFF NOT AND DUP3 PUSH28 0xFFFFFFFFFFFFFFFFFFFFFFFFFFFFFFFFFFFFFFFFFFFFFFFFFFFFFFFF NOT AND EQ DUP1 PUSH2 0x47E JUMPI POP PUSH2 0x47D DUP3 PUSH2 0x961 JUMP JUMPDEST JUMPDEST SWAP1 POP SWAP2 SWAP1 POP JUMP JUMPDEST PUSH1 0x60 PUSH1 0x3 DUP1 SLOAD PUSH2 0x494 SWAP1 PUSH2 0x16B6 JUMP JUMPDEST DUP1 PUSH1 0x1F ADD PUSH1 0x20 DUP1 SWAP2 DIV MUL PUSH1 0x20 ADD PUSH1 0x40 MLOAD SWAP1 DUP2 ADD PUSH1 0x40 MSTORE DUP1 SWAP3 SWAP2 SWAP1 DUP2 DUP2 MSTORE PUSH1 0x20 ADD DUP3 DUP1 SLOAD PUSH2 0x4C0 SWAP1 PUSH2 0x16B6 JUMP JUMPDEST DUP1 ISZERO PUSH2 0x50B JUMPI DUP1 PUSH1 0x1F LT PUSH2 0x4E2 JUMPI PUSH2 0x100 DUP1 DUP4 SLOAD DIV MUL DUP4 MSTORE SWAP2 PUSH1 0x20 ADD SWAP2 PUSH2 0x50B JUMP JUMPDEST DUP3 ADD SWAP2 SWAP1 PUSH0 MSTORE PUSH1 0x20 PUSH0 KECCAK256 SWAP1 JUMPDEST DUP2 SLOAD DUP2 MSTORE SWAP1 PUSH1 0x1 ADD SWAP1 PUSH1 0x20 ADD DUP1 DUP4 GT PUSH2 0x4EE JUMPI DUP3 SWAP1 SUB PUSH1 0x1F AND DUP3 ADD SWAP2 JUMPDEST POP POP POP POP POP SWAP1 POP SWAP1 JUMP JUMPDEST PUSH0 DUP1 PUSH2 0x51F PUSH2 0x9CA JUMP JUMPDEST SWAP1 POP PUSH2 0x52C DUP2 DUP6 DUP6 PUSH2 0x9D1 JUMP JUMPDEST PUSH1 0x1 SWAP2 POP POP SWAP3 SWAP2 POP POP JUMP JUMPDEST PUSH0 PUSH1 0x2 SLOAD SWAP1 POP SWAP1 JUMP JUMPDEST PUSH0 DUP1 PUSH2 0x54A PUSH2 0x9CA JUMP JUMPDEST SWAP1 POP PUSH2 0x557 DUP6 DUP3 DUP6 PUSH2 0x9E3 JUMP JUMPDEST PUSH2 0x562 DUP6 DUP6 DUP6 PUSH2 0xA75 JUMP JUMPDEST PUSH1 0x1 SWAP2 POP POP SWAP4 SWAP3 POP POP POP JUMP JUMPDEST PUSH0 PUSH1 0x5 PUSH0 DUP4 DUP2 MSTORE PUSH1 0x20 ADD SWAP1 DUP2 MSTORE PUSH1 0x20 ADD PUSH0 KECCAK256 PUSH1 0x1 ADD SLOAD SWAP1 POP SWAP2 SWAP1 POP JUMP JUMPDEST PUSH32 0x3C11D16CBAFFD01DF69CE1C404F6340EE057498F5F00246190EA54220576A848 DUP2 JUMP JUMPDEST PUSH2 0x5B8 DUP3 PUSH2 0x56E JUMP JUMPDEST PUSH2 0x5C1 DUP2 PUSH2 0xB65 JUMP JUMPDEST PUSH2 0x5CB DUP4 DUP4 PUSH2 0xB79 JUMP JUMPDEST POP POP POP POP JUMP JUMPDEST PUSH0 PUSH1 0x8 SWAP1 POP SWAP1 JUMP JUMPDEST PUSH2 0x5E1 PUSH2 0x9CA JUMP JUMPDEST PUSH20 0xFFFFFFFFFFFFFFFFFFFFFFFFFFFFFFFFFFFFFFFF AND DUP2 PUSH20 0xFFFFFFFFFFFFFFFFFFFFFFFFFFFFFFFFFFFFFFFF AND EQ PUSH2 0x645 JUMPI PUSH1 0x40 MLOAD PUSH32 0x6697B23200000000000000000000000000000000000000000000000000000000 DUP2 MSTORE PUSH1 0x4 ADD PUSH1 0x40 MLOAD DUP1 SWAP2 SUB SWAP1 REVERT JUMPDEST PUSH2 0x64F DUP3 DUP3 PUSH2 0xC63 JUMP JUMPDEST POP POP POP JUMP JUMPDEST PUSH32 0x9F2DF0FED2C77648DE5860A4CC508CD0818C85B8B8A1AB4CEEEF8D981C8956A6 PUSH2 0x67E DUP2 PUSH2 0xB65 JUMP JUMPDEST PUSH2 0x688 DUP4 DUP4 PUSH2 0xD4D JUMP JUMPDEST PUSH32 0x79C65068F81072733B15AB3CBA61B23110793F90AB099D228A414B186333A81E DUP4 DUP4 PUSH1 0x40 MLOAD PUSH2 0x6B9 SWAP3 SWAP2 SWAP1 PUSH2 0x16F5 JUMP JUMPDEST PUSH1 0x40 MLOAD DUP1 SWAP2 SUB SWAP1 LOG1 POP POP POP JUMP JUMPDEST PUSH0 DUP1 PUSH0 DUP4 PUSH20 0xFFFFFFFFFFFFFFFFFFFFFFFFFFFFFFFFFFFFFFFF AND PUSH20 0xFFFFFFFFFFFFFFFFFFFFFFFFFFFFFFFFFFFFFFFF AND DUP2 MSTORE PUSH1 0x20 ADD SWAP1 DUP2 MSTORE PUSH1 0x20 ADD PUSH0 KECCAK256 SLOAD SWAP1 POP SWAP2 SWAP1 POP JUMP JUMPDEST PUSH0 PUSH1 0x5 PUSH0 DUP5 DUP2 MSTORE PUSH1 0x20 ADD SWAP1 DUP2 MSTORE PUSH1 0x20 ADD PUSH0 KECCAK256 PUSH0 ADD PUSH0 DUP4 PUSH20 0xFFFFFFFFFFFFFFFFFFFFFFFFFFFFFFFFFFFFFFFF AND PUSH20 0xFFFFFFFFFFFFFFFFFFFFFFFFFFFFFFFFFFFFFFFF AND DUP2 MSTORE PUSH1 0x20 ADD SWAP1 DUP2 MSTORE PUSH1 0x20 ADD PUSH0 KECCAK256 PUSH0 SWAP1 SLOAD SWAP1 PUSH2 0x100 EXP SWAP1 DIV PUSH1 0xFF AND SWAP1 POP SWAP3 SWAP2 POP POP JUMP JUMPDEST PUSH1 0x60 PUSH1 0x4 DUP1 SLOAD PUSH2 0x77E SWAP1 PUSH2 0x16B6 JUMP JUMPDEST DUP1 PUSH1 0x1F ADD PUSH1 0x20 DUP1 SWAP2 DIV MUL PUSH1 0x20 ADD PUSH1 0x40 MLOAD SWAP1 DUP2 ADD PUSH1 0x40 MSTORE DUP1 SWAP3 SWAP2 SWAP1 DUP2 DUP2 MSTORE PUSH1 0x20 ADD DUP3 DUP1 SLOAD PUSH2 0x7AA SWAP1 PUSH2 0x16B6 JUMP JUMPDEST DUP1 ISZERO PUSH2 0x7F5 JUMPI DUP1 PUSH1 0x1F LT PUSH2 0x7CC JUMPI PUSH2 0x100 DUP1 DUP4 SLOAD DIV MUL DUP4 MSTORE SWAP2 PUSH1 0x20 ADD SWAP2 PUSH2 0x7F5 JUMP JUMPDEST DUP3 ADD SWAP2 SWAP1 PUSH0 MSTORE PUSH1 0x20 PUSH0 KECCAK256 SWAP1 JUMPDEST DUP2 SLOAD DUP2 MSTORE SWAP1 PUSH1 0x1 ADD SWAP1 PUSH1 0x20 ADD DUP1 DUP4 GT PUSH2 0x7D8 JUMPI DUP3 SWAP1 SUB PUSH1 0x1F AND DUP3 ADD SWAP2 JUMPDEST POP POP POP POP POP SWAP1 POP SWAP1 JUMP JUMPDEST PUSH32 0x3C11D16CBAFFD01DF69CE1C404F6340EE057498F5F00246190EA54220576A848 PUSH2 0x829 DUP2 PUSH2 0xB65 JUMP JUMPDEST PUSH2 0x833 DUP4 DUP4 PUSH2 0xDCC JUMP JUMPDEST PUSH32 0xD1DF306C742159C188C29D2C167874A39B84FD0F96F794AD7EA53295680EC1C5 DUP4 DUP4 PUSH1 0x40 MLOAD PUSH2 0x864 SWAP3 SWAP2 SWAP1 PUSH2 0x16F5 JUMP JUMPDEST PUSH1 0x40 MLOAD DUP1 SWAP2 SUB SWAP1 LOG1 POP POP POP JUMP JUMPDEST PUSH0 DUP1 SHL DUP2 JUMP JUMPDEST PUSH0 DUP1 PUSH2 0x881 PUSH2 0x9CA JUMP JUMPDEST SWAP1 POP PUSH2 0x88E DUP2 DUP6 DUP6 PUSH2 0xA75 JUMP JUMPDEST PUSH1 0x1 SWAP2 POP POP SWAP3 SWAP2 POP POP JUMP JUMPDEST PUSH32 0x9F2DF0FED2C77648DE5860A4CC508CD0818C85B8B8A1AB4CEEEF8D981C8956A6 DUP2 JUMP JUMPDEST PUSH2 0x8C6 DUP3 PUSH2 0x56E JUMP JUMPDEST PUSH2 0x8CF DUP2 PUSH2 0xB65 JUMP JUMPDEST PUSH2 0x8D9 DUP4 DUP4 PUSH2 0xC63 JUMP JUMPDEST POP POP POP POP JUMP JUMPDEST PUSH0 PUSH1 0x1 PUSH0 DUP5 PUSH20 0xFFFFFFFFFFFFFFFFFFFFFFFFFFFFFFFFFFFFFFFF AND PUSH20 0xFFFFFFFFFFFFFFFFFFFFFFFFFFFFFFFFFFFFFFFF AND DUP2 MSTORE PUSH1 0x20 ADD SWAP1 DUP2 MSTORE PUSH1 0x20 ADD PUSH0 KECCAK256 PUSH0 DUP4 PUSH20 0xFFFFFFFFFFFFFFFFFFFFFFFFFFFFFFFFFFFFFFFF AND PUSH20 0xFFFFFFFFFFFFFFFFFFFFFFFFFFFFFFFFFFFFFFFF AND DUP2 MSTORE PUSH1 0x20 ADD SWAP1 DUP2 MSTORE PUSH1 0x20 ADD PUSH0 KECCAK256 SLOAD SWAP1 POP SWAP3 SWAP2 POP POP JUMP JUMPDEST PUSH0 PUSH32 0x1FFC9A700000000000000000000000000000000000000000000000000000000 PUSH28 0xFFFFFFFFFFFFFFFFFFFFFFFFFFFFFFFFFFFFFFFFFFFFFFFFFFFFFFFF NOT AND DUP3 PUSH28 0xFFFFFFFFFFFFFFFFFFFFFFFFFFFFFFFFFFFFFFFFFFFFFFFFFFFFFFFF NOT AND EQ SWAP1 POP SWAP2 SWAP1 POP JUMP JUMPDEST PUSH0 CALLER SWAP1 POP SWAP1 JUMP JUMPDEST PUSH2 0x9DE DUP4 DUP4 DUP4 PUSH1 0x1 PUSH2 0xE4B JUMP JUMPDEST POP POP POP JUMP JUMPDEST PUSH0 PUSH2 0x9EE DUP5 DUP5 PUSH2 0x8DF JUMP JUMPDEST SWAP1 POP PUSH32 0xFFFFFFFFFFFFFFFFFFFFFFFFFFFFFFFFFFFFFFFFFFFFFFFFFFFFFFFFFFFFFFFF DUP2 EQ PUSH2 0xA6F JUMPI DUP2 DUP2 LT ISZERO PUSH2 0xA60 JUMPI DUP3 DUP2 DUP4 PUSH1 0x40 MLOAD PUSH32 0xFB8F41B200000000000000000000000000000000000000000000000000000000 DUP2 MSTORE PUSH1 0x4 ADD PUSH2 0xA57 SWAP4 SWAP3 SWAP2 SWAP1 PUSH2 0x171C JUMP JUMPDEST PUSH1 0x40 MLOAD DUP1 SWAP2 SUB SWAP1 REVERT JUMPDEST PUSH2 0xA6E DUP5 DUP5 DUP5 DUP5 SUB PUSH0 PUSH2 0xE4B JUMP JUMPDEST JUMPDEST POP POP POP POP JUMP JUMPDEST PUSH0 PUSH20 0xFFFFFFFFFFFFFFFFFFFFFFFFFFFFFFFFFFFFFFFF AND DUP4 PUSH20 0xFFFFFFFFFFFFFFFFFFFFFFFFFFFFFFFFFFFFFFFF AND SUB PUSH2 0xAE5 JUMPI PUSH0 PUSH1 0x40 MLOAD PUSH32 0x96C6FD1E00000000000000000000000000000000000000000000000000000000 DUP2 MSTORE PUSH1 0x4 ADD PUSH2 0xADC SWAP2 SWAP1 PUSH2 0x1751 JUMP JUMPDEST PUSH1 0x40 MLOAD DUP1 SWAP2 SUB SWAP1 REVERT JUMPDEST PUSH0 PUSH20 0xFFFFFFFFFFFFFFFFFFFFFFFFFFFFFFFFFFFFFFFF AND DUP3 PUSH20 0xFFFFFFFFFFFFFFFFFFFFFFFFFFFFFFFFFFFFFFFF AND SUB PUSH2 0xB55 JUMPI PUSH0 PUSH1 0x40 MLOAD PUSH32 0xEC442F0500000000000000000000000000000000000000000000000000000000 DUP2 MSTORE PUSH1 0x4 ADD PUSH2 0xB4C SWAP2 SWAP1 PUSH2 0x1751 JUMP JUMPDEST PUSH1 0x40 MLOAD DUP1 SWAP2 SUB SWAP1 REVERT JUMPDEST PUSH2 0xB60 DUP4 DUP4 DUP4 PUSH2 0x101A JUMP JUMPDEST POP POP POP JUMP JUMPDEST PUSH2 0xB76 DUP2 PUSH2 0xB71 PUSH2 0x9CA JUMP JUMPDEST PUSH2 0x1233 JUMP JUMPDEST POP JUMP JUMPDEST PUSH0 PUSH2 0xB84 DUP4 DUP4 PUSH2 0x70B JUMP JUMPDEST PUSH2 0xC59 JUMPI PUSH1 0x1 PUSH1 0x5 PUSH0 DUP6 DUP2 MSTORE PUSH1 0x20 ADD SWAP1 DUP2 MSTORE PUSH1 0x20 ADD PUSH0 KECCAK256 PUSH0 ADD PUSH0 DUP5 PUSH20 0xFFFFFFFFFFFFFFFFFFFFFFFFFFFFFFFFFFFFFFFF AND PUSH20 0xFFFFFFFFFFFFFFFFFFFFFFFFFFFFFFFFFFFFFFFF AND DUP2 MSTORE PUSH1 0x20 ADD SWAP1 DUP2 MSTORE PUSH1 0x20 ADD PUSH0 KECCAK256 PUSH0 PUSH2 0x100 EXP DUP2 SLOAD DUP2 PUSH1 0xFF MUL NOT AND SWAP1 DUP4 ISZERO ISZERO MUL OR SWAP1 SSTORE POP PUSH2 0xBF6 PUSH2 0x9CA JUMP JUMPDEST PUSH20 0xFFFFFFFFFFFFFFFFFFFFFFFFFFFFFFFFFFFFFFFF AND DUP3 PUSH20 0xFFFFFFFFFFFFFFFFFFFFFFFFFFFFFFFFFFFFFFFF AND DUP5 PUSH32 0x2F8788117E7EFF1D82E926EC794901D17C78024A50270940304540A733656F0D PUSH1 0x40 MLOAD PUSH1 0x40 MLOAD DUP1 SWAP2 SUB SWAP1 LOG4 PUSH1 0x1 SWAP1 POP PUSH2 0xC5D JUMP JUMPDEST PUSH0 SWAP1 POP JUMPDEST SWAP3 SWAP2 POP POP JUMP JUMPDEST PUSH0 PUSH2 0xC6E DUP4 DUP4 PUSH2 0x70B JUMP JUMPDEST ISZERO PUSH2 0xD43 JUMPI PUSH0 PUSH1 0x5 PUSH0 DUP6 DUP2 MSTORE PUSH1 0x20 ADD SWAP1 DUP2 MSTORE PUSH1 0x20 ADD PUSH0 KECCAK256 PUSH0 ADD PUSH0 DUP5 PUSH20 0xFFFFFFFFFFFFFFFFFFFFFFFFFFFFFFFFFFFFFFFF AND PUSH20 0xFFFFFFFFFFFFFFFFFFFFFFFFFFFFFFFFFFFFFFFF AND DUP2 MSTORE PUSH1 0x20 ADD SWAP1 DUP2 MSTORE PUSH1 0x20 ADD PUSH0 KECCAK256 PUSH0 PUSH2 0x100 EXP DUP2 SLOAD DUP2 PUSH1 0xFF MUL NOT AND SWAP1 DUP4 ISZERO ISZERO MUL OR SWAP1 SSTORE POP PUSH2 0xCE0 PUSH2 0x9CA JUMP JUMPDEST PUSH20 0xFFFFFFFFFFFFFFFFFFFFFFFFFFFFFFFFFFFFFFFF AND DUP3 PUSH20 0xFFFFFFFFFFFFFFFFFFFFFFFFFFFFFFFFFFFFFFFF AND DUP5 PUSH32 0xF6391F5C32D9C69D2A47EA670B442974B53935D1EDC7FD64EB21E047A839171B PUSH1 0x40 MLOAD PUSH1 0x40 MLOAD DUP1 SWAP2 SUB SWAP1 LOG4 PUSH1 0x1 SWAP1 POP PUSH2 0xD47 JUMP JUMPDEST PUSH0 SWAP1 POP JUMPDEST SWAP3 SWAP2 POP POP JUMP JUMPDEST PUSH0 PUSH20 0xFFFFFFFFFFFFFFFFFFFFFFFFFFFFFFFFFFFFFFFF AND DUP3 PUSH20 0xFFFFFFFFFFFFFFFFFFFFFFFFFFFFFFFFFFFFFFFF AND SUB PUSH2 0xDBD JUMPI PUSH0 PUSH1 0x40 MLOAD PUSH32 0xEC442F0500000000000000000000000000000000000000000000000000000000 DUP2 MSTORE PUSH1 0x4 ADD PUSH2 0xDB4 SWAP2 SWAP1 PUSH2 0x1751 JUMP JUMPDEST PUSH1 0x40 MLOAD DUP1 SWAP2 SUB SWAP1 REVERT JUMPDEST PUSH2 0xDC8 PUSH0 DUP4 DUP4 PUSH2 0x101A JUMP JUMPDEST POP POP JUMP JUMPDEST PUSH0 PUSH20 0xFFFFFFFFFFFFFFFFFFFFFFFFFFFFFFFFFFFFFFFF AND DUP3 PUSH20 0xFFFFFFFFFFFFFFFFFFFFFFFFFFFFFFFFFFFFFFFF AND SUB PUSH2 0xE3C JUMPI PUSH0 PUSH1 0x40 MLOAD PUSH32 0x96C6FD1E00000000000000000000000000000000000000000000000000000000 DUP2 MSTORE PUSH1 0x4 ADD PUSH2 0xE33 SWAP2 SWAP1 PUSH2 0x1751 JUMP JUMPDEST PUSH1 0x40 MLOAD DUP1 SWAP2 SUB SWAP1 REVERT JUMPDEST PUSH2 0xE47 DUP3 PUSH0 DUP4 PUSH2 0x101A JUMP JUMPDEST POP POP JUMP JUMPDEST PUSH0 PUSH20 0xFFFFFFFFFFFFFFFFFFFFFFFFFFFFFFFFFFFFFFFF AND DUP5 PUSH20 0xFFFFFFFFFFFFFFFFFFFFFFFFFFFFFFFFFFFFFFFF AND SUB PUSH2 0xEBB JUMPI PUSH0 PUSH1 0x40 MLOAD PUSH32 0xE602DF0500000000000000000000000000000000000000000000000000000000 DUP2 MSTORE PUSH1 0x4 ADD PUSH2 0xEB2 SWAP2 SWAP1 PUSH2 0x1751 JUMP JUMPDEST PUSH1 0x40 MLOAD DUP1 SWAP2 SUB SWAP1 REVERT JUMPDEST PUSH0 PUSH20 0xFFFFFFFFFFFFFFFFFFFFFFFFFFFFFFFFFFFFFFFF AND DUP4 PUSH20 0xFFFFFFFFFFFFFFFFFFFFFFFFFFFFFFFFFFFFFFFF AND SUB PUSH2 0xF2B JUMPI PUSH0 PUSH1 0x40 MLOAD PUSH32 0x94280D6200000000000000000000000000000000000000000000000000000000 DUP2 MSTORE PUSH1 0x4 ADD PUSH2 0xF22 SWAP2 SWAP1 PUSH2 0x1751 JUMP JUMPDEST PUSH1 0x40 MLOAD DUP1 SWAP2 SUB SWAP1 REVERT JUMPDEST DUP2 PUSH1 0x1 PUSH0 DUP7 PUSH20 0xFFFFFFFFFFFFFFFFFFFFFFFFFFFFFFFFFFFFFFFF AND PUSH20 0xFFFFFFFFFFFFFFFFFFFFFFFFFFFFFFFFFFFFFFFF AND DUP2 MSTORE PUSH1 0x20 ADD SWAP1 DUP2 MSTORE PUSH1 0x20 ADD PUSH0 KECCAK256 PUSH0 DUP6 PUSH20 0xFFFFFFFFFFFFFFFFFFFFFFFFFFFFFFFFFFFFFFFF AND PUSH20 0xFFFFFFFFFFFFFFFFFFFFFFFFFFFFFFFFFFFFFFFF AND DUP2 MSTORE PUSH1 0x20 ADD SWAP1 DUP2 MSTORE PUSH1 0x20 ADD PUSH0 KECCAK256 DUP2 SWAP1 SSTORE POP DUP1 ISZERO PUSH2 0x1014 JUMPI DUP3 PUSH20 0xFFFFFFFFFFFFFFFFFFFFFFFFFFFFFFFFFFFFFFFF AND DUP5 PUSH20 0xFFFFFFFFFFFFFFFFFFFFFFFFFFFFFFFFFFFFFFFF AND PUSH32 0x8C5BE1E5EBEC7D5BD14F71427D1E84F3DD0314C0F7B2291E5B200AC8C7C3B925 DUP5 PUSH1 0x40 MLOAD PUSH2 0x100B SWAP2 SWAP1 PUSH2 0x14BF JUMP JUMPDEST PUSH1 0x40 MLOAD DUP1 SWAP2 SUB SWAP1 LOG3 JUMPDEST POP POP POP POP JUMP JUMPDEST PUSH0 PUSH20 0xFFFFFFFFFFFFFFFFFFFFFFFFFFFFFFFFFFFFFFFF AND DUP4 PUSH20 0xFFFFFFFFFFFFFFFFFFFFFFFFFFFFFFFFFFFFFFFF AND SUB PUSH2 0x106A JUMPI DUP1 PUSH1 0x2 PUSH0 DUP3 DUP3 SLOAD PUSH2 0x105E SWAP2 SWAP1 PUSH2 0x1797 JUMP JUMPDEST SWAP3 POP POP DUP2 SWAP1 SSTORE POP PUSH2 0x1138 JUMP JUMPDEST PUSH0 DUP1 PUSH0 DUP6 PUSH20 0xFFFFFFFFFFFFFFFFFFFFFFFFFFFFFFFFFFFFFFFF AND PUSH20 0xFFFFFFFFFFFFFFFFFFFFFFFFFFFFFFFFFFFFFFFF AND DUP2 MSTORE PUSH1 0x20 ADD SWAP1 DUP2 MSTORE PUSH1 0x20 ADD PUSH0 KECCAK256 SLOAD SWAP1 POP DUP2 DUP2 LT ISZERO PUSH2 0x10F3 JUMPI DUP4 DUP2 DUP4 PUSH1 0x40 MLOAD PUSH32 0xE450D38C00000000000000000000000000000000000000000000000000000000 DUP2 MSTORE PUSH1 0x4 ADD PUSH2 0x10EA SWAP4 SWAP3 SWAP2 SWAP1 PUSH2 0x171C JUMP JUMPDEST PUSH1 0x40 MLOAD DUP1 SWAP2 SUB SWAP1 REVERT JUMPDEST DUP2 DUP2 SUB PUSH0 DUP1 DUP7 PUSH20 0xFFFFFFFFFFFFFFFFFFFFFFFFFFFFFFFFFFFFFFFF AND PUSH20 0xFFFFFFFFFFFFFFFFFFFFFFFFFFFFFFFFFFFFFFFF AND DUP2 MSTORE PUSH1 0x20 ADD SWAP1 DUP2 MSTORE PUSH1 0x20 ADD PUSH0 KECCAK256 DUP2 SWAP1 SSTORE POP POP JUMPDEST PUSH0 PUSH20 0xFFFFFFFFFFFFFFFFFFFFFFFFFFFFFFFFFFFFFFFF AND DUP3 PUSH20 0xFFFFFFFFFFFFFFFFFFFFFFFFFFFFFFFFFFFFFFFF AND SUB PUSH2 0x117F JUMPI DUP1 PUSH1 0x2 PUSH0 DUP3 DUP3 SLOAD SUB SWAP3 POP POP DUP2 SWAP1 SSTORE POP PUSH2 0x11C9 JUMP JUMPDEST DUP1 PUSH0 DUP1 DUP5 PUSH20 0xFFFFFFFFFFFFFFFFFFFFFFFFFFFFFFFFFFFFFFFF AND PUSH20 0xFFFFFFFFFFFFFFFFFFFFFFFFFFFFFFFFFFFFFFFF AND DUP2 MSTORE PUSH1 0x20 ADD SWAP1 DUP2 MSTORE PUSH1 0x20 ADD PUSH0 KECCAK256 PUSH0 DUP3 DUP3 SLOAD ADD SWAP3 POP POP DUP2 SWAP1 SSTORE POP JUMPDEST DUP2 PUSH20 0xFFFFFFFFFFFFFFFFFFFFFFFFFFFFFFFFFFFFFFFF AND DUP4 PUSH20 0xFFFFFFFFFFFFFFFFFFFFFFFFFFFFFFFFFFFFFFFF AND PUSH32 0xDDF252AD1BE2C89B69C2B068FC378DAA952BA7F163C4A11628F55A4DF523B3EF DUP4 PUSH1 0x40 MLOAD PUSH2 0x1226 SWAP2 SWAP1 PUSH2 0x14BF JUMP JUMPDEST PUSH1 0x40 MLOAD DUP1 SWAP2 SUB SWAP1 LOG3 POP POP POP JUMP JUMPDEST PUSH2 0x123D DUP3 DUP3 PUSH2 0x70B JUMP JUMPDEST PUSH2 0x1280 JUMPI DUP1 DUP3 PUSH1 0x40 MLOAD PUSH32 0xE2517D3F00000000000000000000000000000000000000000000000000000000 DUP2 MSTORE PUSH1 0x4 ADD PUSH2 0x1277 SWAP3 SWAP2 SWAP1 PUSH2 0x17CA JUMP JUMPDEST PUSH1 0x40 MLOAD DUP1 SWAP2 SUB SWAP1 REVERT JUMPDEST POP POP JUMP JUMPDEST PUSH0 DUP1 REVERT JUMPDEST PUSH0 PUSH32 0xFFFFFFFF00000000000000000000000000000000000000000000000000000000 DUP3 AND SWAP1 POP SWAP2 SWAP1 POP JUMP JUMPDEST PUSH2 0x12BC DUP2 PUSH2 0x1288 JUMP JUMPDEST DUP2 EQ PUSH2 0x12C6 JUMPI PUSH0 DUP1 REVERT JUMPDEST POP JUMP JUMPDEST PUSH0 DUP2 CALLDATALOAD SWAP1 POP PUSH2 0x12D7 DUP2 PUSH2 0x12B3 JUMP JUMPDEST SWAP3 SWAP2 POP POP JUMP JUMPDEST PUSH0 PUSH1 0x20 DUP3 DUP5 SUB SLT ISZERO PUSH2 0x12F2 JUMPI PUSH2 0x12F1 PUSH2 0x1284 JUMP JUMPDEST JUMPDEST PUSH0 PUSH2 0x12FF DUP5 DUP3 DUP6 ADD PUSH2 0x12C9 JUMP JUMPDEST SWAP2 POP POP SWAP3 SWAP2 POP POP JUMP JUMPDEST PUSH0 DUP2 ISZERO ISZERO SWAP1 POP SWAP2 SWAP1 POP JUMP JUMPDEST PUSH2 0x131C DUP2 PUSH2 0x1308 JUMP JUMPDEST DUP3 MSTORE POP POP JUMP JUMPDEST PUSH0 PUSH1 0x20 DUP3 ADD SWAP1 POP PUSH2 0x1335 PUSH0 DUP4 ADD DUP5 PUSH2 0x1313 JUMP JUMPDEST SWAP3 SWAP2 POP POP JUMP JUMPDEST PUSH0 DUP2 MLOAD SWAP1 POP SWAP2 SWAP1 POP JUMP JUMPDEST PUSH0 DUP3 DUP3 MSTORE PUSH1 0x20 DUP3 ADD SWAP1 POP SWAP3 SWAP2 POP POP JUMP JUMPDEST PUSH0 JUMPDEST DUP4 DUP2 LT ISZERO PUSH2 0x1372 JUMPI DUP1 DUP3 ADD MLOAD DUP2 DUP5 ADD MSTORE PUSH1 0x20 DUP2 ADD SWAP1 POP PUSH2 0x1357 JUMP JUMPDEST PUSH0 DUP5 DUP5 ADD MSTORE POP POP POP POP JUMP JUMPDEST PUSH0 PUSH1 0x1F NOT PUSH1 0x1F DUP4 ADD AND SWAP1 POP SWAP2 SWAP1 POP JUMP JUMPDEST PUSH0 PUSH2 0x1397 DUP3 PUSH2 0x133B JUMP JUMPDEST PUSH2 0x13A1 DUP2 DUP6 PUSH2 0x1345 JUMP JUMPDEST SWAP4 POP PUSH2 0x13B1 DUP2 DUP6 PUSH1 0x20 DUP7 ADD PUSH2 0x1355 JUMP JUMPDEST PUSH2 0x13BA DUP2 PUSH2 0x137D JUMP JUMPDEST DUP5 ADD SWAP2 POP POP SWAP3 SWAP2 POP POP JUMP JUMPDEST PUSH0 PUSH1 0x20 DUP3 ADD SWAP1 POP DUP2 DUP2 SUB PUSH0 DUP4 ADD MSTORE PUSH2 0x13DD DUP2 DUP5 PUSH2 0x138D JUMP JUMPDEST SWAP1 POP SWAP3 SWAP2 POP POP JUMP JUMPDEST PUSH0 PUSH20 0xFFFFFFFFFFFFFFFFFFFFFFFFFFFFFFFFFFFFFFFF DUP3 AND SWAP1 POP SWAP2 SWAP1 POP JUMP JUMPDEST PUSH0 PUSH2 0x140E DUP3 PUSH2 0x13E5 JUMP JUMPDEST SWAP1 POP SWAP2 SWAP1 POP JUMP JUMPDEST PUSH2 0x141E DUP2 PUSH2 0x1404 JUMP JUMPDEST DUP2 EQ PUSH2 0x1428 JUMPI PUSH0 DUP1 REVERT JUMPDEST POP JUMP JUMPDEST PUSH0 DUP2 CALLDATALOAD SWAP1 POP PUSH2 0x1439 DUP2 PUSH2 0x1415 JUMP JUMPDEST SWAP3 SWAP2 POP POP JUMP JUMPDEST PUSH0 DUP2 SWAP1 POP SWAP2 SWAP1 POP JUMP JUMPDEST PUSH2 0x1451 DUP2 PUSH2 0x143F JUMP JUMPDEST DUP2 EQ PUSH2 0x145B JUMPI PUSH0 DUP1 REVERT JUMPDEST POP JUMP JUMPDEST PUSH0 DUP2 CALLDATALOAD SWAP1 POP PUSH2 0x146C DUP2 PUSH2 0x1448 JUMP JUMPDEST SWAP3 SWAP2 POP POP JUMP JUMPDEST PUSH0 DUP1 PUSH1 0x40 DUP4 DUP6 SUB SLT ISZERO PUSH2 0x1488 JUMPI PUSH2 0x1487 PUSH2 0x1284 JUMP JUMPDEST JUMPDEST PUSH0 PUSH2 0x1495 DUP6 DUP3 DUP7 ADD PUSH2 0x142B JUMP JUMPDEST SWAP3 POP POP PUSH1 0x20 PUSH2 0x14A6 DUP6 DUP3 DUP7 ADD PUSH2 0x145E JUMP JUMPDEST SWAP2 POP POP SWAP3 POP SWAP3 SWAP1 POP JUMP JUMPDEST PUSH2 0x14B9 DUP2 PUSH2 0x143F JUMP JUMPDEST DUP3 MSTORE POP POP JUMP JUMPDEST PUSH0 PUSH1 0x20 DUP3 ADD SWAP1 POP PUSH2 0x14D2 PUSH0 DUP4 ADD DUP5 PUSH2 0x14B0 JUMP JUMPDEST SWAP3 SWAP2 POP POP JUMP JUMPDEST PUSH0 DUP1 PUSH0 PUSH1 0x60 DUP5 DUP7 SUB SLT ISZERO PUSH2 0x14EF JUMPI PUSH2 0x14EE PUSH2 0x1284 JUMP JUMPDEST JUMPDEST PUSH0 PUSH2 0x14FC DUP7 DUP3 DUP8 ADD PUSH2 0x142B JUMP JUMPDEST SWAP4 POP POP PUSH1 0x20 PUSH2 0x150D DUP7 DUP3 DUP8 ADD PUSH2 0x142B JUMP JUMPDEST SWAP3 POP POP PUSH1 0x40 PUSH2 0x151E DUP7 DUP3 DUP8 ADD PUSH2 0x145E JUMP JUMPDEST SWAP2 POP POP SWAP3 POP SWAP3 POP SWAP3 JUMP JUMPDEST PUSH0 DUP2 SWAP1 POP SWAP2 SWAP1 POP JUMP JUMPDEST PUSH2 0x153A DUP2 PUSH2 0x1528 JUMP JUMPDEST DUP2 EQ PUSH2 0x1544 JUMPI PUSH0 DUP1 REVERT JUMPDEST POP JUMP JUMPDEST PUSH0 DUP2 CALLDATALOAD SWAP1 POP PUSH2 0x1555 DUP2 PUSH2 0x1531 JUMP JUMPDEST SWAP3 SWAP2 POP POP JUMP JUMPDEST PUSH0 PUSH1 0x20 DUP3 DUP5 SUB SLT ISZERO PUSH2 0x1570 JUMPI PUSH2 0x156F PUSH2 0x1284 JUMP JUMPDEST JUMPDEST PUSH0 PUSH2 0x157D DUP5 DUP3 DUP6 ADD PUSH2 0x1547 JUMP JUMPDEST SWAP2 POP POP SWAP3 SWAP2 POP POP JUMP JUMPDEST PUSH2 0x158F DUP2 PUSH2 0x1528 JUMP JUMPDEST DUP3 MSTORE POP POP JUMP JUMPDEST PUSH0 PUSH1 0x20 DUP3 ADD SWAP1 POP PUSH2 0x15A8 PUSH0 DUP4 ADD DUP5 PUSH2 0x1586 JUMP JUMPDEST SWAP3 SWAP2 POP POP JUMP JUMPDEST PUSH0 DUP1 PUSH1 0x40 DUP4 DUP6 SUB SLT ISZERO PUSH2 0x15C4 JUMPI PUSH2 0x15C3 PUSH2 0x1284 JUMP JUMPDEST JUMPDEST PUSH0 PUSH2 0x15D1 DUP6 DUP3 DUP7 ADD PUSH2 0x1547 JUMP JUMPDEST SWAP3 POP POP PUSH1 0x20 PUSH2 0x15E2 DUP6 DUP3 DUP7 ADD PUSH2 0x142B JUMP JUMPDEST SWAP2 POP POP SWAP3 POP SWAP3 SWAP1 POP JUMP JUMPDEST PUSH0 PUSH1 0xFF DUP3 AND SWAP1 POP SWAP2 SWAP1 POP JUMP JUMPDEST PUSH2 0x1601 DUP2 PUSH2 0x15EC JUMP JUMPDEST DUP3 MSTORE POP POP JUMP JUMPDEST PUSH0 PUSH1 0x20 DUP3 ADD SWAP1 POP PUSH2 0x161A PUSH0 DUP4 ADD DUP5 PUSH2 0x15F8 JUMP JUMPDEST SWAP3 SWAP2 POP POP JUMP JUMPDEST PUSH0 PUSH1 0x20 DUP3 DUP5 SUB SLT ISZERO PUSH2 0x1635 JUMPI PUSH2 0x1634 PUSH2 0x1284 JUMP JUMPDEST JUMPDEST PUSH0 PUSH2 0x1642 DUP5 DUP3 DUP6 ADD PUSH2 0x142B JUMP JUMPDEST SWAP2 POP POP SWAP3 SWAP2 POP POP JUMP JUMPDEST PUSH0 DUP1 PUSH1 0x40 DUP4 DUP6 SUB SLT ISZERO PUSH2 0x1661 JUMPI PUSH2 0x1660 PUSH2 0x1284 JUMP JUMPDEST JUMPDEST PUSH0 PUSH2 0x166E DUP6 DUP3 DUP7 ADD PUSH2 0x142B JUMP JUMPDEST SWAP3 POP POP PUSH1 0x20 PUSH2 0x167F DUP6 DUP3 DUP7 ADD PUSH2 0x142B JUMP JUMPDEST SWAP2 POP POP SWAP3 POP SWAP3 SWAP1 POP JUMP JUMPDEST PUSH32 0x4E487B7100000000000000000000000000000000000000000000000000000000 PUSH0 MSTORE PUSH1 0x22 PUSH1 0x4 MSTORE PUSH1 0x24 PUSH0 REVERT JUMPDEST PUSH0 PUSH1 0x2 DUP3 DIV SWAP1 POP PUSH1 0x1 DUP3 AND DUP1 PUSH2 0x16CD JUMPI PUSH1 0x7F DUP3 AND SWAP2 POP JUMPDEST PUSH1 0x20 DUP3 LT DUP2 SUB PUSH2 0x16E0 JUMPI PUSH2 0x16DF PUSH2 0x1689 JUMP JUMPDEST JUMPDEST POP SWAP2 SWAP1 POP JUMP JUMPDEST PUSH2 0x16EF DUP2 PUSH2 0x1404 JUMP JUMPDEST DUP3 MSTORE POP POP JUMP JUMPDEST PUSH0 PUSH1 0x40 DUP3 ADD SWAP1 POP PUSH2 0x1708 PUSH0 DUP4 ADD DUP6 PUSH2 0x16E6 JUMP JUMPDEST PUSH2 0x1715 PUSH1 0x20 DUP4 ADD DUP5 PUSH2 0x14B0 JUMP JUMPDEST SWAP4 SWAP3 POP POP POP JUMP JUMPDEST PUSH0 PUSH1 0x60 DUP3 ADD SWAP1 POP PUSH2 0x172F PUSH0 DUP4 ADD DUP7 PUSH2 0x16E6 JUMP JUMPDEST PUSH2 0x173C PUSH1 0x20 DUP4 ADD DUP6 PUSH2 0x14B0 JUMP JUMPDEST PUSH2 0x1749 PUSH1 0x40 DUP4 ADD DUP5 PUSH2 0x14B0 JUMP JUMPDEST SWAP5 SWAP4 POP POP POP POP JUMP JUMPDEST PUSH0 PUSH1 0x20 DUP3 ADD SWAP1 POP PUSH2 0x1764 PUSH0 DUP4 ADD DUP5 PUSH2 0x16E6 JUMP JUMPDEST SWAP3 SWAP2 POP POP JUMP JUMPDEST PUSH32 0x4E487B7100000000000000000000000000000000000000000000000000000000 PUSH0 MSTORE PUSH1 0x11 PUSH1 0x4 MSTORE PUSH1 0x24 PUSH0 REVERT JUMPDEST PUSH0 PUSH2 0x17A1 DUP3 PUSH2 0x143F JUMP JUMPDEST SWAP2 POP PUSH2 0x17AC DUP4 PUSH2 0x143F JUMP JUMPDEST SWAP3 POP DUP3 DUP3 ADD SWAP1 POP DUP1 DUP3 GT ISZERO PUSH2 0x17C4 JUMPI PUSH2 0x17C3 PUSH2 0x176A JUMP JUMPDEST JUMPDEST SWAP3 SWAP2 POP POP JUMP JUMPDEST PUSH0 PUSH1 0x40 DUP3 ADD SWAP1 POP PUSH2 0x17DD PUSH0 DUP4 ADD DUP6 PUSH2 0x16E6 JUMP JUMPDEST PUSH2 0x17EA PUSH1 0x20 DUP4 ADD DUP5 PUSH2 0x1586 JUMP JUMPDEST SWAP4 SWAP3 POP POP POP JUMP INVALID LOG2 PUSH5 0x6970667358 0x22 SLT KECCAK256 SLT SELFDESTRUCT 0xD CALLCODE SWAP14 EXTCODECOPY CALLDATACOPY 0xC8 PUSH19 0x26DD7CDDBEF7EE8D08F34C6C501E884C59B27C SLOAD NOT TIMESTAMP DUP7 PUSH5 0x736F6C6343 STOP ADDMOD XOR STOP CALLER "
				},
				"gasEstimates": {
					"creation": {
						"codeDepositCost": "1236600",
						"executionCost": "infinite",
						"totalCost": "infinite"
					},
					"external": {
						"BURNER_ROLE()": "370",
						"DEFAULT_ADMIN_ROLE()": "352",
						"MINTER_ROLE()": "391",
						"allowance(address,address)": "infinite",
						"approve(address,uint256)": "infinite",
						"balanceOf(address)": "2874",
						"burn(address,uint256)": "infinite",
						"decimals()": "427",
						"getRoleAdmin(bytes32)": "infinite",
						"grantRole(bytes32,address)": "infinite",
						"hasRole(bytes32,address)": "3189",
						"mint(address,uint256)": "infinite",
						"name()": "infinite",
						"renounceRole(bytes32,address)": "infinite",
						"revokeRole(bytes32,address)": "infinite",
						"supportsInterface(bytes4)": "741",
						"symbol()": "infinite",
						"totalSupply()": "2522",
						"transfer(address,uint256)": "infinite",
						"transferFrom(address,address,uint256)": "infinite"
					}
				},
				"methodIdentifiers": {
					"BURNER_ROLE()": "282c51f3",
					"DEFAULT_ADMIN_ROLE()": "a217fddf",
					"MINTER_ROLE()": "d5391393",
					"allowance(address,address)": "dd62ed3e",
					"approve(address,uint256)": "095ea7b3",
					"balanceOf(address)": "70a08231",
					"burn(address,uint256)": "9dc29fac",
					"decimals()": "313ce567",
					"getRoleAdmin(bytes32)": "248a9ca3",
					"grantRole(bytes32,address)": "2f2ff15d",
					"hasRole(bytes32,address)": "91d14854",
					"mint(address,uint256)": "40c10f19",
					"name()": "06fdde03",
					"renounceRole(bytes32,address)": "36568abe",
					"revokeRole(bytes32,address)": "d547741f",
					"supportsInterface(bytes4)": "01ffc9a7",
					"symbol()": "95d89b41",
					"totalSupply()": "18160ddd",
					"transfer(address,uint256)": "a9059cbb",
					"transferFrom(address,address,uint256)": "23b872dd"
				}
			},
			"storageLayout": {
				"storage": [
					{
						"astId": 682,
						"contract": "sBNB_flattened.sol:sAsset",
						"label": "_balances",
						"offset": 0,
						"slot": "0",
						"type": "t_mapping(t_address,t_uint256)"
					},
					{
						"astId": 688,
						"contract": "sBNB_flattened.sol:sAsset",
						"label": "_allowances",
						"offset": 0,
						"slot": "1",
						"type": "t_mapping(t_address,t_mapping(t_address,t_uint256))"
					},
					{
						"astId": 690,
						"contract": "sBNB_flattened.sol:sAsset",
						"label": "_totalSupply",
						"offset": 0,
						"slot": "2",
						"type": "t_uint256"
					},
					{
						"astId": 692,
						"contract": "sBNB_flattened.sol:sAsset",
						"label": "_name",
						"offset": 0,
						"slot": "3",
						"type": "t_string_storage"
					},
					{
						"astId": 694,
						"contract": "sBNB_flattened.sol:sAsset",
						"label": "_symbol",
						"offset": 0,
						"slot": "4",
						"type": "t_string_storage"
					},
					{
						"astId": 299,
						"contract": "sBNB_flattened.sol:sAsset",
						"label": "_roles",
						"offset": 0,
						"slot": "5",
						"type": "t_mapping(t_bytes32,t_struct(RoleData)294_storage)"
					}
				],
				"types": {
					"t_address": {
						"encoding": "inplace",
						"label": "address",
						"numberOfBytes": "20"
					},
					"t_bool": {
						"encoding": "inplace",
						"label": "bool",
						"numberOfBytes": "1"
					},
					"t_bytes32": {
						"encoding": "inplace",
						"label": "bytes32",
						"numberOfBytes": "32"
					},
					"t_mapping(t_address,t_bool)": {
						"encoding": "mapping",
						"key": "t_address",
						"label": "mapping(address => bool)",
						"numberOfBytes": "32",
						"value": "t_bool"
					},
					"t_mapping(t_address,t_mapping(t_address,t_uint256))": {
						"encoding": "mapping",
						"key": "t_address",
						"label": "mapping(address => mapping(address => uint256))",
						"numberOfBytes": "32",
						"value": "t_mapping(t_address,t_uint256)"
					},
					"t_mapping(t_address,t_uint256)": {
						"encoding": "mapping",
						"key": "t_address",
						"label": "mapping(address => uint256)",
						"numberOfBytes": "32",
						"value": "t_uint256"
					},
					"t_mapping(t_bytes32,t_struct(RoleData)294_storage)": {
						"encoding": "mapping",
						"key": "t_bytes32",
						"label": "mapping(bytes32 => struct AccessControl.RoleData)",
						"numberOfBytes": "32",
						"value": "t_struct(RoleData)294_storage"
					},
					"t_string_storage": {
						"encoding": "bytes",
						"label": "string",
						"numberOfBytes": "32"
					},
					"t_struct(RoleData)294_storage": {
						"encoding": "inplace",
						"label": "struct AccessControl.RoleData",
						"members": [
							{
								"astId": 291,
								"contract": "sBNB_flattened.sol:sAsset",
								"label": "hasRole",
								"offset": 0,
								"slot": "0",
								"type": "t_mapping(t_address,t_bool)"
							},
							{
								"astId": 293,
								"contract": "sBNB_flattened.sol:sAsset",
								"label": "adminRole",
								"offset": 0,
								"slot": "1",
								"type": "t_bytes32"
							}
						],
						"numberOfBytes": "64"
					},
					"t_uint256": {
						"encoding": "inplace",
						"label": "uint256",
						"numberOfBytes": "32"
					}
				}
			},
			"userdoc": {
				"kind": "user",
				"methods": {},
				"version": 1
			}
		}
	}
}