{
	"AtomicTripReservation.sol": {
		"AtomicTripReservation": {
			"abi": [
				{
					"inputs": [
						{
							"internalType": "address",
							"name": "HotelReservationAddress",
							"type": "address"
						},
						{
							"internalType": "address",
							"name": "FlightReservationAddress",
							"type": "address"
						},
						{
							"internalType": "uint256",
							"name": "HotelPrice",
							"type": "uint256"
						},
						{
							"internalType": "uint256",
							"name": "FlightPrice",
							"type": "uint256"
						}
					],
					"name": "bookTrip",
					"outputs": [],
					"stateMutability": "payable",
					"type": "function"
				}
			],
			"devdoc": {
				"kind": "dev",
				"methods": {},
				"version": 1
			},
			"evm": {
				"assembly": "    /* \"AtomicTripReservation.sol\":290:989  contract AtomicTripReservation{... */\n  mstore(0x40, 0x80)\n  callvalue\n  dup1\n  iszero\n  tag_1\n  jumpi\n  0x00\n  dup1\n  revert\ntag_1:\n  pop\n  dataSize(sub_0)\n  dup1\n  dataOffset(sub_0)\n  0x00\n  codecopy\n  0x00\n  return\nstop\n\nsub_0: assembly {\n        /* \"AtomicTripReservation.sol\":290:989  contract AtomicTripReservation{... */\n      mstore(0x40, 0x80)\n      jumpi(tag_1, lt(calldatasize, 0x04))\n      shr(0xe0, calldataload(0x00))\n      dup1\n      0x53c960ce\n      eq\n      tag_2\n      jumpi\n    tag_1:\n      0x00\n      dup1\n      revert\n        /* \"AtomicTripReservation.sol\":333:984  function bookTrip(address HotelReservationAddress, address FlightReservationAddress, uint256 HotelPrice, uint256 FlightPrice) payable external{... */\n    tag_2:\n      tag_3\n      0x04\n      dup1\n      calldatasize\n      sub\n      dup2\n      add\n      swap1\n      tag_4\n      swap2\n      swap1\n      tag_5\n      jump\t// in\n    tag_4:\n      tag_6\n      jump\t// in\n    tag_3:\n      stop\n    tag_6:\n        /* \"AtomicTripReservation.sol\":486:520  IHotelReservation HotelReservation */\n      0x00\n        /* \"AtomicTripReservation.sol\":541:564  HotelReservationAddress */\n      dup5\n        /* \"AtomicTripReservation.sol\":486:565  IHotelReservation HotelReservation = IHotelReservation(HotelReservationAddress) */\n      swap1\n      pop\n        /* \"AtomicTripReservation.sol\":576:612  IFlightReservation FlightReservation */\n      0x00\n        /* \"AtomicTripReservation.sol\":634:658  FlightReservationAddress */\n      dup5\n        /* \"AtomicTripReservation.sol\":576:659  IFlightReservation FlightReservation = IFlightReservation(FlightReservationAddress) */\n      swap1\n      pop\n        /* \"AtomicTripReservation.sol\":670:686  HotelReservation */\n      dup2\n        /* \"AtomicTripReservation.sol\":670:695  HotelReservation.bookRoom */\n      0xffffffffffffffffffffffffffffffffffffffff\n      and\n      0xb55a3910\n        /* \"AtomicTripReservation.sol\":702:712  HotelPrice */\n      dup6\n        /* \"AtomicTripReservation.sol\":670:715  HotelReservation.bookRoom{value:HotelPrice}() */\n      mload(0x40)\n      dup3\n      0xffffffff\n      and\n      0xe0\n      shl\n      dup2\n      mstore\n      0x04\n      add\n      0x00\n      mload(0x40)\n      dup1\n      dup4\n      sub\n      dup2\n      dup6\n      dup9\n      dup1\n      extcodesize\n      iszero\n      dup1\n      iszero\n      tag_8\n      jumpi\n      0x00\n      dup1\n      revert\n    tag_8:\n      pop\n      gas\n      call\n      iszero\n      dup1\n      iszero\n      tag_10\n      jumpi\n      returndatasize\n      0x00\n      dup1\n      returndatacopy\n      revert(0x00, returndatasize)\n    tag_10:\n      pop\n      pop\n      pop\n      pop\n      pop\n        /* \"AtomicTripReservation.sol\":726:743  FlightReservation */\n      dup1\n        /* \"AtomicTripReservation.sol\":726:754  FlightReservation.bookFlight */\n      0xffffffffffffffffffffffffffffffffffffffff\n      and\n      0x95c92c8f\n        /* \"AtomicTripReservation.sol\":761:772  FlightPrice */\n      dup5\n        /* \"AtomicTripReservation.sol\":726:775  FlightReservation.bookFlight{value:FlightPrice}() */\n      mload(0x40)\n      dup3\n      0xffffffff\n      and\n      0xe0\n      shl\n      dup2\n      mstore\n      0x04\n      add\n      0x00\n      mload(0x40)\n      dup1\n      dup4\n      sub\n      dup2\n      dup6\n      dup9\n      dup1\n      extcodesize\n      iszero\n      dup1\n      iszero\n      tag_11\n      jumpi\n      0x00\n      dup1\n      revert\n    tag_11:\n      pop\n      gas\n      call\n      iszero\n      dup1\n      iszero\n      tag_13\n      jumpi\n      returndatasize\n      0x00\n      dup1\n      returndatacopy\n      revert(0x00, returndatasize)\n    tag_13:\n      pop\n      pop\n      pop\n      pop\n      pop\n        /* \"AtomicTripReservation.sol\":786:797  uint refund */\n      0x00\n        /* \"AtomicTripReservation.sol\":825:836  FlightPrice */\n      dup4\n        /* \"AtomicTripReservation.sol\":812:822  HotelPrice */\n      dup6\n        /* \"AtomicTripReservation.sol\":800:809  msg.value */\n      callvalue\n        /* \"AtomicTripReservation.sol\":800:822  msg.value - HotelPrice */\n      tag_14\n      swap2\n      swap1\n      tag_15\n      jump\t// in\n    tag_14:\n        /* \"AtomicTripReservation.sol\":800:836  msg.value - HotelPrice - FlightPrice */\n      tag_16\n      swap2\n      swap1\n      tag_15\n      jump\t// in\n    tag_16:\n        /* \"AtomicTripReservation.sol\":786:836  uint refund = msg.value - HotelPrice - FlightPrice */\n      swap1\n      pop\n        /* \"AtomicTripReservation.sol\":847:876  address payable refundAddress */\n      0x00\n        /* \"AtomicTripReservation.sol\":887:896  tx.origin */\n      origin\n        /* \"AtomicTripReservation.sol\":847:897  address payable refundAddress = payable(tx.origin) */\n      swap1\n      pop\n        /* \"AtomicTripReservation.sol\":918:919  0 */\n      0x00\n        /* \"AtomicTripReservation.sol\":911:917  refund */\n      dup3\n        /* \"AtomicTripReservation.sol\":911:919  refund>0 */\n      gt\n        /* \"AtomicTripReservation.sol\":908:977  if(refund>0){... */\n      iszero\n      tag_17\n      jumpi\n        /* \"AtomicTripReservation.sol\":935:948  refundAddress */\n      dup1\n        /* \"AtomicTripReservation.sol\":935:957  refundAddress.transfer */\n      0xffffffffffffffffffffffffffffffffffffffff\n      and\n        /* \"AtomicTripReservation.sol\":935:965  refundAddress.transfer(refund) */\n      0x08fc\n        /* \"AtomicTripReservation.sol\":958:964  refund */\n      dup4\n        /* \"AtomicTripReservation.sol\":935:965  refundAddress.transfer(refund) */\n      swap1\n      dup2\n      iszero\n      mul\n      swap1\n      mload(0x40)\n      0x00\n      mload(0x40)\n      dup1\n      dup4\n      sub\n      dup2\n      dup6\n      dup9\n      dup9\n      call\n      swap4\n      pop\n      pop\n      pop\n      pop\n      iszero\n      dup1\n      iszero\n      tag_19\n      jumpi\n      returndatasize\n      0x00\n      dup1\n      returndatacopy\n      revert(0x00, returndatasize)\n    tag_19:\n      pop\n        /* \"AtomicTripReservation.sol\":908:977  if(refund>0){... */\n    tag_17:\n        /* \"AtomicTripReservation.sol\":475:984  {... */\n      pop\n      pop\n      pop\n      pop\n        /* \"AtomicTripReservation.sol\":333:984  function bookTrip(address HotelReservationAddress, address FlightReservationAddress, uint256 HotelPrice, uint256 FlightPrice) payable external{... */\n      pop\n      pop\n      pop\n      pop\n      jump\t// out\n        /* \"#utility.yul\":88:205   */\n    tag_21:\n        /* \"#utility.yul\":197:198   */\n      0x00\n        /* \"#utility.yul\":194:195   */\n      dup1\n        /* \"#utility.yul\":187:199   */\n      revert\n        /* \"#utility.yul\":334:460   */\n    tag_23:\n        /* \"#utility.yul\":371:378   */\n      0x00\n        /* \"#utility.yul\":411:453   */\n      0xffffffffffffffffffffffffffffffffffffffff\n        /* \"#utility.yul\":404:409   */\n      dup3\n        /* \"#utility.yul\":400:454   */\n      and\n        /* \"#utility.yul\":389:454   */\n      swap1\n      pop\n        /* \"#utility.yul\":334:460   */\n      swap2\n      swap1\n      pop\n      jump\t// out\n        /* \"#utility.yul\":466:562   */\n    tag_24:\n        /* \"#utility.yul\":503:510   */\n      0x00\n        /* \"#utility.yul\":532:556   */\n      tag_37\n        /* \"#utility.yul\":550:555   */\n      dup3\n        /* \"#utility.yul\":532:556   */\n      tag_23\n      jump\t// in\n    tag_37:\n        /* \"#utility.yul\":521:556   */\n      swap1\n      pop\n        /* \"#utility.yul\":466:562   */\n      swap2\n      swap1\n      pop\n      jump\t// out\n        /* \"#utility.yul\":568:690   */\n    tag_25:\n        /* \"#utility.yul\":641:665   */\n      tag_39\n        /* \"#utility.yul\":659:664   */\n      dup2\n        /* \"#utility.yul\":641:665   */\n      tag_24\n      jump\t// in\n    tag_39:\n        /* \"#utility.yul\":634:639   */\n      dup2\n        /* \"#utility.yul\":631:666   */\n      eq\n        /* \"#utility.yul\":621:684   */\n      tag_40\n      jumpi\n        /* \"#utility.yul\":680:681   */\n      0x00\n        /* \"#utility.yul\":677:678   */\n      dup1\n        /* \"#utility.yul\":670:682   */\n      revert\n        /* \"#utility.yul\":621:684   */\n    tag_40:\n        /* \"#utility.yul\":568:690   */\n      pop\n      jump\t// out\n        /* \"#utility.yul\":696:835   */\n    tag_26:\n        /* \"#utility.yul\":742:747   */\n      0x00\n        /* \"#utility.yul\":780:786   */\n      dup2\n        /* \"#utility.yul\":767:787   */\n      calldataload\n        /* \"#utility.yul\":758:787   */\n      swap1\n      pop\n        /* \"#utility.yul\":796:829   */\n      tag_42\n        /* \"#utility.yul\":823:828   */\n      dup2\n        /* \"#utility.yul\":796:829   */\n      tag_25\n      jump\t// in\n    tag_42:\n        /* \"#utility.yul\":696:835   */\n      swap3\n      swap2\n      pop\n      pop\n      jump\t// out\n        /* \"#utility.yul\":841:918   */\n    tag_27:\n        /* \"#utility.yul\":878:885   */\n      0x00\n        /* \"#utility.yul\":907:912   */\n      dup2\n        /* \"#utility.yul\":896:912   */\n      swap1\n      pop\n        /* \"#utility.yul\":841:918   */\n      swap2\n      swap1\n      pop\n      jump\t// out\n        /* \"#utility.yul\":924:1046   */\n    tag_28:\n        /* \"#utility.yul\":997:1021   */\n      tag_45\n        /* \"#utility.yul\":1015:1020   */\n      dup2\n        /* \"#utility.yul\":997:1021   */\n      tag_27\n      jump\t// in\n    tag_45:\n        /* \"#utility.yul\":990:995   */\n      dup2\n        /* \"#utility.yul\":987:1022   */\n      eq\n        /* \"#utility.yul\":977:1040   */\n      tag_46\n      jumpi\n        /* \"#utility.yul\":1036:1037   */\n      0x00\n        /* \"#utility.yul\":1033:1034   */\n      dup1\n        /* \"#utility.yul\":1026:1038   */\n      revert\n        /* \"#utility.yul\":977:1040   */\n    tag_46:\n        /* \"#utility.yul\":924:1046   */\n      pop\n      jump\t// out\n        /* \"#utility.yul\":1052:1191   */\n    tag_29:\n        /* \"#utility.yul\":1098:1103   */\n      0x00\n        /* \"#utility.yul\":1136:1142   */\n      dup2\n        /* \"#utility.yul\":1123:1143   */\n      calldataload\n        /* \"#utility.yul\":1114:1143   */\n      swap1\n      pop\n        /* \"#utility.yul\":1152:1185   */\n      tag_48\n        /* \"#utility.yul\":1179:1184   */\n      dup2\n        /* \"#utility.yul\":1152:1185   */\n      tag_28\n      jump\t// in\n    tag_48:\n        /* \"#utility.yul\":1052:1191   */\n      swap3\n      swap2\n      pop\n      pop\n      jump\t// out\n        /* \"#utility.yul\":1197:1962   */\n    tag_5:\n        /* \"#utility.yul\":1283:1289   */\n      0x00\n        /* \"#utility.yul\":1291:1297   */\n      dup1\n        /* \"#utility.yul\":1299:1305   */\n      0x00\n        /* \"#utility.yul\":1307:1313   */\n      dup1\n        /* \"#utility.yul\":1356:1359   */\n      0x80\n        /* \"#utility.yul\":1344:1353   */\n      dup6\n        /* \"#utility.yul\":1335:1342   */\n      dup8\n        /* \"#utility.yul\":1331:1354   */\n      sub\n        /* \"#utility.yul\":1327:1360   */\n      slt\n        /* \"#utility.yul\":1324:1444   */\n      iszero\n      tag_50\n      jumpi\n        /* \"#utility.yul\":1363:1442   */\n      tag_51\n      tag_21\n      jump\t// in\n    tag_51:\n        /* \"#utility.yul\":1324:1444   */\n    tag_50:\n        /* \"#utility.yul\":1483:1484   */\n      0x00\n        /* \"#utility.yul\":1508:1561   */\n      tag_52\n        /* \"#utility.yul\":1553:1560   */\n      dup8\n        /* \"#utility.yul\":1544:1550   */\n      dup3\n        /* \"#utility.yul\":1533:1542   */\n      dup9\n        /* \"#utility.yul\":1529:1551   */\n      add\n        /* \"#utility.yul\":1508:1561   */\n      tag_26\n      jump\t// in\n    tag_52:\n        /* \"#utility.yul\":1498:1561   */\n      swap5\n      pop\n        /* \"#utility.yul\":1454:1571   */\n      pop\n        /* \"#utility.yul\":1610:1612   */\n      0x20\n        /* \"#utility.yul\":1636:1689   */\n      tag_53\n        /* \"#utility.yul\":1681:1688   */\n      dup8\n        /* \"#utility.yul\":1672:1678   */\n      dup3\n        /* \"#utility.yul\":1661:1670   */\n      dup9\n        /* \"#utility.yul\":1657:1679   */\n      add\n        /* \"#utility.yul\":1636:1689   */\n      tag_26\n      jump\t// in\n    tag_53:\n        /* \"#utility.yul\":1626:1689   */\n      swap4\n      pop\n        /* \"#utility.yul\":1581:1699   */\n      pop\n        /* \"#utility.yul\":1738:1740   */\n      0x40\n        /* \"#utility.yul\":1764:1817   */\n      tag_54\n        /* \"#utility.yul\":1809:1816   */\n      dup8\n        /* \"#utility.yul\":1800:1806   */\n      dup3\n        /* \"#utility.yul\":1789:1798   */\n      dup9\n        /* \"#utility.yul\":1785:1807   */\n      add\n        /* \"#utility.yul\":1764:1817   */\n      tag_29\n      jump\t// in\n    tag_54:\n        /* \"#utility.yul\":1754:1817   */\n      swap3\n      pop\n        /* \"#utility.yul\":1709:1827   */\n      pop\n        /* \"#utility.yul\":1866:1868   */\n      0x60\n        /* \"#utility.yul\":1892:1945   */\n      tag_55\n        /* \"#utility.yul\":1937:1944   */\n      dup8\n        /* \"#utility.yul\":1928:1934   */\n      dup3\n        /* \"#utility.yul\":1917:1926   */\n      dup9\n        /* \"#utility.yul\":1913:1935   */\n      add\n        /* \"#utility.yul\":1892:1945   */\n      tag_29\n      jump\t// in\n    tag_55:\n        /* \"#utility.yul\":1882:1945   */\n      swap2\n      pop\n        /* \"#utility.yul\":1837:1955   */\n      pop\n        /* \"#utility.yul\":1197:1962   */\n      swap3\n      swap6\n      swap2\n      swap5\n      pop\n      swap3\n      pop\n      jump\t// out\n        /* \"#utility.yul\":1968:2148   */\n    tag_30:\n        /* \"#utility.yul\":2016:2093   */\n      0x4e487b7100000000000000000000000000000000000000000000000000000000\n        /* \"#utility.yul\":2013:2014   */\n      0x00\n        /* \"#utility.yul\":2006:2094   */\n      mstore\n        /* \"#utility.yul\":2113:2117   */\n      0x11\n        /* \"#utility.yul\":2110:2111   */\n      0x04\n        /* \"#utility.yul\":2103:2118   */\n      mstore\n        /* \"#utility.yul\":2137:2141   */\n      0x24\n        /* \"#utility.yul\":2134:2135   */\n      0x00\n        /* \"#utility.yul\":2127:2142   */\n      revert\n        /* \"#utility.yul\":2154:2348   */\n    tag_15:\n        /* \"#utility.yul\":2194:2198   */\n      0x00\n        /* \"#utility.yul\":2214:2234   */\n      tag_58\n        /* \"#utility.yul\":2232:2233   */\n      dup3\n        /* \"#utility.yul\":2214:2234   */\n      tag_27\n      jump\t// in\n    tag_58:\n        /* \"#utility.yul\":2209:2234   */\n      swap2\n      pop\n        /* \"#utility.yul\":2248:2268   */\n      tag_59\n        /* \"#utility.yul\":2266:2267   */\n      dup4\n        /* \"#utility.yul\":2248:2268   */\n      tag_27\n      jump\t// in\n    tag_59:\n        /* \"#utility.yul\":2243:2268   */\n      swap3\n      pop\n        /* \"#utility.yul\":2292:2293   */\n      dup3\n        /* \"#utility.yul\":2289:2290   */\n      dup3\n        /* \"#utility.yul\":2285:2294   */\n      sub\n        /* \"#utility.yul\":2277:2294   */\n      swap1\n      pop\n        /* \"#utility.yul\":2316:2317   */\n      dup2\n        /* \"#utility.yul\":2310:2314   */\n      dup2\n        /* \"#utility.yul\":2307:2318   */\n      gt\n        /* \"#utility.yul\":2304:2341   */\n      iszero\n      tag_60\n      jumpi\n        /* \"#utility.yul\":2321:2339   */\n      tag_61\n      tag_30\n      jump\t// in\n    tag_61:\n        /* \"#utility.yul\":2304:2341   */\n    tag_60:\n        /* \"#utility.yul\":2154:2348   */\n      swap3\n      swap2\n      pop\n      pop\n      jump\t// out\n\n    auxdata: 0xa2646970667358221220bbf8879d86a234eff5f58a60a6adeab378cefe7e142e67813c11d03859bb593164736f6c63430008160033\n}\n",
				"bytecode": {
					"linkReferences": {},
					"object": "608060405234801561000f575f80fd5b506102ff8061001d5f395ff3fe60806040526004361061001d575f3560e01c806353c960ce14610021575b5f80fd5b61003b60048036038101906100369190610205565b61003d565b005b5f8490505f8490508173ffffffffffffffffffffffffffffffffffffffff1663b55a3910856040518263ffffffff1660e01b81526004015f604051808303818588803b15801561008b575f80fd5b505af115801561009d573d5f803e3d5ffd5b50505050508073ffffffffffffffffffffffffffffffffffffffff166395c92c8f846040518263ffffffff1660e01b81526004015f604051808303818588803b1580156100e8575f80fd5b505af11580156100fa573d5f803e3d5ffd5b50505050505f83853461010d9190610296565b6101179190610296565b90505f3290505f82111561016a578073ffffffffffffffffffffffffffffffffffffffff166108fc8390811502906040515f60405180830381858888f19350505050158015610168573d5f803e3d5ffd5b505b5050505050505050565b5f80fd5b5f73ffffffffffffffffffffffffffffffffffffffff82169050919050565b5f6101a182610178565b9050919050565b6101b181610197565b81146101bb575f80fd5b50565b5f813590506101cc816101a8565b92915050565b5f819050919050565b6101e4816101d2565b81146101ee575f80fd5b50565b5f813590506101ff816101db565b92915050565b5f805f806080858703121561021d5761021c610174565b5b5f61022a878288016101be565b945050602061023b878288016101be565b935050604061024c878288016101f1565b925050606061025d878288016101f1565b91505092959194509250565b7f4e487b71000000000000000000000000000000000000000000000000000000005f52601160045260245ffd5b5f6102a0826101d2565b91506102ab836101d2565b92508282039050818111156102c3576102c2610269565b5b9291505056fea2646970667358221220bbf8879d86a234eff5f58a60a6adeab378cefe7e142e67813c11d03859bb593164736f6c63430008160033",
					"opcodes": "PUSH1 0x80 PUSH1 0x40 MSTORE CALLVALUE DUP1 ISZERO PUSH2 0xF JUMPI PUSH0 DUP1 REVERT JUMPDEST POP PUSH2 0x2FF DUP1 PUSH2 0x1D PUSH0 CODECOPY PUSH0 RETURN INVALID PUSH1 0x80 PUSH1 0x40 MSTORE PUSH1 0x4 CALLDATASIZE LT PUSH2 0x1D JUMPI PUSH0 CALLDATALOAD PUSH1 0xE0 SHR DUP1 PUSH4 0x53C960CE EQ PUSH2 0x21 JUMPI JUMPDEST PUSH0 DUP1 REVERT JUMPDEST PUSH2 0x3B PUSH1 0x4 DUP1 CALLDATASIZE SUB DUP2 ADD SWAP1 PUSH2 0x36 SWAP2 SWAP1 PUSH2 0x205 JUMP JUMPDEST PUSH2 0x3D JUMP JUMPDEST STOP JUMPDEST PUSH0 DUP5 SWAP1 POP PUSH0 DUP5 SWAP1 POP DUP2 PUSH20 0xFFFFFFFFFFFFFFFFFFFFFFFFFFFFFFFFFFFFFFFF AND PUSH4 0xB55A3910 DUP6 PUSH1 0x40 MLOAD DUP3 PUSH4 0xFFFFFFFF AND PUSH1 0xE0 SHL DUP2 MSTORE PUSH1 0x4 ADD PUSH0 PUSH1 0x40 MLOAD DUP1 DUP4 SUB DUP2 DUP6 DUP9 DUP1 EXTCODESIZE ISZERO DUP1 ISZERO PUSH2 0x8B JUMPI PUSH0 DUP1 REVERT JUMPDEST POP GAS CALL ISZERO DUP1 ISZERO PUSH2 0x9D JUMPI RETURNDATASIZE PUSH0 DUP1 RETURNDATACOPY RETURNDATASIZE PUSH0 REVERT JUMPDEST POP POP POP POP POP DUP1 PUSH20 0xFFFFFFFFFFFFFFFFFFFFFFFFFFFFFFFFFFFFFFFF AND PUSH4 0x95C92C8F DUP5 PUSH1 0x40 MLOAD DUP3 PUSH4 0xFFFFFFFF AND PUSH1 0xE0 SHL DUP2 MSTORE PUSH1 0x4 ADD PUSH0 PUSH1 0x40 MLOAD DUP1 DUP4 SUB DUP2 DUP6 DUP9 DUP1 EXTCODESIZE ISZERO DUP1 ISZERO PUSH2 0xE8 JUMPI PUSH0 DUP1 REVERT JUMPDEST POP GAS CALL ISZERO DUP1 ISZERO PUSH2 0xFA JUMPI RETURNDATASIZE PUSH0 DUP1 RETURNDATACOPY RETURNDATASIZE PUSH0 REVERT JUMPDEST POP POP POP POP POP PUSH0 DUP4 DUP6 CALLVALUE PUSH2 0x10D SWAP2 SWAP1 PUSH2 0x296 JUMP JUMPDEST PUSH2 0x117 SWAP2 SWAP1 PUSH2 0x296 JUMP JUMPDEST SWAP1 POP PUSH0 ORIGIN SWAP1 POP PUSH0 DUP3 GT ISZERO PUSH2 0x16A JUMPI DUP1 PUSH20 0xFFFFFFFFFFFFFFFFFFFFFFFFFFFFFFFFFFFFFFFF AND PUSH2 0x8FC DUP4 SWAP1 DUP2 ISZERO MUL SWAP1 PUSH1 0x40 MLOAD PUSH0 PUSH1 0x40 MLOAD DUP1 DUP4 SUB DUP2 DUP6 DUP9 DUP9 CALL SWAP4 POP POP POP POP ISZERO DUP1 ISZERO PUSH2 0x168 JUMPI RETURNDATASIZE PUSH0 DUP1 RETURNDATACOPY RETURNDATASIZE PUSH0 REVERT JUMPDEST POP JUMPDEST POP POP POP POP POP POP POP POP JUMP JUMPDEST PUSH0 DUP1 REVERT JUMPDEST PUSH0 PUSH20 0xFFFFFFFFFFFFFFFFFFFFFFFFFFFFFFFFFFFFFFFF DUP3 AND SWAP1 POP SWAP2 SWAP1 POP JUMP JUMPDEST PUSH0 PUSH2 0x1A1 DUP3 PUSH2 0x178 JUMP JUMPDEST SWAP1 POP SWAP2 SWAP1 POP JUMP JUMPDEST PUSH2 0x1B1 DUP2 PUSH2 0x197 JUMP JUMPDEST DUP2 EQ PUSH2 0x1BB JUMPI PUSH0 DUP1 REVERT JUMPDEST POP JUMP JUMPDEST PUSH0 DUP2 CALLDATALOAD SWAP1 POP PUSH2 0x1CC DUP2 PUSH2 0x1A8 JUMP JUMPDEST SWAP3 SWAP2 POP POP JUMP JUMPDEST PUSH0 DUP2 SWAP1 POP SWAP2 SWAP1 POP JUMP JUMPDEST PUSH2 0x1E4 DUP2 PUSH2 0x1D2 JUMP JUMPDEST DUP2 EQ PUSH2 0x1EE JUMPI PUSH0 DUP1 REVERT JUMPDEST POP JUMP JUMPDEST PUSH0 DUP2 CALLDATALOAD SWAP1 POP PUSH2 0x1FF DUP2 PUSH2 0x1DB JUMP JUMPDEST SWAP3 SWAP2 POP POP JUMP JUMPDEST PUSH0 DUP1 PUSH0 DUP1 PUSH1 0x80 DUP6 DUP8 SUB SLT ISZERO PUSH2 0x21D JUMPI PUSH2 0x21C PUSH2 0x174 JUMP JUMPDEST JUMPDEST PUSH0 PUSH2 0x22A DUP8 DUP3 DUP9 ADD PUSH2 0x1BE JUMP JUMPDEST SWAP5 POP POP PUSH1 0x20 PUSH2 0x23B DUP8 DUP3 DUP9 ADD PUSH2 0x1BE JUMP JUMPDEST SWAP4 POP POP PUSH1 0x40 PUSH2 0x24C DUP8 DUP3 DUP9 ADD PUSH2 0x1F1 JUMP JUMPDEST SWAP3 POP POP PUSH1 0x60 PUSH2 0x25D DUP8 DUP3 DUP9 ADD PUSH2 0x1F1 JUMP JUMPDEST SWAP2 POP POP SWAP3 SWAP6 SWAP2 SWAP5 POP SWAP3 POP JUMP JUMPDEST PUSH32 0x4E487B7100000000000000000000000000000000000000000000000000000000 PUSH0 MSTORE PUSH1 0x11 PUSH1 0x4 MSTORE PUSH1 0x24 PUSH0 REVERT JUMPDEST PUSH0 PUSH2 0x2A0 DUP3 PUSH2 0x1D2 JUMP JUMPDEST SWAP2 POP PUSH2 0x2AB DUP4 PUSH2 0x1D2 JUMP JUMPDEST SWAP3 POP DUP3 DUP3 SUB SWAP1 POP DUP2 DUP2 GT ISZERO PUSH2 0x2C3 JUMPI PUSH2 0x2C2 PUSH2 0x269 JUMP JUMPDEST JUMPDEST SWAP3 SWAP2 POP POP JUMP INVALID LOG2 PUSH5 0x6970667358 0x22 SLT KECCAK256 0xBB 0xF8 DUP8 SWAP14 DUP7 LOG2 CALLVALUE 0xEF CREATE2 CREATE2 DUP11 PUSH1 0xA6 0xAD 0xEA 0xB3 PUSH25 0xCEFE7E142E67813C11D03859BB593164736F6C634300081600 CALLER "
				},
				"gasEstimates": {
					"creation": {
						"codeDepositCost": "153400",
						"executionCost": "194",
						"totalCost": "153594"
					},
					"external": {
						"bookTrip(address,address,uint256,uint256)": "infinite"
					}
				},
				"methodIdentifiers": {
					"bookTrip(address,address,uint256,uint256)": "53c960ce"
				}
			},
			"storageLayout": {
				"storage": [],
				"types": null
			},
			"userdoc": {
				"kind": "user",
				"methods": {},
				"version": 1
			}
		}
	}
}