{
	"Arbitrage_Noflashloan.sol": {
		"Arbitrage": {
			"abi": [
				{
					"anonymous": false,
					"inputs": [
						{
							"indexed": false,
							"internalType": "uint256",
							"name": "amountOut",
							"type": "uint256"
						}
					],
					"name": "ArbitrageResult",
					"type": "event"
				},
				{
					"inputs": [],
					"name": "UETH",
					"outputs": [
						{
							"internalType": "address",
							"name": "",
							"type": "address"
						}
					],
					"stateMutability": "view",
					"type": "function"
				},
				{
					"inputs": [
						{
							"internalType": "uint256",
							"name": "amountIn",
							"type": "uint256"
						}
					],
					"name": "doArbitrage",
					"outputs": [
						{
							"internalType": "uint256",
							"name": "amountOut",
							"type": "uint256"
						}
					],
					"stateMutability": "nonpayable",
					"type": "function"
				},
				{
					"inputs": [],
					"name": "swapRouter",
					"outputs": [
						{
							"internalType": "contract IV3SwapRouter",
							"name": "",
							"type": "address"
						}
					],
					"stateMutability": "view",
					"type": "function"
				}
			],
			"devdoc": {
				"kind": "dev",
				"methods": {},
				"version": 1
			},
			"evm": {
				"assembly": "    /* \"Arbitrage_Noflashloan.sol\":212:2067  contract Arbitrage {... */\n  mstore(0x40, 0xa0)\n    /* \"Arbitrage_Noflashloan.sol\":329:371  0x3bFA4769FB09eefC5a80d6E87c3B9C650f7Ae48E */\n  0x3bfa4769fb09eefc5a80d6e87c3b9c650f7ae48e\n    /* \"Arbitrage_Noflashloan.sol\":538:608  IV3SwapRouter public immutable swapRouter = IV3SwapRouter(SWAP_ROUTER) */\n  0xffffffffffffffffffffffffffffffffffffffff\n  and\n  0x80\n  swap1\n  0xffffffffffffffffffffffffffffffffffffffff\n  and\n  dup2\n  mstore\n  pop\n    /* \"Arbitrage_Noflashloan.sol\":212:2067  contract Arbitrage {... */\n  callvalue\n  dup1\n  iszero\n  tag_1\n  jumpi\n  0x00\n  dup1\n  revert\ntag_1:\n  pop\n  mload(0x80)\n  codecopy(0x00, dataOffset(sub_0), dataSize(sub_0))\n  0x00\n  assignImmutable(\"0x8542fd6224680a1c8acc4a73d199f6633ee1089ceb34d1007e9de66262a36fbd\")\n  return(0x00, dataSize(sub_0))\nstop\n\nsub_0: assembly {\n        /* \"Arbitrage_Noflashloan.sol\":212:2067  contract Arbitrage {... */\n      mstore(0x40, 0x80)\n      callvalue\n      dup1\n      iszero\n      tag_1\n      jumpi\n      0x00\n      dup1\n      revert\n    tag_1:\n      pop\n      jumpi(tag_2, lt(calldatasize, 0x04))\n      shr(0xe0, calldataload(0x00))\n      dup1\n      0x82d2dcfb\n      eq\n      tag_3\n      jumpi\n      dup1\n      0xa048600d\n      eq\n      tag_4\n      jumpi\n      dup1\n      0xc31c9c07\n      eq\n      tag_5\n      jumpi\n    tag_2:\n      0x00\n      dup1\n      revert\n        /* \"Arbitrage_Noflashloan.sol\":458:531  address public constant UETH = 0xd10A9Ec6E827B13cF399fCC7E6424f233E99562a */\n    tag_3:\n      tag_6\n      tag_7\n      jump\t// in\n    tag_6:\n      mload(0x40)\n      tag_8\n      swap2\n      swap1\n      tag_9\n      jump\t// in\n    tag_8:\n      mload(0x40)\n      dup1\n      swap2\n      sub\n      swap1\n      return\n        /* \"Arbitrage_Noflashloan.sol\":662:2065  function doArbitrage(uint256 amountIn)... */\n    tag_4:\n      tag_10\n      0x04\n      dup1\n      calldatasize\n      sub\n      dup2\n      add\n      swap1\n      tag_11\n      swap2\n      swap1\n      tag_12\n      jump\t// in\n    tag_11:\n      tag_13\n      jump\t// in\n    tag_10:\n      mload(0x40)\n      tag_14\n      swap2\n      swap1\n      tag_15\n      jump\t// in\n    tag_14:\n      mload(0x40)\n      dup1\n      swap2\n      sub\n      swap1\n      return\n        /* \"Arbitrage_Noflashloan.sol\":538:608  IV3SwapRouter public immutable swapRouter = IV3SwapRouter(SWAP_ROUTER) */\n    tag_5:\n      tag_16\n      tag_17\n      jump\t// in\n    tag_16:\n      mload(0x40)\n      tag_18\n      swap2\n      swap1\n      tag_19\n      jump\t// in\n    tag_18:\n      mload(0x40)\n      dup1\n      swap2\n      sub\n      swap1\n      return\n        /* \"Arbitrage_Noflashloan.sol\":458:531  address public constant UETH = 0xd10A9Ec6E827B13cF399fCC7E6424f233E99562a */\n    tag_7:\n        /* \"Arbitrage_Noflashloan.sol\":489:531  0xd10A9Ec6E827B13cF399fCC7E6424f233E99562a */\n      0xd10a9ec6e827b13cf399fcc7e6424f233e99562a\n        /* \"Arbitrage_Noflashloan.sol\":458:531  address public constant UETH = 0xd10A9Ec6E827B13cF399fCC7E6424f233E99562a */\n      dup2\n      jump\t// out\n        /* \"Arbitrage_Noflashloan.sol\":662:2065  function doArbitrage(uint256 amountIn)... */\n    tag_13:\n        /* \"Arbitrage_Noflashloan.sol\":735:752  uint256 amountOut */\n      0x00\n        /* \"Arbitrage_Noflashloan.sol\":768:900  TransferHelper.safeTransferFrom(... */\n      tag_21\n        /* \"Arbitrage_Noflashloan.sol\":410:452  0x64B6f44862E8800EBd63Cd7f1319C8BF0BC1bb99 */\n      0x64b6f44862e8800ebd63cd7f1319c8bf0bc1bb99\n        /* \"Arbitrage_Noflashloan.sol\":831:841  msg.sender */\n      caller\n        /* \"Arbitrage_Noflashloan.sol\":863:867  this */\n      address\n        /* \"Arbitrage_Noflashloan.sol\":882:890  amountIn */\n      dup6\n        /* \"Arbitrage_Noflashloan.sol\":768:799  TransferHelper.safeTransferFrom */\n      tag_22\n        /* \"Arbitrage_Noflashloan.sol\":768:900  TransferHelper.safeTransferFrom(... */\n      jump\t// in\n    tag_21:\n        /* \"Arbitrage_Noflashloan.sol\":911:974  TransferHelper.safeApprove(UHKD, address(swapRouter), amountIn) */\n      tag_23\n        /* \"Arbitrage_Noflashloan.sol\":410:452  0x64B6f44862E8800EBd63Cd7f1319C8BF0BC1bb99 */\n      0x64b6f44862e8800ebd63cd7f1319c8bf0bc1bb99\n        /* \"Arbitrage_Noflashloan.sol\":952:962  swapRouter */\n      immutable(\"0x8542fd6224680a1c8acc4a73d199f6633ee1089ceb34d1007e9de66262a36fbd\")\n        /* \"Arbitrage_Noflashloan.sol\":965:973  amountIn */\n      dup5\n        /* \"Arbitrage_Noflashloan.sol\":911:937  TransferHelper.safeApprove */\n      tag_24\n        /* \"Arbitrage_Noflashloan.sol\":911:974  TransferHelper.safeApprove(UHKD, address(swapRouter), amountIn) */\n      jump\t// in\n    tag_23:\n        /* \"Arbitrage_Noflashloan.sol\":985:1035  IV3SwapRouter.ExactInputSingleParams memory params */\n      0x00\n        /* \"Arbitrage_Noflashloan.sol\":1038:1381  IV3SwapRouter... */\n      mload(0x40)\n      dup1\n      0xe0\n      add\n      0x40\n      mstore\n      dup1\n        /* \"Arbitrage_Noflashloan.sol\":410:452  0x64B6f44862E8800EBd63Cd7f1319C8BF0BC1bb99 */\n      0x64b6f44862e8800ebd63cd7f1319c8bf0bc1bb99\n        /* \"Arbitrage_Noflashloan.sol\":1038:1381  IV3SwapRouter... */\n      0xffffffffffffffffffffffffffffffffffffffff\n      and\n      dup2\n      mstore\n      0x20\n      add\n        /* \"Arbitrage_Noflashloan.sol\":489:531  0xd10A9Ec6E827B13cF399fCC7E6424f233E99562a */\n      0xd10a9ec6e827b13cf399fcc7e6424f233e99562a\n        /* \"Arbitrage_Noflashloan.sol\":1038:1381  IV3SwapRouter... */\n      0xffffffffffffffffffffffffffffffffffffffff\n      and\n      dup2\n      mstore\n      0x20\n      add\n        /* \"Arbitrage_Noflashloan.sol\":1174:1177  500 */\n      0x01f4\n        /* \"Arbitrage_Noflashloan.sol\":1038:1381  IV3SwapRouter... */\n      0xffffff\n      and\n      dup2\n      mstore\n      0x20\n      add\n        /* \"Arbitrage_Noflashloan.sol\":1250:1254  this */\n      address\n        /* \"Arbitrage_Noflashloan.sol\":1038:1381  IV3SwapRouter... */\n      0xffffffffffffffffffffffffffffffffffffffff\n      and\n      dup2\n      mstore\n      0x20\n      add\n        /* \"Arbitrage_Noflashloan.sol\":1283:1291  amountIn */\n      dup5\n        /* \"Arbitrage_Noflashloan.sol\":1038:1381  IV3SwapRouter... */\n      dup2\n      mstore\n      0x20\n      add\n        /* \"Arbitrage_Noflashloan.sol\":1327:1328  0 */\n      0x00\n        /* \"Arbitrage_Noflashloan.sol\":1038:1381  IV3SwapRouter... */\n      dup2\n      mstore\n      0x20\n      add\n        /* \"Arbitrage_Noflashloan.sol\":1365:1366  0 */\n      0x00\n        /* \"Arbitrage_Noflashloan.sol\":1038:1381  IV3SwapRouter... */\n      0xffffffffffffffffffffffffffffffffffffffff\n      and\n      dup2\n      mstore\n      pop\n        /* \"Arbitrage_Noflashloan.sol\":985:1381  IV3SwapRouter.ExactInputSingleParams memory params = IV3SwapRouter... */\n      swap1\n      pop\n        /* \"Arbitrage_Noflashloan.sol\":1392:1410  uint256 amountOut1 */\n      0x00\n        /* \"Arbitrage_Noflashloan.sol\":1413:1423  swapRouter */\n      immutable(\"0x8542fd6224680a1c8acc4a73d199f6633ee1089ceb34d1007e9de66262a36fbd\")\n        /* \"Arbitrage_Noflashloan.sol\":1413:1440  swapRouter.exactInputSingle */\n      0xffffffffffffffffffffffffffffffffffffffff\n      and\n      0x04e45aaf\n        /* \"Arbitrage_Noflashloan.sol\":1441:1447  params */\n      dup4\n        /* \"Arbitrage_Noflashloan.sol\":1413:1448  swapRouter.exactInputSingle(params) */\n      mload(0x40)\n      dup3\n      0xffffffff\n      and\n      0xe0\n      shl\n      dup2\n      mstore\n      0x04\n      add\n      tag_25\n      swap2\n      swap1\n      tag_26\n      jump\t// in\n    tag_25:\n      0x20\n      mload(0x40)\n      dup1\n      dup4\n      sub\n      dup2\n      0x00\n      dup8\n      gas\n      call\n      iszero\n      dup1\n      iszero\n      tag_28\n      jumpi\n      returndatasize\n      0x00\n      dup1\n      returndatacopy\n      revert(0x00, returndatasize)\n    tag_28:\n      pop\n      pop\n      pop\n      pop\n      mload(0x40)\n      returndatasize\n      not(0x1f)\n      0x1f\n      dup3\n      add\n      and\n      dup3\n      add\n      dup1\n      0x40\n      mstore\n      pop\n      dup2\n      add\n      swap1\n      tag_29\n      swap2\n      swap1\n      tag_30\n      jump\t// in\n    tag_29:\n        /* \"Arbitrage_Noflashloan.sol\":1392:1448  uint256 amountOut1 = swapRouter.exactInputSingle(params) */\n      swap1\n      pop\n        /* \"Arbitrage_Noflashloan.sol\":1459:1522  TransferHelper.safeApprove(UETH, address(swapRouter), MAX_UINT) */\n      tag_31\n        /* \"Arbitrage_Noflashloan.sol\":489:531  0xd10A9Ec6E827B13cF399fCC7E6424f233E99562a */\n      0xd10a9ec6e827b13cf399fcc7e6424f233e99562a\n        /* \"Arbitrage_Noflashloan.sol\":1500:1510  swapRouter */\n      immutable(\"0x8542fd6224680a1c8acc4a73d199f6633ee1089ceb34d1007e9de66262a36fbd\")\n        /* \"Arbitrage_Noflashloan.sol\":265:275  2**256 - 1 */\n      0xffffffffffffffffffffffffffffffffffffffffffffffffffffffffffffffff\n        /* \"Arbitrage_Noflashloan.sol\":1459:1485  TransferHelper.safeApprove */\n      tag_24\n        /* \"Arbitrage_Noflashloan.sol\":1459:1522  TransferHelper.safeApprove(UETH, address(swapRouter), MAX_UINT) */\n      jump\t// in\n    tag_31:\n        /* \"Arbitrage_Noflashloan.sol\":1533:1584  IV3SwapRouter.ExactInputSingleParams memory params2 */\n      0x00\n        /* \"Arbitrage_Noflashloan.sol\":1587:1931  IV3SwapRouter... */\n      mload(0x40)\n      dup1\n      0xe0\n      add\n      0x40\n      mstore\n      dup1\n        /* \"Arbitrage_Noflashloan.sol\":489:531  0xd10A9Ec6E827B13cF399fCC7E6424f233E99562a */\n      0xd10a9ec6e827b13cf399fcc7e6424f233e99562a\n        /* \"Arbitrage_Noflashloan.sol\":1587:1931  IV3SwapRouter... */\n      0xffffffffffffffffffffffffffffffffffffffff\n      and\n      dup2\n      mstore\n      0x20\n      add\n        /* \"Arbitrage_Noflashloan.sol\":410:452  0x64B6f44862E8800EBd63Cd7f1319C8BF0BC1bb99 */\n      0x64b6f44862e8800ebd63cd7f1319c8bf0bc1bb99\n        /* \"Arbitrage_Noflashloan.sol\":1587:1931  IV3SwapRouter... */\n      0xffffffffffffffffffffffffffffffffffffffff\n      and\n      dup2\n      mstore\n      0x20\n      add\n        /* \"Arbitrage_Noflashloan.sol\":1723:1728  10000 */\n      0x2710\n        /* \"Arbitrage_Noflashloan.sol\":1587:1931  IV3SwapRouter... */\n      0xffffff\n      and\n      dup2\n      mstore\n      0x20\n      add\n        /* \"Arbitrage_Noflashloan.sol\":1793:1803  msg.sender */\n      caller\n        /* \"Arbitrage_Noflashloan.sol\":1587:1931  IV3SwapRouter... */\n      0xffffffffffffffffffffffffffffffffffffffff\n      and\n      dup2\n      mstore\n      0x20\n      add\n        /* \"Arbitrage_Noflashloan.sol\":1831:1841  amountOut1 */\n      dup4\n        /* \"Arbitrage_Noflashloan.sol\":1587:1931  IV3SwapRouter... */\n      dup2\n      mstore\n      0x20\n      add\n        /* \"Arbitrage_Noflashloan.sol\":1877:1878  0 */\n      0x00\n        /* \"Arbitrage_Noflashloan.sol\":1587:1931  IV3SwapRouter... */\n      dup2\n      mstore\n      0x20\n      add\n        /* \"Arbitrage_Noflashloan.sol\":1915:1916  0 */\n      0x00\n        /* \"Arbitrage_Noflashloan.sol\":1587:1931  IV3SwapRouter... */\n      0xffffffffffffffffffffffffffffffffffffffff\n      and\n      dup2\n      mstore\n      pop\n        /* \"Arbitrage_Noflashloan.sol\":1533:1931  IV3SwapRouter.ExactInputSingleParams memory params2 = IV3SwapRouter... */\n      swap1\n      pop\n        /* \"Arbitrage_Noflashloan.sol\":1954:1964  swapRouter */\n      immutable(\"0x8542fd6224680a1c8acc4a73d199f6633ee1089ceb34d1007e9de66262a36fbd\")\n        /* \"Arbitrage_Noflashloan.sol\":1954:1981  swapRouter.exactInputSingle */\n      0xffffffffffffffffffffffffffffffffffffffff\n      and\n      0x04e45aaf\n        /* \"Arbitrage_Noflashloan.sol\":1982:1989  params2 */\n      dup3\n        /* \"Arbitrage_Noflashloan.sol\":1954:1990  swapRouter.exactInputSingle(params2) */\n      mload(0x40)\n      dup3\n      0xffffffff\n      and\n      0xe0\n      shl\n      dup2\n      mstore\n      0x04\n      add\n      tag_32\n      swap2\n      swap1\n      tag_26\n      jump\t// in\n    tag_32:\n      0x20\n      mload(0x40)\n      dup1\n      dup4\n      sub\n      dup2\n      0x00\n      dup8\n      gas\n      call\n      iszero\n      dup1\n      iszero\n      tag_34\n      jumpi\n      returndatasize\n      0x00\n      dup1\n      returndatacopy\n      revert(0x00, returndatasize)\n    tag_34:\n      pop\n      pop\n      pop\n      pop\n      mload(0x40)\n      returndatasize\n      not(0x1f)\n      0x1f\n      dup3\n      add\n      and\n      dup3\n      add\n      dup1\n      0x40\n      mstore\n      pop\n      dup2\n      add\n      swap1\n      tag_35\n      swap2\n      swap1\n      tag_30\n      jump\t// in\n    tag_35:\n        /* \"Arbitrage_Noflashloan.sol\":1942:1990  amountOut = swapRouter.exactInputSingle(params2) */\n      swap4\n      pop\n        /* \"Arbitrage_Noflashloan.sol\":2006:2032  ArbitrageResult(amountOut) */\n      0x3bb2ef743367d6bf518e353ce6f97647577a7ba1b971feecabd1bf42be1b55a3\n        /* \"Arbitrage_Noflashloan.sol\":2022:2031  amountOut */\n      dup5\n        /* \"Arbitrage_Noflashloan.sol\":2006:2032  ArbitrageResult(amountOut) */\n      mload(0x40)\n      tag_36\n      swap2\n      swap1\n      tag_15\n      jump\t// in\n    tag_36:\n      mload(0x40)\n      dup1\n      swap2\n      sub\n      swap1\n      log1\n        /* \"Arbitrage_Noflashloan.sol\":2042:2058  return amountOut */\n      pop\n      pop\n      pop\n        /* \"Arbitrage_Noflashloan.sol\":662:2065  function doArbitrage(uint256 amountIn)... */\n      swap2\n      swap1\n      pop\n      jump\t// out\n        /* \"Arbitrage_Noflashloan.sol\":538:608  IV3SwapRouter public immutable swapRouter = IV3SwapRouter(SWAP_ROUTER) */\n    tag_17:\n      immutable(\"0x8542fd6224680a1c8acc4a73d199f6633ee1089ceb34d1007e9de66262a36fbd\")\n      dup2\n      jump\t// out\n        /* \"@uniswap/lib/contracts/libraries/TransferHelper.sol\":1096:1582  function safeTransferFrom(... */\n    tag_22:\n        /* \"@uniswap/lib/contracts/libraries/TransferHelper.sol\":1314:1326  bool success */\n      0x00\n        /* \"@uniswap/lib/contracts/libraries/TransferHelper.sol\":1328:1345  bytes memory data */\n      dup1\n        /* \"@uniswap/lib/contracts/libraries/TransferHelper.sol\":1349:1354  token */\n      dup6\n        /* \"@uniswap/lib/contracts/libraries/TransferHelper.sol\":1349:1359  token.call */\n      0xffffffffffffffffffffffffffffffffffffffff\n      and\n        /* \"@uniswap/lib/contracts/libraries/TransferHelper.sol\":1383:1393  0x23b872dd */\n      0x23b872dd\n        /* \"@uniswap/lib/contracts/libraries/TransferHelper.sol\":1395:1399  from */\n      dup7\n        /* \"@uniswap/lib/contracts/libraries/TransferHelper.sol\":1401:1403  to */\n      dup7\n        /* \"@uniswap/lib/contracts/libraries/TransferHelper.sol\":1405:1410  value */\n      dup7\n        /* \"@uniswap/lib/contracts/libraries/TransferHelper.sol\":1360:1411  abi.encodeWithSelector(0x23b872dd, from, to, value) */\n      add(0x24, mload(0x40))\n      tag_38\n      swap4\n      swap3\n      swap2\n      swap1\n      tag_39\n      jump\t// in\n    tag_38:\n      mload(0x40)\n      0x20\n      dup2\n      dup4\n      sub\n      sub\n      dup2\n      mstore\n      swap1\n      0x40\n      mstore\n      swap1\n      0xe0\n      shl\n      0x20\n      dup3\n      add\n      dup1\n      mload\n      0xffffffffffffffffffffffffffffffffffffffffffffffffffffffff\n      dup4\n      dup2\n      dup4\n      and\n      or\n      dup4\n      mstore\n      pop\n      pop\n      pop\n      pop\n        /* \"@uniswap/lib/contracts/libraries/TransferHelper.sol\":1349:1412  token.call(abi.encodeWithSelector(0x23b872dd, from, to, value)) */\n      mload(0x40)\n      tag_40\n      swap2\n      swap1\n      tag_41\n      jump\t// in\n    tag_40:\n      0x00\n      mload(0x40)\n      dup1\n      dup4\n      sub\n      dup2\n      0x00\n      dup7\n      gas\n      call\n      swap2\n      pop\n      pop\n      returndatasize\n      dup1\n      0x00\n      dup2\n      eq\n      tag_44\n      jumpi\n      mload(0x40)\n      swap2\n      pop\n      and(add(returndatasize, 0x3f), not(0x1f))\n      dup3\n      add\n      0x40\n      mstore\n      returndatasize\n      dup3\n      mstore\n      returndatasize\n      0x00\n      0x20\n      dup5\n      add\n      returndatacopy\n      jump(tag_43)\n    tag_44:\n      0x60\n      swap2\n      pop\n    tag_43:\n      pop\n        /* \"@uniswap/lib/contracts/libraries/TransferHelper.sol\":1313:1412  (bool success, bytes memory data) = token.call(abi.encodeWithSelector(0x23b872dd, from, to, value)) */\n      swap2\n      pop\n      swap2\n      pop\n        /* \"@uniswap/lib/contracts/libraries/TransferHelper.sol\":1443:1450  success */\n      dup2\n        /* \"@uniswap/lib/contracts/libraries/TransferHelper.sol\":1443:1500  success && (data.length == 0 || abi.decode(data, (bool))) */\n      dup1\n      iszero\n      tag_45\n      jumpi\n      pop\n        /* \"@uniswap/lib/contracts/libraries/TransferHelper.sol\":1470:1471  0 */\n      0x00\n        /* \"@uniswap/lib/contracts/libraries/TransferHelper.sol\":1455:1459  data */\n      dup2\n        /* \"@uniswap/lib/contracts/libraries/TransferHelper.sol\":1455:1466  data.length */\n      mload\n        /* \"@uniswap/lib/contracts/libraries/TransferHelper.sol\":1455:1471  data.length == 0 */\n      eq\n        /* \"@uniswap/lib/contracts/libraries/TransferHelper.sol\":1455:1499  data.length == 0 || abi.decode(data, (bool)) */\n      dup1\n      tag_46\n      jumpi\n      pop\n        /* \"@uniswap/lib/contracts/libraries/TransferHelper.sol\":1486:1490  data */\n      dup1\n        /* \"@uniswap/lib/contracts/libraries/TransferHelper.sol\":1475:1499  abi.decode(data, (bool)) */\n      dup1\n      0x20\n      add\n      swap1\n      mload\n      dup2\n      add\n      swap1\n      tag_47\n      swap2\n      swap1\n      tag_48\n      jump\t// in\n    tag_47:\n        /* \"@uniswap/lib/contracts/libraries/TransferHelper.sol\":1455:1499  data.length == 0 || abi.decode(data, (bool)) */\n    tag_46:\n        /* \"@uniswap/lib/contracts/libraries/TransferHelper.sol\":1443:1500  success && (data.length == 0 || abi.decode(data, (bool))) */\n    tag_45:\n        /* \"@uniswap/lib/contracts/libraries/TransferHelper.sol\":1422:1575  require(... */\n      tag_49\n      jumpi\n      mload(0x40)\n      0x08c379a000000000000000000000000000000000000000000000000000000000\n      dup2\n      mstore\n      0x04\n      add\n      tag_50\n      swap1\n      tag_51\n      jump\t// in\n    tag_50:\n      mload(0x40)\n      dup1\n      swap2\n      sub\n      swap1\n      revert\n    tag_49:\n        /* \"@uniswap/lib/contracts/libraries/TransferHelper.sol\":1225:1582  {... */\n      pop\n      pop\n        /* \"@uniswap/lib/contracts/libraries/TransferHelper.sol\":1096:1582  function safeTransferFrom(... */\n      pop\n      pop\n      pop\n      pop\n      jump\t// out\n        /* \"@uniswap/lib/contracts/libraries/TransferHelper.sol\":212:646  function safeApprove(... */\n    tag_24:\n        /* \"@uniswap/lib/contracts/libraries/TransferHelper.sol\":390:402  bool success */\n      0x00\n        /* \"@uniswap/lib/contracts/libraries/TransferHelper.sol\":404:421  bytes memory data */\n      dup1\n        /* \"@uniswap/lib/contracts/libraries/TransferHelper.sol\":425:430  token */\n      dup5\n        /* \"@uniswap/lib/contracts/libraries/TransferHelper.sol\":425:435  token.call */\n      0xffffffffffffffffffffffffffffffffffffffff\n      and\n        /* \"@uniswap/lib/contracts/libraries/TransferHelper.sol\":459:469  0x095ea7b3 */\n      0x095ea7b3\n        /* \"@uniswap/lib/contracts/libraries/TransferHelper.sol\":471:473  to */\n      dup6\n        /* \"@uniswap/lib/contracts/libraries/TransferHelper.sol\":475:480  value */\n      dup6\n        /* \"@uniswap/lib/contracts/libraries/TransferHelper.sol\":436:481  abi.encodeWithSelector(0x095ea7b3, to, value) */\n      add(0x24, mload(0x40))\n      tag_53\n      swap3\n      swap2\n      swap1\n      tag_54\n      jump\t// in\n    tag_53:\n      mload(0x40)\n      0x20\n      dup2\n      dup4\n      sub\n      sub\n      dup2\n      mstore\n      swap1\n      0x40\n      mstore\n      swap1\n      0xe0\n      shl\n      0x20\n      dup3\n      add\n      dup1\n      mload\n      0xffffffffffffffffffffffffffffffffffffffffffffffffffffffff\n      dup4\n      dup2\n      dup4\n      and\n      or\n      dup4\n      mstore\n      pop\n      pop\n      pop\n      pop\n        /* \"@uniswap/lib/contracts/libraries/TransferHelper.sol\":425:482  token.call(abi.encodeWithSelector(0x095ea7b3, to, value)) */\n      mload(0x40)\n      tag_55\n      swap2\n      swap1\n      tag_41\n      jump\t// in\n    tag_55:\n      0x00\n      mload(0x40)\n      dup1\n      dup4\n      sub\n      dup2\n      0x00\n      dup7\n      gas\n      call\n      swap2\n      pop\n      pop\n      returndatasize\n      dup1\n      0x00\n      dup2\n      eq\n      tag_58\n      jumpi\n      mload(0x40)\n      swap2\n      pop\n      and(add(returndatasize, 0x3f), not(0x1f))\n      dup3\n      add\n      0x40\n      mstore\n      returndatasize\n      dup3\n      mstore\n      returndatasize\n      0x00\n      0x20\n      dup5\n      add\n      returndatacopy\n      jump(tag_57)\n    tag_58:\n      0x60\n      swap2\n      pop\n    tag_57:\n      pop\n        /* \"@uniswap/lib/contracts/libraries/TransferHelper.sol\":389:482  (bool success, bytes memory data) = token.call(abi.encodeWithSelector(0x095ea7b3, to, value)) */\n      swap2\n      pop\n      swap2\n      pop\n        /* \"@uniswap/lib/contracts/libraries/TransferHelper.sol\":513:520  success */\n      dup2\n        /* \"@uniswap/lib/contracts/libraries/TransferHelper.sol\":513:570  success && (data.length == 0 || abi.decode(data, (bool))) */\n      dup1\n      iszero\n      tag_59\n      jumpi\n      pop\n        /* \"@uniswap/lib/contracts/libraries/TransferHelper.sol\":540:541  0 */\n      0x00\n        /* \"@uniswap/lib/contracts/libraries/TransferHelper.sol\":525:529  data */\n      dup2\n        /* \"@uniswap/lib/contracts/libraries/TransferHelper.sol\":525:536  data.length */\n      mload\n        /* \"@uniswap/lib/contracts/libraries/TransferHelper.sol\":525:541  data.length == 0 */\n      eq\n        /* \"@uniswap/lib/contracts/libraries/TransferHelper.sol\":525:569  data.length == 0 || abi.decode(data, (bool)) */\n      dup1\n      tag_60\n      jumpi\n      pop\n        /* \"@uniswap/lib/contracts/libraries/TransferHelper.sol\":556:560  data */\n      dup1\n        /* \"@uniswap/lib/contracts/libraries/TransferHelper.sol\":545:569  abi.decode(data, (bool)) */\n      dup1\n      0x20\n      add\n      swap1\n      mload\n      dup2\n      add\n      swap1\n      tag_61\n      swap2\n      swap1\n      tag_48\n      jump\t// in\n    tag_61:\n        /* \"@uniswap/lib/contracts/libraries/TransferHelper.sol\":525:569  data.length == 0 || abi.decode(data, (bool)) */\n    tag_60:\n        /* \"@uniswap/lib/contracts/libraries/TransferHelper.sol\":513:570  success && (data.length == 0 || abi.decode(data, (bool))) */\n    tag_59:\n        /* \"@uniswap/lib/contracts/libraries/TransferHelper.sol\":492:639  require(... */\n      tag_62\n      jumpi\n      mload(0x40)\n      0x08c379a000000000000000000000000000000000000000000000000000000000\n      dup2\n      mstore\n      0x04\n      add\n      tag_63\n      swap1\n      tag_64\n      jump\t// in\n    tag_63:\n      mload(0x40)\n      dup1\n      swap2\n      sub\n      swap1\n      revert\n    tag_62:\n        /* \"@uniswap/lib/contracts/libraries/TransferHelper.sol\":314:646  {... */\n      pop\n      pop\n        /* \"@uniswap/lib/contracts/libraries/TransferHelper.sol\":212:646  function safeApprove(... */\n      pop\n      pop\n      pop\n      jump\t// out\n        /* \"#utility.yul\":7:133   */\n    tag_65:\n        /* \"#utility.yul\":44:51   */\n      0x00\n        /* \"#utility.yul\":84:126   */\n      0xffffffffffffffffffffffffffffffffffffffff\n        /* \"#utility.yul\":77:82   */\n      dup3\n        /* \"#utility.yul\":73:127   */\n      and\n        /* \"#utility.yul\":62:127   */\n      swap1\n      pop\n        /* \"#utility.yul\":7:133   */\n      swap2\n      swap1\n      pop\n      jump\t// out\n        /* \"#utility.yul\":139:235   */\n    tag_66:\n        /* \"#utility.yul\":176:183   */\n      0x00\n        /* \"#utility.yul\":205:229   */\n      tag_102\n        /* \"#utility.yul\":223:228   */\n      dup3\n        /* \"#utility.yul\":205:229   */\n      tag_65\n      jump\t// in\n    tag_102:\n        /* \"#utility.yul\":194:229   */\n      swap1\n      pop\n        /* \"#utility.yul\":139:235   */\n      swap2\n      swap1\n      pop\n      jump\t// out\n        /* \"#utility.yul\":241:359   */\n    tag_67:\n        /* \"#utility.yul\":328:352   */\n      tag_104\n        /* \"#utility.yul\":346:351   */\n      dup2\n        /* \"#utility.yul\":328:352   */\n      tag_66\n      jump\t// in\n    tag_104:\n        /* \"#utility.yul\":323:326   */\n      dup3\n        /* \"#utility.yul\":316:353   */\n      mstore\n        /* \"#utility.yul\":241:359   */\n      pop\n      pop\n      jump\t// out\n        /* \"#utility.yul\":365:587   */\n    tag_9:\n        /* \"#utility.yul\":458:462   */\n      0x00\n        /* \"#utility.yul\":496:498   */\n      0x20\n        /* \"#utility.yul\":485:494   */\n      dup3\n        /* \"#utility.yul\":481:499   */\n      add\n        /* \"#utility.yul\":473:499   */\n      swap1\n      pop\n        /* \"#utility.yul\":509:580   */\n      tag_106\n        /* \"#utility.yul\":577:578   */\n      0x00\n        /* \"#utility.yul\":566:575   */\n      dup4\n        /* \"#utility.yul\":562:579   */\n      add\n        /* \"#utility.yul\":553:559   */\n      dup5\n        /* \"#utility.yul\":509:580   */\n      tag_67\n      jump\t// in\n    tag_106:\n        /* \"#utility.yul\":365:587   */\n      swap3\n      swap2\n      pop\n      pop\n      jump\t// out\n        /* \"#utility.yul\":674:791   */\n    tag_69:\n        /* \"#utility.yul\":783:784   */\n      0x00\n        /* \"#utility.yul\":780:781   */\n      dup1\n        /* \"#utility.yul\":773:785   */\n      revert\n        /* \"#utility.yul\":920:997   */\n    tag_71:\n        /* \"#utility.yul\":957:964   */\n      0x00\n        /* \"#utility.yul\":986:991   */\n      dup2\n        /* \"#utility.yul\":975:991   */\n      swap1\n      pop\n        /* \"#utility.yul\":920:997   */\n      swap2\n      swap1\n      pop\n      jump\t// out\n        /* \"#utility.yul\":1003:1125   */\n    tag_72:\n        /* \"#utility.yul\":1076:1100   */\n      tag_112\n        /* \"#utility.yul\":1094:1099   */\n      dup2\n        /* \"#utility.yul\":1076:1100   */\n      tag_71\n      jump\t// in\n    tag_112:\n        /* \"#utility.yul\":1069:1074   */\n      dup2\n        /* \"#utility.yul\":1066:1101   */\n      eq\n        /* \"#utility.yul\":1056:1119   */\n      tag_113\n      jumpi\n        /* \"#utility.yul\":1115:1116   */\n      0x00\n        /* \"#utility.yul\":1112:1113   */\n      dup1\n        /* \"#utility.yul\":1105:1117   */\n      revert\n        /* \"#utility.yul\":1056:1119   */\n    tag_113:\n        /* \"#utility.yul\":1003:1125   */\n      pop\n      jump\t// out\n        /* \"#utility.yul\":1131:1270   */\n    tag_73:\n        /* \"#utility.yul\":1177:1182   */\n      0x00\n        /* \"#utility.yul\":1215:1221   */\n      dup2\n        /* \"#utility.yul\":1202:1222   */\n      calldataload\n        /* \"#utility.yul\":1193:1222   */\n      swap1\n      pop\n        /* \"#utility.yul\":1231:1264   */\n      tag_115\n        /* \"#utility.yul\":1258:1263   */\n      dup2\n        /* \"#utility.yul\":1231:1264   */\n      tag_72\n      jump\t// in\n    tag_115:\n        /* \"#utility.yul\":1131:1270   */\n      swap3\n      swap2\n      pop\n      pop\n      jump\t// out\n        /* \"#utility.yul\":1276:1605   */\n    tag_12:\n        /* \"#utility.yul\":1335:1341   */\n      0x00\n        /* \"#utility.yul\":1384:1386   */\n      0x20\n        /* \"#utility.yul\":1372:1381   */\n      dup3\n        /* \"#utility.yul\":1363:1370   */\n      dup5\n        /* \"#utility.yul\":1359:1382   */\n      sub\n        /* \"#utility.yul\":1355:1387   */\n      slt\n        /* \"#utility.yul\":1352:1471   */\n      iszero\n      tag_117\n      jumpi\n        /* \"#utility.yul\":1390:1469   */\n      tag_118\n      tag_69\n      jump\t// in\n    tag_118:\n        /* \"#utility.yul\":1352:1471   */\n    tag_117:\n        /* \"#utility.yul\":1510:1511   */\n      0x00\n        /* \"#utility.yul\":1535:1588   */\n      tag_119\n        /* \"#utility.yul\":1580:1587   */\n      dup5\n        /* \"#utility.yul\":1571:1577   */\n      dup3\n        /* \"#utility.yul\":1560:1569   */\n      dup6\n        /* \"#utility.yul\":1556:1578   */\n      add\n        /* \"#utility.yul\":1535:1588   */\n      tag_73\n      jump\t// in\n    tag_119:\n        /* \"#utility.yul\":1525:1588   */\n      swap2\n      pop\n        /* \"#utility.yul\":1481:1598   */\n      pop\n        /* \"#utility.yul\":1276:1605   */\n      swap3\n      swap2\n      pop\n      pop\n      jump\t// out\n        /* \"#utility.yul\":1611:1729   */\n    tag_74:\n        /* \"#utility.yul\":1698:1722   */\n      tag_121\n        /* \"#utility.yul\":1716:1721   */\n      dup2\n        /* \"#utility.yul\":1698:1722   */\n      tag_71\n      jump\t// in\n    tag_121:\n        /* \"#utility.yul\":1693:1696   */\n      dup3\n        /* \"#utility.yul\":1686:1723   */\n      mstore\n        /* \"#utility.yul\":1611:1729   */\n      pop\n      pop\n      jump\t// out\n        /* \"#utility.yul\":1735:1957   */\n    tag_15:\n        /* \"#utility.yul\":1828:1832   */\n      0x00\n        /* \"#utility.yul\":1866:1868   */\n      0x20\n        /* \"#utility.yul\":1855:1864   */\n      dup3\n        /* \"#utility.yul\":1851:1869   */\n      add\n        /* \"#utility.yul\":1843:1869   */\n      swap1\n      pop\n        /* \"#utility.yul\":1879:1950   */\n      tag_123\n        /* \"#utility.yul\":1947:1948   */\n      0x00\n        /* \"#utility.yul\":1936:1945   */\n      dup4\n        /* \"#utility.yul\":1932:1949   */\n      add\n        /* \"#utility.yul\":1923:1929   */\n      dup5\n        /* \"#utility.yul\":1879:1950   */\n      tag_74\n      jump\t// in\n    tag_123:\n        /* \"#utility.yul\":1735:1957   */\n      swap3\n      swap2\n      pop\n      pop\n      jump\t// out\n        /* \"#utility.yul\":1963:2023   */\n    tag_75:\n        /* \"#utility.yul\":1991:1994   */\n      0x00\n        /* \"#utility.yul\":2012:2017   */\n      dup2\n        /* \"#utility.yul\":2005:2017   */\n      swap1\n      pop\n        /* \"#utility.yul\":1963:2023   */\n      swap2\n      swap1\n      pop\n      jump\t// out\n        /* \"#utility.yul\":2029:2171   */\n    tag_76:\n        /* \"#utility.yul\":2079:2088   */\n      0x00\n        /* \"#utility.yul\":2112:2165   */\n      tag_126\n        /* \"#utility.yul\":2130:2164   */\n      tag_127\n        /* \"#utility.yul\":2139:2163   */\n      tag_128\n        /* \"#utility.yul\":2157:2162   */\n      dup5\n        /* \"#utility.yul\":2139:2163   */\n      tag_65\n      jump\t// in\n    tag_128:\n        /* \"#utility.yul\":2130:2164   */\n      tag_75\n      jump\t// in\n    tag_127:\n        /* \"#utility.yul\":2112:2165   */\n      tag_65\n      jump\t// in\n    tag_126:\n        /* \"#utility.yul\":2099:2165   */\n      swap1\n      pop\n        /* \"#utility.yul\":2029:2171   */\n      swap2\n      swap1\n      pop\n      jump\t// out\n        /* \"#utility.yul\":2177:2303   */\n    tag_77:\n        /* \"#utility.yul\":2227:2236   */\n      0x00\n        /* \"#utility.yul\":2260:2297   */\n      tag_130\n        /* \"#utility.yul\":2291:2296   */\n      dup3\n        /* \"#utility.yul\":2260:2297   */\n      tag_76\n      jump\t// in\n    tag_130:\n        /* \"#utility.yul\":2247:2297   */\n      swap1\n      pop\n        /* \"#utility.yul\":2177:2303   */\n      swap2\n      swap1\n      pop\n      jump\t// out\n        /* \"#utility.yul\":2309:2456   */\n    tag_78:\n        /* \"#utility.yul\":2380:2389   */\n      0x00\n        /* \"#utility.yul\":2413:2450   */\n      tag_132\n        /* \"#utility.yul\":2444:2449   */\n      dup3\n        /* \"#utility.yul\":2413:2450   */\n      tag_77\n      jump\t// in\n    tag_132:\n        /* \"#utility.yul\":2400:2450   */\n      swap1\n      pop\n        /* \"#utility.yul\":2309:2456   */\n      swap2\n      swap1\n      pop\n      jump\t// out\n        /* \"#utility.yul\":2462:2635   */\n    tag_79:\n        /* \"#utility.yul\":2570:2628   */\n      tag_134\n        /* \"#utility.yul\":2622:2627   */\n      dup2\n        /* \"#utility.yul\":2570:2628   */\n      tag_78\n      jump\t// in\n    tag_134:\n        /* \"#utility.yul\":2565:2568   */\n      dup3\n        /* \"#utility.yul\":2558:2629   */\n      mstore\n        /* \"#utility.yul\":2462:2635   */\n      pop\n      pop\n      jump\t// out\n        /* \"#utility.yul\":2641:2905   */\n    tag_19:\n        /* \"#utility.yul\":2755:2759   */\n      0x00\n        /* \"#utility.yul\":2793:2795   */\n      0x20\n        /* \"#utility.yul\":2782:2791   */\n      dup3\n        /* \"#utility.yul\":2778:2796   */\n      add\n        /* \"#utility.yul\":2770:2796   */\n      swap1\n      pop\n        /* \"#utility.yul\":2806:2898   */\n      tag_136\n        /* \"#utility.yul\":2895:2896   */\n      0x00\n        /* \"#utility.yul\":2884:2893   */\n      dup4\n        /* \"#utility.yul\":2880:2897   */\n      add\n        /* \"#utility.yul\":2871:2877   */\n      dup5\n        /* \"#utility.yul\":2806:2898   */\n      tag_79\n      jump\t// in\n    tag_136:\n        /* \"#utility.yul\":2641:2905   */\n      swap3\n      swap2\n      pop\n      pop\n      jump\t// out\n        /* \"#utility.yul\":2911:3019   */\n    tag_80:\n        /* \"#utility.yul\":2988:3012   */\n      tag_138\n        /* \"#utility.yul\":3006:3011   */\n      dup2\n        /* \"#utility.yul\":2988:3012   */\n      tag_66\n      jump\t// in\n    tag_138:\n        /* \"#utility.yul\":2983:2986   */\n      dup3\n        /* \"#utility.yul\":2976:3013   */\n      mstore\n        /* \"#utility.yul\":2911:3019   */\n      pop\n      pop\n      jump\t// out\n        /* \"#utility.yul\":3025:3116   */\n    tag_81:\n        /* \"#utility.yul\":3061:3068   */\n      0x00\n        /* \"#utility.yul\":3101:3109   */\n      0xffffff\n        /* \"#utility.yul\":3094:3099   */\n      dup3\n        /* \"#utility.yul\":3090:3110   */\n      and\n        /* \"#utility.yul\":3079:3110   */\n      swap1\n      pop\n        /* \"#utility.yul\":3025:3116   */\n      swap2\n      swap1\n      pop\n      jump\t// out\n        /* \"#utility.yul\":3122:3227   */\n    tag_82:\n        /* \"#utility.yul\":3197:3220   */\n      tag_141\n        /* \"#utility.yul\":3214:3219   */\n      dup2\n        /* \"#utility.yul\":3197:3220   */\n      tag_81\n      jump\t// in\n    tag_141:\n        /* \"#utility.yul\":3192:3195   */\n      dup3\n        /* \"#utility.yul\":3185:3221   */\n      mstore\n        /* \"#utility.yul\":3122:3227   */\n      pop\n      pop\n      jump\t// out\n        /* \"#utility.yul\":3233:3341   */\n    tag_83:\n        /* \"#utility.yul\":3310:3334   */\n      tag_143\n        /* \"#utility.yul\":3328:3333   */\n      dup2\n        /* \"#utility.yul\":3310:3334   */\n      tag_71\n      jump\t// in\n    tag_143:\n        /* \"#utility.yul\":3305:3308   */\n      dup3\n        /* \"#utility.yul\":3298:3335   */\n      mstore\n        /* \"#utility.yul\":3233:3341   */\n      pop\n      pop\n      jump\t// out\n        /* \"#utility.yul\":3347:3455   */\n    tag_84:\n        /* \"#utility.yul\":3424:3448   */\n      tag_145\n        /* \"#utility.yul\":3442:3447   */\n      dup2\n        /* \"#utility.yul\":3424:3448   */\n      tag_65\n      jump\t// in\n    tag_145:\n        /* \"#utility.yul\":3419:3422   */\n      dup3\n        /* \"#utility.yul\":3412:3449   */\n      mstore\n        /* \"#utility.yul\":3347:3455   */\n      pop\n      pop\n      jump\t// out\n        /* \"#utility.yul\":3559:5002   */\n    tag_85:\n        /* \"#utility.yul\":3734:3738   */\n      0xe0\n        /* \"#utility.yul\":3729:3732   */\n      dup3\n        /* \"#utility.yul\":3725:3739   */\n      add\n        /* \"#utility.yul\":3824:3828   */\n      0x00\n        /* \"#utility.yul\":3817:3822   */\n      dup3\n        /* \"#utility.yul\":3813:3829   */\n      add\n        /* \"#utility.yul\":3807:3830   */\n      mload\n        /* \"#utility.yul\":3843:3906   */\n      tag_147\n        /* \"#utility.yul\":3900:3904   */\n      0x00\n        /* \"#utility.yul\":3895:3898   */\n      dup6\n        /* \"#utility.yul\":3891:3905   */\n      add\n        /* \"#utility.yul\":3877:3889   */\n      dup3\n        /* \"#utility.yul\":3843:3906   */\n      tag_80\n      jump\t// in\n    tag_147:\n        /* \"#utility.yul\":3749:3916   */\n      pop\n        /* \"#utility.yul\":4002:4006   */\n      0x20\n        /* \"#utility.yul\":3995:4000   */\n      dup3\n        /* \"#utility.yul\":3991:4007   */\n      add\n        /* \"#utility.yul\":3985:4008   */\n      mload\n        /* \"#utility.yul\":4021:4084   */\n      tag_148\n        /* \"#utility.yul\":4078:4082   */\n      0x20\n        /* \"#utility.yul\":4073:4076   */\n      dup6\n        /* \"#utility.yul\":4069:4083   */\n      add\n        /* \"#utility.yul\":4055:4067   */\n      dup3\n        /* \"#utility.yul\":4021:4084   */\n      tag_80\n      jump\t// in\n    tag_148:\n        /* \"#utility.yul\":3926:4094   */\n      pop\n        /* \"#utility.yul\":4175:4179   */\n      0x40\n        /* \"#utility.yul\":4168:4173   */\n      dup3\n        /* \"#utility.yul\":4164:4180   */\n      add\n        /* \"#utility.yul\":4158:4181   */\n      mload\n        /* \"#utility.yul\":4194:4255   */\n      tag_149\n        /* \"#utility.yul\":4249:4253   */\n      0x40\n        /* \"#utility.yul\":4244:4247   */\n      dup6\n        /* \"#utility.yul\":4240:4254   */\n      add\n        /* \"#utility.yul\":4226:4238   */\n      dup3\n        /* \"#utility.yul\":4194:4255   */\n      tag_82\n      jump\t// in\n    tag_149:\n        /* \"#utility.yul\":4104:4265   */\n      pop\n        /* \"#utility.yul\":4352:4356   */\n      0x60\n        /* \"#utility.yul\":4345:4350   */\n      dup3\n        /* \"#utility.yul\":4341:4357   */\n      add\n        /* \"#utility.yul\":4335:4358   */\n      mload\n        /* \"#utility.yul\":4371:4434   */\n      tag_150\n        /* \"#utility.yul\":4428:4432   */\n      0x60\n        /* \"#utility.yul\":4423:4426   */\n      dup6\n        /* \"#utility.yul\":4419:4433   */\n      add\n        /* \"#utility.yul\":4405:4417   */\n      dup3\n        /* \"#utility.yul\":4371:4434   */\n      tag_80\n      jump\t// in\n    tag_150:\n        /* \"#utility.yul\":4275:4444   */\n      pop\n        /* \"#utility.yul\":4530:4534   */\n      0x80\n        /* \"#utility.yul\":4523:4528   */\n      dup3\n        /* \"#utility.yul\":4519:4535   */\n      add\n        /* \"#utility.yul\":4513:4536   */\n      mload\n        /* \"#utility.yul\":4549:4612   */\n      tag_151\n        /* \"#utility.yul\":4606:4610   */\n      0x80\n        /* \"#utility.yul\":4601:4604   */\n      dup6\n        /* \"#utility.yul\":4597:4611   */\n      add\n        /* \"#utility.yul\":4583:4595   */\n      dup3\n        /* \"#utility.yul\":4549:4612   */\n      tag_83\n      jump\t// in\n    tag_151:\n        /* \"#utility.yul\":4454:4622   */\n      pop\n        /* \"#utility.yul\":4716:4720   */\n      0xa0\n        /* \"#utility.yul\":4709:4714   */\n      dup3\n        /* \"#utility.yul\":4705:4721   */\n      add\n        /* \"#utility.yul\":4699:4722   */\n      mload\n        /* \"#utility.yul\":4735:4798   */\n      tag_152\n        /* \"#utility.yul\":4792:4796   */\n      0xa0\n        /* \"#utility.yul\":4787:4790   */\n      dup6\n        /* \"#utility.yul\":4783:4797   */\n      add\n        /* \"#utility.yul\":4769:4781   */\n      dup3\n        /* \"#utility.yul\":4735:4798   */\n      tag_83\n      jump\t// in\n    tag_152:\n        /* \"#utility.yul\":4632:4808   */\n      pop\n        /* \"#utility.yul\":4903:4907   */\n      0xc0\n        /* \"#utility.yul\":4896:4901   */\n      dup3\n        /* \"#utility.yul\":4892:4908   */\n      add\n        /* \"#utility.yul\":4886:4909   */\n      mload\n        /* \"#utility.yul\":4922:4985   */\n      tag_153\n        /* \"#utility.yul\":4979:4983   */\n      0xc0\n        /* \"#utility.yul\":4974:4977   */\n      dup6\n        /* \"#utility.yul\":4970:4984   */\n      add\n        /* \"#utility.yul\":4956:4968   */\n      dup3\n        /* \"#utility.yul\":4922:4985   */\n      tag_84\n      jump\t// in\n    tag_153:\n        /* \"#utility.yul\":4818:4995   */\n      pop\n        /* \"#utility.yul\":3703:5002   */\n      pop\n        /* \"#utility.yul\":3559:5002   */\n      pop\n      pop\n      jump\t// out\n        /* \"#utility.yul\":5008:5387   */\n    tag_26:\n        /* \"#utility.yul\":5179:5183   */\n      0x00\n        /* \"#utility.yul\":5217:5220   */\n      0xe0\n        /* \"#utility.yul\":5206:5215   */\n      dup3\n        /* \"#utility.yul\":5202:5221   */\n      add\n        /* \"#utility.yul\":5194:5221   */\n      swap1\n      pop\n        /* \"#utility.yul\":5231:5380   */\n      tag_155\n        /* \"#utility.yul\":5377:5378   */\n      0x00\n        /* \"#utility.yul\":5366:5375   */\n      dup4\n        /* \"#utility.yul\":5362:5379   */\n      add\n        /* \"#utility.yul\":5353:5359   */\n      dup5\n        /* \"#utility.yul\":5231:5380   */\n      tag_85\n      jump\t// in\n    tag_155:\n        /* \"#utility.yul\":5008:5387   */\n      swap3\n      swap2\n      pop\n      pop\n      jump\t// out\n        /* \"#utility.yul\":5393:5536   */\n    tag_86:\n        /* \"#utility.yul\":5450:5455   */\n      0x00\n        /* \"#utility.yul\":5481:5487   */\n      dup2\n        /* \"#utility.yul\":5475:5488   */\n      mload\n        /* \"#utility.yul\":5466:5488   */\n      swap1\n      pop\n        /* \"#utility.yul\":5497:5530   */\n      tag_157\n        /* \"#utility.yul\":5524:5529   */\n      dup2\n        /* \"#utility.yul\":5497:5530   */\n      tag_72\n      jump\t// in\n    tag_157:\n        /* \"#utility.yul\":5393:5536   */\n      swap3\n      swap2\n      pop\n      pop\n      jump\t// out\n        /* \"#utility.yul\":5542:5893   */\n    tag_30:\n        /* \"#utility.yul\":5612:5618   */\n      0x00\n        /* \"#utility.yul\":5661:5663   */\n      0x20\n        /* \"#utility.yul\":5649:5658   */\n      dup3\n        /* \"#utility.yul\":5640:5647   */\n      dup5\n        /* \"#utility.yul\":5636:5659   */\n      sub\n        /* \"#utility.yul\":5632:5664   */\n      slt\n        /* \"#utility.yul\":5629:5748   */\n      iszero\n      tag_159\n      jumpi\n        /* \"#utility.yul\":5667:5746   */\n      tag_160\n      tag_69\n      jump\t// in\n    tag_160:\n        /* \"#utility.yul\":5629:5748   */\n    tag_159:\n        /* \"#utility.yul\":5787:5788   */\n      0x00\n        /* \"#utility.yul\":5812:5876   */\n      tag_161\n        /* \"#utility.yul\":5868:5875   */\n      dup5\n        /* \"#utility.yul\":5859:5865   */\n      dup3\n        /* \"#utility.yul\":5848:5857   */\n      dup6\n        /* \"#utility.yul\":5844:5866   */\n      add\n        /* \"#utility.yul\":5812:5876   */\n      tag_86\n      jump\t// in\n    tag_161:\n        /* \"#utility.yul\":5802:5876   */\n      swap2\n      pop\n        /* \"#utility.yul\":5758:5886   */\n      pop\n        /* \"#utility.yul\":5542:5893   */\n      swap3\n      swap2\n      pop\n      pop\n      jump\t// out\n        /* \"#utility.yul\":5899:6341   */\n    tag_39:\n        /* \"#utility.yul\":6048:6052   */\n      0x00\n        /* \"#utility.yul\":6086:6088   */\n      0x60\n        /* \"#utility.yul\":6075:6084   */\n      dup3\n        /* \"#utility.yul\":6071:6089   */\n      add\n        /* \"#utility.yul\":6063:6089   */\n      swap1\n      pop\n        /* \"#utility.yul\":6099:6170   */\n      tag_163\n        /* \"#utility.yul\":6167:6168   */\n      0x00\n        /* \"#utility.yul\":6156:6165   */\n      dup4\n        /* \"#utility.yul\":6152:6169   */\n      add\n        /* \"#utility.yul\":6143:6149   */\n      dup7\n        /* \"#utility.yul\":6099:6170   */\n      tag_67\n      jump\t// in\n    tag_163:\n        /* \"#utility.yul\":6180:6252   */\n      tag_164\n        /* \"#utility.yul\":6248:6250   */\n      0x20\n        /* \"#utility.yul\":6237:6246   */\n      dup4\n        /* \"#utility.yul\":6233:6251   */\n      add\n        /* \"#utility.yul\":6224:6230   */\n      dup6\n        /* \"#utility.yul\":6180:6252   */\n      tag_67\n      jump\t// in\n    tag_164:\n        /* \"#utility.yul\":6262:6334   */\n      tag_165\n        /* \"#utility.yul\":6330:6332   */\n      0x40\n        /* \"#utility.yul\":6319:6328   */\n      dup4\n        /* \"#utility.yul\":6315:6333   */\n      add\n        /* \"#utility.yul\":6306:6312   */\n      dup5\n        /* \"#utility.yul\":6262:6334   */\n      tag_74\n      jump\t// in\n    tag_165:\n        /* \"#utility.yul\":5899:6341   */\n      swap5\n      swap4\n      pop\n      pop\n      pop\n      pop\n      jump\t// out\n        /* \"#utility.yul\":6347:6445   */\n    tag_87:\n        /* \"#utility.yul\":6398:6404   */\n      0x00\n        /* \"#utility.yul\":6432:6437   */\n      dup2\n        /* \"#utility.yul\":6426:6438   */\n      mload\n        /* \"#utility.yul\":6416:6438   */\n      swap1\n      pop\n        /* \"#utility.yul\":6347:6445   */\n      swap2\n      swap1\n      pop\n      jump\t// out\n        /* \"#utility.yul\":6451:6598   */\n    tag_88:\n        /* \"#utility.yul\":6552:6563   */\n      0x00\n        /* \"#utility.yul\":6589:6592   */\n      dup2\n        /* \"#utility.yul\":6574:6592   */\n      swap1\n      pop\n        /* \"#utility.yul\":6451:6598   */\n      swap3\n      swap2\n      pop\n      pop\n      jump\t// out\n        /* \"#utility.yul\":6604:6850   */\n    tag_89:\n        /* \"#utility.yul\":6685:6686   */\n      0x00\n        /* \"#utility.yul\":6695:6808   */\n    tag_169:\n        /* \"#utility.yul\":6709:6715   */\n      dup4\n        /* \"#utility.yul\":6706:6707   */\n      dup2\n        /* \"#utility.yul\":6703:6716   */\n      lt\n        /* \"#utility.yul\":6695:6808   */\n      iszero\n      tag_171\n      jumpi\n        /* \"#utility.yul\":6794:6795   */\n      dup1\n        /* \"#utility.yul\":6789:6792   */\n      dup3\n        /* \"#utility.yul\":6785:6796   */\n      add\n        /* \"#utility.yul\":6779:6797   */\n      mload\n        /* \"#utility.yul\":6775:6776   */\n      dup2\n        /* \"#utility.yul\":6770:6773   */\n      dup5\n        /* \"#utility.yul\":6766:6777   */\n      add\n        /* \"#utility.yul\":6759:6798   */\n      mstore\n        /* \"#utility.yul\":6731:6733   */\n      0x20\n        /* \"#utility.yul\":6728:6729   */\n      dup2\n        /* \"#utility.yul\":6724:6734   */\n      add\n        /* \"#utility.yul\":6719:6734   */\n      swap1\n      pop\n        /* \"#utility.yul\":6695:6808   */\n      jump(tag_169)\n    tag_171:\n        /* \"#utility.yul\":6842:6843   */\n      0x00\n        /* \"#utility.yul\":6833:6839   */\n      dup5\n        /* \"#utility.yul\":6828:6831   */\n      dup5\n        /* \"#utility.yul\":6824:6840   */\n      add\n        /* \"#utility.yul\":6817:6844   */\n      mstore\n        /* \"#utility.yul\":6666:6850   */\n      pop\n        /* \"#utility.yul\":6604:6850   */\n      pop\n      pop\n      pop\n      jump\t// out\n        /* \"#utility.yul\":6856:7242   */\n    tag_90:\n        /* \"#utility.yul\":6960:6963   */\n      0x00\n        /* \"#utility.yul\":6988:7026   */\n      tag_173\n        /* \"#utility.yul\":7020:7025   */\n      dup3\n        /* \"#utility.yul\":6988:7026   */\n      tag_87\n      jump\t// in\n    tag_173:\n        /* \"#utility.yul\":7042:7130   */\n      tag_174\n        /* \"#utility.yul\":7123:7129   */\n      dup2\n        /* \"#utility.yul\":7118:7121   */\n      dup6\n        /* \"#utility.yul\":7042:7130   */\n      tag_88\n      jump\t// in\n    tag_174:\n        /* \"#utility.yul\":7035:7130   */\n      swap4\n      pop\n        /* \"#utility.yul\":7139:7204   */\n      tag_175\n        /* \"#utility.yul\":7197:7203   */\n      dup2\n        /* \"#utility.yul\":7192:7195   */\n      dup6\n        /* \"#utility.yul\":7185:7189   */\n      0x20\n        /* \"#utility.yul\":7178:7183   */\n      dup7\n        /* \"#utility.yul\":7174:7190   */\n      add\n        /* \"#utility.yul\":7139:7204   */\n      tag_89\n      jump\t// in\n    tag_175:\n        /* \"#utility.yul\":7229:7235   */\n      dup1\n        /* \"#utility.yul\":7224:7227   */\n      dup5\n        /* \"#utility.yul\":7220:7236   */\n      add\n        /* \"#utility.yul\":7213:7236   */\n      swap2\n      pop\n        /* \"#utility.yul\":6964:7242   */\n      pop\n        /* \"#utility.yul\":6856:7242   */\n      swap3\n      swap2\n      pop\n      pop\n      jump\t// out\n        /* \"#utility.yul\":7248:7519   */\n    tag_41:\n        /* \"#utility.yul\":7378:7381   */\n      0x00\n        /* \"#utility.yul\":7400:7493   */\n      tag_177\n        /* \"#utility.yul\":7489:7492   */\n      dup3\n        /* \"#utility.yul\":7480:7486   */\n      dup5\n        /* \"#utility.yul\":7400:7493   */\n      tag_90\n      jump\t// in\n    tag_177:\n        /* \"#utility.yul\":7393:7493   */\n      swap2\n      pop\n        /* \"#utility.yul\":7510:7513   */\n      dup2\n        /* \"#utility.yul\":7503:7513   */\n      swap1\n      pop\n        /* \"#utility.yul\":7248:7519   */\n      swap3\n      swap2\n      pop\n      pop\n      jump\t// out\n        /* \"#utility.yul\":7525:7615   */\n    tag_91:\n        /* \"#utility.yul\":7559:7566   */\n      0x00\n        /* \"#utility.yul\":7602:7607   */\n      dup2\n        /* \"#utility.yul\":7595:7608   */\n      iszero\n        /* \"#utility.yul\":7588:7609   */\n      iszero\n        /* \"#utility.yul\":7577:7609   */\n      swap1\n      pop\n        /* \"#utility.yul\":7525:7615   */\n      swap2\n      swap1\n      pop\n      jump\t// out\n        /* \"#utility.yul\":7621:7737   */\n    tag_92:\n        /* \"#utility.yul\":7691:7712   */\n      tag_180\n        /* \"#utility.yul\":7706:7711   */\n      dup2\n        /* \"#utility.yul\":7691:7712   */\n      tag_91\n      jump\t// in\n    tag_180:\n        /* \"#utility.yul\":7684:7689   */\n      dup2\n        /* \"#utility.yul\":7681:7713   */\n      eq\n        /* \"#utility.yul\":7671:7731   */\n      tag_181\n      jumpi\n        /* \"#utility.yul\":7727:7728   */\n      0x00\n        /* \"#utility.yul\":7724:7725   */\n      dup1\n        /* \"#utility.yul\":7717:7729   */\n      revert\n        /* \"#utility.yul\":7671:7731   */\n    tag_181:\n        /* \"#utility.yul\":7621:7737   */\n      pop\n      jump\t// out\n        /* \"#utility.yul\":7743:7880   */\n    tag_93:\n        /* \"#utility.yul\":7797:7802   */\n      0x00\n        /* \"#utility.yul\":7828:7834   */\n      dup2\n        /* \"#utility.yul\":7822:7835   */\n      mload\n        /* \"#utility.yul\":7813:7835   */\n      swap1\n      pop\n        /* \"#utility.yul\":7844:7874   */\n      tag_183\n        /* \"#utility.yul\":7868:7873   */\n      dup2\n        /* \"#utility.yul\":7844:7874   */\n      tag_92\n      jump\t// in\n    tag_183:\n        /* \"#utility.yul\":7743:7880   */\n      swap3\n      swap2\n      pop\n      pop\n      jump\t// out\n        /* \"#utility.yul\":7886:8231   */\n    tag_48:\n        /* \"#utility.yul\":7953:7959   */\n      0x00\n        /* \"#utility.yul\":8002:8004   */\n      0x20\n        /* \"#utility.yul\":7990:7999   */\n      dup3\n        /* \"#utility.yul\":7981:7988   */\n      dup5\n        /* \"#utility.yul\":7977:8000   */\n      sub\n        /* \"#utility.yul\":7973:8005   */\n      slt\n        /* \"#utility.yul\":7970:8089   */\n      iszero\n      tag_185\n      jumpi\n        /* \"#utility.yul\":8008:8087   */\n      tag_186\n      tag_69\n      jump\t// in\n    tag_186:\n        /* \"#utility.yul\":7970:8089   */\n    tag_185:\n        /* \"#utility.yul\":8128:8129   */\n      0x00\n        /* \"#utility.yul\":8153:8214   */\n      tag_187\n        /* \"#utility.yul\":8206:8213   */\n      dup5\n        /* \"#utility.yul\":8197:8203   */\n      dup3\n        /* \"#utility.yul\":8186:8195   */\n      dup6\n        /* \"#utility.yul\":8182:8204   */\n      add\n        /* \"#utility.yul\":8153:8214   */\n      tag_93\n      jump\t// in\n    tag_187:\n        /* \"#utility.yul\":8143:8214   */\n      swap2\n      pop\n        /* \"#utility.yul\":8099:8224   */\n      pop\n        /* \"#utility.yul\":7886:8231   */\n      swap3\n      swap2\n      pop\n      pop\n      jump\t// out\n        /* \"#utility.yul\":8237:8406   */\n    tag_94:\n        /* \"#utility.yul\":8321:8332   */\n      0x00\n        /* \"#utility.yul\":8355:8361   */\n      dup3\n        /* \"#utility.yul\":8350:8353   */\n      dup3\n        /* \"#utility.yul\":8343:8362   */\n      mstore\n        /* \"#utility.yul\":8395:8399   */\n      0x20\n        /* \"#utility.yul\":8390:8393   */\n      dup3\n        /* \"#utility.yul\":8386:8400   */\n      add\n        /* \"#utility.yul\":8371:8400   */\n      swap1\n      pop\n        /* \"#utility.yul\":8237:8406   */\n      swap3\n      swap2\n      pop\n      pop\n      jump\t// out\n        /* \"#utility.yul\":8412:8648   */\n    tag_95:\n        /* \"#utility.yul\":8552:8586   */\n      0x5472616e7366657248656c7065723a3a7472616e7366657246726f6d3a207472\n        /* \"#utility.yul\":8548:8549   */\n      0x00\n        /* \"#utility.yul\":8540:8546   */\n      dup3\n        /* \"#utility.yul\":8536:8550   */\n      add\n        /* \"#utility.yul\":8529:8587   */\n      mstore\n        /* \"#utility.yul\":8621:8640   */\n      0x616e7366657246726f6d206661696c6564000000000000000000000000000000\n        /* \"#utility.yul\":8616:8618   */\n      0x20\n        /* \"#utility.yul\":8608:8614   */\n      dup3\n        /* \"#utility.yul\":8604:8619   */\n      add\n        /* \"#utility.yul\":8597:8641   */\n      mstore\n        /* \"#utility.yul\":8412:8648   */\n      pop\n      jump\t// out\n        /* \"#utility.yul\":8654:9020   */\n    tag_96:\n        /* \"#utility.yul\":8796:8799   */\n      0x00\n        /* \"#utility.yul\":8817:8884   */\n      tag_191\n        /* \"#utility.yul\":8881:8883   */\n      0x31\n        /* \"#utility.yul\":8876:8879   */\n      dup4\n        /* \"#utility.yul\":8817:8884   */\n      tag_94\n      jump\t// in\n    tag_191:\n        /* \"#utility.yul\":8810:8884   */\n      swap2\n      pop\n        /* \"#utility.yul\":8893:8986   */\n      tag_192\n        /* \"#utility.yul\":8982:8985   */\n      dup3\n        /* \"#utility.yul\":8893:8986   */\n      tag_95\n      jump\t// in\n    tag_192:\n        /* \"#utility.yul\":9011:9013   */\n      0x40\n        /* \"#utility.yul\":9006:9009   */\n      dup3\n        /* \"#utility.yul\":9002:9014   */\n      add\n        /* \"#utility.yul\":8995:9014   */\n      swap1\n      pop\n        /* \"#utility.yul\":8654:9020   */\n      swap2\n      swap1\n      pop\n      jump\t// out\n        /* \"#utility.yul\":9026:9445   */\n    tag_51:\n        /* \"#utility.yul\":9192:9196   */\n      0x00\n        /* \"#utility.yul\":9230:9232   */\n      0x20\n        /* \"#utility.yul\":9219:9228   */\n      dup3\n        /* \"#utility.yul\":9215:9233   */\n      add\n        /* \"#utility.yul\":9207:9233   */\n      swap1\n      pop\n        /* \"#utility.yul\":9279:9288   */\n      dup2\n        /* \"#utility.yul\":9273:9277   */\n      dup2\n        /* \"#utility.yul\":9269:9289   */\n      sub\n        /* \"#utility.yul\":9265:9266   */\n      0x00\n        /* \"#utility.yul\":9254:9263   */\n      dup4\n        /* \"#utility.yul\":9250:9267   */\n      add\n        /* \"#utility.yul\":9243:9290   */\n      mstore\n        /* \"#utility.yul\":9307:9438   */\n      tag_194\n        /* \"#utility.yul\":9433:9437   */\n      dup2\n        /* \"#utility.yul\":9307:9438   */\n      tag_96\n      jump\t// in\n    tag_194:\n        /* \"#utility.yul\":9299:9438   */\n      swap1\n      pop\n        /* \"#utility.yul\":9026:9445   */\n      swap2\n      swap1\n      pop\n      jump\t// out\n        /* \"#utility.yul\":9451:9783   */\n    tag_54:\n        /* \"#utility.yul\":9572:9576   */\n      0x00\n        /* \"#utility.yul\":9610:9612   */\n      0x40\n        /* \"#utility.yul\":9599:9608   */\n      dup3\n        /* \"#utility.yul\":9595:9613   */\n      add\n        /* \"#utility.yul\":9587:9613   */\n      swap1\n      pop\n        /* \"#utility.yul\":9623:9694   */\n      tag_196\n        /* \"#utility.yul\":9691:9692   */\n      0x00\n        /* \"#utility.yul\":9680:9689   */\n      dup4\n        /* \"#utility.yul\":9676:9693   */\n      add\n        /* \"#utility.yul\":9667:9673   */\n      dup6\n        /* \"#utility.yul\":9623:9694   */\n      tag_67\n      jump\t// in\n    tag_196:\n        /* \"#utility.yul\":9704:9776   */\n      tag_197\n        /* \"#utility.yul\":9772:9774   */\n      0x20\n        /* \"#utility.yul\":9761:9770   */\n      dup4\n        /* \"#utility.yul\":9757:9775   */\n      add\n        /* \"#utility.yul\":9748:9754   */\n      dup5\n        /* \"#utility.yul\":9704:9776   */\n      tag_74\n      jump\t// in\n    tag_197:\n        /* \"#utility.yul\":9451:9783   */\n      swap4\n      swap3\n      pop\n      pop\n      pop\n      jump\t// out\n        /* \"#utility.yul\":9789:10019   */\n    tag_97:\n        /* \"#utility.yul\":9929:9963   */\n      0x5472616e7366657248656c7065723a3a73616665417070726f76653a20617070\n        /* \"#utility.yul\":9925:9926   */\n      0x00\n        /* \"#utility.yul\":9917:9923   */\n      dup3\n        /* \"#utility.yul\":9913:9927   */\n      add\n        /* \"#utility.yul\":9906:9964   */\n      mstore\n        /* \"#utility.yul\":9998:10011   */\n      0x726f7665206661696c6564000000000000000000000000000000000000000000\n        /* \"#utility.yul\":9993:9995   */\n      0x20\n        /* \"#utility.yul\":9985:9991   */\n      dup3\n        /* \"#utility.yul\":9981:9996   */\n      add\n        /* \"#utility.yul\":9974:10012   */\n      mstore\n        /* \"#utility.yul\":9789:10019   */\n      pop\n      jump\t// out\n        /* \"#utility.yul\":10025:10391   */\n    tag_98:\n        /* \"#utility.yul\":10167:10170   */\n      0x00\n        /* \"#utility.yul\":10188:10255   */\n      tag_200\n        /* \"#utility.yul\":10252:10254   */\n      0x2b\n        /* \"#utility.yul\":10247:10250   */\n      dup4\n        /* \"#utility.yul\":10188:10255   */\n      tag_94\n      jump\t// in\n    tag_200:\n        /* \"#utility.yul\":10181:10255   */\n      swap2\n      pop\n        /* \"#utility.yul\":10264:10357   */\n      tag_201\n        /* \"#utility.yul\":10353:10356   */\n      dup3\n        /* \"#utility.yul\":10264:10357   */\n      tag_97\n      jump\t// in\n    tag_201:\n        /* \"#utility.yul\":10382:10384   */\n      0x40\n        /* \"#utility.yul\":10377:10380   */\n      dup3\n        /* \"#utility.yul\":10373:10385   */\n      add\n        /* \"#utility.yul\":10366:10385   */\n      swap1\n      pop\n        /* \"#utility.yul\":10025:10391   */\n      swap2\n      swap1\n      pop\n      jump\t// out\n        /* \"#utility.yul\":10397:10816   */\n    tag_64:\n        /* \"#utility.yul\":10563:10567   */\n      0x00\n        /* \"#utility.yul\":10601:10603   */\n      0x20\n        /* \"#utility.yul\":10590:10599   */\n      dup3\n        /* \"#utility.yul\":10586:10604   */\n      add\n        /* \"#utility.yul\":10578:10604   */\n      swap1\n      pop\n        /* \"#utility.yul\":10650:10659   */\n      dup2\n        /* \"#utility.yul\":10644:10648   */\n      dup2\n        /* \"#utility.yul\":10640:10660   */\n      sub\n        /* \"#utility.yul\":10636:10637   */\n      0x00\n        /* \"#utility.yul\":10625:10634   */\n      dup4\n        /* \"#utility.yul\":10621:10638   */\n      add\n        /* \"#utility.yul\":10614:10661   */\n      mstore\n        /* \"#utility.yul\":10678:10809   */\n      tag_203\n        /* \"#utility.yul\":10804:10808   */\n      dup2\n        /* \"#utility.yul\":10678:10809   */\n      tag_98\n      jump\t// in\n    tag_203:\n        /* \"#utility.yul\":10670:10809   */\n      swap1\n      pop\n        /* \"#utility.yul\":10397:10816   */\n      swap2\n      swap1\n      pop\n      jump\t// out\n\n    auxdata: 0xa264697066735822122022163e382698e6d222817fa66eb713d5be46eb7d18045fd6580df0ffc59fd26264736f6c63430008180033\n}\n",
				"bytecode": {
					"linkReferences": {},
					"object": "60a0604052733bfa4769fb09eefc5a80d6e87c3b9c650f7ae48e73ffffffffffffffffffffffffffffffffffffffff1660809073ffffffffffffffffffffffffffffffffffffffff16815250348015610056575f80fd5b50608051610c2161008b5f395f8181610102015281816101e70152818161029a0152818161039e01526104780152610c215ff3fe608060405234801561000f575f80fd5b506004361061003f575f3560e01c806382d2dcfb14610043578063a048600d14610061578063c31c9c0714610091575b5f80fd5b61004b6100af565b604051610058919061073c565b60405180910390f35b61007b6004803603810190610076919061078c565b6100c7565b60405161008891906107c6565b60405180910390f35b610099610476565b6040516100a6919061083a565b60405180910390f35b73d10a9ec6e827b13cf399fcc7e6424f233e99562a81565b5f6100e87364b6f44862e8800ebd63cd7f1319c8bf0bc1bb9933308561049a565b6101277364b6f44862e8800ebd63cd7f1319c8bf0bc1bb997f0000000000000000000000000000000000000000000000000000000000000000846105cd565b5f6040518060e001604052807364b6f44862e8800ebd63cd7f1319c8bf0bc1bb9973ffffffffffffffffffffffffffffffffffffffff16815260200173d10a9ec6e827b13cf399fcc7e6424f233e99562a73ffffffffffffffffffffffffffffffffffffffff1681526020016101f462ffffff1681526020013073ffffffffffffffffffffffffffffffffffffffff1681526020018481526020015f81526020015f73ffffffffffffffffffffffffffffffffffffffff1681525090505f7f000000000000000000000000000000000000000000000000000000000000000073ffffffffffffffffffffffffffffffffffffffff166304e45aaf836040518263ffffffff1660e01b815260040161023e9190610929565b6020604051808303815f875af115801561025a573d5f803e3d5ffd5b505050506040513d601f19601f8201168201806040525081019061027e9190610956565b90506102df73d10a9ec6e827b13cf399fcc7e6424f233e99562a7f00000000000000000000000000000000000000000000000000000000000000007fffffffffffffffffffffffffffffffffffffffffffffffffffffffffffffffff6105cd565b5f6040518060e0016040528073d10a9ec6e827b13cf399fcc7e6424f233e99562a73ffffffffffffffffffffffffffffffffffffffff1681526020017364b6f44862e8800ebd63cd7f1319c8bf0bc1bb9973ffffffffffffffffffffffffffffffffffffffff16815260200161271062ffffff1681526020013373ffffffffffffffffffffffffffffffffffffffff1681526020018381526020015f81526020015f73ffffffffffffffffffffffffffffffffffffffff1681525090507f000000000000000000000000000000000000000000000000000000000000000073ffffffffffffffffffffffffffffffffffffffff166304e45aaf826040518263ffffffff1660e01b81526004016103f59190610929565b6020604051808303815f875af1158015610411573d5f803e3d5ffd5b505050506040513d601f19601f820116820180604052508101906104359190610956565b93507f3bb2ef743367d6bf518e353ce6f97647577a7ba1b971feecabd1bf42be1b55a38460405161046691906107c6565b60405180910390a1505050919050565b7f000000000000000000000000000000000000000000000000000000000000000081565b5f808573ffffffffffffffffffffffffffffffffffffffff166323b872dd8686866040516024016104cd93929190610981565b6040516020818303038152906040529060e01b6020820180517bffffffffffffffffffffffffffffffffffffffffffffffffffffffff838183161783525050505060405161051b9190610a22565b5f604051808303815f865af19150503d805f8114610554576040519150601f19603f3d011682016040523d82523d5f602084013e610559565b606091505b509150915081801561058657505f815114806105855750808060200190518101906105849190610a6d565b5b5b6105c5576040517f08c379a00000000000000000000000000000000000000000000000000000000081526004016105bc90610b18565b60405180910390fd5b505050505050565b5f808473ffffffffffffffffffffffffffffffffffffffff1663095ea7b385856040516024016105fe929190610b36565b6040516020818303038152906040529060e01b6020820180517bffffffffffffffffffffffffffffffffffffffffffffffffffffffff838183161783525050505060405161064c9190610a22565b5f604051808303815f865af19150503d805f8114610685576040519150601f19603f3d011682016040523d82523d5f602084013e61068a565b606091505b50915091508180156106b757505f815114806106b65750808060200190518101906106b59190610a6d565b5b5b6106f6576040517f08c379a00000000000000000000000000000000000000000000000000000000081526004016106ed90610bcd565b60405180910390fd5b5050505050565b5f73ffffffffffffffffffffffffffffffffffffffff82169050919050565b5f610726826106fd565b9050919050565b6107368161071c565b82525050565b5f60208201905061074f5f83018461072d565b92915050565b5f80fd5b5f819050919050565b61076b81610759565b8114610775575f80fd5b50565b5f8135905061078681610762565b92915050565b5f602082840312156107a1576107a0610755565b5b5f6107ae84828501610778565b91505092915050565b6107c081610759565b82525050565b5f6020820190506107d95f8301846107b7565b92915050565b5f819050919050565b5f6108026107fd6107f8846106fd565b6107df565b6106fd565b9050919050565b5f610813826107e8565b9050919050565b5f61082482610809565b9050919050565b6108348161081a565b82525050565b5f60208201905061084d5f83018461082b565b92915050565b61085c8161071c565b82525050565b5f62ffffff82169050919050565b61087981610862565b82525050565b61088881610759565b82525050565b610897816106fd565b82525050565b60e082015f8201516108b15f850182610853565b5060208201516108c46020850182610853565b5060408201516108d76040850182610870565b5060608201516108ea6060850182610853565b5060808201516108fd608085018261087f565b5060a082015161091060a085018261087f565b5060c082015161092360c085018261088e565b50505050565b5f60e08201905061093c5f83018461089d565b92915050565b5f8151905061095081610762565b92915050565b5f6020828403121561096b5761096a610755565b5b5f61097884828501610942565b91505092915050565b5f6060820190506109945f83018661072d565b6109a1602083018561072d565b6109ae60408301846107b7565b949350505050565b5f81519050919050565b5f81905092915050565b5f5b838110156109e75780820151818401526020810190506109cc565b5f8484015250505050565b5f6109fc826109b6565b610a0681856109c0565b9350610a168185602086016109ca565b80840191505092915050565b5f610a2d82846109f2565b915081905092915050565b5f8115159050919050565b610a4c81610a38565b8114610a56575f80fd5b50565b5f81519050610a6781610a43565b92915050565b5f60208284031215610a8257610a81610755565b5b5f610a8f84828501610a59565b91505092915050565b5f82825260208201905092915050565b7f5472616e7366657248656c7065723a3a7472616e7366657246726f6d3a2074725f8201527f616e7366657246726f6d206661696c6564000000000000000000000000000000602082015250565b5f610b02603183610a98565b9150610b0d82610aa8565b604082019050919050565b5f6020820190508181035f830152610b2f81610af6565b9050919050565b5f604082019050610b495f83018561072d565b610b5660208301846107b7565b9392505050565b7f5472616e7366657248656c7065723a3a73616665417070726f76653a206170705f8201527f726f7665206661696c6564000000000000000000000000000000000000000000602082015250565b5f610bb7602b83610a98565b9150610bc282610b5d565b604082019050919050565b5f6020820190508181035f830152610be481610bab565b905091905056fea264697066735822122022163e382698e6d222817fa66eb713d5be46eb7d18045fd6580df0ffc59fd26264736f6c63430008180033",
					"opcodes": "PUSH1 0xA0 PUSH1 0x40 MSTORE PUSH20 0x3BFA4769FB09EEFC5A80D6E87C3B9C650F7AE48E PUSH20 0xFFFFFFFFFFFFFFFFFFFFFFFFFFFFFFFFFFFFFFFF AND PUSH1 0x80 SWAP1 PUSH20 0xFFFFFFFFFFFFFFFFFFFFFFFFFFFFFFFFFFFFFFFF AND DUP2 MSTORE POP CALLVALUE DUP1 ISZERO PUSH2 0x56 JUMPI PUSH0 DUP1 REVERT JUMPDEST POP PUSH1 0x80 MLOAD PUSH2 0xC21 PUSH2 0x8B PUSH0 CODECOPY PUSH0 DUP2 DUP2 PUSH2 0x102 ADD MSTORE DUP2 DUP2 PUSH2 0x1E7 ADD MSTORE DUP2 DUP2 PUSH2 0x29A ADD MSTORE DUP2 DUP2 PUSH2 0x39E ADD MSTORE PUSH2 0x478 ADD MSTORE PUSH2 0xC21 PUSH0 RETURN INVALID PUSH1 0x80 PUSH1 0x40 MSTORE CALLVALUE DUP1 ISZERO PUSH2 0xF JUMPI PUSH0 DUP1 REVERT JUMPDEST POP PUSH1 0x4 CALLDATASIZE LT PUSH2 0x3F JUMPI PUSH0 CALLDATALOAD PUSH1 0xE0 SHR DUP1 PUSH4 0x82D2DCFB EQ PUSH2 0x43 JUMPI DUP1 PUSH4 0xA048600D EQ PUSH2 0x61 JUMPI DUP1 PUSH4 0xC31C9C07 EQ PUSH2 0x91 JUMPI JUMPDEST PUSH0 DUP1 REVERT JUMPDEST PUSH2 0x4B PUSH2 0xAF JUMP JUMPDEST PUSH1 0x40 MLOAD PUSH2 0x58 SWAP2 SWAP1 PUSH2 0x73C JUMP JUMPDEST PUSH1 0x40 MLOAD DUP1 SWAP2 SUB SWAP1 RETURN JUMPDEST PUSH2 0x7B PUSH1 0x4 DUP1 CALLDATASIZE SUB DUP2 ADD SWAP1 PUSH2 0x76 SWAP2 SWAP1 PUSH2 0x78C JUMP JUMPDEST PUSH2 0xC7 JUMP JUMPDEST PUSH1 0x40 MLOAD PUSH2 0x88 SWAP2 SWAP1 PUSH2 0x7C6 JUMP JUMPDEST PUSH1 0x40 MLOAD DUP1 SWAP2 SUB SWAP1 RETURN JUMPDEST PUSH2 0x99 PUSH2 0x476 JUMP JUMPDEST PUSH1 0x40 MLOAD PUSH2 0xA6 SWAP2 SWAP1 PUSH2 0x83A JUMP JUMPDEST PUSH1 0x40 MLOAD DUP1 SWAP2 SUB SWAP1 RETURN JUMPDEST PUSH20 0xD10A9EC6E827B13CF399FCC7E6424F233E99562A DUP2 JUMP JUMPDEST PUSH0 PUSH2 0xE8 PUSH20 0x64B6F44862E8800EBD63CD7F1319C8BF0BC1BB99 CALLER ADDRESS DUP6 PUSH2 0x49A JUMP JUMPDEST PUSH2 0x127 PUSH20 0x64B6F44862E8800EBD63CD7F1319C8BF0BC1BB99 PUSH32 0x0 DUP5 PUSH2 0x5CD JUMP JUMPDEST PUSH0 PUSH1 0x40 MLOAD DUP1 PUSH1 0xE0 ADD PUSH1 0x40 MSTORE DUP1 PUSH20 0x64B6F44862E8800EBD63CD7F1319C8BF0BC1BB99 PUSH20 0xFFFFFFFFFFFFFFFFFFFFFFFFFFFFFFFFFFFFFFFF AND DUP2 MSTORE PUSH1 0x20 ADD PUSH20 0xD10A9EC6E827B13CF399FCC7E6424F233E99562A PUSH20 0xFFFFFFFFFFFFFFFFFFFFFFFFFFFFFFFFFFFFFFFF AND DUP2 MSTORE PUSH1 0x20 ADD PUSH2 0x1F4 PUSH3 0xFFFFFF AND DUP2 MSTORE PUSH1 0x20 ADD ADDRESS PUSH20 0xFFFFFFFFFFFFFFFFFFFFFFFFFFFFFFFFFFFFFFFF AND DUP2 MSTORE PUSH1 0x20 ADD DUP5 DUP2 MSTORE PUSH1 0x20 ADD PUSH0 DUP2 MSTORE PUSH1 0x20 ADD PUSH0 PUSH20 0xFFFFFFFFFFFFFFFFFFFFFFFFFFFFFFFFFFFFFFFF AND DUP2 MSTORE POP SWAP1 POP PUSH0 PUSH32 0x0 PUSH20 0xFFFFFFFFFFFFFFFFFFFFFFFFFFFFFFFFFFFFFFFF AND PUSH4 0x4E45AAF DUP4 PUSH1 0x40 MLOAD DUP3 PUSH4 0xFFFFFFFF AND PUSH1 0xE0 SHL DUP2 MSTORE PUSH1 0x4 ADD PUSH2 0x23E SWAP2 SWAP1 PUSH2 0x929 JUMP JUMPDEST PUSH1 0x20 PUSH1 0x40 MLOAD DUP1 DUP4 SUB DUP2 PUSH0 DUP8 GAS CALL ISZERO DUP1 ISZERO PUSH2 0x25A JUMPI RETURNDATASIZE PUSH0 DUP1 RETURNDATACOPY RETURNDATASIZE PUSH0 REVERT JUMPDEST POP POP POP POP PUSH1 0x40 MLOAD RETURNDATASIZE PUSH1 0x1F NOT PUSH1 0x1F DUP3 ADD AND DUP3 ADD DUP1 PUSH1 0x40 MSTORE POP DUP2 ADD SWAP1 PUSH2 0x27E SWAP2 SWAP1 PUSH2 0x956 JUMP JUMPDEST SWAP1 POP PUSH2 0x2DF PUSH20 0xD10A9EC6E827B13CF399FCC7E6424F233E99562A PUSH32 0x0 PUSH32 0xFFFFFFFFFFFFFFFFFFFFFFFFFFFFFFFFFFFFFFFFFFFFFFFFFFFFFFFFFFFFFFFF PUSH2 0x5CD JUMP JUMPDEST PUSH0 PUSH1 0x40 MLOAD DUP1 PUSH1 0xE0 ADD PUSH1 0x40 MSTORE DUP1 PUSH20 0xD10A9EC6E827B13CF399FCC7E6424F233E99562A PUSH20 0xFFFFFFFFFFFFFFFFFFFFFFFFFFFFFFFFFFFFFFFF AND DUP2 MSTORE PUSH1 0x20 ADD PUSH20 0x64B6F44862E8800EBD63CD7F1319C8BF0BC1BB99 PUSH20 0xFFFFFFFFFFFFFFFFFFFFFFFFFFFFFFFFFFFFFFFF AND DUP2 MSTORE PUSH1 0x20 ADD PUSH2 0x2710 PUSH3 0xFFFFFF AND DUP2 MSTORE PUSH1 0x20 ADD CALLER PUSH20 0xFFFFFFFFFFFFFFFFFFFFFFFFFFFFFFFFFFFFFFFF AND DUP2 MSTORE PUSH1 0x20 ADD DUP4 DUP2 MSTORE PUSH1 0x20 ADD PUSH0 DUP2 MSTORE PUSH1 0x20 ADD PUSH0 PUSH20 0xFFFFFFFFFFFFFFFFFFFFFFFFFFFFFFFFFFFFFFFF AND DUP2 MSTORE POP SWAP1 POP PUSH32 0x0 PUSH20 0xFFFFFFFFFFFFFFFFFFFFFFFFFFFFFFFFFFFFFFFF AND PUSH4 0x4E45AAF DUP3 PUSH1 0x40 MLOAD DUP3 PUSH4 0xFFFFFFFF AND PUSH1 0xE0 SHL DUP2 MSTORE PUSH1 0x4 ADD PUSH2 0x3F5 SWAP2 SWAP1 PUSH2 0x929 JUMP JUMPDEST PUSH1 0x20 PUSH1 0x40 MLOAD DUP1 DUP4 SUB DUP2 PUSH0 DUP8 GAS CALL ISZERO DUP1 ISZERO PUSH2 0x411 JUMPI RETURNDATASIZE PUSH0 DUP1 RETURNDATACOPY RETURNDATASIZE PUSH0 REVERT JUMPDEST POP POP POP POP PUSH1 0x40 MLOAD RETURNDATASIZE PUSH1 0x1F NOT PUSH1 0x1F DUP3 ADD AND DUP3 ADD DUP1 PUSH1 0x40 MSTORE POP DUP2 ADD SWAP1 PUSH2 0x435 SWAP2 SWAP1 PUSH2 0x956 JUMP JUMPDEST SWAP4 POP PUSH32 0x3BB2EF743367D6BF518E353CE6F97647577A7BA1B971FEECABD1BF42BE1B55A3 DUP5 PUSH1 0x40 MLOAD PUSH2 0x466 SWAP2 SWAP1 PUSH2 0x7C6 JUMP JUMPDEST PUSH1 0x40 MLOAD DUP1 SWAP2 SUB SWAP1 LOG1 POP POP POP SWAP2 SWAP1 POP JUMP JUMPDEST PUSH32 0x0 DUP2 JUMP JUMPDEST PUSH0 DUP1 DUP6 PUSH20 0xFFFFFFFFFFFFFFFFFFFFFFFFFFFFFFFFFFFFFFFF AND PUSH4 0x23B872DD DUP7 DUP7 DUP7 PUSH1 0x40 MLOAD PUSH1 0x24 ADD PUSH2 0x4CD SWAP4 SWAP3 SWAP2 SWAP1 PUSH2 0x981 JUMP JUMPDEST PUSH1 0x40 MLOAD PUSH1 0x20 DUP2 DUP4 SUB SUB DUP2 MSTORE SWAP1 PUSH1 0x40 MSTORE SWAP1 PUSH1 0xE0 SHL PUSH1 0x20 DUP3 ADD DUP1 MLOAD PUSH28 0xFFFFFFFFFFFFFFFFFFFFFFFFFFFFFFFFFFFFFFFFFFFFFFFFFFFFFFFF DUP4 DUP2 DUP4 AND OR DUP4 MSTORE POP POP POP POP PUSH1 0x40 MLOAD PUSH2 0x51B SWAP2 SWAP1 PUSH2 0xA22 JUMP JUMPDEST PUSH0 PUSH1 0x40 MLOAD DUP1 DUP4 SUB DUP2 PUSH0 DUP7 GAS CALL SWAP2 POP POP RETURNDATASIZE DUP1 PUSH0 DUP2 EQ PUSH2 0x554 JUMPI PUSH1 0x40 MLOAD SWAP2 POP PUSH1 0x1F NOT PUSH1 0x3F RETURNDATASIZE ADD AND DUP3 ADD PUSH1 0x40 MSTORE RETURNDATASIZE DUP3 MSTORE RETURNDATASIZE PUSH0 PUSH1 0x20 DUP5 ADD RETURNDATACOPY PUSH2 0x559 JUMP JUMPDEST PUSH1 0x60 SWAP2 POP JUMPDEST POP SWAP2 POP SWAP2 POP DUP2 DUP1 ISZERO PUSH2 0x586 JUMPI POP PUSH0 DUP2 MLOAD EQ DUP1 PUSH2 0x585 JUMPI POP DUP1 DUP1 PUSH1 0x20 ADD SWAP1 MLOAD DUP2 ADD SWAP1 PUSH2 0x584 SWAP2 SWAP1 PUSH2 0xA6D JUMP JUMPDEST JUMPDEST JUMPDEST PUSH2 0x5C5 JUMPI PUSH1 0x40 MLOAD PUSH32 0x8C379A000000000000000000000000000000000000000000000000000000000 DUP2 MSTORE PUSH1 0x4 ADD PUSH2 0x5BC SWAP1 PUSH2 0xB18 JUMP JUMPDEST PUSH1 0x40 MLOAD DUP1 SWAP2 SUB SWAP1 REVERT JUMPDEST POP POP POP POP POP POP JUMP JUMPDEST PUSH0 DUP1 DUP5 PUSH20 0xFFFFFFFFFFFFFFFFFFFFFFFFFFFFFFFFFFFFFFFF AND PUSH4 0x95EA7B3 DUP6 DUP6 PUSH1 0x40 MLOAD PUSH1 0x24 ADD PUSH2 0x5FE SWAP3 SWAP2 SWAP1 PUSH2 0xB36 JUMP JUMPDEST PUSH1 0x40 MLOAD PUSH1 0x20 DUP2 DUP4 SUB SUB DUP2 MSTORE SWAP1 PUSH1 0x40 MSTORE SWAP1 PUSH1 0xE0 SHL PUSH1 0x20 DUP3 ADD DUP1 MLOAD PUSH28 0xFFFFFFFFFFFFFFFFFFFFFFFFFFFFFFFFFFFFFFFFFFFFFFFFFFFFFFFF DUP4 DUP2 DUP4 AND OR DUP4 MSTORE POP POP POP POP PUSH1 0x40 MLOAD PUSH2 0x64C SWAP2 SWAP1 PUSH2 0xA22 JUMP JUMPDEST PUSH0 PUSH1 0x40 MLOAD DUP1 DUP4 SUB DUP2 PUSH0 DUP7 GAS CALL SWAP2 POP POP RETURNDATASIZE DUP1 PUSH0 DUP2 EQ PUSH2 0x685 JUMPI PUSH1 0x40 MLOAD SWAP2 POP PUSH1 0x1F NOT PUSH1 0x3F RETURNDATASIZE ADD AND DUP3 ADD PUSH1 0x40 MSTORE RETURNDATASIZE DUP3 MSTORE RETURNDATASIZE PUSH0 PUSH1 0x20 DUP5 ADD RETURNDATACOPY PUSH2 0x68A JUMP JUMPDEST PUSH1 0x60 SWAP2 POP JUMPDEST POP SWAP2 POP SWAP2 POP DUP2 DUP1 ISZERO PUSH2 0x6B7 JUMPI POP PUSH0 DUP2 MLOAD EQ DUP1 PUSH2 0x6B6 JUMPI POP DUP1 DUP1 PUSH1 0x20 ADD SWAP1 MLOAD DUP2 ADD SWAP1 PUSH2 0x6B5 SWAP2 SWAP1 PUSH2 0xA6D JUMP JUMPDEST JUMPDEST JUMPDEST PUSH2 0x6F6 JUMPI PUSH1 0x40 MLOAD PUSH32 0x8C379A000000000000000000000000000000000000000000000000000000000 DUP2 MSTORE PUSH1 0x4 ADD PUSH2 0x6ED SWAP1 PUSH2 0xBCD JUMP JUMPDEST PUSH1 0x40 MLOAD DUP1 SWAP2 SUB SWAP1 REVERT JUMPDEST POP POP POP POP POP JUMP JUMPDEST PUSH0 PUSH20 0xFFFFFFFFFFFFFFFFFFFFFFFFFFFFFFFFFFFFFFFF DUP3 AND SWAP1 POP SWAP2 SWAP1 POP JUMP JUMPDEST PUSH0 PUSH2 0x726 DUP3 PUSH2 0x6FD JUMP JUMPDEST SWAP1 POP SWAP2 SWAP1 POP JUMP JUMPDEST PUSH2 0x736 DUP2 PUSH2 0x71C JUMP JUMPDEST DUP3 MSTORE POP POP JUMP JUMPDEST PUSH0 PUSH1 0x20 DUP3 ADD SWAP1 POP PUSH2 0x74F PUSH0 DUP4 ADD DUP5 PUSH2 0x72D JUMP JUMPDEST SWAP3 SWAP2 POP POP JUMP JUMPDEST PUSH0 DUP1 REVERT JUMPDEST PUSH0 DUP2 SWAP1 POP SWAP2 SWAP1 POP JUMP JUMPDEST PUSH2 0x76B DUP2 PUSH2 0x759 JUMP JUMPDEST DUP2 EQ PUSH2 0x775 JUMPI PUSH0 DUP1 REVERT JUMPDEST POP JUMP JUMPDEST PUSH0 DUP2 CALLDATALOAD SWAP1 POP PUSH2 0x786 DUP2 PUSH2 0x762 JUMP JUMPDEST SWAP3 SWAP2 POP POP JUMP JUMPDEST PUSH0 PUSH1 0x20 DUP3 DUP5 SUB SLT ISZERO PUSH2 0x7A1 JUMPI PUSH2 0x7A0 PUSH2 0x755 JUMP JUMPDEST JUMPDEST PUSH0 PUSH2 0x7AE DUP5 DUP3 DUP6 ADD PUSH2 0x778 JUMP JUMPDEST SWAP2 POP POP SWAP3 SWAP2 POP POP JUMP JUMPDEST PUSH2 0x7C0 DUP2 PUSH2 0x759 JUMP JUMPDEST DUP3 MSTORE POP POP JUMP JUMPDEST PUSH0 PUSH1 0x20 DUP3 ADD SWAP1 POP PUSH2 0x7D9 PUSH0 DUP4 ADD DUP5 PUSH2 0x7B7 JUMP JUMPDEST SWAP3 SWAP2 POP POP JUMP JUMPDEST PUSH0 DUP2 SWAP1 POP SWAP2 SWAP1 POP JUMP JUMPDEST PUSH0 PUSH2 0x802 PUSH2 0x7FD PUSH2 0x7F8 DUP5 PUSH2 0x6FD JUMP JUMPDEST PUSH2 0x7DF JUMP JUMPDEST PUSH2 0x6FD JUMP JUMPDEST SWAP1 POP SWAP2 SWAP1 POP JUMP JUMPDEST PUSH0 PUSH2 0x813 DUP3 PUSH2 0x7E8 JUMP JUMPDEST SWAP1 POP SWAP2 SWAP1 POP JUMP JUMPDEST PUSH0 PUSH2 0x824 DUP3 PUSH2 0x809 JUMP JUMPDEST SWAP1 POP SWAP2 SWAP1 POP JUMP JUMPDEST PUSH2 0x834 DUP2 PUSH2 0x81A JUMP JUMPDEST DUP3 MSTORE POP POP JUMP JUMPDEST PUSH0 PUSH1 0x20 DUP3 ADD SWAP1 POP PUSH2 0x84D PUSH0 DUP4 ADD DUP5 PUSH2 0x82B JUMP JUMPDEST SWAP3 SWAP2 POP POP JUMP JUMPDEST PUSH2 0x85C DUP2 PUSH2 0x71C JUMP JUMPDEST DUP3 MSTORE POP POP JUMP JUMPDEST PUSH0 PUSH3 0xFFFFFF DUP3 AND SWAP1 POP SWAP2 SWAP1 POP JUMP JUMPDEST PUSH2 0x879 DUP2 PUSH2 0x862 JUMP JUMPDEST DUP3 MSTORE POP POP JUMP JUMPDEST PUSH2 0x888 DUP2 PUSH2 0x759 JUMP JUMPDEST DUP3 MSTORE POP POP JUMP JUMPDEST PUSH2 0x897 DUP2 PUSH2 0x6FD JUMP JUMPDEST DUP3 MSTORE POP POP JUMP JUMPDEST PUSH1 0xE0 DUP3 ADD PUSH0 DUP3 ADD MLOAD PUSH2 0x8B1 PUSH0 DUP6 ADD DUP3 PUSH2 0x853 JUMP JUMPDEST POP PUSH1 0x20 DUP3 ADD MLOAD PUSH2 0x8C4 PUSH1 0x20 DUP6 ADD DUP3 PUSH2 0x853 JUMP JUMPDEST POP PUSH1 0x40 DUP3 ADD MLOAD PUSH2 0x8D7 PUSH1 0x40 DUP6 ADD DUP3 PUSH2 0x870 JUMP JUMPDEST POP PUSH1 0x60 DUP3 ADD MLOAD PUSH2 0x8EA PUSH1 0x60 DUP6 ADD DUP3 PUSH2 0x853 JUMP JUMPDEST POP PUSH1 0x80 DUP3 ADD MLOAD PUSH2 0x8FD PUSH1 0x80 DUP6 ADD DUP3 PUSH2 0x87F JUMP JUMPDEST POP PUSH1 0xA0 DUP3 ADD MLOAD PUSH2 0x910 PUSH1 0xA0 DUP6 ADD DUP3 PUSH2 0x87F JUMP JUMPDEST POP PUSH1 0xC0 DUP3 ADD MLOAD PUSH2 0x923 PUSH1 0xC0 DUP6 ADD DUP3 PUSH2 0x88E JUMP JUMPDEST POP POP POP POP JUMP JUMPDEST PUSH0 PUSH1 0xE0 DUP3 ADD SWAP1 POP PUSH2 0x93C PUSH0 DUP4 ADD DUP5 PUSH2 0x89D JUMP JUMPDEST SWAP3 SWAP2 POP POP JUMP JUMPDEST PUSH0 DUP2 MLOAD SWAP1 POP PUSH2 0x950 DUP2 PUSH2 0x762 JUMP JUMPDEST SWAP3 SWAP2 POP POP JUMP JUMPDEST PUSH0 PUSH1 0x20 DUP3 DUP5 SUB SLT ISZERO PUSH2 0x96B JUMPI PUSH2 0x96A PUSH2 0x755 JUMP JUMPDEST JUMPDEST PUSH0 PUSH2 0x978 DUP5 DUP3 DUP6 ADD PUSH2 0x942 JUMP JUMPDEST SWAP2 POP POP SWAP3 SWAP2 POP POP JUMP JUMPDEST PUSH0 PUSH1 0x60 DUP3 ADD SWAP1 POP PUSH2 0x994 PUSH0 DUP4 ADD DUP7 PUSH2 0x72D JUMP JUMPDEST PUSH2 0x9A1 PUSH1 0x20 DUP4 ADD DUP6 PUSH2 0x72D JUMP JUMPDEST PUSH2 0x9AE PUSH1 0x40 DUP4 ADD DUP5 PUSH2 0x7B7 JUMP JUMPDEST SWAP5 SWAP4 POP POP POP POP JUMP JUMPDEST PUSH0 DUP2 MLOAD SWAP1 POP SWAP2 SWAP1 POP JUMP JUMPDEST PUSH0 DUP2 SWAP1 POP SWAP3 SWAP2 POP POP JUMP JUMPDEST PUSH0 JUMPDEST DUP4 DUP2 LT ISZERO PUSH2 0x9E7 JUMPI DUP1 DUP3 ADD MLOAD DUP2 DUP5 ADD MSTORE PUSH1 0x20 DUP2 ADD SWAP1 POP PUSH2 0x9CC JUMP JUMPDEST PUSH0 DUP5 DUP5 ADD MSTORE POP POP POP POP JUMP JUMPDEST PUSH0 PUSH2 0x9FC DUP3 PUSH2 0x9B6 JUMP JUMPDEST PUSH2 0xA06 DUP2 DUP6 PUSH2 0x9C0 JUMP JUMPDEST SWAP4 POP PUSH2 0xA16 DUP2 DUP6 PUSH1 0x20 DUP7 ADD PUSH2 0x9CA JUMP JUMPDEST DUP1 DUP5 ADD SWAP2 POP POP SWAP3 SWAP2 POP POP JUMP JUMPDEST PUSH0 PUSH2 0xA2D DUP3 DUP5 PUSH2 0x9F2 JUMP JUMPDEST SWAP2 POP DUP2 SWAP1 POP SWAP3 SWAP2 POP POP JUMP JUMPDEST PUSH0 DUP2 ISZERO ISZERO SWAP1 POP SWAP2 SWAP1 POP JUMP JUMPDEST PUSH2 0xA4C DUP2 PUSH2 0xA38 JUMP JUMPDEST DUP2 EQ PUSH2 0xA56 JUMPI PUSH0 DUP1 REVERT JUMPDEST POP JUMP JUMPDEST PUSH0 DUP2 MLOAD SWAP1 POP PUSH2 0xA67 DUP2 PUSH2 0xA43 JUMP JUMPDEST SWAP3 SWAP2 POP POP JUMP JUMPDEST PUSH0 PUSH1 0x20 DUP3 DUP5 SUB SLT ISZERO PUSH2 0xA82 JUMPI PUSH2 0xA81 PUSH2 0x755 JUMP JUMPDEST JUMPDEST PUSH0 PUSH2 0xA8F DUP5 DUP3 DUP6 ADD PUSH2 0xA59 JUMP JUMPDEST SWAP2 POP POP SWAP3 SWAP2 POP POP JUMP JUMPDEST PUSH0 DUP3 DUP3 MSTORE PUSH1 0x20 DUP3 ADD SWAP1 POP SWAP3 SWAP2 POP POP JUMP JUMPDEST PUSH32 0x5472616E7366657248656C7065723A3A7472616E7366657246726F6D3A207472 PUSH0 DUP3 ADD MSTORE PUSH32 0x616E7366657246726F6D206661696C6564000000000000000000000000000000 PUSH1 0x20 DUP3 ADD MSTORE POP JUMP JUMPDEST PUSH0 PUSH2 0xB02 PUSH1 0x31 DUP4 PUSH2 0xA98 JUMP JUMPDEST SWAP2 POP PUSH2 0xB0D DUP3 PUSH2 0xAA8 JUMP JUMPDEST PUSH1 0x40 DUP3 ADD SWAP1 POP SWAP2 SWAP1 POP JUMP JUMPDEST PUSH0 PUSH1 0x20 DUP3 ADD SWAP1 POP DUP2 DUP2 SUB PUSH0 DUP4 ADD MSTORE PUSH2 0xB2F DUP2 PUSH2 0xAF6 JUMP JUMPDEST SWAP1 POP SWAP2 SWAP1 POP JUMP JUMPDEST PUSH0 PUSH1 0x40 DUP3 ADD SWAP1 POP PUSH2 0xB49 PUSH0 DUP4 ADD DUP6 PUSH2 0x72D JUMP JUMPDEST PUSH2 0xB56 PUSH1 0x20 DUP4 ADD DUP5 PUSH2 0x7B7 JUMP JUMPDEST SWAP4 SWAP3 POP POP POP JUMP JUMPDEST PUSH32 0x5472616E7366657248656C7065723A3A73616665417070726F76653A20617070 PUSH0 DUP3 ADD MSTORE PUSH32 0x726F7665206661696C6564000000000000000000000000000000000000000000 PUSH1 0x20 DUP3 ADD MSTORE POP JUMP JUMPDEST PUSH0 PUSH2 0xBB7 PUSH1 0x2B DUP4 PUSH2 0xA98 JUMP JUMPDEST SWAP2 POP PUSH2 0xBC2 DUP3 PUSH2 0xB5D JUMP JUMPDEST PUSH1 0x40 DUP3 ADD SWAP1 POP SWAP2 SWAP1 POP JUMP JUMPDEST PUSH0 PUSH1 0x20 DUP3 ADD SWAP1 POP DUP2 DUP2 SUB PUSH0 DUP4 ADD MSTORE PUSH2 0xBE4 DUP2 PUSH2 0xBAB JUMP JUMPDEST SWAP1 POP SWAP2 SWAP1 POP JUMP INVALID LOG2 PUSH5 0x6970667358 0x22 SLT KECCAK256 0x22 AND RETURNDATACOPY CODESIZE 0x26 SWAP9 0xE6 0xD2 0x22 DUP2 PUSH32 0xA66EB713D5BE46EB7D18045FD6580DF0FFC59FD26264736F6C63430008180033 "
				},
				"gasEstimates": {
					"creation": {
						"codeDepositCost": "621000",
						"executionCost": "infinite",
						"totalCost": "infinite"
					},
					"external": {
						"UETH()": "351",
						"doArbitrage(uint256)": "infinite",
						"swapRouter()": "infinite"
					}
				},
				"methodIdentifiers": {
					"UETH()": "82d2dcfb",
					"doArbitrage(uint256)": "a048600d",
					"swapRouter()": "c31c9c07"
				}
			},
			"storageLayout": {
				"storage": [],
				"types": null
			},
			"userdoc": {
				"kind": "user",
				"methods": {},
				"version": 1
			}
		}
	}
}