{
	"FlightReservation.sol": {
		"FlightReservation": {
			"abi": [
				{
					"inputs": [],
					"stateMutability": "nonpayable",
					"type": "constructor"
				},
				{
					"inputs": [
						{
							"internalType": "uint256",
							"name": "numSeats",
							"type": "uint256"
						}
					],
					"name": "blockSeats",
					"outputs": [],
					"stateMutability": "nonpayable",
					"type": "function"
				},
				{
					"inputs": [],
					"name": "bookFlight",
					"outputs": [],
					"stateMutability": "payable",
					"type": "function"
				},
				{
					"inputs": [
						{
							"internalType": "address",
							"name": "CustomerAddress",
							"type": "address"
						}
					],
					"name": "checkReservations",
					"outputs": [
						{
							"internalType": "bool",
							"name": "",
							"type": "bool"
						}
					],
					"stateMutability": "view",
					"type": "function"
				},
				{
					"inputs": [],
					"name": "flights",
					"outputs": [
						{
							"internalType": "uint256",
							"name": "availability",
							"type": "uint256"
						},
						{
							"internalType": "uint256",
							"name": "price",
							"type": "uint256"
						}
					],
					"stateMutability": "view",
					"type": "function"
				},
				{
					"inputs": [],
					"name": "manager",
					"outputs": [
						{
							"internalType": "address payable",
							"name": "",
							"type": "address"
						}
					],
					"stateMutability": "view",
					"type": "function"
				},
				{
					"inputs": [],
					"name": "numReservations",
					"outputs": [
						{
							"internalType": "uint256",
							"name": "",
							"type": "uint256"
						}
					],
					"stateMutability": "view",
					"type": "function"
				},
				{
					"inputs": [
						{
							"internalType": "uint256",
							"name": "",
							"type": "uint256"
						},
						{
							"internalType": "address",
							"name": "",
							"type": "address"
						}
					],
					"name": "reservations",
					"outputs": [
						{
							"internalType": "bool",
							"name": "",
							"type": "bool"
						}
					],
					"stateMutability": "view",
					"type": "function"
				},
				{
					"inputs": [
						{
							"internalType": "uint256",
							"name": "newPrice",
							"type": "uint256"
						},
						{
							"internalType": "uint256",
							"name": "newAvailability",
							"type": "uint256"
						}
					],
					"name": "resetState",
					"outputs": [],
					"stateMutability": "nonpayable",
					"type": "function"
				},
				{
					"inputs": [],
					"name": "saleIteration",
					"outputs": [
						{
							"internalType": "uint256",
							"name": "",
							"type": "uint256"
						}
					],
					"stateMutability": "view",
					"type": "function"
				},
				{
					"inputs": [],
					"name": "transferEarningsToManager",
					"outputs": [],
					"stateMutability": "nonpayable",
					"type": "function"
				}
			],
			"devdoc": {
				"kind": "dev",
				"methods": {},
				"version": 1
			},
			"evm": {
				"assembly": "    /* \"FlightReservation.sol\":131:2489  contract FlightReservation {... */\n  mstore(0x40, 0x80)\n    /* \"FlightReservation.sol\":475:681  constructor() {... */\n  callvalue\n  dup1\n  iszero\n  tag_1\n  jumpi\n  0x00\n  dup1\n  revert\ntag_1:\n  pop\n    /* \"FlightReservation.sol\":518:528  msg.sender */\n  caller\n    /* \"FlightReservation.sol\":500:507  manager */\n  0x00\n  dup1\n    /* \"FlightReservation.sol\":500:529  manager = payable(msg.sender) */\n  0x0100\n  exp\n  dup2\n  sload\n  dup2\n  0xffffffffffffffffffffffffffffffffffffffff\n  mul\n  not\n  and\n  swap1\n  dup4\n  0xffffffffffffffffffffffffffffffffffffffff\n  and\n  mul\n  or\n  swap1\n  sstore\n  pop\n    /* \"FlightReservation.sol\":563:565  40 */\n  0x28\n    /* \"FlightReservation.sol\":540:547  flights */\n  0x01\n    /* \"FlightReservation.sol\":540:560  flights.availability */\n  0x00\n  add\n    /* \"FlightReservation.sol\":540:565  flights.availability = 40 */\n  dup2\n  swap1\n  sstore\n  pop\n    /* \"FlightReservation.sol\":592:603  10000000000 */\n  0x02540be400\n    /* \"FlightReservation.sol\":576:583  flights */\n  0x01\n    /* \"FlightReservation.sol\":576:589  flights.price */\n  dup1\n  add\n    /* \"FlightReservation.sol\":576:603  flights.price = 10000000000 */\n  dup2\n  swap1\n  sstore\n  pop\n    /* \"FlightReservation.sol\":644:645  1 */\n  0x01\n    /* \"FlightReservation.sol\":628:641  saleIteration */\n  0x05\n    /* \"FlightReservation.sol\":628:645  saleIteration = 1 */\n  dup2\n  swap1\n  sstore\n  pop\n    /* \"FlightReservation.sol\":672:673  0 */\n  0x00\n    /* \"FlightReservation.sol\":656:671  numReservations */\n  0x04\n    /* \"FlightReservation.sol\":656:673  numReservations=0 */\n  dup2\n  swap1\n  sstore\n  pop\n    /* \"FlightReservation.sol\":131:2489  contract FlightReservation {... */\n  dataSize(sub_0)\n  dup1\n  dataOffset(sub_0)\n  0x00\n  codecopy\n  0x00\n  return\nstop\n\nsub_0: assembly {\n        /* \"FlightReservation.sol\":131:2489  contract FlightReservation {... */\n      mstore(0x40, 0x80)\n      jumpi(tag_1, lt(calldatasize, 0x04))\n      shr(0xe0, calldataload(0x00))\n      dup1\n      0x95c92c8f\n      gt\n      tag_12\n      jumpi\n      dup1\n      0x95c92c8f\n      eq\n      tag_7\n      jumpi\n      dup1\n      0xd02c3f45\n      eq\n      tag_8\n      jumpi\n      dup1\n      0xea0863f5\n      eq\n      tag_9\n      jumpi\n      dup1\n      0xfc7233e1\n      eq\n      tag_10\n      jumpi\n      dup1\n      0xfd42b070\n      eq\n      tag_11\n      jumpi\n      jump(tag_1)\n    tag_12:\n      dup1\n      0x2bc8b468\n      eq\n      tag_2\n      jumpi\n      dup1\n      0x437b3501\n      eq\n      tag_3\n      jumpi\n      dup1\n      0x481c6a75\n      eq\n      tag_4\n      jumpi\n      dup1\n      0x6a68772d\n      eq\n      tag_5\n      jumpi\n      dup1\n      0x8664896b\n      eq\n      tag_6\n      jumpi\n    tag_1:\n      0x00\n      dup1\n      revert\n        /* \"FlightReservation.sol\":435:460  uint public saleIteration */\n    tag_2:\n      callvalue\n      dup1\n      iszero\n      tag_13\n      jumpi\n      0x00\n      dup1\n      revert\n    tag_13:\n      pop\n      tag_14\n      tag_15\n      jump\t// in\n    tag_14:\n      mload(0x40)\n      tag_16\n      swap2\n      swap1\n      tag_17\n      jump\t// in\n    tag_16:\n      mload(0x40)\n      dup1\n      swap2\n      sub\n      swap1\n      return\n        /* \"FlightReservation.sol\":2115:2264  function checkReservations(address CustomerAddress) external view returns(bool){... */\n    tag_3:\n      callvalue\n      dup1\n      iszero\n      tag_18\n      jumpi\n      0x00\n      dup1\n      revert\n    tag_18:\n      pop\n      tag_19\n      0x04\n      dup1\n      calldatasize\n      sub\n      dup2\n      add\n      swap1\n      tag_20\n      swap2\n      swap1\n      tag_21\n      jump\t// in\n    tag_20:\n      tag_22\n      jump\t// in\n    tag_19:\n      mload(0x40)\n      tag_23\n      swap2\n      swap1\n      tag_24\n      jump\t// in\n    tag_23:\n      mload(0x40)\n      dup1\n      swap2\n      sub\n      swap1\n      return\n        /* \"FlightReservation.sol\":271:301  address payable public manager */\n    tag_4:\n      callvalue\n      dup1\n      iszero\n      tag_25\n      jumpi\n      0x00\n      dup1\n      revert\n    tag_25:\n      pop\n      tag_26\n      tag_27\n      jump\t// in\n    tag_26:\n      mload(0x40)\n      tag_28\n      swap2\n      swap1\n      tag_29\n      jump\t// in\n    tag_28:\n      mload(0x40)\n      dup1\n      swap2\n      sub\n      swap1\n      return\n        /* \"FlightReservation.sol\":401:428  uint public numReservations */\n    tag_5:\n      callvalue\n      dup1\n      iszero\n      tag_30\n      jumpi\n      0x00\n      dup1\n      revert\n    tag_30:\n      pop\n      tag_31\n      tag_32\n      jump\t// in\n    tag_31:\n      mload(0x40)\n      tag_33\n      swap2\n      swap1\n      tag_17\n      jump\t// in\n    tag_33:\n      mload(0x40)\n      dup1\n      swap2\n      sub\n      swap1\n      return\n        /* \"FlightReservation.sol\":1775:2107  function blockSeats(uint numSeats) external{... */\n    tag_6:\n      callvalue\n      dup1\n      iszero\n      tag_34\n      jumpi\n      0x00\n      dup1\n      revert\n    tag_34:\n      pop\n      tag_35\n      0x04\n      dup1\n      calldatasize\n      sub\n      dup2\n      add\n      swap1\n      tag_36\n      swap2\n      swap1\n      tag_37\n      jump\t// in\n    tag_36:\n      tag_38\n      jump\t// in\n    tag_35:\n      stop\n        /* \"FlightReservation.sol\":689:1434  function bookFlight() payable external {... */\n    tag_7:\n      tag_39\n      tag_40\n      jump\t// in\n    tag_39:\n      stop\n        /* \"FlightReservation.sol\":2272:2484  function transferEarningsToManager() external{... */\n    tag_8:\n      callvalue\n      dup1\n      iszero\n      tag_41\n      jumpi\n      0x00\n      dup1\n      revert\n    tag_41:\n      pop\n      tag_42\n      tag_43\n      jump\t// in\n    tag_42:\n      stop\n        /* \"FlightReservation.sol\":308:330  Listing public flights */\n    tag_9:\n      callvalue\n      dup1\n      iszero\n      tag_44\n      jumpi\n      0x00\n      dup1\n      revert\n    tag_44:\n      pop\n      tag_45\n      tag_46\n      jump\t// in\n    tag_45:\n      mload(0x40)\n      tag_47\n      swap3\n      swap2\n      swap1\n      tag_48\n      jump\t// in\n    tag_47:\n      mload(0x40)\n      dup1\n      swap2\n      sub\n      swap1\n      return\n        /* \"FlightReservation.sol\":337:394  mapping(uint=>mapping(address=>bool)) public reservations */\n    tag_10:\n      callvalue\n      dup1\n      iszero\n      tag_49\n      jumpi\n      0x00\n      dup1\n      revert\n    tag_49:\n      pop\n      tag_50\n      0x04\n      dup1\n      calldatasize\n      sub\n      dup2\n      add\n      swap1\n      tag_51\n      swap2\n      swap1\n      tag_52\n      jump\t// in\n    tag_51:\n      tag_53\n      jump\t// in\n    tag_50:\n      mload(0x40)\n      tag_54\n      swap2\n      swap1\n      tag_24\n      jump\t// in\n    tag_54:\n      mload(0x40)\n      dup1\n      swap2\n      sub\n      swap1\n      return\n        /* \"FlightReservation.sol\":1442:1767  function resetState(uint newPrice, uint newAvailability) external {... */\n    tag_11:\n      callvalue\n      dup1\n      iszero\n      tag_55\n      jumpi\n      0x00\n      dup1\n      revert\n    tag_55:\n      pop\n      tag_56\n      0x04\n      dup1\n      calldatasize\n      sub\n      dup2\n      add\n      swap1\n      tag_57\n      swap2\n      swap1\n      tag_58\n      jump\t// in\n    tag_57:\n      tag_59\n      jump\t// in\n    tag_56:\n      stop\n        /* \"FlightReservation.sol\":435:460  uint public saleIteration */\n    tag_15:\n      sload(0x05)\n      dup2\n      jump\t// out\n        /* \"FlightReservation.sol\":2115:2264  function checkReservations(address CustomerAddress) external view returns(bool){... */\n    tag_22:\n        /* \"FlightReservation.sol\":2189:2193  bool */\n      0x00\n        /* \"FlightReservation.sol\":2212:2224  reservations */\n      0x03\n        /* \"FlightReservation.sol\":2212:2239  reservations[saleIteration] */\n      0x00\n        /* \"FlightReservation.sol\":2225:2238  saleIteration */\n      sload(0x05)\n        /* \"FlightReservation.sol\":2212:2239  reservations[saleIteration] */\n      dup2\n      mstore\n      0x20\n      add\n      swap1\n      dup2\n      mstore\n      0x20\n      add\n      0x00\n      keccak256\n        /* \"FlightReservation.sol\":2212:2256  reservations[saleIteration][CustomerAddress] */\n      0x00\n        /* \"FlightReservation.sol\":2240:2255  CustomerAddress */\n      dup4\n        /* \"FlightReservation.sol\":2212:2256  reservations[saleIteration][CustomerAddress] */\n      0xffffffffffffffffffffffffffffffffffffffff\n      and\n      0xffffffffffffffffffffffffffffffffffffffff\n      and\n      dup2\n      mstore\n      0x20\n      add\n      swap1\n      dup2\n      mstore\n      0x20\n      add\n      0x00\n      keccak256\n      0x00\n      swap1\n      sload\n      swap1\n      0x0100\n      exp\n      swap1\n      div\n      0xff\n      and\n        /* \"FlightReservation.sol\":2205:2256  return reservations[saleIteration][CustomerAddress] */\n      swap1\n      pop\n        /* \"FlightReservation.sol\":2115:2264  function checkReservations(address CustomerAddress) external view returns(bool){... */\n      swap2\n      swap1\n      pop\n      jump\t// out\n        /* \"FlightReservation.sol\":271:301  address payable public manager */\n    tag_27:\n      0x00\n      dup1\n      sload\n      swap1\n      0x0100\n      exp\n      swap1\n      div\n      0xffffffffffffffffffffffffffffffffffffffff\n      and\n      dup2\n      jump\t// out\n        /* \"FlightReservation.sol\":401:428  uint public numReservations */\n    tag_32:\n      sload(0x04)\n      dup2\n      jump\t// out\n        /* \"FlightReservation.sol\":1775:2107  function blockSeats(uint numSeats) external{... */\n    tag_38:\n        /* \"FlightReservation.sol\":1865:1872  manager */\n      0x00\n      dup1\n      sload\n      swap1\n      0x0100\n      exp\n      swap1\n      div\n      0xffffffffffffffffffffffffffffffffffffffff\n      and\n        /* \"FlightReservation.sol\":1851:1872  msg.sender == manager */\n      0xffffffffffffffffffffffffffffffffffffffff\n      and\n        /* \"FlightReservation.sol\":1851:1861  msg.sender */\n      caller\n        /* \"FlightReservation.sol\":1851:1872  msg.sender == manager */\n      0xffffffffffffffffffffffffffffffffffffffff\n      and\n      eq\n        /* \"FlightReservation.sol\":1829:1928  require(... */\n      tag_62\n      jumpi\n      mload(0x40)\n      0x08c379a000000000000000000000000000000000000000000000000000000000\n      dup2\n      mstore\n      0x04\n      add\n      tag_63\n      swap1\n      tag_64\n      jump\t// in\n    tag_63:\n      mload(0x40)\n      dup1\n      swap2\n      sub\n      swap1\n      revert\n    tag_62:\n        /* \"FlightReservation.sol\":1971:1978  flights */\n      0x01\n        /* \"FlightReservation.sol\":1971:1991  flights.availability */\n      0x00\n      add\n      sload\n        /* \"FlightReservation.sol\":1961:1969  numSeats */\n      dup2\n        /* \"FlightReservation.sol\":1961:1991  numSeats<=flights.availability */\n      gt\n      iszero\n        /* \"FlightReservation.sol\":1939:2056  require(... */\n      tag_65\n      jumpi\n      mload(0x40)\n      0x08c379a000000000000000000000000000000000000000000000000000000000\n      dup2\n      mstore\n      0x04\n      add\n      tag_66\n      swap1\n      tag_67\n      jump\t// in\n    tag_66:\n      mload(0x40)\n      dup1\n      swap2\n      sub\n      swap1\n      revert\n    tag_65:\n        /* \"FlightReservation.sol\":2091:2099  numSeats */\n      dup1\n        /* \"FlightReservation.sol\":2067:2074  flights */\n      0x01\n        /* \"FlightReservation.sol\":2067:2087  flights.availability */\n      0x00\n      add\n      0x00\n        /* \"FlightReservation.sol\":2067:2099  flights.availability -= numSeats */\n      dup3\n      dup3\n      sload\n      tag_68\n      swap2\n      swap1\n      tag_69\n      jump\t// in\n    tag_68:\n      swap3\n      pop\n      pop\n      dup2\n      swap1\n      sstore\n      pop\n        /* \"FlightReservation.sol\":1775:2107  function blockSeats(uint numSeats) external{... */\n      pop\n      jump\t// out\n        /* \"FlightReservation.sol\":689:1434  function bookFlight() payable external {... */\n    tag_40:\n        /* \"FlightReservation.sol\":774:781  flights */\n      0x01\n        /* \"FlightReservation.sol\":774:787  flights.price */\n      dup1\n      add\n      sload\n        /* \"FlightReservation.sol\":761:770  msg.value */\n      callvalue\n        /* \"FlightReservation.sol\":761:787  msg.value >= flights.price */\n      lt\n      iszero\n        /* \"FlightReservation.sol\":739:836  require(... */\n      tag_71\n      jumpi\n      mload(0x40)\n      0x08c379a000000000000000000000000000000000000000000000000000000000\n      dup2\n      mstore\n      0x04\n      add\n      tag_72\n      swap1\n      tag_73\n      jump\t// in\n    tag_72:\n      mload(0x40)\n      dup1\n      swap2\n      sub\n      swap1\n      revert\n    tag_71:\n        /* \"FlightReservation.sol\":890:891  0 */\n      0x00\n        /* \"FlightReservation.sol\":869:876  flights */\n      0x01\n        /* \"FlightReservation.sol\":869:889  flights.availability */\n      0x00\n      add\n      sload\n        /* \"FlightReservation.sol\":869:891  flights.availability>0 */\n      gt\n        /* \"FlightReservation.sol\":847:944  require(... */\n      tag_74\n      jumpi\n      mload(0x40)\n      0x08c379a000000000000000000000000000000000000000000000000000000000\n      dup2\n      mstore\n      0x04\n      add\n      tag_75\n      swap1\n      tag_76\n      jump\t// in\n    tag_75:\n      mload(0x40)\n      dup1\n      swap2\n      sub\n      swap1\n      revert\n    tag_74:\n        /* \"FlightReservation.sol\":955:966  uint refund */\n      0x00\n        /* \"FlightReservation.sol\":1026:1031  false */\n      dup1\n        /* \"FlightReservation.sol\":984:1031  reservations[saleIteration][tx.origin] == false */\n      iszero\n      iszero\n        /* \"FlightReservation.sol\":984:996  reservations */\n      0x03\n        /* \"FlightReservation.sol\":984:1011  reservations[saleIteration] */\n      0x00\n        /* \"FlightReservation.sol\":997:1010  saleIteration */\n      sload(0x05)\n        /* \"FlightReservation.sol\":984:1011  reservations[saleIteration] */\n      dup2\n      mstore\n      0x20\n      add\n      swap1\n      dup2\n      mstore\n      0x20\n      add\n      0x00\n      keccak256\n        /* \"FlightReservation.sol\":984:1022  reservations[saleIteration][tx.origin] */\n      0x00\n        /* \"FlightReservation.sol\":1012:1021  tx.origin */\n      origin\n        /* \"FlightReservation.sol\":984:1022  reservations[saleIteration][tx.origin] */\n      0xffffffffffffffffffffffffffffffffffffffff\n      and\n      0xffffffffffffffffffffffffffffffffffffffff\n      and\n      dup2\n      mstore\n      0x20\n      add\n      swap1\n      dup2\n      mstore\n      0x20\n      add\n      0x00\n      keccak256\n      0x00\n      swap1\n      sload\n      swap1\n      0x0100\n      exp\n      swap1\n      div\n      0xff\n      and\n        /* \"FlightReservation.sol\":984:1031  reservations[saleIteration][tx.origin] == false */\n      iszero\n      iszero\n      sub\n        /* \"FlightReservation.sol\":981:1285  if(reservations[saleIteration][tx.origin] == false){... */\n      tag_77\n      jumpi\n        /* \"FlightReservation.sol\":1088:1092  true */\n      0x01\n        /* \"FlightReservation.sol\":1047:1059  reservations */\n      0x03\n        /* \"FlightReservation.sol\":1047:1074  reservations[saleIteration] */\n      0x00\n        /* \"FlightReservation.sol\":1060:1073  saleIteration */\n      sload(0x05)\n        /* \"FlightReservation.sol\":1047:1074  reservations[saleIteration] */\n      dup2\n      mstore\n      0x20\n      add\n      swap1\n      dup2\n      mstore\n      0x20\n      add\n      0x00\n      keccak256\n        /* \"FlightReservation.sol\":1047:1085  reservations[saleIteration][tx.origin] */\n      0x00\n        /* \"FlightReservation.sol\":1075:1084  tx.origin */\n      origin\n        /* \"FlightReservation.sol\":1047:1085  reservations[saleIteration][tx.origin] */\n      0xffffffffffffffffffffffffffffffffffffffff\n      and\n      0xffffffffffffffffffffffffffffffffffffffff\n      and\n      dup2\n      mstore\n      0x20\n      add\n      swap1\n      dup2\n      mstore\n      0x20\n      add\n      0x00\n      keccak256\n      0x00\n        /* \"FlightReservation.sol\":1047:1092  reservations[saleIteration][tx.origin] = true */\n      0x0100\n      exp\n      dup2\n      sload\n      dup2\n      0xff\n      mul\n      not\n      and\n      swap1\n      dup4\n      iszero\n      iszero\n      mul\n      or\n      swap1\n      sstore\n      pop\n        /* \"FlightReservation.sol\":1124:1125  1 */\n      0x01\n        /* \"FlightReservation.sol\":1107:1122  numReservations */\n      0x04\n      0x00\n        /* \"FlightReservation.sol\":1107:1125  numReservations+=1 */\n      dup3\n      dup3\n      sload\n      tag_78\n      swap2\n      swap1\n      tag_79\n      jump\t// in\n    tag_78:\n      swap3\n      pop\n      pop\n      dup2\n      swap1\n      sstore\n      pop\n        /* \"FlightReservation.sol\":1164:1165  1 */\n      0x01\n        /* \"FlightReservation.sol\":1140:1147  flights */\n      dup1\n        /* \"FlightReservation.sol\":1140:1160  flights.availability */\n      0x00\n      add\n      0x00\n        /* \"FlightReservation.sol\":1140:1165  flights.availability -= 1 */\n      dup3\n      dup3\n      sload\n      tag_80\n      swap2\n      swap1\n      tag_69\n      jump\t// in\n    tag_80:\n      swap3\n      pop\n      pop\n      dup2\n      swap1\n      sstore\n      pop\n        /* \"FlightReservation.sol\":1201:1208  flights */\n      0x01\n        /* \"FlightReservation.sol\":1201:1214  flights.price */\n      dup1\n      add\n      sload\n        /* \"FlightReservation.sol\":1189:1198  msg.value */\n      callvalue\n        /* \"FlightReservation.sol\":1189:1214  msg.value - flights.price */\n      tag_81\n      swap2\n      swap1\n      tag_69\n      jump\t// in\n    tag_81:\n        /* \"FlightReservation.sol\":1180:1214  refund = msg.value - flights.price */\n      swap1\n      pop\n        /* \"FlightReservation.sol\":981:1285  if(reservations[saleIteration][tx.origin] == false){... */\n      jump(tag_82)\n    tag_77:\n        /* \"FlightReservation.sol\":1264:1273  msg.value */\n      callvalue\n        /* \"FlightReservation.sol\":1255:1273  refund = msg.value */\n      swap1\n      pop\n        /* \"FlightReservation.sol\":981:1285  if(reservations[saleIteration][tx.origin] == false){... */\n    tag_82:\n        /* \"FlightReservation.sol\":1295:1324  address payable refundAddress */\n      0x00\n        /* \"FlightReservation.sol\":1335:1344  tx.origin */\n      origin\n        /* \"FlightReservation.sol\":1295:1345  address payable refundAddress = payable(tx.origin) */\n      swap1\n      pop\n        /* \"FlightReservation.sol\":1367:1368  0 */\n      0x00\n        /* \"FlightReservation.sol\":1360:1366  refund */\n      dup3\n        /* \"FlightReservation.sol\":1360:1368  refund>0 */\n      gt\n        /* \"FlightReservation.sol\":1356:1427  if (refund>0) {... */\n      iszero\n      tag_83\n      jumpi\n        /* \"FlightReservation.sol\":1385:1398  refundAddress */\n      dup1\n        /* \"FlightReservation.sol\":1385:1407  refundAddress.transfer */\n      0xffffffffffffffffffffffffffffffffffffffff\n      and\n        /* \"FlightReservation.sol\":1385:1415  refundAddress.transfer(refund) */\n      0x08fc\n        /* \"FlightReservation.sol\":1408:1414  refund */\n      dup4\n        /* \"FlightReservation.sol\":1385:1415  refundAddress.transfer(refund) */\n      swap1\n      dup2\n      iszero\n      mul\n      swap1\n      mload(0x40)\n      0x00\n      mload(0x40)\n      dup1\n      dup4\n      sub\n      dup2\n      dup6\n      dup9\n      dup9\n      call\n      swap4\n      pop\n      pop\n      pop\n      pop\n      iszero\n      dup1\n      iszero\n      tag_85\n      jumpi\n      returndatasize\n      0x00\n      dup1\n      returndatacopy\n      revert(0x00, returndatasize)\n    tag_85:\n      pop\n        /* \"FlightReservation.sol\":1356:1427  if (refund>0) {... */\n    tag_83:\n        /* \"FlightReservation.sol\":728:1434  {... */\n      pop\n      pop\n        /* \"FlightReservation.sol\":689:1434  function bookFlight() payable external {... */\n      jump\t// out\n        /* \"FlightReservation.sol\":2272:2484  function transferEarningsToManager() external{... */\n    tag_43:\n        /* \"FlightReservation.sol\":2363:2370  manager */\n      0x00\n      dup1\n      sload\n      swap1\n      0x0100\n      exp\n      swap1\n      div\n      0xffffffffffffffffffffffffffffffffffffffff\n      and\n        /* \"FlightReservation.sol\":2349:2370  msg.sender == manager */\n      0xffffffffffffffffffffffffffffffffffffffff\n      and\n        /* \"FlightReservation.sol\":2349:2359  msg.sender */\n      caller\n        /* \"FlightReservation.sol\":2349:2370  msg.sender == manager */\n      0xffffffffffffffffffffffffffffffffffffffff\n      and\n      eq\n        /* \"FlightReservation.sol\":2327:2426  require(... */\n      tag_87\n      jumpi\n      mload(0x40)\n      0x08c379a000000000000000000000000000000000000000000000000000000000\n      dup2\n      mstore\n      0x04\n      add\n      tag_88\n      swap1\n      tag_64\n      jump\t// in\n    tag_88:\n      mload(0x40)\n      dup1\n      swap2\n      sub\n      swap1\n      revert\n    tag_87:\n        /* \"FlightReservation.sol\":2437:2444  manager */\n      0x00\n      dup1\n      sload\n      swap1\n      0x0100\n      exp\n      swap1\n      div\n      0xffffffffffffffffffffffffffffffffffffffff\n      and\n        /* \"FlightReservation.sol\":2437:2453  manager.transfer */\n      0xffffffffffffffffffffffffffffffffffffffff\n      and\n        /* \"FlightReservation.sol\":2437:2476  manager.transfer(address(this).balance) */\n      0x08fc\n        /* \"FlightReservation.sol\":2454:2475  address(this).balance */\n      selfbalance\n        /* \"FlightReservation.sol\":2437:2476  manager.transfer(address(this).balance) */\n      swap1\n      dup2\n      iszero\n      mul\n      swap1\n      mload(0x40)\n      0x00\n      mload(0x40)\n      dup1\n      dup4\n      sub\n      dup2\n      dup6\n      dup9\n      dup9\n      call\n      swap4\n      pop\n      pop\n      pop\n      pop\n      iszero\n      dup1\n      iszero\n      tag_90\n      jumpi\n      returndatasize\n      0x00\n      dup1\n      returndatacopy\n      revert(0x00, returndatasize)\n    tag_90:\n      pop\n        /* \"FlightReservation.sol\":2272:2484  function transferEarningsToManager() external{... */\n      jump\t// out\n        /* \"FlightReservation.sol\":308:330  Listing public flights */\n    tag_46:\n      0x01\n      dup1\n      0x00\n      add\n      sload\n      swap1\n      dup1\n      0x01\n      add\n      sload\n      swap1\n      pop\n      dup3\n      jump\t// out\n        /* \"FlightReservation.sol\":337:394  mapping(uint=>mapping(address=>bool)) public reservations */\n    tag_53:\n      mstore(0x20, 0x03)\n      dup2\n      0x00\n      mstore\n      mstore(0x20, keccak256(0x00, 0x40))\n      dup1\n      0x00\n      mstore\n      keccak256(0x00, 0x40)\n      0x00\n      swap2\n      pop\n      swap2\n      pop\n      swap1\n      sload\n      swap1\n      0x0100\n      exp\n      swap1\n      div\n      0xff\n      and\n      dup2\n      jump\t// out\n        /* \"FlightReservation.sol\":1442:1767  function resetState(uint newPrice, uint newAvailability) external {... */\n    tag_59:\n        /* \"FlightReservation.sol\":1555:1562  manager */\n      0x00\n      dup1\n      sload\n      swap1\n      0x0100\n      exp\n      swap1\n      div\n      0xffffffffffffffffffffffffffffffffffffffff\n      and\n        /* \"FlightReservation.sol\":1541:1562  msg.sender == manager */\n      0xffffffffffffffffffffffffffffffffffffffff\n      and\n        /* \"FlightReservation.sol\":1541:1551  msg.sender */\n      caller\n        /* \"FlightReservation.sol\":1541:1562  msg.sender == manager */\n      0xffffffffffffffffffffffffffffffffffffffff\n      and\n      eq\n        /* \"FlightReservation.sol\":1519:1618  require(... */\n      tag_92\n      jumpi\n      mload(0x40)\n      0x08c379a000000000000000000000000000000000000000000000000000000000\n      dup2\n      mstore\n      0x04\n      add\n      tag_93\n      swap1\n      tag_64\n      jump\t// in\n    tag_93:\n      mload(0x40)\n      dup1\n      swap2\n      sub\n      swap1\n      revert\n    tag_92:\n        /* \"FlightReservation.sol\":1645:1653  newPrice */\n      dup2\n        /* \"FlightReservation.sol\":1629:1636  flights */\n      0x01\n        /* \"FlightReservation.sol\":1629:1642  flights.price */\n      dup1\n      add\n        /* \"FlightReservation.sol\":1629:1653  flights.price = newPrice */\n      dup2\n      swap1\n      sstore\n      pop\n        /* \"FlightReservation.sol\":1687:1702  newAvailability */\n      dup1\n        /* \"FlightReservation.sol\":1664:1671  flights */\n      0x01\n        /* \"FlightReservation.sol\":1664:1684  flights.availability */\n      0x00\n      add\n        /* \"FlightReservation.sol\":1664:1702  flights.availability = newAvailability */\n      dup2\n      swap1\n      sstore\n      pop\n        /* \"FlightReservation.sol\":1731:1732  0 */\n      0x00\n        /* \"FlightReservation.sol\":1713:1728  numReservations */\n      0x04\n        /* \"FlightReservation.sol\":1713:1732  numReservations = 0 */\n      dup2\n      swap1\n      sstore\n      pop\n        /* \"FlightReservation.sol\":1758:1759  1 */\n      0x01\n        /* \"FlightReservation.sol\":1743:1756  saleIteration */\n      0x05\n      0x00\n        /* \"FlightReservation.sol\":1743:1759  saleIteration+=1 */\n      dup3\n      dup3\n      sload\n      tag_94\n      swap2\n      swap1\n      tag_79\n      jump\t// in\n    tag_94:\n      swap3\n      pop\n      pop\n      dup2\n      swap1\n      sstore\n      pop\n        /* \"FlightReservation.sol\":1442:1767  function resetState(uint newPrice, uint newAvailability) external {... */\n      pop\n      pop\n      jump\t// out\n        /* \"#utility.yul\":7:84   */\n    tag_95:\n        /* \"#utility.yul\":44:51   */\n      0x00\n        /* \"#utility.yul\":73:78   */\n      dup2\n        /* \"#utility.yul\":62:78   */\n      swap1\n      pop\n        /* \"#utility.yul\":7:84   */\n      swap2\n      swap1\n      pop\n      jump\t// out\n        /* \"#utility.yul\":90:208   */\n    tag_96:\n        /* \"#utility.yul\":177:201   */\n      tag_123\n        /* \"#utility.yul\":195:200   */\n      dup2\n        /* \"#utility.yul\":177:201   */\n      tag_95\n      jump\t// in\n    tag_123:\n        /* \"#utility.yul\":172:175   */\n      dup3\n        /* \"#utility.yul\":165:202   */\n      mstore\n        /* \"#utility.yul\":90:208   */\n      pop\n      pop\n      jump\t// out\n        /* \"#utility.yul\":214:436   */\n    tag_17:\n        /* \"#utility.yul\":307:311   */\n      0x00\n        /* \"#utility.yul\":345:347   */\n      0x20\n        /* \"#utility.yul\":334:343   */\n      dup3\n        /* \"#utility.yul\":330:348   */\n      add\n        /* \"#utility.yul\":322:348   */\n      swap1\n      pop\n        /* \"#utility.yul\":358:429   */\n      tag_125\n        /* \"#utility.yul\":426:427   */\n      0x00\n        /* \"#utility.yul\":415:424   */\n      dup4\n        /* \"#utility.yul\":411:428   */\n      add\n        /* \"#utility.yul\":402:408   */\n      dup5\n        /* \"#utility.yul\":358:429   */\n      tag_96\n      jump\t// in\n    tag_125:\n        /* \"#utility.yul\":214:436   */\n      swap3\n      swap2\n      pop\n      pop\n      jump\t// out\n        /* \"#utility.yul\":523:640   */\n    tag_98:\n        /* \"#utility.yul\":632:633   */\n      0x00\n        /* \"#utility.yul\":629:630   */\n      dup1\n        /* \"#utility.yul\":622:634   */\n      revert\n        /* \"#utility.yul\":769:895   */\n    tag_100:\n        /* \"#utility.yul\":806:813   */\n      0x00\n        /* \"#utility.yul\":846:888   */\n      0xffffffffffffffffffffffffffffffffffffffff\n        /* \"#utility.yul\":839:844   */\n      dup3\n        /* \"#utility.yul\":835:889   */\n      and\n        /* \"#utility.yul\":824:889   */\n      swap1\n      pop\n        /* \"#utility.yul\":769:895   */\n      swap2\n      swap1\n      pop\n      jump\t// out\n        /* \"#utility.yul\":901:997   */\n    tag_101:\n        /* \"#utility.yul\":938:945   */\n      0x00\n        /* \"#utility.yul\":967:991   */\n      tag_131\n        /* \"#utility.yul\":985:990   */\n      dup3\n        /* \"#utility.yul\":967:991   */\n      tag_100\n      jump\t// in\n    tag_131:\n        /* \"#utility.yul\":956:991   */\n      swap1\n      pop\n        /* \"#utility.yul\":901:997   */\n      swap2\n      swap1\n      pop\n      jump\t// out\n        /* \"#utility.yul\":1003:1125   */\n    tag_102:\n        /* \"#utility.yul\":1076:1100   */\n      tag_133\n        /* \"#utility.yul\":1094:1099   */\n      dup2\n        /* \"#utility.yul\":1076:1100   */\n      tag_101\n      jump\t// in\n    tag_133:\n        /* \"#utility.yul\":1069:1074   */\n      dup2\n        /* \"#utility.yul\":1066:1101   */\n      eq\n        /* \"#utility.yul\":1056:1119   */\n      tag_134\n      jumpi\n        /* \"#utility.yul\":1115:1116   */\n      0x00\n        /* \"#utility.yul\":1112:1113   */\n      dup1\n        /* \"#utility.yul\":1105:1117   */\n      revert\n        /* \"#utility.yul\":1056:1119   */\n    tag_134:\n        /* \"#utility.yul\":1003:1125   */\n      pop\n      jump\t// out\n        /* \"#utility.yul\":1131:1270   */\n    tag_103:\n        /* \"#utility.yul\":1177:1182   */\n      0x00\n        /* \"#utility.yul\":1215:1221   */\n      dup2\n        /* \"#utility.yul\":1202:1222   */\n      calldataload\n        /* \"#utility.yul\":1193:1222   */\n      swap1\n      pop\n        /* \"#utility.yul\":1231:1264   */\n      tag_136\n        /* \"#utility.yul\":1258:1263   */\n      dup2\n        /* \"#utility.yul\":1231:1264   */\n      tag_102\n      jump\t// in\n    tag_136:\n        /* \"#utility.yul\":1131:1270   */\n      swap3\n      swap2\n      pop\n      pop\n      jump\t// out\n        /* \"#utility.yul\":1276:1605   */\n    tag_21:\n        /* \"#utility.yul\":1335:1341   */\n      0x00\n        /* \"#utility.yul\":1384:1386   */\n      0x20\n        /* \"#utility.yul\":1372:1381   */\n      dup3\n        /* \"#utility.yul\":1363:1370   */\n      dup5\n        /* \"#utility.yul\":1359:1382   */\n      sub\n        /* \"#utility.yul\":1355:1387   */\n      slt\n        /* \"#utility.yul\":1352:1471   */\n      iszero\n      tag_138\n      jumpi\n        /* \"#utility.yul\":1390:1469   */\n      tag_139\n      tag_98\n      jump\t// in\n    tag_139:\n        /* \"#utility.yul\":1352:1471   */\n    tag_138:\n        /* \"#utility.yul\":1510:1511   */\n      0x00\n        /* \"#utility.yul\":1535:1588   */\n      tag_140\n        /* \"#utility.yul\":1580:1587   */\n      dup5\n        /* \"#utility.yul\":1571:1577   */\n      dup3\n        /* \"#utility.yul\":1560:1569   */\n      dup6\n        /* \"#utility.yul\":1556:1578   */\n      add\n        /* \"#utility.yul\":1535:1588   */\n      tag_103\n      jump\t// in\n    tag_140:\n        /* \"#utility.yul\":1525:1588   */\n      swap2\n      pop\n        /* \"#utility.yul\":1481:1598   */\n      pop\n        /* \"#utility.yul\":1276:1605   */\n      swap3\n      swap2\n      pop\n      pop\n      jump\t// out\n        /* \"#utility.yul\":1611:1701   */\n    tag_104:\n        /* \"#utility.yul\":1645:1652   */\n      0x00\n        /* \"#utility.yul\":1688:1693   */\n      dup2\n        /* \"#utility.yul\":1681:1694   */\n      iszero\n        /* \"#utility.yul\":1674:1695   */\n      iszero\n        /* \"#utility.yul\":1663:1695   */\n      swap1\n      pop\n        /* \"#utility.yul\":1611:1701   */\n      swap2\n      swap1\n      pop\n      jump\t// out\n        /* \"#utility.yul\":1707:1816   */\n    tag_105:\n        /* \"#utility.yul\":1788:1809   */\n      tag_143\n        /* \"#utility.yul\":1803:1808   */\n      dup2\n        /* \"#utility.yul\":1788:1809   */\n      tag_104\n      jump\t// in\n    tag_143:\n        /* \"#utility.yul\":1783:1786   */\n      dup3\n        /* \"#utility.yul\":1776:1810   */\n      mstore\n        /* \"#utility.yul\":1707:1816   */\n      pop\n      pop\n      jump\t// out\n        /* \"#utility.yul\":1822:2032   */\n    tag_24:\n        /* \"#utility.yul\":1909:1913   */\n      0x00\n        /* \"#utility.yul\":1947:1949   */\n      0x20\n        /* \"#utility.yul\":1936:1945   */\n      dup3\n        /* \"#utility.yul\":1932:1950   */\n      add\n        /* \"#utility.yul\":1924:1950   */\n      swap1\n      pop\n        /* \"#utility.yul\":1960:2025   */\n      tag_145\n        /* \"#utility.yul\":2022:2023   */\n      0x00\n        /* \"#utility.yul\":2011:2020   */\n      dup4\n        /* \"#utility.yul\":2007:2024   */\n      add\n        /* \"#utility.yul\":1998:2004   */\n      dup5\n        /* \"#utility.yul\":1960:2025   */\n      tag_105\n      jump\t// in\n    tag_145:\n        /* \"#utility.yul\":1822:2032   */\n      swap3\n      swap2\n      pop\n      pop\n      jump\t// out\n        /* \"#utility.yul\":2038:2142   */\n    tag_106:\n        /* \"#utility.yul\":2083:2090   */\n      0x00\n        /* \"#utility.yul\":2112:2136   */\n      tag_147\n        /* \"#utility.yul\":2130:2135   */\n      dup3\n        /* \"#utility.yul\":2112:2136   */\n      tag_100\n      jump\t// in\n    tag_147:\n        /* \"#utility.yul\":2101:2136   */\n      swap1\n      pop\n        /* \"#utility.yul\":2038:2142   */\n      swap2\n      swap1\n      pop\n      jump\t// out\n        /* \"#utility.yul\":2148:2290   */\n    tag_107:\n        /* \"#utility.yul\":2251:2283   */\n      tag_149\n        /* \"#utility.yul\":2277:2282   */\n      dup2\n        /* \"#utility.yul\":2251:2283   */\n      tag_106\n      jump\t// in\n    tag_149:\n        /* \"#utility.yul\":2246:2249   */\n      dup3\n        /* \"#utility.yul\":2239:2284   */\n      mstore\n        /* \"#utility.yul\":2148:2290   */\n      pop\n      pop\n      jump\t// out\n        /* \"#utility.yul\":2296:2550   */\n    tag_29:\n        /* \"#utility.yul\":2405:2409   */\n      0x00\n        /* \"#utility.yul\":2443:2445   */\n      0x20\n        /* \"#utility.yul\":2432:2441   */\n      dup3\n        /* \"#utility.yul\":2428:2446   */\n      add\n        /* \"#utility.yul\":2420:2446   */\n      swap1\n      pop\n        /* \"#utility.yul\":2456:2543   */\n      tag_151\n        /* \"#utility.yul\":2540:2541   */\n      0x00\n        /* \"#utility.yul\":2529:2538   */\n      dup4\n        /* \"#utility.yul\":2525:2542   */\n      add\n        /* \"#utility.yul\":2516:2522   */\n      dup5\n        /* \"#utility.yul\":2456:2543   */\n      tag_107\n      jump\t// in\n    tag_151:\n        /* \"#utility.yul\":2296:2550   */\n      swap3\n      swap2\n      pop\n      pop\n      jump\t// out\n        /* \"#utility.yul\":2556:2678   */\n    tag_108:\n        /* \"#utility.yul\":2629:2653   */\n      tag_153\n        /* \"#utility.yul\":2647:2652   */\n      dup2\n        /* \"#utility.yul\":2629:2653   */\n      tag_95\n      jump\t// in\n    tag_153:\n        /* \"#utility.yul\":2622:2627   */\n      dup2\n        /* \"#utility.yul\":2619:2654   */\n      eq\n        /* \"#utility.yul\":2609:2672   */\n      tag_154\n      jumpi\n        /* \"#utility.yul\":2668:2669   */\n      0x00\n        /* \"#utility.yul\":2665:2666   */\n      dup1\n        /* \"#utility.yul\":2658:2670   */\n      revert\n        /* \"#utility.yul\":2609:2672   */\n    tag_154:\n        /* \"#utility.yul\":2556:2678   */\n      pop\n      jump\t// out\n        /* \"#utility.yul\":2684:2823   */\n    tag_109:\n        /* \"#utility.yul\":2730:2735   */\n      0x00\n        /* \"#utility.yul\":2768:2774   */\n      dup2\n        /* \"#utility.yul\":2755:2775   */\n      calldataload\n        /* \"#utility.yul\":2746:2775   */\n      swap1\n      pop\n        /* \"#utility.yul\":2784:2817   */\n      tag_156\n        /* \"#utility.yul\":2811:2816   */\n      dup2\n        /* \"#utility.yul\":2784:2817   */\n      tag_108\n      jump\t// in\n    tag_156:\n        /* \"#utility.yul\":2684:2823   */\n      swap3\n      swap2\n      pop\n      pop\n      jump\t// out\n        /* \"#utility.yul\":2829:3158   */\n    tag_37:\n        /* \"#utility.yul\":2888:2894   */\n      0x00\n        /* \"#utility.yul\":2937:2939   */\n      0x20\n        /* \"#utility.yul\":2925:2934   */\n      dup3\n        /* \"#utility.yul\":2916:2923   */\n      dup5\n        /* \"#utility.yul\":2912:2935   */\n      sub\n        /* \"#utility.yul\":2908:2940   */\n      slt\n        /* \"#utility.yul\":2905:3024   */\n      iszero\n      tag_158\n      jumpi\n        /* \"#utility.yul\":2943:3022   */\n      tag_159\n      tag_98\n      jump\t// in\n    tag_159:\n        /* \"#utility.yul\":2905:3024   */\n    tag_158:\n        /* \"#utility.yul\":3063:3064   */\n      0x00\n        /* \"#utility.yul\":3088:3141   */\n      tag_160\n        /* \"#utility.yul\":3133:3140   */\n      dup5\n        /* \"#utility.yul\":3124:3130   */\n      dup3\n        /* \"#utility.yul\":3113:3122   */\n      dup6\n        /* \"#utility.yul\":3109:3131   */\n      add\n        /* \"#utility.yul\":3088:3141   */\n      tag_109\n      jump\t// in\n    tag_160:\n        /* \"#utility.yul\":3078:3141   */\n      swap2\n      pop\n        /* \"#utility.yul\":3034:3151   */\n      pop\n        /* \"#utility.yul\":2829:3158   */\n      swap3\n      swap2\n      pop\n      pop\n      jump\t// out\n        /* \"#utility.yul\":3164:3496   */\n    tag_48:\n        /* \"#utility.yul\":3285:3289   */\n      0x00\n        /* \"#utility.yul\":3323:3325   */\n      0x40\n        /* \"#utility.yul\":3312:3321   */\n      dup3\n        /* \"#utility.yul\":3308:3326   */\n      add\n        /* \"#utility.yul\":3300:3326   */\n      swap1\n      pop\n        /* \"#utility.yul\":3336:3407   */\n      tag_162\n        /* \"#utility.yul\":3404:3405   */\n      0x00\n        /* \"#utility.yul\":3393:3402   */\n      dup4\n        /* \"#utility.yul\":3389:3406   */\n      add\n        /* \"#utility.yul\":3380:3386   */\n      dup6\n        /* \"#utility.yul\":3336:3407   */\n      tag_96\n      jump\t// in\n    tag_162:\n        /* \"#utility.yul\":3417:3489   */\n      tag_163\n        /* \"#utility.yul\":3485:3487   */\n      0x20\n        /* \"#utility.yul\":3474:3483   */\n      dup4\n        /* \"#utility.yul\":3470:3488   */\n      add\n        /* \"#utility.yul\":3461:3467   */\n      dup5\n        /* \"#utility.yul\":3417:3489   */\n      tag_96\n      jump\t// in\n    tag_163:\n        /* \"#utility.yul\":3164:3496   */\n      swap4\n      swap3\n      pop\n      pop\n      pop\n      jump\t// out\n        /* \"#utility.yul\":3502:3976   */\n    tag_52:\n        /* \"#utility.yul\":3570:3576   */\n      0x00\n        /* \"#utility.yul\":3578:3584   */\n      dup1\n        /* \"#utility.yul\":3627:3629   */\n      0x40\n        /* \"#utility.yul\":3615:3624   */\n      dup4\n        /* \"#utility.yul\":3606:3613   */\n      dup6\n        /* \"#utility.yul\":3602:3625   */\n      sub\n        /* \"#utility.yul\":3598:3630   */\n      slt\n        /* \"#utility.yul\":3595:3714   */\n      iszero\n      tag_165\n      jumpi\n        /* \"#utility.yul\":3633:3712   */\n      tag_166\n      tag_98\n      jump\t// in\n    tag_166:\n        /* \"#utility.yul\":3595:3714   */\n    tag_165:\n        /* \"#utility.yul\":3753:3754   */\n      0x00\n        /* \"#utility.yul\":3778:3831   */\n      tag_167\n        /* \"#utility.yul\":3823:3830   */\n      dup6\n        /* \"#utility.yul\":3814:3820   */\n      dup3\n        /* \"#utility.yul\":3803:3812   */\n      dup7\n        /* \"#utility.yul\":3799:3821   */\n      add\n        /* \"#utility.yul\":3778:3831   */\n      tag_109\n      jump\t// in\n    tag_167:\n        /* \"#utility.yul\":3768:3831   */\n      swap3\n      pop\n        /* \"#utility.yul\":3724:3841   */\n      pop\n        /* \"#utility.yul\":3880:3882   */\n      0x20\n        /* \"#utility.yul\":3906:3959   */\n      tag_168\n        /* \"#utility.yul\":3951:3958   */\n      dup6\n        /* \"#utility.yul\":3942:3948   */\n      dup3\n        /* \"#utility.yul\":3931:3940   */\n      dup7\n        /* \"#utility.yul\":3927:3949   */\n      add\n        /* \"#utility.yul\":3906:3959   */\n      tag_103\n      jump\t// in\n    tag_168:\n        /* \"#utility.yul\":3896:3959   */\n      swap2\n      pop\n        /* \"#utility.yul\":3851:3969   */\n      pop\n        /* \"#utility.yul\":3502:3976   */\n      swap3\n      pop\n      swap3\n      swap1\n      pop\n      jump\t// out\n        /* \"#utility.yul\":3982:4456   */\n    tag_58:\n        /* \"#utility.yul\":4050:4056   */\n      0x00\n        /* \"#utility.yul\":4058:4064   */\n      dup1\n        /* \"#utility.yul\":4107:4109   */\n      0x40\n        /* \"#utility.yul\":4095:4104   */\n      dup4\n        /* \"#utility.yul\":4086:4093   */\n      dup6\n        /* \"#utility.yul\":4082:4105   */\n      sub\n        /* \"#utility.yul\":4078:4110   */\n      slt\n        /* \"#utility.yul\":4075:4194   */\n      iszero\n      tag_170\n      jumpi\n        /* \"#utility.yul\":4113:4192   */\n      tag_171\n      tag_98\n      jump\t// in\n    tag_171:\n        /* \"#utility.yul\":4075:4194   */\n    tag_170:\n        /* \"#utility.yul\":4233:4234   */\n      0x00\n        /* \"#utility.yul\":4258:4311   */\n      tag_172\n        /* \"#utility.yul\":4303:4310   */\n      dup6\n        /* \"#utility.yul\":4294:4300   */\n      dup3\n        /* \"#utility.yul\":4283:4292   */\n      dup7\n        /* \"#utility.yul\":4279:4301   */\n      add\n        /* \"#utility.yul\":4258:4311   */\n      tag_109\n      jump\t// in\n    tag_172:\n        /* \"#utility.yul\":4248:4311   */\n      swap3\n      pop\n        /* \"#utility.yul\":4204:4321   */\n      pop\n        /* \"#utility.yul\":4360:4362   */\n      0x20\n        /* \"#utility.yul\":4386:4439   */\n      tag_173\n        /* \"#utility.yul\":4431:4438   */\n      dup6\n        /* \"#utility.yul\":4422:4428   */\n      dup3\n        /* \"#utility.yul\":4411:4420   */\n      dup7\n        /* \"#utility.yul\":4407:4429   */\n      add\n        /* \"#utility.yul\":4386:4439   */\n      tag_109\n      jump\t// in\n    tag_173:\n        /* \"#utility.yul\":4376:4439   */\n      swap2\n      pop\n        /* \"#utility.yul\":4331:4449   */\n      pop\n        /* \"#utility.yul\":3982:4456   */\n      swap3\n      pop\n      swap3\n      swap1\n      pop\n      jump\t// out\n        /* \"#utility.yul\":4462:4631   */\n    tag_110:\n        /* \"#utility.yul\":4546:4557   */\n      0x00\n        /* \"#utility.yul\":4580:4586   */\n      dup3\n        /* \"#utility.yul\":4575:4578   */\n      dup3\n        /* \"#utility.yul\":4568:4587   */\n      mstore\n        /* \"#utility.yul\":4620:4624   */\n      0x20\n        /* \"#utility.yul\":4615:4618   */\n      dup3\n        /* \"#utility.yul\":4611:4625   */\n      add\n        /* \"#utility.yul\":4596:4625   */\n      swap1\n      pop\n        /* \"#utility.yul\":4462:4631   */\n      swap3\n      swap2\n      pop\n      pop\n      jump\t// out\n        /* \"#utility.yul\":4637:4815   */\n    tag_111:\n        /* \"#utility.yul\":4777:4807   */\n      0x4f6e6c79206d616e616765722063616e20726573657420737461746500000000\n        /* \"#utility.yul\":4773:4774   */\n      0x00\n        /* \"#utility.yul\":4765:4771   */\n      dup3\n        /* \"#utility.yul\":4761:4775   */\n      add\n        /* \"#utility.yul\":4754:4808   */\n      mstore\n        /* \"#utility.yul\":4637:4815   */\n      pop\n      jump\t// out\n        /* \"#utility.yul\":4821:5187   */\n    tag_112:\n        /* \"#utility.yul\":4963:4966   */\n      0x00\n        /* \"#utility.yul\":4984:5051   */\n      tag_177\n        /* \"#utility.yul\":5048:5050   */\n      0x1c\n        /* \"#utility.yul\":5043:5046   */\n      dup4\n        /* \"#utility.yul\":4984:5051   */\n      tag_110\n      jump\t// in\n    tag_177:\n        /* \"#utility.yul\":4977:5051   */\n      swap2\n      pop\n        /* \"#utility.yul\":5060:5153   */\n      tag_178\n        /* \"#utility.yul\":5149:5152   */\n      dup3\n        /* \"#utility.yul\":5060:5153   */\n      tag_111\n      jump\t// in\n    tag_178:\n        /* \"#utility.yul\":5178:5180   */\n      0x20\n        /* \"#utility.yul\":5173:5176   */\n      dup3\n        /* \"#utility.yul\":5169:5181   */\n      add\n        /* \"#utility.yul\":5162:5181   */\n      swap1\n      pop\n        /* \"#utility.yul\":4821:5187   */\n      swap2\n      swap1\n      pop\n      jump\t// out\n        /* \"#utility.yul\":5193:5612   */\n    tag_64:\n        /* \"#utility.yul\":5359:5363   */\n      0x00\n        /* \"#utility.yul\":5397:5399   */\n      0x20\n        /* \"#utility.yul\":5386:5395   */\n      dup3\n        /* \"#utility.yul\":5382:5400   */\n      add\n        /* \"#utility.yul\":5374:5400   */\n      swap1\n      pop\n        /* \"#utility.yul\":5446:5455   */\n      dup2\n        /* \"#utility.yul\":5440:5444   */\n      dup2\n        /* \"#utility.yul\":5436:5456   */\n      sub\n        /* \"#utility.yul\":5432:5433   */\n      0x00\n        /* \"#utility.yul\":5421:5430   */\n      dup4\n        /* \"#utility.yul\":5417:5434   */\n      add\n        /* \"#utility.yul\":5410:5457   */\n      mstore\n        /* \"#utility.yul\":5474:5605   */\n      tag_180\n        /* \"#utility.yul\":5600:5604   */\n      dup2\n        /* \"#utility.yul\":5474:5605   */\n      tag_112\n      jump\t// in\n    tag_180:\n        /* \"#utility.yul\":5466:5605   */\n      swap1\n      pop\n        /* \"#utility.yul\":5193:5612   */\n      swap2\n      swap1\n      pop\n      jump\t// out\n        /* \"#utility.yul\":5618:5842   */\n    tag_113:\n        /* \"#utility.yul\":5758:5792   */\n      0x43616e277420626c6f636b206d6f7265207365617473207468616e2061766169\n        /* \"#utility.yul\":5754:5755   */\n      0x00\n        /* \"#utility.yul\":5746:5752   */\n      dup3\n        /* \"#utility.yul\":5742:5756   */\n      add\n        /* \"#utility.yul\":5735:5793   */\n      mstore\n        /* \"#utility.yul\":5827:5834   */\n      0x6c61626c65000000000000000000000000000000000000000000000000000000\n        /* \"#utility.yul\":5822:5824   */\n      0x20\n        /* \"#utility.yul\":5814:5820   */\n      dup3\n        /* \"#utility.yul\":5810:5825   */\n      add\n        /* \"#utility.yul\":5803:5835   */\n      mstore\n        /* \"#utility.yul\":5618:5842   */\n      pop\n      jump\t// out\n        /* \"#utility.yul\":5848:6214   */\n    tag_114:\n        /* \"#utility.yul\":5990:5993   */\n      0x00\n        /* \"#utility.yul\":6011:6078   */\n      tag_183\n        /* \"#utility.yul\":6075:6077   */\n      0x25\n        /* \"#utility.yul\":6070:6073   */\n      dup4\n        /* \"#utility.yul\":6011:6078   */\n      tag_110\n      jump\t// in\n    tag_183:\n        /* \"#utility.yul\":6004:6078   */\n      swap2\n      pop\n        /* \"#utility.yul\":6087:6180   */\n      tag_184\n        /* \"#utility.yul\":6176:6179   */\n      dup3\n        /* \"#utility.yul\":6087:6180   */\n      tag_113\n      jump\t// in\n    tag_184:\n        /* \"#utility.yul\":6205:6207   */\n      0x40\n        /* \"#utility.yul\":6200:6203   */\n      dup3\n        /* \"#utility.yul\":6196:6208   */\n      add\n        /* \"#utility.yul\":6189:6208   */\n      swap1\n      pop\n        /* \"#utility.yul\":5848:6214   */\n      swap2\n      swap1\n      pop\n      jump\t// out\n        /* \"#utility.yul\":6220:6639   */\n    tag_67:\n        /* \"#utility.yul\":6386:6390   */\n      0x00\n        /* \"#utility.yul\":6424:6426   */\n      0x20\n        /* \"#utility.yul\":6413:6422   */\n      dup3\n        /* \"#utility.yul\":6409:6427   */\n      add\n        /* \"#utility.yul\":6401:6427   */\n      swap1\n      pop\n        /* \"#utility.yul\":6473:6482   */\n      dup2\n        /* \"#utility.yul\":6467:6471   */\n      dup2\n        /* \"#utility.yul\":6463:6483   */\n      sub\n        /* \"#utility.yul\":6459:6460   */\n      0x00\n        /* \"#utility.yul\":6448:6457   */\n      dup4\n        /* \"#utility.yul\":6444:6461   */\n      add\n        /* \"#utility.yul\":6437:6484   */\n      mstore\n        /* \"#utility.yul\":6501:6632   */\n      tag_186\n        /* \"#utility.yul\":6627:6631   */\n      dup2\n        /* \"#utility.yul\":6501:6632   */\n      tag_114\n      jump\t// in\n    tag_186:\n        /* \"#utility.yul\":6493:6632   */\n      swap1\n      pop\n        /* \"#utility.yul\":6220:6639   */\n      swap2\n      swap1\n      pop\n      jump\t// out\n        /* \"#utility.yul\":6645:6825   */\n    tag_115:\n        /* \"#utility.yul\":6693:6770   */\n      0x4e487b7100000000000000000000000000000000000000000000000000000000\n        /* \"#utility.yul\":6690:6691   */\n      0x00\n        /* \"#utility.yul\":6683:6771   */\n      mstore\n        /* \"#utility.yul\":6790:6794   */\n      0x11\n        /* \"#utility.yul\":6787:6788   */\n      0x04\n        /* \"#utility.yul\":6780:6795   */\n      mstore\n        /* \"#utility.yul\":6814:6818   */\n      0x24\n        /* \"#utility.yul\":6811:6812   */\n      0x00\n        /* \"#utility.yul\":6804:6819   */\n      revert\n        /* \"#utility.yul\":6831:7025   */\n    tag_69:\n        /* \"#utility.yul\":6871:6875   */\n      0x00\n        /* \"#utility.yul\":6891:6911   */\n      tag_189\n        /* \"#utility.yul\":6909:6910   */\n      dup3\n        /* \"#utility.yul\":6891:6911   */\n      tag_95\n      jump\t// in\n    tag_189:\n        /* \"#utility.yul\":6886:6911   */\n      swap2\n      pop\n        /* \"#utility.yul\":6925:6945   */\n      tag_190\n        /* \"#utility.yul\":6943:6944   */\n      dup4\n        /* \"#utility.yul\":6925:6945   */\n      tag_95\n      jump\t// in\n    tag_190:\n        /* \"#utility.yul\":6920:6945   */\n      swap3\n      pop\n        /* \"#utility.yul\":6969:6970   */\n      dup3\n        /* \"#utility.yul\":6966:6967   */\n      dup3\n        /* \"#utility.yul\":6962:6971   */\n      sub\n        /* \"#utility.yul\":6954:6971   */\n      swap1\n      pop\n        /* \"#utility.yul\":6993:6994   */\n      dup2\n        /* \"#utility.yul\":6987:6991   */\n      dup2\n        /* \"#utility.yul\":6984:6995   */\n      gt\n        /* \"#utility.yul\":6981:7018   */\n      iszero\n      tag_191\n      jumpi\n        /* \"#utility.yul\":6998:7016   */\n      tag_192\n      tag_115\n      jump\t// in\n    tag_192:\n        /* \"#utility.yul\":6981:7018   */\n    tag_191:\n        /* \"#utility.yul\":6831:7025   */\n      swap3\n      swap2\n      pop\n      pop\n      jump\t// out\n        /* \"#utility.yul\":7031:7202   */\n    tag_116:\n        /* \"#utility.yul\":7171:7194   */\n      0x506c65617365207061792066756c6c2070726963650000000000000000000000\n        /* \"#utility.yul\":7167:7168   */\n      0x00\n        /* \"#utility.yul\":7159:7165   */\n      dup3\n        /* \"#utility.yul\":7155:7169   */\n      add\n        /* \"#utility.yul\":7148:7195   */\n      mstore\n        /* \"#utility.yul\":7031:7202   */\n      pop\n      jump\t// out\n        /* \"#utility.yul\":7208:7574   */\n    tag_117:\n        /* \"#utility.yul\":7350:7353   */\n      0x00\n        /* \"#utility.yul\":7371:7438   */\n      tag_195\n        /* \"#utility.yul\":7435:7437   */\n      0x15\n        /* \"#utility.yul\":7430:7433   */\n      dup4\n        /* \"#utility.yul\":7371:7438   */\n      tag_110\n      jump\t// in\n    tag_195:\n        /* \"#utility.yul\":7364:7438   */\n      swap2\n      pop\n        /* \"#utility.yul\":7447:7540   */\n      tag_196\n        /* \"#utility.yul\":7536:7539   */\n      dup3\n        /* \"#utility.yul\":7447:7540   */\n      tag_116\n      jump\t// in\n    tag_196:\n        /* \"#utility.yul\":7565:7567   */\n      0x20\n        /* \"#utility.yul\":7560:7563   */\n      dup3\n        /* \"#utility.yul\":7556:7568   */\n      add\n        /* \"#utility.yul\":7549:7568   */\n      swap1\n      pop\n        /* \"#utility.yul\":7208:7574   */\n      swap2\n      swap1\n      pop\n      jump\t// out\n        /* \"#utility.yul\":7580:7999   */\n    tag_73:\n        /* \"#utility.yul\":7746:7750   */\n      0x00\n        /* \"#utility.yul\":7784:7786   */\n      0x20\n        /* \"#utility.yul\":7773:7782   */\n      dup3\n        /* \"#utility.yul\":7769:7787   */\n      add\n        /* \"#utility.yul\":7761:7787   */\n      swap1\n      pop\n        /* \"#utility.yul\":7833:7842   */\n      dup2\n        /* \"#utility.yul\":7827:7831   */\n      dup2\n        /* \"#utility.yul\":7823:7843   */\n      sub\n        /* \"#utility.yul\":7819:7820   */\n      0x00\n        /* \"#utility.yul\":7808:7817   */\n      dup4\n        /* \"#utility.yul\":7804:7821   */\n      add\n        /* \"#utility.yul\":7797:7844   */\n      mstore\n        /* \"#utility.yul\":7861:7992   */\n      tag_198\n        /* \"#utility.yul\":7987:7991   */\n      dup2\n        /* \"#utility.yul\":7861:7992   */\n      tag_117\n      jump\t// in\n    tag_198:\n        /* \"#utility.yul\":7853:7992   */\n      swap1\n      pop\n        /* \"#utility.yul\":7580:7999   */\n      swap2\n      swap1\n      pop\n      jump\t// out\n        /* \"#utility.yul\":8005:8180   */\n    tag_118:\n        /* \"#utility.yul\":8145:8172   */\n      0x4e6f206d6f726520666c696768747320617661696c61626c6500000000000000\n        /* \"#utility.yul\":8141:8142   */\n      0x00\n        /* \"#utility.yul\":8133:8139   */\n      dup3\n        /* \"#utility.yul\":8129:8143   */\n      add\n        /* \"#utility.yul\":8122:8173   */\n      mstore\n        /* \"#utility.yul\":8005:8180   */\n      pop\n      jump\t// out\n        /* \"#utility.yul\":8186:8552   */\n    tag_119:\n        /* \"#utility.yul\":8328:8331   */\n      0x00\n        /* \"#utility.yul\":8349:8416   */\n      tag_201\n        /* \"#utility.yul\":8413:8415   */\n      0x19\n        /* \"#utility.yul\":8408:8411   */\n      dup4\n        /* \"#utility.yul\":8349:8416   */\n      tag_110\n      jump\t// in\n    tag_201:\n        /* \"#utility.yul\":8342:8416   */\n      swap2\n      pop\n        /* \"#utility.yul\":8425:8518   */\n      tag_202\n        /* \"#utility.yul\":8514:8517   */\n      dup3\n        /* \"#utility.yul\":8425:8518   */\n      tag_118\n      jump\t// in\n    tag_202:\n        /* \"#utility.yul\":8543:8545   */\n      0x20\n        /* \"#utility.yul\":8538:8541   */\n      dup3\n        /* \"#utility.yul\":8534:8546   */\n      add\n        /* \"#utility.yul\":8527:8546   */\n      swap1\n      pop\n        /* \"#utility.yul\":8186:8552   */\n      swap2\n      swap1\n      pop\n      jump\t// out\n        /* \"#utility.yul\":8558:8977   */\n    tag_76:\n        /* \"#utility.yul\":8724:8728   */\n      0x00\n        /* \"#utility.yul\":8762:8764   */\n      0x20\n        /* \"#utility.yul\":8751:8760   */\n      dup3\n        /* \"#utility.yul\":8747:8765   */\n      add\n        /* \"#utility.yul\":8739:8765   */\n      swap1\n      pop\n        /* \"#utility.yul\":8811:8820   */\n      dup2\n        /* \"#utility.yul\":8805:8809   */\n      dup2\n        /* \"#utility.yul\":8801:8821   */\n      sub\n        /* \"#utility.yul\":8797:8798   */\n      0x00\n        /* \"#utility.yul\":8786:8795   */\n      dup4\n        /* \"#utility.yul\":8782:8799   */\n      add\n        /* \"#utility.yul\":8775:8822   */\n      mstore\n        /* \"#utility.yul\":8839:8970   */\n      tag_204\n        /* \"#utility.yul\":8965:8969   */\n      dup2\n        /* \"#utility.yul\":8839:8970   */\n      tag_119\n      jump\t// in\n    tag_204:\n        /* \"#utility.yul\":8831:8970   */\n      swap1\n      pop\n        /* \"#utility.yul\":8558:8977   */\n      swap2\n      swap1\n      pop\n      jump\t// out\n        /* \"#utility.yul\":8983:9174   */\n    tag_79:\n        /* \"#utility.yul\":9023:9026   */\n      0x00\n        /* \"#utility.yul\":9042:9062   */\n      tag_206\n        /* \"#utility.yul\":9060:9061   */\n      dup3\n        /* \"#utility.yul\":9042:9062   */\n      tag_95\n      jump\t// in\n    tag_206:\n        /* \"#utility.yul\":9037:9062   */\n      swap2\n      pop\n        /* \"#utility.yul\":9076:9096   */\n      tag_207\n        /* \"#utility.yul\":9094:9095   */\n      dup4\n        /* \"#utility.yul\":9076:9096   */\n      tag_95\n      jump\t// in\n    tag_207:\n        /* \"#utility.yul\":9071:9096   */\n      swap3\n      pop\n        /* \"#utility.yul\":9119:9120   */\n      dup3\n        /* \"#utility.yul\":9116:9117   */\n      dup3\n        /* \"#utility.yul\":9112:9121   */\n      add\n        /* \"#utility.yul\":9105:9121   */\n      swap1\n      pop\n        /* \"#utility.yul\":9140:9143   */\n      dup1\n        /* \"#utility.yul\":9137:9138   */\n      dup3\n        /* \"#utility.yul\":9134:9144   */\n      gt\n        /* \"#utility.yul\":9131:9167   */\n      iszero\n      tag_208\n      jumpi\n        /* \"#utility.yul\":9147:9165   */\n      tag_209\n      tag_115\n      jump\t// in\n    tag_209:\n        /* \"#utility.yul\":9131:9167   */\n    tag_208:\n        /* \"#utility.yul\":8983:9174   */\n      swap3\n      swap2\n      pop\n      pop\n      jump\t// out\n\n    auxdata: 0xa2646970667358221220194f841cc69f5f356e6abcf19d59b43c0e14ba7a217858f50cbee03d80be4db264736f6c63430008160033\n}\n",
				"bytecode": {
					"linkReferences": {},
					"object": "608060405234801561000f575f80fd5b50335f806101000a81548173ffffffffffffffffffffffffffffffffffffffff021916908373ffffffffffffffffffffffffffffffffffffffff160217905550602860015f01819055506402540be400600180018190555060016005819055505f600481905550610c51806100835f395ff3fe608060405260043610610090575f3560e01c806395c92c8f1161005857806395c92c8f14610176578063d02c3f4514610180578063ea0863f514610196578063fc7233e1146101c1578063fd42b070146101fd57610090565b80632bc8b46814610094578063437b3501146100be578063481c6a75146100fa5780636a68772d146101245780638664896b1461014e575b5f80fd5b34801561009f575f80fd5b506100a8610225565b6040516100b591906107ac565b60405180910390f35b3480156100c9575f80fd5b506100e460048036038101906100df9190610823565b61022b565b6040516100f19190610868565b60405180910390f35b348015610105575f80fd5b5061010e61028e565b60405161011b91906108a1565b60405180910390f35b34801561012f575f80fd5b506101386102b1565b60405161014591906107ac565b60405180910390f35b348015610159575f80fd5b50610174600480360381019061016f91906108e4565b6102b7565b005b61017e6103a8565b005b34801561018b575f80fd5b506101946105a4565b005b3480156101a1575f80fd5b506101aa610696565b6040516101b892919061090f565b60405180910390f35b3480156101cc575f80fd5b506101e760048036038101906101e29190610936565b6106a7565b6040516101f49190610868565b60405180910390f35b348015610208575f80fd5b50610223600480360381019061021e9190610974565b6106d1565b005b60055481565b5f60035f60055481526020019081526020015f205f8373ffffffffffffffffffffffffffffffffffffffff1673ffffffffffffffffffffffffffffffffffffffff1681526020019081526020015f205f9054906101000a900460ff169050919050565b5f8054906101000a900473ffffffffffffffffffffffffffffffffffffffff1681565b60045481565b5f8054906101000a900473ffffffffffffffffffffffffffffffffffffffff1673ffffffffffffffffffffffffffffffffffffffff163373ffffffffffffffffffffffffffffffffffffffff1614610344576040517f08c379a000000000000000000000000000000000000000000000000000000000815260040161033b90610a0c565b60405180910390fd5b60015f015481111561038b576040517f08c379a000000000000000000000000000000000000000000000000000000000815260040161038290610a9a565b60405180910390fd5b8060015f015f82825461039e9190610ae5565b9250508190555050565b60018001543410156103ef576040517f08c379a00000000000000000000000000000000000000000000000000000000081526004016103e690610b62565b60405180910390fd5b5f60015f015411610435576040517f08c379a000000000000000000000000000000000000000000000000000000000815260040161042c90610bca565b60405180910390fd5b5f80151560035f60055481526020019081526020015f205f3273ffffffffffffffffffffffffffffffffffffffff1673ffffffffffffffffffffffffffffffffffffffff1681526020019081526020015f205f9054906101000a900460ff1615150361054b57600160035f60055481526020019081526020015f205f3273ffffffffffffffffffffffffffffffffffffffff1673ffffffffffffffffffffffffffffffffffffffff1681526020019081526020015f205f6101000a81548160ff021916908315150217905550600160045f8282546105139190610be8565b925050819055506001805f015f82825461052d9190610ae5565b925050819055506001800154346105449190610ae5565b905061054f565b3490505b5f3290505f8211156105a0578073ffffffffffffffffffffffffffffffffffffffff166108fc8390811502906040515f60405180830381858888f1935050505015801561059e573d5f803e3d5ffd5b505b5050565b5f8054906101000a900473ffffffffffffffffffffffffffffffffffffffff1673ffffffffffffffffffffffffffffffffffffffff163373ffffffffffffffffffffffffffffffffffffffff1614610631576040517f08c379a000000000000000000000000000000000000000000000000000000000815260040161062890610a0c565b60405180910390fd5b5f8054906101000a900473ffffffffffffffffffffffffffffffffffffffff1673ffffffffffffffffffffffffffffffffffffffff166108fc4790811502906040515f60405180830381858888f19350505050158015610693573d5f803e3d5ffd5b50565b6001805f0154908060010154905082565b6003602052815f5260405f20602052805f5260405f205f915091509054906101000a900460ff1681565b5f8054906101000a900473ffffffffffffffffffffffffffffffffffffffff1673ffffffffffffffffffffffffffffffffffffffff163373ffffffffffffffffffffffffffffffffffffffff161461075e576040517f08c379a000000000000000000000000000000000000000000000000000000000815260040161075590610a0c565b60405180910390fd5b8160018001819055508060015f01819055505f600481905550600160055f8282546107899190610be8565b925050819055505050565b5f819050919050565b6107a681610794565b82525050565b5f6020820190506107bf5f83018461079d565b92915050565b5f80fd5b5f73ffffffffffffffffffffffffffffffffffffffff82169050919050565b5f6107f2826107c9565b9050919050565b610802816107e8565b811461080c575f80fd5b50565b5f8135905061081d816107f9565b92915050565b5f60208284031215610838576108376107c5565b5b5f6108458482850161080f565b91505092915050565b5f8115159050919050565b6108628161084e565b82525050565b5f60208201905061087b5f830184610859565b92915050565b5f61088b826107c9565b9050919050565b61089b81610881565b82525050565b5f6020820190506108b45f830184610892565b92915050565b6108c381610794565b81146108cd575f80fd5b50565b5f813590506108de816108ba565b92915050565b5f602082840312156108f9576108f86107c5565b5b5f610906848285016108d0565b91505092915050565b5f6040820190506109225f83018561079d565b61092f602083018461079d565b9392505050565b5f806040838503121561094c5761094b6107c5565b5b5f610959858286016108d0565b925050602061096a8582860161080f565b9150509250929050565b5f806040838503121561098a576109896107c5565b5b5f610997858286016108d0565b92505060206109a8858286016108d0565b9150509250929050565b5f82825260208201905092915050565b7f4f6e6c79206d616e616765722063616e207265736574207374617465000000005f82015250565b5f6109f6601c836109b2565b9150610a01826109c2565b602082019050919050565b5f6020820190508181035f830152610a23816109ea565b9050919050565b7f43616e277420626c6f636b206d6f7265207365617473207468616e20617661695f8201527f6c61626c65000000000000000000000000000000000000000000000000000000602082015250565b5f610a846025836109b2565b9150610a8f82610a2a565b604082019050919050565b5f6020820190508181035f830152610ab181610a78565b9050919050565b7f4e487b71000000000000000000000000000000000000000000000000000000005f52601160045260245ffd5b5f610aef82610794565b9150610afa83610794565b9250828203905081811115610b1257610b11610ab8565b5b92915050565b7f506c65617365207061792066756c6c20707269636500000000000000000000005f82015250565b5f610b4c6015836109b2565b9150610b5782610b18565b602082019050919050565b5f6020820190508181035f830152610b7981610b40565b9050919050565b7f4e6f206d6f726520666c696768747320617661696c61626c65000000000000005f82015250565b5f610bb46019836109b2565b9150610bbf82610b80565b602082019050919050565b5f6020820190508181035f830152610be181610ba8565b9050919050565b5f610bf282610794565b9150610bfd83610794565b9250828201905080821115610c1557610c14610ab8565b5b9291505056fea2646970667358221220194f841cc69f5f356e6abcf19d59b43c0e14ba7a217858f50cbee03d80be4db264736f6c63430008160033",
					"opcodes": "PUSH1 0x80 PUSH1 0x40 MSTORE CALLVALUE DUP1 ISZERO PUSH2 0xF JUMPI PUSH0 DUP1 REVERT JUMPDEST POP CALLER PUSH0 DUP1 PUSH2 0x100 EXP DUP2 SLOAD DUP2 PUSH20 0xFFFFFFFFFFFFFFFFFFFFFFFFFFFFFFFFFFFFFFFF MUL NOT AND SWAP1 DUP4 PUSH20 0xFFFFFFFFFFFFFFFFFFFFFFFFFFFFFFFFFFFFFFFF AND MUL OR SWAP1 SSTORE POP PUSH1 0x28 PUSH1 0x1 PUSH0 ADD DUP2 SWAP1 SSTORE POP PUSH5 0x2540BE400 PUSH1 0x1 DUP1 ADD DUP2 SWAP1 SSTORE POP PUSH1 0x1 PUSH1 0x5 DUP2 SWAP1 SSTORE POP PUSH0 PUSH1 0x4 DUP2 SWAP1 SSTORE POP PUSH2 0xC51 DUP1 PUSH2 0x83 PUSH0 CODECOPY PUSH0 RETURN INVALID PUSH1 0x80 PUSH1 0x40 MSTORE PUSH1 0x4 CALLDATASIZE LT PUSH2 0x90 JUMPI PUSH0 CALLDATALOAD PUSH1 0xE0 SHR DUP1 PUSH4 0x95C92C8F GT PUSH2 0x58 JUMPI DUP1 PUSH4 0x95C92C8F EQ PUSH2 0x176 JUMPI DUP1 PUSH4 0xD02C3F45 EQ PUSH2 0x180 JUMPI DUP1 PUSH4 0xEA0863F5 EQ PUSH2 0x196 JUMPI DUP1 PUSH4 0xFC7233E1 EQ PUSH2 0x1C1 JUMPI DUP1 PUSH4 0xFD42B070 EQ PUSH2 0x1FD JUMPI PUSH2 0x90 JUMP JUMPDEST DUP1 PUSH4 0x2BC8B468 EQ PUSH2 0x94 JUMPI DUP1 PUSH4 0x437B3501 EQ PUSH2 0xBE JUMPI DUP1 PUSH4 0x481C6A75 EQ PUSH2 0xFA JUMPI DUP1 PUSH4 0x6A68772D EQ PUSH2 0x124 JUMPI DUP1 PUSH4 0x8664896B EQ PUSH2 0x14E JUMPI JUMPDEST PUSH0 DUP1 REVERT JUMPDEST CALLVALUE DUP1 ISZERO PUSH2 0x9F JUMPI PUSH0 DUP1 REVERT JUMPDEST POP PUSH2 0xA8 PUSH2 0x225 JUMP JUMPDEST PUSH1 0x40 MLOAD PUSH2 0xB5 SWAP2 SWAP1 PUSH2 0x7AC JUMP JUMPDEST PUSH1 0x40 MLOAD DUP1 SWAP2 SUB SWAP1 RETURN JUMPDEST CALLVALUE DUP1 ISZERO PUSH2 0xC9 JUMPI PUSH0 DUP1 REVERT JUMPDEST POP PUSH2 0xE4 PUSH1 0x4 DUP1 CALLDATASIZE SUB DUP2 ADD SWAP1 PUSH2 0xDF SWAP2 SWAP1 PUSH2 0x823 JUMP JUMPDEST PUSH2 0x22B JUMP JUMPDEST PUSH1 0x40 MLOAD PUSH2 0xF1 SWAP2 SWAP1 PUSH2 0x868 JUMP JUMPDEST PUSH1 0x40 MLOAD DUP1 SWAP2 SUB SWAP1 RETURN JUMPDEST CALLVALUE DUP1 ISZERO PUSH2 0x105 JUMPI PUSH0 DUP1 REVERT JUMPDEST POP PUSH2 0x10E PUSH2 0x28E JUMP JUMPDEST PUSH1 0x40 MLOAD PUSH2 0x11B SWAP2 SWAP1 PUSH2 0x8A1 JUMP JUMPDEST PUSH1 0x40 MLOAD DUP1 SWAP2 SUB SWAP1 RETURN JUMPDEST CALLVALUE DUP1 ISZERO PUSH2 0x12F JUMPI PUSH0 DUP1 REVERT JUMPDEST POP PUSH2 0x138 PUSH2 0x2B1 JUMP JUMPDEST PUSH1 0x40 MLOAD PUSH2 0x145 SWAP2 SWAP1 PUSH2 0x7AC JUMP JUMPDEST PUSH1 0x40 MLOAD DUP1 SWAP2 SUB SWAP1 RETURN JUMPDEST CALLVALUE DUP1 ISZERO PUSH2 0x159 JUMPI PUSH0 DUP1 REVERT JUMPDEST POP PUSH2 0x174 PUSH1 0x4 DUP1 CALLDATASIZE SUB DUP2 ADD SWAP1 PUSH2 0x16F SWAP2 SWAP1 PUSH2 0x8E4 JUMP JUMPDEST PUSH2 0x2B7 JUMP JUMPDEST STOP JUMPDEST PUSH2 0x17E PUSH2 0x3A8 JUMP JUMPDEST STOP JUMPDEST CALLVALUE DUP1 ISZERO PUSH2 0x18B JUMPI PUSH0 DUP1 REVERT JUMPDEST POP PUSH2 0x194 PUSH2 0x5A4 JUMP JUMPDEST STOP JUMPDEST CALLVALUE DUP1 ISZERO PUSH2 0x1A1 JUMPI PUSH0 DUP1 REVERT JUMPDEST POP PUSH2 0x1AA PUSH2 0x696 JUMP JUMPDEST PUSH1 0x40 MLOAD PUSH2 0x1B8 SWAP3 SWAP2 SWAP1 PUSH2 0x90F JUMP JUMPDEST PUSH1 0x40 MLOAD DUP1 SWAP2 SUB SWAP1 RETURN JUMPDEST CALLVALUE DUP1 ISZERO PUSH2 0x1CC JUMPI PUSH0 DUP1 REVERT JUMPDEST POP PUSH2 0x1E7 PUSH1 0x4 DUP1 CALLDATASIZE SUB DUP2 ADD SWAP1 PUSH2 0x1E2 SWAP2 SWAP1 PUSH2 0x936 JUMP JUMPDEST PUSH2 0x6A7 JUMP JUMPDEST PUSH1 0x40 MLOAD PUSH2 0x1F4 SWAP2 SWAP1 PUSH2 0x868 JUMP JUMPDEST PUSH1 0x40 MLOAD DUP1 SWAP2 SUB SWAP1 RETURN JUMPDEST CALLVALUE DUP1 ISZERO PUSH2 0x208 JUMPI PUSH0 DUP1 REVERT JUMPDEST POP PUSH2 0x223 PUSH1 0x4 DUP1 CALLDATASIZE SUB DUP2 ADD SWAP1 PUSH2 0x21E SWAP2 SWAP1 PUSH2 0x974 JUMP JUMPDEST PUSH2 0x6D1 JUMP JUMPDEST STOP JUMPDEST PUSH1 0x5 SLOAD DUP2 JUMP JUMPDEST PUSH0 PUSH1 0x3 PUSH0 PUSH1 0x5 SLOAD DUP2 MSTORE PUSH1 0x20 ADD SWAP1 DUP2 MSTORE PUSH1 0x20 ADD PUSH0 KECCAK256 PUSH0 DUP4 PUSH20 0xFFFFFFFFFFFFFFFFFFFFFFFFFFFFFFFFFFFFFFFF AND PUSH20 0xFFFFFFFFFFFFFFFFFFFFFFFFFFFFFFFFFFFFFFFF AND DUP2 MSTORE PUSH1 0x20 ADD SWAP1 DUP2 MSTORE PUSH1 0x20 ADD PUSH0 KECCAK256 PUSH0 SWAP1 SLOAD SWAP1 PUSH2 0x100 EXP SWAP1 DIV PUSH1 0xFF AND SWAP1 POP SWAP2 SWAP1 POP JUMP JUMPDEST PUSH0 DUP1 SLOAD SWAP1 PUSH2 0x100 EXP SWAP1 DIV PUSH20 0xFFFFFFFFFFFFFFFFFFFFFFFFFFFFFFFFFFFFFFFF AND DUP2 JUMP JUMPDEST PUSH1 0x4 SLOAD DUP2 JUMP JUMPDEST PUSH0 DUP1 SLOAD SWAP1 PUSH2 0x100 EXP SWAP1 DIV PUSH20 0xFFFFFFFFFFFFFFFFFFFFFFFFFFFFFFFFFFFFFFFF AND PUSH20 0xFFFFFFFFFFFFFFFFFFFFFFFFFFFFFFFFFFFFFFFF AND CALLER PUSH20 0xFFFFFFFFFFFFFFFFFFFFFFFFFFFFFFFFFFFFFFFF AND EQ PUSH2 0x344 JUMPI PUSH1 0x40 MLOAD PUSH32 0x8C379A000000000000000000000000000000000000000000000000000000000 DUP2 MSTORE PUSH1 0x4 ADD PUSH2 0x33B SWAP1 PUSH2 0xA0C JUMP JUMPDEST PUSH1 0x40 MLOAD DUP1 SWAP2 SUB SWAP1 REVERT JUMPDEST PUSH1 0x1 PUSH0 ADD SLOAD DUP2 GT ISZERO PUSH2 0x38B JUMPI PUSH1 0x40 MLOAD PUSH32 0x8C379A000000000000000000000000000000000000000000000000000000000 DUP2 MSTORE PUSH1 0x4 ADD PUSH2 0x382 SWAP1 PUSH2 0xA9A JUMP JUMPDEST PUSH1 0x40 MLOAD DUP1 SWAP2 SUB SWAP1 REVERT JUMPDEST DUP1 PUSH1 0x1 PUSH0 ADD PUSH0 DUP3 DUP3 SLOAD PUSH2 0x39E SWAP2 SWAP1 PUSH2 0xAE5 JUMP JUMPDEST SWAP3 POP POP DUP2 SWAP1 SSTORE POP POP JUMP JUMPDEST PUSH1 0x1 DUP1 ADD SLOAD CALLVALUE LT ISZERO PUSH2 0x3EF JUMPI PUSH1 0x40 MLOAD PUSH32 0x8C379A000000000000000000000000000000000000000000000000000000000 DUP2 MSTORE PUSH1 0x4 ADD PUSH2 0x3E6 SWAP1 PUSH2 0xB62 JUMP JUMPDEST PUSH1 0x40 MLOAD DUP1 SWAP2 SUB SWAP1 REVERT JUMPDEST PUSH0 PUSH1 0x1 PUSH0 ADD SLOAD GT PUSH2 0x435 JUMPI PUSH1 0x40 MLOAD PUSH32 0x8C379A000000000000000000000000000000000000000000000000000000000 DUP2 MSTORE PUSH1 0x4 ADD PUSH2 0x42C SWAP1 PUSH2 0xBCA JUMP JUMPDEST PUSH1 0x40 MLOAD DUP1 SWAP2 SUB SWAP1 REVERT JUMPDEST PUSH0 DUP1 ISZERO ISZERO PUSH1 0x3 PUSH0 PUSH1 0x5 SLOAD DUP2 MSTORE PUSH1 0x20 ADD SWAP1 DUP2 MSTORE PUSH1 0x20 ADD PUSH0 KECCAK256 PUSH0 ORIGIN PUSH20 0xFFFFFFFFFFFFFFFFFFFFFFFFFFFFFFFFFFFFFFFF AND PUSH20 0xFFFFFFFFFFFFFFFFFFFFFFFFFFFFFFFFFFFFFFFF AND DUP2 MSTORE PUSH1 0x20 ADD SWAP1 DUP2 MSTORE PUSH1 0x20 ADD PUSH0 KECCAK256 PUSH0 SWAP1 SLOAD SWAP1 PUSH2 0x100 EXP SWAP1 DIV PUSH1 0xFF AND ISZERO ISZERO SUB PUSH2 0x54B JUMPI PUSH1 0x1 PUSH1 0x3 PUSH0 PUSH1 0x5 SLOAD DUP2 MSTORE PUSH1 0x20 ADD SWAP1 DUP2 MSTORE PUSH1 0x20 ADD PUSH0 KECCAK256 PUSH0 ORIGIN PUSH20 0xFFFFFFFFFFFFFFFFFFFFFFFFFFFFFFFFFFFFFFFF AND PUSH20 0xFFFFFFFFFFFFFFFFFFFFFFFFFFFFFFFFFFFFFFFF AND DUP2 MSTORE PUSH1 0x20 ADD SWAP1 DUP2 MSTORE PUSH1 0x20 ADD PUSH0 KECCAK256 PUSH0 PUSH2 0x100 EXP DUP2 SLOAD DUP2 PUSH1 0xFF MUL NOT AND SWAP1 DUP4 ISZERO ISZERO MUL OR SWAP1 SSTORE POP PUSH1 0x1 PUSH1 0x4 PUSH0 DUP3 DUP3 SLOAD PUSH2 0x513 SWAP2 SWAP1 PUSH2 0xBE8 JUMP JUMPDEST SWAP3 POP POP DUP2 SWAP1 SSTORE POP PUSH1 0x1 DUP1 PUSH0 ADD PUSH0 DUP3 DUP3 SLOAD PUSH2 0x52D SWAP2 SWAP1 PUSH2 0xAE5 JUMP JUMPDEST SWAP3 POP POP DUP2 SWAP1 SSTORE POP PUSH1 0x1 DUP1 ADD SLOAD CALLVALUE PUSH2 0x544 SWAP2 SWAP1 PUSH2 0xAE5 JUMP JUMPDEST SWAP1 POP PUSH2 0x54F JUMP JUMPDEST CALLVALUE SWAP1 POP JUMPDEST PUSH0 ORIGIN SWAP1 POP PUSH0 DUP3 GT ISZERO PUSH2 0x5A0 JUMPI DUP1 PUSH20 0xFFFFFFFFFFFFFFFFFFFFFFFFFFFFFFFFFFFFFFFF AND PUSH2 0x8FC DUP4 SWAP1 DUP2 ISZERO MUL SWAP1 PUSH1 0x40 MLOAD PUSH0 PUSH1 0x40 MLOAD DUP1 DUP4 SUB DUP2 DUP6 DUP9 DUP9 CALL SWAP4 POP POP POP POP ISZERO DUP1 ISZERO PUSH2 0x59E JUMPI RETURNDATASIZE PUSH0 DUP1 RETURNDATACOPY RETURNDATASIZE PUSH0 REVERT JUMPDEST POP JUMPDEST POP POP JUMP JUMPDEST PUSH0 DUP1 SLOAD SWAP1 PUSH2 0x100 EXP SWAP1 DIV PUSH20 0xFFFFFFFFFFFFFFFFFFFFFFFFFFFFFFFFFFFFFFFF AND PUSH20 0xFFFFFFFFFFFFFFFFFFFFFFFFFFFFFFFFFFFFFFFF AND CALLER PUSH20 0xFFFFFFFFFFFFFFFFFFFFFFFFFFFFFFFFFFFFFFFF AND EQ PUSH2 0x631 JUMPI PUSH1 0x40 MLOAD PUSH32 0x8C379A000000000000000000000000000000000000000000000000000000000 DUP2 MSTORE PUSH1 0x4 ADD PUSH2 0x628 SWAP1 PUSH2 0xA0C JUMP JUMPDEST PUSH1 0x40 MLOAD DUP1 SWAP2 SUB SWAP1 REVERT JUMPDEST PUSH0 DUP1 SLOAD SWAP1 PUSH2 0x100 EXP SWAP1 DIV PUSH20 0xFFFFFFFFFFFFFFFFFFFFFFFFFFFFFFFFFFFFFFFF AND PUSH20 0xFFFFFFFFFFFFFFFFFFFFFFFFFFFFFFFFFFFFFFFF AND PUSH2 0x8FC SELFBALANCE SWAP1 DUP2 ISZERO MUL SWAP1 PUSH1 0x40 MLOAD PUSH0 PUSH1 0x40 MLOAD DUP1 DUP4 SUB DUP2 DUP6 DUP9 DUP9 CALL SWAP4 POP POP POP POP ISZERO DUP1 ISZERO PUSH2 0x693 JUMPI RETURNDATASIZE PUSH0 DUP1 RETURNDATACOPY RETURNDATASIZE PUSH0 REVERT JUMPDEST POP JUMP JUMPDEST PUSH1 0x1 DUP1 PUSH0 ADD SLOAD SWAP1 DUP1 PUSH1 0x1 ADD SLOAD SWAP1 POP DUP3 JUMP JUMPDEST PUSH1 0x3 PUSH1 0x20 MSTORE DUP2 PUSH0 MSTORE PUSH1 0x40 PUSH0 KECCAK256 PUSH1 0x20 MSTORE DUP1 PUSH0 MSTORE PUSH1 0x40 PUSH0 KECCAK256 PUSH0 SWAP2 POP SWAP2 POP SWAP1 SLOAD SWAP1 PUSH2 0x100 EXP SWAP1 DIV PUSH1 0xFF AND DUP2 JUMP JUMPDEST PUSH0 DUP1 SLOAD SWAP1 PUSH2 0x100 EXP SWAP1 DIV PUSH20 0xFFFFFFFFFFFFFFFFFFFFFFFFFFFFFFFFFFFFFFFF AND PUSH20 0xFFFFFFFFFFFFFFFFFFFFFFFFFFFFFFFFFFFFFFFF AND CALLER PUSH20 0xFFFFFFFFFFFFFFFFFFFFFFFFFFFFFFFFFFFFFFFF AND EQ PUSH2 0x75E JUMPI PUSH1 0x40 MLOAD PUSH32 0x8C379A000000000000000000000000000000000000000000000000000000000 DUP2 MSTORE PUSH1 0x4 ADD PUSH2 0x755 SWAP1 PUSH2 0xA0C JUMP JUMPDEST PUSH1 0x40 MLOAD DUP1 SWAP2 SUB SWAP1 REVERT JUMPDEST DUP2 PUSH1 0x1 DUP1 ADD DUP2 SWAP1 SSTORE POP DUP1 PUSH1 0x1 PUSH0 ADD DUP2 SWAP1 SSTORE POP PUSH0 PUSH1 0x4 DUP2 SWAP1 SSTORE POP PUSH1 0x1 PUSH1 0x5 PUSH0 DUP3 DUP3 SLOAD PUSH2 0x789 SWAP2 SWAP1 PUSH2 0xBE8 JUMP JUMPDEST SWAP3 POP POP DUP2 SWAP1 SSTORE POP POP POP JUMP JUMPDEST PUSH0 DUP2 SWAP1 POP SWAP2 SWAP1 POP JUMP JUMPDEST PUSH2 0x7A6 DUP2 PUSH2 0x794 JUMP JUMPDEST DUP3 MSTORE POP POP JUMP JUMPDEST PUSH0 PUSH1 0x20 DUP3 ADD SWAP1 POP PUSH2 0x7BF PUSH0 DUP4 ADD DUP5 PUSH2 0x79D JUMP JUMPDEST SWAP3 SWAP2 POP POP JUMP JUMPDEST PUSH0 DUP1 REVERT JUMPDEST PUSH0 PUSH20 0xFFFFFFFFFFFFFFFFFFFFFFFFFFFFFFFFFFFFFFFF DUP3 AND SWAP1 POP SWAP2 SWAP1 POP JUMP JUMPDEST PUSH0 PUSH2 0x7F2 DUP3 PUSH2 0x7C9 JUMP JUMPDEST SWAP1 POP SWAP2 SWAP1 POP JUMP JUMPDEST PUSH2 0x802 DUP2 PUSH2 0x7E8 JUMP JUMPDEST DUP2 EQ PUSH2 0x80C JUMPI PUSH0 DUP1 REVERT JUMPDEST POP JUMP JUMPDEST PUSH0 DUP2 CALLDATALOAD SWAP1 POP PUSH2 0x81D DUP2 PUSH2 0x7F9 JUMP JUMPDEST SWAP3 SWAP2 POP POP JUMP JUMPDEST PUSH0 PUSH1 0x20 DUP3 DUP5 SUB SLT ISZERO PUSH2 0x838 JUMPI PUSH2 0x837 PUSH2 0x7C5 JUMP JUMPDEST JUMPDEST PUSH0 PUSH2 0x845 DUP5 DUP3 DUP6 ADD PUSH2 0x80F JUMP JUMPDEST SWAP2 POP POP SWAP3 SWAP2 POP POP JUMP JUMPDEST PUSH0 DUP2 ISZERO ISZERO SWAP1 POP SWAP2 SWAP1 POP JUMP JUMPDEST PUSH2 0x862 DUP2 PUSH2 0x84E JUMP JUMPDEST DUP3 MSTORE POP POP JUMP JUMPDEST PUSH0 PUSH1 0x20 DUP3 ADD SWAP1 POP PUSH2 0x87B PUSH0 DUP4 ADD DUP5 PUSH2 0x859 JUMP JUMPDEST SWAP3 SWAP2 POP POP JUMP JUMPDEST PUSH0 PUSH2 0x88B DUP3 PUSH2 0x7C9 JUMP JUMPDEST SWAP1 POP SWAP2 SWAP1 POP JUMP JUMPDEST PUSH2 0x89B DUP2 PUSH2 0x881 JUMP JUMPDEST DUP3 MSTORE POP POP JUMP JUMPDEST PUSH0 PUSH1 0x20 DUP3 ADD SWAP1 POP PUSH2 0x8B4 PUSH0 DUP4 ADD DUP5 PUSH2 0x892 JUMP JUMPDEST SWAP3 SWAP2 POP POP JUMP JUMPDEST PUSH2 0x8C3 DUP2 PUSH2 0x794 JUMP JUMPDEST DUP2 EQ PUSH2 0x8CD JUMPI PUSH0 DUP1 REVERT JUMPDEST POP JUMP JUMPDEST PUSH0 DUP2 CALLDATALOAD SWAP1 POP PUSH2 0x8DE DUP2 PUSH2 0x8BA JUMP JUMPDEST SWAP3 SWAP2 POP POP JUMP JUMPDEST PUSH0 PUSH1 0x20 DUP3 DUP5 SUB SLT ISZERO PUSH2 0x8F9 JUMPI PUSH2 0x8F8 PUSH2 0x7C5 JUMP JUMPDEST JUMPDEST PUSH0 PUSH2 0x906 DUP5 DUP3 DUP6 ADD PUSH2 0x8D0 JUMP JUMPDEST SWAP2 POP POP SWAP3 SWAP2 POP POP JUMP JUMPDEST PUSH0 PUSH1 0x40 DUP3 ADD SWAP1 POP PUSH2 0x922 PUSH0 DUP4 ADD DUP6 PUSH2 0x79D JUMP JUMPDEST PUSH2 0x92F PUSH1 0x20 DUP4 ADD DUP5 PUSH2 0x79D JUMP JUMPDEST SWAP4 SWAP3 POP POP POP JUMP JUMPDEST PUSH0 DUP1 PUSH1 0x40 DUP4 DUP6 SUB SLT ISZERO PUSH2 0x94C JUMPI PUSH2 0x94B PUSH2 0x7C5 JUMP JUMPDEST JUMPDEST PUSH0 PUSH2 0x959 DUP6 DUP3 DUP7 ADD PUSH2 0x8D0 JUMP JUMPDEST SWAP3 POP POP PUSH1 0x20 PUSH2 0x96A DUP6 DUP3 DUP7 ADD PUSH2 0x80F JUMP JUMPDEST SWAP2 POP POP SWAP3 POP SWAP3 SWAP1 POP JUMP JUMPDEST PUSH0 DUP1 PUSH1 0x40 DUP4 DUP6 SUB SLT ISZERO PUSH2 0x98A JUMPI PUSH2 0x989 PUSH2 0x7C5 JUMP JUMPDEST JUMPDEST PUSH0 PUSH2 0x997 DUP6 DUP3 DUP7 ADD PUSH2 0x8D0 JUMP JUMPDEST SWAP3 POP POP PUSH1 0x20 PUSH2 0x9A8 DUP6 DUP3 DUP7 ADD PUSH2 0x8D0 JUMP JUMPDEST SWAP2 POP POP SWAP3 POP SWAP3 SWAP1 POP JUMP JUMPDEST PUSH0 DUP3 DUP3 MSTORE PUSH1 0x20 DUP3 ADD SWAP1 POP SWAP3 SWAP2 POP POP JUMP JUMPDEST PUSH32 0x4F6E6C79206D616E616765722063616E20726573657420737461746500000000 PUSH0 DUP3 ADD MSTORE POP JUMP JUMPDEST PUSH0 PUSH2 0x9F6 PUSH1 0x1C DUP4 PUSH2 0x9B2 JUMP JUMPDEST SWAP2 POP PUSH2 0xA01 DUP3 PUSH2 0x9C2 JUMP JUMPDEST PUSH1 0x20 DUP3 ADD SWAP1 POP SWAP2 SWAP1 POP JUMP JUMPDEST PUSH0 PUSH1 0x20 DUP3 ADD SWAP1 POP DUP2 DUP2 SUB PUSH0 DUP4 ADD MSTORE PUSH2 0xA23 DUP2 PUSH2 0x9EA JUMP JUMPDEST SWAP1 POP SWAP2 SWAP1 POP JUMP JUMPDEST PUSH32 0x43616E277420626C6F636B206D6F7265207365617473207468616E2061766169 PUSH0 DUP3 ADD MSTORE PUSH32 0x6C61626C65000000000000000000000000000000000000000000000000000000 PUSH1 0x20 DUP3 ADD MSTORE POP JUMP JUMPDEST PUSH0 PUSH2 0xA84 PUSH1 0x25 DUP4 PUSH2 0x9B2 JUMP JUMPDEST SWAP2 POP PUSH2 0xA8F DUP3 PUSH2 0xA2A JUMP JUMPDEST PUSH1 0x40 DUP3 ADD SWAP1 POP SWAP2 SWAP1 POP JUMP JUMPDEST PUSH0 PUSH1 0x20 DUP3 ADD SWAP1 POP DUP2 DUP2 SUB PUSH0 DUP4 ADD MSTORE PUSH2 0xAB1 DUP2 PUSH2 0xA78 JUMP JUMPDEST SWAP1 POP SWAP2 SWAP1 POP JUMP JUMPDEST PUSH32 0x4E487B7100000000000000000000000000000000000000000000000000000000 PUSH0 MSTORE PUSH1 0x11 PUSH1 0x4 MSTORE PUSH1 0x24 PUSH0 REVERT JUMPDEST PUSH0 PUSH2 0xAEF DUP3 PUSH2 0x794 JUMP JUMPDEST SWAP2 POP PUSH2 0xAFA DUP4 PUSH2 0x794 JUMP JUMPDEST SWAP3 POP DUP3 DUP3 SUB SWAP1 POP DUP2 DUP2 GT ISZERO PUSH2 0xB12 JUMPI PUSH2 0xB11 PUSH2 0xAB8 JUMP JUMPDEST JUMPDEST SWAP3 SWAP2 POP POP JUMP JUMPDEST PUSH32 0x506C65617365207061792066756C6C2070726963650000000000000000000000 PUSH0 DUP3 ADD MSTORE POP JUMP JUMPDEST PUSH0 PUSH2 0xB4C PUSH1 0x15 DUP4 PUSH2 0x9B2 JUMP JUMPDEST SWAP2 POP PUSH2 0xB57 DUP3 PUSH2 0xB18 JUMP JUMPDEST PUSH1 0x20 DUP3 ADD SWAP1 POP SWAP2 SWAP1 POP JUMP JUMPDEST PUSH0 PUSH1 0x20 DUP3 ADD SWAP1 POP DUP2 DUP2 SUB PUSH0 DUP4 ADD MSTORE PUSH2 0xB79 DUP2 PUSH2 0xB40 JUMP JUMPDEST SWAP1 POP SWAP2 SWAP1 POP JUMP JUMPDEST PUSH32 0x4E6F206D6F726520666C696768747320617661696C61626C6500000000000000 PUSH0 DUP3 ADD MSTORE POP JUMP JUMPDEST PUSH0 PUSH2 0xBB4 PUSH1 0x19 DUP4 PUSH2 0x9B2 JUMP JUMPDEST SWAP2 POP PUSH2 0xBBF DUP3 PUSH2 0xB80 JUMP JUMPDEST PUSH1 0x20 DUP3 ADD SWAP1 POP SWAP2 SWAP1 POP JUMP JUMPDEST PUSH0 PUSH1 0x20 DUP3 ADD SWAP1 POP DUP2 DUP2 SUB PUSH0 DUP4 ADD MSTORE PUSH2 0xBE1 DUP2 PUSH2 0xBA8 JUMP JUMPDEST SWAP1 POP SWAP2 SWAP1 POP JUMP JUMPDEST PUSH0 PUSH2 0xBF2 DUP3 PUSH2 0x794 JUMP JUMPDEST SWAP2 POP PUSH2 0xBFD DUP4 PUSH2 0x794 JUMP JUMPDEST SWAP3 POP DUP3 DUP3 ADD SWAP1 POP DUP1 DUP3 GT ISZERO PUSH2 0xC15 JUMPI PUSH2 0xC14 PUSH2 0xAB8 JUMP JUMPDEST JUMPDEST SWAP3 SWAP2 POP POP JUMP INVALID LOG2 PUSH5 0x6970667358 0x22 SLT KECCAK256 NOT 0x4F DUP5 SHR 0xC6 SWAP16 PUSH0 CALLDATALOAD PUSH15 0x6ABCF19D59B43C0E14BA7A217858F5 0xC 0xBE 0xE0 RETURNDATASIZE DUP1 0xBE 0x4D 0xB2 PUSH5 0x736F6C6343 STOP ADDMOD AND STOP CALLER "
				},
				"gasEstimates": {
					"creation": {
						"codeDepositCost": "630600",
						"executionCost": "96293",
						"totalCost": "726893"
					},
					"external": {
						"blockSeats(uint256)": "infinite",
						"bookFlight()": "infinite",
						"checkReservations(address)": "5069",
						"flights()": "infinite",
						"manager()": "2550",
						"numReservations()": "2492",
						"reservations(uint256,address)": "3137",
						"resetState(uint256,uint256)": "infinite",
						"saleIteration()": "2426",
						"transferEarningsToManager()": "infinite"
					}
				},
				"methodIdentifiers": {
					"blockSeats(uint256)": "8664896b",
					"bookFlight()": "95c92c8f",
					"checkReservations(address)": "437b3501",
					"flights()": "ea0863f5",
					"manager()": "481c6a75",
					"numReservations()": "6a68772d",
					"reservations(uint256,address)": "fc7233e1",
					"resetState(uint256,uint256)": "fd42b070",
					"saleIteration()": "2bc8b468",
					"transferEarningsToManager()": "d02c3f45"
				}
			},
			"storageLayout": {
				"storage": [
					{
						"astId": 8,
						"contract": "FlightReservation.sol:FlightReservation",
						"label": "manager",
						"offset": 0,
						"slot": "0",
						"type": "t_address_payable"
					},
					{
						"astId": 11,
						"contract": "FlightReservation.sol:FlightReservation",
						"label": "flights",
						"offset": 0,
						"slot": "1",
						"type": "t_struct(Listing)6_storage"
					},
					{
						"astId": 17,
						"contract": "FlightReservation.sol:FlightReservation",
						"label": "reservations",
						"offset": 0,
						"slot": "3",
						"type": "t_mapping(t_uint256,t_mapping(t_address,t_bool))"
					},
					{
						"astId": 19,
						"contract": "FlightReservation.sol:FlightReservation",
						"label": "numReservations",
						"offset": 0,
						"slot": "4",
						"type": "t_uint256"
					},
					{
						"astId": 21,
						"contract": "FlightReservation.sol:FlightReservation",
						"label": "saleIteration",
						"offset": 0,
						"slot": "5",
						"type": "t_uint256"
					}
				],
				"types": {
					"t_address": {
						"encoding": "inplace",
						"label": "address",
						"numberOfBytes": "20"
					},
					"t_address_payable": {
						"encoding": "inplace",
						"label": "address payable",
						"numberOfBytes": "20"
					},
					"t_bool": {
						"encoding": "inplace",
						"label": "bool",
						"numberOfBytes": "1"
					},
					"t_mapping(t_address,t_bool)": {
						"encoding": "mapping",
						"key": "t_address",
						"label": "mapping(address => bool)",
						"numberOfBytes": "32",
						"value": "t_bool"
					},
					"t_mapping(t_uint256,t_mapping(t_address,t_bool))": {
						"encoding": "mapping",
						"key": "t_uint256",
						"label": "mapping(uint256 => mapping(address => bool))",
						"numberOfBytes": "32",
						"value": "t_mapping(t_address,t_bool)"
					},
					"t_struct(Listing)6_storage": {
						"encoding": "inplace",
						"label": "struct FlightReservation.Listing",
						"members": [
							{
								"astId": 3,
								"contract": "FlightReservation.sol:FlightReservation",
								"label": "availability",
								"offset": 0,
								"slot": "0",
								"type": "t_uint256"
							},
							{
								"astId": 5,
								"contract": "FlightReservation.sol:FlightReservation",
								"label": "price",
								"offset": 0,
								"slot": "1",
								"type": "t_uint256"
							}
						],
						"numberOfBytes": "64"
					},
					"t_uint256": {
						"encoding": "inplace",
						"label": "uint256",
						"numberOfBytes": "32"
					}
				}
			},
			"userdoc": {
				"kind": "user",
				"methods": {},
				"version": 1
			}
		}
	}
}