{
	"USTFaucet_flattened.sol": {
		"USTFaucet": {
			"abi": [
				{
					"inputs": [],
					"stateMutability": "nonpayable",
					"type": "constructor"
				},
				{
					"inputs": [
						{
							"internalType": "address[]",
							"name": "user_list",
							"type": "address[]"
						},
						{
							"internalType": "address",
							"name": "token_address",
							"type": "address"
						}
					],
					"name": "deRegisterUsers",
					"outputs": [],
					"stateMutability": "nonpayable",
					"type": "function"
				},
				{
					"inputs": [
						{
							"internalType": "address",
							"name": "user_address",
							"type": "address"
						},
						{
							"internalType": "address",
							"name": "token_address",
							"type": "address"
						}
					],
					"name": "getLatestRequestTimestamp",
					"outputs": [
						{
							"internalType": "uint256",
							"name": "",
							"type": "uint256"
						}
					],
					"stateMutability": "view",
					"type": "function"
				},
				{
					"inputs": [
						{
							"internalType": "address",
							"name": "user_address",
							"type": "address"
						},
						{
							"internalType": "address",
							"name": "token_address",
							"type": "address"
						}
					],
					"name": "getRegistrationStatus",
					"outputs": [
						{
							"internalType": "bool",
							"name": "",
							"type": "bool"
						}
					],
					"stateMutability": "view",
					"type": "function"
				},
				{
					"inputs": [],
					"name": "manager",
					"outputs": [
						{
							"internalType": "address",
							"name": "",
							"type": "address"
						}
					],
					"stateMutability": "view",
					"type": "function"
				},
				{
					"inputs": [
						{
							"internalType": "address[]",
							"name": "user_list",
							"type": "address[]"
						},
						{
							"internalType": "address",
							"name": "token_address",
							"type": "address"
						}
					],
					"name": "registerUsers",
					"outputs": [],
					"stateMutability": "nonpayable",
					"type": "function"
				},
				{
					"inputs": [
						{
							"internalType": "contract IERC20",
							"name": "token",
							"type": "address"
						}
					],
					"name": "requestTokens",
					"outputs": [],
					"stateMutability": "nonpayable",
					"type": "function"
				},
				{
					"inputs": [
						{
							"internalType": "contract IERC20",
							"name": "token",
							"type": "address"
						}
					],
					"name": "retrieveFaucetAmount",
					"outputs": [
						{
							"internalType": "uint256",
							"name": "",
							"type": "uint256"
						}
					],
					"stateMutability": "view",
					"type": "function"
				},
				{
					"inputs": [
						{
							"internalType": "contract IERC20",
							"name": "token",
							"type": "address"
						}
					],
					"name": "retrieveFaucetBalance",
					"outputs": [
						{
							"internalType": "uint256",
							"name": "",
							"type": "uint256"
						}
					],
					"stateMutability": "view",
					"type": "function"
				},
				{
					"inputs": [
						{
							"internalType": "address",
							"name": "token_address",
							"type": "address"
						},
						{
							"internalType": "uint256",
							"name": "value",
							"type": "uint256"
						}
					],
					"name": "set_faucet_amount",
					"outputs": [],
					"stateMutability": "nonpayable",
					"type": "function"
				}
			],
			"devdoc": {
				"kind": "dev",
				"methods": {},
				"version": 1
			},
			"evm": {
				"assembly": "    /* \"USTFaucet_flattened.sol\":3067:5998  contract USTFaucet {... */\n  mstore(0x40, 0x80)\n    /* \"USTFaucet_flattened.sol\":3426:3483  constructor() {... */\n  callvalue\n  dup1\n  iszero\n  tag_1\n  jumpi\n  0x00\n  dup1\n  revert\ntag_1:\n  pop\n    /* \"USTFaucet_flattened.sol\":3461:3471  msg.sender */\n  caller\n    /* \"USTFaucet_flattened.sol\":3451:3458  manager */\n  0x00\n  dup1\n    /* \"USTFaucet_flattened.sol\":3451:3471  manager = msg.sender */\n  0x0100\n  exp\n  dup2\n  sload\n  dup2\n  0xffffffffffffffffffffffffffffffffffffffff\n  mul\n  not\n  and\n  swap1\n  dup4\n  0xffffffffffffffffffffffffffffffffffffffff\n  and\n  mul\n  or\n  swap1\n  sstore\n  pop\n    /* \"USTFaucet_flattened.sol\":3067:5998  contract USTFaucet {... */\n  dataSize(sub_0)\n  dup1\n  dataOffset(sub_0)\n  0x00\n  codecopy\n  0x00\n  return\nstop\n\nsub_0: assembly {\n        /* \"USTFaucet_flattened.sol\":3067:5998  contract USTFaucet {... */\n      mstore(0x40, 0x80)\n      callvalue\n      dup1\n      iszero\n      tag_1\n      jumpi\n      0x00\n      dup1\n      revert\n    tag_1:\n      pop\n      jumpi(tag_2, lt(calldatasize, 0x04))\n      shr(0xe0, calldataload(0x00))\n      dup1\n      0x580f3904\n      gt\n      tag_12\n      jumpi\n      dup1\n      0x580f3904\n      eq\n      tag_7\n      jumpi\n      dup1\n      0x5a942a98\n      eq\n      tag_8\n      jumpi\n      dup1\n      0x63f066c9\n      eq\n      tag_9\n      jumpi\n      dup1\n      0x95d3113a\n      eq\n      tag_10\n      jumpi\n      dup1\n      0x9e14cb3d\n      eq\n      tag_11\n      jumpi\n      jump(tag_2)\n    tag_12:\n      dup1\n      0x0ff6aab3\n      eq\n      tag_3\n      jumpi\n      dup1\n      0x3384af57\n      eq\n      tag_4\n      jumpi\n      dup1\n      0x44569bec\n      eq\n      tag_5\n      jumpi\n      dup1\n      0x481c6a75\n      eq\n      tag_6\n      jumpi\n    tag_2:\n      0x00\n      dup1\n      revert\n        /* \"USTFaucet_flattened.sol\":5800:5993  function getLatestRequestTimestamp(address user_address, address token_address) public view returns(uint){... */\n    tag_3:\n      tag_13\n      0x04\n      dup1\n      calldatasize\n      sub\n      dup2\n      add\n      swap1\n      tag_14\n      swap2\n      swap1\n      tag_15\n      jump\t// in\n    tag_14:\n      tag_16\n      jump\t// in\n    tag_13:\n      mload(0x40)\n      tag_17\n      swap2\n      swap1\n      tag_18\n      jump\t// in\n    tag_17:\n      mload(0x40)\n      dup1\n      swap2\n      sub\n      swap1\n      return\n        /* \"USTFaucet_flattened.sol\":3737:4081  function registerUsers(address[] calldata user_list, address token_address) public {... */\n    tag_4:\n      tag_19\n      0x04\n      dup1\n      calldatasize\n      sub\n      dup2\n      add\n      swap1\n      tag_20\n      swap2\n      swap1\n      tag_21\n      jump\t// in\n    tag_20:\n      tag_22\n      jump\t// in\n    tag_19:\n      stop\n        /* \"USTFaucet_flattened.sol\":5462:5591  function retrieveFaucetBalance(IERC20 token) public view returns(uint256){... */\n    tag_5:\n      tag_23\n      0x04\n      dup1\n      calldatasize\n      sub\n      dup2\n      add\n      swap1\n      tag_24\n      swap2\n      swap1\n      tag_25\n      jump\t// in\n    tag_24:\n      tag_26\n      jump\t// in\n    tag_23:\n      mload(0x40)\n      tag_27\n      swap2\n      swap1\n      tag_18\n      jump\t// in\n    tag_27:\n      mload(0x40)\n      dup1\n      swap2\n      sub\n      swap1\n      return\n        /* \"USTFaucet_flattened.sol\":3236:3258  address public manager */\n    tag_6:\n      tag_28\n      tag_29\n      jump\t// in\n    tag_28:\n      mload(0x40)\n      tag_30\n      swap2\n      swap1\n      tag_31\n      jump\t// in\n    tag_30:\n      mload(0x40)\n      dup1\n      swap2\n      sub\n      swap1\n      return\n        /* \"USTFaucet_flattened.sol\":4446:5319  function requestTokens(IERC20 token) public {... */\n    tag_7:\n      tag_32\n      0x04\n      dup1\n      calldatasize\n      sub\n      dup2\n      add\n      swap1\n      tag_33\n      swap2\n      swap1\n      tag_25\n      jump\t// in\n    tag_33:\n      tag_34\n      jump\t// in\n    tag_32:\n      stop\n        /* \"USTFaucet_flattened.sol\":5327:5454  function retrieveFaucetAmount(IERC20 token) public view returns(uint256){... */\n    tag_8:\n      tag_35\n      0x04\n      dup1\n      calldatasize\n      sub\n      dup2\n      add\n      swap1\n      tag_36\n      swap2\n      swap1\n      tag_25\n      jump\t// in\n    tag_36:\n      tag_37\n      jump\t// in\n    tag_35:\n      mload(0x40)\n      tag_38\n      swap2\n      swap1\n      tag_18\n      jump\t// in\n    tag_38:\n      mload(0x40)\n      dup1\n      swap2\n      sub\n      swap1\n      return\n        /* \"USTFaucet_flattened.sol\":4089:4438  function deRegisterUsers(address[] calldata user_list, address token_address) public {... */\n    tag_9:\n      tag_39\n      0x04\n      dup1\n      calldatasize\n      sub\n      dup2\n      add\n      swap1\n      tag_40\n      swap2\n      swap1\n      tag_21\n      jump\t// in\n    tag_40:\n      tag_41\n      jump\t// in\n    tag_39:\n      stop\n        /* \"USTFaucet_flattened.sol\":5599:5792  function getRegistrationStatus(address user_address, address token_address) public view returns(bool){... */\n    tag_10:\n      tag_42\n      0x04\n      dup1\n      calldatasize\n      sub\n      dup2\n      add\n      swap1\n      tag_43\n      swap2\n      swap1\n      tag_15\n      jump\t// in\n    tag_43:\n      tag_44\n      jump\t// in\n    tag_42:\n      mload(0x40)\n      tag_45\n      swap2\n      swap1\n      tag_46\n      jump\t// in\n    tag_45:\n      mload(0x40)\n      dup1\n      swap2\n      sub\n      swap1\n      return\n        /* \"USTFaucet_flattened.sol\":3491:3729  function set_faucet_amount(address token_address, uint256 value) public {... */\n    tag_11:\n      tag_47\n      0x04\n      dup1\n      calldatasize\n      sub\n      dup2\n      add\n      swap1\n      tag_48\n      swap2\n      swap1\n      tag_49\n      jump\t// in\n    tag_48:\n      tag_50\n      jump\t// in\n    tag_47:\n      stop\n        /* \"USTFaucet_flattened.sol\":5800:5993  function getLatestRequestTimestamp(address user_address, address token_address) public view returns(uint){... */\n    tag_16:\n        /* \"USTFaucet_flattened.sol\":5900:5904  uint */\n      0x00\n        /* \"USTFaucet_flattened.sol\":5923:5941  user_token_mapping */\n      0x01\n        /* \"USTFaucet_flattened.sol\":5923:5955  user_token_mapping[user_address] */\n      0x00\n        /* \"USTFaucet_flattened.sol\":5942:5954  user_address */\n      dup5\n        /* \"USTFaucet_flattened.sol\":5923:5955  user_token_mapping[user_address] */\n      0xffffffffffffffffffffffffffffffffffffffff\n      and\n      0xffffffffffffffffffffffffffffffffffffffff\n      and\n      dup2\n      mstore\n      0x20\n      add\n      swap1\n      dup2\n      mstore\n      0x20\n      add\n      0x00\n      keccak256\n        /* \"USTFaucet_flattened.sol\":5923:5970  user_token_mapping[user_address].latest_request */\n      0x00\n      add\n        /* \"USTFaucet_flattened.sol\":5923:5985  user_token_mapping[user_address].latest_request[token_address] */\n      0x00\n        /* \"USTFaucet_flattened.sol\":5971:5984  token_address */\n      dup4\n        /* \"USTFaucet_flattened.sol\":5923:5985  user_token_mapping[user_address].latest_request[token_address] */\n      0xffffffffffffffffffffffffffffffffffffffff\n      and\n      0xffffffffffffffffffffffffffffffffffffffff\n      and\n      dup2\n      mstore\n      0x20\n      add\n      swap1\n      dup2\n      mstore\n      0x20\n      add\n      0x00\n      keccak256\n      sload\n        /* \"USTFaucet_flattened.sol\":5916:5985  return user_token_mapping[user_address].latest_request[token_address] */\n      swap1\n      pop\n        /* \"USTFaucet_flattened.sol\":5800:5993  function getLatestRequestTimestamp(address user_address, address token_address) public view returns(uint){... */\n      swap3\n      swap2\n      pop\n      pop\n      jump\t// out\n        /* \"USTFaucet_flattened.sol\":3737:4081  function registerUsers(address[] calldata user_list, address token_address) public {... */\n    tag_22:\n        /* \"USTFaucet_flattened.sol\":3867:3874  manager */\n      0x00\n      dup1\n      sload\n      swap1\n      0x0100\n      exp\n      swap1\n      div\n      0xffffffffffffffffffffffffffffffffffffffff\n      and\n        /* \"USTFaucet_flattened.sol\":3853:3874  msg.sender == manager */\n      0xffffffffffffffffffffffffffffffffffffffff\n      and\n        /* \"USTFaucet_flattened.sol\":3853:3863  msg.sender */\n      caller\n        /* \"USTFaucet_flattened.sol\":3853:3874  msg.sender == manager */\n      0xffffffffffffffffffffffffffffffffffffffff\n      and\n      eq\n        /* \"USTFaucet_flattened.sol\":3831:3933  require(... */\n      tag_53\n      jumpi\n      mload(0x40)\n      0x08c379a000000000000000000000000000000000000000000000000000000000\n      dup2\n      mstore\n      0x04\n      add\n      tag_54\n      swap1\n      tag_55\n      jump\t// in\n    tag_54:\n      mload(0x40)\n      dup1\n      swap2\n      sub\n      swap1\n      revert\n    tag_53:\n        /* \"USTFaucet_flattened.sol\":3948:3957  uint256 i */\n      0x00\n        /* \"USTFaucet_flattened.sol\":3944:4073  for(uint256 i=0; i< user_list.length; i++)... */\n    tag_56:\n        /* \"USTFaucet_flattened.sol\":3964:3973  user_list */\n      dup4\n      dup4\n        /* \"USTFaucet_flattened.sol\":3964:3980  user_list.length */\n      swap1\n      pop\n        /* \"USTFaucet_flattened.sol\":3961:3962  i */\n      dup2\n        /* \"USTFaucet_flattened.sol\":3961:3980  i< user_list.length */\n      lt\n        /* \"USTFaucet_flattened.sol\":3944:4073  for(uint256 i=0; i< user_list.length; i++)... */\n      iszero\n      tag_57\n      jumpi\n        /* \"USTFaucet_flattened.sol\":4069:4073  true */\n      0x01\n        /* \"USTFaucet_flattened.sol\":4000:4018  user_token_mapping */\n      dup1\n        /* \"USTFaucet_flattened.sol\":4000:4032  user_token_mapping[user_list[i]] */\n      0x00\n        /* \"USTFaucet_flattened.sol\":4019:4028  user_list */\n      dup7\n      dup7\n        /* \"USTFaucet_flattened.sol\":4029:4030  i */\n      dup6\n        /* \"USTFaucet_flattened.sol\":4019:4031  user_list[i] */\n      dup2\n      dup2\n      lt\n      tag_59\n      jumpi\n      tag_60\n      tag_61\n      jump\t// in\n    tag_60:\n    tag_59:\n      swap1\n      pop\n      0x20\n      mul\n      add\n      0x20\n      dup2\n      add\n      swap1\n      tag_62\n      swap2\n      swap1\n      tag_63\n      jump\t// in\n    tag_62:\n        /* \"USTFaucet_flattened.sol\":4000:4032  user_token_mapping[user_list[i]] */\n      0xffffffffffffffffffffffffffffffffffffffff\n      and\n      0xffffffffffffffffffffffffffffffffffffffff\n      and\n      dup2\n      mstore\n      0x20\n      add\n      swap1\n      dup2\n      mstore\n      0x20\n      add\n      0x00\n      keccak256\n        /* \"USTFaucet_flattened.sol\":4000:4051  user_token_mapping[user_list[i]].request_permission */\n      0x01\n      add\n        /* \"USTFaucet_flattened.sol\":4000:4066  user_token_mapping[user_list[i]].request_permission[token_address] */\n      0x00\n        /* \"USTFaucet_flattened.sol\":4052:4065  token_address */\n      dup5\n        /* \"USTFaucet_flattened.sol\":4000:4066  user_token_mapping[user_list[i]].request_permission[token_address] */\n      0xffffffffffffffffffffffffffffffffffffffff\n      and\n      0xffffffffffffffffffffffffffffffffffffffff\n      and\n      dup2\n      mstore\n      0x20\n      add\n      swap1\n      dup2\n      mstore\n      0x20\n      add\n      0x00\n      keccak256\n      0x00\n        /* \"USTFaucet_flattened.sol\":4000:4073  user_token_mapping[user_list[i]].request_permission[token_address] = true */\n      0x0100\n      exp\n      dup2\n      sload\n      dup2\n      0xff\n      mul\n      not\n      and\n      swap1\n      dup4\n      iszero\n      iszero\n      mul\n      or\n      swap1\n      sstore\n      pop\n        /* \"USTFaucet_flattened.sol\":3982:3985  i++ */\n      dup1\n      dup1\n      0x01\n      add\n      swap2\n      pop\n      pop\n        /* \"USTFaucet_flattened.sol\":3944:4073  for(uint256 i=0; i< user_list.length; i++)... */\n      jump(tag_56)\n    tag_57:\n      pop\n        /* \"USTFaucet_flattened.sol\":3737:4081  function registerUsers(address[] calldata user_list, address token_address) public {... */\n      pop\n      pop\n      pop\n      jump\t// out\n        /* \"USTFaucet_flattened.sol\":5462:5591  function retrieveFaucetBalance(IERC20 token) public view returns(uint256){... */\n    tag_26:\n        /* \"USTFaucet_flattened.sol\":5527:5534  uint256 */\n      0x00\n        /* \"USTFaucet_flattened.sol\":5553:5558  token */\n      dup2\n        /* \"USTFaucet_flattened.sol\":5553:5568  token.balanceOf */\n      0xffffffffffffffffffffffffffffffffffffffff\n      and\n      0x70a08231\n        /* \"USTFaucet_flattened.sol\":5577:5581  this */\n      address\n        /* \"USTFaucet_flattened.sol\":5553:5583  token.balanceOf(address(this)) */\n      mload(0x40)\n      dup3\n      0xffffffff\n      and\n      0xe0\n      shl\n      dup2\n      mstore\n      0x04\n      add\n      tag_65\n      swap2\n      swap1\n      tag_31\n      jump\t// in\n    tag_65:\n      0x20\n      mload(0x40)\n      dup1\n      dup4\n      sub\n      dup2\n      dup7\n      gas\n      staticcall\n      iszero\n      dup1\n      iszero\n      tag_67\n      jumpi\n      returndatasize\n      0x00\n      dup1\n      returndatacopy\n      revert(0x00, returndatasize)\n    tag_67:\n      pop\n      pop\n      pop\n      pop\n      mload(0x40)\n      returndatasize\n      not(0x1f)\n      0x1f\n      dup3\n      add\n      and\n      dup3\n      add\n      dup1\n      0x40\n      mstore\n      pop\n      dup2\n      add\n      swap1\n      tag_68\n      swap2\n      swap1\n      tag_69\n      jump\t// in\n    tag_68:\n        /* \"USTFaucet_flattened.sol\":5546:5583  return token.balanceOf(address(this)) */\n      swap1\n      pop\n        /* \"USTFaucet_flattened.sol\":5462:5591  function retrieveFaucetBalance(IERC20 token) public view returns(uint256){... */\n      swap2\n      swap1\n      pop\n      jump\t// out\n        /* \"USTFaucet_flattened.sol\":3236:3258  address public manager */\n    tag_29:\n      0x00\n      dup1\n      sload\n      swap1\n      0x0100\n      exp\n      swap1\n      div\n      0xffffffffffffffffffffffffffffffffffffffff\n      and\n      dup2\n      jump\t// out\n        /* \"USTFaucet_flattened.sol\":4446:5319  function requestTokens(IERC20 token) public {... */\n    tag_34:\n        /* \"USTFaucet_flattened.sol\":4592:4596  true */\n      0x01\n        /* \"USTFaucet_flattened.sol\":4523:4596  user_token_mapping[msg.sender].request_permission[address(token)] == true */\n      iszero\n      iszero\n        /* \"USTFaucet_flattened.sol\":4523:4541  user_token_mapping */\n      0x01\n        /* \"USTFaucet_flattened.sol\":4523:4553  user_token_mapping[msg.sender] */\n      0x00\n        /* \"USTFaucet_flattened.sol\":4542:4552  msg.sender */\n      caller\n        /* \"USTFaucet_flattened.sol\":4523:4553  user_token_mapping[msg.sender] */\n      0xffffffffffffffffffffffffffffffffffffffff\n      and\n      0xffffffffffffffffffffffffffffffffffffffff\n      and\n      dup2\n      mstore\n      0x20\n      add\n      swap1\n      dup2\n      mstore\n      0x20\n      add\n      0x00\n      keccak256\n        /* \"USTFaucet_flattened.sol\":4523:4572  user_token_mapping[msg.sender].request_permission */\n      0x01\n      add\n        /* \"USTFaucet_flattened.sol\":4523:4588  user_token_mapping[msg.sender].request_permission[address(token)] */\n      0x00\n        /* \"USTFaucet_flattened.sol\":4581:4586  token */\n      dup4\n        /* \"USTFaucet_flattened.sol\":4523:4588  user_token_mapping[msg.sender].request_permission[address(token)] */\n      0xffffffffffffffffffffffffffffffffffffffff\n      and\n      0xffffffffffffffffffffffffffffffffffffffff\n      and\n      dup2\n      mstore\n      0x20\n      add\n      swap1\n      dup2\n      mstore\n      0x20\n      add\n      0x00\n      keccak256\n      0x00\n      swap1\n      sload\n      swap1\n      0x0100\n      exp\n      swap1\n      div\n      0xff\n      and\n        /* \"USTFaucet_flattened.sol\":4523:4596  user_token_mapping[msg.sender].request_permission[address(token)] == true */\n      iszero\n      iszero\n      eq\n        /* \"USTFaucet_flattened.sol\":4501:4666  require(... */\n      tag_71\n      jumpi\n      mload(0x40)\n      0x08c379a000000000000000000000000000000000000000000000000000000000\n      dup2\n      mstore\n      0x04\n      add\n      tag_72\n      swap1\n      tag_73\n      jump\t// in\n    tag_72:\n      mload(0x40)\n      dup1\n      swap2\n      sub\n      swap1\n      revert\n    tag_71:\n        /* \"USTFaucet_flattened.sol\":4782:4787  86400 */\n      0x015180\n        /* \"USTFaucet_flattened.sol\":4764:4779  block.timestamp */\n      timestamp\n        /* \"USTFaucet_flattened.sol\":4764:4787  block.timestamp - 86400 */\n      tag_74\n      swap2\n      swap1\n      tag_75\n      jump\t// in\n    tag_74:\n        /* \"USTFaucet_flattened.sol\":4699:4717  user_token_mapping */\n      0x01\n        /* \"USTFaucet_flattened.sol\":4699:4729  user_token_mapping[msg.sender] */\n      0x00\n        /* \"USTFaucet_flattened.sol\":4718:4728  msg.sender */\n      caller\n        /* \"USTFaucet_flattened.sol\":4699:4729  user_token_mapping[msg.sender] */\n      0xffffffffffffffffffffffffffffffffffffffff\n      and\n      0xffffffffffffffffffffffffffffffffffffffff\n      and\n      dup2\n      mstore\n      0x20\n      add\n      swap1\n      dup2\n      mstore\n      0x20\n      add\n      0x00\n      keccak256\n        /* \"USTFaucet_flattened.sol\":4699:4744  user_token_mapping[msg.sender].latest_request */\n      0x00\n      add\n        /* \"USTFaucet_flattened.sol\":4699:4760  user_token_mapping[msg.sender].latest_request[address(token)] */\n      0x00\n        /* \"USTFaucet_flattened.sol\":4753:4758  token */\n      dup4\n        /* \"USTFaucet_flattened.sol\":4699:4760  user_token_mapping[msg.sender].latest_request[address(token)] */\n      0xffffffffffffffffffffffffffffffffffffffff\n      and\n      0xffffffffffffffffffffffffffffffffffffffff\n      and\n      dup2\n      mstore\n      0x20\n      add\n      swap1\n      dup2\n      mstore\n      0x20\n      add\n      0x00\n      keccak256\n      sload\n        /* \"USTFaucet_flattened.sol\":4699:4787  user_token_mapping[msg.sender].latest_request[address(token)] <= block.timestamp - 86400 */\n      gt\n      iszero\n        /* \"USTFaucet_flattened.sol\":4677:4840  require(... */\n      tag_76\n      jumpi\n      mload(0x40)\n      0x08c379a000000000000000000000000000000000000000000000000000000000\n      dup2\n      mstore\n      0x04\n      add\n      tag_77\n      swap1\n      tag_78\n      jump\t// in\n    tag_77:\n      mload(0x40)\n      dup1\n      swap2\n      sub\n      swap1\n      revert\n    tag_76:\n        /* \"USTFaucet_flattened.sol\":4903:4904  0 */\n      0x00\n        /* \"USTFaucet_flattened.sol\":4873:4886  faucet_amount */\n      0x02\n        /* \"USTFaucet_flattened.sol\":4873:4902  faucet_amount[address(token)] */\n      0x00\n        /* \"USTFaucet_flattened.sol\":4895:4900  token */\n      dup4\n        /* \"USTFaucet_flattened.sol\":4873:4902  faucet_amount[address(token)] */\n      0xffffffffffffffffffffffffffffffffffffffff\n      and\n      0xffffffffffffffffffffffffffffffffffffffff\n      and\n      dup2\n      mstore\n      0x20\n      add\n      swap1\n      dup2\n      mstore\n      0x20\n      add\n      0x00\n      keccak256\n      sload\n        /* \"USTFaucet_flattened.sol\":4873:4904  faucet_amount[address(token)]>0 */\n      gt\n        /* \"USTFaucet_flattened.sol\":4851:4980  require(... */\n      tag_79\n      jumpi\n      mload(0x40)\n      0x08c379a000000000000000000000000000000000000000000000000000000000\n      dup2\n      mstore\n      0x04\n      add\n      tag_80\n      swap1\n      tag_81\n      jump\t// in\n    tag_80:\n      mload(0x40)\n      dup1\n      swap2\n      sub\n      swap1\n      revert\n    tag_79:\n        /* \"USTFaucet_flattened.sol\":5045:5058  faucet_amount */\n      0x02\n        /* \"USTFaucet_flattened.sol\":5045:5074  faucet_amount[address(token)] */\n      0x00\n        /* \"USTFaucet_flattened.sol\":5067:5072  token */\n      dup3\n        /* \"USTFaucet_flattened.sol\":5045:5074  faucet_amount[address(token)] */\n      0xffffffffffffffffffffffffffffffffffffffff\n      and\n      0xffffffffffffffffffffffffffffffffffffffff\n      and\n      dup2\n      mstore\n      0x20\n      add\n      swap1\n      dup2\n      mstore\n      0x20\n      add\n      0x00\n      keccak256\n      sload\n        /* \"USTFaucet_flattened.sol\":5013:5018  token */\n      dup2\n        /* \"USTFaucet_flattened.sol\":5013:5028  token.balanceOf */\n      0xffffffffffffffffffffffffffffffffffffffff\n      and\n      0x70a08231\n        /* \"USTFaucet_flattened.sol\":5037:5041  this */\n      address\n        /* \"USTFaucet_flattened.sol\":5013:5043  token.balanceOf(address(this)) */\n      mload(0x40)\n      dup3\n      0xffffffff\n      and\n      0xe0\n      shl\n      dup2\n      mstore\n      0x04\n      add\n      tag_82\n      swap2\n      swap1\n      tag_31\n      jump\t// in\n    tag_82:\n      0x20\n      mload(0x40)\n      dup1\n      dup4\n      sub\n      dup2\n      dup7\n      gas\n      staticcall\n      iszero\n      dup1\n      iszero\n      tag_84\n      jumpi\n      returndatasize\n      0x00\n      dup1\n      returndatacopy\n      revert(0x00, returndatasize)\n    tag_84:\n      pop\n      pop\n      pop\n      pop\n      mload(0x40)\n      returndatasize\n      not(0x1f)\n      0x1f\n      dup3\n      add\n      and\n      dup3\n      add\n      dup1\n      0x40\n      mstore\n      pop\n      dup2\n      add\n      swap1\n      tag_85\n      swap2\n      swap1\n      tag_69\n      jump\t// in\n    tag_85:\n        /* \"USTFaucet_flattened.sol\":5013:5074  token.balanceOf(address(this))>=faucet_amount[address(token)] */\n      lt\n      iszero\n        /* \"USTFaucet_flattened.sol\":4991:5154  require(... */\n      tag_86\n      jumpi\n      mload(0x40)\n      0x08c379a000000000000000000000000000000000000000000000000000000000\n      dup2\n      mstore\n      0x04\n      add\n      tag_87\n      swap1\n      tag_88\n      jump\t// in\n    tag_87:\n      mload(0x40)\n      dup1\n      swap2\n      sub\n      swap1\n      revert\n    tag_86:\n        /* \"USTFaucet_flattened.sol\":5165:5170  token */\n      dup1\n        /* \"USTFaucet_flattened.sol\":5165:5179  token.transfer */\n      0xffffffffffffffffffffffffffffffffffffffff\n      and\n      0xa9059cbb\n        /* \"USTFaucet_flattened.sol\":5180:5190  msg.sender */\n      caller\n        /* \"USTFaucet_flattened.sol\":5191:5204  faucet_amount */\n      0x02\n        /* \"USTFaucet_flattened.sol\":5191:5220  faucet_amount[address(token)] */\n      0x00\n        /* \"USTFaucet_flattened.sol\":5213:5218  token */\n      dup6\n        /* \"USTFaucet_flattened.sol\":5191:5220  faucet_amount[address(token)] */\n      0xffffffffffffffffffffffffffffffffffffffff\n      and\n      0xffffffffffffffffffffffffffffffffffffffff\n      and\n      dup2\n      mstore\n      0x20\n      add\n      swap1\n      dup2\n      mstore\n      0x20\n      add\n      0x00\n      keccak256\n      sload\n        /* \"USTFaucet_flattened.sol\":5165:5221  token.transfer(msg.sender,faucet_amount[address(token)]) */\n      mload(0x40)\n      dup4\n      0xffffffff\n      and\n      0xe0\n      shl\n      dup2\n      mstore\n      0x04\n      add\n      tag_89\n      swap3\n      swap2\n      swap1\n      tag_90\n      jump\t// in\n    tag_89:\n      0x20\n      mload(0x40)\n      dup1\n      dup4\n      sub\n      dup2\n      0x00\n      dup8\n      gas\n      call\n      iszero\n      dup1\n      iszero\n      tag_92\n      jumpi\n      returndatasize\n      0x00\n      dup1\n      returndatacopy\n      revert(0x00, returndatasize)\n    tag_92:\n      pop\n      pop\n      pop\n      pop\n      mload(0x40)\n      returndatasize\n      not(0x1f)\n      0x1f\n      dup3\n      add\n      and\n      dup3\n      add\n      dup1\n      0x40\n      mstore\n      pop\n      dup2\n      add\n      swap1\n      tag_93\n      swap2\n      swap1\n      tag_94\n      jump\t// in\n    tag_93:\n      pop\n        /* \"USTFaucet_flattened.sol\":5296:5311  block.timestamp */\n      timestamp\n        /* \"USTFaucet_flattened.sol\":5232:5250  user_token_mapping */\n      0x01\n        /* \"USTFaucet_flattened.sol\":5232:5262  user_token_mapping[msg.sender] */\n      0x00\n        /* \"USTFaucet_flattened.sol\":5251:5261  msg.sender */\n      caller\n        /* \"USTFaucet_flattened.sol\":5232:5262  user_token_mapping[msg.sender] */\n      0xffffffffffffffffffffffffffffffffffffffff\n      and\n      0xffffffffffffffffffffffffffffffffffffffff\n      and\n      dup2\n      mstore\n      0x20\n      add\n      swap1\n      dup2\n      mstore\n      0x20\n      add\n      0x00\n      keccak256\n        /* \"USTFaucet_flattened.sol\":5232:5277  user_token_mapping[msg.sender].latest_request */\n      0x00\n      add\n        /* \"USTFaucet_flattened.sol\":5232:5293  user_token_mapping[msg.sender].latest_request[address(token)] */\n      0x00\n        /* \"USTFaucet_flattened.sol\":5286:5291  token */\n      dup4\n        /* \"USTFaucet_flattened.sol\":5232:5293  user_token_mapping[msg.sender].latest_request[address(token)] */\n      0xffffffffffffffffffffffffffffffffffffffff\n      and\n      0xffffffffffffffffffffffffffffffffffffffff\n      and\n      dup2\n      mstore\n      0x20\n      add\n      swap1\n      dup2\n      mstore\n      0x20\n      add\n      0x00\n      keccak256\n        /* \"USTFaucet_flattened.sol\":5232:5311  user_token_mapping[msg.sender].latest_request[address(token)] = block.timestamp */\n      dup2\n      swap1\n      sstore\n      pop\n        /* \"USTFaucet_flattened.sol\":4446:5319  function requestTokens(IERC20 token) public {... */\n      pop\n      jump\t// out\n        /* \"USTFaucet_flattened.sol\":5327:5454  function retrieveFaucetAmount(IERC20 token) public view returns(uint256){... */\n    tag_37:\n        /* \"USTFaucet_flattened.sol\":5391:5398  uint256 */\n      0x00\n        /* \"USTFaucet_flattened.sol\":5417:5430  faucet_amount */\n      0x02\n        /* \"USTFaucet_flattened.sol\":5417:5446  faucet_amount[address(token)] */\n      0x00\n        /* \"USTFaucet_flattened.sol\":5439:5444  token */\n      dup4\n        /* \"USTFaucet_flattened.sol\":5417:5446  faucet_amount[address(token)] */\n      0xffffffffffffffffffffffffffffffffffffffff\n      and\n      0xffffffffffffffffffffffffffffffffffffffff\n      and\n      dup2\n      mstore\n      0x20\n      add\n      swap1\n      dup2\n      mstore\n      0x20\n      add\n      0x00\n      keccak256\n      sload\n        /* \"USTFaucet_flattened.sol\":5410:5446  return faucet_amount[address(token)] */\n      swap1\n      pop\n        /* \"USTFaucet_flattened.sol\":5327:5454  function retrieveFaucetAmount(IERC20 token) public view returns(uint256){... */\n      swap2\n      swap1\n      pop\n      jump\t// out\n        /* \"USTFaucet_flattened.sol\":4089:4438  function deRegisterUsers(address[] calldata user_list, address token_address) public {... */\n    tag_41:\n        /* \"USTFaucet_flattened.sol\":4221:4228  manager */\n      0x00\n      dup1\n      sload\n      swap1\n      0x0100\n      exp\n      swap1\n      div\n      0xffffffffffffffffffffffffffffffffffffffff\n      and\n        /* \"USTFaucet_flattened.sol\":4207:4228  msg.sender == manager */\n      0xffffffffffffffffffffffffffffffffffffffff\n      and\n        /* \"USTFaucet_flattened.sol\":4207:4217  msg.sender */\n      caller\n        /* \"USTFaucet_flattened.sol\":4207:4228  msg.sender == manager */\n      0xffffffffffffffffffffffffffffffffffffffff\n      and\n      eq\n        /* \"USTFaucet_flattened.sol\":4185:4289  require(... */\n      tag_97\n      jumpi\n      mload(0x40)\n      0x08c379a000000000000000000000000000000000000000000000000000000000\n      dup2\n      mstore\n      0x04\n      add\n      tag_98\n      swap1\n      tag_99\n      jump\t// in\n    tag_98:\n      mload(0x40)\n      dup1\n      swap2\n      sub\n      swap1\n      revert\n    tag_97:\n        /* \"USTFaucet_flattened.sol\":4304:4313  uint256 i */\n      0x00\n        /* \"USTFaucet_flattened.sol\":4300:4430  for(uint256 i=0; i< user_list.length; i++)... */\n    tag_100:\n        /* \"USTFaucet_flattened.sol\":4320:4329  user_list */\n      dup4\n      dup4\n        /* \"USTFaucet_flattened.sol\":4320:4336  user_list.length */\n      swap1\n      pop\n        /* \"USTFaucet_flattened.sol\":4317:4318  i */\n      dup2\n        /* \"USTFaucet_flattened.sol\":4317:4336  i< user_list.length */\n      lt\n        /* \"USTFaucet_flattened.sol\":4300:4430  for(uint256 i=0; i< user_list.length; i++)... */\n      iszero\n      tag_101\n      jumpi\n        /* \"USTFaucet_flattened.sol\":4425:4430  false */\n      0x00\n        /* \"USTFaucet_flattened.sol\":4356:4374  user_token_mapping */\n      0x01\n        /* \"USTFaucet_flattened.sol\":4356:4388  user_token_mapping[user_list[i]] */\n      0x00\n        /* \"USTFaucet_flattened.sol\":4375:4384  user_list */\n      dup7\n      dup7\n        /* \"USTFaucet_flattened.sol\":4385:4386  i */\n      dup6\n        /* \"USTFaucet_flattened.sol\":4375:4387  user_list[i] */\n      dup2\n      dup2\n      lt\n      tag_103\n      jumpi\n      tag_104\n      tag_61\n      jump\t// in\n    tag_104:\n    tag_103:\n      swap1\n      pop\n      0x20\n      mul\n      add\n      0x20\n      dup2\n      add\n      swap1\n      tag_105\n      swap2\n      swap1\n      tag_63\n      jump\t// in\n    tag_105:\n        /* \"USTFaucet_flattened.sol\":4356:4388  user_token_mapping[user_list[i]] */\n      0xffffffffffffffffffffffffffffffffffffffff\n      and\n      0xffffffffffffffffffffffffffffffffffffffff\n      and\n      dup2\n      mstore\n      0x20\n      add\n      swap1\n      dup2\n      mstore\n      0x20\n      add\n      0x00\n      keccak256\n        /* \"USTFaucet_flattened.sol\":4356:4407  user_token_mapping[user_list[i]].request_permission */\n      0x01\n      add\n        /* \"USTFaucet_flattened.sol\":4356:4422  user_token_mapping[user_list[i]].request_permission[token_address] */\n      0x00\n        /* \"USTFaucet_flattened.sol\":4408:4421  token_address */\n      dup5\n        /* \"USTFaucet_flattened.sol\":4356:4422  user_token_mapping[user_list[i]].request_permission[token_address] */\n      0xffffffffffffffffffffffffffffffffffffffff\n      and\n      0xffffffffffffffffffffffffffffffffffffffff\n      and\n      dup2\n      mstore\n      0x20\n      add\n      swap1\n      dup2\n      mstore\n      0x20\n      add\n      0x00\n      keccak256\n      0x00\n        /* \"USTFaucet_flattened.sol\":4356:4430  user_token_mapping[user_list[i]].request_permission[token_address] = false */\n      0x0100\n      exp\n      dup2\n      sload\n      dup2\n      0xff\n      mul\n      not\n      and\n      swap1\n      dup4\n      iszero\n      iszero\n      mul\n      or\n      swap1\n      sstore\n      pop\n        /* \"USTFaucet_flattened.sol\":4338:4341  i++ */\n      dup1\n      dup1\n      0x01\n      add\n      swap2\n      pop\n      pop\n        /* \"USTFaucet_flattened.sol\":4300:4430  for(uint256 i=0; i< user_list.length; i++)... */\n      jump(tag_100)\n    tag_101:\n      pop\n        /* \"USTFaucet_flattened.sol\":4089:4438  function deRegisterUsers(address[] calldata user_list, address token_address) public {... */\n      pop\n      pop\n      pop\n      jump\t// out\n        /* \"USTFaucet_flattened.sol\":5599:5792  function getRegistrationStatus(address user_address, address token_address) public view returns(bool){... */\n    tag_44:\n        /* \"USTFaucet_flattened.sol\":5695:5699  bool */\n      0x00\n        /* \"USTFaucet_flattened.sol\":5718:5736  user_token_mapping */\n      0x01\n        /* \"USTFaucet_flattened.sol\":5718:5750  user_token_mapping[user_address] */\n      0x00\n        /* \"USTFaucet_flattened.sol\":5737:5749  user_address */\n      dup5\n        /* \"USTFaucet_flattened.sol\":5718:5750  user_token_mapping[user_address] */\n      0xffffffffffffffffffffffffffffffffffffffff\n      and\n      0xffffffffffffffffffffffffffffffffffffffff\n      and\n      dup2\n      mstore\n      0x20\n      add\n      swap1\n      dup2\n      mstore\n      0x20\n      add\n      0x00\n      keccak256\n        /* \"USTFaucet_flattened.sol\":5718:5769  user_token_mapping[user_address].request_permission */\n      0x01\n      add\n        /* \"USTFaucet_flattened.sol\":5718:5784  user_token_mapping[user_address].request_permission[token_address] */\n      0x00\n        /* \"USTFaucet_flattened.sol\":5770:5783  token_address */\n      dup4\n        /* \"USTFaucet_flattened.sol\":5718:5784  user_token_mapping[user_address].request_permission[token_address] */\n      0xffffffffffffffffffffffffffffffffffffffff\n      and\n      0xffffffffffffffffffffffffffffffffffffffff\n      and\n      dup2\n      mstore\n      0x20\n      add\n      swap1\n      dup2\n      mstore\n      0x20\n      add\n      0x00\n      keccak256\n      0x00\n      swap1\n      sload\n      swap1\n      0x0100\n      exp\n      swap1\n      div\n      0xff\n      and\n        /* \"USTFaucet_flattened.sol\":5711:5784  return user_token_mapping[user_address].request_permission[token_address] */\n      swap1\n      pop\n        /* \"USTFaucet_flattened.sol\":5599:5792  function getRegistrationStatus(address user_address, address token_address) public view returns(bool){... */\n      swap3\n      swap2\n      pop\n      pop\n      jump\t// out\n        /* \"USTFaucet_flattened.sol\":3491:3729  function set_faucet_amount(address token_address, uint256 value) public {... */\n    tag_50:\n        /* \"USTFaucet_flattened.sol\":3610:3617  manager */\n      0x00\n      dup1\n      sload\n      swap1\n      0x0100\n      exp\n      swap1\n      div\n      0xffffffffffffffffffffffffffffffffffffffff\n      and\n        /* \"USTFaucet_flattened.sol\":3596:3617  msg.sender == manager */\n      0xffffffffffffffffffffffffffffffffffffffff\n      and\n        /* \"USTFaucet_flattened.sol\":3596:3606  msg.sender */\n      caller\n        /* \"USTFaucet_flattened.sol\":3596:3617  msg.sender == manager */\n      0xffffffffffffffffffffffffffffffffffffffff\n      and\n      eq\n        /* \"USTFaucet_flattened.sol\":3574:3676  require(... */\n      tag_108\n      jumpi\n      mload(0x40)\n      0x08c379a000000000000000000000000000000000000000000000000000000000\n      dup2\n      mstore\n      0x04\n      add\n      tag_109\n      swap1\n      tag_55\n      jump\t// in\n    tag_109:\n      mload(0x40)\n      dup1\n      swap2\n      sub\n      swap1\n      revert\n    tag_108:\n        /* \"USTFaucet_flattened.sol\":3716:3721  value */\n      dup1\n        /* \"USTFaucet_flattened.sol\":3687:3700  faucet_amount */\n      0x02\n        /* \"USTFaucet_flattened.sol\":3687:3715  faucet_amount[token_address] */\n      0x00\n        /* \"USTFaucet_flattened.sol\":3701:3714  token_address */\n      dup5\n        /* \"USTFaucet_flattened.sol\":3687:3715  faucet_amount[token_address] */\n      0xffffffffffffffffffffffffffffffffffffffff\n      and\n      0xffffffffffffffffffffffffffffffffffffffff\n      and\n      dup2\n      mstore\n      0x20\n      add\n      swap1\n      dup2\n      mstore\n      0x20\n      add\n      0x00\n      keccak256\n        /* \"USTFaucet_flattened.sol\":3687:3721  faucet_amount[token_address]=value */\n      dup2\n      swap1\n      sstore\n      pop\n        /* \"USTFaucet_flattened.sol\":3491:3729  function set_faucet_amount(address token_address, uint256 value) public {... */\n      pop\n      pop\n      jump\t// out\n        /* \"#utility.yul\":88:205   */\n    tag_111:\n        /* \"#utility.yul\":197:198   */\n      0x00\n        /* \"#utility.yul\":194:195   */\n      dup1\n        /* \"#utility.yul\":187:199   */\n      revert\n        /* \"#utility.yul\":211:328   */\n    tag_112:\n        /* \"#utility.yul\":320:321   */\n      0x00\n        /* \"#utility.yul\":317:318   */\n      dup1\n        /* \"#utility.yul\":310:322   */\n      revert\n        /* \"#utility.yul\":334:460   */\n    tag_113:\n        /* \"#utility.yul\":371:378   */\n      0x00\n        /* \"#utility.yul\":411:453   */\n      0xffffffffffffffffffffffffffffffffffffffff\n        /* \"#utility.yul\":404:409   */\n      dup3\n        /* \"#utility.yul\":400:454   */\n      and\n        /* \"#utility.yul\":389:454   */\n      swap1\n      pop\n        /* \"#utility.yul\":334:460   */\n      swap2\n      swap1\n      pop\n      jump\t// out\n        /* \"#utility.yul\":466:562   */\n    tag_114:\n        /* \"#utility.yul\":503:510   */\n      0x00\n        /* \"#utility.yul\":532:556   */\n      tag_154\n        /* \"#utility.yul\":550:555   */\n      dup3\n        /* \"#utility.yul\":532:556   */\n      tag_113\n      jump\t// in\n    tag_154:\n        /* \"#utility.yul\":521:556   */\n      swap1\n      pop\n        /* \"#utility.yul\":466:562   */\n      swap2\n      swap1\n      pop\n      jump\t// out\n        /* \"#utility.yul\":568:690   */\n    tag_115:\n        /* \"#utility.yul\":641:665   */\n      tag_156\n        /* \"#utility.yul\":659:664   */\n      dup2\n        /* \"#utility.yul\":641:665   */\n      tag_114\n      jump\t// in\n    tag_156:\n        /* \"#utility.yul\":634:639   */\n      dup2\n        /* \"#utility.yul\":631:666   */\n      eq\n        /* \"#utility.yul\":621:684   */\n      tag_157\n      jumpi\n        /* \"#utility.yul\":680:681   */\n      0x00\n        /* \"#utility.yul\":677:678   */\n      dup1\n        /* \"#utility.yul\":670:682   */\n      revert\n        /* \"#utility.yul\":621:684   */\n    tag_157:\n        /* \"#utility.yul\":568:690   */\n      pop\n      jump\t// out\n        /* \"#utility.yul\":696:835   */\n    tag_116:\n        /* \"#utility.yul\":742:747   */\n      0x00\n        /* \"#utility.yul\":780:786   */\n      dup2\n        /* \"#utility.yul\":767:787   */\n      calldataload\n        /* \"#utility.yul\":758:787   */\n      swap1\n      pop\n        /* \"#utility.yul\":796:829   */\n      tag_159\n        /* \"#utility.yul\":823:828   */\n      dup2\n        /* \"#utility.yul\":796:829   */\n      tag_115\n      jump\t// in\n    tag_159:\n        /* \"#utility.yul\":696:835   */\n      swap3\n      swap2\n      pop\n      pop\n      jump\t// out\n        /* \"#utility.yul\":841:1315   */\n    tag_15:\n        /* \"#utility.yul\":909:915   */\n      0x00\n        /* \"#utility.yul\":917:923   */\n      dup1\n        /* \"#utility.yul\":966:968   */\n      0x40\n        /* \"#utility.yul\":954:963   */\n      dup4\n        /* \"#utility.yul\":945:952   */\n      dup6\n        /* \"#utility.yul\":941:964   */\n      sub\n        /* \"#utility.yul\":937:969   */\n      slt\n        /* \"#utility.yul\":934:1053   */\n      iszero\n      tag_161\n      jumpi\n        /* \"#utility.yul\":972:1051   */\n      tag_162\n      tag_111\n      jump\t// in\n    tag_162:\n        /* \"#utility.yul\":934:1053   */\n    tag_161:\n        /* \"#utility.yul\":1092:1093   */\n      0x00\n        /* \"#utility.yul\":1117:1170   */\n      tag_163\n        /* \"#utility.yul\":1162:1169   */\n      dup6\n        /* \"#utility.yul\":1153:1159   */\n      dup3\n        /* \"#utility.yul\":1142:1151   */\n      dup7\n        /* \"#utility.yul\":1138:1160   */\n      add\n        /* \"#utility.yul\":1117:1170   */\n      tag_116\n      jump\t// in\n    tag_163:\n        /* \"#utility.yul\":1107:1170   */\n      swap3\n      pop\n        /* \"#utility.yul\":1063:1180   */\n      pop\n        /* \"#utility.yul\":1219:1221   */\n      0x20\n        /* \"#utility.yul\":1245:1298   */\n      tag_164\n        /* \"#utility.yul\":1290:1297   */\n      dup6\n        /* \"#utility.yul\":1281:1287   */\n      dup3\n        /* \"#utility.yul\":1270:1279   */\n      dup7\n        /* \"#utility.yul\":1266:1288   */\n      add\n        /* \"#utility.yul\":1245:1298   */\n      tag_116\n      jump\t// in\n    tag_164:\n        /* \"#utility.yul\":1235:1298   */\n      swap2\n      pop\n        /* \"#utility.yul\":1190:1308   */\n      pop\n        /* \"#utility.yul\":841:1315   */\n      swap3\n      pop\n      swap3\n      swap1\n      pop\n      jump\t// out\n        /* \"#utility.yul\":1321:1398   */\n    tag_117:\n        /* \"#utility.yul\":1358:1365   */\n      0x00\n        /* \"#utility.yul\":1387:1392   */\n      dup2\n        /* \"#utility.yul\":1376:1392   */\n      swap1\n      pop\n        /* \"#utility.yul\":1321:1398   */\n      swap2\n      swap1\n      pop\n      jump\t// out\n        /* \"#utility.yul\":1404:1522   */\n    tag_118:\n        /* \"#utility.yul\":1491:1515   */\n      tag_167\n        /* \"#utility.yul\":1509:1514   */\n      dup2\n        /* \"#utility.yul\":1491:1515   */\n      tag_117\n      jump\t// in\n    tag_167:\n        /* \"#utility.yul\":1486:1489   */\n      dup3\n        /* \"#utility.yul\":1479:1516   */\n      mstore\n        /* \"#utility.yul\":1404:1522   */\n      pop\n      pop\n      jump\t// out\n        /* \"#utility.yul\":1528:1750   */\n    tag_18:\n        /* \"#utility.yul\":1621:1625   */\n      0x00\n        /* \"#utility.yul\":1659:1661   */\n      0x20\n        /* \"#utility.yul\":1648:1657   */\n      dup3\n        /* \"#utility.yul\":1644:1662   */\n      add\n        /* \"#utility.yul\":1636:1662   */\n      swap1\n      pop\n        /* \"#utility.yul\":1672:1743   */\n      tag_169\n        /* \"#utility.yul\":1740:1741   */\n      0x00\n        /* \"#utility.yul\":1729:1738   */\n      dup4\n        /* \"#utility.yul\":1725:1742   */\n      add\n        /* \"#utility.yul\":1716:1722   */\n      dup5\n        /* \"#utility.yul\":1672:1743   */\n      tag_118\n      jump\t// in\n    tag_169:\n        /* \"#utility.yul\":1528:1750   */\n      swap3\n      swap2\n      pop\n      pop\n      jump\t// out\n        /* \"#utility.yul\":1756:1873   */\n    tag_119:\n        /* \"#utility.yul\":1865:1866   */\n      0x00\n        /* \"#utility.yul\":1862:1863   */\n      dup1\n        /* \"#utility.yul\":1855:1867   */\n      revert\n        /* \"#utility.yul\":1879:1996   */\n    tag_120:\n        /* \"#utility.yul\":1988:1989   */\n      0x00\n        /* \"#utility.yul\":1985:1986   */\n      dup1\n        /* \"#utility.yul\":1978:1990   */\n      revert\n        /* \"#utility.yul\":2002:2119   */\n    tag_121:\n        /* \"#utility.yul\":2111:2112   */\n      0x00\n        /* \"#utility.yul\":2108:2109   */\n      dup1\n        /* \"#utility.yul\":2101:2113   */\n      revert\n        /* \"#utility.yul\":2142:2710   */\n    tag_122:\n        /* \"#utility.yul\":2215:2223   */\n      0x00\n        /* \"#utility.yul\":2225:2231   */\n      dup1\n        /* \"#utility.yul\":2275:2278   */\n      dup4\n        /* \"#utility.yul\":2268:2272   */\n      0x1f\n        /* \"#utility.yul\":2260:2266   */\n      dup5\n        /* \"#utility.yul\":2256:2273   */\n      add\n        /* \"#utility.yul\":2252:2279   */\n      slt\n        /* \"#utility.yul\":2242:2364   */\n      tag_174\n      jumpi\n        /* \"#utility.yul\":2283:2362   */\n      tag_175\n      tag_119\n      jump\t// in\n    tag_175:\n        /* \"#utility.yul\":2242:2364   */\n    tag_174:\n        /* \"#utility.yul\":2396:2402   */\n      dup3\n        /* \"#utility.yul\":2383:2403   */\n      calldataload\n        /* \"#utility.yul\":2373:2403   */\n      swap1\n      pop\n        /* \"#utility.yul\":2426:2444   */\n      0xffffffffffffffff\n        /* \"#utility.yul\":2418:2424   */\n      dup2\n        /* \"#utility.yul\":2415:2445   */\n      gt\n        /* \"#utility.yul\":2412:2529   */\n      iszero\n      tag_176\n      jumpi\n        /* \"#utility.yul\":2448:2527   */\n      tag_177\n      tag_120\n      jump\t// in\n    tag_177:\n        /* \"#utility.yul\":2412:2529   */\n    tag_176:\n        /* \"#utility.yul\":2562:2566   */\n      0x20\n        /* \"#utility.yul\":2554:2560   */\n      dup4\n        /* \"#utility.yul\":2550:2567   */\n      add\n        /* \"#utility.yul\":2538:2567   */\n      swap2\n      pop\n        /* \"#utility.yul\":2616:2619   */\n      dup4\n        /* \"#utility.yul\":2608:2612   */\n      0x20\n        /* \"#utility.yul\":2600:2606   */\n      dup3\n        /* \"#utility.yul\":2596:2613   */\n      mul\n        /* \"#utility.yul\":2586:2594   */\n      dup4\n        /* \"#utility.yul\":2582:2614   */\n      add\n        /* \"#utility.yul\":2579:2620   */\n      gt\n        /* \"#utility.yul\":2576:2704   */\n      iszero\n      tag_178\n      jumpi\n        /* \"#utility.yul\":2623:2702   */\n      tag_179\n      tag_121\n      jump\t// in\n    tag_179:\n        /* \"#utility.yul\":2576:2704   */\n    tag_178:\n        /* \"#utility.yul\":2142:2710   */\n      swap3\n      pop\n      swap3\n      swap1\n      pop\n      jump\t// out\n        /* \"#utility.yul\":2716:3420   */\n    tag_21:\n        /* \"#utility.yul\":2811:2817   */\n      0x00\n        /* \"#utility.yul\":2819:2825   */\n      dup1\n        /* \"#utility.yul\":2827:2833   */\n      0x00\n        /* \"#utility.yul\":2876:2878   */\n      0x40\n        /* \"#utility.yul\":2864:2873   */\n      dup5\n        /* \"#utility.yul\":2855:2862   */\n      dup7\n        /* \"#utility.yul\":2851:2874   */\n      sub\n        /* \"#utility.yul\":2847:2879   */\n      slt\n        /* \"#utility.yul\":2844:2963   */\n      iszero\n      tag_181\n      jumpi\n        /* \"#utility.yul\":2882:2961   */\n      tag_182\n      tag_111\n      jump\t// in\n    tag_182:\n        /* \"#utility.yul\":2844:2963   */\n    tag_181:\n        /* \"#utility.yul\":3030:3031   */\n      0x00\n        /* \"#utility.yul\":3019:3028   */\n      dup5\n        /* \"#utility.yul\":3015:3032   */\n      add\n        /* \"#utility.yul\":3002:3033   */\n      calldataload\n        /* \"#utility.yul\":3060:3078   */\n      0xffffffffffffffff\n        /* \"#utility.yul\":3052:3058   */\n      dup2\n        /* \"#utility.yul\":3049:3079   */\n      gt\n        /* \"#utility.yul\":3046:3163   */\n      iszero\n      tag_183\n      jumpi\n        /* \"#utility.yul\":3082:3161   */\n      tag_184\n      tag_112\n      jump\t// in\n    tag_184:\n        /* \"#utility.yul\":3046:3163   */\n    tag_183:\n        /* \"#utility.yul\":3195:3275   */\n      tag_185\n        /* \"#utility.yul\":3267:3274   */\n      dup7\n        /* \"#utility.yul\":3258:3264   */\n      dup3\n        /* \"#utility.yul\":3247:3256   */\n      dup8\n        /* \"#utility.yul\":3243:3265   */\n      add\n        /* \"#utility.yul\":3195:3275   */\n      tag_122\n      jump\t// in\n    tag_185:\n        /* \"#utility.yul\":3177:3275   */\n      swap4\n      pop\n      swap4\n      pop\n        /* \"#utility.yul\":2973:3285   */\n      pop\n        /* \"#utility.yul\":3324:3326   */\n      0x20\n        /* \"#utility.yul\":3350:3403   */\n      tag_186\n        /* \"#utility.yul\":3395:3402   */\n      dup7\n        /* \"#utility.yul\":3386:3392   */\n      dup3\n        /* \"#utility.yul\":3375:3384   */\n      dup8\n        /* \"#utility.yul\":3371:3393   */\n      add\n        /* \"#utility.yul\":3350:3403   */\n      tag_116\n      jump\t// in\n    tag_186:\n        /* \"#utility.yul\":3340:3403   */\n      swap2\n      pop\n        /* \"#utility.yul\":3295:3413   */\n      pop\n        /* \"#utility.yul\":2716:3420   */\n      swap3\n      pop\n      swap3\n      pop\n      swap3\n      jump\t// out\n        /* \"#utility.yul\":3426:3535   */\n    tag_123:\n        /* \"#utility.yul\":3476:3483   */\n      0x00\n        /* \"#utility.yul\":3505:3529   */\n      tag_188\n        /* \"#utility.yul\":3523:3528   */\n      dup3\n        /* \"#utility.yul\":3505:3529   */\n      tag_114\n      jump\t// in\n    tag_188:\n        /* \"#utility.yul\":3494:3529   */\n      swap1\n      pop\n        /* \"#utility.yul\":3426:3535   */\n      swap2\n      swap1\n      pop\n      jump\t// out\n        /* \"#utility.yul\":3541:3689   */\n    tag_124:\n        /* \"#utility.yul\":3627:3664   */\n      tag_190\n        /* \"#utility.yul\":3658:3663   */\n      dup2\n        /* \"#utility.yul\":3627:3664   */\n      tag_123\n      jump\t// in\n    tag_190:\n        /* \"#utility.yul\":3620:3625   */\n      dup2\n        /* \"#utility.yul\":3617:3665   */\n      eq\n        /* \"#utility.yul\":3607:3683   */\n      tag_191\n      jumpi\n        /* \"#utility.yul\":3679:3680   */\n      0x00\n        /* \"#utility.yul\":3676:3677   */\n      dup1\n        /* \"#utility.yul\":3669:3681   */\n      revert\n        /* \"#utility.yul\":3607:3683   */\n    tag_191:\n        /* \"#utility.yul\":3541:3689   */\n      pop\n      jump\t// out\n        /* \"#utility.yul\":3695:3860   */\n    tag_125:\n        /* \"#utility.yul\":3754:3759   */\n      0x00\n        /* \"#utility.yul\":3792:3798   */\n      dup2\n        /* \"#utility.yul\":3779:3799   */\n      calldataload\n        /* \"#utility.yul\":3770:3799   */\n      swap1\n      pop\n        /* \"#utility.yul\":3808:3854   */\n      tag_193\n        /* \"#utility.yul\":3848:3853   */\n      dup2\n        /* \"#utility.yul\":3808:3854   */\n      tag_124\n      jump\t// in\n    tag_193:\n        /* \"#utility.yul\":3695:3860   */\n      swap3\n      swap2\n      pop\n      pop\n      jump\t// out\n        /* \"#utility.yul\":3866:4221   */\n    tag_25:\n        /* \"#utility.yul\":3938:3944   */\n      0x00\n        /* \"#utility.yul\":3987:3989   */\n      0x20\n        /* \"#utility.yul\":3975:3984   */\n      dup3\n        /* \"#utility.yul\":3966:3973   */\n      dup5\n        /* \"#utility.yul\":3962:3985   */\n      sub\n        /* \"#utility.yul\":3958:3990   */\n      slt\n        /* \"#utility.yul\":3955:4074   */\n      iszero\n      tag_195\n      jumpi\n        /* \"#utility.yul\":3993:4072   */\n      tag_196\n      tag_111\n      jump\t// in\n    tag_196:\n        /* \"#utility.yul\":3955:4074   */\n    tag_195:\n        /* \"#utility.yul\":4113:4114   */\n      0x00\n        /* \"#utility.yul\":4138:4204   */\n      tag_197\n        /* \"#utility.yul\":4196:4203   */\n      dup5\n        /* \"#utility.yul\":4187:4193   */\n      dup3\n        /* \"#utility.yul\":4176:4185   */\n      dup6\n        /* \"#utility.yul\":4172:4194   */\n      add\n        /* \"#utility.yul\":4138:4204   */\n      tag_125\n      jump\t// in\n    tag_197:\n        /* \"#utility.yul\":4128:4204   */\n      swap2\n      pop\n        /* \"#utility.yul\":4084:4214   */\n      pop\n        /* \"#utility.yul\":3866:4221   */\n      swap3\n      swap2\n      pop\n      pop\n      jump\t// out\n        /* \"#utility.yul\":4227:4345   */\n    tag_126:\n        /* \"#utility.yul\":4314:4338   */\n      tag_199\n        /* \"#utility.yul\":4332:4337   */\n      dup2\n        /* \"#utility.yul\":4314:4338   */\n      tag_114\n      jump\t// in\n    tag_199:\n        /* \"#utility.yul\":4309:4312   */\n      dup3\n        /* \"#utility.yul\":4302:4339   */\n      mstore\n        /* \"#utility.yul\":4227:4345   */\n      pop\n      pop\n      jump\t// out\n        /* \"#utility.yul\":4351:4573   */\n    tag_31:\n        /* \"#utility.yul\":4444:4448   */\n      0x00\n        /* \"#utility.yul\":4482:4484   */\n      0x20\n        /* \"#utility.yul\":4471:4480   */\n      dup3\n        /* \"#utility.yul\":4467:4485   */\n      add\n        /* \"#utility.yul\":4459:4485   */\n      swap1\n      pop\n        /* \"#utility.yul\":4495:4566   */\n      tag_201\n        /* \"#utility.yul\":4563:4564   */\n      0x00\n        /* \"#utility.yul\":4552:4561   */\n      dup4\n        /* \"#utility.yul\":4548:4565   */\n      add\n        /* \"#utility.yul\":4539:4545   */\n      dup5\n        /* \"#utility.yul\":4495:4566   */\n      tag_126\n      jump\t// in\n    tag_201:\n        /* \"#utility.yul\":4351:4573   */\n      swap3\n      swap2\n      pop\n      pop\n      jump\t// out\n        /* \"#utility.yul\":4579:4669   */\n    tag_127:\n        /* \"#utility.yul\":4613:4620   */\n      0x00\n        /* \"#utility.yul\":4656:4661   */\n      dup2\n        /* \"#utility.yul\":4649:4662   */\n      iszero\n        /* \"#utility.yul\":4642:4663   */\n      iszero\n        /* \"#utility.yul\":4631:4663   */\n      swap1\n      pop\n        /* \"#utility.yul\":4579:4669   */\n      swap2\n      swap1\n      pop\n      jump\t// out\n        /* \"#utility.yul\":4675:4784   */\n    tag_128:\n        /* \"#utility.yul\":4756:4777   */\n      tag_204\n        /* \"#utility.yul\":4771:4776   */\n      dup2\n        /* \"#utility.yul\":4756:4777   */\n      tag_127\n      jump\t// in\n    tag_204:\n        /* \"#utility.yul\":4751:4754   */\n      dup3\n        /* \"#utility.yul\":4744:4778   */\n      mstore\n        /* \"#utility.yul\":4675:4784   */\n      pop\n      pop\n      jump\t// out\n        /* \"#utility.yul\":4790:5000   */\n    tag_46:\n        /* \"#utility.yul\":4877:4881   */\n      0x00\n        /* \"#utility.yul\":4915:4917   */\n      0x20\n        /* \"#utility.yul\":4904:4913   */\n      dup3\n        /* \"#utility.yul\":4900:4918   */\n      add\n        /* \"#utility.yul\":4892:4918   */\n      swap1\n      pop\n        /* \"#utility.yul\":4928:4993   */\n      tag_206\n        /* \"#utility.yul\":4990:4991   */\n      0x00\n        /* \"#utility.yul\":4979:4988   */\n      dup4\n        /* \"#utility.yul\":4975:4992   */\n      add\n        /* \"#utility.yul\":4966:4972   */\n      dup5\n        /* \"#utility.yul\":4928:4993   */\n      tag_128\n      jump\t// in\n    tag_206:\n        /* \"#utility.yul\":4790:5000   */\n      swap3\n      swap2\n      pop\n      pop\n      jump\t// out\n        /* \"#utility.yul\":5006:5128   */\n    tag_129:\n        /* \"#utility.yul\":5079:5103   */\n      tag_208\n        /* \"#utility.yul\":5097:5102   */\n      dup2\n        /* \"#utility.yul\":5079:5103   */\n      tag_117\n      jump\t// in\n    tag_208:\n        /* \"#utility.yul\":5072:5077   */\n      dup2\n        /* \"#utility.yul\":5069:5104   */\n      eq\n        /* \"#utility.yul\":5059:5122   */\n      tag_209\n      jumpi\n        /* \"#utility.yul\":5118:5119   */\n      0x00\n        /* \"#utility.yul\":5115:5116   */\n      dup1\n        /* \"#utility.yul\":5108:5120   */\n      revert\n        /* \"#utility.yul\":5059:5122   */\n    tag_209:\n        /* \"#utility.yul\":5006:5128   */\n      pop\n      jump\t// out\n        /* \"#utility.yul\":5134:5273   */\n    tag_130:\n        /* \"#utility.yul\":5180:5185   */\n      0x00\n        /* \"#utility.yul\":5218:5224   */\n      dup2\n        /* \"#utility.yul\":5205:5225   */\n      calldataload\n        /* \"#utility.yul\":5196:5225   */\n      swap1\n      pop\n        /* \"#utility.yul\":5234:5267   */\n      tag_211\n        /* \"#utility.yul\":5261:5266   */\n      dup2\n        /* \"#utility.yul\":5234:5267   */\n      tag_129\n      jump\t// in\n    tag_211:\n        /* \"#utility.yul\":5134:5273   */\n      swap3\n      swap2\n      pop\n      pop\n      jump\t// out\n        /* \"#utility.yul\":5279:5753   */\n    tag_49:\n        /* \"#utility.yul\":5347:5353   */\n      0x00\n        /* \"#utility.yul\":5355:5361   */\n      dup1\n        /* \"#utility.yul\":5404:5406   */\n      0x40\n        /* \"#utility.yul\":5392:5401   */\n      dup4\n        /* \"#utility.yul\":5383:5390   */\n      dup6\n        /* \"#utility.yul\":5379:5402   */\n      sub\n        /* \"#utility.yul\":5375:5407   */\n      slt\n        /* \"#utility.yul\":5372:5491   */\n      iszero\n      tag_213\n      jumpi\n        /* \"#utility.yul\":5410:5489   */\n      tag_214\n      tag_111\n      jump\t// in\n    tag_214:\n        /* \"#utility.yul\":5372:5491   */\n    tag_213:\n        /* \"#utility.yul\":5530:5531   */\n      0x00\n        /* \"#utility.yul\":5555:5608   */\n      tag_215\n        /* \"#utility.yul\":5600:5607   */\n      dup6\n        /* \"#utility.yul\":5591:5597   */\n      dup3\n        /* \"#utility.yul\":5580:5589   */\n      dup7\n        /* \"#utility.yul\":5576:5598   */\n      add\n        /* \"#utility.yul\":5555:5608   */\n      tag_116\n      jump\t// in\n    tag_215:\n        /* \"#utility.yul\":5545:5608   */\n      swap3\n      pop\n        /* \"#utility.yul\":5501:5618   */\n      pop\n        /* \"#utility.yul\":5657:5659   */\n      0x20\n        /* \"#utility.yul\":5683:5736   */\n      tag_216\n        /* \"#utility.yul\":5728:5735   */\n      dup6\n        /* \"#utility.yul\":5719:5725   */\n      dup3\n        /* \"#utility.yul\":5708:5717   */\n      dup7\n        /* \"#utility.yul\":5704:5726   */\n      add\n        /* \"#utility.yul\":5683:5736   */\n      tag_130\n      jump\t// in\n    tag_216:\n        /* \"#utility.yul\":5673:5736   */\n      swap2\n      pop\n        /* \"#utility.yul\":5628:5746   */\n      pop\n        /* \"#utility.yul\":5279:5753   */\n      swap3\n      pop\n      swap3\n      swap1\n      pop\n      jump\t// out\n        /* \"#utility.yul\":5759:5928   */\n    tag_131:\n        /* \"#utility.yul\":5843:5854   */\n      0x00\n        /* \"#utility.yul\":5877:5883   */\n      dup3\n        /* \"#utility.yul\":5872:5875   */\n      dup3\n        /* \"#utility.yul\":5865:5884   */\n      mstore\n        /* \"#utility.yul\":5917:5921   */\n      0x20\n        /* \"#utility.yul\":5912:5915   */\n      dup3\n        /* \"#utility.yul\":5908:5922   */\n      add\n        /* \"#utility.yul\":5893:5922   */\n      swap1\n      pop\n        /* \"#utility.yul\":5759:5928   */\n      swap3\n      swap2\n      pop\n      pop\n      jump\t// out\n        /* \"#utility.yul\":5934:6115   */\n    tag_132:\n        /* \"#utility.yul\":6074:6107   */\n      0x4f6e6c79206d616e616765722063616e20726567697374657220757365727300\n        /* \"#utility.yul\":6070:6071   */\n      0x00\n        /* \"#utility.yul\":6062:6068   */\n      dup3\n        /* \"#utility.yul\":6058:6072   */\n      add\n        /* \"#utility.yul\":6051:6108   */\n      mstore\n        /* \"#utility.yul\":5934:6115   */\n      pop\n      jump\t// out\n        /* \"#utility.yul\":6121:6487   */\n    tag_133:\n        /* \"#utility.yul\":6263:6266   */\n      0x00\n        /* \"#utility.yul\":6284:6351   */\n      tag_220\n        /* \"#utility.yul\":6348:6350   */\n      0x1f\n        /* \"#utility.yul\":6343:6346   */\n      dup4\n        /* \"#utility.yul\":6284:6351   */\n      tag_131\n      jump\t// in\n    tag_220:\n        /* \"#utility.yul\":6277:6351   */\n      swap2\n      pop\n        /* \"#utility.yul\":6360:6453   */\n      tag_221\n        /* \"#utility.yul\":6449:6452   */\n      dup3\n        /* \"#utility.yul\":6360:6453   */\n      tag_132\n      jump\t// in\n    tag_221:\n        /* \"#utility.yul\":6478:6480   */\n      0x20\n        /* \"#utility.yul\":6473:6476   */\n      dup3\n        /* \"#utility.yul\":6469:6481   */\n      add\n        /* \"#utility.yul\":6462:6481   */\n      swap1\n      pop\n        /* \"#utility.yul\":6121:6487   */\n      swap2\n      swap1\n      pop\n      jump\t// out\n        /* \"#utility.yul\":6493:6912   */\n    tag_55:\n        /* \"#utility.yul\":6659:6663   */\n      0x00\n        /* \"#utility.yul\":6697:6699   */\n      0x20\n        /* \"#utility.yul\":6686:6695   */\n      dup3\n        /* \"#utility.yul\":6682:6700   */\n      add\n        /* \"#utility.yul\":6674:6700   */\n      swap1\n      pop\n        /* \"#utility.yul\":6746:6755   */\n      dup2\n        /* \"#utility.yul\":6740:6744   */\n      dup2\n        /* \"#utility.yul\":6736:6756   */\n      sub\n        /* \"#utility.yul\":6732:6733   */\n      0x00\n        /* \"#utility.yul\":6721:6730   */\n      dup4\n        /* \"#utility.yul\":6717:6734   */\n      add\n        /* \"#utility.yul\":6710:6757   */\n      mstore\n        /* \"#utility.yul\":6774:6905   */\n      tag_223\n        /* \"#utility.yul\":6900:6904   */\n      dup2\n        /* \"#utility.yul\":6774:6905   */\n      tag_133\n      jump\t// in\n    tag_223:\n        /* \"#utility.yul\":6766:6905   */\n      swap1\n      pop\n        /* \"#utility.yul\":6493:6912   */\n      swap2\n      swap1\n      pop\n      jump\t// out\n        /* \"#utility.yul\":6918:7098   */\n    tag_61:\n        /* \"#utility.yul\":6966:7043   */\n      0x4e487b7100000000000000000000000000000000000000000000000000000000\n        /* \"#utility.yul\":6963:6964   */\n      0x00\n        /* \"#utility.yul\":6956:7044   */\n      mstore\n        /* \"#utility.yul\":7063:7067   */\n      0x32\n        /* \"#utility.yul\":7060:7061   */\n      0x04\n        /* \"#utility.yul\":7053:7068   */\n      mstore\n        /* \"#utility.yul\":7087:7091   */\n      0x24\n        /* \"#utility.yul\":7084:7085   */\n      0x00\n        /* \"#utility.yul\":7077:7092   */\n      revert\n        /* \"#utility.yul\":7104:7433   */\n    tag_63:\n        /* \"#utility.yul\":7163:7169   */\n      0x00\n        /* \"#utility.yul\":7212:7214   */\n      0x20\n        /* \"#utility.yul\":7200:7209   */\n      dup3\n        /* \"#utility.yul\":7191:7198   */\n      dup5\n        /* \"#utility.yul\":7187:7210   */\n      sub\n        /* \"#utility.yul\":7183:7215   */\n      slt\n        /* \"#utility.yul\":7180:7299   */\n      iszero\n      tag_226\n      jumpi\n        /* \"#utility.yul\":7218:7297   */\n      tag_227\n      tag_111\n      jump\t// in\n    tag_227:\n        /* \"#utility.yul\":7180:7299   */\n    tag_226:\n        /* \"#utility.yul\":7338:7339   */\n      0x00\n        /* \"#utility.yul\":7363:7416   */\n      tag_228\n        /* \"#utility.yul\":7408:7415   */\n      dup5\n        /* \"#utility.yul\":7399:7405   */\n      dup3\n        /* \"#utility.yul\":7388:7397   */\n      dup6\n        /* \"#utility.yul\":7384:7406   */\n      add\n        /* \"#utility.yul\":7363:7416   */\n      tag_116\n      jump\t// in\n    tag_228:\n        /* \"#utility.yul\":7353:7416   */\n      swap2\n      pop\n        /* \"#utility.yul\":7309:7426   */\n      pop\n        /* \"#utility.yul\":7104:7433   */\n      swap3\n      swap2\n      pop\n      pop\n      jump\t// out\n        /* \"#utility.yul\":7439:7582   */\n    tag_134:\n        /* \"#utility.yul\":7496:7501   */\n      0x00\n        /* \"#utility.yul\":7527:7533   */\n      dup2\n        /* \"#utility.yul\":7521:7534   */\n      mload\n        /* \"#utility.yul\":7512:7534   */\n      swap1\n      pop\n        /* \"#utility.yul\":7543:7576   */\n      tag_230\n        /* \"#utility.yul\":7570:7575   */\n      dup2\n        /* \"#utility.yul\":7543:7576   */\n      tag_129\n      jump\t// in\n    tag_230:\n        /* \"#utility.yul\":7439:7582   */\n      swap3\n      swap2\n      pop\n      pop\n      jump\t// out\n        /* \"#utility.yul\":7588:7939   */\n    tag_69:\n        /* \"#utility.yul\":7658:7664   */\n      0x00\n        /* \"#utility.yul\":7707:7709   */\n      0x20\n        /* \"#utility.yul\":7695:7704   */\n      dup3\n        /* \"#utility.yul\":7686:7693   */\n      dup5\n        /* \"#utility.yul\":7682:7705   */\n      sub\n        /* \"#utility.yul\":7678:7710   */\n      slt\n        /* \"#utility.yul\":7675:7794   */\n      iszero\n      tag_232\n      jumpi\n        /* \"#utility.yul\":7713:7792   */\n      tag_233\n      tag_111\n      jump\t// in\n    tag_233:\n        /* \"#utility.yul\":7675:7794   */\n    tag_232:\n        /* \"#utility.yul\":7833:7834   */\n      0x00\n        /* \"#utility.yul\":7858:7922   */\n      tag_234\n        /* \"#utility.yul\":7914:7921   */\n      dup5\n        /* \"#utility.yul\":7905:7911   */\n      dup3\n        /* \"#utility.yul\":7894:7903   */\n      dup6\n        /* \"#utility.yul\":7890:7912   */\n      add\n        /* \"#utility.yul\":7858:7922   */\n      tag_134\n      jump\t// in\n    tag_234:\n        /* \"#utility.yul\":7848:7922   */\n      swap2\n      pop\n        /* \"#utility.yul\":7804:7932   */\n      pop\n        /* \"#utility.yul\":7588:7939   */\n      swap3\n      swap2\n      pop\n      pop\n      jump\t// out\n        /* \"#utility.yul\":7945:8174   */\n    tag_135:\n        /* \"#utility.yul\":8085:8119   */\n      0x4f6e6c7920726567697374657265642075736572732063616e20757365207468\n        /* \"#utility.yul\":8081:8082   */\n      0x00\n        /* \"#utility.yul\":8073:8079   */\n      dup3\n        /* \"#utility.yul\":8069:8083   */\n      add\n        /* \"#utility.yul\":8062:8120   */\n      mstore\n        /* \"#utility.yul\":8154:8166   */\n      0x69732061697264726f7000000000000000000000000000000000000000000000\n        /* \"#utility.yul\":8149:8151   */\n      0x20\n        /* \"#utility.yul\":8141:8147   */\n      dup3\n        /* \"#utility.yul\":8137:8152   */\n      add\n        /* \"#utility.yul\":8130:8167   */\n      mstore\n        /* \"#utility.yul\":7945:8174   */\n      pop\n      jump\t// out\n        /* \"#utility.yul\":8180:8546   */\n    tag_136:\n        /* \"#utility.yul\":8322:8325   */\n      0x00\n        /* \"#utility.yul\":8343:8410   */\n      tag_237\n        /* \"#utility.yul\":8407:8409   */\n      0x2a\n        /* \"#utility.yul\":8402:8405   */\n      dup4\n        /* \"#utility.yul\":8343:8410   */\n      tag_131\n      jump\t// in\n    tag_237:\n        /* \"#utility.yul\":8336:8410   */\n      swap2\n      pop\n        /* \"#utility.yul\":8419:8512   */\n      tag_238\n        /* \"#utility.yul\":8508:8511   */\n      dup3\n        /* \"#utility.yul\":8419:8512   */\n      tag_135\n      jump\t// in\n    tag_238:\n        /* \"#utility.yul\":8537:8539   */\n      0x40\n        /* \"#utility.yul\":8532:8535   */\n      dup3\n        /* \"#utility.yul\":8528:8540   */\n      add\n        /* \"#utility.yul\":8521:8540   */\n      swap1\n      pop\n        /* \"#utility.yul\":8180:8546   */\n      swap2\n      swap1\n      pop\n      jump\t// out\n        /* \"#utility.yul\":8552:8971   */\n    tag_73:\n        /* \"#utility.yul\":8718:8722   */\n      0x00\n        /* \"#utility.yul\":8756:8758   */\n      0x20\n        /* \"#utility.yul\":8745:8754   */\n      dup3\n        /* \"#utility.yul\":8741:8759   */\n      add\n        /* \"#utility.yul\":8733:8759   */\n      swap1\n      pop\n        /* \"#utility.yul\":8805:8814   */\n      dup2\n        /* \"#utility.yul\":8799:8803   */\n      dup2\n        /* \"#utility.yul\":8795:8815   */\n      sub\n        /* \"#utility.yul\":8791:8792   */\n      0x00\n        /* \"#utility.yul\":8780:8789   */\n      dup4\n        /* \"#utility.yul\":8776:8793   */\n      add\n        /* \"#utility.yul\":8769:8816   */\n      mstore\n        /* \"#utility.yul\":8833:8964   */\n      tag_240\n        /* \"#utility.yul\":8959:8963   */\n      dup2\n        /* \"#utility.yul\":8833:8964   */\n      tag_136\n      jump\t// in\n    tag_240:\n        /* \"#utility.yul\":8825:8964   */\n      swap1\n      pop\n        /* \"#utility.yul\":8552:8971   */\n      swap2\n      swap1\n      pop\n      jump\t// out\n        /* \"#utility.yul\":8977:9157   */\n    tag_137:\n        /* \"#utility.yul\":9025:9102   */\n      0x4e487b7100000000000000000000000000000000000000000000000000000000\n        /* \"#utility.yul\":9022:9023   */\n      0x00\n        /* \"#utility.yul\":9015:9103   */\n      mstore\n        /* \"#utility.yul\":9122:9126   */\n      0x11\n        /* \"#utility.yul\":9119:9120   */\n      0x04\n        /* \"#utility.yul\":9112:9127   */\n      mstore\n        /* \"#utility.yul\":9146:9150   */\n      0x24\n        /* \"#utility.yul\":9143:9144   */\n      0x00\n        /* \"#utility.yul\":9136:9151   */\n      revert\n        /* \"#utility.yul\":9163:9357   */\n    tag_75:\n        /* \"#utility.yul\":9203:9207   */\n      0x00\n        /* \"#utility.yul\":9223:9243   */\n      tag_243\n        /* \"#utility.yul\":9241:9242   */\n      dup3\n        /* \"#utility.yul\":9223:9243   */\n      tag_117\n      jump\t// in\n    tag_243:\n        /* \"#utility.yul\":9218:9243   */\n      swap2\n      pop\n        /* \"#utility.yul\":9257:9277   */\n      tag_244\n        /* \"#utility.yul\":9275:9276   */\n      dup4\n        /* \"#utility.yul\":9257:9277   */\n      tag_117\n      jump\t// in\n    tag_244:\n        /* \"#utility.yul\":9252:9277   */\n      swap3\n      pop\n        /* \"#utility.yul\":9301:9302   */\n      dup3\n        /* \"#utility.yul\":9298:9299   */\n      dup3\n        /* \"#utility.yul\":9294:9303   */\n      sub\n        /* \"#utility.yul\":9286:9303   */\n      swap1\n      pop\n        /* \"#utility.yul\":9325:9326   */\n      dup2\n        /* \"#utility.yul\":9319:9323   */\n      dup2\n        /* \"#utility.yul\":9316:9327   */\n      gt\n        /* \"#utility.yul\":9313:9350   */\n      iszero\n      tag_245\n      jumpi\n        /* \"#utility.yul\":9330:9348   */\n      tag_246\n      tag_137\n      jump\t// in\n    tag_246:\n        /* \"#utility.yul\":9313:9350   */\n    tag_245:\n        /* \"#utility.yul\":9163:9357   */\n      swap3\n      swap2\n      pop\n      pop\n      jump\t// out\n        /* \"#utility.yul\":9363:9537   */\n    tag_138:\n        /* \"#utility.yul\":9503:9529   */\n      0x4f6e6c79206f6e65207265717565737420706572206461790000000000000000\n        /* \"#utility.yul\":9499:9500   */\n      0x00\n        /* \"#utility.yul\":9491:9497   */\n      dup3\n        /* \"#utility.yul\":9487:9501   */\n      add\n        /* \"#utility.yul\":9480:9530   */\n      mstore\n        /* \"#utility.yul\":9363:9537   */\n      pop\n      jump\t// out\n        /* \"#utility.yul\":9543:9909   */\n    tag_139:\n        /* \"#utility.yul\":9685:9688   */\n      0x00\n        /* \"#utility.yul\":9706:9773   */\n      tag_249\n        /* \"#utility.yul\":9770:9772   */\n      0x18\n        /* \"#utility.yul\":9765:9768   */\n      dup4\n        /* \"#utility.yul\":9706:9773   */\n      tag_131\n      jump\t// in\n    tag_249:\n        /* \"#utility.yul\":9699:9773   */\n      swap2\n      pop\n        /* \"#utility.yul\":9782:9875   */\n      tag_250\n        /* \"#utility.yul\":9871:9874   */\n      dup3\n        /* \"#utility.yul\":9782:9875   */\n      tag_138\n      jump\t// in\n    tag_250:\n        /* \"#utility.yul\":9900:9902   */\n      0x20\n        /* \"#utility.yul\":9895:9898   */\n      dup3\n        /* \"#utility.yul\":9891:9903   */\n      add\n        /* \"#utility.yul\":9884:9903   */\n      swap1\n      pop\n        /* \"#utility.yul\":9543:9909   */\n      swap2\n      swap1\n      pop\n      jump\t// out\n        /* \"#utility.yul\":9915:10334   */\n    tag_78:\n        /* \"#utility.yul\":10081:10085   */\n      0x00\n        /* \"#utility.yul\":10119:10121   */\n      0x20\n        /* \"#utility.yul\":10108:10117   */\n      dup3\n        /* \"#utility.yul\":10104:10122   */\n      add\n        /* \"#utility.yul\":10096:10122   */\n      swap1\n      pop\n        /* \"#utility.yul\":10168:10177   */\n      dup2\n        /* \"#utility.yul\":10162:10166   */\n      dup2\n        /* \"#utility.yul\":10158:10178   */\n      sub\n        /* \"#utility.yul\":10154:10155   */\n      0x00\n        /* \"#utility.yul\":10143:10152   */\n      dup4\n        /* \"#utility.yul\":10139:10156   */\n      add\n        /* \"#utility.yul\":10132:10179   */\n      mstore\n        /* \"#utility.yul\":10196:10327   */\n      tag_252\n        /* \"#utility.yul\":10322:10326   */\n      dup2\n        /* \"#utility.yul\":10196:10327   */\n      tag_139\n      jump\t// in\n    tag_252:\n        /* \"#utility.yul\":10188:10327   */\n      swap1\n      pop\n        /* \"#utility.yul\":9915:10334   */\n      swap2\n      swap1\n      pop\n      jump\t// out\n        /* \"#utility.yul\":10340:10574   */\n    tag_140:\n        /* \"#utility.yul\":10480:10514   */\n      0x546869732066617563657420646f6573206e6f7420737570706f727420746865\n        /* \"#utility.yul\":10476:10477   */\n      0x00\n        /* \"#utility.yul\":10468:10474   */\n      dup3\n        /* \"#utility.yul\":10464:10478   */\n      add\n        /* \"#utility.yul\":10457:10515   */\n      mstore\n        /* \"#utility.yul\":10549:10566   */\n      0x20746f6b656e2070726f76696465640000000000000000000000000000000000\n        /* \"#utility.yul\":10544:10546   */\n      0x20\n        /* \"#utility.yul\":10536:10542   */\n      dup3\n        /* \"#utility.yul\":10532:10547   */\n      add\n        /* \"#utility.yul\":10525:10567   */\n      mstore\n        /* \"#utility.yul\":10340:10574   */\n      pop\n      jump\t// out\n        /* \"#utility.yul\":10580:10946   */\n    tag_141:\n        /* \"#utility.yul\":10722:10725   */\n      0x00\n        /* \"#utility.yul\":10743:10810   */\n      tag_255\n        /* \"#utility.yul\":10807:10809   */\n      0x2f\n        /* \"#utility.yul\":10802:10805   */\n      dup4\n        /* \"#utility.yul\":10743:10810   */\n      tag_131\n      jump\t// in\n    tag_255:\n        /* \"#utility.yul\":10736:10810   */\n      swap2\n      pop\n        /* \"#utility.yul\":10819:10912   */\n      tag_256\n        /* \"#utility.yul\":10908:10911   */\n      dup3\n        /* \"#utility.yul\":10819:10912   */\n      tag_140\n      jump\t// in\n    tag_256:\n        /* \"#utility.yul\":10937:10939   */\n      0x40\n        /* \"#utility.yul\":10932:10935   */\n      dup3\n        /* \"#utility.yul\":10928:10940   */\n      add\n        /* \"#utility.yul\":10921:10940   */\n      swap1\n      pop\n        /* \"#utility.yul\":10580:10946   */\n      swap2\n      swap1\n      pop\n      jump\t// out\n        /* \"#utility.yul\":10952:11371   */\n    tag_81:\n        /* \"#utility.yul\":11118:11122   */\n      0x00\n        /* \"#utility.yul\":11156:11158   */\n      0x20\n        /* \"#utility.yul\":11145:11154   */\n      dup3\n        /* \"#utility.yul\":11141:11159   */\n      add\n        /* \"#utility.yul\":11133:11159   */\n      swap1\n      pop\n        /* \"#utility.yul\":11205:11214   */\n      dup2\n        /* \"#utility.yul\":11199:11203   */\n      dup2\n        /* \"#utility.yul\":11195:11215   */\n      sub\n        /* \"#utility.yul\":11191:11192   */\n      0x00\n        /* \"#utility.yul\":11180:11189   */\n      dup4\n        /* \"#utility.yul\":11176:11193   */\n      add\n        /* \"#utility.yul\":11169:11216   */\n      mstore\n        /* \"#utility.yul\":11233:11364   */\n      tag_258\n        /* \"#utility.yul\":11359:11363   */\n      dup2\n        /* \"#utility.yul\":11233:11364   */\n      tag_141\n      jump\t// in\n    tag_258:\n        /* \"#utility.yul\":11225:11364   */\n      swap1\n      pop\n        /* \"#utility.yul\":10952:11371   */\n      swap2\n      swap1\n      pop\n      jump\t// out\n        /* \"#utility.yul\":11377:11616   */\n    tag_142:\n        /* \"#utility.yul\":11517:11551   */\n      0x54686520666175636574206861732065786861757365642069747320746f6b65\n        /* \"#utility.yul\":11513:11514   */\n      0x00\n        /* \"#utility.yul\":11505:11511   */\n      dup3\n        /* \"#utility.yul\":11501:11515   */\n      add\n        /* \"#utility.yul\":11494:11552   */\n      mstore\n        /* \"#utility.yul\":11586:11608   */\n      0x6e732c207265706c656e69736820666175636574000000000000000000000000\n        /* \"#utility.yul\":11581:11583   */\n      0x20\n        /* \"#utility.yul\":11573:11579   */\n      dup3\n        /* \"#utility.yul\":11569:11584   */\n      add\n        /* \"#utility.yul\":11562:11609   */\n      mstore\n        /* \"#utility.yul\":11377:11616   */\n      pop\n      jump\t// out\n        /* \"#utility.yul\":11622:11988   */\n    tag_143:\n        /* \"#utility.yul\":11764:11767   */\n      0x00\n        /* \"#utility.yul\":11785:11852   */\n      tag_261\n        /* \"#utility.yul\":11849:11851   */\n      0x34\n        /* \"#utility.yul\":11844:11847   */\n      dup4\n        /* \"#utility.yul\":11785:11852   */\n      tag_131\n      jump\t// in\n    tag_261:\n        /* \"#utility.yul\":11778:11852   */\n      swap2\n      pop\n        /* \"#utility.yul\":11861:11954   */\n      tag_262\n        /* \"#utility.yul\":11950:11953   */\n      dup3\n        /* \"#utility.yul\":11861:11954   */\n      tag_142\n      jump\t// in\n    tag_262:\n        /* \"#utility.yul\":11979:11981   */\n      0x40\n        /* \"#utility.yul\":11974:11977   */\n      dup3\n        /* \"#utility.yul\":11970:11982   */\n      add\n        /* \"#utility.yul\":11963:11982   */\n      swap1\n      pop\n        /* \"#utility.yul\":11622:11988   */\n      swap2\n      swap1\n      pop\n      jump\t// out\n        /* \"#utility.yul\":11994:12413   */\n    tag_88:\n        /* \"#utility.yul\":12160:12164   */\n      0x00\n        /* \"#utility.yul\":12198:12200   */\n      0x20\n        /* \"#utility.yul\":12187:12196   */\n      dup3\n        /* \"#utility.yul\":12183:12201   */\n      add\n        /* \"#utility.yul\":12175:12201   */\n      swap1\n      pop\n        /* \"#utility.yul\":12247:12256   */\n      dup2\n        /* \"#utility.yul\":12241:12245   */\n      dup2\n        /* \"#utility.yul\":12237:12257   */\n      sub\n        /* \"#utility.yul\":12233:12234   */\n      0x00\n        /* \"#utility.yul\":12222:12231   */\n      dup4\n        /* \"#utility.yul\":12218:12235   */\n      add\n        /* \"#utility.yul\":12211:12258   */\n      mstore\n        /* \"#utility.yul\":12275:12406   */\n      tag_264\n        /* \"#utility.yul\":12401:12405   */\n      dup2\n        /* \"#utility.yul\":12275:12406   */\n      tag_143\n      jump\t// in\n    tag_264:\n        /* \"#utility.yul\":12267:12406   */\n      swap1\n      pop\n        /* \"#utility.yul\":11994:12413   */\n      swap2\n      swap1\n      pop\n      jump\t// out\n        /* \"#utility.yul\":12419:12751   */\n    tag_90:\n        /* \"#utility.yul\":12540:12544   */\n      0x00\n        /* \"#utility.yul\":12578:12580   */\n      0x40\n        /* \"#utility.yul\":12567:12576   */\n      dup3\n        /* \"#utility.yul\":12563:12581   */\n      add\n        /* \"#utility.yul\":12555:12581   */\n      swap1\n      pop\n        /* \"#utility.yul\":12591:12662   */\n      tag_266\n        /* \"#utility.yul\":12659:12660   */\n      0x00\n        /* \"#utility.yul\":12648:12657   */\n      dup4\n        /* \"#utility.yul\":12644:12661   */\n      add\n        /* \"#utility.yul\":12635:12641   */\n      dup6\n        /* \"#utility.yul\":12591:12662   */\n      tag_126\n      jump\t// in\n    tag_266:\n        /* \"#utility.yul\":12672:12744   */\n      tag_267\n        /* \"#utility.yul\":12740:12742   */\n      0x20\n        /* \"#utility.yul\":12729:12738   */\n      dup4\n        /* \"#utility.yul\":12725:12743   */\n      add\n        /* \"#utility.yul\":12716:12722   */\n      dup5\n        /* \"#utility.yul\":12672:12744   */\n      tag_118\n      jump\t// in\n    tag_267:\n        /* \"#utility.yul\":12419:12751   */\n      swap4\n      swap3\n      pop\n      pop\n      pop\n      jump\t// out\n        /* \"#utility.yul\":12757:12873   */\n    tag_144:\n        /* \"#utility.yul\":12827:12848   */\n      tag_269\n        /* \"#utility.yul\":12842:12847   */\n      dup2\n        /* \"#utility.yul\":12827:12848   */\n      tag_127\n      jump\t// in\n    tag_269:\n        /* \"#utility.yul\":12820:12825   */\n      dup2\n        /* \"#utility.yul\":12817:12849   */\n      eq\n        /* \"#utility.yul\":12807:12867   */\n      tag_270\n      jumpi\n        /* \"#utility.yul\":12863:12864   */\n      0x00\n        /* \"#utility.yul\":12860:12861   */\n      dup1\n        /* \"#utility.yul\":12853:12865   */\n      revert\n        /* \"#utility.yul\":12807:12867   */\n    tag_270:\n        /* \"#utility.yul\":12757:12873   */\n      pop\n      jump\t// out\n        /* \"#utility.yul\":12879:13016   */\n    tag_145:\n        /* \"#utility.yul\":12933:12938   */\n      0x00\n        /* \"#utility.yul\":12964:12970   */\n      dup2\n        /* \"#utility.yul\":12958:12971   */\n      mload\n        /* \"#utility.yul\":12949:12971   */\n      swap1\n      pop\n        /* \"#utility.yul\":12980:13010   */\n      tag_272\n        /* \"#utility.yul\":13004:13009   */\n      dup2\n        /* \"#utility.yul\":12980:13010   */\n      tag_144\n      jump\t// in\n    tag_272:\n        /* \"#utility.yul\":12879:13016   */\n      swap3\n      swap2\n      pop\n      pop\n      jump\t// out\n        /* \"#utility.yul\":13022:13367   */\n    tag_94:\n        /* \"#utility.yul\":13089:13095   */\n      0x00\n        /* \"#utility.yul\":13138:13140   */\n      0x20\n        /* \"#utility.yul\":13126:13135   */\n      dup3\n        /* \"#utility.yul\":13117:13124   */\n      dup5\n        /* \"#utility.yul\":13113:13136   */\n      sub\n        /* \"#utility.yul\":13109:13141   */\n      slt\n        /* \"#utility.yul\":13106:13225   */\n      iszero\n      tag_274\n      jumpi\n        /* \"#utility.yul\":13144:13223   */\n      tag_275\n      tag_111\n      jump\t// in\n    tag_275:\n        /* \"#utility.yul\":13106:13225   */\n    tag_274:\n        /* \"#utility.yul\":13264:13265   */\n      0x00\n        /* \"#utility.yul\":13289:13350   */\n      tag_276\n        /* \"#utility.yul\":13342:13349   */\n      dup5\n        /* \"#utility.yul\":13333:13339   */\n      dup3\n        /* \"#utility.yul\":13322:13331   */\n      dup6\n        /* \"#utility.yul\":13318:13340   */\n      add\n        /* \"#utility.yul\":13289:13350   */\n      tag_145\n      jump\t// in\n    tag_276:\n        /* \"#utility.yul\":13279:13350   */\n      swap2\n      pop\n        /* \"#utility.yul\":13235:13360   */\n      pop\n        /* \"#utility.yul\":13022:13367   */\n      swap3\n      swap2\n      pop\n      pop\n      jump\t// out\n        /* \"#utility.yul\":13373:13593   */\n    tag_146:\n        /* \"#utility.yul\":13513:13547   */\n      0x4f6e6c79206d616e616765722063616e20646572656769737465722075736572\n        /* \"#utility.yul\":13509:13510   */\n      0x00\n        /* \"#utility.yul\":13501:13507   */\n      dup3\n        /* \"#utility.yul\":13497:13511   */\n      add\n        /* \"#utility.yul\":13490:13548   */\n      mstore\n        /* \"#utility.yul\":13582:13585   */\n      0x7300000000000000000000000000000000000000000000000000000000000000\n        /* \"#utility.yul\":13577:13579   */\n      0x20\n        /* \"#utility.yul\":13569:13575   */\n      dup3\n        /* \"#utility.yul\":13565:13580   */\n      add\n        /* \"#utility.yul\":13558:13586   */\n      mstore\n        /* \"#utility.yul\":13373:13593   */\n      pop\n      jump\t// out\n        /* \"#utility.yul\":13599:13965   */\n    tag_147:\n        /* \"#utility.yul\":13741:13744   */\n      0x00\n        /* \"#utility.yul\":13762:13829   */\n      tag_279\n        /* \"#utility.yul\":13826:13828   */\n      0x21\n        /* \"#utility.yul\":13821:13824   */\n      dup4\n        /* \"#utility.yul\":13762:13829   */\n      tag_131\n      jump\t// in\n    tag_279:\n        /* \"#utility.yul\":13755:13829   */\n      swap2\n      pop\n        /* \"#utility.yul\":13838:13931   */\n      tag_280\n        /* \"#utility.yul\":13927:13930   */\n      dup3\n        /* \"#utility.yul\":13838:13931   */\n      tag_146\n      jump\t// in\n    tag_280:\n        /* \"#utility.yul\":13956:13958   */\n      0x40\n        /* \"#utility.yul\":13951:13954   */\n      dup3\n        /* \"#utility.yul\":13947:13959   */\n      add\n        /* \"#utility.yul\":13940:13959   */\n      swap1\n      pop\n        /* \"#utility.yul\":13599:13965   */\n      swap2\n      swap1\n      pop\n      jump\t// out\n        /* \"#utility.yul\":13971:14390   */\n    tag_99:\n        /* \"#utility.yul\":14137:14141   */\n      0x00\n        /* \"#utility.yul\":14175:14177   */\n      0x20\n        /* \"#utility.yul\":14164:14173   */\n      dup3\n        /* \"#utility.yul\":14160:14178   */\n      add\n        /* \"#utility.yul\":14152:14178   */\n      swap1\n      pop\n        /* \"#utility.yul\":14224:14233   */\n      dup2\n        /* \"#utility.yul\":14218:14222   */\n      dup2\n        /* \"#utility.yul\":14214:14234   */\n      sub\n        /* \"#utility.yul\":14210:14211   */\n      0x00\n        /* \"#utility.yul\":14199:14208   */\n      dup4\n        /* \"#utility.yul\":14195:14212   */\n      add\n        /* \"#utility.yul\":14188:14235   */\n      mstore\n        /* \"#utility.yul\":14252:14383   */\n      tag_282\n        /* \"#utility.yul\":14378:14382   */\n      dup2\n        /* \"#utility.yul\":14252:14383   */\n      tag_147\n      jump\t// in\n    tag_282:\n        /* \"#utility.yul\":14244:14383   */\n      swap1\n      pop\n        /* \"#utility.yul\":13971:14390   */\n      swap2\n      swap1\n      pop\n      jump\t// out\n\n    auxdata: 0xa264697066735822122009be39a4fa0c454ff5e257bd1da40f075c996fce4781cdf90fdecc16dfce945564736f6c63430008160033\n}\n",
				"bytecode": {
					"linkReferences": {},
					"object": "608060405234801561000f575f80fd5b50335f806101000a81548173ffffffffffffffffffffffffffffffffffffffff021916908373ffffffffffffffffffffffffffffffffffffffff1602179055506113438061005c5f395ff3fe608060405234801561000f575f80fd5b5060043610610091575f3560e01c8063580f390411610064578063580f39041461012f5780635a942a981461014b57806363f066c91461017b57806395d3113a146101975780639e14cb3d146101c757610091565b80630ff6aab3146100955780633384af57146100c557806344569bec146100e1578063481c6a7514610111575b5f80fd5b6100af60048036038101906100aa9190610c2c565b6101e3565b6040516100bc9190610c82565b60405180910390f35b6100df60048036038101906100da9190610cfc565b610267565b005b6100fb60048036038101906100f69190610d94565b6103cd565b6040516101089190610c82565b60405180910390f35b61011961044d565b6040516101269190610dce565b60405180910390f35b61014960048036038101906101449190610d94565b610470565b005b61016560048036038101906101609190610d94565b6108ba565b6040516101729190610c82565b60405180910390f35b61019560048036038101906101909190610cfc565b610900565b005b6101b160048036038101906101ac9190610c2c565b610a66565b6040516101be9190610e01565b60405180910390f35b6101e160048036038101906101dc9190610e44565b610af7565b005b5f60015f8473ffffffffffffffffffffffffffffffffffffffff1673ffffffffffffffffffffffffffffffffffffffff1681526020019081526020015f205f015f8373ffffffffffffffffffffffffffffffffffffffff1673ffffffffffffffffffffffffffffffffffffffff1681526020019081526020015f2054905092915050565b5f8054906101000a900473ffffffffffffffffffffffffffffffffffffffff1673ffffffffffffffffffffffffffffffffffffffff163373ffffffffffffffffffffffffffffffffffffffff16146102f4576040517f08c379a00000000000000000000000000000000000000000000000000000000081526004016102eb90610edc565b60405180910390fd5b5f5b838390508110156103c7576001805f86868581811061031857610317610efa565b5b905060200201602081019061032d9190610f27565b73ffffffffffffffffffffffffffffffffffffffff1673ffffffffffffffffffffffffffffffffffffffff1681526020019081526020015f206001015f8473ffffffffffffffffffffffffffffffffffffffff1673ffffffffffffffffffffffffffffffffffffffff1681526020019081526020015f205f6101000a81548160ff02191690831515021790555080806001019150506102f6565b50505050565b5f8173ffffffffffffffffffffffffffffffffffffffff166370a08231306040518263ffffffff1660e01b81526004016104079190610dce565b602060405180830381865afa158015610422573d5f803e3d5ffd5b505050506040513d601f19601f820116820180604052508101906104469190610f66565b9050919050565b5f8054906101000a900473ffffffffffffffffffffffffffffffffffffffff1681565b6001151560015f3373ffffffffffffffffffffffffffffffffffffffff1673ffffffffffffffffffffffffffffffffffffffff1681526020019081526020015f206001015f8373ffffffffffffffffffffffffffffffffffffffff1673ffffffffffffffffffffffffffffffffffffffff1681526020019081526020015f205f9054906101000a900460ff1615151461053e576040517f08c379a000000000000000000000000000000000000000000000000000000000815260040161053590611001565b60405180910390fd5b620151804261054d919061104c565b60015f3373ffffffffffffffffffffffffffffffffffffffff1673ffffffffffffffffffffffffffffffffffffffff1681526020019081526020015f205f015f8373ffffffffffffffffffffffffffffffffffffffff1673ffffffffffffffffffffffffffffffffffffffff1681526020019081526020015f20541115610609576040517f08c379a0000000000000000000000000000000000000000000000000000000008152600401610600906110c9565b60405180910390fd5b5f60025f8373ffffffffffffffffffffffffffffffffffffffff1673ffffffffffffffffffffffffffffffffffffffff1681526020019081526020015f205411610688576040517f08c379a000000000000000000000000000000000000000000000000000000000815260040161067f90611157565b60405180910390fd5b60025f8273ffffffffffffffffffffffffffffffffffffffff1673ffffffffffffffffffffffffffffffffffffffff1681526020019081526020015f20548173ffffffffffffffffffffffffffffffffffffffff166370a08231306040518263ffffffff1660e01b81526004016106ff9190610dce565b602060405180830381865afa15801561071a573d5f803e3d5ffd5b505050506040513d601f19601f8201168201806040525081019061073e9190610f66565b101561077f576040517f08c379a0000000000000000000000000000000000000000000000000000000008152600401610776906111e5565b60405180910390fd5b8073ffffffffffffffffffffffffffffffffffffffff1663a9059cbb3360025f8573ffffffffffffffffffffffffffffffffffffffff1673ffffffffffffffffffffffffffffffffffffffff1681526020019081526020015f20546040518363ffffffff1660e01b81526004016107f7929190611203565b6020604051808303815f875af1158015610813573d5f803e3d5ffd5b505050506040513d601f19601f820116820180604052508101906108379190611254565b504260015f3373ffffffffffffffffffffffffffffffffffffffff1673ffffffffffffffffffffffffffffffffffffffff1681526020019081526020015f205f015f8373ffffffffffffffffffffffffffffffffffffffff1673ffffffffffffffffffffffffffffffffffffffff1681526020019081526020015f208190555050565b5f60025f8373ffffffffffffffffffffffffffffffffffffffff1673ffffffffffffffffffffffffffffffffffffffff1681526020019081526020015f20549050919050565b5f8054906101000a900473ffffffffffffffffffffffffffffffffffffffff1673ffffffffffffffffffffffffffffffffffffffff163373ffffffffffffffffffffffffffffffffffffffff161461098d576040517f08c379a0000000000000000000000000000000000000000000000000000000008152600401610984906112ef565b60405180910390fd5b5f5b83839050811015610a60575f60015f8686858181106109b1576109b0610efa565b5b90506020020160208101906109c69190610f27565b73ffffffffffffffffffffffffffffffffffffffff1673ffffffffffffffffffffffffffffffffffffffff1681526020019081526020015f206001015f8473ffffffffffffffffffffffffffffffffffffffff1673ffffffffffffffffffffffffffffffffffffffff1681526020019081526020015f205f6101000a81548160ff021916908315150217905550808060010191505061098f565b50505050565b5f60015f8473ffffffffffffffffffffffffffffffffffffffff1673ffffffffffffffffffffffffffffffffffffffff1681526020019081526020015f206001015f8373ffffffffffffffffffffffffffffffffffffffff1673ffffffffffffffffffffffffffffffffffffffff1681526020019081526020015f205f9054906101000a900460ff16905092915050565b5f8054906101000a900473ffffffffffffffffffffffffffffffffffffffff1673ffffffffffffffffffffffffffffffffffffffff163373ffffffffffffffffffffffffffffffffffffffff1614610b84576040517f08c379a0000000000000000000000000000000000000000000000000000000008152600401610b7b90610edc565b60405180910390fd5b8060025f8473ffffffffffffffffffffffffffffffffffffffff1673ffffffffffffffffffffffffffffffffffffffff1681526020019081526020015f20819055505050565b5f80fd5b5f80fd5b5f73ffffffffffffffffffffffffffffffffffffffff82169050919050565b5f610bfb82610bd2565b9050919050565b610c0b81610bf1565b8114610c15575f80fd5b50565b5f81359050610c2681610c02565b92915050565b5f8060408385031215610c4257610c41610bca565b5b5f610c4f85828601610c18565b9250506020610c6085828601610c18565b9150509250929050565b5f819050919050565b610c7c81610c6a565b82525050565b5f602082019050610c955f830184610c73565b92915050565b5f80fd5b5f80fd5b5f80fd5b5f8083601f840112610cbc57610cbb610c9b565b5b8235905067ffffffffffffffff811115610cd957610cd8610c9f565b5b602083019150836020820283011115610cf557610cf4610ca3565b5b9250929050565b5f805f60408486031215610d1357610d12610bca565b5b5f84013567ffffffffffffffff811115610d3057610d2f610bce565b5b610d3c86828701610ca7565b93509350506020610d4f86828701610c18565b9150509250925092565b5f610d6382610bf1565b9050919050565b610d7381610d59565b8114610d7d575f80fd5b50565b5f81359050610d8e81610d6a565b92915050565b5f60208284031215610da957610da8610bca565b5b5f610db684828501610d80565b91505092915050565b610dc881610bf1565b82525050565b5f602082019050610de15f830184610dbf565b92915050565b5f8115159050919050565b610dfb81610de7565b82525050565b5f602082019050610e145f830184610df2565b92915050565b610e2381610c6a565b8114610e2d575f80fd5b50565b5f81359050610e3e81610e1a565b92915050565b5f8060408385031215610e5a57610e59610bca565b5b5f610e6785828601610c18565b9250506020610e7885828601610e30565b9150509250929050565b5f82825260208201905092915050565b7f4f6e6c79206d616e616765722063616e207265676973746572207573657273005f82015250565b5f610ec6601f83610e82565b9150610ed182610e92565b602082019050919050565b5f6020820190508181035f830152610ef381610eba565b9050919050565b7f4e487b71000000000000000000000000000000000000000000000000000000005f52603260045260245ffd5b5f60208284031215610f3c57610f3b610bca565b5b5f610f4984828501610c18565b91505092915050565b5f81519050610f6081610e1a565b92915050565b5f60208284031215610f7b57610f7a610bca565b5b5f610f8884828501610f52565b91505092915050565b7f4f6e6c7920726567697374657265642075736572732063616e207573652074685f8201527f69732061697264726f7000000000000000000000000000000000000000000000602082015250565b5f610feb602a83610e82565b9150610ff682610f91565b604082019050919050565b5f6020820190508181035f83015261101881610fdf565b9050919050565b7f4e487b71000000000000000000000000000000000000000000000000000000005f52601160045260245ffd5b5f61105682610c6a565b915061106183610c6a565b92508282039050818111156110795761107861101f565b5b92915050565b7f4f6e6c79206f6e652072657175657374207065722064617900000000000000005f82015250565b5f6110b3601883610e82565b91506110be8261107f565b602082019050919050565b5f6020820190508181035f8301526110e0816110a7565b9050919050565b7f546869732066617563657420646f6573206e6f7420737570706f7274207468655f8201527f20746f6b656e2070726f76696465640000000000000000000000000000000000602082015250565b5f611141602f83610e82565b915061114c826110e7565b604082019050919050565b5f6020820190508181035f83015261116e81611135565b9050919050565b7f54686520666175636574206861732065786861757365642069747320746f6b655f8201527f6e732c207265706c656e69736820666175636574000000000000000000000000602082015250565b5f6111cf603483610e82565b91506111da82611175565b604082019050919050565b5f6020820190508181035f8301526111fc816111c3565b9050919050565b5f6040820190506112165f830185610dbf565b6112236020830184610c73565b9392505050565b61123381610de7565b811461123d575f80fd5b50565b5f8151905061124e8161122a565b92915050565b5f6020828403121561126957611268610bca565b5b5f61127684828501611240565b91505092915050565b7f4f6e6c79206d616e616765722063616e206465726567697374657220757365725f8201527f7300000000000000000000000000000000000000000000000000000000000000602082015250565b5f6112d9602183610e82565b91506112e48261127f565b604082019050919050565b5f6020820190508181035f830152611306816112cd565b905091905056fea264697066735822122009be39a4fa0c454ff5e257bd1da40f075c996fce4781cdf90fdecc16dfce945564736f6c63430008160033",
					"opcodes": "PUSH1 0x80 PUSH1 0x40 MSTORE CALLVALUE DUP1 ISZERO PUSH2 0xF JUMPI PUSH0 DUP1 REVERT JUMPDEST POP CALLER PUSH0 DUP1 PUSH2 0x100 EXP DUP2 SLOAD DUP2 PUSH20 0xFFFFFFFFFFFFFFFFFFFFFFFFFFFFFFFFFFFFFFFF MUL NOT AND SWAP1 DUP4 PUSH20 0xFFFFFFFFFFFFFFFFFFFFFFFFFFFFFFFFFFFFFFFF AND MUL OR SWAP1 SSTORE POP PUSH2 0x1343 DUP1 PUSH2 0x5C PUSH0 CODECOPY PUSH0 RETURN INVALID PUSH1 0x80 PUSH1 0x40 MSTORE CALLVALUE DUP1 ISZERO PUSH2 0xF JUMPI PUSH0 DUP1 REVERT JUMPDEST POP PUSH1 0x4 CALLDATASIZE LT PUSH2 0x91 JUMPI PUSH0 CALLDATALOAD PUSH1 0xE0 SHR DUP1 PUSH4 0x580F3904 GT PUSH2 0x64 JUMPI DUP1 PUSH4 0x580F3904 EQ PUSH2 0x12F JUMPI DUP1 PUSH4 0x5A942A98 EQ PUSH2 0x14B JUMPI DUP1 PUSH4 0x63F066C9 EQ PUSH2 0x17B JUMPI DUP1 PUSH4 0x95D3113A EQ PUSH2 0x197 JUMPI DUP1 PUSH4 0x9E14CB3D EQ PUSH2 0x1C7 JUMPI PUSH2 0x91 JUMP JUMPDEST DUP1 PUSH4 0xFF6AAB3 EQ PUSH2 0x95 JUMPI DUP1 PUSH4 0x3384AF57 EQ PUSH2 0xC5 JUMPI DUP1 PUSH4 0x44569BEC EQ PUSH2 0xE1 JUMPI DUP1 PUSH4 0x481C6A75 EQ PUSH2 0x111 JUMPI JUMPDEST PUSH0 DUP1 REVERT JUMPDEST PUSH2 0xAF PUSH1 0x4 DUP1 CALLDATASIZE SUB DUP2 ADD SWAP1 PUSH2 0xAA SWAP2 SWAP1 PUSH2 0xC2C JUMP JUMPDEST PUSH2 0x1E3 JUMP JUMPDEST PUSH1 0x40 MLOAD PUSH2 0xBC SWAP2 SWAP1 PUSH2 0xC82 JUMP JUMPDEST PUSH1 0x40 MLOAD DUP1 SWAP2 SUB SWAP1 RETURN JUMPDEST PUSH2 0xDF PUSH1 0x4 DUP1 CALLDATASIZE SUB DUP2 ADD SWAP1 PUSH2 0xDA SWAP2 SWAP1 PUSH2 0xCFC JUMP JUMPDEST PUSH2 0x267 JUMP JUMPDEST STOP JUMPDEST PUSH2 0xFB PUSH1 0x4 DUP1 CALLDATASIZE SUB DUP2 ADD SWAP1 PUSH2 0xF6 SWAP2 SWAP1 PUSH2 0xD94 JUMP JUMPDEST PUSH2 0x3CD JUMP JUMPDEST PUSH1 0x40 MLOAD PUSH2 0x108 SWAP2 SWAP1 PUSH2 0xC82 JUMP JUMPDEST PUSH1 0x40 MLOAD DUP1 SWAP2 SUB SWAP1 RETURN JUMPDEST PUSH2 0x119 PUSH2 0x44D JUMP JUMPDEST PUSH1 0x40 MLOAD PUSH2 0x126 SWAP2 SWAP1 PUSH2 0xDCE JUMP JUMPDEST PUSH1 0x40 MLOAD DUP1 SWAP2 SUB SWAP1 RETURN JUMPDEST PUSH2 0x149 PUSH1 0x4 DUP1 CALLDATASIZE SUB DUP2 ADD SWAP1 PUSH2 0x144 SWAP2 SWAP1 PUSH2 0xD94 JUMP JUMPDEST PUSH2 0x470 JUMP JUMPDEST STOP JUMPDEST PUSH2 0x165 PUSH1 0x4 DUP1 CALLDATASIZE SUB DUP2 ADD SWAP1 PUSH2 0x160 SWAP2 SWAP1 PUSH2 0xD94 JUMP JUMPDEST PUSH2 0x8BA JUMP JUMPDEST PUSH1 0x40 MLOAD PUSH2 0x172 SWAP2 SWAP1 PUSH2 0xC82 JUMP JUMPDEST PUSH1 0x40 MLOAD DUP1 SWAP2 SUB SWAP1 RETURN JUMPDEST PUSH2 0x195 PUSH1 0x4 DUP1 CALLDATASIZE SUB DUP2 ADD SWAP1 PUSH2 0x190 SWAP2 SWAP1 PUSH2 0xCFC JUMP JUMPDEST PUSH2 0x900 JUMP JUMPDEST STOP JUMPDEST PUSH2 0x1B1 PUSH1 0x4 DUP1 CALLDATASIZE SUB DUP2 ADD SWAP1 PUSH2 0x1AC SWAP2 SWAP1 PUSH2 0xC2C JUMP JUMPDEST PUSH2 0xA66 JUMP JUMPDEST PUSH1 0x40 MLOAD PUSH2 0x1BE SWAP2 SWAP1 PUSH2 0xE01 JUMP JUMPDEST PUSH1 0x40 MLOAD DUP1 SWAP2 SUB SWAP1 RETURN JUMPDEST PUSH2 0x1E1 PUSH1 0x4 DUP1 CALLDATASIZE SUB DUP2 ADD SWAP1 PUSH2 0x1DC SWAP2 SWAP1 PUSH2 0xE44 JUMP JUMPDEST PUSH2 0xAF7 JUMP JUMPDEST STOP JUMPDEST PUSH0 PUSH1 0x1 PUSH0 DUP5 PUSH20 0xFFFFFFFFFFFFFFFFFFFFFFFFFFFFFFFFFFFFFFFF AND PUSH20 0xFFFFFFFFFFFFFFFFFFFFFFFFFFFFFFFFFFFFFFFF AND DUP2 MSTORE PUSH1 0x20 ADD SWAP1 DUP2 MSTORE PUSH1 0x20 ADD PUSH0 KECCAK256 PUSH0 ADD PUSH0 DUP4 PUSH20 0xFFFFFFFFFFFFFFFFFFFFFFFFFFFFFFFFFFFFFFFF AND PUSH20 0xFFFFFFFFFFFFFFFFFFFFFFFFFFFFFFFFFFFFFFFF AND DUP2 MSTORE PUSH1 0x20 ADD SWAP1 DUP2 MSTORE PUSH1 0x20 ADD PUSH0 KECCAK256 SLOAD SWAP1 POP SWAP3 SWAP2 POP POP JUMP JUMPDEST PUSH0 DUP1 SLOAD SWAP1 PUSH2 0x100 EXP SWAP1 DIV PUSH20 0xFFFFFFFFFFFFFFFFFFFFFFFFFFFFFFFFFFFFFFFF AND PUSH20 0xFFFFFFFFFFFFFFFFFFFFFFFFFFFFFFFFFFFFFFFF AND CALLER PUSH20 0xFFFFFFFFFFFFFFFFFFFFFFFFFFFFFFFFFFFFFFFF AND EQ PUSH2 0x2F4 JUMPI PUSH1 0x40 MLOAD PUSH32 0x8C379A000000000000000000000000000000000000000000000000000000000 DUP2 MSTORE PUSH1 0x4 ADD PUSH2 0x2EB SWAP1 PUSH2 0xEDC JUMP JUMPDEST PUSH1 0x40 MLOAD DUP1 SWAP2 SUB SWAP1 REVERT JUMPDEST PUSH0 JUMPDEST DUP4 DUP4 SWAP1 POP DUP2 LT ISZERO PUSH2 0x3C7 JUMPI PUSH1 0x1 DUP1 PUSH0 DUP7 DUP7 DUP6 DUP2 DUP2 LT PUSH2 0x318 JUMPI PUSH2 0x317 PUSH2 0xEFA JUMP JUMPDEST JUMPDEST SWAP1 POP PUSH1 0x20 MUL ADD PUSH1 0x20 DUP2 ADD SWAP1 PUSH2 0x32D SWAP2 SWAP1 PUSH2 0xF27 JUMP JUMPDEST PUSH20 0xFFFFFFFFFFFFFFFFFFFFFFFFFFFFFFFFFFFFFFFF AND PUSH20 0xFFFFFFFFFFFFFFFFFFFFFFFFFFFFFFFFFFFFFFFF AND DUP2 MSTORE PUSH1 0x20 ADD SWAP1 DUP2 MSTORE PUSH1 0x20 ADD PUSH0 KECCAK256 PUSH1 0x1 ADD PUSH0 DUP5 PUSH20 0xFFFFFFFFFFFFFFFFFFFFFFFFFFFFFFFFFFFFFFFF AND PUSH20 0xFFFFFFFFFFFFFFFFFFFFFFFFFFFFFFFFFFFFFFFF AND DUP2 MSTORE PUSH1 0x20 ADD SWAP1 DUP2 MSTORE PUSH1 0x20 ADD PUSH0 KECCAK256 PUSH0 PUSH2 0x100 EXP DUP2 SLOAD DUP2 PUSH1 0xFF MUL NOT AND SWAP1 DUP4 ISZERO ISZERO MUL OR SWAP1 SSTORE POP DUP1 DUP1 PUSH1 0x1 ADD SWAP2 POP POP PUSH2 0x2F6 JUMP JUMPDEST POP POP POP POP JUMP JUMPDEST PUSH0 DUP2 PUSH20 0xFFFFFFFFFFFFFFFFFFFFFFFFFFFFFFFFFFFFFFFF AND PUSH4 0x70A08231 ADDRESS PUSH1 0x40 MLOAD DUP3 PUSH4 0xFFFFFFFF AND PUSH1 0xE0 SHL DUP2 MSTORE PUSH1 0x4 ADD PUSH2 0x407 SWAP2 SWAP1 PUSH2 0xDCE JUMP JUMPDEST PUSH1 0x20 PUSH1 0x40 MLOAD DUP1 DUP4 SUB DUP2 DUP7 GAS STATICCALL ISZERO DUP1 ISZERO PUSH2 0x422 JUMPI RETURNDATASIZE PUSH0 DUP1 RETURNDATACOPY RETURNDATASIZE PUSH0 REVERT JUMPDEST POP POP POP POP PUSH1 0x40 MLOAD RETURNDATASIZE PUSH1 0x1F NOT PUSH1 0x1F DUP3 ADD AND DUP3 ADD DUP1 PUSH1 0x40 MSTORE POP DUP2 ADD SWAP1 PUSH2 0x446 SWAP2 SWAP1 PUSH2 0xF66 JUMP JUMPDEST SWAP1 POP SWAP2 SWAP1 POP JUMP JUMPDEST PUSH0 DUP1 SLOAD SWAP1 PUSH2 0x100 EXP SWAP1 DIV PUSH20 0xFFFFFFFFFFFFFFFFFFFFFFFFFFFFFFFFFFFFFFFF AND DUP2 JUMP JUMPDEST PUSH1 0x1 ISZERO ISZERO PUSH1 0x1 PUSH0 CALLER PUSH20 0xFFFFFFFFFFFFFFFFFFFFFFFFFFFFFFFFFFFFFFFF AND PUSH20 0xFFFFFFFFFFFFFFFFFFFFFFFFFFFFFFFFFFFFFFFF AND DUP2 MSTORE PUSH1 0x20 ADD SWAP1 DUP2 MSTORE PUSH1 0x20 ADD PUSH0 KECCAK256 PUSH1 0x1 ADD PUSH0 DUP4 PUSH20 0xFFFFFFFFFFFFFFFFFFFFFFFFFFFFFFFFFFFFFFFF AND PUSH20 0xFFFFFFFFFFFFFFFFFFFFFFFFFFFFFFFFFFFFFFFF AND DUP2 MSTORE PUSH1 0x20 ADD SWAP1 DUP2 MSTORE PUSH1 0x20 ADD PUSH0 KECCAK256 PUSH0 SWAP1 SLOAD SWAP1 PUSH2 0x100 EXP SWAP1 DIV PUSH1 0xFF AND ISZERO ISZERO EQ PUSH2 0x53E JUMPI PUSH1 0x40 MLOAD PUSH32 0x8C379A000000000000000000000000000000000000000000000000000000000 DUP2 MSTORE PUSH1 0x4 ADD PUSH2 0x535 SWAP1 PUSH2 0x1001 JUMP JUMPDEST PUSH1 0x40 MLOAD DUP1 SWAP2 SUB SWAP1 REVERT JUMPDEST PUSH3 0x15180 TIMESTAMP PUSH2 0x54D SWAP2 SWAP1 PUSH2 0x104C JUMP JUMPDEST PUSH1 0x1 PUSH0 CALLER PUSH20 0xFFFFFFFFFFFFFFFFFFFFFFFFFFFFFFFFFFFFFFFF AND PUSH20 0xFFFFFFFFFFFFFFFFFFFFFFFFFFFFFFFFFFFFFFFF AND DUP2 MSTORE PUSH1 0x20 ADD SWAP1 DUP2 MSTORE PUSH1 0x20 ADD PUSH0 KECCAK256 PUSH0 ADD PUSH0 DUP4 PUSH20 0xFFFFFFFFFFFFFFFFFFFFFFFFFFFFFFFFFFFFFFFF AND PUSH20 0xFFFFFFFFFFFFFFFFFFFFFFFFFFFFFFFFFFFFFFFF AND DUP2 MSTORE PUSH1 0x20 ADD SWAP1 DUP2 MSTORE PUSH1 0x20 ADD PUSH0 KECCAK256 SLOAD GT ISZERO PUSH2 0x609 JUMPI PUSH1 0x40 MLOAD PUSH32 0x8C379A000000000000000000000000000000000000000000000000000000000 DUP2 MSTORE PUSH1 0x4 ADD PUSH2 0x600 SWAP1 PUSH2 0x10C9 JUMP JUMPDEST PUSH1 0x40 MLOAD DUP1 SWAP2 SUB SWAP1 REVERT JUMPDEST PUSH0 PUSH1 0x2 PUSH0 DUP4 PUSH20 0xFFFFFFFFFFFFFFFFFFFFFFFFFFFFFFFFFFFFFFFF AND PUSH20 0xFFFFFFFFFFFFFFFFFFFFFFFFFFFFFFFFFFFFFFFF AND DUP2 MSTORE PUSH1 0x20 ADD SWAP1 DUP2 MSTORE PUSH1 0x20 ADD PUSH0 KECCAK256 SLOAD GT PUSH2 0x688 JUMPI PUSH1 0x40 MLOAD PUSH32 0x8C379A000000000000000000000000000000000000000000000000000000000 DUP2 MSTORE PUSH1 0x4 ADD PUSH2 0x67F SWAP1 PUSH2 0x1157 JUMP JUMPDEST PUSH1 0x40 MLOAD DUP1 SWAP2 SUB SWAP1 REVERT JUMPDEST PUSH1 0x2 PUSH0 DUP3 PUSH20 0xFFFFFFFFFFFFFFFFFFFFFFFFFFFFFFFFFFFFFFFF AND PUSH20 0xFFFFFFFFFFFFFFFFFFFFFFFFFFFFFFFFFFFFFFFF AND DUP2 MSTORE PUSH1 0x20 ADD SWAP1 DUP2 MSTORE PUSH1 0x20 ADD PUSH0 KECCAK256 SLOAD DUP2 PUSH20 0xFFFFFFFFFFFFFFFFFFFFFFFFFFFFFFFFFFFFFFFF AND PUSH4 0x70A08231 ADDRESS PUSH1 0x40 MLOAD DUP3 PUSH4 0xFFFFFFFF AND PUSH1 0xE0 SHL DUP2 MSTORE PUSH1 0x4 ADD PUSH2 0x6FF SWAP2 SWAP1 PUSH2 0xDCE JUMP JUMPDEST PUSH1 0x20 PUSH1 0x40 MLOAD DUP1 DUP4 SUB DUP2 DUP7 GAS STATICCALL ISZERO DUP1 ISZERO PUSH2 0x71A JUMPI RETURNDATASIZE PUSH0 DUP1 RETURNDATACOPY RETURNDATASIZE PUSH0 REVERT JUMPDEST POP POP POP POP PUSH1 0x40 MLOAD RETURNDATASIZE PUSH1 0x1F NOT PUSH1 0x1F DUP3 ADD AND DUP3 ADD DUP1 PUSH1 0x40 MSTORE POP DUP2 ADD SWAP1 PUSH2 0x73E SWAP2 SWAP1 PUSH2 0xF66 JUMP JUMPDEST LT ISZERO PUSH2 0x77F JUMPI PUSH1 0x40 MLOAD PUSH32 0x8C379A000000000000000000000000000000000000000000000000000000000 DUP2 MSTORE PUSH1 0x4 ADD PUSH2 0x776 SWAP1 PUSH2 0x11E5 JUMP JUMPDEST PUSH1 0x40 MLOAD DUP1 SWAP2 SUB SWAP1 REVERT JUMPDEST DUP1 PUSH20 0xFFFFFFFFFFFFFFFFFFFFFFFFFFFFFFFFFFFFFFFF AND PUSH4 0xA9059CBB CALLER PUSH1 0x2 PUSH0 DUP6 PUSH20 0xFFFFFFFFFFFFFFFFFFFFFFFFFFFFFFFFFFFFFFFF AND PUSH20 0xFFFFFFFFFFFFFFFFFFFFFFFFFFFFFFFFFFFFFFFF AND DUP2 MSTORE PUSH1 0x20 ADD SWAP1 DUP2 MSTORE PUSH1 0x20 ADD PUSH0 KECCAK256 SLOAD PUSH1 0x40 MLOAD DUP4 PUSH4 0xFFFFFFFF AND PUSH1 0xE0 SHL DUP2 MSTORE PUSH1 0x4 ADD PUSH2 0x7F7 SWAP3 SWAP2 SWAP1 PUSH2 0x1203 JUMP JUMPDEST PUSH1 0x20 PUSH1 0x40 MLOAD DUP1 DUP4 SUB DUP2 PUSH0 DUP8 GAS CALL ISZERO DUP1 ISZERO PUSH2 0x813 JUMPI RETURNDATASIZE PUSH0 DUP1 RETURNDATACOPY RETURNDATASIZE PUSH0 REVERT JUMPDEST POP POP POP POP PUSH1 0x40 MLOAD RETURNDATASIZE PUSH1 0x1F NOT PUSH1 0x1F DUP3 ADD AND DUP3 ADD DUP1 PUSH1 0x40 MSTORE POP DUP2 ADD SWAP1 PUSH2 0x837 SWAP2 SWAP1 PUSH2 0x1254 JUMP JUMPDEST POP TIMESTAMP PUSH1 0x1 PUSH0 CALLER PUSH20 0xFFFFFFFFFFFFFFFFFFFFFFFFFFFFFFFFFFFFFFFF AND PUSH20 0xFFFFFFFFFFFFFFFFFFFFFFFFFFFFFFFFFFFFFFFF AND DUP2 MSTORE PUSH1 0x20 ADD SWAP1 DUP2 MSTORE PUSH1 0x20 ADD PUSH0 KECCAK256 PUSH0 ADD PUSH0 DUP4 PUSH20 0xFFFFFFFFFFFFFFFFFFFFFFFFFFFFFFFFFFFFFFFF AND PUSH20 0xFFFFFFFFFFFFFFFFFFFFFFFFFFFFFFFFFFFFFFFF AND DUP2 MSTORE PUSH1 0x20 ADD SWAP1 DUP2 MSTORE PUSH1 0x20 ADD PUSH0 KECCAK256 DUP2 SWAP1 SSTORE POP POP JUMP JUMPDEST PUSH0 PUSH1 0x2 PUSH0 DUP4 PUSH20 0xFFFFFFFFFFFFFFFFFFFFFFFFFFFFFFFFFFFFFFFF AND PUSH20 0xFFFFFFFFFFFFFFFFFFFFFFFFFFFFFFFFFFFFFFFF AND DUP2 MSTORE PUSH1 0x20 ADD SWAP1 DUP2 MSTORE PUSH1 0x20 ADD PUSH0 KECCAK256 SLOAD SWAP1 POP SWAP2 SWAP1 POP JUMP JUMPDEST PUSH0 DUP1 SLOAD SWAP1 PUSH2 0x100 EXP SWAP1 DIV PUSH20 0xFFFFFFFFFFFFFFFFFFFFFFFFFFFFFFFFFFFFFFFF AND PUSH20 0xFFFFFFFFFFFFFFFFFFFFFFFFFFFFFFFFFFFFFFFF AND CALLER PUSH20 0xFFFFFFFFFFFFFFFFFFFFFFFFFFFFFFFFFFFFFFFF AND EQ PUSH2 0x98D JUMPI PUSH1 0x40 MLOAD PUSH32 0x8C379A000000000000000000000000000000000000000000000000000000000 DUP2 MSTORE PUSH1 0x4 ADD PUSH2 0x984 SWAP1 PUSH2 0x12EF JUMP JUMPDEST PUSH1 0x40 MLOAD DUP1 SWAP2 SUB SWAP1 REVERT JUMPDEST PUSH0 JUMPDEST DUP4 DUP4 SWAP1 POP DUP2 LT ISZERO PUSH2 0xA60 JUMPI PUSH0 PUSH1 0x1 PUSH0 DUP7 DUP7 DUP6 DUP2 DUP2 LT PUSH2 0x9B1 JUMPI PUSH2 0x9B0 PUSH2 0xEFA JUMP JUMPDEST JUMPDEST SWAP1 POP PUSH1 0x20 MUL ADD PUSH1 0x20 DUP2 ADD SWAP1 PUSH2 0x9C6 SWAP2 SWAP1 PUSH2 0xF27 JUMP JUMPDEST PUSH20 0xFFFFFFFFFFFFFFFFFFFFFFFFFFFFFFFFFFFFFFFF AND PUSH20 0xFFFFFFFFFFFFFFFFFFFFFFFFFFFFFFFFFFFFFFFF AND DUP2 MSTORE PUSH1 0x20 ADD SWAP1 DUP2 MSTORE PUSH1 0x20 ADD PUSH0 KECCAK256 PUSH1 0x1 ADD PUSH0 DUP5 PUSH20 0xFFFFFFFFFFFFFFFFFFFFFFFFFFFFFFFFFFFFFFFF AND PUSH20 0xFFFFFFFFFFFFFFFFFFFFFFFFFFFFFFFFFFFFFFFF AND DUP2 MSTORE PUSH1 0x20 ADD SWAP1 DUP2 MSTORE PUSH1 0x20 ADD PUSH0 KECCAK256 PUSH0 PUSH2 0x100 EXP DUP2 SLOAD DUP2 PUSH1 0xFF MUL NOT AND SWAP1 DUP4 ISZERO ISZERO MUL OR SWAP1 SSTORE POP DUP1 DUP1 PUSH1 0x1 ADD SWAP2 POP POP PUSH2 0x98F JUMP JUMPDEST POP POP POP POP JUMP JUMPDEST PUSH0 PUSH1 0x1 PUSH0 DUP5 PUSH20 0xFFFFFFFFFFFFFFFFFFFFFFFFFFFFFFFFFFFFFFFF AND PUSH20 0xFFFFFFFFFFFFFFFFFFFFFFFFFFFFFFFFFFFFFFFF AND DUP2 MSTORE PUSH1 0x20 ADD SWAP1 DUP2 MSTORE PUSH1 0x20 ADD PUSH0 KECCAK256 PUSH1 0x1 ADD PUSH0 DUP4 PUSH20 0xFFFFFFFFFFFFFFFFFFFFFFFFFFFFFFFFFFFFFFFF AND PUSH20 0xFFFFFFFFFFFFFFFFFFFFFFFFFFFFFFFFFFFFFFFF AND DUP2 MSTORE PUSH1 0x20 ADD SWAP1 DUP2 MSTORE PUSH1 0x20 ADD PUSH0 KECCAK256 PUSH0 SWAP1 SLOAD SWAP1 PUSH2 0x100 EXP SWAP1 DIV PUSH1 0xFF AND SWAP1 POP SWAP3 SWAP2 POP POP JUMP JUMPDEST PUSH0 DUP1 SLOAD SWAP1 PUSH2 0x100 EXP SWAP1 DIV PUSH20 0xFFFFFFFFFFFFFFFFFFFFFFFFFFFFFFFFFFFFFFFF AND PUSH20 0xFFFFFFFFFFFFFFFFFFFFFFFFFFFFFFFFFFFFFFFF AND CALLER PUSH20 0xFFFFFFFFFFFFFFFFFFFFFFFFFFFFFFFFFFFFFFFF AND EQ PUSH2 0xB84 JUMPI PUSH1 0x40 MLOAD PUSH32 0x8C379A000000000000000000000000000000000000000000000000000000000 DUP2 MSTORE PUSH1 0x4 ADD PUSH2 0xB7B SWAP1 PUSH2 0xEDC JUMP JUMPDEST PUSH1 0x40 MLOAD DUP1 SWAP2 SUB SWAP1 REVERT JUMPDEST DUP1 PUSH1 0x2 PUSH0 DUP5 PUSH20 0xFFFFFFFFFFFFFFFFFFFFFFFFFFFFFFFFFFFFFFFF AND PUSH20 0xFFFFFFFFFFFFFFFFFFFFFFFFFFFFFFFFFFFFFFFF AND DUP2 MSTORE PUSH1 0x20 ADD SWAP1 DUP2 MSTORE PUSH1 0x20 ADD PUSH0 KECCAK256 DUP2 SWAP1 SSTORE POP POP POP JUMP JUMPDEST PUSH0 DUP1 REVERT JUMPDEST PUSH0 DUP1 REVERT JUMPDEST PUSH0 PUSH20 0xFFFFFFFFFFFFFFFFFFFFFFFFFFFFFFFFFFFFFFFF DUP3 AND SWAP1 POP SWAP2 SWAP1 POP JUMP JUMPDEST PUSH0 PUSH2 0xBFB DUP3 PUSH2 0xBD2 JUMP JUMPDEST SWAP1 POP SWAP2 SWAP1 POP JUMP JUMPDEST PUSH2 0xC0B DUP2 PUSH2 0xBF1 JUMP JUMPDEST DUP2 EQ PUSH2 0xC15 JUMPI PUSH0 DUP1 REVERT JUMPDEST POP JUMP JUMPDEST PUSH0 DUP2 CALLDATALOAD SWAP1 POP PUSH2 0xC26 DUP2 PUSH2 0xC02 JUMP JUMPDEST SWAP3 SWAP2 POP POP JUMP JUMPDEST PUSH0 DUP1 PUSH1 0x40 DUP4 DUP6 SUB SLT ISZERO PUSH2 0xC42 JUMPI PUSH2 0xC41 PUSH2 0xBCA JUMP JUMPDEST JUMPDEST PUSH0 PUSH2 0xC4F DUP6 DUP3 DUP7 ADD PUSH2 0xC18 JUMP JUMPDEST SWAP3 POP POP PUSH1 0x20 PUSH2 0xC60 DUP6 DUP3 DUP7 ADD PUSH2 0xC18 JUMP JUMPDEST SWAP2 POP POP SWAP3 POP SWAP3 SWAP1 POP JUMP JUMPDEST PUSH0 DUP2 SWAP1 POP SWAP2 SWAP1 POP JUMP JUMPDEST PUSH2 0xC7C DUP2 PUSH2 0xC6A JUMP JUMPDEST DUP3 MSTORE POP POP JUMP JUMPDEST PUSH0 PUSH1 0x20 DUP3 ADD SWAP1 POP PUSH2 0xC95 PUSH0 DUP4 ADD DUP5 PUSH2 0xC73 JUMP JUMPDEST SWAP3 SWAP2 POP POP JUMP JUMPDEST PUSH0 DUP1 REVERT JUMPDEST PUSH0 DUP1 REVERT JUMPDEST PUSH0 DUP1 REVERT JUMPDEST PUSH0 DUP1 DUP4 PUSH1 0x1F DUP5 ADD SLT PUSH2 0xCBC JUMPI PUSH2 0xCBB PUSH2 0xC9B JUMP JUMPDEST JUMPDEST DUP3 CALLDATALOAD SWAP1 POP PUSH8 0xFFFFFFFFFFFFFFFF DUP2 GT ISZERO PUSH2 0xCD9 JUMPI PUSH2 0xCD8 PUSH2 0xC9F JUMP JUMPDEST JUMPDEST PUSH1 0x20 DUP4 ADD SWAP2 POP DUP4 PUSH1 0x20 DUP3 MUL DUP4 ADD GT ISZERO PUSH2 0xCF5 JUMPI PUSH2 0xCF4 PUSH2 0xCA3 JUMP JUMPDEST JUMPDEST SWAP3 POP SWAP3 SWAP1 POP JUMP JUMPDEST PUSH0 DUP1 PUSH0 PUSH1 0x40 DUP5 DUP7 SUB SLT ISZERO PUSH2 0xD13 JUMPI PUSH2 0xD12 PUSH2 0xBCA JUMP JUMPDEST JUMPDEST PUSH0 DUP5 ADD CALLDATALOAD PUSH8 0xFFFFFFFFFFFFFFFF DUP2 GT ISZERO PUSH2 0xD30 JUMPI PUSH2 0xD2F PUSH2 0xBCE JUMP JUMPDEST JUMPDEST PUSH2 0xD3C DUP7 DUP3 DUP8 ADD PUSH2 0xCA7 JUMP JUMPDEST SWAP4 POP SWAP4 POP POP PUSH1 0x20 PUSH2 0xD4F DUP7 DUP3 DUP8 ADD PUSH2 0xC18 JUMP JUMPDEST SWAP2 POP POP SWAP3 POP SWAP3 POP SWAP3 JUMP JUMPDEST PUSH0 PUSH2 0xD63 DUP3 PUSH2 0xBF1 JUMP JUMPDEST SWAP1 POP SWAP2 SWAP1 POP JUMP JUMPDEST PUSH2 0xD73 DUP2 PUSH2 0xD59 JUMP JUMPDEST DUP2 EQ PUSH2 0xD7D JUMPI PUSH0 DUP1 REVERT JUMPDEST POP JUMP JUMPDEST PUSH0 DUP2 CALLDATALOAD SWAP1 POP PUSH2 0xD8E DUP2 PUSH2 0xD6A JUMP JUMPDEST SWAP3 SWAP2 POP POP JUMP JUMPDEST PUSH0 PUSH1 0x20 DUP3 DUP5 SUB SLT ISZERO PUSH2 0xDA9 JUMPI PUSH2 0xDA8 PUSH2 0xBCA JUMP JUMPDEST JUMPDEST PUSH0 PUSH2 0xDB6 DUP5 DUP3 DUP6 ADD PUSH2 0xD80 JUMP JUMPDEST SWAP2 POP POP SWAP3 SWAP2 POP POP JUMP JUMPDEST PUSH2 0xDC8 DUP2 PUSH2 0xBF1 JUMP JUMPDEST DUP3 MSTORE POP POP JUMP JUMPDEST PUSH0 PUSH1 0x20 DUP3 ADD SWAP1 POP PUSH2 0xDE1 PUSH0 DUP4 ADD DUP5 PUSH2 0xDBF JUMP JUMPDEST SWAP3 SWAP2 POP POP JUMP JUMPDEST PUSH0 DUP2 ISZERO ISZERO SWAP1 POP SWAP2 SWAP1 POP JUMP JUMPDEST PUSH2 0xDFB DUP2 PUSH2 0xDE7 JUMP JUMPDEST DUP3 MSTORE POP POP JUMP JUMPDEST PUSH0 PUSH1 0x20 DUP3 ADD SWAP1 POP PUSH2 0xE14 PUSH0 DUP4 ADD DUP5 PUSH2 0xDF2 JUMP JUMPDEST SWAP3 SWAP2 POP POP JUMP JUMPDEST PUSH2 0xE23 DUP2 PUSH2 0xC6A JUMP JUMPDEST DUP2 EQ PUSH2 0xE2D JUMPI PUSH0 DUP1 REVERT JUMPDEST POP JUMP JUMPDEST PUSH0 DUP2 CALLDATALOAD SWAP1 POP PUSH2 0xE3E DUP2 PUSH2 0xE1A JUMP JUMPDEST SWAP3 SWAP2 POP POP JUMP JUMPDEST PUSH0 DUP1 PUSH1 0x40 DUP4 DUP6 SUB SLT ISZERO PUSH2 0xE5A JUMPI PUSH2 0xE59 PUSH2 0xBCA JUMP JUMPDEST JUMPDEST PUSH0 PUSH2 0xE67 DUP6 DUP3 DUP7 ADD PUSH2 0xC18 JUMP JUMPDEST SWAP3 POP POP PUSH1 0x20 PUSH2 0xE78 DUP6 DUP3 DUP7 ADD PUSH2 0xE30 JUMP JUMPDEST SWAP2 POP POP SWAP3 POP SWAP3 SWAP1 POP JUMP JUMPDEST PUSH0 DUP3 DUP3 MSTORE PUSH1 0x20 DUP3 ADD SWAP1 POP SWAP3 SWAP2 POP POP JUMP JUMPDEST PUSH32 0x4F6E6C79206D616E616765722063616E20726567697374657220757365727300 PUSH0 DUP3 ADD MSTORE POP JUMP JUMPDEST PUSH0 PUSH2 0xEC6 PUSH1 0x1F DUP4 PUSH2 0xE82 JUMP JUMPDEST SWAP2 POP PUSH2 0xED1 DUP3 PUSH2 0xE92 JUMP JUMPDEST PUSH1 0x20 DUP3 ADD SWAP1 POP SWAP2 SWAP1 POP JUMP JUMPDEST PUSH0 PUSH1 0x20 DUP3 ADD SWAP1 POP DUP2 DUP2 SUB PUSH0 DUP4 ADD MSTORE PUSH2 0xEF3 DUP2 PUSH2 0xEBA JUMP JUMPDEST SWAP1 POP SWAP2 SWAP1 POP JUMP JUMPDEST PUSH32 0x4E487B7100000000000000000000000000000000000000000000000000000000 PUSH0 MSTORE PUSH1 0x32 PUSH1 0x4 MSTORE PUSH1 0x24 PUSH0 REVERT JUMPDEST PUSH0 PUSH1 0x20 DUP3 DUP5 SUB SLT ISZERO PUSH2 0xF3C JUMPI PUSH2 0xF3B PUSH2 0xBCA JUMP JUMPDEST JUMPDEST PUSH0 PUSH2 0xF49 DUP5 DUP3 DUP6 ADD PUSH2 0xC18 JUMP JUMPDEST SWAP2 POP POP SWAP3 SWAP2 POP POP JUMP JUMPDEST PUSH0 DUP2 MLOAD SWAP1 POP PUSH2 0xF60 DUP2 PUSH2 0xE1A JUMP JUMPDEST SWAP3 SWAP2 POP POP JUMP JUMPDEST PUSH0 PUSH1 0x20 DUP3 DUP5 SUB SLT ISZERO PUSH2 0xF7B JUMPI PUSH2 0xF7A PUSH2 0xBCA JUMP JUMPDEST JUMPDEST PUSH0 PUSH2 0xF88 DUP5 DUP3 DUP6 ADD PUSH2 0xF52 JUMP JUMPDEST SWAP2 POP POP SWAP3 SWAP2 POP POP JUMP JUMPDEST PUSH32 0x4F6E6C7920726567697374657265642075736572732063616E20757365207468 PUSH0 DUP3 ADD MSTORE PUSH32 0x69732061697264726F7000000000000000000000000000000000000000000000 PUSH1 0x20 DUP3 ADD MSTORE POP JUMP JUMPDEST PUSH0 PUSH2 0xFEB PUSH1 0x2A DUP4 PUSH2 0xE82 JUMP JUMPDEST SWAP2 POP PUSH2 0xFF6 DUP3 PUSH2 0xF91 JUMP JUMPDEST PUSH1 0x40 DUP3 ADD SWAP1 POP SWAP2 SWAP1 POP JUMP JUMPDEST PUSH0 PUSH1 0x20 DUP3 ADD SWAP1 POP DUP2 DUP2 SUB PUSH0 DUP4 ADD MSTORE PUSH2 0x1018 DUP2 PUSH2 0xFDF JUMP JUMPDEST SWAP1 POP SWAP2 SWAP1 POP JUMP JUMPDEST PUSH32 0x4E487B7100000000000000000000000000000000000000000000000000000000 PUSH0 MSTORE PUSH1 0x11 PUSH1 0x4 MSTORE PUSH1 0x24 PUSH0 REVERT JUMPDEST PUSH0 PUSH2 0x1056 DUP3 PUSH2 0xC6A JUMP JUMPDEST SWAP2 POP PUSH2 0x1061 DUP4 PUSH2 0xC6A JUMP JUMPDEST SWAP3 POP DUP3 DUP3 SUB SWAP1 POP DUP2 DUP2 GT ISZERO PUSH2 0x1079 JUMPI PUSH2 0x1078 PUSH2 0x101F JUMP JUMPDEST JUMPDEST SWAP3 SWAP2 POP POP JUMP JUMPDEST PUSH32 0x4F6E6C79206F6E65207265717565737420706572206461790000000000000000 PUSH0 DUP3 ADD MSTORE POP JUMP JUMPDEST PUSH0 PUSH2 0x10B3 PUSH1 0x18 DUP4 PUSH2 0xE82 JUMP JUMPDEST SWAP2 POP PUSH2 0x10BE DUP3 PUSH2 0x107F JUMP JUMPDEST PUSH1 0x20 DUP3 ADD SWAP1 POP SWAP2 SWAP1 POP JUMP JUMPDEST PUSH0 PUSH1 0x20 DUP3 ADD SWAP1 POP DUP2 DUP2 SUB PUSH0 DUP4 ADD MSTORE PUSH2 0x10E0 DUP2 PUSH2 0x10A7 JUMP JUMPDEST SWAP1 POP SWAP2 SWAP1 POP JUMP JUMPDEST PUSH32 0x546869732066617563657420646F6573206E6F7420737570706F727420746865 PUSH0 DUP3 ADD MSTORE PUSH32 0x20746F6B656E2070726F76696465640000000000000000000000000000000000 PUSH1 0x20 DUP3 ADD MSTORE POP JUMP JUMPDEST PUSH0 PUSH2 0x1141 PUSH1 0x2F DUP4 PUSH2 0xE82 JUMP JUMPDEST SWAP2 POP PUSH2 0x114C DUP3 PUSH2 0x10E7 JUMP JUMPDEST PUSH1 0x40 DUP3 ADD SWAP1 POP SWAP2 SWAP1 POP JUMP JUMPDEST PUSH0 PUSH1 0x20 DUP3 ADD SWAP1 POP DUP2 DUP2 SUB PUSH0 DUP4 ADD MSTORE PUSH2 0x116E DUP2 PUSH2 0x1135 JUMP JUMPDEST SWAP1 POP SWAP2 SWAP1 POP JUMP JUMPDEST PUSH32 0x54686520666175636574206861732065786861757365642069747320746F6B65 PUSH0 DUP3 ADD MSTORE PUSH32 0x6E732C207265706C656E69736820666175636574000000000000000000000000 PUSH1 0x20 DUP3 ADD MSTORE POP JUMP JUMPDEST PUSH0 PUSH2 0x11CF PUSH1 0x34 DUP4 PUSH2 0xE82 JUMP JUMPDEST SWAP2 POP PUSH2 0x11DA DUP3 PUSH2 0x1175 JUMP JUMPDEST PUSH1 0x40 DUP3 ADD SWAP1 POP SWAP2 SWAP1 POP JUMP JUMPDEST PUSH0 PUSH1 0x20 DUP3 ADD SWAP1 POP DUP2 DUP2 SUB PUSH0 DUP4 ADD MSTORE PUSH2 0x11FC DUP2 PUSH2 0x11C3 JUMP JUMPDEST SWAP1 POP SWAP2 SWAP1 POP JUMP JUMPDEST PUSH0 PUSH1 0x40 DUP3 ADD SWAP1 POP PUSH2 0x1216 PUSH0 DUP4 ADD DUP6 PUSH2 0xDBF JUMP JUMPDEST PUSH2 0x1223 PUSH1 0x20 DUP4 ADD DUP5 PUSH2 0xC73 JUMP JUMPDEST SWAP4 SWAP3 POP POP POP JUMP JUMPDEST PUSH2 0x1233 DUP2 PUSH2 0xDE7 JUMP JUMPDEST DUP2 EQ PUSH2 0x123D JUMPI PUSH0 DUP1 REVERT JUMPDEST POP JUMP JUMPDEST PUSH0 DUP2 MLOAD SWAP1 POP PUSH2 0x124E DUP2 PUSH2 0x122A JUMP JUMPDEST SWAP3 SWAP2 POP POP JUMP JUMPDEST PUSH0 PUSH1 0x20 DUP3 DUP5 SUB SLT ISZERO PUSH2 0x1269 JUMPI PUSH2 0x1268 PUSH2 0xBCA JUMP JUMPDEST JUMPDEST PUSH0 PUSH2 0x1276 DUP5 DUP3 DUP6 ADD PUSH2 0x1240 JUMP JUMPDEST SWAP2 POP POP SWAP3 SWAP2 POP POP JUMP JUMPDEST PUSH32 0x4F6E6C79206D616E616765722063616E20646572656769737465722075736572 PUSH0 DUP3 ADD MSTORE PUSH32 0x7300000000000000000000000000000000000000000000000000000000000000 PUSH1 0x20 DUP3 ADD MSTORE POP JUMP JUMPDEST PUSH0 PUSH2 0x12D9 PUSH1 0x21 DUP4 PUSH2 0xE82 JUMP JUMPDEST SWAP2 POP PUSH2 0x12E4 DUP3 PUSH2 0x127F JUMP JUMPDEST PUSH1 0x40 DUP3 ADD SWAP1 POP SWAP2 SWAP1 POP JUMP JUMPDEST PUSH0 PUSH1 0x20 DUP3 ADD SWAP1 POP DUP2 DUP2 SUB PUSH0 DUP4 ADD MSTORE PUSH2 0x1306 DUP2 PUSH2 0x12CD JUMP JUMPDEST SWAP1 POP SWAP2 SWAP1 POP JUMP INVALID LOG2 PUSH5 0x6970667358 0x22 SLT KECCAK256 MULMOD 0xBE CODECOPY LOG4 STATICCALL 0xC GASLIMIT 0x4F CREATE2 0xE2 JUMPI 0xBD SAR LOG4 0xF SMOD 0x5C SWAP10 PUSH16 0xCE4781CDF90FDECC16DFCE945564736F PUSH13 0x63430008160033000000000000 "
				},
				"gasEstimates": {
					"creation": {
						"codeDepositCost": "986200",
						"executionCost": "25290",
						"totalCost": "1011490"
					},
					"external": {
						"deRegisterUsers(address[],address)": "infinite",
						"getLatestRequestTimestamp(address,address)": "infinite",
						"getRegistrationStatus(address,address)": "infinite",
						"manager()": "2572",
						"registerUsers(address[],address)": "infinite",
						"requestTokens(address)": "infinite",
						"retrieveFaucetAmount(address)": "2893",
						"retrieveFaucetBalance(address)": "infinite",
						"set_faucet_amount(address,uint256)": "25076"
					}
				},
				"methodIdentifiers": {
					"deRegisterUsers(address[],address)": "63f066c9",
					"getLatestRequestTimestamp(address,address)": "0ff6aab3",
					"getRegistrationStatus(address,address)": "95d3113a",
					"manager()": "481c6a75",
					"registerUsers(address[],address)": "3384af57",
					"requestTokens(address)": "580f3904",
					"retrieveFaucetAmount(address)": "5a942a98",
					"retrieveFaucetBalance(address)": "44569bec",
					"set_faucet_amount(address,uint256)": "9e14cb3d"
				}
			},
			"storageLayout": {
				"storage": [
					{
						"astId": 89,
						"contract": "USTFaucet_flattened.sol:USTFaucet",
						"label": "manager",
						"offset": 0,
						"slot": "0",
						"type": "t_address"
					},
					{
						"astId": 94,
						"contract": "USTFaucet_flattened.sol:USTFaucet",
						"label": "user_token_mapping",
						"offset": 0,
						"slot": "1",
						"type": "t_mapping(t_address,t_struct(user_details)87_storage)"
					},
					{
						"astId": 98,
						"contract": "USTFaucet_flattened.sol:USTFaucet",
						"label": "faucet_amount",
						"offset": 0,
						"slot": "2",
						"type": "t_mapping(t_address,t_uint256)"
					}
				],
				"types": {
					"t_address": {
						"encoding": "inplace",
						"label": "address",
						"numberOfBytes": "20"
					},
					"t_bool": {
						"encoding": "inplace",
						"label": "bool",
						"numberOfBytes": "1"
					},
					"t_mapping(t_address,t_bool)": {
						"encoding": "mapping",
						"key": "t_address",
						"label": "mapping(address => bool)",
						"numberOfBytes": "32",
						"value": "t_bool"
					},
					"t_mapping(t_address,t_struct(user_details)87_storage)": {
						"encoding": "mapping",
						"key": "t_address",
						"label": "mapping(address => struct USTFaucet.user_details)",
						"numberOfBytes": "32",
						"value": "t_struct(user_details)87_storage"
					},
					"t_mapping(t_address,t_uint256)": {
						"encoding": "mapping",
						"key": "t_address",
						"label": "mapping(address => uint256)",
						"numberOfBytes": "32",
						"value": "t_uint256"
					},
					"t_struct(user_details)87_storage": {
						"encoding": "inplace",
						"label": "struct USTFaucet.user_details",
						"members": [
							{
								"astId": 82,
								"contract": "USTFaucet_flattened.sol:USTFaucet",
								"label": "latest_request",
								"offset": 0,
								"slot": "0",
								"type": "t_mapping(t_address,t_uint256)"
							},
							{
								"astId": 86,
								"contract": "USTFaucet_flattened.sol:USTFaucet",
								"label": "request_permission",
								"offset": 0,
								"slot": "1",
								"type": "t_mapping(t_address,t_bool)"
							}
						],
						"numberOfBytes": "64"
					},
					"t_uint256": {
						"encoding": "inplace",
						"label": "uint256",
						"numberOfBytes": "32"
					}
				}
			},
			"userdoc": {
				"kind": "user",
				"methods": {},
				"version": 1
			}
		}
	}
}