{
	"assignment3/Swap.sol": {
		"Swap": {
			"abi": [
				{
					"inputs": [
						{
							"internalType": "address",
							"name": "addr0",
							"type": "address"
						},
						{
							"internalType": "address",
							"name": "addr1",
							"type": "address"
						}
					],
					"stateMutability": "nonpayable",
					"type": "constructor"
				},
				{
					"inputs": [
						{
							"internalType": "address",
							"name": "owner",
							"type": "address"
						}
					],
					"name": "OwnableInvalidOwner",
					"type": "error"
				},
				{
					"inputs": [
						{
							"internalType": "address",
							"name": "account",
							"type": "address"
						}
					],
					"name": "OwnableUnauthorizedAccount",
					"type": "error"
				},
				{
					"anonymous": false,
					"inputs": [
						{
							"indexed": true,
							"internalType": "address",
							"name": "previousOwner",
							"type": "address"
						},
						{
							"indexed": true,
							"internalType": "address",
							"name": "newOwner",
							"type": "address"
						}
					],
					"name": "OwnershipTransferred",
					"type": "event"
				},
				{
					"inputs": [
						{
							"internalType": "uint256",
							"name": "token0Amount",
							"type": "uint256"
						}
					],
					"name": "addLiquidity",
					"outputs": [],
					"stateMutability": "nonpayable",
					"type": "function"
				},
				{
					"inputs": [],
					"name": "getReserves",
					"outputs": [
						{
							"internalType": "uint256",
							"name": "",
							"type": "uint256"
						},
						{
							"internalType": "uint256",
							"name": "",
							"type": "uint256"
						}
					],
					"stateMutability": "view",
					"type": "function"
				},
				{
					"inputs": [
						{
							"internalType": "address",
							"name": "LP",
							"type": "address"
						}
					],
					"name": "getShares",
					"outputs": [
						{
							"internalType": "uint256",
							"name": "",
							"type": "uint256"
						}
					],
					"stateMutability": "view",
					"type": "function"
				},
				{
					"inputs": [],
					"name": "getTokens",
					"outputs": [
						{
							"internalType": "address",
							"name": "",
							"type": "address"
						},
						{
							"internalType": "address",
							"name": "",
							"type": "address"
						}
					],
					"stateMutability": "view",
					"type": "function"
				},
				{
					"inputs": [
						{
							"internalType": "uint256",
							"name": "token0Amount",
							"type": "uint256"
						},
						{
							"internalType": "uint256",
							"name": "token1Amount",
							"type": "uint256"
						}
					],
					"name": "init",
					"outputs": [],
					"stateMutability": "nonpayable",
					"type": "function"
				},
				{
					"inputs": [],
					"name": "owner",
					"outputs": [
						{
							"internalType": "address",
							"name": "",
							"type": "address"
						}
					],
					"stateMutability": "view",
					"type": "function"
				},
				{
					"inputs": [
						{
							"internalType": "uint256",
							"name": "withdrawShares",
							"type": "uint256"
						}
					],
					"name": "removeLiquidity",
					"outputs": [],
					"stateMutability": "nonpayable",
					"type": "function"
				},
				{
					"inputs": [],
					"name": "renounceOwnership",
					"outputs": [],
					"stateMutability": "nonpayable",
					"type": "function"
				},
				{
					"inputs": [
						{
							"internalType": "uint256",
							"name": "token0Amount",
							"type": "uint256"
						}
					],
					"name": "token0To1",
					"outputs": [],
					"stateMutability": "nonpayable",
					"type": "function"
				},
				{
					"inputs": [
						{
							"internalType": "uint256",
							"name": "token1Amount",
							"type": "uint256"
						}
					],
					"name": "token1To0",
					"outputs": [],
					"stateMutability": "nonpayable",
					"type": "function"
				},
				{
					"inputs": [],
					"name": "totalShares",
					"outputs": [
						{
							"internalType": "uint256",
							"name": "",
							"type": "uint256"
						}
					],
					"stateMutability": "view",
					"type": "function"
				},
				{
					"inputs": [
						{
							"internalType": "address",
							"name": "newOwner",
							"type": "address"
						}
					],
					"name": "transferOwnership",
					"outputs": [],
					"stateMutability": "nonpayable",
					"type": "function"
				}
			],
			"devdoc": {
				"errors": {
					"OwnableInvalidOwner(address)": [
						{
							"details": "The owner is not a valid owner account. (eg. `address(0)`)"
						}
					],
					"OwnableUnauthorizedAccount(address)": [
						{
							"details": "The caller account is not authorized to perform an operation."
						}
					]
				},
				"kind": "dev",
				"methods": {
					"owner()": {
						"details": "Returns the address of the current owner."
					},
					"renounceOwnership()": {
						"details": "Leaves the contract without owner. It will not be possible to call `onlyOwner` functions. Can only be called by the current owner. NOTE: Renouncing ownership will leave the contract without an owner, thereby disabling any functionality that is only available to the owner."
					},
					"transferOwnership(address)": {
						"details": "Transfers ownership of the contract to a new account (`newOwner`). Can only be called by the current owner."
					}
				},
				"version": 1
			},
			"evm": {
				"assembly": "    /* \"assignment3/Swap.sol\":180:4223  contract Swap is Ownable(msg.sender), ISwap {... */\n  mstore(0x40, 0x80)\n    /* \"assignment3/Swap.sol\":386:486  constructor(address addr0, address addr1) {... */\n  callvalue\n  dup1\n  iszero\n  tag_1\n  jumpi\n  0x00\n  dup1\n  revert\ntag_1:\n  pop\n  mload(0x40)\n  sub(codesize, bytecodeSize)\n  dup1\n  bytecodeSize\n  dup4\n  codecopy\n  dup2\n  dup2\n  add\n  0x40\n  mstore\n  dup2\n  add\n  swap1\n  tag_2\n  swap2\n  swap1\n  tag_3\n  jump\t// in\ntag_2:\n    /* \"assignment3/Swap.sol\":205:215  msg.sender */\n  caller\n    /* \"@openzeppelin/contracts/access/Ownable.sol\":1297:1298  0 */\n  0x00\n    /* \"@openzeppelin/contracts/access/Ownable.sol\":1273:1299  initialOwner == address(0) */\n  0xffffffffffffffffffffffffffffffffffffffff\n  and\n    /* \"@openzeppelin/contracts/access/Ownable.sol\":1273:1285  initialOwner */\n  dup2\n    /* \"@openzeppelin/contracts/access/Ownable.sol\":1273:1299  initialOwner == address(0) */\n  0xffffffffffffffffffffffffffffffffffffffff\n  and\n  sub\n    /* \"@openzeppelin/contracts/access/Ownable.sol\":1269:1364  if (initialOwner == address(0)) {... */\n  tag_7\n  jumpi\n    /* \"@openzeppelin/contracts/access/Ownable.sol\":1350:1351  0 */\n  0x00\n    /* \"@openzeppelin/contracts/access/Ownable.sol\":1322:1353  OwnableInvalidOwner(address(0)) */\n  mload(0x40)\n  0x1e4fbdf700000000000000000000000000000000000000000000000000000000\n  dup2\n  mstore\n  0x04\n  add\n  tag_8\n  swap2\n  swap1\n  tag_9\n  jump\t// in\ntag_8:\n  mload(0x40)\n  dup1\n  swap2\n  sub\n  swap1\n  revert\n    /* \"@openzeppelin/contracts/access/Ownable.sol\":1269:1364  if (initialOwner == address(0)) {... */\ntag_7:\n    /* \"@openzeppelin/contracts/access/Ownable.sol\":1373:1405  _transferOwnership(initialOwner) */\n  tag_10\n    /* \"@openzeppelin/contracts/access/Ownable.sol\":1392:1404  initialOwner */\n  dup2\n    /* \"@openzeppelin/contracts/access/Ownable.sol\":1373:1391  _transferOwnership */\n  shl(0x20, tag_11)\n    /* \"@openzeppelin/contracts/access/Ownable.sol\":1373:1405  _transferOwnership(initialOwner) */\n  0x20\n  shr\n  jump\t// in\ntag_10:\n    /* \"@openzeppelin/contracts/access/Ownable.sol\":1225:1412  constructor(address initialOwner) {... */\n  pop\n    /* \"assignment3/Swap.sol\":448:453  addr0 */\n  dup2\n    /* \"assignment3/Swap.sol\":439:445  token0 */\n  0x01\n  0x00\n    /* \"assignment3/Swap.sol\":439:453  token0 = addr0 */\n  0x0100\n  exp\n  dup2\n  sload\n  dup2\n  0xffffffffffffffffffffffffffffffffffffffff\n  mul\n  not\n  and\n  swap1\n  dup4\n  0xffffffffffffffffffffffffffffffffffffffff\n  and\n  mul\n  or\n  swap1\n  sstore\n  pop\n    /* \"assignment3/Swap.sol\":473:478  addr1 */\n  dup1\n    /* \"assignment3/Swap.sol\":464:470  token1 */\n  0x02\n  0x00\n    /* \"assignment3/Swap.sol\":464:478  token1 = addr1 */\n  0x0100\n  exp\n  dup2\n  sload\n  dup2\n  0xffffffffffffffffffffffffffffffffffffffff\n  mul\n  not\n  and\n  swap1\n  dup4\n  0xffffffffffffffffffffffffffffffffffffffff\n  and\n  mul\n  or\n  swap1\n  sstore\n  pop\n    /* \"assignment3/Swap.sol\":386:486  constructor(address addr0, address addr1) {... */\n  pop\n  pop\n    /* \"assignment3/Swap.sol\":180:4223  contract Swap is Ownable(msg.sender), ISwap {... */\n  jump(tag_13)\n    /* \"@openzeppelin/contracts/access/Ownable.sol\":2912:3099  function _transferOwnership(address newOwner) internal virtual {... */\ntag_11:\n    /* \"@openzeppelin/contracts/access/Ownable.sol\":2985:3001  address oldOwner */\n  0x00\n    /* \"@openzeppelin/contracts/access/Ownable.sol\":3004:3010  _owner */\n  dup1\n  0x00\n  swap1\n  sload\n  swap1\n  0x0100\n  exp\n  swap1\n  div\n  0xffffffffffffffffffffffffffffffffffffffff\n  and\n    /* \"@openzeppelin/contracts/access/Ownable.sol\":2985:3010  address oldOwner = _owner */\n  swap1\n  pop\n    /* \"@openzeppelin/contracts/access/Ownable.sol\":3029:3037  newOwner */\n  dup2\n    /* \"@openzeppelin/contracts/access/Ownable.sol\":3020:3026  _owner */\n  0x00\n  dup1\n    /* \"@openzeppelin/contracts/access/Ownable.sol\":3020:3037  _owner = newOwner */\n  0x0100\n  exp\n  dup2\n  sload\n  dup2\n  0xffffffffffffffffffffffffffffffffffffffff\n  mul\n  not\n  and\n  swap1\n  dup4\n  0xffffffffffffffffffffffffffffffffffffffff\n  and\n  mul\n  or\n  swap1\n  sstore\n  pop\n    /* \"@openzeppelin/contracts/access/Ownable.sol\":3083:3091  newOwner */\n  dup2\n    /* \"@openzeppelin/contracts/access/Ownable.sol\":3052:3092  OwnershipTransferred(oldOwner, newOwner) */\n  0xffffffffffffffffffffffffffffffffffffffff\n  and\n    /* \"@openzeppelin/contracts/access/Ownable.sol\":3073:3081  oldOwner */\n  dup2\n    /* \"@openzeppelin/contracts/access/Ownable.sol\":3052:3092  OwnershipTransferred(oldOwner, newOwner) */\n  0xffffffffffffffffffffffffffffffffffffffff\n  and\n  0x8be0079c531659141344cd1fd0a4f28419497f9722a3daafe3b4186f6b6457e0\n  mload(0x40)\n  mload(0x40)\n  dup1\n  swap2\n  sub\n  swap1\n  log3\n    /* \"@openzeppelin/contracts/access/Ownable.sol\":2975:3099  {... */\n  pop\n    /* \"@openzeppelin/contracts/access/Ownable.sol\":2912:3099  function _transferOwnership(address newOwner) internal virtual {... */\n  pop\n  jump\t// out\n    /* \"#utility.yul\":88:205   */\ntag_16:\n    /* \"#utility.yul\":197:198   */\n  0x00\n    /* \"#utility.yul\":194:195   */\n  dup1\n    /* \"#utility.yul\":187:199   */\n  revert\n    /* \"#utility.yul\":334:460   */\ntag_18:\n    /* \"#utility.yul\":371:378   */\n  0x00\n    /* \"#utility.yul\":411:453   */\n  0xffffffffffffffffffffffffffffffffffffffff\n    /* \"#utility.yul\":404:409   */\n  dup3\n    /* \"#utility.yul\":400:454   */\n  and\n    /* \"#utility.yul\":389:454   */\n  swap1\n  pop\n    /* \"#utility.yul\":334:460   */\n  swap2\n  swap1\n  pop\n  jump\t// out\n    /* \"#utility.yul\":466:562   */\ntag_19:\n    /* \"#utility.yul\":503:510   */\n  0x00\n    /* \"#utility.yul\":532:556   */\n  tag_29\n    /* \"#utility.yul\":550:555   */\n  dup3\n    /* \"#utility.yul\":532:556   */\n  tag_18\n  jump\t// in\ntag_29:\n    /* \"#utility.yul\":521:556   */\n  swap1\n  pop\n    /* \"#utility.yul\":466:562   */\n  swap2\n  swap1\n  pop\n  jump\t// out\n    /* \"#utility.yul\":568:690   */\ntag_20:\n    /* \"#utility.yul\":641:665   */\n  tag_31\n    /* \"#utility.yul\":659:664   */\n  dup2\n    /* \"#utility.yul\":641:665   */\n  tag_19\n  jump\t// in\ntag_31:\n    /* \"#utility.yul\":634:639   */\n  dup2\n    /* \"#utility.yul\":631:666   */\n  eq\n    /* \"#utility.yul\":621:684   */\n  tag_32\n  jumpi\n    /* \"#utility.yul\":680:681   */\n  0x00\n    /* \"#utility.yul\":677:678   */\n  dup1\n    /* \"#utility.yul\":670:682   */\n  revert\n    /* \"#utility.yul\":621:684   */\ntag_32:\n    /* \"#utility.yul\":568:690   */\n  pop\n  jump\t// out\n    /* \"#utility.yul\":696:839   */\ntag_21:\n    /* \"#utility.yul\":753:758   */\n  0x00\n    /* \"#utility.yul\":784:790   */\n  dup2\n    /* \"#utility.yul\":778:791   */\n  mload\n    /* \"#utility.yul\":769:791   */\n  swap1\n  pop\n    /* \"#utility.yul\":800:833   */\n  tag_34\n    /* \"#utility.yul\":827:832   */\n  dup2\n    /* \"#utility.yul\":800:833   */\n  tag_20\n  jump\t// in\ntag_34:\n    /* \"#utility.yul\":696:839   */\n  swap3\n  swap2\n  pop\n  pop\n  jump\t// out\n    /* \"#utility.yul\":845:1352   */\ntag_3:\n    /* \"#utility.yul\":924:930   */\n  0x00\n    /* \"#utility.yul\":932:938   */\n  dup1\n    /* \"#utility.yul\":981:983   */\n  0x40\n    /* \"#utility.yul\":969:978   */\n  dup4\n    /* \"#utility.yul\":960:967   */\n  dup6\n    /* \"#utility.yul\":956:979   */\n  sub\n    /* \"#utility.yul\":952:984   */\n  slt\n    /* \"#utility.yul\":949:1068   */\n  iszero\n  tag_36\n  jumpi\n    /* \"#utility.yul\":987:1066   */\n  tag_37\n  tag_16\n  jump\t// in\ntag_37:\n    /* \"#utility.yul\":949:1068   */\ntag_36:\n    /* \"#utility.yul\":1107:1108   */\n  0x00\n    /* \"#utility.yul\":1132:1196   */\n  tag_38\n    /* \"#utility.yul\":1188:1195   */\n  dup6\n    /* \"#utility.yul\":1179:1185   */\n  dup3\n    /* \"#utility.yul\":1168:1177   */\n  dup7\n    /* \"#utility.yul\":1164:1186   */\n  add\n    /* \"#utility.yul\":1132:1196   */\n  tag_21\n  jump\t// in\ntag_38:\n    /* \"#utility.yul\":1122:1196   */\n  swap3\n  pop\n    /* \"#utility.yul\":1078:1206   */\n  pop\n    /* \"#utility.yul\":1245:1247   */\n  0x20\n    /* \"#utility.yul\":1271:1335   */\n  tag_39\n    /* \"#utility.yul\":1327:1334   */\n  dup6\n    /* \"#utility.yul\":1318:1324   */\n  dup3\n    /* \"#utility.yul\":1307:1316   */\n  dup7\n    /* \"#utility.yul\":1303:1325   */\n  add\n    /* \"#utility.yul\":1271:1335   */\n  tag_21\n  jump\t// in\ntag_39:\n    /* \"#utility.yul\":1261:1335   */\n  swap2\n  pop\n    /* \"#utility.yul\":1216:1345   */\n  pop\n    /* \"#utility.yul\":845:1352   */\n  swap3\n  pop\n  swap3\n  swap1\n  pop\n  jump\t// out\n    /* \"#utility.yul\":1358:1476   */\ntag_22:\n    /* \"#utility.yul\":1445:1469   */\n  tag_41\n    /* \"#utility.yul\":1463:1468   */\n  dup2\n    /* \"#utility.yul\":1445:1469   */\n  tag_19\n  jump\t// in\ntag_41:\n    /* \"#utility.yul\":1440:1443   */\n  dup3\n    /* \"#utility.yul\":1433:1470   */\n  mstore\n    /* \"#utility.yul\":1358:1476   */\n  pop\n  pop\n  jump\t// out\n    /* \"#utility.yul\":1482:1704   */\ntag_9:\n    /* \"#utility.yul\":1575:1579   */\n  0x00\n    /* \"#utility.yul\":1613:1615   */\n  0x20\n    /* \"#utility.yul\":1602:1611   */\n  dup3\n    /* \"#utility.yul\":1598:1616   */\n  add\n    /* \"#utility.yul\":1590:1616   */\n  swap1\n  pop\n    /* \"#utility.yul\":1626:1697   */\n  tag_43\n    /* \"#utility.yul\":1694:1695   */\n  0x00\n    /* \"#utility.yul\":1683:1692   */\n  dup4\n    /* \"#utility.yul\":1679:1696   */\n  add\n    /* \"#utility.yul\":1670:1676   */\n  dup5\n    /* \"#utility.yul\":1626:1697   */\n  tag_22\n  jump\t// in\ntag_43:\n    /* \"#utility.yul\":1482:1704   */\n  swap3\n  swap2\n  pop\n  pop\n  jump\t// out\n    /* \"assignment3/Swap.sol\":180:4223  contract Swap is Ownable(msg.sender), ISwap {... */\ntag_13:\n  dataSize(sub_0)\n  dup1\n  dataOffset(sub_0)\n  0x00\n  codecopy\n  0x00\n  return\nstop\n\nsub_0: assembly {\n        /* \"assignment3/Swap.sol\":180:4223  contract Swap is Ownable(msg.sender), ISwap {... */\n      mstore(0x40, 0x80)\n      callvalue\n      dup1\n      iszero\n      tag_1\n      jumpi\n      0x00\n      dup1\n      revert\n    tag_1:\n      pop\n      jumpi(tag_2, lt(calldatasize, 0x04))\n      shr(0xe0, calldataload(0x00))\n      dup1\n      0x9c8f9f23\n      gt\n      tag_15\n      jumpi\n      dup1\n      0x9c8f9f23\n      eq\n      tag_9\n      jumpi\n      dup1\n      0xa5843f08\n      eq\n      tag_10\n      jumpi\n      dup1\n      0xaa6ca808\n      eq\n      tag_11\n      jumpi\n      dup1\n      0xad3bd45c\n      eq\n      tag_12\n      jumpi\n      dup1\n      0xf04da65b\n      eq\n      tag_13\n      jumpi\n      dup1\n      0xf2fde38b\n      eq\n      tag_14\n      jumpi\n      jump(tag_2)\n    tag_15:\n      dup1\n      0x0902f1ac\n      eq\n      tag_3\n      jumpi\n      dup1\n      0x26ef80c9\n      eq\n      tag_4\n      jumpi\n      dup1\n      0x3a98ef39\n      eq\n      tag_5\n      jumpi\n      dup1\n      0x51c6590a\n      eq\n      tag_6\n      jumpi\n      dup1\n      0x715018a6\n      eq\n      tag_7\n      jumpi\n      dup1\n      0x8da5cb5b\n      eq\n      tag_8\n      jumpi\n    tag_2:\n      0x00\n      dup1\n      revert\n        /* \"assignment3/Swap.sol\":1511:1615  function getReserves() external view returns (uint, uint) {... */\n    tag_3:\n      tag_16\n      tag_17\n      jump\t// in\n    tag_16:\n      mload(0x40)\n      tag_18\n      swap3\n      swap2\n      swap1\n      tag_19\n      jump\t// in\n    tag_18:\n      mload(0x40)\n      dup1\n      swap2\n      sub\n      swap1\n      return\n        /* \"assignment3/Swap.sol\":3192:3697  function token0To1(uint token0Amount) external override {... */\n    tag_4:\n      tag_20\n      0x04\n      dup1\n      calldatasize\n      sub\n      dup2\n      add\n      swap1\n      tag_21\n      swap2\n      swap1\n      tag_22\n      jump\t// in\n    tag_21:\n      tag_23\n      jump\t// in\n    tag_20:\n      stop\n        /* \"assignment3/Swap.sol\":354:377  uint public totalShares */\n    tag_5:\n      tag_24\n      tag_25\n      jump\t// in\n    tag_24:\n      mload(0x40)\n      tag_26\n      swap2\n      swap1\n      tag_27\n      jump\t// in\n    tag_26:\n      mload(0x40)\n      dup1\n      swap2\n      sub\n      swap1\n      return\n        /* \"assignment3/Swap.sol\":1886:2531  function addLiquidity(uint token0Amount) external override {... */\n    tag_6:\n      tag_28\n      0x04\n      dup1\n      calldatasize\n      sub\n      dup2\n      add\n      swap1\n      tag_29\n      swap2\n      swap1\n      tag_22\n      jump\t// in\n    tag_29:\n      tag_30\n      jump\t// in\n    tag_28:\n      stop\n        /* \"@openzeppelin/contracts/access/Ownable.sol\":2293:2394  function renounceOwnership() public virtual onlyOwner {... */\n    tag_7:\n      tag_31\n      tag_32\n      jump\t// in\n    tag_31:\n      stop\n        /* \"@openzeppelin/contracts/access/Ownable.sol\":1638:1723  function owner() public view virtual returns (address) {... */\n    tag_8:\n      tag_33\n      tag_34\n      jump\t// in\n    tag_33:\n      mload(0x40)\n      tag_35\n      swap2\n      swap1\n      tag_36\n      jump\t// in\n    tag_35:\n      mload(0x40)\n      dup1\n      swap2\n      sub\n      swap1\n      return\n        /* \"assignment3/Swap.sol\":2539:3184  function removeLiquidity(uint withdrawShares) external override {... */\n    tag_9:\n      tag_37\n      0x04\n      dup1\n      calldatasize\n      sub\n      dup2\n      add\n      swap1\n      tag_38\n      swap2\n      swap1\n      tag_22\n      jump\t// in\n    tag_38:\n      tag_39\n      jump\t// in\n    tag_37:\n      stop\n        /* \"assignment3/Swap.sol\":494:1108  function init(uint token0Amount, uint token1Amount) external override onlyOwner {... */\n    tag_10:\n      tag_40\n      0x04\n      dup1\n      calldatasize\n      sub\n      dup2\n      add\n      swap1\n      tag_41\n      swap2\n      swap1\n      tag_42\n      jump\t// in\n    tag_41:\n      tag_43\n      jump\t// in\n    tag_40:\n      stop\n        /* \"assignment3/Swap.sol\":1623:1727  function getTokens() external view returns (address, address) {... */\n    tag_11:\n      tag_44\n      tag_45\n      jump\t// in\n    tag_44:\n      mload(0x40)\n      tag_46\n      swap3\n      swap2\n      swap1\n      tag_47\n      jump\t// in\n    tag_46:\n      mload(0x40)\n      dup1\n      swap2\n      sub\n      swap1\n      return\n        /* \"assignment3/Swap.sol\":3705:4210  function token1To0(uint token1Amount) external override {... */\n    tag_12:\n      tag_48\n      0x04\n      dup1\n      calldatasize\n      sub\n      dup2\n      add\n      swap1\n      tag_49\n      swap2\n      swap1\n      tag_22\n      jump\t// in\n    tag_49:\n      tag_50\n      jump\t// in\n    tag_48:\n      stop\n        /* \"assignment3/Swap.sol\":1735:1831  function getShares(address LP) external view returns (uint) {... */\n    tag_13:\n      tag_51\n      0x04\n      dup1\n      calldatasize\n      sub\n      dup2\n      add\n      swap1\n      tag_52\n      swap2\n      swap1\n      tag_53\n      jump\t// in\n    tag_52:\n      tag_54\n      jump\t// in\n    tag_51:\n      mload(0x40)\n      tag_55\n      swap2\n      swap1\n      tag_27\n      jump\t// in\n    tag_55:\n      mload(0x40)\n      dup1\n      swap2\n      sub\n      swap1\n      return\n        /* \"@openzeppelin/contracts/access/Ownable.sol\":2543:2758  function transferOwnership(address newOwner) public virtual onlyOwner {... */\n    tag_14:\n      tag_56\n      0x04\n      dup1\n      calldatasize\n      sub\n      dup2\n      add\n      swap1\n      tag_57\n      swap2\n      swap1\n      tag_53\n      jump\t// in\n    tag_57:\n      tag_58\n      jump\t// in\n    tag_56:\n      stop\n        /* \"assignment3/Swap.sol\":1511:1615  function getReserves() external view returns (uint, uint) {... */\n    tag_17:\n        /* \"assignment3/Swap.sol\":1557:1561  uint */\n      0x00\n        /* \"assignment3/Swap.sol\":1563:1567  uint */\n      dup1\n        /* \"assignment3/Swap.sol\":1588:1596  reserve0 */\n      sload(0x03)\n        /* \"assignment3/Swap.sol\":1598:1606  reserve1 */\n      sload(0x04)\n        /* \"assignment3/Swap.sol\":1580:1607  return (reserve0, reserve1) */\n      swap2\n      pop\n      swap2\n      pop\n        /* \"assignment3/Swap.sol\":1511:1615  function getReserves() external view returns (uint, uint) {... */\n      swap1\n      swap2\n      jump\t// out\n        /* \"assignment3/Swap.sol\":3192:3697  function token0To1(uint token0Amount) external override {... */\n    tag_23:\n        /* \"assignment3/Swap.sol\":3282:3283  0 */\n      0x00\n        /* \"assignment3/Swap.sol\":3267:3279  token0Amount */\n      dup2\n        /* \"assignment3/Swap.sol\":3267:3283  token0Amount > 0 */\n      gt\n        /* \"assignment3/Swap.sol\":3259:3307  require(token0Amount > 0, \"not token0 provided\") */\n      tag_61\n      jumpi\n      mload(0x40)\n      0x08c379a000000000000000000000000000000000000000000000000000000000\n      dup2\n      mstore\n      0x04\n      add\n      tag_62\n      swap1\n      tag_63\n      jump\t// in\n    tag_62:\n      mload(0x40)\n      dup1\n      swap2\n      sub\n      swap1\n      revert\n    tag_61:\n        /* \"assignment3/Swap.sol\":3318:3335  uint token1Amount */\n      0x00\n        /* \"assignment3/Swap.sol\":3398:3401  997 */\n      0x03e5\n        /* \"assignment3/Swap.sol\":3385:3397  token0Amount */\n      dup3\n        /* \"assignment3/Swap.sol\":3385:3401  token0Amount*997 */\n      tag_64\n      swap2\n      swap1\n      tag_65\n      jump\t// in\n    tag_64:\n        /* \"assignment3/Swap.sol\":3378:3382  1000 */\n      0x03e8\n        /* \"assignment3/Swap.sol\":3369:3377  reserve0 */\n      sload(0x03)\n        /* \"assignment3/Swap.sol\":3369:3382  reserve0*1000 */\n      tag_66\n      swap2\n      swap1\n      tag_65\n      jump\t// in\n    tag_66:\n        /* \"assignment3/Swap.sol\":3369:3401  reserve0*1000 + token0Amount*997 */\n      tag_67\n      swap2\n      swap1\n      tag_68\n      jump\t// in\n    tag_67:\n        /* \"assignment3/Swap.sol\":3361:3364  997 */\n      0x03e5\n        /* \"assignment3/Swap.sol\":3352:3360  reserve1 */\n      sload(0x04)\n        /* \"assignment3/Swap.sol\":3339:3351  token0Amount */\n      dup5\n        /* \"assignment3/Swap.sol\":3339:3360  token0Amount*reserve1 */\n      tag_69\n      swap2\n      swap1\n      tag_65\n      jump\t// in\n    tag_69:\n        /* \"assignment3/Swap.sol\":3339:3364  token0Amount*reserve1*997 */\n      tag_70\n      swap2\n      swap1\n      tag_65\n      jump\t// in\n    tag_70:\n        /* \"assignment3/Swap.sol\":3338:3402  (token0Amount*reserve1*997) / (reserve0*1000 + token0Amount*997) */\n      tag_71\n      swap2\n      swap1\n      tag_72\n      jump\t// in\n    tag_71:\n        /* \"assignment3/Swap.sol\":3318:3402  uint token1Amount = (token0Amount*reserve1*997) / (reserve0*1000 + token0Amount*997) */\n      swap1\n      pop\n        /* \"assignment3/Swap.sol\":3428:3434  token0 */\n      0x01\n      0x00\n      swap1\n      sload\n      swap1\n      0x0100\n      exp\n      swap1\n      div\n      0xffffffffffffffffffffffffffffffffffffffff\n      and\n        /* \"assignment3/Swap.sol\":3421:3448  sAsset(token0).transferFrom */\n      0xffffffffffffffffffffffffffffffffffffffff\n      and\n      0x23b872dd\n        /* \"assignment3/Swap.sol\":3449:3459  msg.sender */\n      caller\n        /* \"assignment3/Swap.sol\":3469:3473  this */\n      address\n        /* \"assignment3/Swap.sol\":3476:3488  token0Amount */\n      dup6\n        /* \"assignment3/Swap.sol\":3421:3489  sAsset(token0).transferFrom(msg.sender, address(this), token0Amount) */\n      mload(0x40)\n      dup5\n      0xffffffff\n      and\n      0xe0\n      shl\n      dup2\n      mstore\n      0x04\n      add\n      tag_73\n      swap4\n      swap3\n      swap2\n      swap1\n      tag_74\n      jump\t// in\n    tag_73:\n      0x20\n      mload(0x40)\n      dup1\n      dup4\n      sub\n      dup2\n      0x00\n      dup8\n      gas\n      call\n      iszero\n      dup1\n      iszero\n      tag_76\n      jumpi\n      returndatasize\n      0x00\n      dup1\n      returndatacopy\n      revert(0x00, returndatasize)\n    tag_76:\n      pop\n      pop\n      pop\n      pop\n      mload(0x40)\n      returndatasize\n      not(0x1f)\n      0x1f\n      dup3\n      add\n      and\n      dup3\n      add\n      dup1\n      0x40\n      mstore\n      pop\n      dup2\n      add\n      swap1\n      tag_77\n      swap2\n      swap1\n      tag_78\n      jump\t// in\n    tag_77:\n        /* \"assignment3/Swap.sol\":3413:3519  require(sAsset(token0).transferFrom(msg.sender, address(this), token0Amount), \"failed to transfer token0\") */\n      tag_79\n      jumpi\n      mload(0x40)\n      0x08c379a000000000000000000000000000000000000000000000000000000000\n      dup2\n      mstore\n      0x04\n      add\n      tag_80\n      swap1\n      tag_81\n      jump\t// in\n    tag_80:\n      mload(0x40)\n      dup1\n      swap2\n      sub\n      swap1\n      revert\n    tag_79:\n        /* \"assignment3/Swap.sol\":3547:3553  token1 */\n      0x02\n      0x00\n      swap1\n      sload\n      swap1\n      0x0100\n      exp\n      swap1\n      div\n      0xffffffffffffffffffffffffffffffffffffffff\n      and\n        /* \"assignment3/Swap.sol\":3540:3563  sAsset(token1).transfer */\n      0xffffffffffffffffffffffffffffffffffffffff\n      and\n      0xa9059cbb\n        /* \"assignment3/Swap.sol\":3564:3574  msg.sender */\n      caller\n        /* \"assignment3/Swap.sol\":3576:3588  token1Amount */\n      dup4\n        /* \"assignment3/Swap.sol\":3540:3589  sAsset(token1).transfer(msg.sender, token1Amount) */\n      mload(0x40)\n      dup4\n      0xffffffff\n      and\n      0xe0\n      shl\n      dup2\n      mstore\n      0x04\n      add\n      tag_82\n      swap3\n      swap2\n      swap1\n      tag_83\n      jump\t// in\n    tag_82:\n      0x20\n      mload(0x40)\n      dup1\n      dup4\n      sub\n      dup2\n      0x00\n      dup8\n      gas\n      call\n      iszero\n      dup1\n      iszero\n      tag_85\n      jumpi\n      returndatasize\n      0x00\n      dup1\n      returndatacopy\n      revert(0x00, returndatasize)\n    tag_85:\n      pop\n      pop\n      pop\n      pop\n      mload(0x40)\n      returndatasize\n      not(0x1f)\n      0x1f\n      dup3\n      add\n      and\n      dup3\n      add\n      dup1\n      0x40\n      mstore\n      pop\n      dup2\n      add\n      swap1\n      tag_86\n      swap2\n      swap1\n      tag_78\n      jump\t// in\n    tag_86:\n        /* \"assignment3/Swap.sol\":3532:3619  require(sAsset(token1).transfer(msg.sender, token1Amount), \"failed to transfer token1\") */\n      tag_87\n      jumpi\n      mload(0x40)\n      0x08c379a000000000000000000000000000000000000000000000000000000000\n      dup2\n      mstore\n      0x04\n      add\n      tag_88\n      swap1\n      tag_89\n      jump\t// in\n    tag_88:\n      mload(0x40)\n      dup1\n      swap2\n      sub\n      swap1\n      revert\n    tag_87:\n        /* \"assignment3/Swap.sol\":3642:3654  token0Amount */\n      dup2\n        /* \"assignment3/Swap.sol\":3630:3638  reserve0 */\n      0x03\n      0x00\n        /* \"assignment3/Swap.sol\":3630:3654  reserve0 += token0Amount */\n      dup3\n      dup3\n      sload\n      tag_90\n      swap2\n      swap1\n      tag_68\n      jump\t// in\n    tag_90:\n      swap3\n      pop\n      pop\n      dup2\n      swap1\n      sstore\n      pop\n        /* \"assignment3/Swap.sol\":3677:3689  token1Amount */\n      dup1\n        /* \"assignment3/Swap.sol\":3665:3673  reserve1 */\n      0x04\n      0x00\n        /* \"assignment3/Swap.sol\":3665:3689  reserve1 -= token1Amount */\n      dup3\n      dup3\n      sload\n      tag_91\n      swap2\n      swap1\n      tag_92\n      jump\t// in\n    tag_91:\n      swap3\n      pop\n      pop\n      dup2\n      swap1\n      sstore\n      pop\n        /* \"assignment3/Swap.sol\":3248:3697  {... */\n      pop\n        /* \"assignment3/Swap.sol\":3192:3697  function token0To1(uint token0Amount) external override {... */\n      pop\n      jump\t// out\n        /* \"assignment3/Swap.sol\":354:377  uint public totalShares */\n    tag_25:\n      sload(0x06)\n      dup2\n      jump\t// out\n        /* \"assignment3/Swap.sol\":1886:2531  function addLiquidity(uint token0Amount) external override {... */\n    tag_30:\n        /* \"assignment3/Swap.sol\":1976:1977  0 */\n      0x00\n        /* \"assignment3/Swap.sol\":1964:1972  reserve0 */\n      sload(0x03)\n        /* \"assignment3/Swap.sol\":1964:1977  reserve0 != 0 */\n      eq\n      iszero\n        /* \"assignment3/Swap.sol\":1964:1994  reserve0 != 0 && reserve1 != 0 */\n      dup1\n      iszero\n      tag_94\n      jumpi\n      pop\n        /* \"assignment3/Swap.sol\":1993:1994  0 */\n      0x00\n        /* \"assignment3/Swap.sol\":1981:1989  reserve1 */\n      sload(0x04)\n        /* \"assignment3/Swap.sol\":1981:1994  reserve1 != 0 */\n      eq\n      iszero\n        /* \"assignment3/Swap.sol\":1964:1994  reserve0 != 0 && reserve1 != 0 */\n    tag_94:\n        /* \"assignment3/Swap.sol\":1956:2018  require(reserve0 != 0 && reserve1 != 0, \"pool not initilized\") */\n      tag_95\n      jumpi\n      mload(0x40)\n      0x08c379a000000000000000000000000000000000000000000000000000000000\n      dup2\n      mstore\n      0x04\n      add\n      tag_96\n      swap1\n      tag_97\n      jump\t// in\n    tag_96:\n      mload(0x40)\n      dup1\n      swap2\n      sub\n      swap1\n      revert\n    tag_95:\n        /* \"assignment3/Swap.sol\":2029:2046  uint token1Amount */\n      0x00\n        /* \"assignment3/Swap.sol\":2071:2079  reserve0 */\n      sload(0x03)\n        /* \"assignment3/Swap.sol\":2062:2070  reserve1 */\n      sload(0x04)\n        /* \"assignment3/Swap.sol\":2049:2061  token0Amount */\n      dup4\n        /* \"assignment3/Swap.sol\":2049:2070  token0Amount*reserve1 */\n      tag_98\n      swap2\n      swap1\n      tag_65\n      jump\t// in\n    tag_98:\n        /* \"assignment3/Swap.sol\":2049:2079  token0Amount*reserve1/reserve0 */\n      tag_99\n      swap2\n      swap1\n      tag_72\n      jump\t// in\n    tag_99:\n        /* \"assignment3/Swap.sol\":2029:2079  uint token1Amount = token0Amount*reserve1/reserve0 */\n      swap1\n      pop\n        /* \"assignment3/Swap.sol\":2090:2104  uint newShares */\n      0x00\n        /* \"assignment3/Swap.sol\":2132:2140  reserve0 */\n      sload(0x03)\n        /* \"assignment3/Swap.sol\":2119:2131  token0Amount */\n      dup4\n        /* \"assignment3/Swap.sol\":2107:2118  totalShares */\n      sload(0x06)\n        /* \"assignment3/Swap.sol\":2107:2131  totalShares*token0Amount */\n      tag_100\n      swap2\n      swap1\n      tag_65\n      jump\t// in\n    tag_100:\n        /* \"assignment3/Swap.sol\":2107:2140  totalShares*token0Amount/reserve0 */\n      tag_101\n      swap2\n      swap1\n      tag_72\n      jump\t// in\n    tag_101:\n        /* \"assignment3/Swap.sol\":2090:2140  uint newShares = totalShares*token0Amount/reserve0 */\n      swap1\n      pop\n        /* \"assignment3/Swap.sol\":2168:2174  token0 */\n      0x01\n      0x00\n      swap1\n      sload\n      swap1\n      0x0100\n      exp\n      swap1\n      div\n      0xffffffffffffffffffffffffffffffffffffffff\n      and\n        /* \"assignment3/Swap.sol\":2161:2188  sAsset(token0).transferFrom */\n      0xffffffffffffffffffffffffffffffffffffffff\n      and\n      0x23b872dd\n        /* \"assignment3/Swap.sol\":2189:2199  msg.sender */\n      caller\n        /* \"assignment3/Swap.sol\":2209:2213  this */\n      address\n        /* \"assignment3/Swap.sol\":2216:2228  token0Amount */\n      dup7\n        /* \"assignment3/Swap.sol\":2161:2229  sAsset(token0).transferFrom(msg.sender, address(this), token0Amount) */\n      mload(0x40)\n      dup5\n      0xffffffff\n      and\n      0xe0\n      shl\n      dup2\n      mstore\n      0x04\n      add\n      tag_102\n      swap4\n      swap3\n      swap2\n      swap1\n      tag_74\n      jump\t// in\n    tag_102:\n      0x20\n      mload(0x40)\n      dup1\n      dup4\n      sub\n      dup2\n      0x00\n      dup8\n      gas\n      call\n      iszero\n      dup1\n      iszero\n      tag_104\n      jumpi\n      returndatasize\n      0x00\n      dup1\n      returndatacopy\n      revert(0x00, returndatasize)\n    tag_104:\n      pop\n      pop\n      pop\n      pop\n      mload(0x40)\n      returndatasize\n      not(0x1f)\n      0x1f\n      dup3\n      add\n      and\n      dup3\n      add\n      dup1\n      0x40\n      mstore\n      pop\n      dup2\n      add\n      swap1\n      tag_105\n      swap2\n      swap1\n      tag_78\n      jump\t// in\n    tag_105:\n        /* \"assignment3/Swap.sol\":2153:2259  require(sAsset(token0).transferFrom(msg.sender, address(this), token0Amount), \"failed to transfer token0\") */\n      tag_106\n      jumpi\n      mload(0x40)\n      0x08c379a000000000000000000000000000000000000000000000000000000000\n      dup2\n      mstore\n      0x04\n      add\n      tag_107\n      swap1\n      tag_81\n      jump\t// in\n    tag_107:\n      mload(0x40)\n      dup1\n      swap2\n      sub\n      swap1\n      revert\n    tag_106:\n        /* \"assignment3/Swap.sol\":2285:2291  token1 */\n      0x02\n      0x00\n      swap1\n      sload\n      swap1\n      0x0100\n      exp\n      swap1\n      div\n      0xffffffffffffffffffffffffffffffffffffffff\n      and\n        /* \"assignment3/Swap.sol\":2278:2305  sAsset(token1).transferFrom */\n      0xffffffffffffffffffffffffffffffffffffffff\n      and\n      0x23b872dd\n        /* \"assignment3/Swap.sol\":2306:2316  msg.sender */\n      caller\n        /* \"assignment3/Swap.sol\":2326:2330  this */\n      address\n        /* \"assignment3/Swap.sol\":2333:2345  token1Amount */\n      dup6\n        /* \"assignment3/Swap.sol\":2278:2346  sAsset(token1).transferFrom(msg.sender, address(this), token1Amount) */\n      mload(0x40)\n      dup5\n      0xffffffff\n      and\n      0xe0\n      shl\n      dup2\n      mstore\n      0x04\n      add\n      tag_108\n      swap4\n      swap3\n      swap2\n      swap1\n      tag_74\n      jump\t// in\n    tag_108:\n      0x20\n      mload(0x40)\n      dup1\n      dup4\n      sub\n      dup2\n      0x00\n      dup8\n      gas\n      call\n      iszero\n      dup1\n      iszero\n      tag_110\n      jumpi\n      returndatasize\n      0x00\n      dup1\n      returndatacopy\n      revert(0x00, returndatasize)\n    tag_110:\n      pop\n      pop\n      pop\n      pop\n      mload(0x40)\n      returndatasize\n      not(0x1f)\n      0x1f\n      dup3\n      add\n      and\n      dup3\n      add\n      dup1\n      0x40\n      mstore\n      pop\n      dup2\n      add\n      swap1\n      tag_111\n      swap2\n      swap1\n      tag_78\n      jump\t// in\n    tag_111:\n        /* \"assignment3/Swap.sol\":2270:2376  require(sAsset(token1).transferFrom(msg.sender, address(this), token1Amount), \"failed to transfer token1\") */\n      tag_112\n      jumpi\n      mload(0x40)\n      0x08c379a000000000000000000000000000000000000000000000000000000000\n      dup2\n      mstore\n      0x04\n      add\n      tag_113\n      swap1\n      tag_89\n      jump\t// in\n    tag_113:\n      mload(0x40)\n      dup1\n      swap2\n      sub\n      swap1\n      revert\n    tag_112:\n        /* \"assignment3/Swap.sol\":2399:2411  token0Amount */\n      dup3\n        /* \"assignment3/Swap.sol\":2387:2395  reserve0 */\n      0x03\n      0x00\n        /* \"assignment3/Swap.sol\":2387:2411  reserve0 += token0Amount */\n      dup3\n      dup3\n      sload\n      tag_114\n      swap2\n      swap1\n      tag_68\n      jump\t// in\n    tag_114:\n      swap3\n      pop\n      pop\n      dup2\n      swap1\n      sstore\n      pop\n        /* \"assignment3/Swap.sol\":2434:2446  token1Amount */\n      dup2\n        /* \"assignment3/Swap.sol\":2422:2430  reserve1 */\n      0x04\n      0x00\n        /* \"assignment3/Swap.sol\":2422:2446  reserve1 += token1Amount */\n      dup3\n      dup3\n      sload\n      tag_115\n      swap2\n      swap1\n      tag_68\n      jump\t// in\n    tag_115:\n      swap3\n      pop\n      pop\n      dup2\n      swap1\n      sstore\n      pop\n        /* \"assignment3/Swap.sol\":2479:2488  newShares */\n      dup1\n        /* \"assignment3/Swap.sol\":2457:2463  shares */\n      0x05\n        /* \"assignment3/Swap.sol\":2457:2475  shares[msg.sender] */\n      0x00\n        /* \"assignment3/Swap.sol\":2464:2474  msg.sender */\n      caller\n        /* \"assignment3/Swap.sol\":2457:2475  shares[msg.sender] */\n      0xffffffffffffffffffffffffffffffffffffffff\n      and\n      0xffffffffffffffffffffffffffffffffffffffff\n      and\n      dup2\n      mstore\n      0x20\n      add\n      swap1\n      dup2\n      mstore\n      0x20\n      add\n      0x00\n      keccak256\n      0x00\n        /* \"assignment3/Swap.sol\":2457:2488  shares[msg.sender] += newShares */\n      dup3\n      dup3\n      sload\n      tag_116\n      swap2\n      swap1\n      tag_68\n      jump\t// in\n    tag_116:\n      swap3\n      pop\n      pop\n      dup2\n      swap1\n      sstore\n      pop\n        /* \"assignment3/Swap.sol\":2514:2523  newShares */\n      dup1\n        /* \"assignment3/Swap.sol\":2499:2510  totalShares */\n      0x06\n      0x00\n        /* \"assignment3/Swap.sol\":2499:2523  totalShares += newShares */\n      dup3\n      dup3\n      sload\n      tag_117\n      swap2\n      swap1\n      tag_68\n      jump\t// in\n    tag_117:\n      swap3\n      pop\n      pop\n      dup2\n      swap1\n      sstore\n      pop\n        /* \"assignment3/Swap.sol\":1945:2531  {... */\n      pop\n      pop\n        /* \"assignment3/Swap.sol\":1886:2531  function addLiquidity(uint token0Amount) external override {... */\n      pop\n      jump\t// out\n        /* \"@openzeppelin/contracts/access/Ownable.sol\":2293:2394  function renounceOwnership() public virtual onlyOwner {... */\n    tag_32:\n        /* \"@openzeppelin/contracts/access/Ownable.sol\":1531:1544  _checkOwner() */\n      tag_119\n        /* \"@openzeppelin/contracts/access/Ownable.sol\":1531:1542  _checkOwner */\n      tag_120\n        /* \"@openzeppelin/contracts/access/Ownable.sol\":1531:1544  _checkOwner() */\n      jump\t// in\n    tag_119:\n        /* \"@openzeppelin/contracts/access/Ownable.sol\":2357:2387  _transferOwnership(address(0)) */\n      tag_122\n        /* \"@openzeppelin/contracts/access/Ownable.sol\":2384:2385  0 */\n      0x00\n        /* \"@openzeppelin/contracts/access/Ownable.sol\":2357:2375  _transferOwnership */\n      tag_123\n        /* \"@openzeppelin/contracts/access/Ownable.sol\":2357:2387  _transferOwnership(address(0)) */\n      jump\t// in\n    tag_122:\n        /* \"@openzeppelin/contracts/access/Ownable.sol\":2293:2394  function renounceOwnership() public virtual onlyOwner {... */\n      jump\t// out\n        /* \"@openzeppelin/contracts/access/Ownable.sol\":1638:1723  function owner() public view virtual returns (address) {... */\n    tag_34:\n        /* \"@openzeppelin/contracts/access/Ownable.sol\":1684:1691  address */\n      0x00\n        /* \"@openzeppelin/contracts/access/Ownable.sol\":1710:1716  _owner */\n      dup1\n      0x00\n      swap1\n      sload\n      swap1\n      0x0100\n      exp\n      swap1\n      div\n      0xffffffffffffffffffffffffffffffffffffffff\n      and\n        /* \"@openzeppelin/contracts/access/Ownable.sol\":1703:1716  return _owner */\n      swap1\n      pop\n        /* \"@openzeppelin/contracts/access/Ownable.sol\":1638:1723  function owner() public view virtual returns (address) {... */\n      swap1\n      jump\t// out\n        /* \"assignment3/Swap.sol\":2539:3184  function removeLiquidity(uint withdrawShares) external override {... */\n    tag_39:\n        /* \"assignment3/Swap.sol\":2640:2646  shares */\n      0x05\n        /* \"assignment3/Swap.sol\":2640:2658  shares[msg.sender] */\n      0x00\n        /* \"assignment3/Swap.sol\":2647:2657  msg.sender */\n      caller\n        /* \"assignment3/Swap.sol\":2640:2658  shares[msg.sender] */\n      0xffffffffffffffffffffffffffffffffffffffff\n      and\n      0xffffffffffffffffffffffffffffffffffffffff\n      and\n      dup2\n      mstore\n      0x20\n      add\n      swap1\n      dup2\n      mstore\n      0x20\n      add\n      0x00\n      keccak256\n      sload\n        /* \"assignment3/Swap.sol\":2622:2636  withdrawShares */\n      dup2\n        /* \"assignment3/Swap.sol\":2622:2658  withdrawShares <= shares[msg.sender] */\n      gt\n      iszero\n        /* \"assignment3/Swap.sol\":2614:2691  require(withdrawShares <= shares[msg.sender], \"not enough share to withdraw\") */\n      tag_126\n      jumpi\n      mload(0x40)\n      0x08c379a000000000000000000000000000000000000000000000000000000000\n      dup2\n      mstore\n      0x04\n      add\n      tag_127\n      swap1\n      tag_128\n      jump\t// in\n    tag_127:\n      mload(0x40)\n      dup1\n      swap2\n      sub\n      swap1\n      revert\n    tag_126:\n        /* \"assignment3/Swap.sol\":2702:2719  uint token0Amount */\n      0x00\n        /* \"assignment3/Swap.sol\":2746:2757  totalShares */\n      sload(0x06)\n        /* \"assignment3/Swap.sol\":2731:2745  withdrawShares */\n      dup3\n        /* \"assignment3/Swap.sol\":2722:2730  reserve0 */\n      sload(0x03)\n        /* \"assignment3/Swap.sol\":2722:2745  reserve0*withdrawShares */\n      tag_129\n      swap2\n      swap1\n      tag_65\n      jump\t// in\n    tag_129:\n        /* \"assignment3/Swap.sol\":2722:2757  reserve0*withdrawShares/totalShares */\n      tag_130\n      swap2\n      swap1\n      tag_72\n      jump\t// in\n    tag_130:\n        /* \"assignment3/Swap.sol\":2702:2757  uint token0Amount = reserve0*withdrawShares/totalShares */\n      swap1\n      pop\n        /* \"assignment3/Swap.sol\":2768:2785  uint token1Amount */\n      0x00\n        /* \"assignment3/Swap.sol\":2812:2823  totalShares */\n      sload(0x06)\n        /* \"assignment3/Swap.sol\":2797:2811  withdrawShares */\n      dup4\n        /* \"assignment3/Swap.sol\":2788:2796  reserve1 */\n      sload(0x04)\n        /* \"assignment3/Swap.sol\":2788:2811  reserve1*withdrawShares */\n      tag_131\n      swap2\n      swap1\n      tag_65\n      jump\t// in\n    tag_131:\n        /* \"assignment3/Swap.sol\":2788:2823  reserve1*withdrawShares/totalShares */\n      tag_132\n      swap2\n      swap1\n      tag_72\n      jump\t// in\n    tag_132:\n        /* \"assignment3/Swap.sol\":2768:2823  uint token1Amount = reserve1*withdrawShares/totalShares */\n      swap1\n      pop\n        /* \"assignment3/Swap.sol\":2849:2855  token0 */\n      0x01\n      0x00\n      swap1\n      sload\n      swap1\n      0x0100\n      exp\n      swap1\n      div\n      0xffffffffffffffffffffffffffffffffffffffff\n      and\n        /* \"assignment3/Swap.sol\":2842:2865  sAsset(token0).transfer */\n      0xffffffffffffffffffffffffffffffffffffffff\n      and\n      0xa9059cbb\n        /* \"assignment3/Swap.sol\":2866:2876  msg.sender */\n      caller\n        /* \"assignment3/Swap.sol\":2878:2890  token0Amount */\n      dup5\n        /* \"assignment3/Swap.sol\":2842:2891  sAsset(token0).transfer(msg.sender, token0Amount) */\n      mload(0x40)\n      dup4\n      0xffffffff\n      and\n      0xe0\n      shl\n      dup2\n      mstore\n      0x04\n      add\n      tag_133\n      swap3\n      swap2\n      swap1\n      tag_83\n      jump\t// in\n    tag_133:\n      0x20\n      mload(0x40)\n      dup1\n      dup4\n      sub\n      dup2\n      0x00\n      dup8\n      gas\n      call\n      iszero\n      dup1\n      iszero\n      tag_135\n      jumpi\n      returndatasize\n      0x00\n      dup1\n      returndatacopy\n      revert(0x00, returndatasize)\n    tag_135:\n      pop\n      pop\n      pop\n      pop\n      mload(0x40)\n      returndatasize\n      not(0x1f)\n      0x1f\n      dup3\n      add\n      and\n      dup3\n      add\n      dup1\n      0x40\n      mstore\n      pop\n      dup2\n      add\n      swap1\n      tag_136\n      swap2\n      swap1\n      tag_78\n      jump\t// in\n    tag_136:\n        /* \"assignment3/Swap.sol\":2834:2921  require(sAsset(token0).transfer(msg.sender, token0Amount), \"failed to transfer token0\") */\n      tag_137\n      jumpi\n      mload(0x40)\n      0x08c379a000000000000000000000000000000000000000000000000000000000\n      dup2\n      mstore\n      0x04\n      add\n      tag_138\n      swap1\n      tag_81\n      jump\t// in\n    tag_138:\n      mload(0x40)\n      dup1\n      swap2\n      sub\n      swap1\n      revert\n    tag_137:\n        /* \"assignment3/Swap.sol\":2947:2953  token1 */\n      0x02\n      0x00\n      swap1\n      sload\n      swap1\n      0x0100\n      exp\n      swap1\n      div\n      0xffffffffffffffffffffffffffffffffffffffff\n      and\n        /* \"assignment3/Swap.sol\":2940:2963  sAsset(token1).transfer */\n      0xffffffffffffffffffffffffffffffffffffffff\n      and\n      0xa9059cbb\n        /* \"assignment3/Swap.sol\":2964:2974  msg.sender */\n      caller\n        /* \"assignment3/Swap.sol\":2976:2988  token1Amount */\n      dup4\n        /* \"assignment3/Swap.sol\":2940:2989  sAsset(token1).transfer(msg.sender, token1Amount) */\n      mload(0x40)\n      dup4\n      0xffffffff\n      and\n      0xe0\n      shl\n      dup2\n      mstore\n      0x04\n      add\n      tag_139\n      swap3\n      swap2\n      swap1\n      tag_83\n      jump\t// in\n    tag_139:\n      0x20\n      mload(0x40)\n      dup1\n      dup4\n      sub\n      dup2\n      0x00\n      dup8\n      gas\n      call\n      iszero\n      dup1\n      iszero\n      tag_141\n      jumpi\n      returndatasize\n      0x00\n      dup1\n      returndatacopy\n      revert(0x00, returndatasize)\n    tag_141:\n      pop\n      pop\n      pop\n      pop\n      mload(0x40)\n      returndatasize\n      not(0x1f)\n      0x1f\n      dup3\n      add\n      and\n      dup3\n      add\n      dup1\n      0x40\n      mstore\n      pop\n      dup2\n      add\n      swap1\n      tag_142\n      swap2\n      swap1\n      tag_78\n      jump\t// in\n    tag_142:\n        /* \"assignment3/Swap.sol\":2932:3019  require(sAsset(token1).transfer(msg.sender, token1Amount), \"failed to transfer token1\") */\n      tag_143\n      jumpi\n      mload(0x40)\n      0x08c379a000000000000000000000000000000000000000000000000000000000\n      dup2\n      mstore\n      0x04\n      add\n      tag_144\n      swap1\n      tag_89\n      jump\t// in\n    tag_144:\n      mload(0x40)\n      dup1\n      swap2\n      sub\n      swap1\n      revert\n    tag_143:\n        /* \"assignment3/Swap.sol\":3042:3054  token0Amount */\n      dup2\n        /* \"assignment3/Swap.sol\":3030:3038  reserve0 */\n      0x03\n      0x00\n        /* \"assignment3/Swap.sol\":3030:3054  reserve0 -= token0Amount */\n      dup3\n      dup3\n      sload\n      tag_145\n      swap2\n      swap1\n      tag_92\n      jump\t// in\n    tag_145:\n      swap3\n      pop\n      pop\n      dup2\n      swap1\n      sstore\n      pop\n        /* \"assignment3/Swap.sol\":3077:3089  token1Amount */\n      dup1\n        /* \"assignment3/Swap.sol\":3065:3073  reserve1 */\n      0x04\n      0x00\n        /* \"assignment3/Swap.sol\":3065:3089  reserve1 -= token1Amount */\n      dup3\n      dup3\n      sload\n      tag_146\n      swap2\n      swap1\n      tag_92\n      jump\t// in\n    tag_146:\n      swap3\n      pop\n      pop\n      dup2\n      swap1\n      sstore\n      pop\n        /* \"assignment3/Swap.sol\":3122:3136  withdrawShares */\n      dup3\n        /* \"assignment3/Swap.sol\":3100:3106  shares */\n      0x05\n        /* \"assignment3/Swap.sol\":3100:3118  shares[msg.sender] */\n      0x00\n        /* \"assignment3/Swap.sol\":3107:3117  msg.sender */\n      caller\n        /* \"assignment3/Swap.sol\":3100:3118  shares[msg.sender] */\n      0xffffffffffffffffffffffffffffffffffffffff\n      and\n      0xffffffffffffffffffffffffffffffffffffffff\n      and\n      dup2\n      mstore\n      0x20\n      add\n      swap1\n      dup2\n      mstore\n      0x20\n      add\n      0x00\n      keccak256\n      0x00\n        /* \"assignment3/Swap.sol\":3100:3136  shares[msg.sender] -= withdrawShares */\n      dup3\n      dup3\n      sload\n      tag_147\n      swap2\n      swap1\n      tag_92\n      jump\t// in\n    tag_147:\n      swap3\n      pop\n      pop\n      dup2\n      swap1\n      sstore\n      pop\n        /* \"assignment3/Swap.sol\":3162:3176  withdrawShares */\n      dup3\n        /* \"assignment3/Swap.sol\":3147:3158  totalShares */\n      0x06\n      0x00\n        /* \"assignment3/Swap.sol\":3147:3176  totalShares -= withdrawShares */\n      dup3\n      dup3\n      sload\n      tag_148\n      swap2\n      swap1\n      tag_92\n      jump\t// in\n    tag_148:\n      swap3\n      pop\n      pop\n      dup2\n      swap1\n      sstore\n      pop\n        /* \"assignment3/Swap.sol\":2603:3184  {... */\n      pop\n      pop\n        /* \"assignment3/Swap.sol\":2539:3184  function removeLiquidity(uint withdrawShares) external override {... */\n      pop\n      jump\t// out\n        /* \"assignment3/Swap.sol\":494:1108  function init(uint token0Amount, uint token1Amount) external override onlyOwner {... */\n    tag_43:\n        /* \"@openzeppelin/contracts/access/Ownable.sol\":1531:1544  _checkOwner() */\n      tag_150\n        /* \"@openzeppelin/contracts/access/Ownable.sol\":1531:1542  _checkOwner */\n      tag_120\n        /* \"@openzeppelin/contracts/access/Ownable.sol\":1531:1544  _checkOwner() */\n      jump\t// in\n    tag_150:\n        /* \"assignment3/Swap.sol\":605:606  0 */\n      0x00\n        /* \"assignment3/Swap.sol\":593:601  reserve0 */\n      sload(0x03)\n        /* \"assignment3/Swap.sol\":593:606  reserve0 == 0 */\n      eq\n        /* \"assignment3/Swap.sol\":593:623  reserve0 == 0 && reserve1 == 0 */\n      dup1\n      iszero\n      tag_152\n      jumpi\n      pop\n        /* \"assignment3/Swap.sol\":622:623  0 */\n      0x00\n        /* \"assignment3/Swap.sol\":610:618  reserve1 */\n      sload(0x04)\n        /* \"assignment3/Swap.sol\":610:623  reserve1 == 0 */\n      eq\n        /* \"assignment3/Swap.sol\":593:623  reserve0 == 0 && reserve1 == 0 */\n    tag_152:\n        /* \"assignment3/Swap.sol\":585:656  require(reserve0 == 0 && reserve1 == 0, \"init - already has liquidity\") */\n      tag_153\n      jumpi\n      mload(0x40)\n      0x08c379a000000000000000000000000000000000000000000000000000000000\n      dup2\n      mstore\n      0x04\n      add\n      tag_154\n      swap1\n      tag_155\n      jump\t// in\n    tag_154:\n      mload(0x40)\n      dup1\n      swap2\n      sub\n      swap1\n      revert\n    tag_153:\n        /* \"assignment3/Swap.sol\":690:691  0 */\n      0x00\n        /* \"assignment3/Swap.sol\":675:687  token0Amount */\n      dup3\n        /* \"assignment3/Swap.sol\":675:691  token0Amount > 0 */\n      gt\n        /* \"assignment3/Swap.sol\":675:711  token0Amount > 0 && token1Amount > 0 */\n      dup1\n      iszero\n      tag_156\n      jumpi\n      pop\n        /* \"assignment3/Swap.sol\":710:711  0 */\n      0x00\n        /* \"assignment3/Swap.sol\":695:707  token1Amount */\n      dup2\n        /* \"assignment3/Swap.sol\":695:711  token1Amount > 0 */\n      gt\n        /* \"assignment3/Swap.sol\":675:711  token0Amount > 0 && token1Amount > 0 */\n    tag_156:\n        /* \"assignment3/Swap.sol\":667:745  require(token0Amount > 0 && token1Amount > 0, \"init - both tokens are needed\") */\n      tag_157\n      jumpi\n      mload(0x40)\n      0x08c379a000000000000000000000000000000000000000000000000000000000\n      dup2\n      mstore\n      0x04\n      add\n      tag_158\n      swap1\n      tag_159\n      jump\t// in\n    tag_158:\n      mload(0x40)\n      dup1\n      swap2\n      sub\n      swap1\n      revert\n    tag_157:\n        /* \"assignment3/Swap.sol\":781:787  token0 */\n      0x01\n      0x00\n      swap1\n      sload\n      swap1\n      0x0100\n      exp\n      swap1\n      div\n      0xffffffffffffffffffffffffffffffffffffffff\n      and\n        /* \"assignment3/Swap.sol\":774:801  sAsset(token0).transferFrom */\n      0xffffffffffffffffffffffffffffffffffffffff\n      and\n      0x23b872dd\n        /* \"assignment3/Swap.sol\":802:812  msg.sender */\n      caller\n        /* \"assignment3/Swap.sol\":822:826  this */\n      address\n        /* \"assignment3/Swap.sol\":829:841  token0Amount */\n      dup6\n        /* \"assignment3/Swap.sol\":774:842  sAsset(token0).transferFrom(msg.sender, address(this), token0Amount) */\n      mload(0x40)\n      dup5\n      0xffffffff\n      and\n      0xe0\n      shl\n      dup2\n      mstore\n      0x04\n      add\n      tag_160\n      swap4\n      swap3\n      swap2\n      swap1\n      tag_74\n      jump\t// in\n    tag_160:\n      0x20\n      mload(0x40)\n      dup1\n      dup4\n      sub\n      dup2\n      0x00\n      dup8\n      gas\n      call\n      iszero\n      dup1\n      iszero\n      tag_162\n      jumpi\n      returndatasize\n      0x00\n      dup1\n      returndatacopy\n      revert(0x00, returndatasize)\n    tag_162:\n      pop\n      pop\n      pop\n      pop\n      mload(0x40)\n      returndatasize\n      not(0x1f)\n      0x1f\n      dup3\n      add\n      and\n      dup3\n      add\n      dup1\n      0x40\n      mstore\n      pop\n      dup2\n      add\n      swap1\n      tag_163\n      swap2\n      swap1\n      tag_78\n      jump\t// in\n    tag_163:\n        /* \"assignment3/Swap.sol\":766:843  require(sAsset(token0).transferFrom(msg.sender, address(this), token0Amount)) */\n      tag_164\n      jumpi\n      0x00\n      dup1\n      revert\n    tag_164:\n        /* \"assignment3/Swap.sol\":869:875  token1 */\n      0x02\n      0x00\n      swap1\n      sload\n      swap1\n      0x0100\n      exp\n      swap1\n      div\n      0xffffffffffffffffffffffffffffffffffffffff\n      and\n        /* \"assignment3/Swap.sol\":862:889  sAsset(token1).transferFrom */\n      0xffffffffffffffffffffffffffffffffffffffff\n      and\n      0x23b872dd\n        /* \"assignment3/Swap.sol\":890:900  msg.sender */\n      caller\n        /* \"assignment3/Swap.sol\":910:914  this */\n      address\n        /* \"assignment3/Swap.sol\":917:929  token1Amount */\n      dup5\n        /* \"assignment3/Swap.sol\":862:930  sAsset(token1).transferFrom(msg.sender, address(this), token1Amount) */\n      mload(0x40)\n      dup5\n      0xffffffff\n      and\n      0xe0\n      shl\n      dup2\n      mstore\n      0x04\n      add\n      tag_165\n      swap4\n      swap3\n      swap2\n      swap1\n      tag_74\n      jump\t// in\n    tag_165:\n      0x20\n      mload(0x40)\n      dup1\n      dup4\n      sub\n      dup2\n      0x00\n      dup8\n      gas\n      call\n      iszero\n      dup1\n      iszero\n      tag_167\n      jumpi\n      returndatasize\n      0x00\n      dup1\n      returndatacopy\n      revert(0x00, returndatasize)\n    tag_167:\n      pop\n      pop\n      pop\n      pop\n      mload(0x40)\n      returndatasize\n      not(0x1f)\n      0x1f\n      dup3\n      add\n      and\n      dup3\n      add\n      dup1\n      0x40\n      mstore\n      pop\n      dup2\n      add\n      swap1\n      tag_168\n      swap2\n      swap1\n      tag_78\n      jump\t// in\n    tag_168:\n        /* \"assignment3/Swap.sol\":854:931  require(sAsset(token1).transferFrom(msg.sender, address(this), token1Amount)) */\n      tag_169\n      jumpi\n      0x00\n      dup1\n      revert\n    tag_169:\n        /* \"assignment3/Swap.sol\":953:965  token0Amount */\n      dup2\n        /* \"assignment3/Swap.sol\":942:950  reserve0 */\n      0x03\n        /* \"assignment3/Swap.sol\":942:965  reserve0 = token0Amount */\n      dup2\n      swap1\n      sstore\n      pop\n        /* \"assignment3/Swap.sol\":987:999  token1Amount */\n      dup1\n        /* \"assignment3/Swap.sol\":976:984  reserve1 */\n      0x04\n        /* \"assignment3/Swap.sol\":976:999  reserve1 = token1Amount */\n      dup2\n      swap1\n      sstore\n      pop\n        /* \"assignment3/Swap.sol\":1024:1057  sqrt(token0Amount * token1Amount) */\n      tag_170\n        /* \"assignment3/Swap.sol\":1044:1056  token1Amount */\n      dup2\n        /* \"assignment3/Swap.sol\":1029:1041  token0Amount */\n      dup4\n        /* \"assignment3/Swap.sol\":1029:1056  token0Amount * token1Amount */\n      tag_171\n      swap2\n      swap1\n      tag_65\n      jump\t// in\n    tag_171:\n        /* \"assignment3/Swap.sol\":1024:1028  sqrt */\n      tag_172\n        /* \"assignment3/Swap.sol\":1024:1057  sqrt(token0Amount * token1Amount) */\n      jump\t// in\n    tag_170:\n        /* \"assignment3/Swap.sol\":1010:1021  totalShares */\n      0x06\n        /* \"assignment3/Swap.sol\":1010:1057  totalShares = sqrt(token0Amount * token1Amount) */\n      dup2\n      swap1\n      sstore\n      pop\n        /* \"assignment3/Swap.sol\":1089:1100  totalShares */\n      sload(0x06)\n        /* \"assignment3/Swap.sol\":1068:1074  shares */\n      0x05\n        /* \"assignment3/Swap.sol\":1068:1086  shares[msg.sender] */\n      0x00\n        /* \"assignment3/Swap.sol\":1075:1085  msg.sender */\n      caller\n        /* \"assignment3/Swap.sol\":1068:1086  shares[msg.sender] */\n      0xffffffffffffffffffffffffffffffffffffffff\n      and\n      0xffffffffffffffffffffffffffffffffffffffff\n      and\n      dup2\n      mstore\n      0x20\n      add\n      swap1\n      dup2\n      mstore\n      0x20\n      add\n      0x00\n      keccak256\n        /* \"assignment3/Swap.sol\":1068:1100  shares[msg.sender] = totalShares */\n      dup2\n      swap1\n      sstore\n      pop\n        /* \"assignment3/Swap.sol\":494:1108  function init(uint token0Amount, uint token1Amount) external override onlyOwner {... */\n      pop\n      pop\n      jump\t// out\n        /* \"assignment3/Swap.sol\":1623:1727  function getTokens() external view returns (address, address) {... */\n    tag_45:\n        /* \"assignment3/Swap.sol\":1667:1674  address */\n      0x00\n        /* \"assignment3/Swap.sol\":1676:1683  address */\n      dup1\n        /* \"assignment3/Swap.sol\":1704:1710  token0 */\n      0x01\n      0x00\n      swap1\n      sload\n      swap1\n      0x0100\n      exp\n      swap1\n      div\n      0xffffffffffffffffffffffffffffffffffffffff\n      and\n        /* \"assignment3/Swap.sol\":1712:1718  token1 */\n      0x02\n      0x00\n      swap1\n      sload\n      swap1\n      0x0100\n      exp\n      swap1\n      div\n      0xffffffffffffffffffffffffffffffffffffffff\n      and\n        /* \"assignment3/Swap.sol\":1696:1719  return (token0, token1) */\n      swap2\n      pop\n      swap2\n      pop\n        /* \"assignment3/Swap.sol\":1623:1727  function getTokens() external view returns (address, address) {... */\n      swap1\n      swap2\n      jump\t// out\n        /* \"assignment3/Swap.sol\":3705:4210  function token1To0(uint token1Amount) external override {... */\n    tag_50:\n        /* \"assignment3/Swap.sol\":3795:3796  0 */\n      0x00\n        /* \"assignment3/Swap.sol\":3780:3792  token1Amount */\n      dup2\n        /* \"assignment3/Swap.sol\":3780:3796  token1Amount > 0 */\n      gt\n        /* \"assignment3/Swap.sol\":3772:3820  require(token1Amount > 0, \"not token0 provided\") */\n      tag_175\n      jumpi\n      mload(0x40)\n      0x08c379a000000000000000000000000000000000000000000000000000000000\n      dup2\n      mstore\n      0x04\n      add\n      tag_176\n      swap1\n      tag_63\n      jump\t// in\n    tag_176:\n      mload(0x40)\n      dup1\n      swap2\n      sub\n      swap1\n      revert\n    tag_175:\n        /* \"assignment3/Swap.sol\":3831:3848  uint token0Amount */\n      0x00\n        /* \"assignment3/Swap.sol\":3911:3914  997 */\n      0x03e5\n        /* \"assignment3/Swap.sol\":3898:3910  token1Amount */\n      dup3\n        /* \"assignment3/Swap.sol\":3898:3914  token1Amount*997 */\n      tag_177\n      swap2\n      swap1\n      tag_65\n      jump\t// in\n    tag_177:\n        /* \"assignment3/Swap.sol\":3891:3895  1000 */\n      0x03e8\n        /* \"assignment3/Swap.sol\":3882:3890  reserve1 */\n      sload(0x04)\n        /* \"assignment3/Swap.sol\":3882:3895  reserve1*1000 */\n      tag_178\n      swap2\n      swap1\n      tag_65\n      jump\t// in\n    tag_178:\n        /* \"assignment3/Swap.sol\":3882:3914  reserve1*1000 + token1Amount*997 */\n      tag_179\n      swap2\n      swap1\n      tag_68\n      jump\t// in\n    tag_179:\n        /* \"assignment3/Swap.sol\":3874:3877  997 */\n      0x03e5\n        /* \"assignment3/Swap.sol\":3865:3873  reserve0 */\n      sload(0x03)\n        /* \"assignment3/Swap.sol\":3852:3864  token1Amount */\n      dup5\n        /* \"assignment3/Swap.sol\":3852:3873  token1Amount*reserve0 */\n      tag_180\n      swap2\n      swap1\n      tag_65\n      jump\t// in\n    tag_180:\n        /* \"assignment3/Swap.sol\":3852:3877  token1Amount*reserve0*997 */\n      tag_181\n      swap2\n      swap1\n      tag_65\n      jump\t// in\n    tag_181:\n        /* \"assignment3/Swap.sol\":3851:3915  (token1Amount*reserve0*997) / (reserve1*1000 + token1Amount*997) */\n      tag_182\n      swap2\n      swap1\n      tag_72\n      jump\t// in\n    tag_182:\n        /* \"assignment3/Swap.sol\":3831:3915  uint token0Amount = (token1Amount*reserve0*997) / (reserve1*1000 + token1Amount*997) */\n      swap1\n      pop\n        /* \"assignment3/Swap.sol\":3941:3947  token1 */\n      0x02\n      0x00\n      swap1\n      sload\n      swap1\n      0x0100\n      exp\n      swap1\n      div\n      0xffffffffffffffffffffffffffffffffffffffff\n      and\n        /* \"assignment3/Swap.sol\":3934:3961  sAsset(token1).transferFrom */\n      0xffffffffffffffffffffffffffffffffffffffff\n      and\n      0x23b872dd\n        /* \"assignment3/Swap.sol\":3962:3972  msg.sender */\n      caller\n        /* \"assignment3/Swap.sol\":3982:3986  this */\n      address\n        /* \"assignment3/Swap.sol\":3989:4001  token1Amount */\n      dup6\n        /* \"assignment3/Swap.sol\":3934:4002  sAsset(token1).transferFrom(msg.sender, address(this), token1Amount) */\n      mload(0x40)\n      dup5\n      0xffffffff\n      and\n      0xe0\n      shl\n      dup2\n      mstore\n      0x04\n      add\n      tag_183\n      swap4\n      swap3\n      swap2\n      swap1\n      tag_74\n      jump\t// in\n    tag_183:\n      0x20\n      mload(0x40)\n      dup1\n      dup4\n      sub\n      dup2\n      0x00\n      dup8\n      gas\n      call\n      iszero\n      dup1\n      iszero\n      tag_185\n      jumpi\n      returndatasize\n      0x00\n      dup1\n      returndatacopy\n      revert(0x00, returndatasize)\n    tag_185:\n      pop\n      pop\n      pop\n      pop\n      mload(0x40)\n      returndatasize\n      not(0x1f)\n      0x1f\n      dup3\n      add\n      and\n      dup3\n      add\n      dup1\n      0x40\n      mstore\n      pop\n      dup2\n      add\n      swap1\n      tag_186\n      swap2\n      swap1\n      tag_78\n      jump\t// in\n    tag_186:\n        /* \"assignment3/Swap.sol\":3926:4032  require(sAsset(token1).transferFrom(msg.sender, address(this), token1Amount), \"failed to transfer token1\") */\n      tag_187\n      jumpi\n      mload(0x40)\n      0x08c379a000000000000000000000000000000000000000000000000000000000\n      dup2\n      mstore\n      0x04\n      add\n      tag_188\n      swap1\n      tag_89\n      jump\t// in\n    tag_188:\n      mload(0x40)\n      dup1\n      swap2\n      sub\n      swap1\n      revert\n    tag_187:\n        /* \"assignment3/Swap.sol\":4060:4066  token0 */\n      0x01\n      0x00\n      swap1\n      sload\n      swap1\n      0x0100\n      exp\n      swap1\n      div\n      0xffffffffffffffffffffffffffffffffffffffff\n      and\n        /* \"assignment3/Swap.sol\":4053:4076  sAsset(token0).transfer */\n      0xffffffffffffffffffffffffffffffffffffffff\n      and\n      0xa9059cbb\n        /* \"assignment3/Swap.sol\":4077:4087  msg.sender */\n      caller\n        /* \"assignment3/Swap.sol\":4089:4101  token0Amount */\n      dup4\n        /* \"assignment3/Swap.sol\":4053:4102  sAsset(token0).transfer(msg.sender, token0Amount) */\n      mload(0x40)\n      dup4\n      0xffffffff\n      and\n      0xe0\n      shl\n      dup2\n      mstore\n      0x04\n      add\n      tag_189\n      swap3\n      swap2\n      swap1\n      tag_83\n      jump\t// in\n    tag_189:\n      0x20\n      mload(0x40)\n      dup1\n      dup4\n      sub\n      dup2\n      0x00\n      dup8\n      gas\n      call\n      iszero\n      dup1\n      iszero\n      tag_191\n      jumpi\n      returndatasize\n      0x00\n      dup1\n      returndatacopy\n      revert(0x00, returndatasize)\n    tag_191:\n      pop\n      pop\n      pop\n      pop\n      mload(0x40)\n      returndatasize\n      not(0x1f)\n      0x1f\n      dup3\n      add\n      and\n      dup3\n      add\n      dup1\n      0x40\n      mstore\n      pop\n      dup2\n      add\n      swap1\n      tag_192\n      swap2\n      swap1\n      tag_78\n      jump\t// in\n    tag_192:\n        /* \"assignment3/Swap.sol\":4045:4132  require(sAsset(token0).transfer(msg.sender, token0Amount), \"failed to transfer token0\") */\n      tag_193\n      jumpi\n      mload(0x40)\n      0x08c379a000000000000000000000000000000000000000000000000000000000\n      dup2\n      mstore\n      0x04\n      add\n      tag_194\n      swap1\n      tag_81\n      jump\t// in\n    tag_194:\n      mload(0x40)\n      dup1\n      swap2\n      sub\n      swap1\n      revert\n    tag_193:\n        /* \"assignment3/Swap.sol\":4155:4167  token0Amount */\n      dup1\n        /* \"assignment3/Swap.sol\":4143:4151  reserve0 */\n      0x03\n      0x00\n        /* \"assignment3/Swap.sol\":4143:4167  reserve0 -= token0Amount */\n      dup3\n      dup3\n      sload\n      tag_195\n      swap2\n      swap1\n      tag_92\n      jump\t// in\n    tag_195:\n      swap3\n      pop\n      pop\n      dup2\n      swap1\n      sstore\n      pop\n        /* \"assignment3/Swap.sol\":4190:4202  token1Amount */\n      dup2\n        /* \"assignment3/Swap.sol\":4178:4186  reserve1 */\n      0x04\n      0x00\n        /* \"assignment3/Swap.sol\":4178:4202  reserve1 += token1Amount */\n      dup3\n      dup3\n      sload\n      tag_196\n      swap2\n      swap1\n      tag_68\n      jump\t// in\n    tag_196:\n      swap3\n      pop\n      pop\n      dup2\n      swap1\n      sstore\n      pop\n        /* \"assignment3/Swap.sol\":3761:4210  {... */\n      pop\n        /* \"assignment3/Swap.sol\":3705:4210  function token1To0(uint token1Amount) external override {... */\n      pop\n      jump\t// out\n        /* \"assignment3/Swap.sol\":1735:1831  function getShares(address LP) external view returns (uint) {... */\n    tag_54:\n        /* \"assignment3/Swap.sol\":1789:1793  uint */\n      0x00\n        /* \"assignment3/Swap.sol\":1813:1819  shares */\n      0x05\n        /* \"assignment3/Swap.sol\":1813:1823  shares[LP] */\n      0x00\n        /* \"assignment3/Swap.sol\":1820:1822  LP */\n      dup4\n        /* \"assignment3/Swap.sol\":1813:1823  shares[LP] */\n      0xffffffffffffffffffffffffffffffffffffffff\n      and\n      0xffffffffffffffffffffffffffffffffffffffff\n      and\n      dup2\n      mstore\n      0x20\n      add\n      swap1\n      dup2\n      mstore\n      0x20\n      add\n      0x00\n      keccak256\n      sload\n        /* \"assignment3/Swap.sol\":1806:1823  return shares[LP] */\n      swap1\n      pop\n        /* \"assignment3/Swap.sol\":1735:1831  function getShares(address LP) external view returns (uint) {... */\n      swap2\n      swap1\n      pop\n      jump\t// out\n        /* \"@openzeppelin/contracts/access/Ownable.sol\":2543:2758  function transferOwnership(address newOwner) public virtual onlyOwner {... */\n    tag_58:\n        /* \"@openzeppelin/contracts/access/Ownable.sol\":1531:1544  _checkOwner() */\n      tag_199\n        /* \"@openzeppelin/contracts/access/Ownable.sol\":1531:1542  _checkOwner */\n      tag_120\n        /* \"@openzeppelin/contracts/access/Ownable.sol\":1531:1544  _checkOwner() */\n      jump\t// in\n    tag_199:\n        /* \"@openzeppelin/contracts/access/Ownable.sol\":2647:2648  0 */\n      0x00\n        /* \"@openzeppelin/contracts/access/Ownable.sol\":2627:2649  newOwner == address(0) */\n      0xffffffffffffffffffffffffffffffffffffffff\n      and\n        /* \"@openzeppelin/contracts/access/Ownable.sol\":2627:2635  newOwner */\n      dup2\n        /* \"@openzeppelin/contracts/access/Ownable.sol\":2627:2649  newOwner == address(0) */\n      0xffffffffffffffffffffffffffffffffffffffff\n      and\n      sub\n        /* \"@openzeppelin/contracts/access/Ownable.sol\":2623:2714  if (newOwner == address(0)) {... */\n      tag_201\n      jumpi\n        /* \"@openzeppelin/contracts/access/Ownable.sol\":2700:2701  0 */\n      0x00\n        /* \"@openzeppelin/contracts/access/Ownable.sol\":2672:2703  OwnableInvalidOwner(address(0)) */\n      mload(0x40)\n      0x1e4fbdf700000000000000000000000000000000000000000000000000000000\n      dup2\n      mstore\n      0x04\n      add\n      tag_202\n      swap2\n      swap1\n      tag_36\n      jump\t// in\n    tag_202:\n      mload(0x40)\n      dup1\n      swap2\n      sub\n      swap1\n      revert\n        /* \"@openzeppelin/contracts/access/Ownable.sol\":2623:2714  if (newOwner == address(0)) {... */\n    tag_201:\n        /* \"@openzeppelin/contracts/access/Ownable.sol\":2723:2751  _transferOwnership(newOwner) */\n      tag_203\n        /* \"@openzeppelin/contracts/access/Ownable.sol\":2742:2750  newOwner */\n      dup2\n        /* \"@openzeppelin/contracts/access/Ownable.sol\":2723:2741  _transferOwnership */\n      tag_123\n        /* \"@openzeppelin/contracts/access/Ownable.sol\":2723:2751  _transferOwnership(newOwner) */\n      jump\t// in\n    tag_203:\n        /* \"@openzeppelin/contracts/access/Ownable.sol\":2543:2758  function transferOwnership(address newOwner) public virtual onlyOwner {... */\n      pop\n      jump\t// out\n        /* \"@openzeppelin/contracts/access/Ownable.sol\":1796:1958  function _checkOwner() internal view virtual {... */\n    tag_120:\n        /* \"@openzeppelin/contracts/access/Ownable.sol\":1866:1878  _msgSender() */\n      tag_205\n        /* \"@openzeppelin/contracts/access/Ownable.sol\":1866:1876  _msgSender */\n      tag_206\n        /* \"@openzeppelin/contracts/access/Ownable.sol\":1866:1878  _msgSender() */\n      jump\t// in\n    tag_205:\n        /* \"@openzeppelin/contracts/access/Ownable.sol\":1855:1878  owner() != _msgSender() */\n      0xffffffffffffffffffffffffffffffffffffffff\n      and\n        /* \"@openzeppelin/contracts/access/Ownable.sol\":1855:1862  owner() */\n      tag_207\n        /* \"@openzeppelin/contracts/access/Ownable.sol\":1855:1860  owner */\n      tag_34\n        /* \"@openzeppelin/contracts/access/Ownable.sol\":1855:1862  owner() */\n      jump\t// in\n    tag_207:\n        /* \"@openzeppelin/contracts/access/Ownable.sol\":1855:1878  owner() != _msgSender() */\n      0xffffffffffffffffffffffffffffffffffffffff\n      and\n      eq\n        /* \"@openzeppelin/contracts/access/Ownable.sol\":1851:1952  if (owner() != _msgSender()) {... */\n      tag_208\n      jumpi\n        /* \"@openzeppelin/contracts/access/Ownable.sol\":1928:1940  _msgSender() */\n      tag_209\n        /* \"@openzeppelin/contracts/access/Ownable.sol\":1928:1938  _msgSender */\n      tag_206\n        /* \"@openzeppelin/contracts/access/Ownable.sol\":1928:1940  _msgSender() */\n      jump\t// in\n    tag_209:\n        /* \"@openzeppelin/contracts/access/Ownable.sol\":1901:1941  OwnableUnauthorizedAccount(_msgSender()) */\n      mload(0x40)\n      0x118cdaa700000000000000000000000000000000000000000000000000000000\n      dup2\n      mstore\n      0x04\n      add\n      tag_210\n      swap2\n      swap1\n      tag_36\n      jump\t// in\n    tag_210:\n      mload(0x40)\n      dup1\n      swap2\n      sub\n      swap1\n      revert\n        /* \"@openzeppelin/contracts/access/Ownable.sol\":1851:1952  if (owner() != _msgSender()) {... */\n    tag_208:\n        /* \"@openzeppelin/contracts/access/Ownable.sol\":1796:1958  function _checkOwner() internal view virtual {... */\n      jump\t// out\n        /* \"@openzeppelin/contracts/access/Ownable.sol\":2912:3099  function _transferOwnership(address newOwner) internal virtual {... */\n    tag_123:\n        /* \"@openzeppelin/contracts/access/Ownable.sol\":2985:3001  address oldOwner */\n      0x00\n        /* \"@openzeppelin/contracts/access/Ownable.sol\":3004:3010  _owner */\n      dup1\n      0x00\n      swap1\n      sload\n      swap1\n      0x0100\n      exp\n      swap1\n      div\n      0xffffffffffffffffffffffffffffffffffffffff\n      and\n        /* \"@openzeppelin/contracts/access/Ownable.sol\":2985:3010  address oldOwner = _owner */\n      swap1\n      pop\n        /* \"@openzeppelin/contracts/access/Ownable.sol\":3029:3037  newOwner */\n      dup2\n        /* \"@openzeppelin/contracts/access/Ownable.sol\":3020:3026  _owner */\n      0x00\n      dup1\n        /* \"@openzeppelin/contracts/access/Ownable.sol\":3020:3037  _owner = newOwner */\n      0x0100\n      exp\n      dup2\n      sload\n      dup2\n      0xffffffffffffffffffffffffffffffffffffffff\n      mul\n      not\n      and\n      swap1\n      dup4\n      0xffffffffffffffffffffffffffffffffffffffff\n      and\n      mul\n      or\n      swap1\n      sstore\n      pop\n        /* \"@openzeppelin/contracts/access/Ownable.sol\":3083:3091  newOwner */\n      dup2\n        /* \"@openzeppelin/contracts/access/Ownable.sol\":3052:3092  OwnershipTransferred(oldOwner, newOwner) */\n      0xffffffffffffffffffffffffffffffffffffffff\n      and\n        /* \"@openzeppelin/contracts/access/Ownable.sol\":3073:3081  oldOwner */\n      dup2\n        /* \"@openzeppelin/contracts/access/Ownable.sol\":3052:3092  OwnershipTransferred(oldOwner, newOwner) */\n      0xffffffffffffffffffffffffffffffffffffffff\n      and\n      0x8be0079c531659141344cd1fd0a4f28419497f9722a3daafe3b4186f6b6457e0\n      mload(0x40)\n      mload(0x40)\n      dup1\n      swap2\n      sub\n      swap1\n      log3\n        /* \"@openzeppelin/contracts/access/Ownable.sol\":2975:3099  {... */\n      pop\n        /* \"@openzeppelin/contracts/access/Ownable.sol\":2912:3099  function _transferOwnership(address newOwner) internal virtual {... */\n      pop\n      jump\t// out\n        /* \"assignment3/Swap.sol\":1200:1503  function sqrt(uint y) internal pure returns (uint z) {... */\n    tag_172:\n        /* \"assignment3/Swap.sol\":1245:1251  uint z */\n      0x00\n        /* \"assignment3/Swap.sol\":1272:1273  3 */\n      0x03\n        /* \"assignment3/Swap.sol\":1268:1269  y */\n      dup3\n        /* \"assignment3/Swap.sol\":1268:1273  y > 3 */\n      gt\n        /* \"assignment3/Swap.sol\":1264:1496  if (y > 3) {... */\n      iszero\n      tag_213\n      jumpi\n        /* \"assignment3/Swap.sol\":1294:1295  y */\n      dup2\n        /* \"assignment3/Swap.sol\":1290:1295  z = y */\n      swap1\n      pop\n        /* \"assignment3/Swap.sol\":1310:1316  uint x */\n      0x00\n        /* \"assignment3/Swap.sol\":1327:1328  1 */\n      0x01\n        /* \"assignment3/Swap.sol\":1323:1324  2 */\n      0x02\n        /* \"assignment3/Swap.sol\":1319:1320  y */\n      dup5\n        /* \"assignment3/Swap.sol\":1319:1324  y / 2 */\n      tag_214\n      swap2\n      swap1\n      tag_72\n      jump\t// in\n    tag_214:\n        /* \"assignment3/Swap.sol\":1319:1328  y / 2 + 1 */\n      tag_215\n      swap2\n      swap1\n      tag_68\n      jump\t// in\n    tag_215:\n        /* \"assignment3/Swap.sol\":1310:1328  uint x = y / 2 + 1 */\n      swap1\n      pop\n        /* \"assignment3/Swap.sol\":1343:1435  while (x < z) {... */\n    tag_216:\n        /* \"assignment3/Swap.sol\":1354:1355  z */\n      dup2\n        /* \"assignment3/Swap.sol\":1350:1351  x */\n      dup2\n        /* \"assignment3/Swap.sol\":1350:1355  x < z */\n      lt\n        /* \"assignment3/Swap.sol\":1343:1435  while (x < z) {... */\n      iszero\n      tag_217\n      jumpi\n        /* \"assignment3/Swap.sol\":1380:1381  x */\n      dup1\n        /* \"assignment3/Swap.sol\":1376:1381  z = x */\n      swap2\n      pop\n        /* \"assignment3/Swap.sol\":1418:1419  2 */\n      0x02\n        /* \"assignment3/Swap.sol\":1413:1414  x */\n      dup2\n        /* \"assignment3/Swap.sol\":1409:1410  x */\n      dup3\n        /* \"assignment3/Swap.sol\":1405:1406  y */\n      dup6\n        /* \"assignment3/Swap.sol\":1405:1410  y / x */\n      tag_218\n      swap2\n      swap1\n      tag_72\n      jump\t// in\n    tag_218:\n        /* \"assignment3/Swap.sol\":1405:1414  y / x + x */\n      tag_219\n      swap2\n      swap1\n      tag_68\n      jump\t// in\n    tag_219:\n        /* \"assignment3/Swap.sol\":1404:1419  (y / x + x) / 2 */\n      tag_220\n      swap2\n      swap1\n      tag_72\n      jump\t// in\n    tag_220:\n        /* \"assignment3/Swap.sol\":1400:1419  x = (y / x + x) / 2 */\n      swap1\n      pop\n        /* \"assignment3/Swap.sol\":1343:1435  while (x < z) {... */\n      jump(tag_216)\n    tag_217:\n        /* \"assignment3/Swap.sol\":1275:1446  {... */\n      pop\n        /* \"assignment3/Swap.sol\":1264:1496  if (y > 3) {... */\n      jump(tag_221)\n    tag_213:\n        /* \"assignment3/Swap.sol\":1461:1462  0 */\n      0x00\n        /* \"assignment3/Swap.sol\":1456:1457  y */\n      dup3\n        /* \"assignment3/Swap.sol\":1456:1462  y != 0 */\n      eq\n        /* \"assignment3/Swap.sol\":1452:1496  if (y != 0) {... */\n      tag_222\n      jumpi\n        /* \"assignment3/Swap.sol\":1483:1484  1 */\n      0x01\n        /* \"assignment3/Swap.sol\":1479:1484  z = 1 */\n      swap1\n      pop\n        /* \"assignment3/Swap.sol\":1452:1496  if (y != 0) {... */\n    tag_222:\n        /* \"assignment3/Swap.sol\":1264:1496  if (y > 3) {... */\n    tag_221:\n        /* \"assignment3/Swap.sol\":1200:1503  function sqrt(uint y) internal pure returns (uint z) {... */\n      swap2\n      swap1\n      pop\n      jump\t// out\n        /* \"@openzeppelin/contracts/utils/Context.sol\":656:752  function _msgSender() internal view virtual returns (address) {... */\n    tag_206:\n        /* \"@openzeppelin/contracts/utils/Context.sol\":709:716  address */\n      0x00\n        /* \"@openzeppelin/contracts/utils/Context.sol\":735:745  msg.sender */\n      caller\n        /* \"@openzeppelin/contracts/utils/Context.sol\":728:745  return msg.sender */\n      swap1\n      pop\n        /* \"@openzeppelin/contracts/utils/Context.sol\":656:752  function _msgSender() internal view virtual returns (address) {... */\n      swap1\n      jump\t// out\n        /* \"#utility.yul\":7:84   */\n    tag_224:\n        /* \"#utility.yul\":44:51   */\n      0x00\n        /* \"#utility.yul\":73:78   */\n      dup2\n        /* \"#utility.yul\":62:78   */\n      swap1\n      pop\n        /* \"#utility.yul\":7:84   */\n      swap2\n      swap1\n      pop\n      jump\t// out\n        /* \"#utility.yul\":90:208   */\n    tag_225:\n        /* \"#utility.yul\":177:201   */\n      tag_259\n        /* \"#utility.yul\":195:200   */\n      dup2\n        /* \"#utility.yul\":177:201   */\n      tag_224\n      jump\t// in\n    tag_259:\n        /* \"#utility.yul\":172:175   */\n      dup3\n        /* \"#utility.yul\":165:202   */\n      mstore\n        /* \"#utility.yul\":90:208   */\n      pop\n      pop\n      jump\t// out\n        /* \"#utility.yul\":214:546   */\n    tag_19:\n        /* \"#utility.yul\":335:339   */\n      0x00\n        /* \"#utility.yul\":373:375   */\n      0x40\n        /* \"#utility.yul\":362:371   */\n      dup3\n        /* \"#utility.yul\":358:376   */\n      add\n        /* \"#utility.yul\":350:376   */\n      swap1\n      pop\n        /* \"#utility.yul\":386:457   */\n      tag_261\n        /* \"#utility.yul\":454:455   */\n      0x00\n        /* \"#utility.yul\":443:452   */\n      dup4\n        /* \"#utility.yul\":439:456   */\n      add\n        /* \"#utility.yul\":430:436   */\n      dup6\n        /* \"#utility.yul\":386:457   */\n      tag_225\n      jump\t// in\n    tag_261:\n        /* \"#utility.yul\":467:539   */\n      tag_262\n        /* \"#utility.yul\":535:537   */\n      0x20\n        /* \"#utility.yul\":524:533   */\n      dup4\n        /* \"#utility.yul\":520:538   */\n      add\n        /* \"#utility.yul\":511:517   */\n      dup5\n        /* \"#utility.yul\":467:539   */\n      tag_225\n      jump\t// in\n    tag_262:\n        /* \"#utility.yul\":214:546   */\n      swap4\n      swap3\n      pop\n      pop\n      pop\n      jump\t// out\n        /* \"#utility.yul\":633:750   */\n    tag_227:\n        /* \"#utility.yul\":742:743   */\n      0x00\n        /* \"#utility.yul\":739:740   */\n      dup1\n        /* \"#utility.yul\":732:744   */\n      revert\n        /* \"#utility.yul\":879:1001   */\n    tag_229:\n        /* \"#utility.yul\":952:976   */\n      tag_267\n        /* \"#utility.yul\":970:975   */\n      dup2\n        /* \"#utility.yul\":952:976   */\n      tag_224\n      jump\t// in\n    tag_267:\n        /* \"#utility.yul\":945:950   */\n      dup2\n        /* \"#utility.yul\":942:977   */\n      eq\n        /* \"#utility.yul\":932:995   */\n      tag_268\n      jumpi\n        /* \"#utility.yul\":991:992   */\n      0x00\n        /* \"#utility.yul\":988:989   */\n      dup1\n        /* \"#utility.yul\":981:993   */\n      revert\n        /* \"#utility.yul\":932:995   */\n    tag_268:\n        /* \"#utility.yul\":879:1001   */\n      pop\n      jump\t// out\n        /* \"#utility.yul\":1007:1146   */\n    tag_230:\n        /* \"#utility.yul\":1053:1058   */\n      0x00\n        /* \"#utility.yul\":1091:1097   */\n      dup2\n        /* \"#utility.yul\":1078:1098   */\n      calldataload\n        /* \"#utility.yul\":1069:1098   */\n      swap1\n      pop\n        /* \"#utility.yul\":1107:1140   */\n      tag_270\n        /* \"#utility.yul\":1134:1139   */\n      dup2\n        /* \"#utility.yul\":1107:1140   */\n      tag_229\n      jump\t// in\n    tag_270:\n        /* \"#utility.yul\":1007:1146   */\n      swap3\n      swap2\n      pop\n      pop\n      jump\t// out\n        /* \"#utility.yul\":1152:1481   */\n    tag_22:\n        /* \"#utility.yul\":1211:1217   */\n      0x00\n        /* \"#utility.yul\":1260:1262   */\n      0x20\n        /* \"#utility.yul\":1248:1257   */\n      dup3\n        /* \"#utility.yul\":1239:1246   */\n      dup5\n        /* \"#utility.yul\":1235:1258   */\n      sub\n        /* \"#utility.yul\":1231:1263   */\n      slt\n        /* \"#utility.yul\":1228:1347   */\n      iszero\n      tag_272\n      jumpi\n        /* \"#utility.yul\":1266:1345   */\n      tag_273\n      tag_227\n      jump\t// in\n    tag_273:\n        /* \"#utility.yul\":1228:1347   */\n    tag_272:\n        /* \"#utility.yul\":1386:1387   */\n      0x00\n        /* \"#utility.yul\":1411:1464   */\n      tag_274\n        /* \"#utility.yul\":1456:1463   */\n      dup5\n        /* \"#utility.yul\":1447:1453   */\n      dup3\n        /* \"#utility.yul\":1436:1445   */\n      dup6\n        /* \"#utility.yul\":1432:1454   */\n      add\n        /* \"#utility.yul\":1411:1464   */\n      tag_230\n      jump\t// in\n    tag_274:\n        /* \"#utility.yul\":1401:1464   */\n      swap2\n      pop\n        /* \"#utility.yul\":1357:1474   */\n      pop\n        /* \"#utility.yul\":1152:1481   */\n      swap3\n      swap2\n      pop\n      pop\n      jump\t// out\n        /* \"#utility.yul\":1487:1709   */\n    tag_27:\n        /* \"#utility.yul\":1580:1584   */\n      0x00\n        /* \"#utility.yul\":1618:1620   */\n      0x20\n        /* \"#utility.yul\":1607:1616   */\n      dup3\n        /* \"#utility.yul\":1603:1621   */\n      add\n        /* \"#utility.yul\":1595:1621   */\n      swap1\n      pop\n        /* \"#utility.yul\":1631:1702   */\n      tag_276\n        /* \"#utility.yul\":1699:1700   */\n      0x00\n        /* \"#utility.yul\":1688:1697   */\n      dup4\n        /* \"#utility.yul\":1684:1701   */\n      add\n        /* \"#utility.yul\":1675:1681   */\n      dup5\n        /* \"#utility.yul\":1631:1702   */\n      tag_225\n      jump\t// in\n    tag_276:\n        /* \"#utility.yul\":1487:1709   */\n      swap3\n      swap2\n      pop\n      pop\n      jump\t// out\n        /* \"#utility.yul\":1715:1841   */\n    tag_231:\n        /* \"#utility.yul\":1752:1759   */\n      0x00\n        /* \"#utility.yul\":1792:1834   */\n      0xffffffffffffffffffffffffffffffffffffffff\n        /* \"#utility.yul\":1785:1790   */\n      dup3\n        /* \"#utility.yul\":1781:1835   */\n      and\n        /* \"#utility.yul\":1770:1835   */\n      swap1\n      pop\n        /* \"#utility.yul\":1715:1841   */\n      swap2\n      swap1\n      pop\n      jump\t// out\n        /* \"#utility.yul\":1847:1943   */\n    tag_232:\n        /* \"#utility.yul\":1884:1891   */\n      0x00\n        /* \"#utility.yul\":1913:1937   */\n      tag_279\n        /* \"#utility.yul\":1931:1936   */\n      dup3\n        /* \"#utility.yul\":1913:1937   */\n      tag_231\n      jump\t// in\n    tag_279:\n        /* \"#utility.yul\":1902:1937   */\n      swap1\n      pop\n        /* \"#utility.yul\":1847:1943   */\n      swap2\n      swap1\n      pop\n      jump\t// out\n        /* \"#utility.yul\":1949:2067   */\n    tag_233:\n        /* \"#utility.yul\":2036:2060   */\n      tag_281\n        /* \"#utility.yul\":2054:2059   */\n      dup2\n        /* \"#utility.yul\":2036:2060   */\n      tag_232\n      jump\t// in\n    tag_281:\n        /* \"#utility.yul\":2031:2034   */\n      dup3\n        /* \"#utility.yul\":2024:2061   */\n      mstore\n        /* \"#utility.yul\":1949:2067   */\n      pop\n      pop\n      jump\t// out\n        /* \"#utility.yul\":2073:2295   */\n    tag_36:\n        /* \"#utility.yul\":2166:2170   */\n      0x00\n        /* \"#utility.yul\":2204:2206   */\n      0x20\n        /* \"#utility.yul\":2193:2202   */\n      dup3\n        /* \"#utility.yul\":2189:2207   */\n      add\n        /* \"#utility.yul\":2181:2207   */\n      swap1\n      pop\n        /* \"#utility.yul\":2217:2288   */\n      tag_283\n        /* \"#utility.yul\":2285:2286   */\n      0x00\n        /* \"#utility.yul\":2274:2283   */\n      dup4\n        /* \"#utility.yul\":2270:2287   */\n      add\n        /* \"#utility.yul\":2261:2267   */\n      dup5\n        /* \"#utility.yul\":2217:2288   */\n      tag_233\n      jump\t// in\n    tag_283:\n        /* \"#utility.yul\":2073:2295   */\n      swap3\n      swap2\n      pop\n      pop\n      jump\t// out\n        /* \"#utility.yul\":2301:2775   */\n    tag_42:\n        /* \"#utility.yul\":2369:2375   */\n      0x00\n        /* \"#utility.yul\":2377:2383   */\n      dup1\n        /* \"#utility.yul\":2426:2428   */\n      0x40\n        /* \"#utility.yul\":2414:2423   */\n      dup4\n        /* \"#utility.yul\":2405:2412   */\n      dup6\n        /* \"#utility.yul\":2401:2424   */\n      sub\n        /* \"#utility.yul\":2397:2429   */\n      slt\n        /* \"#utility.yul\":2394:2513   */\n      iszero\n      tag_285\n      jumpi\n        /* \"#utility.yul\":2432:2511   */\n      tag_286\n      tag_227\n      jump\t// in\n    tag_286:\n        /* \"#utility.yul\":2394:2513   */\n    tag_285:\n        /* \"#utility.yul\":2552:2553   */\n      0x00\n        /* \"#utility.yul\":2577:2630   */\n      tag_287\n        /* \"#utility.yul\":2622:2629   */\n      dup6\n        /* \"#utility.yul\":2613:2619   */\n      dup3\n        /* \"#utility.yul\":2602:2611   */\n      dup7\n        /* \"#utility.yul\":2598:2620   */\n      add\n        /* \"#utility.yul\":2577:2630   */\n      tag_230\n      jump\t// in\n    tag_287:\n        /* \"#utility.yul\":2567:2630   */\n      swap3\n      pop\n        /* \"#utility.yul\":2523:2640   */\n      pop\n        /* \"#utility.yul\":2679:2681   */\n      0x20\n        /* \"#utility.yul\":2705:2758   */\n      tag_288\n        /* \"#utility.yul\":2750:2757   */\n      dup6\n        /* \"#utility.yul\":2741:2747   */\n      dup3\n        /* \"#utility.yul\":2730:2739   */\n      dup7\n        /* \"#utility.yul\":2726:2748   */\n      add\n        /* \"#utility.yul\":2705:2758   */\n      tag_230\n      jump\t// in\n    tag_288:\n        /* \"#utility.yul\":2695:2758   */\n      swap2\n      pop\n        /* \"#utility.yul\":2650:2768   */\n      pop\n        /* \"#utility.yul\":2301:2775   */\n      swap3\n      pop\n      swap3\n      swap1\n      pop\n      jump\t// out\n        /* \"#utility.yul\":2781:3113   */\n    tag_47:\n        /* \"#utility.yul\":2902:2906   */\n      0x00\n        /* \"#utility.yul\":2940:2942   */\n      0x40\n        /* \"#utility.yul\":2929:2938   */\n      dup3\n        /* \"#utility.yul\":2925:2943   */\n      add\n        /* \"#utility.yul\":2917:2943   */\n      swap1\n      pop\n        /* \"#utility.yul\":2953:3024   */\n      tag_290\n        /* \"#utility.yul\":3021:3022   */\n      0x00\n        /* \"#utility.yul\":3010:3019   */\n      dup4\n        /* \"#utility.yul\":3006:3023   */\n      add\n        /* \"#utility.yul\":2997:3003   */\n      dup6\n        /* \"#utility.yul\":2953:3024   */\n      tag_233\n      jump\t// in\n    tag_290:\n        /* \"#utility.yul\":3034:3106   */\n      tag_291\n        /* \"#utility.yul\":3102:3104   */\n      0x20\n        /* \"#utility.yul\":3091:3100   */\n      dup4\n        /* \"#utility.yul\":3087:3105   */\n      add\n        /* \"#utility.yul\":3078:3084   */\n      dup5\n        /* \"#utility.yul\":3034:3106   */\n      tag_233\n      jump\t// in\n    tag_291:\n        /* \"#utility.yul\":2781:3113   */\n      swap4\n      swap3\n      pop\n      pop\n      pop\n      jump\t// out\n        /* \"#utility.yul\":3119:3241   */\n    tag_234:\n        /* \"#utility.yul\":3192:3216   */\n      tag_293\n        /* \"#utility.yul\":3210:3215   */\n      dup2\n        /* \"#utility.yul\":3192:3216   */\n      tag_232\n      jump\t// in\n    tag_293:\n        /* \"#utility.yul\":3185:3190   */\n      dup2\n        /* \"#utility.yul\":3182:3217   */\n      eq\n        /* \"#utility.yul\":3172:3235   */\n      tag_294\n      jumpi\n        /* \"#utility.yul\":3231:3232   */\n      0x00\n        /* \"#utility.yul\":3228:3229   */\n      dup1\n        /* \"#utility.yul\":3221:3233   */\n      revert\n        /* \"#utility.yul\":3172:3235   */\n    tag_294:\n        /* \"#utility.yul\":3119:3241   */\n      pop\n      jump\t// out\n        /* \"#utility.yul\":3247:3386   */\n    tag_235:\n        /* \"#utility.yul\":3293:3298   */\n      0x00\n        /* \"#utility.yul\":3331:3337   */\n      dup2\n        /* \"#utility.yul\":3318:3338   */\n      calldataload\n        /* \"#utility.yul\":3309:3338   */\n      swap1\n      pop\n        /* \"#utility.yul\":3347:3380   */\n      tag_296\n        /* \"#utility.yul\":3374:3379   */\n      dup2\n        /* \"#utility.yul\":3347:3380   */\n      tag_234\n      jump\t// in\n    tag_296:\n        /* \"#utility.yul\":3247:3386   */\n      swap3\n      swap2\n      pop\n      pop\n      jump\t// out\n        /* \"#utility.yul\":3392:3721   */\n    tag_53:\n        /* \"#utility.yul\":3451:3457   */\n      0x00\n        /* \"#utility.yul\":3500:3502   */\n      0x20\n        /* \"#utility.yul\":3488:3497   */\n      dup3\n        /* \"#utility.yul\":3479:3486   */\n      dup5\n        /* \"#utility.yul\":3475:3498   */\n      sub\n        /* \"#utility.yul\":3471:3503   */\n      slt\n        /* \"#utility.yul\":3468:3587   */\n      iszero\n      tag_298\n      jumpi\n        /* \"#utility.yul\":3506:3585   */\n      tag_299\n      tag_227\n      jump\t// in\n    tag_299:\n        /* \"#utility.yul\":3468:3587   */\n    tag_298:\n        /* \"#utility.yul\":3626:3627   */\n      0x00\n        /* \"#utility.yul\":3651:3704   */\n      tag_300\n        /* \"#utility.yul\":3696:3703   */\n      dup5\n        /* \"#utility.yul\":3687:3693   */\n      dup3\n        /* \"#utility.yul\":3676:3685   */\n      dup6\n        /* \"#utility.yul\":3672:3694   */\n      add\n        /* \"#utility.yul\":3651:3704   */\n      tag_235\n      jump\t// in\n    tag_300:\n        /* \"#utility.yul\":3641:3704   */\n      swap2\n      pop\n        /* \"#utility.yul\":3597:3714   */\n      pop\n        /* \"#utility.yul\":3392:3721   */\n      swap3\n      swap2\n      pop\n      pop\n      jump\t// out\n        /* \"#utility.yul\":3727:3896   */\n    tag_236:\n        /* \"#utility.yul\":3811:3822   */\n      0x00\n        /* \"#utility.yul\":3845:3851   */\n      dup3\n        /* \"#utility.yul\":3840:3843   */\n      dup3\n        /* \"#utility.yul\":3833:3852   */\n      mstore\n        /* \"#utility.yul\":3885:3889   */\n      0x20\n        /* \"#utility.yul\":3880:3883   */\n      dup3\n        /* \"#utility.yul\":3876:3890   */\n      add\n        /* \"#utility.yul\":3861:3890   */\n      swap1\n      pop\n        /* \"#utility.yul\":3727:3896   */\n      swap3\n      swap2\n      pop\n      pop\n      jump\t// out\n        /* \"#utility.yul\":3902:4071   */\n    tag_237:\n        /* \"#utility.yul\":4042:4063   */\n      0x6e6f7420746f6b656e302070726f766964656400000000000000000000000000\n        /* \"#utility.yul\":4038:4039   */\n      0x00\n        /* \"#utility.yul\":4030:4036   */\n      dup3\n        /* \"#utility.yul\":4026:4040   */\n      add\n        /* \"#utility.yul\":4019:4064   */\n      mstore\n        /* \"#utility.yul\":3902:4071   */\n      pop\n      jump\t// out\n        /* \"#utility.yul\":4077:4443   */\n    tag_238:\n        /* \"#utility.yul\":4219:4222   */\n      0x00\n        /* \"#utility.yul\":4240:4307   */\n      tag_304\n        /* \"#utility.yul\":4304:4306   */\n      0x13\n        /* \"#utility.yul\":4299:4302   */\n      dup4\n        /* \"#utility.yul\":4240:4307   */\n      tag_236\n      jump\t// in\n    tag_304:\n        /* \"#utility.yul\":4233:4307   */\n      swap2\n      pop\n        /* \"#utility.yul\":4316:4409   */\n      tag_305\n        /* \"#utility.yul\":4405:4408   */\n      dup3\n        /* \"#utility.yul\":4316:4409   */\n      tag_237\n      jump\t// in\n    tag_305:\n        /* \"#utility.yul\":4434:4436   */\n      0x20\n        /* \"#utility.yul\":4429:4432   */\n      dup3\n        /* \"#utility.yul\":4425:4437   */\n      add\n        /* \"#utility.yul\":4418:4437   */\n      swap1\n      pop\n        /* \"#utility.yul\":4077:4443   */\n      swap2\n      swap1\n      pop\n      jump\t// out\n        /* \"#utility.yul\":4449:4868   */\n    tag_63:\n        /* \"#utility.yul\":4615:4619   */\n      0x00\n        /* \"#utility.yul\":4653:4655   */\n      0x20\n        /* \"#utility.yul\":4642:4651   */\n      dup3\n        /* \"#utility.yul\":4638:4656   */\n      add\n        /* \"#utility.yul\":4630:4656   */\n      swap1\n      pop\n        /* \"#utility.yul\":4702:4711   */\n      dup2\n        /* \"#utility.yul\":4696:4700   */\n      dup2\n        /* \"#utility.yul\":4692:4712   */\n      sub\n        /* \"#utility.yul\":4688:4689   */\n      0x00\n        /* \"#utility.yul\":4677:4686   */\n      dup4\n        /* \"#utility.yul\":4673:4690   */\n      add\n        /* \"#utility.yul\":4666:4713   */\n      mstore\n        /* \"#utility.yul\":4730:4861   */\n      tag_307\n        /* \"#utility.yul\":4856:4860   */\n      dup2\n        /* \"#utility.yul\":4730:4861   */\n      tag_238\n      jump\t// in\n    tag_307:\n        /* \"#utility.yul\":4722:4861   */\n      swap1\n      pop\n        /* \"#utility.yul\":4449:4868   */\n      swap2\n      swap1\n      pop\n      jump\t// out\n        /* \"#utility.yul\":4874:5054   */\n    tag_239:\n        /* \"#utility.yul\":4922:4999   */\n      0x4e487b7100000000000000000000000000000000000000000000000000000000\n        /* \"#utility.yul\":4919:4920   */\n      0x00\n        /* \"#utility.yul\":4912:5000   */\n      mstore\n        /* \"#utility.yul\":5019:5023   */\n      0x11\n        /* \"#utility.yul\":5016:5017   */\n      0x04\n        /* \"#utility.yul\":5009:5024   */\n      mstore\n        /* \"#utility.yul\":5043:5047   */\n      0x24\n        /* \"#utility.yul\":5040:5041   */\n      0x00\n        /* \"#utility.yul\":5033:5048   */\n      revert\n        /* \"#utility.yul\":5060:5470   */\n    tag_65:\n        /* \"#utility.yul\":5100:5107   */\n      0x00\n        /* \"#utility.yul\":5123:5143   */\n      tag_310\n        /* \"#utility.yul\":5141:5142   */\n      dup3\n        /* \"#utility.yul\":5123:5143   */\n      tag_224\n      jump\t// in\n    tag_310:\n        /* \"#utility.yul\":5118:5143   */\n      swap2\n      pop\n        /* \"#utility.yul\":5157:5177   */\n      tag_311\n        /* \"#utility.yul\":5175:5176   */\n      dup4\n        /* \"#utility.yul\":5157:5177   */\n      tag_224\n      jump\t// in\n    tag_311:\n        /* \"#utility.yul\":5152:5177   */\n      swap3\n      pop\n        /* \"#utility.yul\":5212:5213   */\n      dup3\n        /* \"#utility.yul\":5209:5210   */\n      dup3\n        /* \"#utility.yul\":5205:5214   */\n      mul\n        /* \"#utility.yul\":5234:5264   */\n      tag_312\n        /* \"#utility.yul\":5252:5263   */\n      dup2\n        /* \"#utility.yul\":5234:5264   */\n      tag_224\n      jump\t// in\n    tag_312:\n        /* \"#utility.yul\":5223:5264   */\n      swap2\n      pop\n        /* \"#utility.yul\":5413:5414   */\n      dup3\n        /* \"#utility.yul\":5404:5411   */\n      dup3\n        /* \"#utility.yul\":5400:5415   */\n      div\n        /* \"#utility.yul\":5397:5398   */\n      dup5\n        /* \"#utility.yul\":5394:5416   */\n      eq\n        /* \"#utility.yul\":5374:5375   */\n      dup4\n        /* \"#utility.yul\":5367:5376   */\n      iszero\n        /* \"#utility.yul\":5347:5430   */\n      or\n        /* \"#utility.yul\":5324:5463   */\n      tag_313\n      jumpi\n        /* \"#utility.yul\":5443:5461   */\n      tag_314\n      tag_239\n      jump\t// in\n    tag_314:\n        /* \"#utility.yul\":5324:5463   */\n    tag_313:\n        /* \"#utility.yul\":5108:5470   */\n      pop\n        /* \"#utility.yul\":5060:5470   */\n      swap3\n      swap2\n      pop\n      pop\n      jump\t// out\n        /* \"#utility.yul\":5476:5667   */\n    tag_68:\n        /* \"#utility.yul\":5516:5519   */\n      0x00\n        /* \"#utility.yul\":5535:5555   */\n      tag_316\n        /* \"#utility.yul\":5553:5554   */\n      dup3\n        /* \"#utility.yul\":5535:5555   */\n      tag_224\n      jump\t// in\n    tag_316:\n        /* \"#utility.yul\":5530:5555   */\n      swap2\n      pop\n        /* \"#utility.yul\":5569:5589   */\n      tag_317\n        /* \"#utility.yul\":5587:5588   */\n      dup4\n        /* \"#utility.yul\":5569:5589   */\n      tag_224\n      jump\t// in\n    tag_317:\n        /* \"#utility.yul\":5564:5589   */\n      swap3\n      pop\n        /* \"#utility.yul\":5612:5613   */\n      dup3\n        /* \"#utility.yul\":5609:5610   */\n      dup3\n        /* \"#utility.yul\":5605:5614   */\n      add\n        /* \"#utility.yul\":5598:5614   */\n      swap1\n      pop\n        /* \"#utility.yul\":5633:5636   */\n      dup1\n        /* \"#utility.yul\":5630:5631   */\n      dup3\n        /* \"#utility.yul\":5627:5637   */\n      gt\n        /* \"#utility.yul\":5624:5660   */\n      iszero\n      tag_318\n      jumpi\n        /* \"#utility.yul\":5640:5658   */\n      tag_319\n      tag_239\n      jump\t// in\n    tag_319:\n        /* \"#utility.yul\":5624:5660   */\n    tag_318:\n        /* \"#utility.yul\":5476:5667   */\n      swap3\n      swap2\n      pop\n      pop\n      jump\t// out\n        /* \"#utility.yul\":5673:5853   */\n    tag_240:\n        /* \"#utility.yul\":5721:5798   */\n      0x4e487b7100000000000000000000000000000000000000000000000000000000\n        /* \"#utility.yul\":5718:5719   */\n      0x00\n        /* \"#utility.yul\":5711:5799   */\n      mstore\n        /* \"#utility.yul\":5818:5822   */\n      0x12\n        /* \"#utility.yul\":5815:5816   */\n      0x04\n        /* \"#utility.yul\":5808:5823   */\n      mstore\n        /* \"#utility.yul\":5842:5846   */\n      0x24\n        /* \"#utility.yul\":5839:5840   */\n      0x00\n        /* \"#utility.yul\":5832:5847   */\n      revert\n        /* \"#utility.yul\":5859:6044   */\n    tag_72:\n        /* \"#utility.yul\":5899:5900   */\n      0x00\n        /* \"#utility.yul\":5916:5936   */\n      tag_322\n        /* \"#utility.yul\":5934:5935   */\n      dup3\n        /* \"#utility.yul\":5916:5936   */\n      tag_224\n      jump\t// in\n    tag_322:\n        /* \"#utility.yul\":5911:5936   */\n      swap2\n      pop\n        /* \"#utility.yul\":5950:5970   */\n      tag_323\n        /* \"#utility.yul\":5968:5969   */\n      dup4\n        /* \"#utility.yul\":5950:5970   */\n      tag_224\n      jump\t// in\n    tag_323:\n        /* \"#utility.yul\":5945:5970   */\n      swap3\n      pop\n        /* \"#utility.yul\":5989:5990   */\n      dup3\n        /* \"#utility.yul\":5979:6014   */\n      tag_324\n      jumpi\n        /* \"#utility.yul\":5994:6012   */\n      tag_325\n      tag_240\n      jump\t// in\n    tag_325:\n        /* \"#utility.yul\":5979:6014   */\n    tag_324:\n        /* \"#utility.yul\":6036:6037   */\n      dup3\n        /* \"#utility.yul\":6033:6034   */\n      dup3\n        /* \"#utility.yul\":6029:6038   */\n      div\n        /* \"#utility.yul\":6024:6038   */\n      swap1\n      pop\n        /* \"#utility.yul\":5859:6044   */\n      swap3\n      swap2\n      pop\n      pop\n      jump\t// out\n        /* \"#utility.yul\":6050:6492   */\n    tag_74:\n        /* \"#utility.yul\":6199:6203   */\n      0x00\n        /* \"#utility.yul\":6237:6239   */\n      0x60\n        /* \"#utility.yul\":6226:6235   */\n      dup3\n        /* \"#utility.yul\":6222:6240   */\n      add\n        /* \"#utility.yul\":6214:6240   */\n      swap1\n      pop\n        /* \"#utility.yul\":6250:6321   */\n      tag_327\n        /* \"#utility.yul\":6318:6319   */\n      0x00\n        /* \"#utility.yul\":6307:6316   */\n      dup4\n        /* \"#utility.yul\":6303:6320   */\n      add\n        /* \"#utility.yul\":6294:6300   */\n      dup7\n        /* \"#utility.yul\":6250:6321   */\n      tag_233\n      jump\t// in\n    tag_327:\n        /* \"#utility.yul\":6331:6403   */\n      tag_328\n        /* \"#utility.yul\":6399:6401   */\n      0x20\n        /* \"#utility.yul\":6388:6397   */\n      dup4\n        /* \"#utility.yul\":6384:6402   */\n      add\n        /* \"#utility.yul\":6375:6381   */\n      dup6\n        /* \"#utility.yul\":6331:6403   */\n      tag_233\n      jump\t// in\n    tag_328:\n        /* \"#utility.yul\":6413:6485   */\n      tag_329\n        /* \"#utility.yul\":6481:6483   */\n      0x40\n        /* \"#utility.yul\":6470:6479   */\n      dup4\n        /* \"#utility.yul\":6466:6484   */\n      add\n        /* \"#utility.yul\":6457:6463   */\n      dup5\n        /* \"#utility.yul\":6413:6485   */\n      tag_225\n      jump\t// in\n    tag_329:\n        /* \"#utility.yul\":6050:6492   */\n      swap5\n      swap4\n      pop\n      pop\n      pop\n      pop\n      jump\t// out\n        /* \"#utility.yul\":6498:6588   */\n    tag_241:\n        /* \"#utility.yul\":6532:6539   */\n      0x00\n        /* \"#utility.yul\":6575:6580   */\n      dup2\n        /* \"#utility.yul\":6568:6581   */\n      iszero\n        /* \"#utility.yul\":6561:6582   */\n      iszero\n        /* \"#utility.yul\":6550:6582   */\n      swap1\n      pop\n        /* \"#utility.yul\":6498:6588   */\n      swap2\n      swap1\n      pop\n      jump\t// out\n        /* \"#utility.yul\":6594:6710   */\n    tag_242:\n        /* \"#utility.yul\":6664:6685   */\n      tag_332\n        /* \"#utility.yul\":6679:6684   */\n      dup2\n        /* \"#utility.yul\":6664:6685   */\n      tag_241\n      jump\t// in\n    tag_332:\n        /* \"#utility.yul\":6657:6662   */\n      dup2\n        /* \"#utility.yul\":6654:6686   */\n      eq\n        /* \"#utility.yul\":6644:6704   */\n      tag_333\n      jumpi\n        /* \"#utility.yul\":6700:6701   */\n      0x00\n        /* \"#utility.yul\":6697:6698   */\n      dup1\n        /* \"#utility.yul\":6690:6702   */\n      revert\n        /* \"#utility.yul\":6644:6704   */\n    tag_333:\n        /* \"#utility.yul\":6594:6710   */\n      pop\n      jump\t// out\n        /* \"#utility.yul\":6716:6853   */\n    tag_243:\n        /* \"#utility.yul\":6770:6775   */\n      0x00\n        /* \"#utility.yul\":6801:6807   */\n      dup2\n        /* \"#utility.yul\":6795:6808   */\n      mload\n        /* \"#utility.yul\":6786:6808   */\n      swap1\n      pop\n        /* \"#utility.yul\":6817:6847   */\n      tag_335\n        /* \"#utility.yul\":6841:6846   */\n      dup2\n        /* \"#utility.yul\":6817:6847   */\n      tag_242\n      jump\t// in\n    tag_335:\n        /* \"#utility.yul\":6716:6853   */\n      swap3\n      swap2\n      pop\n      pop\n      jump\t// out\n        /* \"#utility.yul\":6859:7204   */\n    tag_78:\n        /* \"#utility.yul\":6926:6932   */\n      0x00\n        /* \"#utility.yul\":6975:6977   */\n      0x20\n        /* \"#utility.yul\":6963:6972   */\n      dup3\n        /* \"#utility.yul\":6954:6961   */\n      dup5\n        /* \"#utility.yul\":6950:6973   */\n      sub\n        /* \"#utility.yul\":6946:6978   */\n      slt\n        /* \"#utility.yul\":6943:7062   */\n      iszero\n      tag_337\n      jumpi\n        /* \"#utility.yul\":6981:7060   */\n      tag_338\n      tag_227\n      jump\t// in\n    tag_338:\n        /* \"#utility.yul\":6943:7062   */\n    tag_337:\n        /* \"#utility.yul\":7101:7102   */\n      0x00\n        /* \"#utility.yul\":7126:7187   */\n      tag_339\n        /* \"#utility.yul\":7179:7186   */\n      dup5\n        /* \"#utility.yul\":7170:7176   */\n      dup3\n        /* \"#utility.yul\":7159:7168   */\n      dup6\n        /* \"#utility.yul\":7155:7177   */\n      add\n        /* \"#utility.yul\":7126:7187   */\n      tag_243\n      jump\t// in\n    tag_339:\n        /* \"#utility.yul\":7116:7187   */\n      swap2\n      pop\n        /* \"#utility.yul\":7072:7197   */\n      pop\n        /* \"#utility.yul\":6859:7204   */\n      swap3\n      swap2\n      pop\n      pop\n      jump\t// out\n        /* \"#utility.yul\":7210:7385   */\n    tag_244:\n        /* \"#utility.yul\":7350:7377   */\n      0x6661696c656420746f207472616e7366657220746f6b656e3000000000000000\n        /* \"#utility.yul\":7346:7347   */\n      0x00\n        /* \"#utility.yul\":7338:7344   */\n      dup3\n        /* \"#utility.yul\":7334:7348   */\n      add\n        /* \"#utility.yul\":7327:7378   */\n      mstore\n        /* \"#utility.yul\":7210:7385   */\n      pop\n      jump\t// out\n        /* \"#utility.yul\":7391:7757   */\n    tag_245:\n        /* \"#utility.yul\":7533:7536   */\n      0x00\n        /* \"#utility.yul\":7554:7621   */\n      tag_342\n        /* \"#utility.yul\":7618:7620   */\n      0x19\n        /* \"#utility.yul\":7613:7616   */\n      dup4\n        /* \"#utility.yul\":7554:7621   */\n      tag_236\n      jump\t// in\n    tag_342:\n        /* \"#utility.yul\":7547:7621   */\n      swap2\n      pop\n        /* \"#utility.yul\":7630:7723   */\n      tag_343\n        /* \"#utility.yul\":7719:7722   */\n      dup3\n        /* \"#utility.yul\":7630:7723   */\n      tag_244\n      jump\t// in\n    tag_343:\n        /* \"#utility.yul\":7748:7750   */\n      0x20\n        /* \"#utility.yul\":7743:7746   */\n      dup3\n        /* \"#utility.yul\":7739:7751   */\n      add\n        /* \"#utility.yul\":7732:7751   */\n      swap1\n      pop\n        /* \"#utility.yul\":7391:7757   */\n      swap2\n      swap1\n      pop\n      jump\t// out\n        /* \"#utility.yul\":7763:8182   */\n    tag_81:\n        /* \"#utility.yul\":7929:7933   */\n      0x00\n        /* \"#utility.yul\":7967:7969   */\n      0x20\n        /* \"#utility.yul\":7956:7965   */\n      dup3\n        /* \"#utility.yul\":7952:7970   */\n      add\n        /* \"#utility.yul\":7944:7970   */\n      swap1\n      pop\n        /* \"#utility.yul\":8016:8025   */\n      dup2\n        /* \"#utility.yul\":8010:8014   */\n      dup2\n        /* \"#utility.yul\":8006:8026   */\n      sub\n        /* \"#utility.yul\":8002:8003   */\n      0x00\n        /* \"#utility.yul\":7991:8000   */\n      dup4\n        /* \"#utility.yul\":7987:8004   */\n      add\n        /* \"#utility.yul\":7980:8027   */\n      mstore\n        /* \"#utility.yul\":8044:8175   */\n      tag_345\n        /* \"#utility.yul\":8170:8174   */\n      dup2\n        /* \"#utility.yul\":8044:8175   */\n      tag_245\n      jump\t// in\n    tag_345:\n        /* \"#utility.yul\":8036:8175   */\n      swap1\n      pop\n        /* \"#utility.yul\":7763:8182   */\n      swap2\n      swap1\n      pop\n      jump\t// out\n        /* \"#utility.yul\":8188:8520   */\n    tag_83:\n        /* \"#utility.yul\":8309:8313   */\n      0x00\n        /* \"#utility.yul\":8347:8349   */\n      0x40\n        /* \"#utility.yul\":8336:8345   */\n      dup3\n        /* \"#utility.yul\":8332:8350   */\n      add\n        /* \"#utility.yul\":8324:8350   */\n      swap1\n      pop\n        /* \"#utility.yul\":8360:8431   */\n      tag_347\n        /* \"#utility.yul\":8428:8429   */\n      0x00\n        /* \"#utility.yul\":8417:8426   */\n      dup4\n        /* \"#utility.yul\":8413:8430   */\n      add\n        /* \"#utility.yul\":8404:8410   */\n      dup6\n        /* \"#utility.yul\":8360:8431   */\n      tag_233\n      jump\t// in\n    tag_347:\n        /* \"#utility.yul\":8441:8513   */\n      tag_348\n        /* \"#utility.yul\":8509:8511   */\n      0x20\n        /* \"#utility.yul\":8498:8507   */\n      dup4\n        /* \"#utility.yul\":8494:8512   */\n      add\n        /* \"#utility.yul\":8485:8491   */\n      dup5\n        /* \"#utility.yul\":8441:8513   */\n      tag_225\n      jump\t// in\n    tag_348:\n        /* \"#utility.yul\":8188:8520   */\n      swap4\n      swap3\n      pop\n      pop\n      pop\n      jump\t// out\n        /* \"#utility.yul\":8526:8701   */\n    tag_246:\n        /* \"#utility.yul\":8666:8693   */\n      0x6661696c656420746f207472616e7366657220746f6b656e3100000000000000\n        /* \"#utility.yul\":8662:8663   */\n      0x00\n        /* \"#utility.yul\":8654:8660   */\n      dup3\n        /* \"#utility.yul\":8650:8664   */\n      add\n        /* \"#utility.yul\":8643:8694   */\n      mstore\n        /* \"#utility.yul\":8526:8701   */\n      pop\n      jump\t// out\n        /* \"#utility.yul\":8707:9073   */\n    tag_247:\n        /* \"#utility.yul\":8849:8852   */\n      0x00\n        /* \"#utility.yul\":8870:8937   */\n      tag_351\n        /* \"#utility.yul\":8934:8936   */\n      0x19\n        /* \"#utility.yul\":8929:8932   */\n      dup4\n        /* \"#utility.yul\":8870:8937   */\n      tag_236\n      jump\t// in\n    tag_351:\n        /* \"#utility.yul\":8863:8937   */\n      swap2\n      pop\n        /* \"#utility.yul\":8946:9039   */\n      tag_352\n        /* \"#utility.yul\":9035:9038   */\n      dup3\n        /* \"#utility.yul\":8946:9039   */\n      tag_246\n      jump\t// in\n    tag_352:\n        /* \"#utility.yul\":9064:9066   */\n      0x20\n        /* \"#utility.yul\":9059:9062   */\n      dup3\n        /* \"#utility.yul\":9055:9067   */\n      add\n        /* \"#utility.yul\":9048:9067   */\n      swap1\n      pop\n        /* \"#utility.yul\":8707:9073   */\n      swap2\n      swap1\n      pop\n      jump\t// out\n        /* \"#utility.yul\":9079:9498   */\n    tag_89:\n        /* \"#utility.yul\":9245:9249   */\n      0x00\n        /* \"#utility.yul\":9283:9285   */\n      0x20\n        /* \"#utility.yul\":9272:9281   */\n      dup3\n        /* \"#utility.yul\":9268:9286   */\n      add\n        /* \"#utility.yul\":9260:9286   */\n      swap1\n      pop\n        /* \"#utility.yul\":9332:9341   */\n      dup2\n        /* \"#utility.yul\":9326:9330   */\n      dup2\n        /* \"#utility.yul\":9322:9342   */\n      sub\n        /* \"#utility.yul\":9318:9319   */\n      0x00\n        /* \"#utility.yul\":9307:9316   */\n      dup4\n        /* \"#utility.yul\":9303:9320   */\n      add\n        /* \"#utility.yul\":9296:9343   */\n      mstore\n        /* \"#utility.yul\":9360:9491   */\n      tag_354\n        /* \"#utility.yul\":9486:9490   */\n      dup2\n        /* \"#utility.yul\":9360:9491   */\n      tag_247\n      jump\t// in\n    tag_354:\n        /* \"#utility.yul\":9352:9491   */\n      swap1\n      pop\n        /* \"#utility.yul\":9079:9498   */\n      swap2\n      swap1\n      pop\n      jump\t// out\n        /* \"#utility.yul\":9504:9698   */\n    tag_92:\n        /* \"#utility.yul\":9544:9548   */\n      0x00\n        /* \"#utility.yul\":9564:9584   */\n      tag_356\n        /* \"#utility.yul\":9582:9583   */\n      dup3\n        /* \"#utility.yul\":9564:9584   */\n      tag_224\n      jump\t// in\n    tag_356:\n        /* \"#utility.yul\":9559:9584   */\n      swap2\n      pop\n        /* \"#utility.yul\":9598:9618   */\n      tag_357\n        /* \"#utility.yul\":9616:9617   */\n      dup4\n        /* \"#utility.yul\":9598:9618   */\n      tag_224\n      jump\t// in\n    tag_357:\n        /* \"#utility.yul\":9593:9618   */\n      swap3\n      pop\n        /* \"#utility.yul\":9642:9643   */\n      dup3\n        /* \"#utility.yul\":9639:9640   */\n      dup3\n        /* \"#utility.yul\":9635:9644   */\n      sub\n        /* \"#utility.yul\":9627:9644   */\n      swap1\n      pop\n        /* \"#utility.yul\":9666:9667   */\n      dup2\n        /* \"#utility.yul\":9660:9664   */\n      dup2\n        /* \"#utility.yul\":9657:9668   */\n      gt\n        /* \"#utility.yul\":9654:9691   */\n      iszero\n      tag_358\n      jumpi\n        /* \"#utility.yul\":9671:9689   */\n      tag_359\n      tag_239\n      jump\t// in\n    tag_359:\n        /* \"#utility.yul\":9654:9691   */\n    tag_358:\n        /* \"#utility.yul\":9504:9698   */\n      swap3\n      swap2\n      pop\n      pop\n      jump\t// out\n        /* \"#utility.yul\":9704:9873   */\n    tag_248:\n        /* \"#utility.yul\":9844:9865   */\n      0x706f6f6c206e6f7420696e6974696c697a656400000000000000000000000000\n        /* \"#utility.yul\":9840:9841   */\n      0x00\n        /* \"#utility.yul\":9832:9838   */\n      dup3\n        /* \"#utility.yul\":9828:9842   */\n      add\n        /* \"#utility.yul\":9821:9866   */\n      mstore\n        /* \"#utility.yul\":9704:9873   */\n      pop\n      jump\t// out\n        /* \"#utility.yul\":9879:10245   */\n    tag_249:\n        /* \"#utility.yul\":10021:10024   */\n      0x00\n        /* \"#utility.yul\":10042:10109   */\n      tag_362\n        /* \"#utility.yul\":10106:10108   */\n      0x13\n        /* \"#utility.yul\":10101:10104   */\n      dup4\n        /* \"#utility.yul\":10042:10109   */\n      tag_236\n      jump\t// in\n    tag_362:\n        /* \"#utility.yul\":10035:10109   */\n      swap2\n      pop\n        /* \"#utility.yul\":10118:10211   */\n      tag_363\n        /* \"#utility.yul\":10207:10210   */\n      dup3\n        /* \"#utility.yul\":10118:10211   */\n      tag_248\n      jump\t// in\n    tag_363:\n        /* \"#utility.yul\":10236:10238   */\n      0x20\n        /* \"#utility.yul\":10231:10234   */\n      dup3\n        /* \"#utility.yul\":10227:10239   */\n      add\n        /* \"#utility.yul\":10220:10239   */\n      swap1\n      pop\n        /* \"#utility.yul\":9879:10245   */\n      swap2\n      swap1\n      pop\n      jump\t// out\n        /* \"#utility.yul\":10251:10670   */\n    tag_97:\n        /* \"#utility.yul\":10417:10421   */\n      0x00\n        /* \"#utility.yul\":10455:10457   */\n      0x20\n        /* \"#utility.yul\":10444:10453   */\n      dup3\n        /* \"#utility.yul\":10440:10458   */\n      add\n        /* \"#utility.yul\":10432:10458   */\n      swap1\n      pop\n        /* \"#utility.yul\":10504:10513   */\n      dup2\n        /* \"#utility.yul\":10498:10502   */\n      dup2\n        /* \"#utility.yul\":10494:10514   */\n      sub\n        /* \"#utility.yul\":10490:10491   */\n      0x00\n        /* \"#utility.yul\":10479:10488   */\n      dup4\n        /* \"#utility.yul\":10475:10492   */\n      add\n        /* \"#utility.yul\":10468:10515   */\n      mstore\n        /* \"#utility.yul\":10532:10663   */\n      tag_365\n        /* \"#utility.yul\":10658:10662   */\n      dup2\n        /* \"#utility.yul\":10532:10663   */\n      tag_249\n      jump\t// in\n    tag_365:\n        /* \"#utility.yul\":10524:10663   */\n      swap1\n      pop\n        /* \"#utility.yul\":10251:10670   */\n      swap2\n      swap1\n      pop\n      jump\t// out\n        /* \"#utility.yul\":10676:10854   */\n    tag_250:\n        /* \"#utility.yul\":10816:10846   */\n      0x6e6f7420656e6f75676820736861726520746f20776974686472617700000000\n        /* \"#utility.yul\":10812:10813   */\n      0x00\n        /* \"#utility.yul\":10804:10810   */\n      dup3\n        /* \"#utility.yul\":10800:10814   */\n      add\n        /* \"#utility.yul\":10793:10847   */\n      mstore\n        /* \"#utility.yul\":10676:10854   */\n      pop\n      jump\t// out\n        /* \"#utility.yul\":10860:11226   */\n    tag_251:\n        /* \"#utility.yul\":11002:11005   */\n      0x00\n        /* \"#utility.yul\":11023:11090   */\n      tag_368\n        /* \"#utility.yul\":11087:11089   */\n      0x1c\n        /* \"#utility.yul\":11082:11085   */\n      dup4\n        /* \"#utility.yul\":11023:11090   */\n      tag_236\n      jump\t// in\n    tag_368:\n        /* \"#utility.yul\":11016:11090   */\n      swap2\n      pop\n        /* \"#utility.yul\":11099:11192   */\n      tag_369\n        /* \"#utility.yul\":11188:11191   */\n      dup3\n        /* \"#utility.yul\":11099:11192   */\n      tag_250\n      jump\t// in\n    tag_369:\n        /* \"#utility.yul\":11217:11219   */\n      0x20\n        /* \"#utility.yul\":11212:11215   */\n      dup3\n        /* \"#utility.yul\":11208:11220   */\n      add\n        /* \"#utility.yul\":11201:11220   */\n      swap1\n      pop\n        /* \"#utility.yul\":10860:11226   */\n      swap2\n      swap1\n      pop\n      jump\t// out\n        /* \"#utility.yul\":11232:11651   */\n    tag_128:\n        /* \"#utility.yul\":11398:11402   */\n      0x00\n        /* \"#utility.yul\":11436:11438   */\n      0x20\n        /* \"#utility.yul\":11425:11434   */\n      dup3\n        /* \"#utility.yul\":11421:11439   */\n      add\n        /* \"#utility.yul\":11413:11439   */\n      swap1\n      pop\n        /* \"#utility.yul\":11485:11494   */\n      dup2\n        /* \"#utility.yul\":11479:11483   */\n      dup2\n        /* \"#utility.yul\":11475:11495   */\n      sub\n        /* \"#utility.yul\":11471:11472   */\n      0x00\n        /* \"#utility.yul\":11460:11469   */\n      dup4\n        /* \"#utility.yul\":11456:11473   */\n      add\n        /* \"#utility.yul\":11449:11496   */\n      mstore\n        /* \"#utility.yul\":11513:11644   */\n      tag_371\n        /* \"#utility.yul\":11639:11643   */\n      dup2\n        /* \"#utility.yul\":11513:11644   */\n      tag_251\n      jump\t// in\n    tag_371:\n        /* \"#utility.yul\":11505:11644   */\n      swap1\n      pop\n        /* \"#utility.yul\":11232:11651   */\n      swap2\n      swap1\n      pop\n      jump\t// out\n        /* \"#utility.yul\":11657:11835   */\n    tag_252:\n        /* \"#utility.yul\":11797:11827   */\n      0x696e6974202d20616c726561647920686173206c697175696469747900000000\n        /* \"#utility.yul\":11793:11794   */\n      0x00\n        /* \"#utility.yul\":11785:11791   */\n      dup3\n        /* \"#utility.yul\":11781:11795   */\n      add\n        /* \"#utility.yul\":11774:11828   */\n      mstore\n        /* \"#utility.yul\":11657:11835   */\n      pop\n      jump\t// out\n        /* \"#utility.yul\":11841:12207   */\n    tag_253:\n        /* \"#utility.yul\":11983:11986   */\n      0x00\n        /* \"#utility.yul\":12004:12071   */\n      tag_374\n        /* \"#utility.yul\":12068:12070   */\n      0x1c\n        /* \"#utility.yul\":12063:12066   */\n      dup4\n        /* \"#utility.yul\":12004:12071   */\n      tag_236\n      jump\t// in\n    tag_374:\n        /* \"#utility.yul\":11997:12071   */\n      swap2\n      pop\n        /* \"#utility.yul\":12080:12173   */\n      tag_375\n        /* \"#utility.yul\":12169:12172   */\n      dup3\n        /* \"#utility.yul\":12080:12173   */\n      tag_252\n      jump\t// in\n    tag_375:\n        /* \"#utility.yul\":12198:12200   */\n      0x20\n        /* \"#utility.yul\":12193:12196   */\n      dup3\n        /* \"#utility.yul\":12189:12201   */\n      add\n        /* \"#utility.yul\":12182:12201   */\n      swap1\n      pop\n        /* \"#utility.yul\":11841:12207   */\n      swap2\n      swap1\n      pop\n      jump\t// out\n        /* \"#utility.yul\":12213:12632   */\n    tag_155:\n        /* \"#utility.yul\":12379:12383   */\n      0x00\n        /* \"#utility.yul\":12417:12419   */\n      0x20\n        /* \"#utility.yul\":12406:12415   */\n      dup3\n        /* \"#utility.yul\":12402:12420   */\n      add\n        /* \"#utility.yul\":12394:12420   */\n      swap1\n      pop\n        /* \"#utility.yul\":12466:12475   */\n      dup2\n        /* \"#utility.yul\":12460:12464   */\n      dup2\n        /* \"#utility.yul\":12456:12476   */\n      sub\n        /* \"#utility.yul\":12452:12453   */\n      0x00\n        /* \"#utility.yul\":12441:12450   */\n      dup4\n        /* \"#utility.yul\":12437:12454   */\n      add\n        /* \"#utility.yul\":12430:12477   */\n      mstore\n        /* \"#utility.yul\":12494:12625   */\n      tag_377\n        /* \"#utility.yul\":12620:12624   */\n      dup2\n        /* \"#utility.yul\":12494:12625   */\n      tag_253\n      jump\t// in\n    tag_377:\n        /* \"#utility.yul\":12486:12625   */\n      swap1\n      pop\n        /* \"#utility.yul\":12213:12632   */\n      swap2\n      swap1\n      pop\n      jump\t// out\n        /* \"#utility.yul\":12638:12817   */\n    tag_254:\n        /* \"#utility.yul\":12778:12809   */\n      0x696e6974202d20626f746820746f6b656e7320617265206e6565646564000000\n        /* \"#utility.yul\":12774:12775   */\n      0x00\n        /* \"#utility.yul\":12766:12772   */\n      dup3\n        /* \"#utility.yul\":12762:12776   */\n      add\n        /* \"#utility.yul\":12755:12810   */\n      mstore\n        /* \"#utility.yul\":12638:12817   */\n      pop\n      jump\t// out\n        /* \"#utility.yul\":12823:13189   */\n    tag_255:\n        /* \"#utility.yul\":12965:12968   */\n      0x00\n        /* \"#utility.yul\":12986:13053   */\n      tag_380\n        /* \"#utility.yul\":13050:13052   */\n      0x1d\n        /* \"#utility.yul\":13045:13048   */\n      dup4\n        /* \"#utility.yul\":12986:13053   */\n      tag_236\n      jump\t// in\n    tag_380:\n        /* \"#utility.yul\":12979:13053   */\n      swap2\n      pop\n        /* \"#utility.yul\":13062:13155   */\n      tag_381\n        /* \"#utility.yul\":13151:13154   */\n      dup3\n        /* \"#utility.yul\":13062:13155   */\n      tag_254\n      jump\t// in\n    tag_381:\n        /* \"#utility.yul\":13180:13182   */\n      0x20\n        /* \"#utility.yul\":13175:13178   */\n      dup3\n        /* \"#utility.yul\":13171:13183   */\n      add\n        /* \"#utility.yul\":13164:13183   */\n      swap1\n      pop\n        /* \"#utility.yul\":12823:13189   */\n      swap2\n      swap1\n      pop\n      jump\t// out\n        /* \"#utility.yul\":13195:13614   */\n    tag_159:\n        /* \"#utility.yul\":13361:13365   */\n      0x00\n        /* \"#utility.yul\":13399:13401   */\n      0x20\n        /* \"#utility.yul\":13388:13397   */\n      dup3\n        /* \"#utility.yul\":13384:13402   */\n      add\n        /* \"#utility.yul\":13376:13402   */\n      swap1\n      pop\n        /* \"#utility.yul\":13448:13457   */\n      dup2\n        /* \"#utility.yul\":13442:13446   */\n      dup2\n        /* \"#utility.yul\":13438:13458   */\n      sub\n        /* \"#utility.yul\":13434:13435   */\n      0x00\n        /* \"#utility.yul\":13423:13432   */\n      dup4\n        /* \"#utility.yul\":13419:13436   */\n      add\n        /* \"#utility.yul\":13412:13459   */\n      mstore\n        /* \"#utility.yul\":13476:13607   */\n      tag_383\n        /* \"#utility.yul\":13602:13606   */\n      dup2\n        /* \"#utility.yul\":13476:13607   */\n      tag_255\n      jump\t// in\n    tag_383:\n        /* \"#utility.yul\":13468:13607   */\n      swap1\n      pop\n        /* \"#utility.yul\":13195:13614   */\n      swap2\n      swap1\n      pop\n      jump\t// out\n\n    auxdata: 0xa2646970667358221220862114873122a9cbab9e2ff4adaae3d7ee9d2174e1a94f4578dec5692a2aca2464736f6c63430008180033\n}\n",
				"bytecode": {
					"linkReferences": {},
					"object": "608060405234801562000010575f80fd5b5060405162001c5038038062001c5083398181016040528101906200003691906200026a565b335f73ffffffffffffffffffffffffffffffffffffffff168173ffffffffffffffffffffffffffffffffffffffff1603620000aa575f6040517f1e4fbdf7000000000000000000000000000000000000000000000000000000008152600401620000a19190620002c0565b60405180910390fd5b620000bb816200014460201b60201c565b508160015f6101000a81548173ffffffffffffffffffffffffffffffffffffffff021916908373ffffffffffffffffffffffffffffffffffffffff1602179055508060025f6101000a81548173ffffffffffffffffffffffffffffffffffffffff021916908373ffffffffffffffffffffffffffffffffffffffff1602179055505050620002db565b5f805f9054906101000a900473ffffffffffffffffffffffffffffffffffffffff169050815f806101000a81548173ffffffffffffffffffffffffffffffffffffffff021916908373ffffffffffffffffffffffffffffffffffffffff1602179055508173ffffffffffffffffffffffffffffffffffffffff168173ffffffffffffffffffffffffffffffffffffffff167f8be0079c531659141344cd1fd0a4f28419497f9722a3daafe3b4186f6b6457e060405160405180910390a35050565b5f80fd5b5f73ffffffffffffffffffffffffffffffffffffffff82169050919050565b5f620002348262000209565b9050919050565b620002468162000228565b811462000251575f80fd5b50565b5f8151905062000264816200023b565b92915050565b5f806040838503121562000283576200028262000205565b5b5f620002928582860162000254565b9250506020620002a58582860162000254565b9150509250929050565b620002ba8162000228565b82525050565b5f602082019050620002d55f830184620002af565b92915050565b61196780620002e95f395ff3fe608060405234801561000f575f80fd5b50600436106100b2575f3560e01c80639c8f9f231161006f5780639c8f9f2314610153578063a5843f081461016f578063aa6ca8081461018b578063ad3bd45c146101aa578063f04da65b146101c6578063f2fde38b146101f6576100b2565b80630902f1ac146100b657806326ef80c9146100d55780633a98ef39146100f157806351c6590a1461010f578063715018a61461012b5780638da5cb5b14610135575b5f80fd5b6100be610212565b6040516100cc9291906112b1565b60405180910390f35b6100ef60048036038101906100ea9190611306565b610222565b005b6100f96104a0565b6040516101069190611331565b60405180910390f35b61012960048036038101906101249190611306565b6104a6565b005b61013361078f565b005b61013d6107a2565b60405161014a9190611389565b60405180910390f35b61016d60048036038101906101689190611306565b6107c9565b005b610189600480360381019061018491906113a2565b610adb565b005b610193610d3d565b6040516101a19291906113e0565b60405180910390f35b6101c460048036038101906101bf9190611306565b610d8b565b005b6101e060048036038101906101db9190611431565b611009565b6040516101ed9190611331565b60405180910390f35b610210600480360381019061020b9190611431565b61104f565b005b5f80600354600454915091509091565b5f8111610264576040517f08c379a000000000000000000000000000000000000000000000000000000000815260040161025b906114b6565b60405180910390fd5b5f6103e5826102739190611501565b6103e86003546102839190611501565b61028d9190611542565b6103e56004548461029e9190611501565b6102a89190611501565b6102b291906115a2565b905060015f9054906101000a900473ffffffffffffffffffffffffffffffffffffffff1673ffffffffffffffffffffffffffffffffffffffff166323b872dd3330856040518463ffffffff1660e01b8152600401610312939291906115d2565b6020604051808303815f875af115801561032e573d5f803e3d5ffd5b505050506040513d601f19601f82011682018060405250810190610352919061163c565b610391576040517f08c379a0000000000000000000000000000000000000000000000000000000008152600401610388906116b1565b60405180910390fd5b60025f9054906101000a900473ffffffffffffffffffffffffffffffffffffffff1673ffffffffffffffffffffffffffffffffffffffff1663a9059cbb33836040518363ffffffff1660e01b81526004016103ed9291906116cf565b6020604051808303815f875af1158015610409573d5f803e3d5ffd5b505050506040513d601f19601f8201168201806040525081019061042d919061163c565b61046c576040517f08c379a000000000000000000000000000000000000000000000000000000000815260040161046390611740565b60405180910390fd5b8160035f82825461047d9190611542565b925050819055508060045f828254610495919061175e565b925050819055505050565b60065481565b5f600354141580156104ba57505f60045414155b6104f9576040517f08c379a00000000000000000000000000000000000000000000000000000000081526004016104f0906117db565b60405180910390fd5b5f6003546004548361050b9190611501565b61051591906115a2565b90505f600354836006546105299190611501565b61053391906115a2565b905060015f9054906101000a900473ffffffffffffffffffffffffffffffffffffffff1673ffffffffffffffffffffffffffffffffffffffff166323b872dd3330866040518463ffffffff1660e01b8152600401610593939291906115d2565b6020604051808303815f875af11580156105af573d5f803e3d5ffd5b505050506040513d601f19601f820116820180604052508101906105d3919061163c565b610612576040517f08c379a0000000000000000000000000000000000000000000000000000000008152600401610609906116b1565b60405180910390fd5b60025f9054906101000a900473ffffffffffffffffffffffffffffffffffffffff1673ffffffffffffffffffffffffffffffffffffffff166323b872dd3330856040518463ffffffff1660e01b8152600401610670939291906115d2565b6020604051808303815f875af115801561068c573d5f803e3d5ffd5b505050506040513d601f19601f820116820180604052508101906106b0919061163c565b6106ef576040517f08c379a00000000000000000000000000000000000000000000000000000000081526004016106e690611740565b60405180910390fd5b8260035f8282546107009190611542565b925050819055508160045f8282546107189190611542565b925050819055508060055f3373ffffffffffffffffffffffffffffffffffffffff1673ffffffffffffffffffffffffffffffffffffffff1681526020019081526020015f205f82825461076b9190611542565b925050819055508060065f8282546107839190611542565b92505081905550505050565b6107976110d3565b6107a05f61115a565b565b5f805f9054906101000a900473ffffffffffffffffffffffffffffffffffffffff16905090565b60055f3373ffffffffffffffffffffffffffffffffffffffff1673ffffffffffffffffffffffffffffffffffffffff1681526020019081526020015f2054811115610849576040517f08c379a000000000000000000000000000000000000000000000000000000000815260040161084090611843565b60405180910390fd5b5f6006548260035461085b9190611501565b61086591906115a2565b90505f600654836004546108799190611501565b61088391906115a2565b905060015f9054906101000a900473ffffffffffffffffffffffffffffffffffffffff1673ffffffffffffffffffffffffffffffffffffffff1663a9059cbb33846040518363ffffffff1660e01b81526004016108e19291906116cf565b6020604051808303815f875af11580156108fd573d5f803e3d5ffd5b505050506040513d601f19601f82011682018060405250810190610921919061163c565b610960576040517f08c379a0000000000000000000000000000000000000000000000000000000008152600401610957906116b1565b60405180910390fd5b60025f9054906101000a900473ffffffffffffffffffffffffffffffffffffffff1673ffffffffffffffffffffffffffffffffffffffff1663a9059cbb33836040518363ffffffff1660e01b81526004016109bc9291906116cf565b6020604051808303815f875af11580156109d8573d5f803e3d5ffd5b505050506040513d601f19601f820116820180604052508101906109fc919061163c565b610a3b576040517f08c379a0000000000000000000000000000000000000000000000000000000008152600401610a3290611740565b60405180910390fd5b8160035f828254610a4c919061175e565b925050819055508060045f828254610a64919061175e565b925050819055508260055f3373ffffffffffffffffffffffffffffffffffffffff1673ffffffffffffffffffffffffffffffffffffffff1681526020019081526020015f205f828254610ab7919061175e565b925050819055508260065f828254610acf919061175e565b92505081905550505050565b610ae36110d3565b5f600354148015610af557505f600454145b610b34576040517f08c379a0000000000000000000000000000000000000000000000000000000008152600401610b2b906118ab565b60405180910390fd5b5f82118015610b4257505f81115b610b81576040517f08c379a0000000000000000000000000000000000000000000000000000000008152600401610b7890611913565b60405180910390fd5b60015f9054906101000a900473ffffffffffffffffffffffffffffffffffffffff1673ffffffffffffffffffffffffffffffffffffffff166323b872dd3330856040518463ffffffff1660e01b8152600401610bdf939291906115d2565b6020604051808303815f875af1158015610bfb573d5f803e3d5ffd5b505050506040513d601f19601f82011682018060405250810190610c1f919061163c565b610c27575f80fd5b60025f9054906101000a900473ffffffffffffffffffffffffffffffffffffffff1673ffffffffffffffffffffffffffffffffffffffff166323b872dd3330846040518463ffffffff1660e01b8152600401610c85939291906115d2565b6020604051808303815f875af1158015610ca1573d5f803e3d5ffd5b505050506040513d601f19601f82011682018060405250810190610cc5919061163c565b610ccd575f80fd5b8160038190555080600481905550610cef8183610cea9190611501565b61121b565b60068190555060065460055f3373ffffffffffffffffffffffffffffffffffffffff1673ffffffffffffffffffffffffffffffffffffffff1681526020019081526020015f20819055505050565b5f8060015f9054906101000a900473ffffffffffffffffffffffffffffffffffffffff1660025f9054906101000a900473ffffffffffffffffffffffffffffffffffffffff16915091509091565b5f8111610dcd576040517f08c379a0000000000000000000000000000000000000000000000000000000008152600401610dc4906114b6565b60405180910390fd5b5f6103e582610ddc9190611501565b6103e8600454610dec9190611501565b610df69190611542565b6103e560035484610e079190611501565b610e119190611501565b610e1b91906115a2565b905060025f9054906101000a900473ffffffffffffffffffffffffffffffffffffffff1673ffffffffffffffffffffffffffffffffffffffff166323b872dd3330856040518463ffffffff1660e01b8152600401610e7b939291906115d2565b6020604051808303815f875af1158015610e97573d5f803e3d5ffd5b505050506040513d601f19601f82011682018060405250810190610ebb919061163c565b610efa576040517f08c379a0000000000000000000000000000000000000000000000000000000008152600401610ef190611740565b60405180910390fd5b60015f9054906101000a900473ffffffffffffffffffffffffffffffffffffffff1673ffffffffffffffffffffffffffffffffffffffff1663a9059cbb33836040518363ffffffff1660e01b8152600401610f569291906116cf565b6020604051808303815f875af1158015610f72573d5f803e3d5ffd5b505050506040513d601f19601f82011682018060405250810190610f96919061163c565b610fd5576040517f08c379a0000000000000000000000000000000000000000000000000000000008152600401610fcc906116b1565b60405180910390fd5b8060035f828254610fe6919061175e565b925050819055508160045f828254610ffe9190611542565b925050819055505050565b5f60055f8373ffffffffffffffffffffffffffffffffffffffff1673ffffffffffffffffffffffffffffffffffffffff1681526020019081526020015f20549050919050565b6110576110d3565b5f73ffffffffffffffffffffffffffffffffffffffff168173ffffffffffffffffffffffffffffffffffffffff16036110c7575f6040517f1e4fbdf70000000000000000000000000000000000000000000000000000000081526004016110be9190611389565b60405180910390fd5b6110d08161115a565b50565b6110db611292565b73ffffffffffffffffffffffffffffffffffffffff166110f96107a2565b73ffffffffffffffffffffffffffffffffffffffff16146111585761111c611292565b6040517f118cdaa700000000000000000000000000000000000000000000000000000000815260040161114f9190611389565b60405180910390fd5b565b5f805f9054906101000a900473ffffffffffffffffffffffffffffffffffffffff169050815f806101000a81548173ffffffffffffffffffffffffffffffffffffffff021916908373ffffffffffffffffffffffffffffffffffffffff1602179055508173ffffffffffffffffffffffffffffffffffffffff168173ffffffffffffffffffffffffffffffffffffffff167f8be0079c531659141344cd1fd0a4f28419497f9722a3daafe3b4186f6b6457e060405160405180910390a35050565b5f6003821115611280578190505f600160028461123891906115a2565b6112429190611542565b90505b8181101561127a57809150600281828561125f91906115a2565b6112699190611542565b61127391906115a2565b9050611245565b5061128d565b5f821461128c57600190505b5b919050565b5f33905090565b5f819050919050565b6112ab81611299565b82525050565b5f6040820190506112c45f8301856112a2565b6112d160208301846112a2565b9392505050565b5f80fd5b6112e581611299565b81146112ef575f80fd5b50565b5f81359050611300816112dc565b92915050565b5f6020828403121561131b5761131a6112d8565b5b5f611328848285016112f2565b91505092915050565b5f6020820190506113445f8301846112a2565b92915050565b5f73ffffffffffffffffffffffffffffffffffffffff82169050919050565b5f6113738261134a565b9050919050565b61138381611369565b82525050565b5f60208201905061139c5f83018461137a565b92915050565b5f80604083850312156113b8576113b76112d8565b5b5f6113c5858286016112f2565b92505060206113d6858286016112f2565b9150509250929050565b5f6040820190506113f35f83018561137a565b611400602083018461137a565b9392505050565b61141081611369565b811461141a575f80fd5b50565b5f8135905061142b81611407565b92915050565b5f60208284031215611446576114456112d8565b5b5f6114538482850161141d565b91505092915050565b5f82825260208201905092915050565b7f6e6f7420746f6b656e302070726f7669646564000000000000000000000000005f82015250565b5f6114a060138361145c565b91506114ab8261146c565b602082019050919050565b5f6020820190508181035f8301526114cd81611494565b9050919050565b7f4e487b71000000000000000000000000000000000000000000000000000000005f52601160045260245ffd5b5f61150b82611299565b915061151683611299565b925082820261152481611299565b9150828204841483151761153b5761153a6114d4565b5b5092915050565b5f61154c82611299565b915061155783611299565b925082820190508082111561156f5761156e6114d4565b5b92915050565b7f4e487b71000000000000000000000000000000000000000000000000000000005f52601260045260245ffd5b5f6115ac82611299565b91506115b783611299565b9250826115c7576115c6611575565b5b828204905092915050565b5f6060820190506115e55f83018661137a565b6115f2602083018561137a565b6115ff60408301846112a2565b949350505050565b5f8115159050919050565b61161b81611607565b8114611625575f80fd5b50565b5f8151905061163681611612565b92915050565b5f60208284031215611651576116506112d8565b5b5f61165e84828501611628565b91505092915050565b7f6661696c656420746f207472616e7366657220746f6b656e30000000000000005f82015250565b5f61169b60198361145c565b91506116a682611667565b602082019050919050565b5f6020820190508181035f8301526116c88161168f565b9050919050565b5f6040820190506116e25f83018561137a565b6116ef60208301846112a2565b9392505050565b7f6661696c656420746f207472616e7366657220746f6b656e31000000000000005f82015250565b5f61172a60198361145c565b9150611735826116f6565b602082019050919050565b5f6020820190508181035f8301526117578161171e565b9050919050565b5f61176882611299565b915061177383611299565b925082820390508181111561178b5761178a6114d4565b5b92915050565b7f706f6f6c206e6f7420696e6974696c697a6564000000000000000000000000005f82015250565b5f6117c560138361145c565b91506117d082611791565b602082019050919050565b5f6020820190508181035f8301526117f2816117b9565b9050919050565b7f6e6f7420656e6f75676820736861726520746f207769746864726177000000005f82015250565b5f61182d601c8361145c565b9150611838826117f9565b602082019050919050565b5f6020820190508181035f83015261185a81611821565b9050919050565b7f696e6974202d20616c726561647920686173206c6971756964697479000000005f82015250565b5f611895601c8361145c565b91506118a082611861565b602082019050919050565b5f6020820190508181035f8301526118c281611889565b9050919050565b7f696e6974202d20626f746820746f6b656e7320617265206e65656465640000005f82015250565b5f6118fd601d8361145c565b9150611908826118c9565b602082019050919050565b5f6020820190508181035f83015261192a816118f1565b905091905056fea2646970667358221220862114873122a9cbab9e2ff4adaae3d7ee9d2174e1a94f4578dec5692a2aca2464736f6c63430008180033",
					"opcodes": "PUSH1 0x80 PUSH1 0x40 MSTORE CALLVALUE DUP1 ISZERO PUSH3 0x10 JUMPI PUSH0 DUP1 REVERT JUMPDEST POP PUSH1 0x40 MLOAD PUSH3 0x1C50 CODESIZE SUB DUP1 PUSH3 0x1C50 DUP4 CODECOPY DUP2 DUP2 ADD PUSH1 0x40 MSTORE DUP2 ADD SWAP1 PUSH3 0x36 SWAP2 SWAP1 PUSH3 0x26A JUMP JUMPDEST CALLER PUSH0 PUSH20 0xFFFFFFFFFFFFFFFFFFFFFFFFFFFFFFFFFFFFFFFF AND DUP2 PUSH20 0xFFFFFFFFFFFFFFFFFFFFFFFFFFFFFFFFFFFFFFFF AND SUB PUSH3 0xAA JUMPI PUSH0 PUSH1 0x40 MLOAD PUSH32 0x1E4FBDF700000000000000000000000000000000000000000000000000000000 DUP2 MSTORE PUSH1 0x4 ADD PUSH3 0xA1 SWAP2 SWAP1 PUSH3 0x2C0 JUMP JUMPDEST PUSH1 0x40 MLOAD DUP1 SWAP2 SUB SWAP1 REVERT JUMPDEST PUSH3 0xBB DUP2 PUSH3 0x144 PUSH1 0x20 SHL PUSH1 0x20 SHR JUMP JUMPDEST POP DUP2 PUSH1 0x1 PUSH0 PUSH2 0x100 EXP DUP2 SLOAD DUP2 PUSH20 0xFFFFFFFFFFFFFFFFFFFFFFFFFFFFFFFFFFFFFFFF MUL NOT AND SWAP1 DUP4 PUSH20 0xFFFFFFFFFFFFFFFFFFFFFFFFFFFFFFFFFFFFFFFF AND MUL OR SWAP1 SSTORE POP DUP1 PUSH1 0x2 PUSH0 PUSH2 0x100 EXP DUP2 SLOAD DUP2 PUSH20 0xFFFFFFFFFFFFFFFFFFFFFFFFFFFFFFFFFFFFFFFF MUL NOT AND SWAP1 DUP4 PUSH20 0xFFFFFFFFFFFFFFFFFFFFFFFFFFFFFFFFFFFFFFFF AND MUL OR SWAP1 SSTORE POP POP POP PUSH3 0x2DB JUMP JUMPDEST PUSH0 DUP1 PUSH0 SWAP1 SLOAD SWAP1 PUSH2 0x100 EXP SWAP1 DIV PUSH20 0xFFFFFFFFFFFFFFFFFFFFFFFFFFFFFFFFFFFFFFFF AND SWAP1 POP DUP2 PUSH0 DUP1 PUSH2 0x100 EXP DUP2 SLOAD DUP2 PUSH20 0xFFFFFFFFFFFFFFFFFFFFFFFFFFFFFFFFFFFFFFFF MUL NOT AND SWAP1 DUP4 PUSH20 0xFFFFFFFFFFFFFFFFFFFFFFFFFFFFFFFFFFFFFFFF AND MUL OR SWAP1 SSTORE POP DUP2 PUSH20 0xFFFFFFFFFFFFFFFFFFFFFFFFFFFFFFFFFFFFFFFF AND DUP2 PUSH20 0xFFFFFFFFFFFFFFFFFFFFFFFFFFFFFFFFFFFFFFFF AND PUSH32 0x8BE0079C531659141344CD1FD0A4F28419497F9722A3DAAFE3B4186F6B6457E0 PUSH1 0x40 MLOAD PUSH1 0x40 MLOAD DUP1 SWAP2 SUB SWAP1 LOG3 POP POP JUMP JUMPDEST PUSH0 DUP1 REVERT JUMPDEST PUSH0 PUSH20 0xFFFFFFFFFFFFFFFFFFFFFFFFFFFFFFFFFFFFFFFF DUP3 AND SWAP1 POP SWAP2 SWAP1 POP JUMP JUMPDEST PUSH0 PUSH3 0x234 DUP3 PUSH3 0x209 JUMP JUMPDEST SWAP1 POP SWAP2 SWAP1 POP JUMP JUMPDEST PUSH3 0x246 DUP2 PUSH3 0x228 JUMP JUMPDEST DUP2 EQ PUSH3 0x251 JUMPI PUSH0 DUP1 REVERT JUMPDEST POP JUMP JUMPDEST PUSH0 DUP2 MLOAD SWAP1 POP PUSH3 0x264 DUP2 PUSH3 0x23B JUMP JUMPDEST SWAP3 SWAP2 POP POP JUMP JUMPDEST PUSH0 DUP1 PUSH1 0x40 DUP4 DUP6 SUB SLT ISZERO PUSH3 0x283 JUMPI PUSH3 0x282 PUSH3 0x205 JUMP JUMPDEST JUMPDEST PUSH0 PUSH3 0x292 DUP6 DUP3 DUP7 ADD PUSH3 0x254 JUMP JUMPDEST SWAP3 POP POP PUSH1 0x20 PUSH3 0x2A5 DUP6 DUP3 DUP7 ADD PUSH3 0x254 JUMP JUMPDEST SWAP2 POP POP SWAP3 POP SWAP3 SWAP1 POP JUMP JUMPDEST PUSH3 0x2BA DUP2 PUSH3 0x228 JUMP JUMPDEST DUP3 MSTORE POP POP JUMP JUMPDEST PUSH0 PUSH1 0x20 DUP3 ADD SWAP1 POP PUSH3 0x2D5 PUSH0 DUP4 ADD DUP5 PUSH3 0x2AF JUMP JUMPDEST SWAP3 SWAP2 POP POP JUMP JUMPDEST PUSH2 0x1967 DUP1 PUSH3 0x2E9 PUSH0 CODECOPY PUSH0 RETURN INVALID PUSH1 0x80 PUSH1 0x40 MSTORE CALLVALUE DUP1 ISZERO PUSH2 0xF JUMPI PUSH0 DUP1 REVERT JUMPDEST POP PUSH1 0x4 CALLDATASIZE LT PUSH2 0xB2 JUMPI PUSH0 CALLDATALOAD PUSH1 0xE0 SHR DUP1 PUSH4 0x9C8F9F23 GT PUSH2 0x6F JUMPI DUP1 PUSH4 0x9C8F9F23 EQ PUSH2 0x153 JUMPI DUP1 PUSH4 0xA5843F08 EQ PUSH2 0x16F JUMPI DUP1 PUSH4 0xAA6CA808 EQ PUSH2 0x18B JUMPI DUP1 PUSH4 0xAD3BD45C EQ PUSH2 0x1AA JUMPI DUP1 PUSH4 0xF04DA65B EQ PUSH2 0x1C6 JUMPI DUP1 PUSH4 0xF2FDE38B EQ PUSH2 0x1F6 JUMPI PUSH2 0xB2 JUMP JUMPDEST DUP1 PUSH4 0x902F1AC EQ PUSH2 0xB6 JUMPI DUP1 PUSH4 0x26EF80C9 EQ PUSH2 0xD5 JUMPI DUP1 PUSH4 0x3A98EF39 EQ PUSH2 0xF1 JUMPI DUP1 PUSH4 0x51C6590A EQ PUSH2 0x10F JUMPI DUP1 PUSH4 0x715018A6 EQ PUSH2 0x12B JUMPI DUP1 PUSH4 0x8DA5CB5B EQ PUSH2 0x135 JUMPI JUMPDEST PUSH0 DUP1 REVERT JUMPDEST PUSH2 0xBE PUSH2 0x212 JUMP JUMPDEST PUSH1 0x40 MLOAD PUSH2 0xCC SWAP3 SWAP2 SWAP1 PUSH2 0x12B1 JUMP JUMPDEST PUSH1 0x40 MLOAD DUP1 SWAP2 SUB SWAP1 RETURN JUMPDEST PUSH2 0xEF PUSH1 0x4 DUP1 CALLDATASIZE SUB DUP2 ADD SWAP1 PUSH2 0xEA SWAP2 SWAP1 PUSH2 0x1306 JUMP JUMPDEST PUSH2 0x222 JUMP JUMPDEST STOP JUMPDEST PUSH2 0xF9 PUSH2 0x4A0 JUMP JUMPDEST PUSH1 0x40 MLOAD PUSH2 0x106 SWAP2 SWAP1 PUSH2 0x1331 JUMP JUMPDEST PUSH1 0x40 MLOAD DUP1 SWAP2 SUB SWAP1 RETURN JUMPDEST PUSH2 0x129 PUSH1 0x4 DUP1 CALLDATASIZE SUB DUP2 ADD SWAP1 PUSH2 0x124 SWAP2 SWAP1 PUSH2 0x1306 JUMP JUMPDEST PUSH2 0x4A6 JUMP JUMPDEST STOP JUMPDEST PUSH2 0x133 PUSH2 0x78F JUMP JUMPDEST STOP JUMPDEST PUSH2 0x13D PUSH2 0x7A2 JUMP JUMPDEST PUSH1 0x40 MLOAD PUSH2 0x14A SWAP2 SWAP1 PUSH2 0x1389 JUMP JUMPDEST PUSH1 0x40 MLOAD DUP1 SWAP2 SUB SWAP1 RETURN JUMPDEST PUSH2 0x16D PUSH1 0x4 DUP1 CALLDATASIZE SUB DUP2 ADD SWAP1 PUSH2 0x168 SWAP2 SWAP1 PUSH2 0x1306 JUMP JUMPDEST PUSH2 0x7C9 JUMP JUMPDEST STOP JUMPDEST PUSH2 0x189 PUSH1 0x4 DUP1 CALLDATASIZE SUB DUP2 ADD SWAP1 PUSH2 0x184 SWAP2 SWAP1 PUSH2 0x13A2 JUMP JUMPDEST PUSH2 0xADB JUMP JUMPDEST STOP JUMPDEST PUSH2 0x193 PUSH2 0xD3D JUMP JUMPDEST PUSH1 0x40 MLOAD PUSH2 0x1A1 SWAP3 SWAP2 SWAP1 PUSH2 0x13E0 JUMP JUMPDEST PUSH1 0x40 MLOAD DUP1 SWAP2 SUB SWAP1 RETURN JUMPDEST PUSH2 0x1C4 PUSH1 0x4 DUP1 CALLDATASIZE SUB DUP2 ADD SWAP1 PUSH2 0x1BF SWAP2 SWAP1 PUSH2 0x1306 JUMP JUMPDEST PUSH2 0xD8B JUMP JUMPDEST STOP JUMPDEST PUSH2 0x1E0 PUSH1 0x4 DUP1 CALLDATASIZE SUB DUP2 ADD SWAP1 PUSH2 0x1DB SWAP2 SWAP1 PUSH2 0x1431 JUMP JUMPDEST PUSH2 0x1009 JUMP JUMPDEST PUSH1 0x40 MLOAD PUSH2 0x1ED SWAP2 SWAP1 PUSH2 0x1331 JUMP JUMPDEST PUSH1 0x40 MLOAD DUP1 SWAP2 SUB SWAP1 RETURN JUMPDEST PUSH2 0x210 PUSH1 0x4 DUP1 CALLDATASIZE SUB DUP2 ADD SWAP1 PUSH2 0x20B SWAP2 SWAP1 PUSH2 0x1431 JUMP JUMPDEST PUSH2 0x104F JUMP JUMPDEST STOP JUMPDEST PUSH0 DUP1 PUSH1 0x3 SLOAD PUSH1 0x4 SLOAD SWAP2 POP SWAP2 POP SWAP1 SWAP2 JUMP JUMPDEST PUSH0 DUP2 GT PUSH2 0x264 JUMPI PUSH1 0x40 MLOAD PUSH32 0x8C379A000000000000000000000000000000000000000000000000000000000 DUP2 MSTORE PUSH1 0x4 ADD PUSH2 0x25B SWAP1 PUSH2 0x14B6 JUMP JUMPDEST PUSH1 0x40 MLOAD DUP1 SWAP2 SUB SWAP1 REVERT JUMPDEST PUSH0 PUSH2 0x3E5 DUP3 PUSH2 0x273 SWAP2 SWAP1 PUSH2 0x1501 JUMP JUMPDEST PUSH2 0x3E8 PUSH1 0x3 SLOAD PUSH2 0x283 SWAP2 SWAP1 PUSH2 0x1501 JUMP JUMPDEST PUSH2 0x28D SWAP2 SWAP1 PUSH2 0x1542 JUMP JUMPDEST PUSH2 0x3E5 PUSH1 0x4 SLOAD DUP5 PUSH2 0x29E SWAP2 SWAP1 PUSH2 0x1501 JUMP JUMPDEST PUSH2 0x2A8 SWAP2 SWAP1 PUSH2 0x1501 JUMP JUMPDEST PUSH2 0x2B2 SWAP2 SWAP1 PUSH2 0x15A2 JUMP JUMPDEST SWAP1 POP PUSH1 0x1 PUSH0 SWAP1 SLOAD SWAP1 PUSH2 0x100 EXP SWAP1 DIV PUSH20 0xFFFFFFFFFFFFFFFFFFFFFFFFFFFFFFFFFFFFFFFF AND PUSH20 0xFFFFFFFFFFFFFFFFFFFFFFFFFFFFFFFFFFFFFFFF AND PUSH4 0x23B872DD CALLER ADDRESS DUP6 PUSH1 0x40 MLOAD DUP5 PUSH4 0xFFFFFFFF AND PUSH1 0xE0 SHL DUP2 MSTORE PUSH1 0x4 ADD PUSH2 0x312 SWAP4 SWAP3 SWAP2 SWAP1 PUSH2 0x15D2 JUMP JUMPDEST PUSH1 0x20 PUSH1 0x40 MLOAD DUP1 DUP4 SUB DUP2 PUSH0 DUP8 GAS CALL ISZERO DUP1 ISZERO PUSH2 0x32E JUMPI RETURNDATASIZE PUSH0 DUP1 RETURNDATACOPY RETURNDATASIZE PUSH0 REVERT JUMPDEST POP POP POP POP PUSH1 0x40 MLOAD RETURNDATASIZE PUSH1 0x1F NOT PUSH1 0x1F DUP3 ADD AND DUP3 ADD DUP1 PUSH1 0x40 MSTORE POP DUP2 ADD SWAP1 PUSH2 0x352 SWAP2 SWAP1 PUSH2 0x163C JUMP JUMPDEST PUSH2 0x391 JUMPI PUSH1 0x40 MLOAD PUSH32 0x8C379A000000000000000000000000000000000000000000000000000000000 DUP2 MSTORE PUSH1 0x4 ADD PUSH2 0x388 SWAP1 PUSH2 0x16B1 JUMP JUMPDEST PUSH1 0x40 MLOAD DUP1 SWAP2 SUB SWAP1 REVERT JUMPDEST PUSH1 0x2 PUSH0 SWAP1 SLOAD SWAP1 PUSH2 0x100 EXP SWAP1 DIV PUSH20 0xFFFFFFFFFFFFFFFFFFFFFFFFFFFFFFFFFFFFFFFF AND PUSH20 0xFFFFFFFFFFFFFFFFFFFFFFFFFFFFFFFFFFFFFFFF AND PUSH4 0xA9059CBB CALLER DUP4 PUSH1 0x40 MLOAD DUP4 PUSH4 0xFFFFFFFF AND PUSH1 0xE0 SHL DUP2 MSTORE PUSH1 0x4 ADD PUSH2 0x3ED SWAP3 SWAP2 SWAP1 PUSH2 0x16CF JUMP JUMPDEST PUSH1 0x20 PUSH1 0x40 MLOAD DUP1 DUP4 SUB DUP2 PUSH0 DUP8 GAS CALL ISZERO DUP1 ISZERO PUSH2 0x409 JUMPI RETURNDATASIZE PUSH0 DUP1 RETURNDATACOPY RETURNDATASIZE PUSH0 REVERT JUMPDEST POP POP POP POP PUSH1 0x40 MLOAD RETURNDATASIZE PUSH1 0x1F NOT PUSH1 0x1F DUP3 ADD AND DUP3 ADD DUP1 PUSH1 0x40 MSTORE POP DUP2 ADD SWAP1 PUSH2 0x42D SWAP2 SWAP1 PUSH2 0x163C JUMP JUMPDEST PUSH2 0x46C JUMPI PUSH1 0x40 MLOAD PUSH32 0x8C379A000000000000000000000000000000000000000000000000000000000 DUP2 MSTORE PUSH1 0x4 ADD PUSH2 0x463 SWAP1 PUSH2 0x1740 JUMP JUMPDEST PUSH1 0x40 MLOAD DUP1 SWAP2 SUB SWAP1 REVERT JUMPDEST DUP2 PUSH1 0x3 PUSH0 DUP3 DUP3 SLOAD PUSH2 0x47D SWAP2 SWAP1 PUSH2 0x1542 JUMP JUMPDEST SWAP3 POP POP DUP2 SWAP1 SSTORE POP DUP1 PUSH1 0x4 PUSH0 DUP3 DUP3 SLOAD PUSH2 0x495 SWAP2 SWAP1 PUSH2 0x175E JUMP JUMPDEST SWAP3 POP POP DUP2 SWAP1 SSTORE POP POP POP JUMP JUMPDEST PUSH1 0x6 SLOAD DUP2 JUMP JUMPDEST PUSH0 PUSH1 0x3 SLOAD EQ ISZERO DUP1 ISZERO PUSH2 0x4BA JUMPI POP PUSH0 PUSH1 0x4 SLOAD EQ ISZERO JUMPDEST PUSH2 0x4F9 JUMPI PUSH1 0x40 MLOAD PUSH32 0x8C379A000000000000000000000000000000000000000000000000000000000 DUP2 MSTORE PUSH1 0x4 ADD PUSH2 0x4F0 SWAP1 PUSH2 0x17DB JUMP JUMPDEST PUSH1 0x40 MLOAD DUP1 SWAP2 SUB SWAP1 REVERT JUMPDEST PUSH0 PUSH1 0x3 SLOAD PUSH1 0x4 SLOAD DUP4 PUSH2 0x50B SWAP2 SWAP1 PUSH2 0x1501 JUMP JUMPDEST PUSH2 0x515 SWAP2 SWAP1 PUSH2 0x15A2 JUMP JUMPDEST SWAP1 POP PUSH0 PUSH1 0x3 SLOAD DUP4 PUSH1 0x6 SLOAD PUSH2 0x529 SWAP2 SWAP1 PUSH2 0x1501 JUMP JUMPDEST PUSH2 0x533 SWAP2 SWAP1 PUSH2 0x15A2 JUMP JUMPDEST SWAP1 POP PUSH1 0x1 PUSH0 SWAP1 SLOAD SWAP1 PUSH2 0x100 EXP SWAP1 DIV PUSH20 0xFFFFFFFFFFFFFFFFFFFFFFFFFFFFFFFFFFFFFFFF AND PUSH20 0xFFFFFFFFFFFFFFFFFFFFFFFFFFFFFFFFFFFFFFFF AND PUSH4 0x23B872DD CALLER ADDRESS DUP7 PUSH1 0x40 MLOAD DUP5 PUSH4 0xFFFFFFFF AND PUSH1 0xE0 SHL DUP2 MSTORE PUSH1 0x4 ADD PUSH2 0x593 SWAP4 SWAP3 SWAP2 SWAP1 PUSH2 0x15D2 JUMP JUMPDEST PUSH1 0x20 PUSH1 0x40 MLOAD DUP1 DUP4 SUB DUP2 PUSH0 DUP8 GAS CALL ISZERO DUP1 ISZERO PUSH2 0x5AF JUMPI RETURNDATASIZE PUSH0 DUP1 RETURNDATACOPY RETURNDATASIZE PUSH0 REVERT JUMPDEST POP POP POP POP PUSH1 0x40 MLOAD RETURNDATASIZE PUSH1 0x1F NOT PUSH1 0x1F DUP3 ADD AND DUP3 ADD DUP1 PUSH1 0x40 MSTORE POP DUP2 ADD SWAP1 PUSH2 0x5D3 SWAP2 SWAP1 PUSH2 0x163C JUMP JUMPDEST PUSH2 0x612 JUMPI PUSH1 0x40 MLOAD PUSH32 0x8C379A000000000000000000000000000000000000000000000000000000000 DUP2 MSTORE PUSH1 0x4 ADD PUSH2 0x609 SWAP1 PUSH2 0x16B1 JUMP JUMPDEST PUSH1 0x40 MLOAD DUP1 SWAP2 SUB SWAP1 REVERT JUMPDEST PUSH1 0x2 PUSH0 SWAP1 SLOAD SWAP1 PUSH2 0x100 EXP SWAP1 DIV PUSH20 0xFFFFFFFFFFFFFFFFFFFFFFFFFFFFFFFFFFFFFFFF AND PUSH20 0xFFFFFFFFFFFFFFFFFFFFFFFFFFFFFFFFFFFFFFFF AND PUSH4 0x23B872DD CALLER ADDRESS DUP6 PUSH1 0x40 MLOAD DUP5 PUSH4 0xFFFFFFFF AND PUSH1 0xE0 SHL DUP2 MSTORE PUSH1 0x4 ADD PUSH2 0x670 SWAP4 SWAP3 SWAP2 SWAP1 PUSH2 0x15D2 JUMP JUMPDEST PUSH1 0x20 PUSH1 0x40 MLOAD DUP1 DUP4 SUB DUP2 PUSH0 DUP8 GAS CALL ISZERO DUP1 ISZERO PUSH2 0x68C JUMPI RETURNDATASIZE PUSH0 DUP1 RETURNDATACOPY RETURNDATASIZE PUSH0 REVERT JUMPDEST POP POP POP POP PUSH1 0x40 MLOAD RETURNDATASIZE PUSH1 0x1F NOT PUSH1 0x1F DUP3 ADD AND DUP3 ADD DUP1 PUSH1 0x40 MSTORE POP DUP2 ADD SWAP1 PUSH2 0x6B0 SWAP2 SWAP1 PUSH2 0x163C JUMP JUMPDEST PUSH2 0x6EF JUMPI PUSH1 0x40 MLOAD PUSH32 0x8C379A000000000000000000000000000000000000000000000000000000000 DUP2 MSTORE PUSH1 0x4 ADD PUSH2 0x6E6 SWAP1 PUSH2 0x1740 JUMP JUMPDEST PUSH1 0x40 MLOAD DUP1 SWAP2 SUB SWAP1 REVERT JUMPDEST DUP3 PUSH1 0x3 PUSH0 DUP3 DUP3 SLOAD PUSH2 0x700 SWAP2 SWAP1 PUSH2 0x1542 JUMP JUMPDEST SWAP3 POP POP DUP2 SWAP1 SSTORE POP DUP2 PUSH1 0x4 PUSH0 DUP3 DUP3 SLOAD PUSH2 0x718 SWAP2 SWAP1 PUSH2 0x1542 JUMP JUMPDEST SWAP3 POP POP DUP2 SWAP1 SSTORE POP DUP1 PUSH1 0x5 PUSH0 CALLER PUSH20 0xFFFFFFFFFFFFFFFFFFFFFFFFFFFFFFFFFFFFFFFF AND PUSH20 0xFFFFFFFFFFFFFFFFFFFFFFFFFFFFFFFFFFFFFFFF AND DUP2 MSTORE PUSH1 0x20 ADD SWAP1 DUP2 MSTORE PUSH1 0x20 ADD PUSH0 KECCAK256 PUSH0 DUP3 DUP3 SLOAD PUSH2 0x76B SWAP2 SWAP1 PUSH2 0x1542 JUMP JUMPDEST SWAP3 POP POP DUP2 SWAP1 SSTORE POP DUP1 PUSH1 0x6 PUSH0 DUP3 DUP3 SLOAD PUSH2 0x783 SWAP2 SWAP1 PUSH2 0x1542 JUMP JUMPDEST SWAP3 POP POP DUP2 SWAP1 SSTORE POP POP POP POP JUMP JUMPDEST PUSH2 0x797 PUSH2 0x10D3 JUMP JUMPDEST PUSH2 0x7A0 PUSH0 PUSH2 0x115A JUMP JUMPDEST JUMP JUMPDEST PUSH0 DUP1 PUSH0 SWAP1 SLOAD SWAP1 PUSH2 0x100 EXP SWAP1 DIV PUSH20 0xFFFFFFFFFFFFFFFFFFFFFFFFFFFFFFFFFFFFFFFF AND SWAP1 POP SWAP1 JUMP JUMPDEST PUSH1 0x5 PUSH0 CALLER PUSH20 0xFFFFFFFFFFFFFFFFFFFFFFFFFFFFFFFFFFFFFFFF AND PUSH20 0xFFFFFFFFFFFFFFFFFFFFFFFFFFFFFFFFFFFFFFFF AND DUP2 MSTORE PUSH1 0x20 ADD SWAP1 DUP2 MSTORE PUSH1 0x20 ADD PUSH0 KECCAK256 SLOAD DUP2 GT ISZERO PUSH2 0x849 JUMPI PUSH1 0x40 MLOAD PUSH32 0x8C379A000000000000000000000000000000000000000000000000000000000 DUP2 MSTORE PUSH1 0x4 ADD PUSH2 0x840 SWAP1 PUSH2 0x1843 JUMP JUMPDEST PUSH1 0x40 MLOAD DUP1 SWAP2 SUB SWAP1 REVERT JUMPDEST PUSH0 PUSH1 0x6 SLOAD DUP3 PUSH1 0x3 SLOAD PUSH2 0x85B SWAP2 SWAP1 PUSH2 0x1501 JUMP JUMPDEST PUSH2 0x865 SWAP2 SWAP1 PUSH2 0x15A2 JUMP JUMPDEST SWAP1 POP PUSH0 PUSH1 0x6 SLOAD DUP4 PUSH1 0x4 SLOAD PUSH2 0x879 SWAP2 SWAP1 PUSH2 0x1501 JUMP JUMPDEST PUSH2 0x883 SWAP2 SWAP1 PUSH2 0x15A2 JUMP JUMPDEST SWAP1 POP PUSH1 0x1 PUSH0 SWAP1 SLOAD SWAP1 PUSH2 0x100 EXP SWAP1 DIV PUSH20 0xFFFFFFFFFFFFFFFFFFFFFFFFFFFFFFFFFFFFFFFF AND PUSH20 0xFFFFFFFFFFFFFFFFFFFFFFFFFFFFFFFFFFFFFFFF AND PUSH4 0xA9059CBB CALLER DUP5 PUSH1 0x40 MLOAD DUP4 PUSH4 0xFFFFFFFF AND PUSH1 0xE0 SHL DUP2 MSTORE PUSH1 0x4 ADD PUSH2 0x8E1 SWAP3 SWAP2 SWAP1 PUSH2 0x16CF JUMP JUMPDEST PUSH1 0x20 PUSH1 0x40 MLOAD DUP1 DUP4 SUB DUP2 PUSH0 DUP8 GAS CALL ISZERO DUP1 ISZERO PUSH2 0x8FD JUMPI RETURNDATASIZE PUSH0 DUP1 RETURNDATACOPY RETURNDATASIZE PUSH0 REVERT JUMPDEST POP POP POP POP PUSH1 0x40 MLOAD RETURNDATASIZE PUSH1 0x1F NOT PUSH1 0x1F DUP3 ADD AND DUP3 ADD DUP1 PUSH1 0x40 MSTORE POP DUP2 ADD SWAP1 PUSH2 0x921 SWAP2 SWAP1 PUSH2 0x163C JUMP JUMPDEST PUSH2 0x960 JUMPI PUSH1 0x40 MLOAD PUSH32 0x8C379A000000000000000000000000000000000000000000000000000000000 DUP2 MSTORE PUSH1 0x4 ADD PUSH2 0x957 SWAP1 PUSH2 0x16B1 JUMP JUMPDEST PUSH1 0x40 MLOAD DUP1 SWAP2 SUB SWAP1 REVERT JUMPDEST PUSH1 0x2 PUSH0 SWAP1 SLOAD SWAP1 PUSH2 0x100 EXP SWAP1 DIV PUSH20 0xFFFFFFFFFFFFFFFFFFFFFFFFFFFFFFFFFFFFFFFF AND PUSH20 0xFFFFFFFFFFFFFFFFFFFFFFFFFFFFFFFFFFFFFFFF AND PUSH4 0xA9059CBB CALLER DUP4 PUSH1 0x40 MLOAD DUP4 PUSH4 0xFFFFFFFF AND PUSH1 0xE0 SHL DUP2 MSTORE PUSH1 0x4 ADD PUSH2 0x9BC SWAP3 SWAP2 SWAP1 PUSH2 0x16CF JUMP JUMPDEST PUSH1 0x20 PUSH1 0x40 MLOAD DUP1 DUP4 SUB DUP2 PUSH0 DUP8 GAS CALL ISZERO DUP1 ISZERO PUSH2 0x9D8 JUMPI RETURNDATASIZE PUSH0 DUP1 RETURNDATACOPY RETURNDATASIZE PUSH0 REVERT JUMPDEST POP POP POP POP PUSH1 0x40 MLOAD RETURNDATASIZE PUSH1 0x1F NOT PUSH1 0x1F DUP3 ADD AND DUP3 ADD DUP1 PUSH1 0x40 MSTORE POP DUP2 ADD SWAP1 PUSH2 0x9FC SWAP2 SWAP1 PUSH2 0x163C JUMP JUMPDEST PUSH2 0xA3B JUMPI PUSH1 0x40 MLOAD PUSH32 0x8C379A000000000000000000000000000000000000000000000000000000000 DUP2 MSTORE PUSH1 0x4 ADD PUSH2 0xA32 SWAP1 PUSH2 0x1740 JUMP JUMPDEST PUSH1 0x40 MLOAD DUP1 SWAP2 SUB SWAP1 REVERT JUMPDEST DUP2 PUSH1 0x3 PUSH0 DUP3 DUP3 SLOAD PUSH2 0xA4C SWAP2 SWAP1 PUSH2 0x175E JUMP JUMPDEST SWAP3 POP POP DUP2 SWAP1 SSTORE POP DUP1 PUSH1 0x4 PUSH0 DUP3 DUP3 SLOAD PUSH2 0xA64 SWAP2 SWAP1 PUSH2 0x175E JUMP JUMPDEST SWAP3 POP POP DUP2 SWAP1 SSTORE POP DUP3 PUSH1 0x5 PUSH0 CALLER PUSH20 0xFFFFFFFFFFFFFFFFFFFFFFFFFFFFFFFFFFFFFFFF AND PUSH20 0xFFFFFFFFFFFFFFFFFFFFFFFFFFFFFFFFFFFFFFFF AND DUP2 MSTORE PUSH1 0x20 ADD SWAP1 DUP2 MSTORE PUSH1 0x20 ADD PUSH0 KECCAK256 PUSH0 DUP3 DUP3 SLOAD PUSH2 0xAB7 SWAP2 SWAP1 PUSH2 0x175E JUMP JUMPDEST SWAP3 POP POP DUP2 SWAP1 SSTORE POP DUP3 PUSH1 0x6 PUSH0 DUP3 DUP3 SLOAD PUSH2 0xACF SWAP2 SWAP1 PUSH2 0x175E JUMP JUMPDEST SWAP3 POP POP DUP2 SWAP1 SSTORE POP POP POP POP JUMP JUMPDEST PUSH2 0xAE3 PUSH2 0x10D3 JUMP JUMPDEST PUSH0 PUSH1 0x3 SLOAD EQ DUP1 ISZERO PUSH2 0xAF5 JUMPI POP PUSH0 PUSH1 0x4 SLOAD EQ JUMPDEST PUSH2 0xB34 JUMPI PUSH1 0x40 MLOAD PUSH32 0x8C379A000000000000000000000000000000000000000000000000000000000 DUP2 MSTORE PUSH1 0x4 ADD PUSH2 0xB2B SWAP1 PUSH2 0x18AB JUMP JUMPDEST PUSH1 0x40 MLOAD DUP1 SWAP2 SUB SWAP1 REVERT JUMPDEST PUSH0 DUP3 GT DUP1 ISZERO PUSH2 0xB42 JUMPI POP PUSH0 DUP2 GT JUMPDEST PUSH2 0xB81 JUMPI PUSH1 0x40 MLOAD PUSH32 0x8C379A000000000000000000000000000000000000000000000000000000000 DUP2 MSTORE PUSH1 0x4 ADD PUSH2 0xB78 SWAP1 PUSH2 0x1913 JUMP JUMPDEST PUSH1 0x40 MLOAD DUP1 SWAP2 SUB SWAP1 REVERT JUMPDEST PUSH1 0x1 PUSH0 SWAP1 SLOAD SWAP1 PUSH2 0x100 EXP SWAP1 DIV PUSH20 0xFFFFFFFFFFFFFFFFFFFFFFFFFFFFFFFFFFFFFFFF AND PUSH20 0xFFFFFFFFFFFFFFFFFFFFFFFFFFFFFFFFFFFFFFFF AND PUSH4 0x23B872DD CALLER ADDRESS DUP6 PUSH1 0x40 MLOAD DUP5 PUSH4 0xFFFFFFFF AND PUSH1 0xE0 SHL DUP2 MSTORE PUSH1 0x4 ADD PUSH2 0xBDF SWAP4 SWAP3 SWAP2 SWAP1 PUSH2 0x15D2 JUMP JUMPDEST PUSH1 0x20 PUSH1 0x40 MLOAD DUP1 DUP4 SUB DUP2 PUSH0 DUP8 GAS CALL ISZERO DUP1 ISZERO PUSH2 0xBFB JUMPI RETURNDATASIZE PUSH0 DUP1 RETURNDATACOPY RETURNDATASIZE PUSH0 REVERT JUMPDEST POP POP POP POP PUSH1 0x40 MLOAD RETURNDATASIZE PUSH1 0x1F NOT PUSH1 0x1F DUP3 ADD AND DUP3 ADD DUP1 PUSH1 0x40 MSTORE POP DUP2 ADD SWAP1 PUSH2 0xC1F SWAP2 SWAP1 PUSH2 0x163C JUMP JUMPDEST PUSH2 0xC27 JUMPI PUSH0 DUP1 REVERT JUMPDEST PUSH1 0x2 PUSH0 SWAP1 SLOAD SWAP1 PUSH2 0x100 EXP SWAP1 DIV PUSH20 0xFFFFFFFFFFFFFFFFFFFFFFFFFFFFFFFFFFFFFFFF AND PUSH20 0xFFFFFFFFFFFFFFFFFFFFFFFFFFFFFFFFFFFFFFFF AND PUSH4 0x23B872DD CALLER ADDRESS DUP5 PUSH1 0x40 MLOAD DUP5 PUSH4 0xFFFFFFFF AND PUSH1 0xE0 SHL DUP2 MSTORE PUSH1 0x4 ADD PUSH2 0xC85 SWAP4 SWAP3 SWAP2 SWAP1 PUSH2 0x15D2 JUMP JUMPDEST PUSH1 0x20 PUSH1 0x40 MLOAD DUP1 DUP4 SUB DUP2 PUSH0 DUP8 GAS CALL ISZERO DUP1 ISZERO PUSH2 0xCA1 JUMPI RETURNDATASIZE PUSH0 DUP1 RETURNDATACOPY RETURNDATASIZE PUSH0 REVERT JUMPDEST POP POP POP POP PUSH1 0x40 MLOAD RETURNDATASIZE PUSH1 0x1F NOT PUSH1 0x1F DUP3 ADD AND DUP3 ADD DUP1 PUSH1 0x40 MSTORE POP DUP2 ADD SWAP1 PUSH2 0xCC5 SWAP2 SWAP1 PUSH2 0x163C JUMP JUMPDEST PUSH2 0xCCD JUMPI PUSH0 DUP1 REVERT JUMPDEST DUP2 PUSH1 0x3 DUP2 SWAP1 SSTORE POP DUP1 PUSH1 0x4 DUP2 SWAP1 SSTORE POP PUSH2 0xCEF DUP2 DUP4 PUSH2 0xCEA SWAP2 SWAP1 PUSH2 0x1501 JUMP JUMPDEST PUSH2 0x121B JUMP JUMPDEST PUSH1 0x6 DUP2 SWAP1 SSTORE POP PUSH1 0x6 SLOAD PUSH1 0x5 PUSH0 CALLER PUSH20 0xFFFFFFFFFFFFFFFFFFFFFFFFFFFFFFFFFFFFFFFF AND PUSH20 0xFFFFFFFFFFFFFFFFFFFFFFFFFFFFFFFFFFFFFFFF AND DUP2 MSTORE PUSH1 0x20 ADD SWAP1 DUP2 MSTORE PUSH1 0x20 ADD PUSH0 KECCAK256 DUP2 SWAP1 SSTORE POP POP POP JUMP JUMPDEST PUSH0 DUP1 PUSH1 0x1 PUSH0 SWAP1 SLOAD SWAP1 PUSH2 0x100 EXP SWAP1 DIV PUSH20 0xFFFFFFFFFFFFFFFFFFFFFFFFFFFFFFFFFFFFFFFF AND PUSH1 0x2 PUSH0 SWAP1 SLOAD SWAP1 PUSH2 0x100 EXP SWAP1 DIV PUSH20 0xFFFFFFFFFFFFFFFFFFFFFFFFFFFFFFFFFFFFFFFF AND SWAP2 POP SWAP2 POP SWAP1 SWAP2 JUMP JUMPDEST PUSH0 DUP2 GT PUSH2 0xDCD JUMPI PUSH1 0x40 MLOAD PUSH32 0x8C379A000000000000000000000000000000000000000000000000000000000 DUP2 MSTORE PUSH1 0x4 ADD PUSH2 0xDC4 SWAP1 PUSH2 0x14B6 JUMP JUMPDEST PUSH1 0x40 MLOAD DUP1 SWAP2 SUB SWAP1 REVERT JUMPDEST PUSH0 PUSH2 0x3E5 DUP3 PUSH2 0xDDC SWAP2 SWAP1 PUSH2 0x1501 JUMP JUMPDEST PUSH2 0x3E8 PUSH1 0x4 SLOAD PUSH2 0xDEC SWAP2 SWAP1 PUSH2 0x1501 JUMP JUMPDEST PUSH2 0xDF6 SWAP2 SWAP1 PUSH2 0x1542 JUMP JUMPDEST PUSH2 0x3E5 PUSH1 0x3 SLOAD DUP5 PUSH2 0xE07 SWAP2 SWAP1 PUSH2 0x1501 JUMP JUMPDEST PUSH2 0xE11 SWAP2 SWAP1 PUSH2 0x1501 JUMP JUMPDEST PUSH2 0xE1B SWAP2 SWAP1 PUSH2 0x15A2 JUMP JUMPDEST SWAP1 POP PUSH1 0x2 PUSH0 SWAP1 SLOAD SWAP1 PUSH2 0x100 EXP SWAP1 DIV PUSH20 0xFFFFFFFFFFFFFFFFFFFFFFFFFFFFFFFFFFFFFFFF AND PUSH20 0xFFFFFFFFFFFFFFFFFFFFFFFFFFFFFFFFFFFFFFFF AND PUSH4 0x23B872DD CALLER ADDRESS DUP6 PUSH1 0x40 MLOAD DUP5 PUSH4 0xFFFFFFFF AND PUSH1 0xE0 SHL DUP2 MSTORE PUSH1 0x4 ADD PUSH2 0xE7B SWAP4 SWAP3 SWAP2 SWAP1 PUSH2 0x15D2 JUMP JUMPDEST PUSH1 0x20 PUSH1 0x40 MLOAD DUP1 DUP4 SUB DUP2 PUSH0 DUP8 GAS CALL ISZERO DUP1 ISZERO PUSH2 0xE97 JUMPI RETURNDATASIZE PUSH0 DUP1 RETURNDATACOPY RETURNDATASIZE PUSH0 REVERT JUMPDEST POP POP POP POP PUSH1 0x40 MLOAD RETURNDATASIZE PUSH1 0x1F NOT PUSH1 0x1F DUP3 ADD AND DUP3 ADD DUP1 PUSH1 0x40 MSTORE POP DUP2 ADD SWAP1 PUSH2 0xEBB SWAP2 SWAP1 PUSH2 0x163C JUMP JUMPDEST PUSH2 0xEFA JUMPI PUSH1 0x40 MLOAD PUSH32 0x8C379A000000000000000000000000000000000000000000000000000000000 DUP2 MSTORE PUSH1 0x4 ADD PUSH2 0xEF1 SWAP1 PUSH2 0x1740 JUMP JUMPDEST PUSH1 0x40 MLOAD DUP1 SWAP2 SUB SWAP1 REVERT JUMPDEST PUSH1 0x1 PUSH0 SWAP1 SLOAD SWAP1 PUSH2 0x100 EXP SWAP1 DIV PUSH20 0xFFFFFFFFFFFFFFFFFFFFFFFFFFFFFFFFFFFFFFFF AND PUSH20 0xFFFFFFFFFFFFFFFFFFFFFFFFFFFFFFFFFFFFFFFF AND PUSH4 0xA9059CBB CALLER DUP4 PUSH1 0x40 MLOAD DUP4 PUSH4 0xFFFFFFFF AND PUSH1 0xE0 SHL DUP2 MSTORE PUSH1 0x4 ADD PUSH2 0xF56 SWAP3 SWAP2 SWAP1 PUSH2 0x16CF JUMP JUMPDEST PUSH1 0x20 PUSH1 0x40 MLOAD DUP1 DUP4 SUB DUP2 PUSH0 DUP8 GAS CALL ISZERO DUP1 ISZERO PUSH2 0xF72 JUMPI RETURNDATASIZE PUSH0 DUP1 RETURNDATACOPY RETURNDATASIZE PUSH0 REVERT JUMPDEST POP POP POP POP PUSH1 0x40 MLOAD RETURNDATASIZE PUSH1 0x1F NOT PUSH1 0x1F DUP3 ADD AND DUP3 ADD DUP1 PUSH1 0x40 MSTORE POP DUP2 ADD SWAP1 PUSH2 0xF96 SWAP2 SWAP1 PUSH2 0x163C JUMP JUMPDEST PUSH2 0xFD5 JUMPI PUSH1 0x40 MLOAD PUSH32 0x8C379A000000000000000000000000000000000000000000000000000000000 DUP2 MSTORE PUSH1 0x4 ADD PUSH2 0xFCC SWAP1 PUSH2 0x16B1 JUMP JUMPDEST PUSH1 0x40 MLOAD DUP1 SWAP2 SUB SWAP1 REVERT JUMPDEST DUP1 PUSH1 0x3 PUSH0 DUP3 DUP3 SLOAD PUSH2 0xFE6 SWAP2 SWAP1 PUSH2 0x175E JUMP JUMPDEST SWAP3 POP POP DUP2 SWAP1 SSTORE POP DUP2 PUSH1 0x4 PUSH0 DUP3 DUP3 SLOAD PUSH2 0xFFE SWAP2 SWAP1 PUSH2 0x1542 JUMP JUMPDEST SWAP3 POP POP DUP2 SWAP1 SSTORE POP POP POP JUMP JUMPDEST PUSH0 PUSH1 0x5 PUSH0 DUP4 PUSH20 0xFFFFFFFFFFFFFFFFFFFFFFFFFFFFFFFFFFFFFFFF AND PUSH20 0xFFFFFFFFFFFFFFFFFFFFFFFFFFFFFFFFFFFFFFFF AND DUP2 MSTORE PUSH1 0x20 ADD SWAP1 DUP2 MSTORE PUSH1 0x20 ADD PUSH0 KECCAK256 SLOAD SWAP1 POP SWAP2 SWAP1 POP JUMP JUMPDEST PUSH2 0x1057 PUSH2 0x10D3 JUMP JUMPDEST PUSH0 PUSH20 0xFFFFFFFFFFFFFFFFFFFFFFFFFFFFFFFFFFFFFFFF AND DUP2 PUSH20 0xFFFFFFFFFFFFFFFFFFFFFFFFFFFFFFFFFFFFFFFF AND SUB PUSH2 0x10C7 JUMPI PUSH0 PUSH1 0x40 MLOAD PUSH32 0x1E4FBDF700000000000000000000000000000000000000000000000000000000 DUP2 MSTORE PUSH1 0x4 ADD PUSH2 0x10BE SWAP2 SWAP1 PUSH2 0x1389 JUMP JUMPDEST PUSH1 0x40 MLOAD DUP1 SWAP2 SUB SWAP1 REVERT JUMPDEST PUSH2 0x10D0 DUP2 PUSH2 0x115A JUMP JUMPDEST POP JUMP JUMPDEST PUSH2 0x10DB PUSH2 0x1292 JUMP JUMPDEST PUSH20 0xFFFFFFFFFFFFFFFFFFFFFFFFFFFFFFFFFFFFFFFF AND PUSH2 0x10F9 PUSH2 0x7A2 JUMP JUMPDEST PUSH20 0xFFFFFFFFFFFFFFFFFFFFFFFFFFFFFFFFFFFFFFFF AND EQ PUSH2 0x1158 JUMPI PUSH2 0x111C PUSH2 0x1292 JUMP JUMPDEST PUSH1 0x40 MLOAD PUSH32 0x118CDAA700000000000000000000000000000000000000000000000000000000 DUP2 MSTORE PUSH1 0x4 ADD PUSH2 0x114F SWAP2 SWAP1 PUSH2 0x1389 JUMP JUMPDEST PUSH1 0x40 MLOAD DUP1 SWAP2 SUB SWAP1 REVERT JUMPDEST JUMP JUMPDEST PUSH0 DUP1 PUSH0 SWAP1 SLOAD SWAP1 PUSH2 0x100 EXP SWAP1 DIV PUSH20 0xFFFFFFFFFFFFFFFFFFFFFFFFFFFFFFFFFFFFFFFF AND SWAP1 POP DUP2 PUSH0 DUP1 PUSH2 0x100 EXP DUP2 SLOAD DUP2 PUSH20 0xFFFFFFFFFFFFFFFFFFFFFFFFFFFFFFFFFFFFFFFF MUL NOT AND SWAP1 DUP4 PUSH20 0xFFFFFFFFFFFFFFFFFFFFFFFFFFFFFFFFFFFFFFFF AND MUL OR SWAP1 SSTORE POP DUP2 PUSH20 0xFFFFFFFFFFFFFFFFFFFFFFFFFFFFFFFFFFFFFFFF AND DUP2 PUSH20 0xFFFFFFFFFFFFFFFFFFFFFFFFFFFFFFFFFFFFFFFF AND PUSH32 0x8BE0079C531659141344CD1FD0A4F28419497F9722A3DAAFE3B4186F6B6457E0 PUSH1 0x40 MLOAD PUSH1 0x40 MLOAD DUP1 SWAP2 SUB SWAP1 LOG3 POP POP JUMP JUMPDEST PUSH0 PUSH1 0x3 DUP3 GT ISZERO PUSH2 0x1280 JUMPI DUP2 SWAP1 POP PUSH0 PUSH1 0x1 PUSH1 0x2 DUP5 PUSH2 0x1238 SWAP2 SWAP1 PUSH2 0x15A2 JUMP JUMPDEST PUSH2 0x1242 SWAP2 SWAP1 PUSH2 0x1542 JUMP JUMPDEST SWAP1 POP JUMPDEST DUP2 DUP2 LT ISZERO PUSH2 0x127A JUMPI DUP1 SWAP2 POP PUSH1 0x2 DUP2 DUP3 DUP6 PUSH2 0x125F SWAP2 SWAP1 PUSH2 0x15A2 JUMP JUMPDEST PUSH2 0x1269 SWAP2 SWAP1 PUSH2 0x1542 JUMP JUMPDEST PUSH2 0x1273 SWAP2 SWAP1 PUSH2 0x15A2 JUMP JUMPDEST SWAP1 POP PUSH2 0x1245 JUMP JUMPDEST POP PUSH2 0x128D JUMP JUMPDEST PUSH0 DUP3 EQ PUSH2 0x128C JUMPI PUSH1 0x1 SWAP1 POP JUMPDEST JUMPDEST SWAP2 SWAP1 POP JUMP JUMPDEST PUSH0 CALLER SWAP1 POP SWAP1 JUMP JUMPDEST PUSH0 DUP2 SWAP1 POP SWAP2 SWAP1 POP JUMP JUMPDEST PUSH2 0x12AB DUP2 PUSH2 0x1299 JUMP JUMPDEST DUP3 MSTORE POP POP JUMP JUMPDEST PUSH0 PUSH1 0x40 DUP3 ADD SWAP1 POP PUSH2 0x12C4 PUSH0 DUP4 ADD DUP6 PUSH2 0x12A2 JUMP JUMPDEST PUSH2 0x12D1 PUSH1 0x20 DUP4 ADD DUP5 PUSH2 0x12A2 JUMP JUMPDEST SWAP4 SWAP3 POP POP POP JUMP JUMPDEST PUSH0 DUP1 REVERT JUMPDEST PUSH2 0x12E5 DUP2 PUSH2 0x1299 JUMP JUMPDEST DUP2 EQ PUSH2 0x12EF JUMPI PUSH0 DUP1 REVERT JUMPDEST POP JUMP JUMPDEST PUSH0 DUP2 CALLDATALOAD SWAP1 POP PUSH2 0x1300 DUP2 PUSH2 0x12DC JUMP JUMPDEST SWAP3 SWAP2 POP POP JUMP JUMPDEST PUSH0 PUSH1 0x20 DUP3 DUP5 SUB SLT ISZERO PUSH2 0x131B JUMPI PUSH2 0x131A PUSH2 0x12D8 JUMP JUMPDEST JUMPDEST PUSH0 PUSH2 0x1328 DUP5 DUP3 DUP6 ADD PUSH2 0x12F2 JUMP JUMPDEST SWAP2 POP POP SWAP3 SWAP2 POP POP JUMP JUMPDEST PUSH0 PUSH1 0x20 DUP3 ADD SWAP1 POP PUSH2 0x1344 PUSH0 DUP4 ADD DUP5 PUSH2 0x12A2 JUMP JUMPDEST SWAP3 SWAP2 POP POP JUMP JUMPDEST PUSH0 PUSH20 0xFFFFFFFFFFFFFFFFFFFFFFFFFFFFFFFFFFFFFFFF DUP3 AND SWAP1 POP SWAP2 SWAP1 POP JUMP JUMPDEST PUSH0 PUSH2 0x1373 DUP3 PUSH2 0x134A JUMP JUMPDEST SWAP1 POP SWAP2 SWAP1 POP JUMP JUMPDEST PUSH2 0x1383 DUP2 PUSH2 0x1369 JUMP JUMPDEST DUP3 MSTORE POP POP JUMP JUMPDEST PUSH0 PUSH1 0x20 DUP3 ADD SWAP1 POP PUSH2 0x139C PUSH0 DUP4 ADD DUP5 PUSH2 0x137A JUMP JUMPDEST SWAP3 SWAP2 POP POP JUMP JUMPDEST PUSH0 DUP1 PUSH1 0x40 DUP4 DUP6 SUB SLT ISZERO PUSH2 0x13B8 JUMPI PUSH2 0x13B7 PUSH2 0x12D8 JUMP JUMPDEST JUMPDEST PUSH0 PUSH2 0x13C5 DUP6 DUP3 DUP7 ADD PUSH2 0x12F2 JUMP JUMPDEST SWAP3 POP POP PUSH1 0x20 PUSH2 0x13D6 DUP6 DUP3 DUP7 ADD PUSH2 0x12F2 JUMP JUMPDEST SWAP2 POP POP SWAP3 POP SWAP3 SWAP1 POP JUMP JUMPDEST PUSH0 PUSH1 0x40 DUP3 ADD SWAP1 POP PUSH2 0x13F3 PUSH0 DUP4 ADD DUP6 PUSH2 0x137A JUMP JUMPDEST PUSH2 0x1400 PUSH1 0x20 DUP4 ADD DUP5 PUSH2 0x137A JUMP JUMPDEST SWAP4 SWAP3 POP POP POP JUMP JUMPDEST PUSH2 0x1410 DUP2 PUSH2 0x1369 JUMP JUMPDEST DUP2 EQ PUSH2 0x141A JUMPI PUSH0 DUP1 REVERT JUMPDEST POP JUMP JUMPDEST PUSH0 DUP2 CALLDATALOAD SWAP1 POP PUSH2 0x142B DUP2 PUSH2 0x1407 JUMP JUMPDEST SWAP3 SWAP2 POP POP JUMP JUMPDEST PUSH0 PUSH1 0x20 DUP3 DUP5 SUB SLT ISZERO PUSH2 0x1446 JUMPI PUSH2 0x1445 PUSH2 0x12D8 JUMP JUMPDEST JUMPDEST PUSH0 PUSH2 0x1453 DUP5 DUP3 DUP6 ADD PUSH2 0x141D JUMP JUMPDEST SWAP2 POP POP SWAP3 SWAP2 POP POP JUMP JUMPDEST PUSH0 DUP3 DUP3 MSTORE PUSH1 0x20 DUP3 ADD SWAP1 POP SWAP3 SWAP2 POP POP JUMP JUMPDEST PUSH32 0x6E6F7420746F6B656E302070726F766964656400000000000000000000000000 PUSH0 DUP3 ADD MSTORE POP JUMP JUMPDEST PUSH0 PUSH2 0x14A0 PUSH1 0x13 DUP4 PUSH2 0x145C JUMP JUMPDEST SWAP2 POP PUSH2 0x14AB DUP3 PUSH2 0x146C JUMP JUMPDEST PUSH1 0x20 DUP3 ADD SWAP1 POP SWAP2 SWAP1 POP JUMP JUMPDEST PUSH0 PUSH1 0x20 DUP3 ADD SWAP1 POP DUP2 DUP2 SUB PUSH0 DUP4 ADD MSTORE PUSH2 0x14CD DUP2 PUSH2 0x1494 JUMP JUMPDEST SWAP1 POP SWAP2 SWAP1 POP JUMP JUMPDEST PUSH32 0x4E487B7100000000000000000000000000000000000000000000000000000000 PUSH0 MSTORE PUSH1 0x11 PUSH1 0x4 MSTORE PUSH1 0x24 PUSH0 REVERT JUMPDEST PUSH0 PUSH2 0x150B DUP3 PUSH2 0x1299 JUMP JUMPDEST SWAP2 POP PUSH2 0x1516 DUP4 PUSH2 0x1299 JUMP JUMPDEST SWAP3 POP DUP3 DUP3 MUL PUSH2 0x1524 DUP2 PUSH2 0x1299 JUMP JUMPDEST SWAP2 POP DUP3 DUP3 DIV DUP5 EQ DUP4 ISZERO OR PUSH2 0x153B JUMPI PUSH2 0x153A PUSH2 0x14D4 JUMP JUMPDEST JUMPDEST POP SWAP3 SWAP2 POP POP JUMP JUMPDEST PUSH0 PUSH2 0x154C DUP3 PUSH2 0x1299 JUMP JUMPDEST SWAP2 POP PUSH2 0x1557 DUP4 PUSH2 0x1299 JUMP JUMPDEST SWAP3 POP DUP3 DUP3 ADD SWAP1 POP DUP1 DUP3 GT ISZERO PUSH2 0x156F JUMPI PUSH2 0x156E PUSH2 0x14D4 JUMP JUMPDEST JUMPDEST SWAP3 SWAP2 POP POP JUMP JUMPDEST PUSH32 0x4E487B7100000000000000000000000000000000000000000000000000000000 PUSH0 MSTORE PUSH1 0x12 PUSH1 0x4 MSTORE PUSH1 0x24 PUSH0 REVERT JUMPDEST PUSH0 PUSH2 0x15AC DUP3 PUSH2 0x1299 JUMP JUMPDEST SWAP2 POP PUSH2 0x15B7 DUP4 PUSH2 0x1299 JUMP JUMPDEST SWAP3 POP DUP3 PUSH2 0x15C7 JUMPI PUSH2 0x15C6 PUSH2 0x1575 JUMP JUMPDEST JUMPDEST DUP3 DUP3 DIV SWAP1 POP SWAP3 SWAP2 POP POP JUMP JUMPDEST PUSH0 PUSH1 0x60 DUP3 ADD SWAP1 POP PUSH2 0x15E5 PUSH0 DUP4 ADD DUP7 PUSH2 0x137A JUMP JUMPDEST PUSH2 0x15F2 PUSH1 0x20 DUP4 ADD DUP6 PUSH2 0x137A JUMP JUMPDEST PUSH2 0x15FF PUSH1 0x40 DUP4 ADD DUP5 PUSH2 0x12A2 JUMP JUMPDEST SWAP5 SWAP4 POP POP POP POP JUMP JUMPDEST PUSH0 DUP2 ISZERO ISZERO SWAP1 POP SWAP2 SWAP1 POP JUMP JUMPDEST PUSH2 0x161B DUP2 PUSH2 0x1607 JUMP JUMPDEST DUP2 EQ PUSH2 0x1625 JUMPI PUSH0 DUP1 REVERT JUMPDEST POP JUMP JUMPDEST PUSH0 DUP2 MLOAD SWAP1 POP PUSH2 0x1636 DUP2 PUSH2 0x1612 JUMP JUMPDEST SWAP3 SWAP2 POP POP JUMP JUMPDEST PUSH0 PUSH1 0x20 DUP3 DUP5 SUB SLT ISZERO PUSH2 0x1651 JUMPI PUSH2 0x1650 PUSH2 0x12D8 JUMP JUMPDEST JUMPDEST PUSH0 PUSH2 0x165E DUP5 DUP3 DUP6 ADD PUSH2 0x1628 JUMP JUMPDEST SWAP2 POP POP SWAP3 SWAP2 POP POP JUMP JUMPDEST PUSH32 0x6661696C656420746F207472616E7366657220746F6B656E3000000000000000 PUSH0 DUP3 ADD MSTORE POP JUMP JUMPDEST PUSH0 PUSH2 0x169B PUSH1 0x19 DUP4 PUSH2 0x145C JUMP JUMPDEST SWAP2 POP PUSH2 0x16A6 DUP3 PUSH2 0x1667 JUMP JUMPDEST PUSH1 0x20 DUP3 ADD SWAP1 POP SWAP2 SWAP1 POP JUMP JUMPDEST PUSH0 PUSH1 0x20 DUP3 ADD SWAP1 POP DUP2 DUP2 SUB PUSH0 DUP4 ADD MSTORE PUSH2 0x16C8 DUP2 PUSH2 0x168F JUMP JUMPDEST SWAP1 POP SWAP2 SWAP1 POP JUMP JUMPDEST PUSH0 PUSH1 0x40 DUP3 ADD SWAP1 POP PUSH2 0x16E2 PUSH0 DUP4 ADD DUP6 PUSH2 0x137A JUMP JUMPDEST PUSH2 0x16EF PUSH1 0x20 DUP4 ADD DUP5 PUSH2 0x12A2 JUMP JUMPDEST SWAP4 SWAP3 POP POP POP JUMP JUMPDEST PUSH32 0x6661696C656420746F207472616E7366657220746F6B656E3100000000000000 PUSH0 DUP3 ADD MSTORE POP JUMP JUMPDEST PUSH0 PUSH2 0x172A PUSH1 0x19 DUP4 PUSH2 0x145C JUMP JUMPDEST SWAP2 POP PUSH2 0x1735 DUP3 PUSH2 0x16F6 JUMP JUMPDEST PUSH1 0x20 DUP3 ADD SWAP1 POP SWAP2 SWAP1 POP JUMP JUMPDEST PUSH0 PUSH1 0x20 DUP3 ADD SWAP1 POP DUP2 DUP2 SUB PUSH0 DUP4 ADD MSTORE PUSH2 0x1757 DUP2 PUSH2 0x171E JUMP JUMPDEST SWAP1 POP SWAP2 SWAP1 POP JUMP JUMPDEST PUSH0 PUSH2 0x1768 DUP3 PUSH2 0x1299 JUMP JUMPDEST SWAP2 POP PUSH2 0x1773 DUP4 PUSH2 0x1299 JUMP JUMPDEST SWAP3 POP DUP3 DUP3 SUB SWAP1 POP DUP2 DUP2 GT ISZERO PUSH2 0x178B JUMPI PUSH2 0x178A PUSH2 0x14D4 JUMP JUMPDEST JUMPDEST SWAP3 SWAP2 POP POP JUMP JUMPDEST PUSH32 0x706F6F6C206E6F7420696E6974696C697A656400000000000000000000000000 PUSH0 DUP3 ADD MSTORE POP JUMP JUMPDEST PUSH0 PUSH2 0x17C5 PUSH1 0x13 DUP4 PUSH2 0x145C JUMP JUMPDEST SWAP2 POP PUSH2 0x17D0 DUP3 PUSH2 0x1791 JUMP JUMPDEST PUSH1 0x20 DUP3 ADD SWAP1 POP SWAP2 SWAP1 POP JUMP JUMPDEST PUSH0 PUSH1 0x20 DUP3 ADD SWAP1 POP DUP2 DUP2 SUB PUSH0 DUP4 ADD MSTORE PUSH2 0x17F2 DUP2 PUSH2 0x17B9 JUMP JUMPDEST SWAP1 POP SWAP2 SWAP1 POP JUMP JUMPDEST PUSH32 0x6E6F7420656E6F75676820736861726520746F20776974686472617700000000 PUSH0 DUP3 ADD MSTORE POP JUMP JUMPDEST PUSH0 PUSH2 0x182D PUSH1 0x1C DUP4 PUSH2 0x145C JUMP JUMPDEST SWAP2 POP PUSH2 0x1838 DUP3 PUSH2 0x17F9 JUMP JUMPDEST PUSH1 0x20 DUP3 ADD SWAP1 POP SWAP2 SWAP1 POP JUMP JUMPDEST PUSH0 PUSH1 0x20 DUP3 ADD SWAP1 POP DUP2 DUP2 SUB PUSH0 DUP4 ADD MSTORE PUSH2 0x185A DUP2 PUSH2 0x1821 JUMP JUMPDEST SWAP1 POP SWAP2 SWAP1 POP JUMP JUMPDEST PUSH32 0x696E6974202D20616C726561647920686173206C697175696469747900000000 PUSH0 DUP3 ADD MSTORE POP JUMP JUMPDEST PUSH0 PUSH2 0x1895 PUSH1 0x1C DUP4 PUSH2 0x145C JUMP JUMPDEST SWAP2 POP PUSH2 0x18A0 DUP3 PUSH2 0x1861 JUMP JUMPDEST PUSH1 0x20 DUP3 ADD SWAP1 POP SWAP2 SWAP1 POP JUMP JUMPDEST PUSH0 PUSH1 0x20 DUP3 ADD SWAP1 POP DUP2 DUP2 SUB PUSH0 DUP4 ADD MSTORE PUSH2 0x18C2 DUP2 PUSH2 0x1889 JUMP JUMPDEST SWAP1 POP SWAP2 SWAP1 POP JUMP JUMPDEST PUSH32 0x696E6974202D20626F746820746F6B656E7320617265206E6565646564000000 PUSH0 DUP3 ADD MSTORE POP JUMP JUMPDEST PUSH0 PUSH2 0x18FD PUSH1 0x1D DUP4 PUSH2 0x145C JUMP JUMPDEST SWAP2 POP PUSH2 0x1908 DUP3 PUSH2 0x18C9 JUMP JUMPDEST PUSH1 0x20 DUP3 ADD SWAP1 POP SWAP2 SWAP1 POP JUMP JUMPDEST PUSH0 PUSH1 0x20 DUP3 ADD SWAP1 POP DUP2 DUP2 SUB PUSH0 DUP4 ADD MSTORE PUSH2 0x192A DUP2 PUSH2 0x18F1 JUMP JUMPDEST SWAP1 POP SWAP2 SWAP1 POP JUMP INVALID LOG2 PUSH5 0x6970667358 0x22 SLT KECCAK256 DUP7 0x21 EQ DUP8 BALANCE 0x22 0xA9 0xCB 0xAB SWAP15 0x2F DELEGATECALL 0xAD 0xAA 0xE3 0xD7 0xEE SWAP14 0x21 PUSH21 0xE1A94F4578DEC5692A2ACA2464736F6C6343000818 STOP CALLER "
				},
				"gasEstimates": {
					"creation": {
						"codeDepositCost": "1300600",
						"executionCost": "infinite",
						"totalCost": "infinite"
					},
					"external": {
						"addLiquidity(uint256)": "infinite",
						"getReserves()": "infinite",
						"getShares(address)": "2917",
						"getTokens()": "infinite",
						"init(uint256,uint256)": "infinite",
						"owner()": "2626",
						"removeLiquidity(uint256)": "infinite",
						"renounceOwnership()": "infinite",
						"token0To1(uint256)": "infinite",
						"token1To0(uint256)": "infinite",
						"totalShares()": "2470",
						"transferOwnership(address)": "infinite"
					},
					"internal": {
						"sqrt(uint256)": "infinite"
					}
				},
				"methodIdentifiers": {
					"addLiquidity(uint256)": "51c6590a",
					"getReserves()": "0902f1ac",
					"getShares(address)": "f04da65b",
					"getTokens()": "aa6ca808",
					"init(uint256,uint256)": "a5843f08",
					"owner()": "8da5cb5b",
					"removeLiquidity(uint256)": "9c8f9f23",
					"renounceOwnership()": "715018a6",
					"token0To1(uint256)": "26ef80c9",
					"token1To0(uint256)": "ad3bd45c",
					"totalShares()": "3a98ef39",
					"transferOwnership(address)": "f2fde38b"
				}
			},
			"storageLayout": {
				"storage": [
					{
						"astId": 387,
						"contract": "assignment3/Swap.sol:Swap",
						"label": "_owner",
						"offset": 0,
						"slot": "0",
						"type": "t_address"
					},
					{
						"astId": 1361,
						"contract": "assignment3/Swap.sol:Swap",
						"label": "token0",
						"offset": 0,
						"slot": "1",
						"type": "t_address"
					},
					{
						"astId": 1363,
						"contract": "assignment3/Swap.sol:Swap",
						"label": "token1",
						"offset": 0,
						"slot": "2",
						"type": "t_address"
					},
					{
						"astId": 1365,
						"contract": "assignment3/Swap.sol:Swap",
						"label": "reserve0",
						"offset": 0,
						"slot": "3",
						"type": "t_uint256"
					},
					{
						"astId": 1367,
						"contract": "assignment3/Swap.sol:Swap",
						"label": "reserve1",
						"offset": 0,
						"slot": "4",
						"type": "t_uint256"
					},
					{
						"astId": 1371,
						"contract": "assignment3/Swap.sol:Swap",
						"label": "shares",
						"offset": 0,
						"slot": "5",
						"type": "t_mapping(t_address,t_uint256)"
					},
					{
						"astId": 1373,
						"contract": "assignment3/Swap.sol:Swap",
						"label": "totalShares",
						"offset": 0,
						"slot": "6",
						"type": "t_uint256"
					}
				],
				"types": {
					"t_address": {
						"encoding": "inplace",
						"label": "address",
						"numberOfBytes": "20"
					},
					"t_mapping(t_address,t_uint256)": {
						"encoding": "mapping",
						"key": "t_address",
						"label": "mapping(address => uint256)",
						"numberOfBytes": "32",
						"value": "t_uint256"
					},
					"t_uint256": {
						"encoding": "inplace",
						"label": "uint256",
						"numberOfBytes": "32"
					}
				}
			},
			"userdoc": {
				"kind": "user",
				"methods": {},
				"version": 1
			}
		}
	}
}