{
	"data": {
		"bytecode": {
			"linkReferences": {},
			"object": "608060405234801561000f575f80fd5b506102408061001d5f395ff3fe608060405234801561000f575f80fd5b5060043610610034575f3560e01c8063013a4d651461003857806349ce899714610054575b5f80fd5b610052600480360381019061004d9190610137565b610086565b005b61006e6004803603810190610069919061019b565b6100db565b60405161007d939291906101d5565b60405180910390f35b5f6040518060600160405280858152602001848152602001838152509050805f808781526020019081526020015f205f820151815f015560208201518160010155604082015181600201559050505050505050565b5f602052805f5260405f205f91509050805f0154908060010154908060020154905083565b5f80fd5b5f819050919050565b61011681610104565b8114610120575f80fd5b50565b5f813590506101318161010d565b92915050565b5f805f806080858703121561014f5761014e610100565b5b5f61015c87828801610123565b945050602061016d87828801610123565b935050604061017e87828801610123565b925050606061018f87828801610123565b91505092959194509250565b5f602082840312156101b0576101af610100565b5b5f6101bd84828501610123565b91505092915050565b6101cf81610104565b82525050565b5f6060820190506101e85f8301866101c6565b6101f560208301856101c6565b61020260408301846101c6565b94935050505056fea2646970667358221220c076212065e495d5042f6f7c9ffd847f877c535c96283d98c05dd742a6e80a7664736f6c63430008160033",
			"opcodes": "PUSH1 0x80 PUSH1 0x40 MSTORE CALLVALUE DUP1 ISZERO PUSH2 0xF JUMPI PUSH0 DUP1 REVERT JUMPDEST POP PUSH2 0x240 DUP1 PUSH2 0x1D PUSH0 CODECOPY PUSH0 RETURN INVALID PUSH1 0x80 PUSH1 0x40 MSTORE CALLVALUE DUP1 ISZERO PUSH2 0xF JUMPI PUSH0 DUP1 REVERT JUMPDEST POP PUSH1 0x4 CALLDATASIZE LT PUSH2 0x34 JUMPI PUSH0 CALLDATALOAD PUSH1 0xE0 SHR DUP1 PUSH4 0x13A4D65 EQ PUSH2 0x38 JUMPI DUP1 PUSH4 0x49CE8997 EQ PUSH2 0x54 JUMPI JUMPDEST PUSH0 DUP1 REVERT JUMPDEST PUSH2 0x52 PUSH1 0x4 DUP1 CALLDATASIZE SUB DUP2 ADD SWAP1 PUSH2 0x4D SWAP2 SWAP1 PUSH2 0x137 JUMP JUMPDEST PUSH2 0x86 JUMP JUMPDEST STOP JUMPDEST PUSH2 0x6E PUSH1 0x4 DUP1 CALLDATASIZE SUB DUP2 ADD SWAP1 PUSH2 0x69 SWAP2 SWAP1 PUSH2 0x19B JUMP JUMPDEST PUSH2 0xDB JUMP JUMPDEST PUSH1 0x40 MLOAD PUSH2 0x7D SWAP4 SWAP3 SWAP2 SWAP1 PUSH2 0x1D5 JUMP JUMPDEST PUSH1 0x40 MLOAD DUP1 SWAP2 SUB SWAP1 RETURN JUMPDEST PUSH0 PUSH1 0x40 MLOAD DUP1 PUSH1 0x60 ADD PUSH1 0x40 MSTORE DUP1 DUP6 DUP2 MSTORE PUSH1 0x20 ADD DUP5 DUP2 MSTORE PUSH1 0x20 ADD DUP4 DUP2 MSTORE POP SWAP1 POP DUP1 PUSH0 DUP1 DUP8 DUP2 MSTORE PUSH1 0x20 ADD SWAP1 DUP2 MSTORE PUSH1 0x20 ADD PUSH0 KECCAK256 PUSH0 DUP3 ADD MLOAD DUP2 PUSH0 ADD SSTORE PUSH1 0x20 DUP3 ADD MLOAD DUP2 PUSH1 0x1 ADD SSTORE PUSH1 0x40 DUP3 ADD MLOAD DUP2 PUSH1 0x2 ADD SSTORE SWAP1 POP POP POP POP POP POP POP JUMP JUMPDEST PUSH0 PUSH1 0x20 MSTORE DUP1 PUSH0 MSTORE PUSH1 0x40 PUSH0 KECCAK256 PUSH0 SWAP2 POP SWAP1 POP DUP1 PUSH0 ADD SLOAD SWAP1 DUP1 PUSH1 0x1 ADD SLOAD SWAP1 DUP1 PUSH1 0x2 ADD SLOAD SWAP1 POP DUP4 JUMP JUMPDEST PUSH0 DUP1 REVERT JUMPDEST PUSH0 DUP2 SWAP1 POP SWAP2 SWAP1 POP JUMP JUMPDEST PUSH2 0x116 DUP2 PUSH2 0x104 JUMP JUMPDEST DUP2 EQ PUSH2 0x120 JUMPI PUSH0 DUP1 REVERT JUMPDEST POP JUMP JUMPDEST PUSH0 DUP2 CALLDATALOAD SWAP1 POP PUSH2 0x131 DUP2 PUSH2 0x10D JUMP JUMPDEST SWAP3 SWAP2 POP POP JUMP JUMPDEST PUSH0 DUP1 PUSH0 DUP1 PUSH1 0x80 DUP6 DUP8 SUB SLT ISZERO PUSH2 0x14F JUMPI PUSH2 0x14E PUSH2 0x100 JUMP JUMPDEST JUMPDEST PUSH0 PUSH2 0x15C DUP8 DUP3 DUP9 ADD PUSH2 0x123 JUMP JUMPDEST SWAP5 POP POP PUSH1 0x20 PUSH2 0x16D DUP8 DUP3 DUP9 ADD PUSH2 0x123 JUMP JUMPDEST SWAP4 POP POP PUSH1 0x40 PUSH2 0x17E DUP8 DUP3 DUP9 ADD PUSH2 0x123 JUMP JUMPDEST SWAP3 POP POP PUSH1 0x60 PUSH2 0x18F DUP8 DUP3 DUP9 ADD PUSH2 0x123 JUMP JUMPDEST SWAP2 POP POP SWAP3 SWAP6 SWAP2 SWAP5 POP SWAP3 POP JUMP JUMPDEST PUSH0 PUSH1 0x20 DUP3 DUP5 SUB SLT ISZERO PUSH2 0x1B0 JUMPI PUSH2 0x1AF PUSH2 0x100 JUMP JUMPDEST JUMPDEST PUSH0 PUSH2 0x1BD DUP5 DUP3 DUP6 ADD PUSH2 0x123 JUMP JUMPDEST SWAP2 POP POP SWAP3 SWAP2 POP POP JUMP JUMPDEST PUSH2 0x1CF DUP2 PUSH2 0x104 JUMP JUMPDEST DUP3 MSTORE POP POP JUMP JUMPDEST PUSH0 PUSH1 0x60 DUP3 ADD SWAP1 POP PUSH2 0x1E8 PUSH0 DUP4 ADD DUP7 PUSH2 0x1C6 JUMP JUMPDEST PUSH2 0x1F5 PUSH1 0x20 DUP4 ADD DUP6 PUSH2 0x1C6 JUMP JUMPDEST PUSH2 0x202 PUSH1 0x40 DUP4 ADD DUP5 PUSH2 0x1C6 JUMP JUMPDEST SWAP5 SWAP4 POP POP POP POP JUMP INVALID LOG2 PUSH5 0x6970667358 0x22 SLT KECCAK256 0xC0 PUSH23 0x212065E495D5042F6F7C9FFD847F877C535C96283D98C0 0x5D 0xD7 TIMESTAMP 0xA6 0xE8 EXP PUSH23 0x64736F6C63430008160033000000000000000000000000 "
		},
		"gasEstimates": {
			"creation": {
				"codeDepositCost": "115200",
				"executionCost": "157",
				"totalCost": "115357"
			},
			"external": {
				"ReceiveCommitment(uint256,uint256,uint256,uint256)": "infinite",
				"commitments(uint256)": "infinite"
			}
		},
		"methodIdentifiers": {
			"ReceiveCommitment(uint256,uint256,uint256,uint256)": "013a4d65",
			"commitments(uint256)": "49ce8997"
		}
	},
	"abi": [
		{
			"inputs": [
				{
					"internalType": "uint256",
					"name": "clientId",
					"type": "uint256"
				},
				{
					"internalType": "uint256",
					"name": "val1",
					"type": "uint256"
				},
				{
					"internalType": "uint256",
					"name": "val2",
					"type": "uint256"
				},
				{
					"internalType": "uint256",
					"name": "val3",
					"type": "uint256"
				}
			],
			"name": "ReceiveCommitment",
			"outputs": [],
			"stateMutability": "nonpayable",
			"type": "function"
		},
		{
			"inputs": [
				{
					"internalType": "uint256",
					"name": "",
					"type": "uint256"
				}
			],
			"name": "commitments",
			"outputs": [
				{
					"internalType": "uint256",
					"name": "value1",
					"type": "uint256"
				},
				{
					"internalType": "uint256",
					"name": "value2",
					"type": "uint256"
				},
				{
					"internalType": "uint256",
					"name": "value3",
					"type": "uint256"
				}
			],
			"stateMutability": "view",
			"type": "function"
		}
	]
}