{
	"data": {
		"bytecode": {
			"linkReferences": {},
			"object": "60c060405234801562000010575f80fd5b5060405162000b7d38038062000b7d83398181016040528101906200003691906200018e565b808073ffffffffffffffffffffffffffffffffffffffff1660808173ffffffffffffffffffffffffffffffffffffffff16815250508073ffffffffffffffffffffffffffffffffffffffff1663026b1d5f6040518163ffffffff1660e01b8152600401602060405180830381865afa158015620000b5573d5f803e3d5ffd5b505050506040513d601f19601f82011682018060405250810190620000db9190620001ed565b73ffffffffffffffffffffffffffffffffffffffff1660a08173ffffffffffffffffffffffffffffffffffffffff168152505050506200021d565b5f80fd5b5f73ffffffffffffffffffffffffffffffffffffffff82169050919050565b5f62000145826200011a565b9050919050565b5f620001588262000139565b9050919050565b6200016a816200014c565b811462000175575f80fd5b50565b5f8151905062000188816200015f565b92915050565b5f60208284031215620001a657620001a562000116565b5b5f620001b58482850162000178565b91505092915050565b620001c98162000139565b8114620001d4575f80fd5b50565b5f81519050620001e781620001be565b92915050565b5f6020828403121562000205576200020462000116565b5b5f6200021484828501620001d7565b91505092915050565b60805160a0516109316200024c5f395f81816101c30152818161033b01526103ca01525f60d801526109315ff3fe608060405234801561000f575f80fd5b506004361061004a575f3560e01c80630542975c1461004e5780630a6095da1461006c5780631b11d0ff146100885780637535d246146100b8575b5f80fd5b6100566100d6565b604051610063919061047b565b60405180910390f35b6100866004803603810190610081919061050a565b6100fa565b005b6100a2600480360381019061009d91906105a9565b610256565b6040516100af9190610659565b60405180910390f35b6100c06103c8565b6040516100cd9190610692565b60405180910390f35b7f000000000000000000000000000000000000000000000000000000000000000081565b5f3090505f60405180602001604052805f81525090505f7ff950957d2407bed19dc99b718b46b4ce6090c05589006dfb86fd22c34865b23e858673ffffffffffffffffffffffffffffffffffffffff166370a08231306040518263ffffffff1660e01b815260040161016c91906106ba565b602060405180830381865afa158015610187573d5f803e3d5ffd5b505050506040513d601f19601f820116820180604052508101906101ab91906106e7565b6040516101b9929190610721565b60405180910390a17f000000000000000000000000000000000000000000000000000000000000000073ffffffffffffffffffffffffffffffffffffffff166342b0b77c84878786866040518663ffffffff1660e01b81526004016102229594939291906107ee565b5f604051808303815f87803b158015610239575f80fd5b505af115801561024b573d5f803e3d5ffd5b505050505050505050565b5f7ff950957d2407bed19dc99b718b46b4ce6090c05589006dfb86fd22c34865b23e878873ffffffffffffffffffffffffffffffffffffffff166370a08231306040518263ffffffff1660e01b81526004016102b291906106ba565b602060405180830381865afa1580156102cd573d5f803e3d5ffd5b505050506040513d601f19601f820116820180604052508101906102f191906106e7565b6040516102ff929190610721565b60405180910390a15f61031b86886103ec90919063ffffffff16565b90508773ffffffffffffffffffffffffffffffffffffffff1663095ea7b37f0000000000000000000000000000000000000000000000000000000000000000836040518363ffffffff1660e01b8152600401610378929190610721565b6020604051808303815f875af1158015610394573d5f803e3d5ffd5b505050506040513d601f19601f820116820180604052508101906103b89190610870565b5060019150509695505050505050565b7f000000000000000000000000000000000000000000000000000000000000000081565b5f81836103f991906108c8565b905092915050565b5f73ffffffffffffffffffffffffffffffffffffffff82169050919050565b5f819050919050565b5f61044361043e61043984610401565b610420565b610401565b9050919050565b5f61045482610429565b9050919050565b5f6104658261044a565b9050919050565b6104758161045b565b82525050565b5f60208201905061048e5f83018461046c565b92915050565b5f80fd5b5f80fd5b5f6104a682610401565b9050919050565b6104b68161049c565b81146104c0575f80fd5b50565b5f813590506104d1816104ad565b92915050565b5f819050919050565b6104e9816104d7565b81146104f3575f80fd5b50565b5f81359050610504816104e0565b92915050565b5f80604083850312156105205761051f610494565b5b5f61052d858286016104c3565b925050602061053e858286016104f6565b9150509250929050565b5f80fd5b5f80fd5b5f80fd5b5f8083601f84011261056957610568610548565b5b8235905067ffffffffffffffff8111156105865761058561054c565b5b6020830191508360018202830111156105a2576105a1610550565b5b9250929050565b5f805f805f8060a087890312156105c3576105c2610494565b5b5f6105d089828a016104c3565b96505060206105e189828a016104f6565b95505060406105f289828a016104f6565b945050606061060389828a016104c3565b935050608087013567ffffffffffffffff81111561062457610623610498565b5b61063089828a01610554565b92509250509295509295509295565b5f8115159050919050565b6106538161063f565b82525050565b5f60208201905061066c5f83018461064a565b92915050565b5f61067c8261044a565b9050919050565b61068c81610672565b82525050565b5f6020820190506106a55f830184610683565b92915050565b6106b48161049c565b82525050565b5f6020820190506106cd5f8301846106ab565b92915050565b5f815190506106e1816104e0565b92915050565b5f602082840312156106fc576106fb610494565b5b5f610709848285016106d3565b91505092915050565b61071b816104d7565b82525050565b5f6040820190506107345f8301856106ab565b6107416020830184610712565b9392505050565b5f81519050919050565b5f82825260208201905092915050565b5f5b8381101561077f578082015181840152602081019050610764565b5f8484015250505050565b5f601f19601f8301169050919050565b5f6107a482610748565b6107ae8185610752565b93506107be818560208601610762565b6107c78161078a565b840191505092915050565b5f61ffff82169050919050565b6107e8816107d2565b82525050565b5f60a0820190506108015f8301886106ab565b61080e60208301876106ab565b61081b6040830186610712565b818103606083015261082d818561079a565b905061083c60808301846107df565b9695505050505050565b61084f8161063f565b8114610859575f80fd5b50565b5f8151905061086a81610846565b92915050565b5f6020828403121561088557610884610494565b5b5f6108928482850161085c565b91505092915050565b7f4e487b71000000000000000000000000000000000000000000000000000000005f52601160045260245ffd5b5f6108d2826104d7565b91506108dd836104d7565b92508282019050808211156108f5576108f461089b565b5b9291505056fea2646970667358221220ac9f3bc385a7056e5620a167dac42c3be2c271ac25017fe1cc9e6339b0ef57ca64736f6c63430008180033",
			"opcodes": "PUSH1 0xC0 PUSH1 0x40 MSTORE CALLVALUE DUP1 ISZERO PUSH3 0x10 JUMPI PUSH0 DUP1 REVERT JUMPDEST POP PUSH1 0x40 MLOAD PUSH3 0xB7D CODESIZE SUB DUP1 PUSH3 0xB7D DUP4 CODECOPY DUP2 DUP2 ADD PUSH1 0x40 MSTORE DUP2 ADD SWAP1 PUSH3 0x36 SWAP2 SWAP1 PUSH3 0x18E JUMP JUMPDEST DUP1 DUP1 PUSH20 0xFFFFFFFFFFFFFFFFFFFFFFFFFFFFFFFFFFFFFFFF AND PUSH1 0x80 DUP2 PUSH20 0xFFFFFFFFFFFFFFFFFFFFFFFFFFFFFFFFFFFFFFFF AND DUP2 MSTORE POP POP DUP1 PUSH20 0xFFFFFFFFFFFFFFFFFFFFFFFFFFFFFFFFFFFFFFFF AND PUSH4 0x26B1D5F PUSH1 0x40 MLOAD DUP2 PUSH4 0xFFFFFFFF AND PUSH1 0xE0 SHL DUP2 MSTORE PUSH1 0x4 ADD PUSH1 0x20 PUSH1 0x40 MLOAD DUP1 DUP4 SUB DUP2 DUP7 GAS STATICCALL ISZERO DUP1 ISZERO PUSH3 0xB5 JUMPI RETURNDATASIZE PUSH0 DUP1 RETURNDATACOPY RETURNDATASIZE PUSH0 REVERT JUMPDEST POP POP POP POP PUSH1 0x40 MLOAD RETURNDATASIZE PUSH1 0x1F NOT PUSH1 0x1F DUP3 ADD AND DUP3 ADD DUP1 PUSH1 0x40 MSTORE POP DUP2 ADD SWAP1 PUSH3 0xDB SWAP2 SWAP1 PUSH3 0x1ED JUMP JUMPDEST PUSH20 0xFFFFFFFFFFFFFFFFFFFFFFFFFFFFFFFFFFFFFFFF AND PUSH1 0xA0 DUP2 PUSH20 0xFFFFFFFFFFFFFFFFFFFFFFFFFFFFFFFFFFFFFFFF AND DUP2 MSTORE POP POP POP POP PUSH3 0x21D JUMP JUMPDEST PUSH0 DUP1 REVERT JUMPDEST PUSH0 PUSH20 0xFFFFFFFFFFFFFFFFFFFFFFFFFFFFFFFFFFFFFFFF DUP3 AND SWAP1 POP SWAP2 SWAP1 POP JUMP JUMPDEST PUSH0 PUSH3 0x145 DUP3 PUSH3 0x11A JUMP JUMPDEST SWAP1 POP SWAP2 SWAP1 POP JUMP JUMPDEST PUSH0 PUSH3 0x158 DUP3 PUSH3 0x139 JUMP JUMPDEST SWAP1 POP SWAP2 SWAP1 POP JUMP JUMPDEST PUSH3 0x16A DUP2 PUSH3 0x14C JUMP JUMPDEST DUP2 EQ PUSH3 0x175 JUMPI PUSH0 DUP1 REVERT JUMPDEST POP JUMP JUMPDEST PUSH0 DUP2 MLOAD SWAP1 POP PUSH3 0x188 DUP2 PUSH3 0x15F JUMP JUMPDEST SWAP3 SWAP2 POP POP JUMP JUMPDEST PUSH0 PUSH1 0x20 DUP3 DUP5 SUB SLT ISZERO PUSH3 0x1A6 JUMPI PUSH3 0x1A5 PUSH3 0x116 JUMP JUMPDEST JUMPDEST PUSH0 PUSH3 0x1B5 DUP5 DUP3 DUP6 ADD PUSH3 0x178 JUMP JUMPDEST SWAP2 POP POP SWAP3 SWAP2 POP POP JUMP JUMPDEST PUSH3 0x1C9 DUP2 PUSH3 0x139 JUMP JUMPDEST DUP2 EQ PUSH3 0x1D4 JUMPI PUSH0 DUP1 REVERT JUMPDEST POP JUMP JUMPDEST PUSH0 DUP2 MLOAD SWAP1 POP PUSH3 0x1E7 DUP2 PUSH3 0x1BE JUMP JUMPDEST SWAP3 SWAP2 POP POP JUMP JUMPDEST PUSH0 PUSH1 0x20 DUP3 DUP5 SUB SLT ISZERO PUSH3 0x205 JUMPI PUSH3 0x204 PUSH3 0x116 JUMP JUMPDEST JUMPDEST PUSH0 PUSH3 0x214 DUP5 DUP3 DUP6 ADD PUSH3 0x1D7 JUMP JUMPDEST SWAP2 POP POP SWAP3 SWAP2 POP POP JUMP JUMPDEST PUSH1 0x80 MLOAD PUSH1 0xA0 MLOAD PUSH2 0x931 PUSH3 0x24C PUSH0 CODECOPY PUSH0 DUP2 DUP2 PUSH2 0x1C3 ADD MSTORE DUP2 DUP2 PUSH2 0x33B ADD MSTORE PUSH2 0x3CA ADD MSTORE PUSH0 PUSH1 0xD8 ADD MSTORE PUSH2 0x931 PUSH0 RETURN INVALID PUSH1 0x80 PUSH1 0x40 MSTORE CALLVALUE DUP1 ISZERO PUSH2 0xF JUMPI PUSH0 DUP1 REVERT JUMPDEST POP PUSH1 0x4 CALLDATASIZE LT PUSH2 0x4A JUMPI PUSH0 CALLDATALOAD PUSH1 0xE0 SHR DUP1 PUSH4 0x542975C EQ PUSH2 0x4E JUMPI DUP1 PUSH4 0xA6095DA EQ PUSH2 0x6C JUMPI DUP1 PUSH4 0x1B11D0FF EQ PUSH2 0x88 JUMPI DUP1 PUSH4 0x7535D246 EQ PUSH2 0xB8 JUMPI JUMPDEST PUSH0 DUP1 REVERT JUMPDEST PUSH2 0x56 PUSH2 0xD6 JUMP JUMPDEST PUSH1 0x40 MLOAD PUSH2 0x63 SWAP2 SWAP1 PUSH2 0x47B JUMP JUMPDEST PUSH1 0x40 MLOAD DUP1 SWAP2 SUB SWAP1 RETURN JUMPDEST PUSH2 0x86 PUSH1 0x4 DUP1 CALLDATASIZE SUB DUP2 ADD SWAP1 PUSH2 0x81 SWAP2 SWAP1 PUSH2 0x50A JUMP JUMPDEST PUSH2 0xFA JUMP JUMPDEST STOP JUMPDEST PUSH2 0xA2 PUSH1 0x4 DUP1 CALLDATASIZE SUB DUP2 ADD SWAP1 PUSH2 0x9D SWAP2 SWAP1 PUSH2 0x5A9 JUMP JUMPDEST PUSH2 0x256 JUMP JUMPDEST PUSH1 0x40 MLOAD PUSH2 0xAF SWAP2 SWAP1 PUSH2 0x659 JUMP JUMPDEST PUSH1 0x40 MLOAD DUP1 SWAP2 SUB SWAP1 RETURN JUMPDEST PUSH2 0xC0 PUSH2 0x3C8 JUMP JUMPDEST PUSH1 0x40 MLOAD PUSH2 0xCD SWAP2 SWAP1 PUSH2 0x692 JUMP JUMPDEST PUSH1 0x40 MLOAD DUP1 SWAP2 SUB SWAP1 RETURN JUMPDEST PUSH32 0x0 DUP2 JUMP JUMPDEST PUSH0 ADDRESS SWAP1 POP PUSH0 PUSH1 0x40 MLOAD DUP1 PUSH1 0x20 ADD PUSH1 0x40 MSTORE DUP1 PUSH0 DUP2 MSTORE POP SWAP1 POP PUSH0 PUSH32 0xF950957D2407BED19DC99B718B46B4CE6090C05589006DFB86FD22C34865B23E DUP6 DUP7 PUSH20 0xFFFFFFFFFFFFFFFFFFFFFFFFFFFFFFFFFFFFFFFF AND PUSH4 0x70A08231 ADDRESS PUSH1 0x40 MLOAD DUP3 PUSH4 0xFFFFFFFF AND PUSH1 0xE0 SHL DUP2 MSTORE PUSH1 0x4 ADD PUSH2 0x16C SWAP2 SWAP1 PUSH2 0x6BA JUMP JUMPDEST PUSH1 0x20 PUSH1 0x40 MLOAD DUP1 DUP4 SUB DUP2 DUP7 GAS STATICCALL ISZERO DUP1 ISZERO PUSH2 0x187 JUMPI RETURNDATASIZE PUSH0 DUP1 RETURNDATACOPY RETURNDATASIZE PUSH0 REVERT JUMPDEST POP POP POP POP PUSH1 0x40 MLOAD RETURNDATASIZE PUSH1 0x1F NOT PUSH1 0x1F DUP3 ADD AND DUP3 ADD DUP1 PUSH1 0x40 MSTORE POP DUP2 ADD SWAP1 PUSH2 0x1AB SWAP2 SWAP1 PUSH2 0x6E7 JUMP JUMPDEST PUSH1 0x40 MLOAD PUSH2 0x1B9 SWAP3 SWAP2 SWAP1 PUSH2 0x721 JUMP JUMPDEST PUSH1 0x40 MLOAD DUP1 SWAP2 SUB SWAP1 LOG1 PUSH32 0x0 PUSH20 0xFFFFFFFFFFFFFFFFFFFFFFFFFFFFFFFFFFFFFFFF AND PUSH4 0x42B0B77C DUP5 DUP8 DUP8 DUP7 DUP7 PUSH1 0x40 MLOAD DUP7 PUSH4 0xFFFFFFFF AND PUSH1 0xE0 SHL DUP2 MSTORE PUSH1 0x4 ADD PUSH2 0x222 SWAP6 SWAP5 SWAP4 SWAP3 SWAP2 SWAP1 PUSH2 0x7EE JUMP JUMPDEST PUSH0 PUSH1 0x40 MLOAD DUP1 DUP4 SUB DUP2 PUSH0 DUP8 DUP1 EXTCODESIZE ISZERO DUP1 ISZERO PUSH2 0x239 JUMPI PUSH0 DUP1 REVERT JUMPDEST POP GAS CALL ISZERO DUP1 ISZERO PUSH2 0x24B JUMPI RETURNDATASIZE PUSH0 DUP1 RETURNDATACOPY RETURNDATASIZE PUSH0 REVERT JUMPDEST POP POP POP POP POP POP POP POP POP JUMP JUMPDEST PUSH0 PUSH32 0xF950957D2407BED19DC99B718B46B4CE6090C05589006DFB86FD22C34865B23E DUP8 DUP9 PUSH20 0xFFFFFFFFFFFFFFFFFFFFFFFFFFFFFFFFFFFFFFFF AND PUSH4 0x70A08231 ADDRESS PUSH1 0x40 MLOAD DUP3 PUSH4 0xFFFFFFFF AND PUSH1 0xE0 SHL DUP2 MSTORE PUSH1 0x4 ADD PUSH2 0x2B2 SWAP2 SWAP1 PUSH2 0x6BA JUMP JUMPDEST PUSH1 0x20 PUSH1 0x40 MLOAD DUP1 DUP4 SUB DUP2 DUP7 GAS STATICCALL ISZERO DUP1 ISZERO PUSH2 0x2CD JUMPI RETURNDATASIZE PUSH0 DUP1 RETURNDATACOPY RETURNDATASIZE PUSH0 REVERT JUMPDEST POP POP POP POP PUSH1 0x40 MLOAD RETURNDATASIZE PUSH1 0x1F NOT PUSH1 0x1F DUP3 ADD AND DUP3 ADD DUP1 PUSH1 0x40 MSTORE POP DUP2 ADD SWAP1 PUSH2 0x2F1 SWAP2 SWAP1 PUSH2 0x6E7 JUMP JUMPDEST PUSH1 0x40 MLOAD PUSH2 0x2FF SWAP3 SWAP2 SWAP1 PUSH2 0x721 JUMP JUMPDEST PUSH1 0x40 MLOAD DUP1 SWAP2 SUB SWAP1 LOG1 PUSH0 PUSH2 0x31B DUP7 DUP9 PUSH2 0x3EC SWAP1 SWAP2 SWAP1 PUSH4 0xFFFFFFFF AND JUMP JUMPDEST SWAP1 POP DUP8 PUSH20 0xFFFFFFFFFFFFFFFFFFFFFFFFFFFFFFFFFFFFFFFF AND PUSH4 0x95EA7B3 PUSH32 0x0 DUP4 PUSH1 0x40 MLOAD DUP4 PUSH4 0xFFFFFFFF AND PUSH1 0xE0 SHL DUP2 MSTORE PUSH1 0x4 ADD PUSH2 0x378 SWAP3 SWAP2 SWAP1 PUSH2 0x721 JUMP JUMPDEST PUSH1 0x20 PUSH1 0x40 MLOAD DUP1 DUP4 SUB DUP2 PUSH0 DUP8 GAS CALL ISZERO DUP1 ISZERO PUSH2 0x394 JUMPI RETURNDATASIZE PUSH0 DUP1 RETURNDATACOPY RETURNDATASIZE PUSH0 REVERT JUMPDEST POP POP POP POP PUSH1 0x40 MLOAD RETURNDATASIZE PUSH1 0x1F NOT PUSH1 0x1F DUP3 ADD AND DUP3 ADD DUP1 PUSH1 0x40 MSTORE POP DUP2 ADD SWAP1 PUSH2 0x3B8 SWAP2 SWAP1 PUSH2 0x870 JUMP JUMPDEST POP PUSH1 0x1 SWAP2 POP POP SWAP7 SWAP6 POP POP POP POP POP POP JUMP JUMPDEST PUSH32 0x0 DUP2 JUMP JUMPDEST PUSH0 DUP2 DUP4 PUSH2 0x3F9 SWAP2 SWAP1 PUSH2 0x8C8 JUMP JUMPDEST SWAP1 POP SWAP3 SWAP2 POP POP JUMP JUMPDEST PUSH0 PUSH20 0xFFFFFFFFFFFFFFFFFFFFFFFFFFFFFFFFFFFFFFFF DUP3 AND SWAP1 POP SWAP2 SWAP1 POP JUMP JUMPDEST PUSH0 DUP2 SWAP1 POP SWAP2 SWAP1 POP JUMP JUMPDEST PUSH0 PUSH2 0x443 PUSH2 0x43E PUSH2 0x439 DUP5 PUSH2 0x401 JUMP JUMPDEST PUSH2 0x420 JUMP JUMPDEST PUSH2 0x401 JUMP JUMPDEST SWAP1 POP SWAP2 SWAP1 POP JUMP JUMPDEST PUSH0 PUSH2 0x454 DUP3 PUSH2 0x429 JUMP JUMPDEST SWAP1 POP SWAP2 SWAP1 POP JUMP JUMPDEST PUSH0 PUSH2 0x465 DUP3 PUSH2 0x44A JUMP JUMPDEST SWAP1 POP SWAP2 SWAP1 POP JUMP JUMPDEST PUSH2 0x475 DUP2 PUSH2 0x45B JUMP JUMPDEST DUP3 MSTORE POP POP JUMP JUMPDEST PUSH0 PUSH1 0x20 DUP3 ADD SWAP1 POP PUSH2 0x48E PUSH0 DUP4 ADD DUP5 PUSH2 0x46C JUMP JUMPDEST SWAP3 SWAP2 POP POP JUMP JUMPDEST PUSH0 DUP1 REVERT JUMPDEST PUSH0 DUP1 REVERT JUMPDEST PUSH0 PUSH2 0x4A6 DUP3 PUSH2 0x401 JUMP JUMPDEST SWAP1 POP SWAP2 SWAP1 POP JUMP JUMPDEST PUSH2 0x4B6 DUP2 PUSH2 0x49C JUMP JUMPDEST DUP2 EQ PUSH2 0x4C0 JUMPI PUSH0 DUP1 REVERT JUMPDEST POP JUMP JUMPDEST PUSH0 DUP2 CALLDATALOAD SWAP1 POP PUSH2 0x4D1 DUP2 PUSH2 0x4AD JUMP JUMPDEST SWAP3 SWAP2 POP POP JUMP JUMPDEST PUSH0 DUP2 SWAP1 POP SWAP2 SWAP1 POP JUMP JUMPDEST PUSH2 0x4E9 DUP2 PUSH2 0x4D7 JUMP JUMPDEST DUP2 EQ PUSH2 0x4F3 JUMPI PUSH0 DUP1 REVERT JUMPDEST POP JUMP JUMPDEST PUSH0 DUP2 CALLDATALOAD SWAP1 POP PUSH2 0x504 DUP2 PUSH2 0x4E0 JUMP JUMPDEST SWAP3 SWAP2 POP POP JUMP JUMPDEST PUSH0 DUP1 PUSH1 0x40 DUP4 DUP6 SUB SLT ISZERO PUSH2 0x520 JUMPI PUSH2 0x51F PUSH2 0x494 JUMP JUMPDEST JUMPDEST PUSH0 PUSH2 0x52D DUP6 DUP3 DUP7 ADD PUSH2 0x4C3 JUMP JUMPDEST SWAP3 POP POP PUSH1 0x20 PUSH2 0x53E DUP6 DUP3 DUP7 ADD PUSH2 0x4F6 JUMP JUMPDEST SWAP2 POP POP SWAP3 POP SWAP3 SWAP1 POP JUMP JUMPDEST PUSH0 DUP1 REVERT JUMPDEST PUSH0 DUP1 REVERT JUMPDEST PUSH0 DUP1 REVERT JUMPDEST PUSH0 DUP1 DUP4 PUSH1 0x1F DUP5 ADD SLT PUSH2 0x569 JUMPI PUSH2 0x568 PUSH2 0x548 JUMP JUMPDEST JUMPDEST DUP3 CALLDATALOAD SWAP1 POP PUSH8 0xFFFFFFFFFFFFFFFF DUP2 GT ISZERO PUSH2 0x586 JUMPI PUSH2 0x585 PUSH2 0x54C JUMP JUMPDEST JUMPDEST PUSH1 0x20 DUP4 ADD SWAP2 POP DUP4 PUSH1 0x1 DUP3 MUL DUP4 ADD GT ISZERO PUSH2 0x5A2 JUMPI PUSH2 0x5A1 PUSH2 0x550 JUMP JUMPDEST JUMPDEST SWAP3 POP SWAP3 SWAP1 POP JUMP JUMPDEST PUSH0 DUP1 PUSH0 DUP1 PUSH0 DUP1 PUSH1 0xA0 DUP8 DUP10 SUB SLT ISZERO PUSH2 0x5C3 JUMPI PUSH2 0x5C2 PUSH2 0x494 JUMP JUMPDEST JUMPDEST PUSH0 PUSH2 0x5D0 DUP10 DUP3 DUP11 ADD PUSH2 0x4C3 JUMP JUMPDEST SWAP7 POP POP PUSH1 0x20 PUSH2 0x5E1 DUP10 DUP3 DUP11 ADD PUSH2 0x4F6 JUMP JUMPDEST SWAP6 POP POP PUSH1 0x40 PUSH2 0x5F2 DUP10 DUP3 DUP11 ADD PUSH2 0x4F6 JUMP JUMPDEST SWAP5 POP POP PUSH1 0x60 PUSH2 0x603 DUP10 DUP3 DUP11 ADD PUSH2 0x4C3 JUMP JUMPDEST SWAP4 POP POP PUSH1 0x80 DUP8 ADD CALLDATALOAD PUSH8 0xFFFFFFFFFFFFFFFF DUP2 GT ISZERO PUSH2 0x624 JUMPI PUSH2 0x623 PUSH2 0x498 JUMP JUMPDEST JUMPDEST PUSH2 0x630 DUP10 DUP3 DUP11 ADD PUSH2 0x554 JUMP JUMPDEST SWAP3 POP SWAP3 POP POP SWAP3 SWAP6 POP SWAP3 SWAP6 POP SWAP3 SWAP6 JUMP JUMPDEST PUSH0 DUP2 ISZERO ISZERO SWAP1 POP SWAP2 SWAP1 POP JUMP JUMPDEST PUSH2 0x653 DUP2 PUSH2 0x63F JUMP JUMPDEST DUP3 MSTORE POP POP JUMP JUMPDEST PUSH0 PUSH1 0x20 DUP3 ADD SWAP1 POP PUSH2 0x66C PUSH0 DUP4 ADD DUP5 PUSH2 0x64A JUMP JUMPDEST SWAP3 SWAP2 POP POP JUMP JUMPDEST PUSH0 PUSH2 0x67C DUP3 PUSH2 0x44A JUMP JUMPDEST SWAP1 POP SWAP2 SWAP1 POP JUMP JUMPDEST PUSH2 0x68C DUP2 PUSH2 0x672 JUMP JUMPDEST DUP3 MSTORE POP POP JUMP JUMPDEST PUSH0 PUSH1 0x20 DUP3 ADD SWAP1 POP PUSH2 0x6A5 PUSH0 DUP4 ADD DUP5 PUSH2 0x683 JUMP JUMPDEST SWAP3 SWAP2 POP POP JUMP JUMPDEST PUSH2 0x6B4 DUP2 PUSH2 0x49C JUMP JUMPDEST DUP3 MSTORE POP POP JUMP JUMPDEST PUSH0 PUSH1 0x20 DUP3 ADD SWAP1 POP PUSH2 0x6CD PUSH0 DUP4 ADD DUP5 PUSH2 0x6AB JUMP JUMPDEST SWAP3 SWAP2 POP POP JUMP JUMPDEST PUSH0 DUP2 MLOAD SWAP1 POP PUSH2 0x6E1 DUP2 PUSH2 0x4E0 JUMP JUMPDEST SWAP3 SWAP2 POP POP JUMP JUMPDEST PUSH0 PUSH1 0x20 DUP3 DUP5 SUB SLT ISZERO PUSH2 0x6FC JUMPI PUSH2 0x6FB PUSH2 0x494 JUMP JUMPDEST JUMPDEST PUSH0 PUSH2 0x709 DUP5 DUP3 DUP6 ADD PUSH2 0x6D3 JUMP JUMPDEST SWAP2 POP POP SWAP3 SWAP2 POP POP JUMP JUMPDEST PUSH2 0x71B DUP2 PUSH2 0x4D7 JUMP JUMPDEST DUP3 MSTORE POP POP JUMP JUMPDEST PUSH0 PUSH1 0x40 DUP3 ADD SWAP1 POP PUSH2 0x734 PUSH0 DUP4 ADD DUP6 PUSH2 0x6AB JUMP JUMPDEST PUSH2 0x741 PUSH1 0x20 DUP4 ADD DUP5 PUSH2 0x712 JUMP JUMPDEST SWAP4 SWAP3 POP POP POP JUMP JUMPDEST PUSH0 DUP2 MLOAD SWAP1 POP SWAP2 SWAP1 POP JUMP JUMPDEST PUSH0 DUP3 DUP3 MSTORE PUSH1 0x20 DUP3 ADD SWAP1 POP SWAP3 SWAP2 POP POP JUMP JUMPDEST PUSH0 JUMPDEST DUP4 DUP2 LT ISZERO PUSH2 0x77F JUMPI DUP1 DUP3 ADD MLOAD DUP2 DUP5 ADD MSTORE PUSH1 0x20 DUP2 ADD SWAP1 POP PUSH2 0x764 JUMP JUMPDEST PUSH0 DUP5 DUP5 ADD MSTORE POP POP POP POP JUMP JUMPDEST PUSH0 PUSH1 0x1F NOT PUSH1 0x1F DUP4 ADD AND SWAP1 POP SWAP2 SWAP1 POP JUMP JUMPDEST PUSH0 PUSH2 0x7A4 DUP3 PUSH2 0x748 JUMP JUMPDEST PUSH2 0x7AE DUP2 DUP6 PUSH2 0x752 JUMP JUMPDEST SWAP4 POP PUSH2 0x7BE DUP2 DUP6 PUSH1 0x20 DUP7 ADD PUSH2 0x762 JUMP JUMPDEST PUSH2 0x7C7 DUP2 PUSH2 0x78A JUMP JUMPDEST DUP5 ADD SWAP2 POP POP SWAP3 SWAP2 POP POP JUMP JUMPDEST PUSH0 PUSH2 0xFFFF DUP3 AND SWAP1 POP SWAP2 SWAP1 POP JUMP JUMPDEST PUSH2 0x7E8 DUP2 PUSH2 0x7D2 JUMP JUMPDEST DUP3 MSTORE POP POP JUMP JUMPDEST PUSH0 PUSH1 0xA0 DUP3 ADD SWAP1 POP PUSH2 0x801 PUSH0 DUP4 ADD DUP9 PUSH2 0x6AB JUMP JUMPDEST PUSH2 0x80E PUSH1 0x20 DUP4 ADD DUP8 PUSH2 0x6AB JUMP JUMPDEST PUSH2 0x81B PUSH1 0x40 DUP4 ADD DUP7 PUSH2 0x712 JUMP JUMPDEST DUP2 DUP2 SUB PUSH1 0x60 DUP4 ADD MSTORE PUSH2 0x82D DUP2 DUP6 PUSH2 0x79A JUMP JUMPDEST SWAP1 POP PUSH2 0x83C PUSH1 0x80 DUP4 ADD DUP5 PUSH2 0x7DF JUMP JUMPDEST SWAP7 SWAP6 POP POP POP POP POP POP JUMP JUMPDEST PUSH2 0x84F DUP2 PUSH2 0x63F JUMP JUMPDEST DUP2 EQ PUSH2 0x859 JUMPI PUSH0 DUP1 REVERT JUMPDEST POP JUMP JUMPDEST PUSH0 DUP2 MLOAD SWAP1 POP PUSH2 0x86A DUP2 PUSH2 0x846 JUMP JUMPDEST SWAP3 SWAP2 POP POP JUMP JUMPDEST PUSH0 PUSH1 0x20 DUP3 DUP5 SUB SLT ISZERO PUSH2 0x885 JUMPI PUSH2 0x884 PUSH2 0x494 JUMP JUMPDEST JUMPDEST PUSH0 PUSH2 0x892 DUP5 DUP3 DUP6 ADD PUSH2 0x85C JUMP JUMPDEST SWAP2 POP POP SWAP3 SWAP2 POP POP JUMP JUMPDEST PUSH32 0x4E487B7100000000000000000000000000000000000000000000000000000000 PUSH0 MSTORE PUSH1 0x11 PUSH1 0x4 MSTORE PUSH1 0x24 PUSH0 REVERT JUMPDEST PUSH0 PUSH2 0x8D2 DUP3 PUSH2 0x4D7 JUMP JUMPDEST SWAP2 POP PUSH2 0x8DD DUP4 PUSH2 0x4D7 JUMP JUMPDEST SWAP3 POP DUP3 DUP3 ADD SWAP1 POP DUP1 DUP3 GT ISZERO PUSH2 0x8F5 JUMPI PUSH2 0x8F4 PUSH2 0x89B JUMP JUMPDEST JUMPDEST SWAP3 SWAP2 POP POP JUMP INVALID LOG2 PUSH5 0x6970667358 0x22 SLT KECCAK256 0xAC SWAP16 EXTCODESIZE 0xC3 DUP6 0xA7 SDIV PUSH15 0x5620A167DAC42C3BE2C271AC25017F 0xE1 0xCC SWAP15 PUSH4 0x39B0EF57 0xCA PUSH5 0x736F6C6343 STOP ADDMOD XOR STOP CALLER "
		},
		"gasEstimates": {
			"creation": {
				"codeDepositCost": "470600",
				"executionCost": "infinite",
				"totalCost": "infinite"
			},
			"external": {
				"ADDRESSES_PROVIDER()": "infinite",
				"POOL()": "infinite",
				"createFlashLoan(address,uint256)": "infinite",
				"executeOperation(address,uint256,uint256,address,bytes)": "infinite"
			}
		},
		"methodIdentifiers": {
			"ADDRESSES_PROVIDER()": "0542975c",
			"POOL()": "7535d246",
			"createFlashLoan(address,uint256)": "0a6095da",
			"executeOperation(address,uint256,uint256,address,bytes)": "1b11d0ff"
		}
	},
	"abi": [
		{
			"inputs": [
				{
					"internalType": "contract IPoolAddressesProvider",
					"name": "provider",
					"type": "address"
				}
			],
			"stateMutability": "nonpayable",
			"type": "constructor"
		},
		{
			"anonymous": false,
			"inputs": [
				{
					"indexed": false,
					"internalType": "address",
					"name": "asset",
					"type": "address"
				},
				{
					"indexed": false,
					"internalType": "uint256",
					"name": "val",
					"type": "uint256"
				}
			],
			"name": "Log",
			"type": "event"
		},
		{
			"inputs": [],
			"name": "ADDRESSES_PROVIDER",
			"outputs": [
				{
					"internalType": "contract IPoolAddressesProvider",
					"name": "",
					"type": "address"
				}
			],
			"stateMutability": "view",
			"type": "function"
		},
		{
			"inputs": [],
			"name": "POOL",
			"outputs": [
				{
					"internalType": "contract IPool",
					"name": "",
					"type": "address"
				}
			],
			"stateMutability": "view",
			"type": "function"
		},
		{
			"inputs": [
				{
					"internalType": "address",
					"name": "asset",
					"type": "address"
				},
				{
					"internalType": "uint256",
					"name": "amount",
					"type": "uint256"
				}
			],
			"name": "createFlashLoan",
			"outputs": [],
			"stateMutability": "nonpayable",
			"type": "function"
		},
		{
			"inputs": [
				{
					"internalType": "address",
					"name": "asset",
					"type": "address"
				},
				{
					"internalType": "uint256",
					"name": "amount",
					"type": "uint256"
				},
				{
					"internalType": "uint256",
					"name": "premium",
					"type": "uint256"
				},
				{
					"internalType": "address",
					"name": "initiator",
					"type": "address"
				},
				{
					"internalType": "bytes",
					"name": "params",
					"type": "bytes"
				}
			],
			"name": "executeOperation",
			"outputs": [
				{
					"internalType": "bool",
					"name": "",
					"type": "bool"
				}
			],
			"stateMutability": "nonpayable",
			"type": "function"
		}
	]
}